{
	"Documents/Web3/Casino/002 Roulette.sol": {
		"Roulette": {
			"abi": [
				{
					"inputs": [],
					"stateMutability": "nonpayable",
					"type": "constructor"
				},
				{
					"inputs": [],
					"name": "deposit",
					"outputs": [],
					"stateMutability": "payable",
					"type": "function"
				},
				{
					"inputs": [],
					"name": "eightToOne",
					"outputs": [],
					"stateMutability": "payable",
					"type": "function"
				},
				{
					"inputs": [],
					"name": "elevenToOne",
					"outputs": [],
					"stateMutability": "payable",
					"type": "function"
				},
				{
					"inputs": [],
					"name": "fiveToOne",
					"outputs": [],
					"stateMutability": "payable",
					"type": "function"
				},
				{
					"inputs": [],
					"name": "getBalance",
					"outputs": [
						{
							"internalType": "uint256",
							"name": "",
							"type": "uint256"
						}
					],
					"stateMutability": "view",
					"type": "function"
				},
				{
					"inputs": [],
					"name": "oneToOne",
					"outputs": [],
					"stateMutability": "payable",
					"type": "function"
				},
				{
					"inputs": [],
					"name": "owner",
					"outputs": [
						{
							"internalType": "address payable",
							"name": "",
							"type": "address"
						}
					],
					"stateMutability": "view",
					"type": "function"
				},
				{
					"inputs": [],
					"name": "seventeenToOne",
					"outputs": [],
					"stateMutability": "payable",
					"type": "function"
				},
				{
					"inputs": [],
					"name": "thirtyfiveToOne",
					"outputs": [],
					"stateMutability": "payable",
					"type": "function"
				},
				{
					"inputs": [],
					"name": "twoToOne",
					"outputs": [],
					"stateMutability": "payable",
					"type": "function"
				},
				{
					"inputs": [
						{
							"internalType": "uint256",
							"name": "amount",
							"type": "uint256"
						}
					],
					"name": "withdraw",
					"outputs": [],
					"stateMutability": "nonpayable",
					"type": "function"
				}
			],
			"devdoc": {
				"kind": "dev",
				"methods": {},
				"version": 1
			},
			"evm": {
				"assembly": "    /* \"Documents/Web3/Casino/002 Roulette.sol\":547:3212  contract Roulette {... */\n  mstore(0x40, 0x80)\n    /* \"Documents/Web3/Casino/002 Roulette.sol\":639:697  constructor() {... */\n  callvalue\n  dup1\n  iszero\n  tag_1\n  jumpi\n  0x00\n  dup1\n  revert\ntag_1:\n  pop\n    /* \"Documents/Web3/Casino/002 Roulette.sol\":679:689  msg.sender */\n  caller\n    /* \"Documents/Web3/Casino/002 Roulette.sol\":663:668  owner */\n  0x00\n  dup1\n    /* \"Documents/Web3/Casino/002 Roulette.sol\":663:690  owner = payable(msg.sender) */\n  0x0100\n  exp\n  dup2\n  sload\n  dup2\n  0xffffffffffffffffffffffffffffffffffffffff\n  mul\n  not\n  and\n  swap1\n  dup4\n  0xffffffffffffffffffffffffffffffffffffffff\n  and\n  mul\n  or\n  swap1\n  sstore\n  pop\n    /* \"Documents/Web3/Casino/002 Roulette.sol\":547:3212  contract Roulette {... */\n  dataSize(sub_0)\n  dup1\n  dataOffset(sub_0)\n  0x00\n  codecopy\n  0x00\n  return\nstop\n\nsub_0: assembly {\n        /* \"Documents/Web3/Casino/002 Roulette.sol\":547:3212  contract Roulette {... */\n      mstore(0x40, 0x80)\n      jumpi(tag_1, lt(calldatasize, 0x04))\n      shr(0xe0, calldataload(0x00))\n      dup1\n      0xa072a43c\n      gt\n      tag_13\n      jumpi\n      dup1\n      0xa072a43c\n      eq\n      tag_7\n      jumpi\n      dup1\n      0xb643afb9\n      eq\n      tag_8\n      jumpi\n      dup1\n      0xd0e30db0\n      eq\n      tag_9\n      jumpi\n      dup1\n      0xd13f1a4f\n      eq\n      tag_10\n      jumpi\n      dup1\n      0xe07bf074\n      eq\n      tag_11\n      jumpi\n      dup1\n      0xfdb099cf\n      eq\n      tag_12\n      jumpi\n      jump(tag_1)\n    tag_13:\n      dup1\n      0x12065fe0\n      eq\n      tag_2\n      jumpi\n      dup1\n      0x1b591841\n      eq\n      tag_3\n      jumpi\n      dup1\n      0x2e1a7d4d\n      eq\n      tag_4\n      jumpi\n      dup1\n      0x8da5cb5b\n      eq\n      tag_5\n      jumpi\n      dup1\n      0x906ba01b\n      eq\n      tag_6\n      jumpi\n    tag_1:\n      0x00\n      dup1\n      revert\n        /* \"Documents/Web3/Casino/002 Roulette.sol\":3099:3205  function getBalance() public view onlyOwner() returns (uint) {... */\n    tag_2:\n      callvalue\n      dup1\n      iszero\n      tag_14\n      jumpi\n      0x00\n      dup1\n      revert\n    tag_14:\n      pop\n      tag_15\n      tag_16\n      jump\t// in\n    tag_15:\n      mload(0x40)\n      tag_17\n      swap2\n      swap1\n      tag_18\n      jump\t// in\n    tag_17:\n      mload(0x40)\n      dup1\n      swap2\n      sub\n      swap1\n      return\n        /* \"Documents/Web3/Casino/002 Roulette.sol\":2170:2387  function elevenToOne() payable public {... */\n    tag_3:\n      tag_19\n      tag_20\n      jump\t// in\n    tag_19:\n      stop\n        /* \"Documents/Web3/Casino/002 Roulette.sol\":2944:3043  function withdraw(uint amount) public onlyOwner() {... */\n    tag_4:\n      callvalue\n      dup1\n      iszero\n      tag_21\n      jumpi\n      0x00\n      dup1\n      revert\n    tag_21:\n      pop\n      tag_22\n      0x04\n      dup1\n      calldatasize\n      sub\n      dup2\n      add\n      swap1\n      tag_23\n      swap2\n      swap1\n      tag_24\n      jump\t// in\n    tag_23:\n      tag_25\n      jump\t// in\n    tag_22:\n      stop\n        /* \"Documents/Web3/Casino/002 Roulette.sol\":572:600  address payable public owner */\n    tag_5:\n      callvalue\n      dup1\n      iszero\n      tag_26\n      jumpi\n      0x00\n      dup1\n      revert\n    tag_26:\n      pop\n      tag_27\n      tag_28\n      jump\t// in\n    tag_27:\n      mload(0x40)\n      tag_29\n      swap2\n      swap1\n      tag_30\n      jump\t// in\n    tag_29:\n      mload(0x40)\n      dup1\n      swap2\n      sub\n      swap1\n      return\n        /* \"Documents/Web3/Casino/002 Roulette.sol\":2393:2613  function seventeenToOne() payable public {... */\n    tag_6:\n      tag_31\n      tag_32\n      jump\t// in\n    tag_31:\n      stop\n        /* \"Documents/Web3/Casino/002 Roulette.sol\":1287:1501  function oneToOne() payable public {... */\n    tag_7:\n      tag_33\n      tag_34\n      jump\t// in\n    tag_33:\n      stop\n        /* \"Documents/Web3/Casino/002 Roulette.sol\":1727:1942  function fiveToOne() payable public {... */\n    tag_8:\n      tag_35\n      tag_36\n      jump\t// in\n    tag_35:\n      stop\n        /* \"Documents/Web3/Casino/002 Roulette.sol\":2890:2938  function deposit() payable public onlyOwner() {} */\n    tag_9:\n      tag_37\n      tag_38\n      jump\t// in\n    tag_37:\n      stop\n        /* \"Documents/Web3/Casino/002 Roulette.sol\":1948:2164  function eightToOne() payable public {... */\n    tag_10:\n      tag_39\n      tag_40\n      jump\t// in\n    tag_39:\n      stop\n        /* \"Documents/Web3/Casino/002 Roulette.sol\":2619:2840  function thirtyfiveToOne() payable public {... */\n    tag_11:\n      tag_41\n      tag_42\n      jump\t// in\n    tag_41:\n      stop\n        /* \"Documents/Web3/Casino/002 Roulette.sol\":1507:1721  function twoToOne() payable public {... */\n    tag_12:\n      tag_43\n      tag_44\n      jump\t// in\n    tag_43:\n      stop\n        /* \"Documents/Web3/Casino/002 Roulette.sol\":3099:3205  function getBalance() public view onlyOwner() returns (uint) {... */\n    tag_16:\n        /* \"Documents/Web3/Casino/002 Roulette.sol\":3154:3158  uint */\n      0x00\n        /* \"Documents/Web3/Casino/002 Roulette.sol\":793:798  owner */\n      dup1\n      0x00\n      swap1\n      sload\n      swap1\n      0x0100\n      exp\n      swap1\n      div\n      0xffffffffffffffffffffffffffffffffffffffff\n      and\n        /* \"Documents/Web3/Casino/002 Roulette.sol\":779:798  msg.sender == owner */\n      0xffffffffffffffffffffffffffffffffffffffff\n      and\n        /* \"Documents/Web3/Casino/002 Roulette.sol\":779:789  msg.sender */\n      caller\n        /* \"Documents/Web3/Casino/002 Roulette.sol\":779:798  msg.sender == owner */\n      0xffffffffffffffffffffffffffffffffffffffff\n      and\n      eq\n        /* \"Documents/Web3/Casino/002 Roulette.sol\":771:799  require(msg.sender == owner) */\n      tag_46\n      jumpi\n      0x00\n      dup1\n      revert\n    tag_46:\n        /* \"Documents/Web3/Casino/002 Roulette.sol\":3177:3198  address(this).balance */\n      selfbalance\n        /* \"Documents/Web3/Casino/002 Roulette.sol\":3170:3198  return address(this).balance */\n      swap1\n      pop\n        /* \"Documents/Web3/Casino/002 Roulette.sol\":3099:3205  function getBalance() public view onlyOwner() returns (uint) {... */\n      swap1\n      jump\t// out\n        /* \"Documents/Web3/Casino/002 Roulette.sol\":2170:2387  function elevenToOne() payable public {... */\n    tag_20:\n        /* \"Documents/Web3/Casino/002 Roulette.sol\":2218:2234  uint determinant */\n      0x00\n        /* \"Documents/Web3/Casino/002 Roulette.sol\":2257:2259  38 */\n      0x26\n        /* \"Documents/Web3/Casino/002 Roulette.sol\":2237:2254  getRandomNumber() */\n      tag_49\n        /* \"Documents/Web3/Casino/002 Roulette.sol\":2237:2252  getRandomNumber */\n      tag_50\n        /* \"Documents/Web3/Casino/002 Roulette.sol\":2237:2254  getRandomNumber() */\n      jump\t// in\n    tag_49:\n        /* \"Documents/Web3/Casino/002 Roulette.sol\":2237:2259  getRandomNumber() % 38 */\n      tag_51\n      swap2\n      swap1\n      tag_52\n      jump\t// in\n    tag_51:\n        /* \"Documents/Web3/Casino/002 Roulette.sol\":2218:2259  uint determinant = getRandomNumber() % 38 */\n      swap1\n      pop\n        /* \"Documents/Web3/Casino/002 Roulette.sol\":2287:2289  18 */\n      0x12\n        /* \"Documents/Web3/Casino/002 Roulette.sol\":2273:2284  determinant */\n      dup2\n        /* \"Documents/Web3/Casino/002 Roulette.sol\":2273:2289  determinant < 18 */\n      lt\n        /* \"Documents/Web3/Casino/002 Roulette.sol\":2269:2381  if (determinant < 18) {... */\n      iszero\n      tag_53\n      jumpi\n        /* \"Documents/Web3/Casino/002 Roulette.sol\":2313:2323  msg.sender */\n      caller\n        /* \"Documents/Web3/Casino/002 Roulette.sol\":2305:2333  payable(msg.sender).transfer */\n      0xffffffffffffffffffffffffffffffffffffffff\n      and\n        /* \"Documents/Web3/Casino/002 Roulette.sol\":2305:2354  payable(msg.sender).transfer(msg.value * 2 ether) */\n      0x08fc\n        /* \"Documents/Web3/Casino/002 Roulette.sol\":2346:2353  2 ether */\n      0x1bc16d674ec80000\n        /* \"Documents/Web3/Casino/002 Roulette.sol\":2334:2343  msg.value */\n      callvalue\n        /* \"Documents/Web3/Casino/002 Roulette.sol\":2334:2353  msg.value * 2 ether */\n      tag_54\n      swap2\n      swap1\n      tag_55\n      jump\t// in\n    tag_54:\n        /* \"Documents/Web3/Casino/002 Roulette.sol\":2305:2354  payable(msg.sender).transfer(msg.value * 2 ether) */\n      swap1\n      dup2\n      iszero\n      mul\n      swap1\n      mload(0x40)\n      0x00\n      mload(0x40)\n      dup1\n      dup4\n      sub\n      dup2\n      dup6\n      dup9\n      dup9\n      call\n      swap4\n      pop\n      pop\n      pop\n      pop\n      iszero\n      dup1\n      iszero\n      tag_57\n      jumpi\n      returndatasize\n      0x00\n      dup1\n      returndatacopy\n      revert(0x00, returndatasize)\n    tag_57:\n      pop\n        /* \"Documents/Web3/Casino/002 Roulette.sol\":2269:2381  if (determinant < 18) {... */\n      jump(tag_58)\n    tag_53:\n    tag_58:\n        /* \"Documents/Web3/Casino/002 Roulette.sol\":2208:2387  {... */\n      pop\n        /* \"Documents/Web3/Casino/002 Roulette.sol\":2170:2387  function elevenToOne() payable public {... */\n      jump\t// out\n        /* \"Documents/Web3/Casino/002 Roulette.sol\":2944:3043  function withdraw(uint amount) public onlyOwner() {... */\n    tag_25:\n        /* \"Documents/Web3/Casino/002 Roulette.sol\":793:798  owner */\n      0x00\n      dup1\n      sload\n      swap1\n      0x0100\n      exp\n      swap1\n      div\n      0xffffffffffffffffffffffffffffffffffffffff\n      and\n        /* \"Documents/Web3/Casino/002 Roulette.sol\":779:798  msg.sender == owner */\n      0xffffffffffffffffffffffffffffffffffffffff\n      and\n        /* \"Documents/Web3/Casino/002 Roulette.sol\":779:789  msg.sender */\n      caller\n        /* \"Documents/Web3/Casino/002 Roulette.sol\":779:798  msg.sender == owner */\n      0xffffffffffffffffffffffffffffffffffffffff\n      and\n      eq\n        /* \"Documents/Web3/Casino/002 Roulette.sol\":771:799  require(msg.sender == owner) */\n      tag_60\n      jumpi\n      0x00\n      dup1\n      revert\n    tag_60:\n        /* \"Documents/Web3/Casino/002 Roulette.sol\":3004:3009  owner */\n      0x00\n      dup1\n      sload\n      swap1\n      0x0100\n      exp\n      swap1\n      div\n      0xffffffffffffffffffffffffffffffffffffffff\n      and\n        /* \"Documents/Web3/Casino/002 Roulette.sol\":3004:3018  owner.transfer */\n      0xffffffffffffffffffffffffffffffffffffffff\n      and\n        /* \"Documents/Web3/Casino/002 Roulette.sol\":3004:3036  owner.transfer(amount * 1 ether) */\n      0x08fc\n        /* \"Documents/Web3/Casino/002 Roulette.sol\":3028:3035  1 ether */\n      0x0de0b6b3a7640000\n        /* \"Documents/Web3/Casino/002 Roulette.sol\":3019:3025  amount */\n      dup4\n        /* \"Documents/Web3/Casino/002 Roulette.sol\":3019:3035  amount * 1 ether */\n      tag_62\n      swap2\n      swap1\n      tag_55\n      jump\t// in\n    tag_62:\n        /* \"Documents/Web3/Casino/002 Roulette.sol\":3004:3036  owner.transfer(amount * 1 ether) */\n      swap1\n      dup2\n      iszero\n      mul\n      swap1\n      mload(0x40)\n      0x00\n      mload(0x40)\n      dup1\n      dup4\n      sub\n      dup2\n      dup6\n      dup9\n      dup9\n      call\n      swap4\n      pop\n      pop\n      pop\n      pop\n      iszero\n      dup1\n      iszero\n      tag_64\n      jumpi\n      returndatasize\n      0x00\n      dup1\n      returndatacopy\n      revert(0x00, returndatasize)\n    tag_64:\n      pop\n        /* \"Documents/Web3/Casino/002 Roulette.sol\":2944:3043  function withdraw(uint amount) public onlyOwner() {... */\n      pop\n      jump\t// out\n        /* \"Documents/Web3/Casino/002 Roulette.sol\":572:600  address payable public owner */\n    tag_28:\n      0x00\n      dup1\n      sload\n      swap1\n      0x0100\n      exp\n      swap1\n      div\n      0xffffffffffffffffffffffffffffffffffffffff\n      and\n      dup2\n      jump\t// out\n        /* \"Documents/Web3/Casino/002 Roulette.sol\":2393:2613  function seventeenToOne() payable public {... */\n    tag_32:\n        /* \"Documents/Web3/Casino/002 Roulette.sol\":2444:2460  uint determinant */\n      0x00\n        /* \"Documents/Web3/Casino/002 Roulette.sol\":2483:2485  38 */\n      0x26\n        /* \"Documents/Web3/Casino/002 Roulette.sol\":2463:2480  getRandomNumber() */\n      tag_66\n        /* \"Documents/Web3/Casino/002 Roulette.sol\":2463:2478  getRandomNumber */\n      tag_50\n        /* \"Documents/Web3/Casino/002 Roulette.sol\":2463:2480  getRandomNumber() */\n      jump\t// in\n    tag_66:\n        /* \"Documents/Web3/Casino/002 Roulette.sol\":2463:2485  getRandomNumber() % 38 */\n      tag_67\n      swap2\n      swap1\n      tag_52\n      jump\t// in\n    tag_67:\n        /* \"Documents/Web3/Casino/002 Roulette.sol\":2444:2485  uint determinant = getRandomNumber() % 38 */\n      swap1\n      pop\n        /* \"Documents/Web3/Casino/002 Roulette.sol\":2513:2515  18 */\n      0x12\n        /* \"Documents/Web3/Casino/002 Roulette.sol\":2499:2510  determinant */\n      dup2\n        /* \"Documents/Web3/Casino/002 Roulette.sol\":2499:2515  determinant < 18 */\n      lt\n        /* \"Documents/Web3/Casino/002 Roulette.sol\":2495:2607  if (determinant < 18) {... */\n      iszero\n      tag_68\n      jumpi\n        /* \"Documents/Web3/Casino/002 Roulette.sol\":2539:2549  msg.sender */\n      caller\n        /* \"Documents/Web3/Casino/002 Roulette.sol\":2531:2559  payable(msg.sender).transfer */\n      0xffffffffffffffffffffffffffffffffffffffff\n      and\n        /* \"Documents/Web3/Casino/002 Roulette.sol\":2531:2580  payable(msg.sender).transfer(msg.value * 2 ether) */\n      0x08fc\n        /* \"Documents/Web3/Casino/002 Roulette.sol\":2572:2579  2 ether */\n      0x1bc16d674ec80000\n        /* \"Documents/Web3/Casino/002 Roulette.sol\":2560:2569  msg.value */\n      callvalue\n        /* \"Documents/Web3/Casino/002 Roulette.sol\":2560:2579  msg.value * 2 ether */\n      tag_69\n      swap2\n      swap1\n      tag_55\n      jump\t// in\n    tag_69:\n        /* \"Documents/Web3/Casino/002 Roulette.sol\":2531:2580  payable(msg.sender).transfer(msg.value * 2 ether) */\n      swap1\n      dup2\n      iszero\n      mul\n      swap1\n      mload(0x40)\n      0x00\n      mload(0x40)\n      dup1\n      dup4\n      sub\n      dup2\n      dup6\n      dup9\n      dup9\n      call\n      swap4\n      pop\n      pop\n      pop\n      pop\n      iszero\n      dup1\n      iszero\n      tag_71\n      jumpi\n      returndatasize\n      0x00\n      dup1\n      returndatacopy\n      revert(0x00, returndatasize)\n    tag_71:\n      pop\n        /* \"Documents/Web3/Casino/002 Roulette.sol\":2495:2607  if (determinant < 18) {... */\n      jump(tag_72)\n    tag_68:\n    tag_72:\n        /* \"Documents/Web3/Casino/002 Roulette.sol\":2434:2613  {... */\n      pop\n        /* \"Documents/Web3/Casino/002 Roulette.sol\":2393:2613  function seventeenToOne() payable public {... */\n      jump\t// out\n        /* \"Documents/Web3/Casino/002 Roulette.sol\":1287:1501  function oneToOne() payable public {... */\n    tag_34:\n        /* \"Documents/Web3/Casino/002 Roulette.sol\":1332:1348  uint determinant */\n      0x00\n        /* \"Documents/Web3/Casino/002 Roulette.sol\":1371:1373  38 */\n      0x26\n        /* \"Documents/Web3/Casino/002 Roulette.sol\":1351:1368  getRandomNumber() */\n      tag_74\n        /* \"Documents/Web3/Casino/002 Roulette.sol\":1351:1366  getRandomNumber */\n      tag_50\n        /* \"Documents/Web3/Casino/002 Roulette.sol\":1351:1368  getRandomNumber() */\n      jump\t// in\n    tag_74:\n        /* \"Documents/Web3/Casino/002 Roulette.sol\":1351:1373  getRandomNumber() % 38 */\n      tag_75\n      swap2\n      swap1\n      tag_52\n      jump\t// in\n    tag_75:\n        /* \"Documents/Web3/Casino/002 Roulette.sol\":1332:1373  uint determinant = getRandomNumber() % 38 */\n      swap1\n      pop\n        /* \"Documents/Web3/Casino/002 Roulette.sol\":1401:1403  18 */\n      0x12\n        /* \"Documents/Web3/Casino/002 Roulette.sol\":1387:1398  determinant */\n      dup2\n        /* \"Documents/Web3/Casino/002 Roulette.sol\":1387:1403  determinant < 18 */\n      lt\n        /* \"Documents/Web3/Casino/002 Roulette.sol\":1383:1495  if (determinant < 18) {... */\n      iszero\n      tag_76\n      jumpi\n        /* \"Documents/Web3/Casino/002 Roulette.sol\":1427:1437  msg.sender */\n      caller\n        /* \"Documents/Web3/Casino/002 Roulette.sol\":1419:1447  payable(msg.sender).transfer */\n      0xffffffffffffffffffffffffffffffffffffffff\n      and\n        /* \"Documents/Web3/Casino/002 Roulette.sol\":1419:1468  payable(msg.sender).transfer(msg.value * 2 ether) */\n      0x08fc\n        /* \"Documents/Web3/Casino/002 Roulette.sol\":1460:1467  2 ether */\n      0x1bc16d674ec80000\n        /* \"Documents/Web3/Casino/002 Roulette.sol\":1448:1457  msg.value */\n      callvalue\n        /* \"Documents/Web3/Casino/002 Roulette.sol\":1448:1467  msg.value * 2 ether */\n      tag_77\n      swap2\n      swap1\n      tag_55\n      jump\t// in\n    tag_77:\n        /* \"Documents/Web3/Casino/002 Roulette.sol\":1419:1468  payable(msg.sender).transfer(msg.value * 2 ether) */\n      swap1\n      dup2\n      iszero\n      mul\n      swap1\n      mload(0x40)\n      0x00\n      mload(0x40)\n      dup1\n      dup4\n      sub\n      dup2\n      dup6\n      dup9\n      dup9\n      call\n      swap4\n      pop\n      pop\n      pop\n      pop\n      iszero\n      dup1\n      iszero\n      tag_79\n      jumpi\n      returndatasize\n      0x00\n      dup1\n      returndatacopy\n      revert(0x00, returndatasize)\n    tag_79:\n      pop\n        /* \"Documents/Web3/Casino/002 Roulette.sol\":1383:1495  if (determinant < 18) {... */\n      jump(tag_80)\n    tag_76:\n    tag_80:\n        /* \"Documents/Web3/Casino/002 Roulette.sol\":1322:1501  {... */\n      pop\n        /* \"Documents/Web3/Casino/002 Roulette.sol\":1287:1501  function oneToOne() payable public {... */\n      jump\t// out\n        /* \"Documents/Web3/Casino/002 Roulette.sol\":1727:1942  function fiveToOne() payable public {... */\n    tag_36:\n        /* \"Documents/Web3/Casino/002 Roulette.sol\":1773:1789  uint determinant */\n      0x00\n        /* \"Documents/Web3/Casino/002 Roulette.sol\":1812:1814  38 */\n      0x26\n        /* \"Documents/Web3/Casino/002 Roulette.sol\":1792:1809  getRandomNumber() */\n      tag_82\n        /* \"Documents/Web3/Casino/002 Roulette.sol\":1792:1807  getRandomNumber */\n      tag_50\n        /* \"Documents/Web3/Casino/002 Roulette.sol\":1792:1809  getRandomNumber() */\n      jump\t// in\n    tag_82:\n        /* \"Documents/Web3/Casino/002 Roulette.sol\":1792:1814  getRandomNumber() % 38 */\n      tag_83\n      swap2\n      swap1\n      tag_52\n      jump\t// in\n    tag_83:\n        /* \"Documents/Web3/Casino/002 Roulette.sol\":1773:1814  uint determinant = getRandomNumber() % 38 */\n      swap1\n      pop\n        /* \"Documents/Web3/Casino/002 Roulette.sol\":1842:1844  18 */\n      0x12\n        /* \"Documents/Web3/Casino/002 Roulette.sol\":1828:1839  determinant */\n      dup2\n        /* \"Documents/Web3/Casino/002 Roulette.sol\":1828:1844  determinant < 18 */\n      lt\n        /* \"Documents/Web3/Casino/002 Roulette.sol\":1824:1936  if (determinant < 18) {... */\n      iszero\n      tag_84\n      jumpi\n        /* \"Documents/Web3/Casino/002 Roulette.sol\":1868:1878  msg.sender */\n      caller\n        /* \"Documents/Web3/Casino/002 Roulette.sol\":1860:1888  payable(msg.sender).transfer */\n      0xffffffffffffffffffffffffffffffffffffffff\n      and\n        /* \"Documents/Web3/Casino/002 Roulette.sol\":1860:1909  payable(msg.sender).transfer(msg.value * 2 ether) */\n      0x08fc\n        /* \"Documents/Web3/Casino/002 Roulette.sol\":1901:1908  2 ether */\n      0x1bc16d674ec80000\n        /* \"Documents/Web3/Casino/002 Roulette.sol\":1889:1898  msg.value */\n      callvalue\n        /* \"Documents/Web3/Casino/002 Roulette.sol\":1889:1908  msg.value * 2 ether */\n      tag_85\n      swap2\n      swap1\n      tag_55\n      jump\t// in\n    tag_85:\n        /* \"Documents/Web3/Casino/002 Roulette.sol\":1860:1909  payable(msg.sender).transfer(msg.value * 2 ether) */\n      swap1\n      dup2\n      iszero\n      mul\n      swap1\n      mload(0x40)\n      0x00\n      mload(0x40)\n      dup1\n      dup4\n      sub\n      dup2\n      dup6\n      dup9\n      dup9\n      call\n      swap4\n      pop\n      pop\n      pop\n      pop\n      iszero\n      dup1\n      iszero\n      tag_87\n      jumpi\n      returndatasize\n      0x00\n      dup1\n      returndatacopy\n      revert(0x00, returndatasize)\n    tag_87:\n      pop\n        /* \"Documents/Web3/Casino/002 Roulette.sol\":1824:1936  if (determinant < 18) {... */\n      jump(tag_88)\n    tag_84:\n    tag_88:\n        /* \"Documents/Web3/Casino/002 Roulette.sol\":1763:1942  {... */\n      pop\n        /* \"Documents/Web3/Casino/002 Roulette.sol\":1727:1942  function fiveToOne() payable public {... */\n      jump\t// out\n        /* \"Documents/Web3/Casino/002 Roulette.sol\":2890:2938  function deposit() payable public onlyOwner() {} */\n    tag_38:\n        /* \"Documents/Web3/Casino/002 Roulette.sol\":793:798  owner */\n      0x00\n      dup1\n      sload\n      swap1\n      0x0100\n      exp\n      swap1\n      div\n      0xffffffffffffffffffffffffffffffffffffffff\n      and\n        /* \"Documents/Web3/Casino/002 Roulette.sol\":779:798  msg.sender == owner */\n      0xffffffffffffffffffffffffffffffffffffffff\n      and\n        /* \"Documents/Web3/Casino/002 Roulette.sol\":779:789  msg.sender */\n      caller\n        /* \"Documents/Web3/Casino/002 Roulette.sol\":779:798  msg.sender == owner */\n      0xffffffffffffffffffffffffffffffffffffffff\n      and\n      eq\n        /* \"Documents/Web3/Casino/002 Roulette.sol\":771:799  require(msg.sender == owner) */\n      tag_90\n      jumpi\n      0x00\n      dup1\n      revert\n    tag_90:\n        /* \"Documents/Web3/Casino/002 Roulette.sol\":2890:2938  function deposit() payable public onlyOwner() {} */\n      jump\t// out\n        /* \"Documents/Web3/Casino/002 Roulette.sol\":1948:2164  function eightToOne() payable public {... */\n    tag_40:\n        /* \"Documents/Web3/Casino/002 Roulette.sol\":1995:2011  uint determinant */\n      0x00\n        /* \"Documents/Web3/Casino/002 Roulette.sol\":2034:2036  38 */\n      0x26\n        /* \"Documents/Web3/Casino/002 Roulette.sol\":2014:2031  getRandomNumber() */\n      tag_93\n        /* \"Documents/Web3/Casino/002 Roulette.sol\":2014:2029  getRandomNumber */\n      tag_50\n        /* \"Documents/Web3/Casino/002 Roulette.sol\":2014:2031  getRandomNumber() */\n      jump\t// in\n    tag_93:\n        /* \"Documents/Web3/Casino/002 Roulette.sol\":2014:2036  getRandomNumber() % 38 */\n      tag_94\n      swap2\n      swap1\n      tag_52\n      jump\t// in\n    tag_94:\n        /* \"Documents/Web3/Casino/002 Roulette.sol\":1995:2036  uint determinant = getRandomNumber() % 38 */\n      swap1\n      pop\n        /* \"Documents/Web3/Casino/002 Roulette.sol\":2064:2066  18 */\n      0x12\n        /* \"Documents/Web3/Casino/002 Roulette.sol\":2050:2061  determinant */\n      dup2\n        /* \"Documents/Web3/Casino/002 Roulette.sol\":2050:2066  determinant < 18 */\n      lt\n        /* \"Documents/Web3/Casino/002 Roulette.sol\":2046:2158  if (determinant < 18) {... */\n      iszero\n      tag_95\n      jumpi\n        /* \"Documents/Web3/Casino/002 Roulette.sol\":2090:2100  msg.sender */\n      caller\n        /* \"Documents/Web3/Casino/002 Roulette.sol\":2082:2110  payable(msg.sender).transfer */\n      0xffffffffffffffffffffffffffffffffffffffff\n      and\n        /* \"Documents/Web3/Casino/002 Roulette.sol\":2082:2131  payable(msg.sender).transfer(msg.value * 2 ether) */\n      0x08fc\n        /* \"Documents/Web3/Casino/002 Roulette.sol\":2123:2130  2 ether */\n      0x1bc16d674ec80000\n        /* \"Documents/Web3/Casino/002 Roulette.sol\":2111:2120  msg.value */\n      callvalue\n        /* \"Documents/Web3/Casino/002 Roulette.sol\":2111:2130  msg.value * 2 ether */\n      tag_96\n      swap2\n      swap1\n      tag_55\n      jump\t// in\n    tag_96:\n        /* \"Documents/Web3/Casino/002 Roulette.sol\":2082:2131  payable(msg.sender).transfer(msg.value * 2 ether) */\n      swap1\n      dup2\n      iszero\n      mul\n      swap1\n      mload(0x40)\n      0x00\n      mload(0x40)\n      dup1\n      dup4\n      sub\n      dup2\n      dup6\n      dup9\n      dup9\n      call\n      swap4\n      pop\n      pop\n      pop\n      pop\n      iszero\n      dup1\n      iszero\n      tag_98\n      jumpi\n      returndatasize\n      0x00\n      dup1\n      returndatacopy\n      revert(0x00, returndatasize)\n    tag_98:\n      pop\n        /* \"Documents/Web3/Casino/002 Roulette.sol\":2046:2158  if (determinant < 18) {... */\n      jump(tag_99)\n    tag_95:\n    tag_99:\n        /* \"Documents/Web3/Casino/002 Roulette.sol\":1985:2164  {... */\n      pop\n        /* \"Documents/Web3/Casino/002 Roulette.sol\":1948:2164  function eightToOne() payable public {... */\n      jump\t// out\n        /* \"Documents/Web3/Casino/002 Roulette.sol\":2619:2840  function thirtyfiveToOne() payable public {... */\n    tag_42:\n        /* \"Documents/Web3/Casino/002 Roulette.sol\":2671:2687  uint determinant */\n      0x00\n        /* \"Documents/Web3/Casino/002 Roulette.sol\":2710:2712  38 */\n      0x26\n        /* \"Documents/Web3/Casino/002 Roulette.sol\":2690:2707  getRandomNumber() */\n      tag_101\n        /* \"Documents/Web3/Casino/002 Roulette.sol\":2690:2705  getRandomNumber */\n      tag_50\n        /* \"Documents/Web3/Casino/002 Roulette.sol\":2690:2707  getRandomNumber() */\n      jump\t// in\n    tag_101:\n        /* \"Documents/Web3/Casino/002 Roulette.sol\":2690:2712  getRandomNumber() % 38 */\n      tag_102\n      swap2\n      swap1\n      tag_52\n      jump\t// in\n    tag_102:\n        /* \"Documents/Web3/Casino/002 Roulette.sol\":2671:2712  uint determinant = getRandomNumber() % 38 */\n      swap1\n      pop\n        /* \"Documents/Web3/Casino/002 Roulette.sol\":2740:2742  18 */\n      0x12\n        /* \"Documents/Web3/Casino/002 Roulette.sol\":2726:2737  determinant */\n      dup2\n        /* \"Documents/Web3/Casino/002 Roulette.sol\":2726:2742  determinant < 18 */\n      lt\n        /* \"Documents/Web3/Casino/002 Roulette.sol\":2722:2834  if (determinant < 18) {... */\n      iszero\n      tag_103\n      jumpi\n        /* \"Documents/Web3/Casino/002 Roulette.sol\":2766:2776  msg.sender */\n      caller\n        /* \"Documents/Web3/Casino/002 Roulette.sol\":2758:2786  payable(msg.sender).transfer */\n      0xffffffffffffffffffffffffffffffffffffffff\n      and\n        /* \"Documents/Web3/Casino/002 Roulette.sol\":2758:2807  payable(msg.sender).transfer(msg.value * 2 ether) */\n      0x08fc\n        /* \"Documents/Web3/Casino/002 Roulette.sol\":2799:2806  2 ether */\n      0x1bc16d674ec80000\n        /* \"Documents/Web3/Casino/002 Roulette.sol\":2787:2796  msg.value */\n      callvalue\n        /* \"Documents/Web3/Casino/002 Roulette.sol\":2787:2806  msg.value * 2 ether */\n      tag_104\n      swap2\n      swap1\n      tag_55\n      jump\t// in\n    tag_104:\n        /* \"Documents/Web3/Casino/002 Roulette.sol\":2758:2807  payable(msg.sender).transfer(msg.value * 2 ether) */\n      swap1\n      dup2\n      iszero\n      mul\n      swap1\n      mload(0x40)\n      0x00\n      mload(0x40)\n      dup1\n      dup4\n      sub\n      dup2\n      dup6\n      dup9\n      dup9\n      call\n      swap4\n      pop\n      pop\n      pop\n      pop\n      iszero\n      dup1\n      iszero\n      tag_106\n      jumpi\n      returndatasize\n      0x00\n      dup1\n      returndatacopy\n      revert(0x00, returndatasize)\n    tag_106:\n      pop\n        /* \"Documents/Web3/Casino/002 Roulette.sol\":2722:2834  if (determinant < 18) {... */\n      jump(tag_107)\n    tag_103:\n    tag_107:\n        /* \"Documents/Web3/Casino/002 Roulette.sol\":2661:2840  {... */\n      pop\n        /* \"Documents/Web3/Casino/002 Roulette.sol\":2619:2840  function thirtyfiveToOne() payable public {... */\n      jump\t// out\n        /* \"Documents/Web3/Casino/002 Roulette.sol\":1507:1721  function twoToOne() payable public {... */\n    tag_44:\n        /* \"Documents/Web3/Casino/002 Roulette.sol\":1552:1568  uint determinant */\n      0x00\n        /* \"Documents/Web3/Casino/002 Roulette.sol\":1591:1593  38 */\n      0x26\n        /* \"Documents/Web3/Casino/002 Roulette.sol\":1571:1588  getRandomNumber() */\n      tag_109\n        /* \"Documents/Web3/Casino/002 Roulette.sol\":1571:1586  getRandomNumber */\n      tag_50\n        /* \"Documents/Web3/Casino/002 Roulette.sol\":1571:1588  getRandomNumber() */\n      jump\t// in\n    tag_109:\n        /* \"Documents/Web3/Casino/002 Roulette.sol\":1571:1593  getRandomNumber() % 38 */\n      tag_110\n      swap2\n      swap1\n      tag_52\n      jump\t// in\n    tag_110:\n        /* \"Documents/Web3/Casino/002 Roulette.sol\":1552:1593  uint determinant = getRandomNumber() % 38 */\n      swap1\n      pop\n        /* \"Documents/Web3/Casino/002 Roulette.sol\":1621:1623  18 */\n      0x12\n        /* \"Documents/Web3/Casino/002 Roulette.sol\":1607:1618  determinant */\n      dup2\n        /* \"Documents/Web3/Casino/002 Roulette.sol\":1607:1623  determinant < 18 */\n      lt\n        /* \"Documents/Web3/Casino/002 Roulette.sol\":1603:1715  if (determinant < 18) {... */\n      iszero\n      tag_111\n      jumpi\n        /* \"Documents/Web3/Casino/002 Roulette.sol\":1647:1657  msg.sender */\n      caller\n        /* \"Documents/Web3/Casino/002 Roulette.sol\":1639:1667  payable(msg.sender).transfer */\n      0xffffffffffffffffffffffffffffffffffffffff\n      and\n        /* \"Documents/Web3/Casino/002 Roulette.sol\":1639:1688  payable(msg.sender).transfer(msg.value * 2 ether) */\n      0x08fc\n        /* \"Documents/Web3/Casino/002 Roulette.sol\":1680:1687  2 ether */\n      0x1bc16d674ec80000\n        /* \"Documents/Web3/Casino/002 Roulette.sol\":1668:1677  msg.value */\n      callvalue\n        /* \"Documents/Web3/Casino/002 Roulette.sol\":1668:1687  msg.value * 2 ether */\n      tag_112\n      swap2\n      swap1\n      tag_55\n      jump\t// in\n    tag_112:\n        /* \"Documents/Web3/Casino/002 Roulette.sol\":1639:1688  payable(msg.sender).transfer(msg.value * 2 ether) */\n      swap1\n      dup2\n      iszero\n      mul\n      swap1\n      mload(0x40)\n      0x00\n      mload(0x40)\n      dup1\n      dup4\n      sub\n      dup2\n      dup6\n      dup9\n      dup9\n      call\n      swap4\n      pop\n      pop\n      pop\n      pop\n      iszero\n      dup1\n      iszero\n      tag_114\n      jumpi\n      returndatasize\n      0x00\n      dup1\n      returndatacopy\n      revert(0x00, returndatasize)\n    tag_114:\n      pop\n        /* \"Documents/Web3/Casino/002 Roulette.sol\":1603:1715  if (determinant < 18) {... */\n      jump(tag_115)\n    tag_111:\n    tag_115:\n        /* \"Documents/Web3/Casino/002 Roulette.sol\":1542:1721  {... */\n      pop\n        /* \"Documents/Web3/Casino/002 Roulette.sol\":1507:1721  function twoToOne() payable public {... */\n      jump\t// out\n        /* \"Documents/Web3/Casino/002 Roulette.sol\":906:1076  function getRandomNumber() private view returns (uint) {... */\n    tag_50:\n        /* \"Documents/Web3/Casino/002 Roulette.sol\":955:959  uint */\n      0x00\n        /* \"Documents/Web3/Casino/002 Roulette.sol\":1010:1031  address(this).balance */\n      selfbalance\n        /* \"Documents/Web3/Casino/002 Roulette.sol\":1033:1048  block.timestamp */\n      timestamp\n        /* \"Documents/Web3/Casino/002 Roulette.sol\":1050:1066  block.difficulty */\n      difficulty\n        /* \"Documents/Web3/Casino/002 Roulette.sol\":993:1067  abi.encodePacked(address(this).balance, block.timestamp, block.difficulty) */\n      add(0x20, mload(0x40))\n      tag_117\n      swap4\n      swap3\n      swap2\n      swap1\n      tag_118\n      jump\t// in\n    tag_117:\n      mload(0x40)\n      0x20\n      dup2\n      dup4\n      sub\n      sub\n      dup2\n      mstore\n      swap1\n      0x40\n      mstore\n        /* \"Documents/Web3/Casino/002 Roulette.sol\":983:1068  keccak256(abi.encodePacked(address(this).balance, block.timestamp, block.difficulty)) */\n      dup1\n      mload\n      swap1\n      0x20\n      add\n      keccak256\n        /* \"Documents/Web3/Casino/002 Roulette.sol\":978:1069  uint(keccak256(abi.encodePacked(address(this).balance, block.timestamp, block.difficulty))) */\n      0x00\n      shr\n        /* \"Documents/Web3/Casino/002 Roulette.sol\":971:1069  return uint(keccak256(abi.encodePacked(address(this).balance, block.timestamp, block.difficulty))) */\n      swap1\n      pop\n        /* \"Documents/Web3/Casino/002 Roulette.sol\":906:1076  function getRandomNumber() private view returns (uint) {... */\n      swap1\n      jump\t// out\n        /* \"#utility.yul\":7:84   */\n    tag_119:\n        /* \"#utility.yul\":44:51   */\n      0x00\n        /* \"#utility.yul\":73:78   */\n      dup2\n        /* \"#utility.yul\":62:78   */\n      swap1\n      pop\n        /* \"#utility.yul\":7:84   */\n      swap2\n      swap1\n      pop\n      jump\t// out\n        /* \"#utility.yul\":90:208   */\n    tag_120:\n        /* \"#utility.yul\":177:201   */\n      tag_136\n        /* \"#utility.yul\":195:200   */\n      dup2\n        /* \"#utility.yul\":177:201   */\n      tag_119\n      jump\t// in\n    tag_136:\n        /* \"#utility.yul\":172:175   */\n      dup3\n        /* \"#utility.yul\":165:202   */\n      mstore\n        /* \"#utility.yul\":90:208   */\n      pop\n      pop\n      jump\t// out\n        /* \"#utility.yul\":214:436   */\n    tag_18:\n        /* \"#utility.yul\":307:311   */\n      0x00\n        /* \"#utility.yul\":345:347   */\n      0x20\n        /* \"#utility.yul\":334:343   */\n      dup3\n        /* \"#utility.yul\":330:348   */\n      add\n        /* \"#utility.yul\":322:348   */\n      swap1\n      pop\n        /* \"#utility.yul\":358:429   */\n      tag_138\n        /* \"#utility.yul\":426:427   */\n      0x00\n        /* \"#utility.yul\":415:424   */\n      dup4\n        /* \"#utility.yul\":411:428   */\n      add\n        /* \"#utility.yul\":402:408   */\n      dup5\n        /* \"#utility.yul\":358:429   */\n      tag_120\n      jump\t// in\n    tag_138:\n        /* \"#utility.yul\":214:436   */\n      swap3\n      swap2\n      pop\n      pop\n      jump\t// out\n        /* \"#utility.yul\":523:640   */\n    tag_122:\n        /* \"#utility.yul\":632:633   */\n      0x00\n        /* \"#utility.yul\":629:630   */\n      dup1\n        /* \"#utility.yul\":622:634   */\n      revert\n        /* \"#utility.yul\":769:891   */\n    tag_124:\n        /* \"#utility.yul\":842:866   */\n      tag_143\n        /* \"#utility.yul\":860:865   */\n      dup2\n        /* \"#utility.yul\":842:866   */\n      tag_119\n      jump\t// in\n    tag_143:\n        /* \"#utility.yul\":835:840   */\n      dup2\n        /* \"#utility.yul\":832:867   */\n      eq\n        /* \"#utility.yul\":822:885   */\n      tag_144\n      jumpi\n        /* \"#utility.yul\":881:882   */\n      0x00\n        /* \"#utility.yul\":878:879   */\n      dup1\n        /* \"#utility.yul\":871:883   */\n      revert\n        /* \"#utility.yul\":822:885   */\n    tag_144:\n        /* \"#utility.yul\":769:891   */\n      pop\n      jump\t// out\n        /* \"#utility.yul\":897:1036   */\n    tag_125:\n        /* \"#utility.yul\":943:948   */\n      0x00\n        /* \"#utility.yul\":981:987   */\n      dup2\n        /* \"#utility.yul\":968:988   */\n      calldataload\n        /* \"#utility.yul\":959:988   */\n      swap1\n      pop\n        /* \"#utility.yul\":997:1030   */\n      tag_146\n        /* \"#utility.yul\":1024:1029   */\n      dup2\n        /* \"#utility.yul\":997:1030   */\n      tag_124\n      jump\t// in\n    tag_146:\n        /* \"#utility.yul\":897:1036   */\n      swap3\n      swap2\n      pop\n      pop\n      jump\t// out\n        /* \"#utility.yul\":1042:1371   */\n    tag_24:\n        /* \"#utility.yul\":1101:1107   */\n      0x00\n        /* \"#utility.yul\":1150:1152   */\n      0x20\n        /* \"#utility.yul\":1138:1147   */\n      dup3\n        /* \"#utility.yul\":1129:1136   */\n      dup5\n        /* \"#utility.yul\":1125:1148   */\n      sub\n        /* \"#utility.yul\":1121:1153   */\n      slt\n        /* \"#utility.yul\":1118:1237   */\n      iszero\n      tag_148\n      jumpi\n        /* \"#utility.yul\":1156:1235   */\n      tag_149\n      tag_122\n      jump\t// in\n    tag_149:\n        /* \"#utility.yul\":1118:1237   */\n    tag_148:\n        /* \"#utility.yul\":1276:1277   */\n      0x00\n        /* \"#utility.yul\":1301:1354   */\n      tag_150\n        /* \"#utility.yul\":1346:1353   */\n      dup5\n        /* \"#utility.yul\":1337:1343   */\n      dup3\n        /* \"#utility.yul\":1326:1335   */\n      dup6\n        /* \"#utility.yul\":1322:1344   */\n      add\n        /* \"#utility.yul\":1301:1354   */\n      tag_125\n      jump\t// in\n    tag_150:\n        /* \"#utility.yul\":1291:1354   */\n      swap2\n      pop\n        /* \"#utility.yul\":1247:1364   */\n      pop\n        /* \"#utility.yul\":1042:1371   */\n      swap3\n      swap2\n      pop\n      pop\n      jump\t// out\n        /* \"#utility.yul\":1377:1503   */\n    tag_126:\n        /* \"#utility.yul\":1414:1421   */\n      0x00\n        /* \"#utility.yul\":1454:1496   */\n      0xffffffffffffffffffffffffffffffffffffffff\n        /* \"#utility.yul\":1447:1452   */\n      dup3\n        /* \"#utility.yul\":1443:1497   */\n      and\n        /* \"#utility.yul\":1432:1497   */\n      swap1\n      pop\n        /* \"#utility.yul\":1377:1503   */\n      swap2\n      swap1\n      pop\n      jump\t// out\n        /* \"#utility.yul\":1509:1613   */\n    tag_127:\n        /* \"#utility.yul\":1554:1561   */\n      0x00\n        /* \"#utility.yul\":1583:1607   */\n      tag_153\n        /* \"#utility.yul\":1601:1606   */\n      dup3\n        /* \"#utility.yul\":1583:1607   */\n      tag_126\n      jump\t// in\n    tag_153:\n        /* \"#utility.yul\":1572:1607   */\n      swap1\n      pop\n        /* \"#utility.yul\":1509:1613   */\n      swap2\n      swap1\n      pop\n      jump\t// out\n        /* \"#utility.yul\":1619:1761   */\n    tag_128:\n        /* \"#utility.yul\":1722:1754   */\n      tag_155\n        /* \"#utility.yul\":1748:1753   */\n      dup2\n        /* \"#utility.yul\":1722:1754   */\n      tag_127\n      jump\t// in\n    tag_155:\n        /* \"#utility.yul\":1717:1720   */\n      dup3\n        /* \"#utility.yul\":1710:1755   */\n      mstore\n        /* \"#utility.yul\":1619:1761   */\n      pop\n      pop\n      jump\t// out\n        /* \"#utility.yul\":1767:2021   */\n    tag_30:\n        /* \"#utility.yul\":1876:1880   */\n      0x00\n        /* \"#utility.yul\":1914:1916   */\n      0x20\n        /* \"#utility.yul\":1903:1912   */\n      dup3\n        /* \"#utility.yul\":1899:1917   */\n      add\n        /* \"#utility.yul\":1891:1917   */\n      swap1\n      pop\n        /* \"#utility.yul\":1927:2014   */\n      tag_157\n        /* \"#utility.yul\":2011:2012   */\n      0x00\n        /* \"#utility.yul\":2000:2009   */\n      dup4\n        /* \"#utility.yul\":1996:2013   */\n      add\n        /* \"#utility.yul\":1987:1993   */\n      dup5\n        /* \"#utility.yul\":1927:2014   */\n      tag_128\n      jump\t// in\n    tag_157:\n        /* \"#utility.yul\":1767:2021   */\n      swap3\n      swap2\n      pop\n      pop\n      jump\t// out\n        /* \"#utility.yul\":2027:2207   */\n    tag_129:\n        /* \"#utility.yul\":2075:2152   */\n      0x4e487b7100000000000000000000000000000000000000000000000000000000\n        /* \"#utility.yul\":2072:2073   */\n      0x00\n        /* \"#utility.yul\":2065:2153   */\n      mstore\n        /* \"#utility.yul\":2172:2176   */\n      0x12\n        /* \"#utility.yul\":2169:2170   */\n      0x04\n        /* \"#utility.yul\":2162:2177   */\n      mstore\n        /* \"#utility.yul\":2196:2200   */\n      0x24\n        /* \"#utility.yul\":2193:2194   */\n      0x00\n        /* \"#utility.yul\":2186:2201   */\n      revert\n        /* \"#utility.yul\":2213:2389   */\n    tag_52:\n        /* \"#utility.yul\":2245:2246   */\n      0x00\n        /* \"#utility.yul\":2262:2282   */\n      tag_160\n        /* \"#utility.yul\":2280:2281   */\n      dup3\n        /* \"#utility.yul\":2262:2282   */\n      tag_119\n      jump\t// in\n    tag_160:\n        /* \"#utility.yul\":2257:2282   */\n      swap2\n      pop\n        /* \"#utility.yul\":2296:2316   */\n      tag_161\n        /* \"#utility.yul\":2314:2315   */\n      dup4\n        /* \"#utility.yul\":2296:2316   */\n      tag_119\n      jump\t// in\n    tag_161:\n        /* \"#utility.yul\":2291:2316   */\n      swap3\n      pop\n        /* \"#utility.yul\":2335:2336   */\n      dup3\n        /* \"#utility.yul\":2325:2360   */\n      tag_162\n      jumpi\n        /* \"#utility.yul\":2340:2358   */\n      tag_163\n      tag_129\n      jump\t// in\n    tag_163:\n        /* \"#utility.yul\":2325:2360   */\n    tag_162:\n        /* \"#utility.yul\":2381:2382   */\n      dup3\n        /* \"#utility.yul\":2378:2379   */\n      dup3\n        /* \"#utility.yul\":2374:2383   */\n      mod\n        /* \"#utility.yul\":2369:2383   */\n      swap1\n      pop\n        /* \"#utility.yul\":2213:2389   */\n      swap3\n      swap2\n      pop\n      pop\n      jump\t// out\n        /* \"#utility.yul\":2395:2575   */\n    tag_130:\n        /* \"#utility.yul\":2443:2520   */\n      0x4e487b7100000000000000000000000000000000000000000000000000000000\n        /* \"#utility.yul\":2440:2441   */\n      0x00\n        /* \"#utility.yul\":2433:2521   */\n      mstore\n        /* \"#utility.yul\":2540:2544   */\n      0x11\n        /* \"#utility.yul\":2537:2538   */\n      0x04\n        /* \"#utility.yul\":2530:2545   */\n      mstore\n        /* \"#utility.yul\":2564:2568   */\n      0x24\n        /* \"#utility.yul\":2561:2562   */\n      0x00\n        /* \"#utility.yul\":2554:2569   */\n      revert\n        /* \"#utility.yul\":2581:2929   */\n    tag_55:\n        /* \"#utility.yul\":2621:2628   */\n      0x00\n        /* \"#utility.yul\":2644:2664   */\n      tag_166\n        /* \"#utility.yul\":2662:2663   */\n      dup3\n        /* \"#utility.yul\":2644:2664   */\n      tag_119\n      jump\t// in\n    tag_166:\n        /* \"#utility.yul\":2639:2664   */\n      swap2\n      pop\n        /* \"#utility.yul\":2678:2698   */\n      tag_167\n        /* \"#utility.yul\":2696:2697   */\n      dup4\n        /* \"#utility.yul\":2678:2698   */\n      tag_119\n      jump\t// in\n    tag_167:\n        /* \"#utility.yul\":2673:2698   */\n      swap3\n      pop\n        /* \"#utility.yul\":2866:2867   */\n      dup2\n        /* \"#utility.yul\":2798:2864   */\n      0xffffffffffffffffffffffffffffffffffffffffffffffffffffffffffffffff\n        /* \"#utility.yul\":2794:2868   */\n      div\n        /* \"#utility.yul\":2791:2792   */\n      dup4\n        /* \"#utility.yul\":2788:2869   */\n      gt\n        /* \"#utility.yul\":2783:2784   */\n      dup3\n        /* \"#utility.yul\":2776:2785   */\n      iszero\n        /* \"#utility.yul\":2769:2786   */\n      iszero\n        /* \"#utility.yul\":2765:2870   */\n      and\n        /* \"#utility.yul\":2762:2893   */\n      iszero\n      tag_168\n      jumpi\n        /* \"#utility.yul\":2873:2891   */\n      tag_169\n      tag_130\n      jump\t// in\n    tag_169:\n        /* \"#utility.yul\":2762:2893   */\n    tag_168:\n        /* \"#utility.yul\":2921:2922   */\n      dup3\n        /* \"#utility.yul\":2918:2919   */\n      dup3\n        /* \"#utility.yul\":2914:2923   */\n      mul\n        /* \"#utility.yul\":2903:2923   */\n      swap1\n      pop\n        /* \"#utility.yul\":2581:2929   */\n      swap3\n      swap2\n      pop\n      pop\n      jump\t// out\n        /* \"#utility.yul\":2935:3014   */\n    tag_131:\n        /* \"#utility.yul\":2974:2981   */\n      0x00\n        /* \"#utility.yul\":3003:3008   */\n      dup2\n        /* \"#utility.yul\":2992:3008   */\n      swap1\n      pop\n        /* \"#utility.yul\":2935:3014   */\n      swap2\n      swap1\n      pop\n      jump\t// out\n        /* \"#utility.yul\":3020:3177   */\n    tag_132:\n        /* \"#utility.yul\":3125:3170   */\n      tag_172\n        /* \"#utility.yul\":3145:3169   */\n      tag_173\n        /* \"#utility.yul\":3163:3168   */\n      dup3\n        /* \"#utility.yul\":3145:3169   */\n      tag_119\n      jump\t// in\n    tag_173:\n        /* \"#utility.yul\":3125:3170   */\n      tag_131\n      jump\t// in\n    tag_172:\n        /* \"#utility.yul\":3120:3123   */\n      dup3\n        /* \"#utility.yul\":3113:3171   */\n      mstore\n        /* \"#utility.yul\":3020:3177   */\n      pop\n      pop\n      jump\t// out\n        /* \"#utility.yul\":3183:3721   */\n    tag_118:\n        /* \"#utility.yul\":3351:3354   */\n      0x00\n        /* \"#utility.yul\":3366:3441   */\n      tag_175\n        /* \"#utility.yul\":3437:3440   */\n      dup3\n        /* \"#utility.yul\":3428:3434   */\n      dup7\n        /* \"#utility.yul\":3366:3441   */\n      tag_132\n      jump\t// in\n    tag_175:\n        /* \"#utility.yul\":3466:3468   */\n      0x20\n        /* \"#utility.yul\":3461:3464   */\n      dup3\n        /* \"#utility.yul\":3457:3469   */\n      add\n        /* \"#utility.yul\":3450:3469   */\n      swap2\n      pop\n        /* \"#utility.yul\":3479:3554   */\n      tag_176\n        /* \"#utility.yul\":3550:3553   */\n      dup3\n        /* \"#utility.yul\":3541:3547   */\n      dup6\n        /* \"#utility.yul\":3479:3554   */\n      tag_132\n      jump\t// in\n    tag_176:\n        /* \"#utility.yul\":3579:3581   */\n      0x20\n        /* \"#utility.yul\":3574:3577   */\n      dup3\n        /* \"#utility.yul\":3570:3582   */\n      add\n        /* \"#utility.yul\":3563:3582   */\n      swap2\n      pop\n        /* \"#utility.yul\":3592:3667   */\n      tag_177\n        /* \"#utility.yul\":3663:3666   */\n      dup3\n        /* \"#utility.yul\":3654:3660   */\n      dup5\n        /* \"#utility.yul\":3592:3667   */\n      tag_132\n      jump\t// in\n    tag_177:\n        /* \"#utility.yul\":3692:3694   */\n      0x20\n        /* \"#utility.yul\":3687:3690   */\n      dup3\n        /* \"#utility.yul\":3683:3695   */\n      add\n        /* \"#utility.yul\":3676:3695   */\n      swap2\n      pop\n        /* \"#utility.yul\":3712:3715   */\n      dup2\n        /* \"#utility.yul\":3705:3715   */\n      swap1\n      pop\n        /* \"#utility.yul\":3183:3721   */\n      swap5\n      swap4\n      pop\n      pop\n      pop\n      pop\n      jump\t// out\n\n    auxdata: 0xa264697066735822122097656c2e2885b9a97566bc455345a8f800ad47b6614f6912e488c8462e4a11be64736f6c634300080f0033\n}\n",
				"bytecode": {
					"linkReferences": {},
					"object": "608060405234801561001057600080fd5b50336000806101000a81548173ffffffffffffffffffffffffffffffffffffffff021916908373ffffffffffffffffffffffffffffffffffffffff160217905550610960806100606000396000f3fe60806040526004361061009c5760003560e01c8063a072a43c11610064578063a072a43c14610134578063b643afb91461013e578063d0e30db014610148578063d13f1a4f14610152578063e07bf0741461015c578063fdb099cf146101665761009c565b806312065fe0146100a15780631b591841146100cc5780632e1a7d4d146100d65780638da5cb5b146100ff578063906ba01b1461012a575b600080fd5b3480156100ad57600080fd5b506100b6610170565b6040516100c3919061070e565b60405180910390f35b6100d46101d1565b005b3480156100e257600080fd5b506100fd60048036038101906100f8919061075a565b610255565b005b34801561010b57600080fd5b5061011461032a565b60405161012191906107c8565b60405180910390f35b61013261034e565b005b61013c6103d2565b005b610146610456565b005b6101506104da565b005b61015a610534565b005b6101646105b8565b005b61016e61063c565b005b60008060009054906101000a900473ffffffffffffffffffffffffffffffffffffffff1673ffffffffffffffffffffffffffffffffffffffff163373ffffffffffffffffffffffffffffffffffffffff16146101cb57600080fd5b47905090565b600060266101dd6106c0565b6101e79190610812565b90506012811015610251573373ffffffffffffffffffffffffffffffffffffffff166108fc671bc16d674ec80000346102209190610872565b9081150290604051600060405180830381858888f1935050505015801561024b573d6000803e3d6000fd5b50610252565b5b50565b60008054906101000a900473ffffffffffffffffffffffffffffffffffffffff1673ffffffffffffffffffffffffffffffffffffffff163373ffffffffffffffffffffffffffffffffffffffff16146102ad57600080fd5b60008054906101000a900473ffffffffffffffffffffffffffffffffffffffff1673ffffffffffffffffffffffffffffffffffffffff166108fc670de0b6b3a7640000836102fb9190610872565b9081150290604051600060405180830381858888f19350505050158015610326573d6000803e3d6000fd5b5050565b60008054906101000a900473ffffffffffffffffffffffffffffffffffffffff1681565b6000602661035a6106c0565b6103649190610812565b905060128110156103ce573373ffffffffffffffffffffffffffffffffffffffff166108fc671bc16d674ec800003461039d9190610872565b9081150290604051600060405180830381858888f193505050501580156103c8573d6000803e3d6000fd5b506103cf565b5b50565b600060266103de6106c0565b6103e89190610812565b90506012811015610452573373ffffffffffffffffffffffffffffffffffffffff166108fc671bc16d674ec80000346104219190610872565b9081150290604051600060405180830381858888f1935050505015801561044c573d6000803e3d6000fd5b50610453565b5b50565b600060266104626106c0565b61046c9190610812565b905060128110156104d6573373ffffffffffffffffffffffffffffffffffffffff166108fc671bc16d674ec80000346104a59190610872565b9081150290604051600060405180830381858888f193505050501580156104d0573d6000803e3d6000fd5b506104d7565b5b50565b60008054906101000a900473ffffffffffffffffffffffffffffffffffffffff1673ffffffffffffffffffffffffffffffffffffffff163373ffffffffffffffffffffffffffffffffffffffff161461053257600080fd5b565b600060266105406106c0565b61054a9190610812565b905060128110156105b4573373ffffffffffffffffffffffffffffffffffffffff166108fc671bc16d674ec80000346105839190610872565b9081150290604051600060405180830381858888f193505050501580156105ae573d6000803e3d6000fd5b506105b5565b5b50565b600060266105c46106c0565b6105ce9190610812565b90506012811015610638573373ffffffffffffffffffffffffffffffffffffffff166108fc671bc16d674ec80000346106079190610872565b9081150290604051600060405180830381858888f19350505050158015610632573d6000803e3d6000fd5b50610639565b5b50565b600060266106486106c0565b6106529190610812565b905060128110156106bc573373ffffffffffffffffffffffffffffffffffffffff166108fc671bc16d674ec800003461068b9190610872565b9081150290604051600060405180830381858888f193505050501580156106b6573d6000803e3d6000fd5b506106bd565b5b50565b60004742446040516020016106d7939291906108ed565b6040516020818303038152906040528051906020012060001c905090565b6000819050919050565b610708816106f5565b82525050565b600060208201905061072360008301846106ff565b92915050565b600080fd5b610737816106f5565b811461074257600080fd5b50565b6000813590506107548161072e565b92915050565b6000602082840312156107705761076f610729565b5b600061077e84828501610745565b91505092915050565b600073ffffffffffffffffffffffffffffffffffffffff82169050919050565b60006107b282610787565b9050919050565b6107c2816107a7565b82525050565b60006020820190506107dd60008301846107b9565b92915050565b7f4e487b7100000000000000000000000000000000000000000000000000000000600052601260045260246000fd5b600061081d826106f5565b9150610828836106f5565b925082610838576108376107e3565b5b828206905092915050565b7f4e487b7100000000000000000000000000000000000000000000000000000000600052601160045260246000fd5b600061087d826106f5565b9150610888836106f5565b9250817fffffffffffffffffffffffffffffffffffffffffffffffffffffffffffffffff04831182151516156108c1576108c0610843565b5b828202905092915050565b6000819050919050565b6108e76108e2826106f5565b6108cc565b82525050565b60006108f982866108d6565b60208201915061090982856108d6565b60208201915061091982846108d6565b60208201915081905094935050505056fea264697066735822122097656c2e2885b9a97566bc455345a8f800ad47b6614f6912e488c8462e4a11be64736f6c634300080f0033",
					"opcodes": "PUSH1 0x80 PUSH1 0x40 MSTORE CALLVALUE DUP1 ISZERO PUSH2 0x10 JUMPI PUSH1 0x0 DUP1 REVERT JUMPDEST POP CALLER PUSH1 0x0 DUP1 PUSH2 0x100 EXP DUP2 SLOAD DUP2 PUSH20 0xFFFFFFFFFFFFFFFFFFFFFFFFFFFFFFFFFFFFFFFF MUL NOT AND SWAP1 DUP4 PUSH20 0xFFFFFFFFFFFFFFFFFFFFFFFFFFFFFFFFFFFFFFFF AND MUL OR SWAP1 SSTORE POP PUSH2 0x960 DUP1 PUSH2 0x60 PUSH1 0x0 CODECOPY PUSH1 0x0 RETURN INVALID PUSH1 0x80 PUSH1 0x40 MSTORE PUSH1 0x4 CALLDATASIZE LT PUSH2 0x9C JUMPI PUSH1 0x0 CALLDATALOAD PUSH1 0xE0 SHR DUP1 PUSH4 0xA072A43C GT PUSH2 0x64 JUMPI DUP1 PUSH4 0xA072A43C EQ PUSH2 0x134 JUMPI DUP1 PUSH4 0xB643AFB9 EQ PUSH2 0x13E JUMPI DUP1 PUSH4 0xD0E30DB0 EQ PUSH2 0x148 JUMPI DUP1 PUSH4 0xD13F1A4F EQ PUSH2 0x152 JUMPI DUP1 PUSH4 0xE07BF074 EQ PUSH2 0x15C JUMPI DUP1 PUSH4 0xFDB099CF EQ PUSH2 0x166 JUMPI PUSH2 0x9C JUMP JUMPDEST DUP1 PUSH4 0x12065FE0 EQ PUSH2 0xA1 JUMPI DUP1 PUSH4 0x1B591841 EQ PUSH2 0xCC JUMPI DUP1 PUSH4 0x2E1A7D4D EQ PUSH2 0xD6 JUMPI DUP1 PUSH4 0x8DA5CB5B EQ PUSH2 0xFF JUMPI DUP1 PUSH4 0x906BA01B EQ PUSH2 0x12A JUMPI JUMPDEST PUSH1 0x0 DUP1 REVERT JUMPDEST CALLVALUE DUP1 ISZERO PUSH2 0xAD JUMPI PUSH1 0x0 DUP1 REVERT JUMPDEST POP PUSH2 0xB6 PUSH2 0x170 JUMP JUMPDEST PUSH1 0x40 MLOAD PUSH2 0xC3 SWAP2 SWAP1 PUSH2 0x70E JUMP JUMPDEST PUSH1 0x40 MLOAD DUP1 SWAP2 SUB SWAP1 RETURN JUMPDEST PUSH2 0xD4 PUSH2 0x1D1 JUMP JUMPDEST STOP JUMPDEST CALLVALUE DUP1 ISZERO PUSH2 0xE2 JUMPI PUSH1 0x0 DUP1 REVERT JUMPDEST POP PUSH2 0xFD PUSH1 0x4 DUP1 CALLDATASIZE SUB DUP2 ADD SWAP1 PUSH2 0xF8 SWAP2 SWAP1 PUSH2 0x75A JUMP JUMPDEST PUSH2 0x255 JUMP JUMPDEST STOP JUMPDEST CALLVALUE DUP1 ISZERO PUSH2 0x10B JUMPI PUSH1 0x0 DUP1 REVERT JUMPDEST POP PUSH2 0x114 PUSH2 0x32A JUMP JUMPDEST PUSH1 0x40 MLOAD PUSH2 0x121 SWAP2 SWAP1 PUSH2 0x7C8 JUMP JUMPDEST PUSH1 0x40 MLOAD DUP1 SWAP2 SUB SWAP1 RETURN JUMPDEST PUSH2 0x132 PUSH2 0x34E JUMP JUMPDEST STOP JUMPDEST PUSH2 0x13C PUSH2 0x3D2 JUMP JUMPDEST STOP JUMPDEST PUSH2 0x146 PUSH2 0x456 JUMP JUMPDEST STOP JUMPDEST PUSH2 0x150 PUSH2 0x4DA JUMP JUMPDEST STOP JUMPDEST PUSH2 0x15A PUSH2 0x534 JUMP JUMPDEST STOP JUMPDEST PUSH2 0x164 PUSH2 0x5B8 JUMP JUMPDEST STOP JUMPDEST PUSH2 0x16E PUSH2 0x63C JUMP JUMPDEST STOP JUMPDEST PUSH1 0x0 DUP1 PUSH1 0x0 SWAP1 SLOAD SWAP1 PUSH2 0x100 EXP SWAP1 DIV PUSH20 0xFFFFFFFFFFFFFFFFFFFFFFFFFFFFFFFFFFFFFFFF AND PUSH20 0xFFFFFFFFFFFFFFFFFFFFFFFFFFFFFFFFFFFFFFFF AND CALLER PUSH20 0xFFFFFFFFFFFFFFFFFFFFFFFFFFFFFFFFFFFFFFFF AND EQ PUSH2 0x1CB JUMPI PUSH1 0x0 DUP1 REVERT JUMPDEST SELFBALANCE SWAP1 POP SWAP1 JUMP JUMPDEST PUSH1 0x0 PUSH1 0x26 PUSH2 0x1DD PUSH2 0x6C0 JUMP JUMPDEST PUSH2 0x1E7 SWAP2 SWAP1 PUSH2 0x812 JUMP JUMPDEST SWAP1 POP PUSH1 0x12 DUP2 LT ISZERO PUSH2 0x251 JUMPI CALLER PUSH20 0xFFFFFFFFFFFFFFFFFFFFFFFFFFFFFFFFFFFFFFFF AND PUSH2 0x8FC PUSH8 0x1BC16D674EC80000 CALLVALUE PUSH2 0x220 SWAP2 SWAP1 PUSH2 0x872 JUMP JUMPDEST SWAP1 DUP2 ISZERO MUL SWAP1 PUSH1 0x40 MLOAD PUSH1 0x0 PUSH1 0x40 MLOAD DUP1 DUP4 SUB DUP2 DUP6 DUP9 DUP9 CALL SWAP4 POP POP POP POP ISZERO DUP1 ISZERO PUSH2 0x24B JUMPI RETURNDATASIZE PUSH1 0x0 DUP1 RETURNDATACOPY RETURNDATASIZE PUSH1 0x0 REVERT JUMPDEST POP PUSH2 0x252 JUMP JUMPDEST JUMPDEST POP JUMP JUMPDEST PUSH1 0x0 DUP1 SLOAD SWAP1 PUSH2 0x100 EXP SWAP1 DIV PUSH20 0xFFFFFFFFFFFFFFFFFFFFFFFFFFFFFFFFFFFFFFFF AND PUSH20 0xFFFFFFFFFFFFFFFFFFFFFFFFFFFFFFFFFFFFFFFF AND CALLER PUSH20 0xFFFFFFFFFFFFFFFFFFFFFFFFFFFFFFFFFFFFFFFF AND EQ PUSH2 0x2AD JUMPI PUSH1 0x0 DUP1 REVERT JUMPDEST PUSH1 0x0 DUP1 SLOAD SWAP1 PUSH2 0x100 EXP SWAP1 DIV PUSH20 0xFFFFFFFFFFFFFFFFFFFFFFFFFFFFFFFFFFFFFFFF AND PUSH20 0xFFFFFFFFFFFFFFFFFFFFFFFFFFFFFFFFFFFFFFFF AND PUSH2 0x8FC PUSH8 0xDE0B6B3A7640000 DUP4 PUSH2 0x2FB SWAP2 SWAP1 PUSH2 0x872 JUMP JUMPDEST SWAP1 DUP2 ISZERO MUL SWAP1 PUSH1 0x40 MLOAD PUSH1 0x0 PUSH1 0x40 MLOAD DUP1 DUP4 SUB DUP2 DUP6 DUP9 DUP9 CALL SWAP4 POP POP POP POP ISZERO DUP1 ISZERO PUSH2 0x326 JUMPI RETURNDATASIZE PUSH1 0x0 DUP1 RETURNDATACOPY RETURNDATASIZE PUSH1 0x0 REVERT JUMPDEST POP POP JUMP JUMPDEST PUSH1 0x0 DUP1 SLOAD SWAP1 PUSH2 0x100 EXP SWAP1 DIV PUSH20 0xFFFFFFFFFFFFFFFFFFFFFFFFFFFFFFFFFFFFFFFF AND DUP2 JUMP JUMPDEST PUSH1 0x0 PUSH1 0x26 PUSH2 0x35A PUSH2 0x6C0 JUMP JUMPDEST PUSH2 0x364 SWAP2 SWAP1 PUSH2 0x812 JUMP JUMPDEST SWAP1 POP PUSH1 0x12 DUP2 LT ISZERO PUSH2 0x3CE JUMPI CALLER PUSH20 0xFFFFFFFFFFFFFFFFFFFFFFFFFFFFFFFFFFFFFFFF AND PUSH2 0x8FC PUSH8 0x1BC16D674EC80000 CALLVALUE PUSH2 0x39D SWAP2 SWAP1 PUSH2 0x872 JUMP JUMPDEST SWAP1 DUP2 ISZERO MUL SWAP1 PUSH1 0x40 MLOAD PUSH1 0x0 PUSH1 0x40 MLOAD DUP1 DUP4 SUB DUP2 DUP6 DUP9 DUP9 CALL SWAP4 POP POP POP POP ISZERO DUP1 ISZERO PUSH2 0x3C8 JUMPI RETURNDATASIZE PUSH1 0x0 DUP1 RETURNDATACOPY RETURNDATASIZE PUSH1 0x0 REVERT JUMPDEST POP PUSH2 0x3CF JUMP JUMPDEST JUMPDEST POP JUMP JUMPDEST PUSH1 0x0 PUSH1 0x26 PUSH2 0x3DE PUSH2 0x6C0 JUMP JUMPDEST PUSH2 0x3E8 SWAP2 SWAP1 PUSH2 0x812 JUMP JUMPDEST SWAP1 POP PUSH1 0x12 DUP2 LT ISZERO PUSH2 0x452 JUMPI CALLER PUSH20 0xFFFFFFFFFFFFFFFFFFFFFFFFFFFFFFFFFFFFFFFF AND PUSH2 0x8FC PUSH8 0x1BC16D674EC80000 CALLVALUE PUSH2 0x421 SWAP2 SWAP1 PUSH2 0x872 JUMP JUMPDEST SWAP1 DUP2 ISZERO MUL SWAP1 PUSH1 0x40 MLOAD PUSH1 0x0 PUSH1 0x40 MLOAD DUP1 DUP4 SUB DUP2 DUP6 DUP9 DUP9 CALL SWAP4 POP POP POP POP ISZERO DUP1 ISZERO PUSH2 0x44C JUMPI RETURNDATASIZE PUSH1 0x0 DUP1 RETURNDATACOPY RETURNDATASIZE PUSH1 0x0 REVERT JUMPDEST POP PUSH2 0x453 JUMP JUMPDEST JUMPDEST POP JUMP JUMPDEST PUSH1 0x0 PUSH1 0x26 PUSH2 0x462 PUSH2 0x6C0 JUMP JUMPDEST PUSH2 0x46C SWAP2 SWAP1 PUSH2 0x812 JUMP JUMPDEST SWAP1 POP PUSH1 0x12 DUP2 LT ISZERO PUSH2 0x4D6 JUMPI CALLER PUSH20 0xFFFFFFFFFFFFFFFFFFFFFFFFFFFFFFFFFFFFFFFF AND PUSH2 0x8FC PUSH8 0x1BC16D674EC80000 CALLVALUE PUSH2 0x4A5 SWAP2 SWAP1 PUSH2 0x872 JUMP JUMPDEST SWAP1 DUP2 ISZERO MUL SWAP1 PUSH1 0x40 MLOAD PUSH1 0x0 PUSH1 0x40 MLOAD DUP1 DUP4 SUB DUP2 DUP6 DUP9 DUP9 CALL SWAP4 POP POP POP POP ISZERO DUP1 ISZERO PUSH2 0x4D0 JUMPI RETURNDATASIZE PUSH1 0x0 DUP1 RETURNDATACOPY RETURNDATASIZE PUSH1 0x0 REVERT JUMPDEST POP PUSH2 0x4D7 JUMP JUMPDEST JUMPDEST POP JUMP JUMPDEST PUSH1 0x0 DUP1 SLOAD SWAP1 PUSH2 0x100 EXP SWAP1 DIV PUSH20 0xFFFFFFFFFFFFFFFFFFFFFFFFFFFFFFFFFFFFFFFF AND PUSH20 0xFFFFFFFFFFFFFFFFFFFFFFFFFFFFFFFFFFFFFFFF AND CALLER PUSH20 0xFFFFFFFFFFFFFFFFFFFFFFFFFFFFFFFFFFFFFFFF AND EQ PUSH2 0x532 JUMPI PUSH1 0x0 DUP1 REVERT JUMPDEST JUMP JUMPDEST PUSH1 0x0 PUSH1 0x26 PUSH2 0x540 PUSH2 0x6C0 JUMP JUMPDEST PUSH2 0x54A SWAP2 SWAP1 PUSH2 0x812 JUMP JUMPDEST SWAP1 POP PUSH1 0x12 DUP2 LT ISZERO PUSH2 0x5B4 JUMPI CALLER PUSH20 0xFFFFFFFFFFFFFFFFFFFFFFFFFFFFFFFFFFFFFFFF AND PUSH2 0x8FC PUSH8 0x1BC16D674EC80000 CALLVALUE PUSH2 0x583 SWAP2 SWAP1 PUSH2 0x872 JUMP JUMPDEST SWAP1 DUP2 ISZERO MUL SWAP1 PUSH1 0x40 MLOAD PUSH1 0x0 PUSH1 0x40 MLOAD DUP1 DUP4 SUB DUP2 DUP6 DUP9 DUP9 CALL SWAP4 POP POP POP POP ISZERO DUP1 ISZERO PUSH2 0x5AE JUMPI RETURNDATASIZE PUSH1 0x0 DUP1 RETURNDATACOPY RETURNDATASIZE PUSH1 0x0 REVERT JUMPDEST POP PUSH2 0x5B5 JUMP JUMPDEST JUMPDEST POP JUMP JUMPDEST PUSH1 0x0 PUSH1 0x26 PUSH2 0x5C4 PUSH2 0x6C0 JUMP JUMPDEST PUSH2 0x5CE SWAP2 SWAP1 PUSH2 0x812 JUMP JUMPDEST SWAP1 POP PUSH1 0x12 DUP2 LT ISZERO PUSH2 0x638 JUMPI CALLER PUSH20 0xFFFFFFFFFFFFFFFFFFFFFFFFFFFFFFFFFFFFFFFF AND PUSH2 0x8FC PUSH8 0x1BC16D674EC80000 CALLVALUE PUSH2 0x607 SWAP2 SWAP1 PUSH2 0x872 JUMP JUMPDEST SWAP1 DUP2 ISZERO MUL SWAP1 PUSH1 0x40 MLOAD PUSH1 0x0 PUSH1 0x40 MLOAD DUP1 DUP4 SUB DUP2 DUP6 DUP9 DUP9 CALL SWAP4 POP POP POP POP ISZERO DUP1 ISZERO PUSH2 0x632 JUMPI RETURNDATASIZE PUSH1 0x0 DUP1 RETURNDATACOPY RETURNDATASIZE PUSH1 0x0 REVERT JUMPDEST POP PUSH2 0x639 JUMP JUMPDEST JUMPDEST POP JUMP JUMPDEST PUSH1 0x0 PUSH1 0x26 PUSH2 0x648 PUSH2 0x6C0 JUMP JUMPDEST PUSH2 0x652 SWAP2 SWAP1 PUSH2 0x812 JUMP JUMPDEST SWAP1 POP PUSH1 0x12 DUP2 LT ISZERO PUSH2 0x6BC JUMPI CALLER PUSH20 0xFFFFFFFFFFFFFFFFFFFFFFFFFFFFFFFFFFFFFFFF AND PUSH2 0x8FC PUSH8 0x1BC16D674EC80000 CALLVALUE PUSH2 0x68B SWAP2 SWAP1 PUSH2 0x872 JUMP JUMPDEST SWAP1 DUP2 ISZERO MUL SWAP1 PUSH1 0x40 MLOAD PUSH1 0x0 PUSH1 0x40 MLOAD DUP1 DUP4 SUB DUP2 DUP6 DUP9 DUP9 CALL SWAP4 POP POP POP POP ISZERO DUP1 ISZERO PUSH2 0x6B6 JUMPI RETURNDATASIZE PUSH1 0x0 DUP1 RETURNDATACOPY RETURNDATASIZE PUSH1 0x0 REVERT JUMPDEST POP PUSH2 0x6BD JUMP JUMPDEST JUMPDEST POP JUMP JUMPDEST PUSH1 0x0 SELFBALANCE TIMESTAMP DIFFICULTY PUSH1 0x40 MLOAD PUSH1 0x20 ADD PUSH2 0x6D7 SWAP4 SWAP3 SWAP2 SWAP1 PUSH2 0x8ED JUMP JUMPDEST PUSH1 0x40 MLOAD PUSH1 0x20 DUP2 DUP4 SUB SUB DUP2 MSTORE SWAP1 PUSH1 0x40 MSTORE DUP1 MLOAD SWAP1 PUSH1 0x20 ADD KECCAK256 PUSH1 0x0 SHR SWAP1 POP SWAP1 JUMP JUMPDEST PUSH1 0x0 DUP2 SWAP1 POP SWAP2 SWAP1 POP JUMP JUMPDEST PUSH2 0x708 DUP2 PUSH2 0x6F5 JUMP JUMPDEST DUP3 MSTORE POP POP JUMP JUMPDEST PUSH1 0x0 PUSH1 0x20 DUP3 ADD SWAP1 POP PUSH2 0x723 PUSH1 0x0 DUP4 ADD DUP5 PUSH2 0x6FF JUMP JUMPDEST SWAP3 SWAP2 POP POP JUMP JUMPDEST PUSH1 0x0 DUP1 REVERT JUMPDEST PUSH2 0x737 DUP2 PUSH2 0x6F5 JUMP JUMPDEST DUP2 EQ PUSH2 0x742 JUMPI PUSH1 0x0 DUP1 REVERT JUMPDEST POP JUMP JUMPDEST PUSH1 0x0 DUP2 CALLDATALOAD SWAP1 POP PUSH2 0x754 DUP2 PUSH2 0x72E JUMP JUMPDEST SWAP3 SWAP2 POP POP JUMP JUMPDEST PUSH1 0x0 PUSH1 0x20 DUP3 DUP5 SUB SLT ISZERO PUSH2 0x770 JUMPI PUSH2 0x76F PUSH2 0x729 JUMP JUMPDEST JUMPDEST PUSH1 0x0 PUSH2 0x77E DUP5 DUP3 DUP6 ADD PUSH2 0x745 JUMP JUMPDEST SWAP2 POP POP SWAP3 SWAP2 POP POP JUMP JUMPDEST PUSH1 0x0 PUSH20 0xFFFFFFFFFFFFFFFFFFFFFFFFFFFFFFFFFFFFFFFF DUP3 AND SWAP1 POP SWAP2 SWAP1 POP JUMP JUMPDEST PUSH1 0x0 PUSH2 0x7B2 DUP3 PUSH2 0x787 JUMP JUMPDEST SWAP1 POP SWAP2 SWAP1 POP JUMP JUMPDEST PUSH2 0x7C2 DUP2 PUSH2 0x7A7 JUMP JUMPDEST DUP3 MSTORE POP POP JUMP JUMPDEST PUSH1 0x0 PUSH1 0x20 DUP3 ADD SWAP1 POP PUSH2 0x7DD PUSH1 0x0 DUP4 ADD DUP5 PUSH2 0x7B9 JUMP JUMPDEST SWAP3 SWAP2 POP POP JUMP JUMPDEST PUSH32 0x4E487B7100000000000000000000000000000000000000000000000000000000 PUSH1 0x0 MSTORE PUSH1 0x12 PUSH1 0x4 MSTORE PUSH1 0x24 PUSH1 0x0 REVERT JUMPDEST PUSH1 0x0 PUSH2 0x81D DUP3 PUSH2 0x6F5 JUMP JUMPDEST SWAP2 POP PUSH2 0x828 DUP4 PUSH2 0x6F5 JUMP JUMPDEST SWAP3 POP DUP3 PUSH2 0x838 JUMPI PUSH2 0x837 PUSH2 0x7E3 JUMP JUMPDEST JUMPDEST DUP3 DUP3 MOD SWAP1 POP SWAP3 SWAP2 POP POP JUMP JUMPDEST PUSH32 0x4E487B7100000000000000000000000000000000000000000000000000000000 PUSH1 0x0 MSTORE PUSH1 0x11 PUSH1 0x4 MSTORE PUSH1 0x24 PUSH1 0x0 REVERT JUMPDEST PUSH1 0x0 PUSH2 0x87D DUP3 PUSH2 0x6F5 JUMP JUMPDEST SWAP2 POP PUSH2 0x888 DUP4 PUSH2 0x6F5 JUMP JUMPDEST SWAP3 POP DUP2 PUSH32 0xFFFFFFFFFFFFFFFFFFFFFFFFFFFFFFFFFFFFFFFFFFFFFFFFFFFFFFFFFFFFFFFF DIV DUP4 GT DUP3 ISZERO ISZERO AND ISZERO PUSH2 0x8C1 JUMPI PUSH2 0x8C0 PUSH2 0x843 JUMP JUMPDEST JUMPDEST DUP3 DUP3 MUL SWAP1 POP SWAP3 SWAP2 POP POP JUMP JUMPDEST PUSH1 0x0 DUP2 SWAP1 POP SWAP2 SWAP1 POP JUMP JUMPDEST PUSH2 0x8E7 PUSH2 0x8E2 DUP3 PUSH2 0x6F5 JUMP JUMPDEST PUSH2 0x8CC JUMP JUMPDEST DUP3 MSTORE POP POP JUMP JUMPDEST PUSH1 0x0 PUSH2 0x8F9 DUP3 DUP7 PUSH2 0x8D6 JUMP JUMPDEST PUSH1 0x20 DUP3 ADD SWAP2 POP PUSH2 0x909 DUP3 DUP6 PUSH2 0x8D6 JUMP JUMPDEST PUSH1 0x20 DUP3 ADD SWAP2 POP PUSH2 0x919 DUP3 DUP5 PUSH2 0x8D6 JUMP JUMPDEST PUSH1 0x20 DUP3 ADD SWAP2 POP DUP2 SWAP1 POP SWAP5 SWAP4 POP POP POP POP JUMP INVALID LOG2 PUSH5 0x6970667358 0x22 SLT KECCAK256 SWAP8 PUSH6 0x6C2E2885B9A9 PUSH22 0x66BC455345A8F800AD47B6614F6912E488C8462E4A11 0xBE PUSH5 0x736F6C6343 STOP ADDMOD 0xF STOP CALLER "
				},
				"gasEstimates": {
					"creation": {
						"codeDepositCost": "480000",
						"executionCost": "24777",
						"totalCost": "504777"
					},
					"external": {
						"deposit()": "2331",
						"eightToOne()": "infinite",
						"elevenToOne()": "infinite",
						"fiveToOne()": "infinite",
						"getBalance()": "2510",
						"oneToOne()": "infinite",
						"owner()": "2578",
						"seventeenToOne()": "infinite",
						"thirtyfiveToOne()": "infinite",
						"twoToOne()": "infinite",
						"withdraw(uint256)": "infinite"
					},
					"internal": {
						"getRandomNumber()": "infinite"
					}
				},
				"methodIdentifiers": {
					"deposit()": "d0e30db0",
					"eightToOne()": "d13f1a4f",
					"elevenToOne()": "1b591841",
					"fiveToOne()": "b643afb9",
					"getBalance()": "12065fe0",
					"oneToOne()": "a072a43c",
					"owner()": "8da5cb5b",
					"seventeenToOne()": "906ba01b",
					"thirtyfiveToOne()": "e07bf074",
					"twoToOne()": "fdb099cf",
					"withdraw(uint256)": "2e1a7d4d"
				}
			},
			"storageLayout": {
				"storage": [
					{
						"astId": 3,
						"contract": "Documents/Web3/Casino/002 Roulette.sol:Roulette",
						"label": "owner",
						"offset": 0,
						"slot": "0",
						"type": "t_address_payable"
					}
				],
				"types": {
					"t_address_payable": {
						"encoding": "inplace",
						"label": "address payable",
						"numberOfBytes": "20"
					}
				}
			},
			"userdoc": {
				"kind": "user",
				"methods": {},
				"version": 1
			}
		}
	}
}