{
	"Documents/Web3/Casino/002 Roulette.sol": {
		"Roulette": {
			"abi": [
				{
					"inputs": [],
					"stateMutability": "nonpayable",
					"type": "constructor"
				},
				{
					"inputs": [],
					"name": "AAA_test",
					"outputs": [
						{
							"internalType": "uint256",
							"name": "",
							"type": "uint256"
						}
					],
					"stateMutability": "payable",
					"type": "function"
				},
				{
					"inputs": [],
					"name": "A_oneToOne",
					"outputs": [],
					"stateMutability": "payable",
					"type": "function"
				},
				{
					"inputs": [],
					"name": "B_twoToOne",
					"outputs": [],
					"stateMutability": "payable",
					"type": "function"
				},
				{
					"inputs": [],
					"name": "C_fiveToOne",
					"outputs": [],
					"stateMutability": "payable",
					"type": "function"
				},
				{
					"inputs": [],
					"name": "D_eightToOne",
					"outputs": [],
					"stateMutability": "payable",
					"type": "function"
				},
				{
					"inputs": [],
					"name": "E_elevenToOne",
					"outputs": [],
					"stateMutability": "payable",
					"type": "function"
				},
				{
					"inputs": [],
					"name": "F_seventeenToOne",
					"outputs": [],
					"stateMutability": "payable",
					"type": "function"
				},
				{
					"inputs": [],
					"name": "G_thirtyfiveToOne",
					"outputs": [],
					"stateMutability": "payable",
					"type": "function"
				},
				{
					"inputs": [],
					"name": "H_deposit",
					"outputs": [],
					"stateMutability": "payable",
					"type": "function"
				},
				{
					"inputs": [
						{
							"internalType": "uint256",
							"name": "amount",
							"type": "uint256"
						}
					],
					"name": "I_withdraw",
					"outputs": [],
					"stateMutability": "nonpayable",
					"type": "function"
				},
				{
					"inputs": [],
					"name": "J_getBalance",
					"outputs": [
						{
							"internalType": "uint256",
							"name": "",
							"type": "uint256"
						}
					],
					"stateMutability": "view",
					"type": "function"
				},
				{
					"inputs": [],
					"name": "owner",
					"outputs": [
						{
							"internalType": "address payable",
							"name": "",
							"type": "address"
						}
					],
					"stateMutability": "view",
					"type": "function"
				},
				{
					"inputs": [],
					"name": "player",
					"outputs": [
						{
							"internalType": "address payable",
							"name": "",
							"type": "address"
						}
					],
					"stateMutability": "view",
					"type": "function"
				}
			],
			"devdoc": {
				"kind": "dev",
				"methods": {},
				"version": 1
			},
			"evm": {
				"assembly": "    /* \"Documents/Web3/Casino/002 Roulette.sol\":547:3492  contract Roulette {... */\n  mstore(0x40, 0x80)\n    /* \"Documents/Web3/Casino/002 Roulette.sol\":674:732  constructor() {... */\n  callvalue\n  dup1\n  iszero\n  tag_1\n  jumpi\n  0x00\n  dup1\n  revert\ntag_1:\n  pop\n    /* \"Documents/Web3/Casino/002 Roulette.sol\":714:724  msg.sender */\n  caller\n    /* \"Documents/Web3/Casino/002 Roulette.sol\":698:703  owner */\n  0x00\n  dup1\n    /* \"Documents/Web3/Casino/002 Roulette.sol\":698:725  owner = payable(msg.sender) */\n  0x0100\n  exp\n  dup2\n  sload\n  dup2\n  0xffffffffffffffffffffffffffffffffffffffff\n  mul\n  not\n  and\n  swap1\n  dup4\n  0xffffffffffffffffffffffffffffffffffffffff\n  and\n  mul\n  or\n  swap1\n  sstore\n  pop\n    /* \"Documents/Web3/Casino/002 Roulette.sol\":547:3492  contract Roulette {... */\n  dataSize(sub_0)\n  dup1\n  dataOffset(sub_0)\n  0x00\n  codecopy\n  0x00\n  return\nstop\n\nsub_0: assembly {\n        /* \"Documents/Web3/Casino/002 Roulette.sol\":547:3492  contract Roulette {... */\n      mstore(0x40, 0x80)\n      jumpi(tag_1, lt(calldatasize, 0x04))\n      shr(0xe0, calldataload(0x00))\n      dup1\n      0x766f8578\n      gt\n      tag_15\n      jumpi\n      dup1\n      0xb1ad3053\n      gt\n      tag_16\n      jumpi\n      dup1\n      0xb1ad3053\n      eq\n      tag_11\n      jumpi\n      dup1\n      0xe7120fd9\n      eq\n      tag_12\n      jumpi\n      dup1\n      0xe8d18212\n      eq\n      tag_13\n      jumpi\n      dup1\n      0xf855aa9e\n      eq\n      tag_14\n      jumpi\n      jump(tag_1)\n    tag_16:\n      dup1\n      0x766f8578\n      eq\n      tag_8\n      jumpi\n      dup1\n      0x85b4ba87\n      eq\n      tag_9\n      jumpi\n      dup1\n      0x8da5cb5b\n      eq\n      tag_10\n      jumpi\n      jump(tag_1)\n    tag_15:\n      dup1\n      0x0b634788\n      eq\n      tag_2\n      jumpi\n      dup1\n      0x29402ecb\n      eq\n      tag_3\n      jumpi\n      dup1\n      0x374ccd33\n      eq\n      tag_4\n      jumpi\n      dup1\n      0x48db5f89\n      eq\n      tag_5\n      jumpi\n      dup1\n      0x6689c33a\n      eq\n      tag_6\n      jumpi\n      dup1\n      0x6f4c487a\n      eq\n      tag_7\n      jumpi\n    tag_1:\n      0x00\n      dup1\n      revert\n        /* \"Documents/Web3/Casino/002 Roulette.sol\":2438:2657  function E_elevenToOne() payable public {... */\n    tag_2:\n      tag_17\n      tag_18\n      jump\t// in\n    tag_17:\n      stop\n        /* \"Documents/Web3/Casino/002 Roulette.sol\":1771:1987  function B_twoToOne() payable public {... */\n    tag_3:\n      tag_19\n      tag_20\n      jump\t// in\n    tag_19:\n      stop\n        /* \"Documents/Web3/Casino/002 Roulette.sol\":3377:3485  function J_getBalance() public view onlyOwner() returns (uint) {... */\n    tag_4:\n      callvalue\n      dup1\n      iszero\n      tag_21\n      jumpi\n      0x00\n      dup1\n      revert\n    tag_21:\n      pop\n      tag_22\n      tag_23\n      jump\t// in\n    tag_22:\n      mload(0x40)\n      tag_24\n      swap2\n      swap1\n      tag_25\n      jump\t// in\n    tag_24:\n      mload(0x40)\n      dup1\n      swap2\n      sub\n      swap1\n      return\n        /* \"Documents/Web3/Casino/002 Roulette.sol\":606:635  address payable public player */\n    tag_5:\n      callvalue\n      dup1\n      iszero\n      tag_26\n      jumpi\n      0x00\n      dup1\n      revert\n    tag_26:\n      pop\n      tag_27\n      tag_28\n      jump\t// in\n    tag_27:\n      mload(0x40)\n      tag_29\n      swap2\n      swap1\n      tag_30\n      jump\t// in\n    tag_29:\n      mload(0x40)\n      dup1\n      swap2\n      sub\n      swap1\n      return\n        /* \"Documents/Web3/Casino/002 Roulette.sol\":1406:1519  function AAA_test() payable public returns (uint) {... */\n    tag_6:\n      tag_31\n      tag_32\n      jump\t// in\n    tag_31:\n      mload(0x40)\n      tag_33\n      swap2\n      swap1\n      tag_25\n      jump\t// in\n    tag_33:\n      mload(0x40)\n      dup1\n      swap2\n      sub\n      swap1\n      return\n        /* \"Documents/Web3/Casino/002 Roulette.sol\":1993:2209  function C_fiveToOne() payable public {... */\n    tag_7:\n      tag_34\n      tag_35\n      jump\t// in\n    tag_34:\n      stop\n        /* \"Documents/Web3/Casino/002 Roulette.sol\":2663:2885  function F_seventeenToOne() payable public {... */\n    tag_8:\n      tag_36\n      tag_37\n      jump\t// in\n    tag_36:\n      stop\n        /* \"Documents/Web3/Casino/002 Roulette.sol\":2891:3114  function G_thirtyfiveToOne() payable public {... */\n    tag_9:\n      tag_38\n      tag_39\n      jump\t// in\n    tag_38:\n      stop\n        /* \"Documents/Web3/Casino/002 Roulette.sol\":572:600  address payable public owner */\n    tag_10:\n      callvalue\n      dup1\n      iszero\n      tag_40\n      jumpi\n      0x00\n      dup1\n      revert\n    tag_40:\n      pop\n      tag_41\n      tag_42\n      jump\t// in\n    tag_41:\n      mload(0x40)\n      tag_43\n      swap2\n      swap1\n      tag_30\n      jump\t// in\n    tag_43:\n      mload(0x40)\n      dup1\n      swap2\n      sub\n      swap1\n      return\n        /* \"Documents/Web3/Casino/002 Roulette.sol\":1525:1765  function A_oneToOne() payable public {... */\n    tag_11:\n      tag_44\n      tag_45\n      jump\t// in\n    tag_44:\n      stop\n        /* \"Documents/Web3/Casino/002 Roulette.sol\":2215:2432  function D_eightToOne() payable public {... */\n    tag_12:\n      tag_46\n      tag_47\n      jump\t// in\n    tag_46:\n      stop\n        /* \"Documents/Web3/Casino/002 Roulette.sol\":3164:3214  function H_deposit() payable public onlyOwner() {} */\n    tag_13:\n      tag_48\n      tag_49\n      jump\t// in\n    tag_48:\n      stop\n        /* \"Documents/Web3/Casino/002 Roulette.sol\":3220:3321  function I_withdraw(uint amount) public onlyOwner() {... */\n    tag_14:\n      callvalue\n      dup1\n      iszero\n      tag_50\n      jumpi\n      0x00\n      dup1\n      revert\n    tag_50:\n      pop\n      tag_51\n      0x04\n      dup1\n      calldatasize\n      sub\n      dup2\n      add\n      swap1\n      tag_52\n      swap2\n      swap1\n      tag_53\n      jump\t// in\n    tag_52:\n      tag_54\n      jump\t// in\n    tag_51:\n      stop\n        /* \"Documents/Web3/Casino/002 Roulette.sol\":2438:2657  function E_elevenToOne() payable public {... */\n    tag_18:\n        /* \"Documents/Web3/Casino/002 Roulette.sol\":2488:2504  uint determinant */\n      0x00\n        /* \"Documents/Web3/Casino/002 Roulette.sol\":2527:2529  38 */\n      0x26\n        /* \"Documents/Web3/Casino/002 Roulette.sol\":2507:2524  getRandomNumber() */\n      tag_56\n        /* \"Documents/Web3/Casino/002 Roulette.sol\":2507:2522  getRandomNumber */\n      tag_57\n        /* \"Documents/Web3/Casino/002 Roulette.sol\":2507:2524  getRandomNumber() */\n      jump\t// in\n    tag_56:\n        /* \"Documents/Web3/Casino/002 Roulette.sol\":2507:2529  getRandomNumber() % 38 */\n      tag_58\n      swap2\n      swap1\n      tag_59\n      jump\t// in\n    tag_58:\n        /* \"Documents/Web3/Casino/002 Roulette.sol\":2488:2529  uint determinant = getRandomNumber() % 38 */\n      swap1\n      pop\n        /* \"Documents/Web3/Casino/002 Roulette.sol\":2557:2558  3 */\n      0x03\n        /* \"Documents/Web3/Casino/002 Roulette.sol\":2543:2554  determinant */\n      dup2\n        /* \"Documents/Web3/Casino/002 Roulette.sol\":2543:2558  determinant < 3 */\n      lt\n        /* \"Documents/Web3/Casino/002 Roulette.sol\":2539:2651  if (determinant < 3) {... */\n      iszero\n      tag_60\n      jumpi\n        /* \"Documents/Web3/Casino/002 Roulette.sol\":2582:2592  msg.sender */\n      caller\n        /* \"Documents/Web3/Casino/002 Roulette.sol\":2574:2602  payable(msg.sender).transfer */\n      0xffffffffffffffffffffffffffffffffffffffff\n      and\n        /* \"Documents/Web3/Casino/002 Roulette.sol\":2574:2624  payable(msg.sender).transfer(msg.value * 12 ether) */\n      0x08fc\n        /* \"Documents/Web3/Casino/002 Roulette.sol\":2615:2623  12 ether */\n      0xa688906bd8b00000\n        /* \"Documents/Web3/Casino/002 Roulette.sol\":2603:2612  msg.value */\n      callvalue\n        /* \"Documents/Web3/Casino/002 Roulette.sol\":2603:2623  msg.value * 12 ether */\n      tag_61\n      swap2\n      swap1\n      tag_62\n      jump\t// in\n    tag_61:\n        /* \"Documents/Web3/Casino/002 Roulette.sol\":2574:2624  payable(msg.sender).transfer(msg.value * 12 ether) */\n      swap1\n      dup2\n      iszero\n      mul\n      swap1\n      mload(0x40)\n      0x00\n      mload(0x40)\n      dup1\n      dup4\n      sub\n      dup2\n      dup6\n      dup9\n      dup9\n      call\n      swap4\n      pop\n      pop\n      pop\n      pop\n      iszero\n      dup1\n      iszero\n      tag_64\n      jumpi\n      returndatasize\n      0x00\n      dup1\n      returndatacopy\n      revert(0x00, returndatasize)\n    tag_64:\n      pop\n        /* \"Documents/Web3/Casino/002 Roulette.sol\":2539:2651  if (determinant < 3) {... */\n      jump(tag_65)\n    tag_60:\n    tag_65:\n        /* \"Documents/Web3/Casino/002 Roulette.sol\":2478:2657  {... */\n      pop\n        /* \"Documents/Web3/Casino/002 Roulette.sol\":2438:2657  function E_elevenToOne() payable public {... */\n      jump\t// out\n        /* \"Documents/Web3/Casino/002 Roulette.sol\":1771:1987  function B_twoToOne() payable public {... */\n    tag_20:\n        /* \"Documents/Web3/Casino/002 Roulette.sol\":1818:1834  uint determinant */\n      0x00\n        /* \"Documents/Web3/Casino/002 Roulette.sol\":1857:1859  38 */\n      0x26\n        /* \"Documents/Web3/Casino/002 Roulette.sol\":1837:1854  getRandomNumber() */\n      tag_67\n        /* \"Documents/Web3/Casino/002 Roulette.sol\":1837:1852  getRandomNumber */\n      tag_57\n        /* \"Documents/Web3/Casino/002 Roulette.sol\":1837:1854  getRandomNumber() */\n      jump\t// in\n    tag_67:\n        /* \"Documents/Web3/Casino/002 Roulette.sol\":1837:1859  getRandomNumber() % 38 */\n      tag_68\n      swap2\n      swap1\n      tag_59\n      jump\t// in\n    tag_68:\n        /* \"Documents/Web3/Casino/002 Roulette.sol\":1818:1859  uint determinant = getRandomNumber() % 38 */\n      swap1\n      pop\n        /* \"Documents/Web3/Casino/002 Roulette.sol\":1887:1889  12 */\n      0x0c\n        /* \"Documents/Web3/Casino/002 Roulette.sol\":1873:1884  determinant */\n      dup2\n        /* \"Documents/Web3/Casino/002 Roulette.sol\":1873:1889  determinant < 12 */\n      lt\n        /* \"Documents/Web3/Casino/002 Roulette.sol\":1869:1981  if (determinant < 12) {... */\n      iszero\n      tag_69\n      jumpi\n        /* \"Documents/Web3/Casino/002 Roulette.sol\":1913:1923  msg.sender */\n      caller\n        /* \"Documents/Web3/Casino/002 Roulette.sol\":1905:1933  payable(msg.sender).transfer */\n      0xffffffffffffffffffffffffffffffffffffffff\n      and\n        /* \"Documents/Web3/Casino/002 Roulette.sol\":1905:1954  payable(msg.sender).transfer(msg.value * 3 ether) */\n      0x08fc\n        /* \"Documents/Web3/Casino/002 Roulette.sol\":1946:1953  3 ether */\n      0x29a2241af62c0000\n        /* \"Documents/Web3/Casino/002 Roulette.sol\":1934:1943  msg.value */\n      callvalue\n        /* \"Documents/Web3/Casino/002 Roulette.sol\":1934:1953  msg.value * 3 ether */\n      tag_70\n      swap2\n      swap1\n      tag_62\n      jump\t// in\n    tag_70:\n        /* \"Documents/Web3/Casino/002 Roulette.sol\":1905:1954  payable(msg.sender).transfer(msg.value * 3 ether) */\n      swap1\n      dup2\n      iszero\n      mul\n      swap1\n      mload(0x40)\n      0x00\n      mload(0x40)\n      dup1\n      dup4\n      sub\n      dup2\n      dup6\n      dup9\n      dup9\n      call\n      swap4\n      pop\n      pop\n      pop\n      pop\n      iszero\n      dup1\n      iszero\n      tag_72\n      jumpi\n      returndatasize\n      0x00\n      dup1\n      returndatacopy\n      revert(0x00, returndatasize)\n    tag_72:\n      pop\n        /* \"Documents/Web3/Casino/002 Roulette.sol\":1869:1981  if (determinant < 12) {... */\n      jump(tag_73)\n    tag_69:\n    tag_73:\n        /* \"Documents/Web3/Casino/002 Roulette.sol\":1808:1987  {... */\n      pop\n        /* \"Documents/Web3/Casino/002 Roulette.sol\":1771:1987  function B_twoToOne() payable public {... */\n      jump\t// out\n        /* \"Documents/Web3/Casino/002 Roulette.sol\":3377:3485  function J_getBalance() public view onlyOwner() returns (uint) {... */\n    tag_23:\n        /* \"Documents/Web3/Casino/002 Roulette.sol\":3434:3438  uint */\n      0x00\n        /* \"Documents/Web3/Casino/002 Roulette.sol\":828:833  owner */\n      dup1\n      0x00\n      swap1\n      sload\n      swap1\n      0x0100\n      exp\n      swap1\n      div\n      0xffffffffffffffffffffffffffffffffffffffff\n      and\n        /* \"Documents/Web3/Casino/002 Roulette.sol\":814:833  msg.sender == owner */\n      0xffffffffffffffffffffffffffffffffffffffff\n      and\n        /* \"Documents/Web3/Casino/002 Roulette.sol\":814:824  msg.sender */\n      caller\n        /* \"Documents/Web3/Casino/002 Roulette.sol\":814:833  msg.sender == owner */\n      0xffffffffffffffffffffffffffffffffffffffff\n      and\n      eq\n        /* \"Documents/Web3/Casino/002 Roulette.sol\":806:834  require(msg.sender == owner) */\n      tag_75\n      jumpi\n      0x00\n      dup1\n      revert\n    tag_75:\n        /* \"Documents/Web3/Casino/002 Roulette.sol\":3457:3478  address(this).balance */\n      selfbalance\n        /* \"Documents/Web3/Casino/002 Roulette.sol\":3450:3478  return address(this).balance */\n      swap1\n      pop\n        /* \"Documents/Web3/Casino/002 Roulette.sol\":3377:3485  function J_getBalance() public view onlyOwner() returns (uint) {... */\n      swap1\n      jump\t// out\n        /* \"Documents/Web3/Casino/002 Roulette.sol\":606:635  address payable public player */\n    tag_28:\n      0x01\n      0x00\n      swap1\n      sload\n      swap1\n      0x0100\n      exp\n      swap1\n      div\n      0xffffffffffffffffffffffffffffffffffffffff\n      and\n      dup2\n      jump\t// out\n        /* \"Documents/Web3/Casino/002 Roulette.sol\":1406:1519  function AAA_test() payable public returns (uint) {... */\n    tag_32:\n        /* \"Documents/Web3/Casino/002 Roulette.sol\":1450:1454  uint */\n      0x00\n        /* \"Documents/Web3/Casino/002 Roulette.sol\":1466:1477  uint amount */\n      dup1\n        /* \"Documents/Web3/Casino/002 Roulette.sol\":1480:1489  msg.value */\n      callvalue\n        /* \"Documents/Web3/Casino/002 Roulette.sol\":1466:1489  uint amount = msg.value */\n      swap1\n      pop\n        /* \"Documents/Web3/Casino/002 Roulette.sol\":1506:1512  amount */\n      dup1\n        /* \"Documents/Web3/Casino/002 Roulette.sol\":1499:1512  return amount */\n      swap2\n      pop\n      pop\n        /* \"Documents/Web3/Casino/002 Roulette.sol\":1406:1519  function AAA_test() payable public returns (uint) {... */\n      swap1\n      jump\t// out\n        /* \"Documents/Web3/Casino/002 Roulette.sol\":1993:2209  function C_fiveToOne() payable public {... */\n    tag_35:\n        /* \"Documents/Web3/Casino/002 Roulette.sol\":2041:2057  uint determinant */\n      0x00\n        /* \"Documents/Web3/Casino/002 Roulette.sol\":2080:2082  38 */\n      0x26\n        /* \"Documents/Web3/Casino/002 Roulette.sol\":2060:2077  getRandomNumber() */\n      tag_79\n        /* \"Documents/Web3/Casino/002 Roulette.sol\":2060:2075  getRandomNumber */\n      tag_57\n        /* \"Documents/Web3/Casino/002 Roulette.sol\":2060:2077  getRandomNumber() */\n      jump\t// in\n    tag_79:\n        /* \"Documents/Web3/Casino/002 Roulette.sol\":2060:2082  getRandomNumber() % 38 */\n      tag_80\n      swap2\n      swap1\n      tag_59\n      jump\t// in\n    tag_80:\n        /* \"Documents/Web3/Casino/002 Roulette.sol\":2041:2082  uint determinant = getRandomNumber() % 38 */\n      swap1\n      pop\n        /* \"Documents/Web3/Casino/002 Roulette.sol\":2110:2111  6 */\n      0x06\n        /* \"Documents/Web3/Casino/002 Roulette.sol\":2096:2107  determinant */\n      dup2\n        /* \"Documents/Web3/Casino/002 Roulette.sol\":2096:2111  determinant < 6 */\n      lt\n        /* \"Documents/Web3/Casino/002 Roulette.sol\":2092:2203  if (determinant < 6) {... */\n      iszero\n      tag_81\n      jumpi\n        /* \"Documents/Web3/Casino/002 Roulette.sol\":2135:2145  msg.sender */\n      caller\n        /* \"Documents/Web3/Casino/002 Roulette.sol\":2127:2155  payable(msg.sender).transfer */\n      0xffffffffffffffffffffffffffffffffffffffff\n      and\n        /* \"Documents/Web3/Casino/002 Roulette.sol\":2127:2176  payable(msg.sender).transfer(msg.value * 6 ether) */\n      0x08fc\n        /* \"Documents/Web3/Casino/002 Roulette.sol\":2168:2175  6 ether */\n      0x53444835ec580000\n        /* \"Documents/Web3/Casino/002 Roulette.sol\":2156:2165  msg.value */\n      callvalue\n        /* \"Documents/Web3/Casino/002 Roulette.sol\":2156:2175  msg.value * 6 ether */\n      tag_82\n      swap2\n      swap1\n      tag_62\n      jump\t// in\n    tag_82:\n        /* \"Documents/Web3/Casino/002 Roulette.sol\":2127:2176  payable(msg.sender).transfer(msg.value * 6 ether) */\n      swap1\n      dup2\n      iszero\n      mul\n      swap1\n      mload(0x40)\n      0x00\n      mload(0x40)\n      dup1\n      dup4\n      sub\n      dup2\n      dup6\n      dup9\n      dup9\n      call\n      swap4\n      pop\n      pop\n      pop\n      pop\n      iszero\n      dup1\n      iszero\n      tag_84\n      jumpi\n      returndatasize\n      0x00\n      dup1\n      returndatacopy\n      revert(0x00, returndatasize)\n    tag_84:\n      pop\n        /* \"Documents/Web3/Casino/002 Roulette.sol\":2092:2203  if (determinant < 6) {... */\n      jump(tag_85)\n    tag_81:\n    tag_85:\n        /* \"Documents/Web3/Casino/002 Roulette.sol\":2031:2209  {... */\n      pop\n        /* \"Documents/Web3/Casino/002 Roulette.sol\":1993:2209  function C_fiveToOne() payable public {... */\n      jump\t// out\n        /* \"Documents/Web3/Casino/002 Roulette.sol\":2663:2885  function F_seventeenToOne() payable public {... */\n    tag_37:\n        /* \"Documents/Web3/Casino/002 Roulette.sol\":2716:2732  uint determinant */\n      0x00\n        /* \"Documents/Web3/Casino/002 Roulette.sol\":2755:2757  38 */\n      0x26\n        /* \"Documents/Web3/Casino/002 Roulette.sol\":2735:2752  getRandomNumber() */\n      tag_87\n        /* \"Documents/Web3/Casino/002 Roulette.sol\":2735:2750  getRandomNumber */\n      tag_57\n        /* \"Documents/Web3/Casino/002 Roulette.sol\":2735:2752  getRandomNumber() */\n      jump\t// in\n    tag_87:\n        /* \"Documents/Web3/Casino/002 Roulette.sol\":2735:2757  getRandomNumber() % 38 */\n      tag_88\n      swap2\n      swap1\n      tag_59\n      jump\t// in\n    tag_88:\n        /* \"Documents/Web3/Casino/002 Roulette.sol\":2716:2757  uint determinant = getRandomNumber() % 38 */\n      swap1\n      pop\n        /* \"Documents/Web3/Casino/002 Roulette.sol\":2785:2786  2 */\n      0x02\n        /* \"Documents/Web3/Casino/002 Roulette.sol\":2771:2782  determinant */\n      dup2\n        /* \"Documents/Web3/Casino/002 Roulette.sol\":2771:2786  determinant < 2 */\n      lt\n        /* \"Documents/Web3/Casino/002 Roulette.sol\":2767:2879  if (determinant < 2) {... */\n      iszero\n      tag_89\n      jumpi\n        /* \"Documents/Web3/Casino/002 Roulette.sol\":2810:2820  msg.sender */\n      caller\n        /* \"Documents/Web3/Casino/002 Roulette.sol\":2802:2830  payable(msg.sender).transfer */\n      0xffffffffffffffffffffffffffffffffffffffff\n      and\n        /* \"Documents/Web3/Casino/002 Roulette.sol\":2802:2852  payable(msg.sender).transfer(msg.value * 18 ether) */\n      0x08fc\n        /* \"Documents/Web3/Casino/002 Roulette.sol\":2843:2851  18 ether */\n      0xf9ccd8a1c5080000\n        /* \"Documents/Web3/Casino/002 Roulette.sol\":2831:2840  msg.value */\n      callvalue\n        /* \"Documents/Web3/Casino/002 Roulette.sol\":2831:2851  msg.value * 18 ether */\n      tag_90\n      swap2\n      swap1\n      tag_62\n      jump\t// in\n    tag_90:\n        /* \"Documents/Web3/Casino/002 Roulette.sol\":2802:2852  payable(msg.sender).transfer(msg.value * 18 ether) */\n      swap1\n      dup2\n      iszero\n      mul\n      swap1\n      mload(0x40)\n      0x00\n      mload(0x40)\n      dup1\n      dup4\n      sub\n      dup2\n      dup6\n      dup9\n      dup9\n      call\n      swap4\n      pop\n      pop\n      pop\n      pop\n      iszero\n      dup1\n      iszero\n      tag_92\n      jumpi\n      returndatasize\n      0x00\n      dup1\n      returndatacopy\n      revert(0x00, returndatasize)\n    tag_92:\n      pop\n        /* \"Documents/Web3/Casino/002 Roulette.sol\":2767:2879  if (determinant < 2) {... */\n      jump(tag_93)\n    tag_89:\n    tag_93:\n        /* \"Documents/Web3/Casino/002 Roulette.sol\":2706:2885  {... */\n      pop\n        /* \"Documents/Web3/Casino/002 Roulette.sol\":2663:2885  function F_seventeenToOne() payable public {... */\n      jump\t// out\n        /* \"Documents/Web3/Casino/002 Roulette.sol\":2891:3114  function G_thirtyfiveToOne() payable public {... */\n    tag_39:\n        /* \"Documents/Web3/Casino/002 Roulette.sol\":2945:2961  uint determinant */\n      0x00\n        /* \"Documents/Web3/Casino/002 Roulette.sol\":2984:2986  38 */\n      0x26\n        /* \"Documents/Web3/Casino/002 Roulette.sol\":2964:2981  getRandomNumber() */\n      tag_95\n        /* \"Documents/Web3/Casino/002 Roulette.sol\":2964:2979  getRandomNumber */\n      tag_57\n        /* \"Documents/Web3/Casino/002 Roulette.sol\":2964:2981  getRandomNumber() */\n      jump\t// in\n    tag_95:\n        /* \"Documents/Web3/Casino/002 Roulette.sol\":2964:2986  getRandomNumber() % 38 */\n      tag_96\n      swap2\n      swap1\n      tag_59\n      jump\t// in\n    tag_96:\n        /* \"Documents/Web3/Casino/002 Roulette.sol\":2945:2986  uint determinant = getRandomNumber() % 38 */\n      swap1\n      pop\n        /* \"Documents/Web3/Casino/002 Roulette.sol\":3014:3015  1 */\n      0x01\n        /* \"Documents/Web3/Casino/002 Roulette.sol\":3000:3011  determinant */\n      dup2\n        /* \"Documents/Web3/Casino/002 Roulette.sol\":3000:3015  determinant < 1 */\n      lt\n        /* \"Documents/Web3/Casino/002 Roulette.sol\":2996:3108  if (determinant < 1) {... */\n      iszero\n      tag_97\n      jumpi\n        /* \"Documents/Web3/Casino/002 Roulette.sol\":3039:3049  msg.sender */\n      caller\n        /* \"Documents/Web3/Casino/002 Roulette.sol\":3031:3059  payable(msg.sender).transfer */\n      0xffffffffffffffffffffffffffffffffffffffff\n      and\n        /* \"Documents/Web3/Casino/002 Roulette.sol\":3031:3081  payable(msg.sender).transfer(msg.value * 36 ether) */\n      0x08fc\n        /* \"Documents/Web3/Casino/002 Roulette.sol\":3072:3080  36 ether */\n      0x01f399b1438a100000\n        /* \"Documents/Web3/Casino/002 Roulette.sol\":3060:3069  msg.value */\n      callvalue\n        /* \"Documents/Web3/Casino/002 Roulette.sol\":3060:3080  msg.value * 36 ether */\n      tag_98\n      swap2\n      swap1\n      tag_62\n      jump\t// in\n    tag_98:\n        /* \"Documents/Web3/Casino/002 Roulette.sol\":3031:3081  payable(msg.sender).transfer(msg.value * 36 ether) */\n      swap1\n      dup2\n      iszero\n      mul\n      swap1\n      mload(0x40)\n      0x00\n      mload(0x40)\n      dup1\n      dup4\n      sub\n      dup2\n      dup6\n      dup9\n      dup9\n      call\n      swap4\n      pop\n      pop\n      pop\n      pop\n      iszero\n      dup1\n      iszero\n      tag_100\n      jumpi\n      returndatasize\n      0x00\n      dup1\n      returndatacopy\n      revert(0x00, returndatasize)\n    tag_100:\n      pop\n        /* \"Documents/Web3/Casino/002 Roulette.sol\":2996:3108  if (determinant < 1) {... */\n      jump(tag_101)\n    tag_97:\n    tag_101:\n        /* \"Documents/Web3/Casino/002 Roulette.sol\":2935:3114  {... */\n      pop\n        /* \"Documents/Web3/Casino/002 Roulette.sol\":2891:3114  function G_thirtyfiveToOne() payable public {... */\n      jump\t// out\n        /* \"Documents/Web3/Casino/002 Roulette.sol\":572:600  address payable public owner */\n    tag_42:\n      0x00\n      dup1\n      sload\n      swap1\n      0x0100\n      exp\n      swap1\n      div\n      0xffffffffffffffffffffffffffffffffffffffff\n      and\n      dup2\n      jump\t// out\n        /* \"Documents/Web3/Casino/002 Roulette.sol\":1525:1765  function A_oneToOne() payable public {... */\n    tag_45:\n        /* \"Documents/Web3/Casino/002 Roulette.sol\":1572:1580  uint bet */\n      0x00\n        /* \"Documents/Web3/Casino/002 Roulette.sol\":1583:1592  msg.value */\n      callvalue\n        /* \"Documents/Web3/Casino/002 Roulette.sol\":1572:1592  uint bet = msg.value */\n      swap1\n      pop\n        /* \"Documents/Web3/Casino/002 Roulette.sol\":1602:1618  uint determinant */\n      0x00\n        /* \"Documents/Web3/Casino/002 Roulette.sol\":1641:1643  38 */\n      0x26\n        /* \"Documents/Web3/Casino/002 Roulette.sol\":1621:1638  getRandomNumber() */\n      tag_103\n        /* \"Documents/Web3/Casino/002 Roulette.sol\":1621:1636  getRandomNumber */\n      tag_57\n        /* \"Documents/Web3/Casino/002 Roulette.sol\":1621:1638  getRandomNumber() */\n      jump\t// in\n    tag_103:\n        /* \"Documents/Web3/Casino/002 Roulette.sol\":1621:1643  getRandomNumber() % 38 */\n      tag_104\n      swap2\n      swap1\n      tag_59\n      jump\t// in\n    tag_104:\n        /* \"Documents/Web3/Casino/002 Roulette.sol\":1602:1643  uint determinant = getRandomNumber() % 38 */\n      swap1\n      pop\n        /* \"Documents/Web3/Casino/002 Roulette.sol\":1671:1673  18 */\n      0x12\n        /* \"Documents/Web3/Casino/002 Roulette.sol\":1657:1668  determinant */\n      dup2\n        /* \"Documents/Web3/Casino/002 Roulette.sol\":1657:1673  determinant < 18 */\n      lt\n        /* \"Documents/Web3/Casino/002 Roulette.sol\":1653:1759  if (determinant < 18) {... */\n      iszero\n      tag_105\n      jumpi\n        /* \"Documents/Web3/Casino/002 Roulette.sol\":1697:1707  msg.sender */\n      caller\n        /* \"Documents/Web3/Casino/002 Roulette.sol\":1689:1717  payable(msg.sender).transfer */\n      0xffffffffffffffffffffffffffffffffffffffff\n      and\n        /* \"Documents/Web3/Casino/002 Roulette.sol\":1689:1732  payable(msg.sender).transfer(bet * 2 ether) */\n      0x08fc\n        /* \"Documents/Web3/Casino/002 Roulette.sol\":1724:1731  2 ether */\n      0x1bc16d674ec80000\n        /* \"Documents/Web3/Casino/002 Roulette.sol\":1718:1721  bet */\n      dup5\n        /* \"Documents/Web3/Casino/002 Roulette.sol\":1718:1731  bet * 2 ether */\n      tag_106\n      swap2\n      swap1\n      tag_62\n      jump\t// in\n    tag_106:\n        /* \"Documents/Web3/Casino/002 Roulette.sol\":1689:1732  payable(msg.sender).transfer(bet * 2 ether) */\n      swap1\n      dup2\n      iszero\n      mul\n      swap1\n      mload(0x40)\n      0x00\n      mload(0x40)\n      dup1\n      dup4\n      sub\n      dup2\n      dup6\n      dup9\n      dup9\n      call\n      swap4\n      pop\n      pop\n      pop\n      pop\n      iszero\n      dup1\n      iszero\n      tag_108\n      jumpi\n      returndatasize\n      0x00\n      dup1\n      returndatacopy\n      revert(0x00, returndatasize)\n    tag_108:\n      pop\n        /* \"Documents/Web3/Casino/002 Roulette.sol\":1653:1759  if (determinant < 18) {... */\n      jump(tag_109)\n    tag_105:\n    tag_109:\n        /* \"Documents/Web3/Casino/002 Roulette.sol\":1562:1765  {... */\n      pop\n      pop\n        /* \"Documents/Web3/Casino/002 Roulette.sol\":1525:1765  function A_oneToOne() payable public {... */\n      jump\t// out\n        /* \"Documents/Web3/Casino/002 Roulette.sol\":2215:2432  function D_eightToOne() payable public {... */\n    tag_47:\n        /* \"Documents/Web3/Casino/002 Roulette.sol\":2264:2280  uint determinant */\n      0x00\n        /* \"Documents/Web3/Casino/002 Roulette.sol\":2303:2305  38 */\n      0x26\n        /* \"Documents/Web3/Casino/002 Roulette.sol\":2283:2300  getRandomNumber() */\n      tag_111\n        /* \"Documents/Web3/Casino/002 Roulette.sol\":2283:2298  getRandomNumber */\n      tag_57\n        /* \"Documents/Web3/Casino/002 Roulette.sol\":2283:2300  getRandomNumber() */\n      jump\t// in\n    tag_111:\n        /* \"Documents/Web3/Casino/002 Roulette.sol\":2283:2305  getRandomNumber() % 38 */\n      tag_112\n      swap2\n      swap1\n      tag_59\n      jump\t// in\n    tag_112:\n        /* \"Documents/Web3/Casino/002 Roulette.sol\":2264:2305  uint determinant = getRandomNumber() % 38 */\n      swap1\n      pop\n        /* \"Documents/Web3/Casino/002 Roulette.sol\":2333:2334  4 */\n      0x04\n        /* \"Documents/Web3/Casino/002 Roulette.sol\":2319:2330  determinant */\n      dup2\n        /* \"Documents/Web3/Casino/002 Roulette.sol\":2319:2334  determinant < 4 */\n      lt\n        /* \"Documents/Web3/Casino/002 Roulette.sol\":2315:2426  if (determinant < 4) {... */\n      iszero\n      tag_113\n      jumpi\n        /* \"Documents/Web3/Casino/002 Roulette.sol\":2358:2368  msg.sender */\n      caller\n        /* \"Documents/Web3/Casino/002 Roulette.sol\":2350:2378  payable(msg.sender).transfer */\n      0xffffffffffffffffffffffffffffffffffffffff\n      and\n        /* \"Documents/Web3/Casino/002 Roulette.sol\":2350:2399  payable(msg.sender).transfer(msg.value * 9 ether) */\n      0x08fc\n        /* \"Documents/Web3/Casino/002 Roulette.sol\":2391:2398  9 ether */\n      0x7ce66c50e2840000\n        /* \"Documents/Web3/Casino/002 Roulette.sol\":2379:2388  msg.value */\n      callvalue\n        /* \"Documents/Web3/Casino/002 Roulette.sol\":2379:2398  msg.value * 9 ether */\n      tag_114\n      swap2\n      swap1\n      tag_62\n      jump\t// in\n    tag_114:\n        /* \"Documents/Web3/Casino/002 Roulette.sol\":2350:2399  payable(msg.sender).transfer(msg.value * 9 ether) */\n      swap1\n      dup2\n      iszero\n      mul\n      swap1\n      mload(0x40)\n      0x00\n      mload(0x40)\n      dup1\n      dup4\n      sub\n      dup2\n      dup6\n      dup9\n      dup9\n      call\n      swap4\n      pop\n      pop\n      pop\n      pop\n      iszero\n      dup1\n      iszero\n      tag_116\n      jumpi\n      returndatasize\n      0x00\n      dup1\n      returndatacopy\n      revert(0x00, returndatasize)\n    tag_116:\n      pop\n        /* \"Documents/Web3/Casino/002 Roulette.sol\":2315:2426  if (determinant < 4) {... */\n      jump(tag_117)\n    tag_113:\n    tag_117:\n        /* \"Documents/Web3/Casino/002 Roulette.sol\":2254:2432  {... */\n      pop\n        /* \"Documents/Web3/Casino/002 Roulette.sol\":2215:2432  function D_eightToOne() payable public {... */\n      jump\t// out\n        /* \"Documents/Web3/Casino/002 Roulette.sol\":3164:3214  function H_deposit() payable public onlyOwner() {} */\n    tag_49:\n        /* \"Documents/Web3/Casino/002 Roulette.sol\":828:833  owner */\n      0x00\n      dup1\n      sload\n      swap1\n      0x0100\n      exp\n      swap1\n      div\n      0xffffffffffffffffffffffffffffffffffffffff\n      and\n        /* \"Documents/Web3/Casino/002 Roulette.sol\":814:833  msg.sender == owner */\n      0xffffffffffffffffffffffffffffffffffffffff\n      and\n        /* \"Documents/Web3/Casino/002 Roulette.sol\":814:824  msg.sender */\n      caller\n        /* \"Documents/Web3/Casino/002 Roulette.sol\":814:833  msg.sender == owner */\n      0xffffffffffffffffffffffffffffffffffffffff\n      and\n      eq\n        /* \"Documents/Web3/Casino/002 Roulette.sol\":806:834  require(msg.sender == owner) */\n      tag_119\n      jumpi\n      0x00\n      dup1\n      revert\n    tag_119:\n        /* \"Documents/Web3/Casino/002 Roulette.sol\":3164:3214  function H_deposit() payable public onlyOwner() {} */\n      jump\t// out\n        /* \"Documents/Web3/Casino/002 Roulette.sol\":3220:3321  function I_withdraw(uint amount) public onlyOwner() {... */\n    tag_54:\n        /* \"Documents/Web3/Casino/002 Roulette.sol\":828:833  owner */\n      0x00\n      dup1\n      sload\n      swap1\n      0x0100\n      exp\n      swap1\n      div\n      0xffffffffffffffffffffffffffffffffffffffff\n      and\n        /* \"Documents/Web3/Casino/002 Roulette.sol\":814:833  msg.sender == owner */\n      0xffffffffffffffffffffffffffffffffffffffff\n      and\n        /* \"Documents/Web3/Casino/002 Roulette.sol\":814:824  msg.sender */\n      caller\n        /* \"Documents/Web3/Casino/002 Roulette.sol\":814:833  msg.sender == owner */\n      0xffffffffffffffffffffffffffffffffffffffff\n      and\n      eq\n        /* \"Documents/Web3/Casino/002 Roulette.sol\":806:834  require(msg.sender == owner) */\n      tag_122\n      jumpi\n      0x00\n      dup1\n      revert\n    tag_122:\n        /* \"Documents/Web3/Casino/002 Roulette.sol\":3282:3287  owner */\n      0x00\n      dup1\n      sload\n      swap1\n      0x0100\n      exp\n      swap1\n      div\n      0xffffffffffffffffffffffffffffffffffffffff\n      and\n        /* \"Documents/Web3/Casino/002 Roulette.sol\":3282:3296  owner.transfer */\n      0xffffffffffffffffffffffffffffffffffffffff\n      and\n        /* \"Documents/Web3/Casino/002 Roulette.sol\":3282:3314  owner.transfer(amount * 1 ether) */\n      0x08fc\n        /* \"Documents/Web3/Casino/002 Roulette.sol\":3306:3313  1 ether */\n      0x0de0b6b3a7640000\n        /* \"Documents/Web3/Casino/002 Roulette.sol\":3297:3303  amount */\n      dup4\n        /* \"Documents/Web3/Casino/002 Roulette.sol\":3297:3313  amount * 1 ether */\n      tag_124\n      swap2\n      swap1\n      tag_62\n      jump\t// in\n    tag_124:\n        /* \"Documents/Web3/Casino/002 Roulette.sol\":3282:3314  owner.transfer(amount * 1 ether) */\n      swap1\n      dup2\n      iszero\n      mul\n      swap1\n      mload(0x40)\n      0x00\n      mload(0x40)\n      dup1\n      dup4\n      sub\n      dup2\n      dup6\n      dup9\n      dup9\n      call\n      swap4\n      pop\n      pop\n      pop\n      pop\n      iszero\n      dup1\n      iszero\n      tag_126\n      jumpi\n      returndatasize\n      0x00\n      dup1\n      returndatacopy\n      revert(0x00, returndatasize)\n    tag_126:\n      pop\n        /* \"Documents/Web3/Casino/002 Roulette.sol\":3220:3321  function I_withdraw(uint amount) public onlyOwner() {... */\n      pop\n      jump\t// out\n        /* \"Documents/Web3/Casino/002 Roulette.sol\":1025:1195  function getRandomNumber() private view returns (uint) {... */\n    tag_57:\n        /* \"Documents/Web3/Casino/002 Roulette.sol\":1074:1078  uint */\n      0x00\n        /* \"Documents/Web3/Casino/002 Roulette.sol\":1129:1150  address(this).balance */\n      selfbalance\n        /* \"Documents/Web3/Casino/002 Roulette.sol\":1152:1167  block.timestamp */\n      timestamp\n        /* \"Documents/Web3/Casino/002 Roulette.sol\":1169:1185  block.difficulty */\n      difficulty\n        /* \"Documents/Web3/Casino/002 Roulette.sol\":1112:1186  abi.encodePacked(address(this).balance, block.timestamp, block.difficulty) */\n      add(0x20, mload(0x40))\n      tag_128\n      swap4\n      swap3\n      swap2\n      swap1\n      tag_129\n      jump\t// in\n    tag_128:\n      mload(0x40)\n      0x20\n      dup2\n      dup4\n      sub\n      sub\n      dup2\n      mstore\n      swap1\n      0x40\n      mstore\n        /* \"Documents/Web3/Casino/002 Roulette.sol\":1102:1187  keccak256(abi.encodePacked(address(this).balance, block.timestamp, block.difficulty)) */\n      dup1\n      mload\n      swap1\n      0x20\n      add\n      keccak256\n        /* \"Documents/Web3/Casino/002 Roulette.sol\":1097:1188  uint(keccak256(abi.encodePacked(address(this).balance, block.timestamp, block.difficulty))) */\n      0x00\n      shr\n        /* \"Documents/Web3/Casino/002 Roulette.sol\":1090:1188  return uint(keccak256(abi.encodePacked(address(this).balance, block.timestamp, block.difficulty))) */\n      swap1\n      pop\n        /* \"Documents/Web3/Casino/002 Roulette.sol\":1025:1195  function getRandomNumber() private view returns (uint) {... */\n      swap1\n      jump\t// out\n        /* \"#utility.yul\":7:84   */\n    tag_130:\n        /* \"#utility.yul\":44:51   */\n      0x00\n        /* \"#utility.yul\":73:78   */\n      dup2\n        /* \"#utility.yul\":62:78   */\n      swap1\n      pop\n        /* \"#utility.yul\":7:84   */\n      swap2\n      swap1\n      pop\n      jump\t// out\n        /* \"#utility.yul\":90:208   */\n    tag_131:\n        /* \"#utility.yul\":177:201   */\n      tag_147\n        /* \"#utility.yul\":195:200   */\n      dup2\n        /* \"#utility.yul\":177:201   */\n      tag_130\n      jump\t// in\n    tag_147:\n        /* \"#utility.yul\":172:175   */\n      dup3\n        /* \"#utility.yul\":165:202   */\n      mstore\n        /* \"#utility.yul\":90:208   */\n      pop\n      pop\n      jump\t// out\n        /* \"#utility.yul\":214:436   */\n    tag_25:\n        /* \"#utility.yul\":307:311   */\n      0x00\n        /* \"#utility.yul\":345:347   */\n      0x20\n        /* \"#utility.yul\":334:343   */\n      dup3\n        /* \"#utility.yul\":330:348   */\n      add\n        /* \"#utility.yul\":322:348   */\n      swap1\n      pop\n        /* \"#utility.yul\":358:429   */\n      tag_149\n        /* \"#utility.yul\":426:427   */\n      0x00\n        /* \"#utility.yul\":415:424   */\n      dup4\n        /* \"#utility.yul\":411:428   */\n      add\n        /* \"#utility.yul\":402:408   */\n      dup5\n        /* \"#utility.yul\":358:429   */\n      tag_131\n      jump\t// in\n    tag_149:\n        /* \"#utility.yul\":214:436   */\n      swap3\n      swap2\n      pop\n      pop\n      jump\t// out\n        /* \"#utility.yul\":442:568   */\n    tag_132:\n        /* \"#utility.yul\":479:486   */\n      0x00\n        /* \"#utility.yul\":519:561   */\n      0xffffffffffffffffffffffffffffffffffffffff\n        /* \"#utility.yul\":512:517   */\n      dup3\n        /* \"#utility.yul\":508:562   */\n      and\n        /* \"#utility.yul\":497:562   */\n      swap1\n      pop\n        /* \"#utility.yul\":442:568   */\n      swap2\n      swap1\n      pop\n      jump\t// out\n        /* \"#utility.yul\":574:678   */\n    tag_133:\n        /* \"#utility.yul\":619:626   */\n      0x00\n        /* \"#utility.yul\":648:672   */\n      tag_152\n        /* \"#utility.yul\":666:671   */\n      dup3\n        /* \"#utility.yul\":648:672   */\n      tag_132\n      jump\t// in\n    tag_152:\n        /* \"#utility.yul\":637:672   */\n      swap1\n      pop\n        /* \"#utility.yul\":574:678   */\n      swap2\n      swap1\n      pop\n      jump\t// out\n        /* \"#utility.yul\":684:826   */\n    tag_134:\n        /* \"#utility.yul\":787:819   */\n      tag_154\n        /* \"#utility.yul\":813:818   */\n      dup2\n        /* \"#utility.yul\":787:819   */\n      tag_133\n      jump\t// in\n    tag_154:\n        /* \"#utility.yul\":782:785   */\n      dup3\n        /* \"#utility.yul\":775:820   */\n      mstore\n        /* \"#utility.yul\":684:826   */\n      pop\n      pop\n      jump\t// out\n        /* \"#utility.yul\":832:1086   */\n    tag_30:\n        /* \"#utility.yul\":941:945   */\n      0x00\n        /* \"#utility.yul\":979:981   */\n      0x20\n        /* \"#utility.yul\":968:977   */\n      dup3\n        /* \"#utility.yul\":964:982   */\n      add\n        /* \"#utility.yul\":956:982   */\n      swap1\n      pop\n        /* \"#utility.yul\":992:1079   */\n      tag_156\n        /* \"#utility.yul\":1076:1077   */\n      0x00\n        /* \"#utility.yul\":1065:1074   */\n      dup4\n        /* \"#utility.yul\":1061:1078   */\n      add\n        /* \"#utility.yul\":1052:1058   */\n      dup5\n        /* \"#utility.yul\":992:1079   */\n      tag_134\n      jump\t// in\n    tag_156:\n        /* \"#utility.yul\":832:1086   */\n      swap3\n      swap2\n      pop\n      pop\n      jump\t// out\n        /* \"#utility.yul\":1173:1290   */\n    tag_136:\n        /* \"#utility.yul\":1282:1283   */\n      0x00\n        /* \"#utility.yul\":1279:1280   */\n      dup1\n        /* \"#utility.yul\":1272:1284   */\n      revert\n        /* \"#utility.yul\":1419:1541   */\n    tag_138:\n        /* \"#utility.yul\":1492:1516   */\n      tag_161\n        /* \"#utility.yul\":1510:1515   */\n      dup2\n        /* \"#utility.yul\":1492:1516   */\n      tag_130\n      jump\t// in\n    tag_161:\n        /* \"#utility.yul\":1485:1490   */\n      dup2\n        /* \"#utility.yul\":1482:1517   */\n      eq\n        /* \"#utility.yul\":1472:1535   */\n      tag_162\n      jumpi\n        /* \"#utility.yul\":1531:1532   */\n      0x00\n        /* \"#utility.yul\":1528:1529   */\n      dup1\n        /* \"#utility.yul\":1521:1533   */\n      revert\n        /* \"#utility.yul\":1472:1535   */\n    tag_162:\n        /* \"#utility.yul\":1419:1541   */\n      pop\n      jump\t// out\n        /* \"#utility.yul\":1547:1686   */\n    tag_139:\n        /* \"#utility.yul\":1593:1598   */\n      0x00\n        /* \"#utility.yul\":1631:1637   */\n      dup2\n        /* \"#utility.yul\":1618:1638   */\n      calldataload\n        /* \"#utility.yul\":1609:1638   */\n      swap1\n      pop\n        /* \"#utility.yul\":1647:1680   */\n      tag_164\n        /* \"#utility.yul\":1674:1679   */\n      dup2\n        /* \"#utility.yul\":1647:1680   */\n      tag_138\n      jump\t// in\n    tag_164:\n        /* \"#utility.yul\":1547:1686   */\n      swap3\n      swap2\n      pop\n      pop\n      jump\t// out\n        /* \"#utility.yul\":1692:2021   */\n    tag_53:\n        /* \"#utility.yul\":1751:1757   */\n      0x00\n        /* \"#utility.yul\":1800:1802   */\n      0x20\n        /* \"#utility.yul\":1788:1797   */\n      dup3\n        /* \"#utility.yul\":1779:1786   */\n      dup5\n        /* \"#utility.yul\":1775:1798   */\n      sub\n        /* \"#utility.yul\":1771:1803   */\n      slt\n        /* \"#utility.yul\":1768:1887   */\n      iszero\n      tag_166\n      jumpi\n        /* \"#utility.yul\":1806:1885   */\n      tag_167\n      tag_136\n      jump\t// in\n    tag_167:\n        /* \"#utility.yul\":1768:1887   */\n    tag_166:\n        /* \"#utility.yul\":1926:1927   */\n      0x00\n        /* \"#utility.yul\":1951:2004   */\n      tag_168\n        /* \"#utility.yul\":1996:2003   */\n      dup5\n        /* \"#utility.yul\":1987:1993   */\n      dup3\n        /* \"#utility.yul\":1976:1985   */\n      dup6\n        /* \"#utility.yul\":1972:1994   */\n      add\n        /* \"#utility.yul\":1951:2004   */\n      tag_139\n      jump\t// in\n    tag_168:\n        /* \"#utility.yul\":1941:2004   */\n      swap2\n      pop\n        /* \"#utility.yul\":1897:2014   */\n      pop\n        /* \"#utility.yul\":1692:2021   */\n      swap3\n      swap2\n      pop\n      pop\n      jump\t// out\n        /* \"#utility.yul\":2027:2207   */\n    tag_140:\n        /* \"#utility.yul\":2075:2152   */\n      0x4e487b7100000000000000000000000000000000000000000000000000000000\n        /* \"#utility.yul\":2072:2073   */\n      0x00\n        /* \"#utility.yul\":2065:2153   */\n      mstore\n        /* \"#utility.yul\":2172:2176   */\n      0x12\n        /* \"#utility.yul\":2169:2170   */\n      0x04\n        /* \"#utility.yul\":2162:2177   */\n      mstore\n        /* \"#utility.yul\":2196:2200   */\n      0x24\n        /* \"#utility.yul\":2193:2194   */\n      0x00\n        /* \"#utility.yul\":2186:2201   */\n      revert\n        /* \"#utility.yul\":2213:2389   */\n    tag_59:\n        /* \"#utility.yul\":2245:2246   */\n      0x00\n        /* \"#utility.yul\":2262:2282   */\n      tag_171\n        /* \"#utility.yul\":2280:2281   */\n      dup3\n        /* \"#utility.yul\":2262:2282   */\n      tag_130\n      jump\t// in\n    tag_171:\n        /* \"#utility.yul\":2257:2282   */\n      swap2\n      pop\n        /* \"#utility.yul\":2296:2316   */\n      tag_172\n        /* \"#utility.yul\":2314:2315   */\n      dup4\n        /* \"#utility.yul\":2296:2316   */\n      tag_130\n      jump\t// in\n    tag_172:\n        /* \"#utility.yul\":2291:2316   */\n      swap3\n      pop\n        /* \"#utility.yul\":2335:2336   */\n      dup3\n        /* \"#utility.yul\":2325:2360   */\n      tag_173\n      jumpi\n        /* \"#utility.yul\":2340:2358   */\n      tag_174\n      tag_140\n      jump\t// in\n    tag_174:\n        /* \"#utility.yul\":2325:2360   */\n    tag_173:\n        /* \"#utility.yul\":2381:2382   */\n      dup3\n        /* \"#utility.yul\":2378:2379   */\n      dup3\n        /* \"#utility.yul\":2374:2383   */\n      mod\n        /* \"#utility.yul\":2369:2383   */\n      swap1\n      pop\n        /* \"#utility.yul\":2213:2389   */\n      swap3\n      swap2\n      pop\n      pop\n      jump\t// out\n        /* \"#utility.yul\":2395:2575   */\n    tag_141:\n        /* \"#utility.yul\":2443:2520   */\n      0x4e487b7100000000000000000000000000000000000000000000000000000000\n        /* \"#utility.yul\":2440:2441   */\n      0x00\n        /* \"#utility.yul\":2433:2521   */\n      mstore\n        /* \"#utility.yul\":2540:2544   */\n      0x11\n        /* \"#utility.yul\":2537:2538   */\n      0x04\n        /* \"#utility.yul\":2530:2545   */\n      mstore\n        /* \"#utility.yul\":2564:2568   */\n      0x24\n        /* \"#utility.yul\":2561:2562   */\n      0x00\n        /* \"#utility.yul\":2554:2569   */\n      revert\n        /* \"#utility.yul\":2581:2929   */\n    tag_62:\n        /* \"#utility.yul\":2621:2628   */\n      0x00\n        /* \"#utility.yul\":2644:2664   */\n      tag_177\n        /* \"#utility.yul\":2662:2663   */\n      dup3\n        /* \"#utility.yul\":2644:2664   */\n      tag_130\n      jump\t// in\n    tag_177:\n        /* \"#utility.yul\":2639:2664   */\n      swap2\n      pop\n        /* \"#utility.yul\":2678:2698   */\n      tag_178\n        /* \"#utility.yul\":2696:2697   */\n      dup4\n        /* \"#utility.yul\":2678:2698   */\n      tag_130\n      jump\t// in\n    tag_178:\n        /* \"#utility.yul\":2673:2698   */\n      swap3\n      pop\n        /* \"#utility.yul\":2866:2867   */\n      dup2\n        /* \"#utility.yul\":2798:2864   */\n      0xffffffffffffffffffffffffffffffffffffffffffffffffffffffffffffffff\n        /* \"#utility.yul\":2794:2868   */\n      div\n        /* \"#utility.yul\":2791:2792   */\n      dup4\n        /* \"#utility.yul\":2788:2869   */\n      gt\n        /* \"#utility.yul\":2783:2784   */\n      dup3\n        /* \"#utility.yul\":2776:2785   */\n      iszero\n        /* \"#utility.yul\":2769:2786   */\n      iszero\n        /* \"#utility.yul\":2765:2870   */\n      and\n        /* \"#utility.yul\":2762:2893   */\n      iszero\n      tag_179\n      jumpi\n        /* \"#utility.yul\":2873:2891   */\n      tag_180\n      tag_141\n      jump\t// in\n    tag_180:\n        /* \"#utility.yul\":2762:2893   */\n    tag_179:\n        /* \"#utility.yul\":2921:2922   */\n      dup3\n        /* \"#utility.yul\":2918:2919   */\n      dup3\n        /* \"#utility.yul\":2914:2923   */\n      mul\n        /* \"#utility.yul\":2903:2923   */\n      swap1\n      pop\n        /* \"#utility.yul\":2581:2929   */\n      swap3\n      swap2\n      pop\n      pop\n      jump\t// out\n        /* \"#utility.yul\":2935:3014   */\n    tag_142:\n        /* \"#utility.yul\":2974:2981   */\n      0x00\n        /* \"#utility.yul\":3003:3008   */\n      dup2\n        /* \"#utility.yul\":2992:3008   */\n      swap1\n      pop\n        /* \"#utility.yul\":2935:3014   */\n      swap2\n      swap1\n      pop\n      jump\t// out\n        /* \"#utility.yul\":3020:3177   */\n    tag_143:\n        /* \"#utility.yul\":3125:3170   */\n      tag_183\n        /* \"#utility.yul\":3145:3169   */\n      tag_184\n        /* \"#utility.yul\":3163:3168   */\n      dup3\n        /* \"#utility.yul\":3145:3169   */\n      tag_130\n      jump\t// in\n    tag_184:\n        /* \"#utility.yul\":3125:3170   */\n      tag_142\n      jump\t// in\n    tag_183:\n        /* \"#utility.yul\":3120:3123   */\n      dup3\n        /* \"#utility.yul\":3113:3171   */\n      mstore\n        /* \"#utility.yul\":3020:3177   */\n      pop\n      pop\n      jump\t// out\n        /* \"#utility.yul\":3183:3721   */\n    tag_129:\n        /* \"#utility.yul\":3351:3354   */\n      0x00\n        /* \"#utility.yul\":3366:3441   */\n      tag_186\n        /* \"#utility.yul\":3437:3440   */\n      dup3\n        /* \"#utility.yul\":3428:3434   */\n      dup7\n        /* \"#utility.yul\":3366:3441   */\n      tag_143\n      jump\t// in\n    tag_186:\n        /* \"#utility.yul\":3466:3468   */\n      0x20\n        /* \"#utility.yul\":3461:3464   */\n      dup3\n        /* \"#utility.yul\":3457:3469   */\n      add\n        /* \"#utility.yul\":3450:3469   */\n      swap2\n      pop\n        /* \"#utility.yul\":3479:3554   */\n      tag_187\n        /* \"#utility.yul\":3550:3553   */\n      dup3\n        /* \"#utility.yul\":3541:3547   */\n      dup6\n        /* \"#utility.yul\":3479:3554   */\n      tag_143\n      jump\t// in\n    tag_187:\n        /* \"#utility.yul\":3579:3581   */\n      0x20\n        /* \"#utility.yul\":3574:3577   */\n      dup3\n        /* \"#utility.yul\":3570:3582   */\n      add\n        /* \"#utility.yul\":3563:3582   */\n      swap2\n      pop\n        /* \"#utility.yul\":3592:3667   */\n      tag_188\n        /* \"#utility.yul\":3663:3666   */\n      dup3\n        /* \"#utility.yul\":3654:3660   */\n      dup5\n        /* \"#utility.yul\":3592:3667   */\n      tag_143\n      jump\t// in\n    tag_188:\n        /* \"#utility.yul\":3692:3694   */\n      0x20\n        /* \"#utility.yul\":3687:3690   */\n      dup3\n        /* \"#utility.yul\":3683:3695   */\n      add\n        /* \"#utility.yul\":3676:3695   */\n      swap2\n      pop\n        /* \"#utility.yul\":3712:3715   */\n      dup2\n        /* \"#utility.yul\":3705:3715   */\n      swap1\n      pop\n        /* \"#utility.yul\":3183:3721   */\n      swap5\n      swap4\n      pop\n      pop\n      pop\n      pop\n      jump\t// out\n\n    auxdata: 0xa2646970667358221220d8528bb5b096193db4b9bade8a28e77521d6f5cfcfef0875697c615c63928f6e64736f6c634300080f0033\n}\n",
				"bytecode": {
					"linkReferences": {},
					"object": "608060405234801561001057600080fd5b50336000806101000a81548173ffffffffffffffffffffffffffffffffffffffff021916908373ffffffffffffffffffffffffffffffffffffffff160217905550610a09806100606000396000f3fe6080604052600436106100c25760003560e01c8063766f85781161007f578063b1ad305311610059578063b1ad305314610198578063e7120fd9146101a2578063e8d18212146101ac578063f855aa9e146101b6576100c2565b8063766f85781461015957806385b4ba87146101635780638da5cb5b1461016d576100c2565b80630b634788146100c757806329402ecb146100d1578063374ccd33146100db57806348db5f89146101065780636689c33a146101315780636f4c487a1461014f575b600080fd5b6100cf6101df565b005b6100d9610263565b005b3480156100e757600080fd5b506100f06102e7565b6040516100fd91906107b7565b60405180910390f35b34801561011257600080fd5b5061011b610348565b6040516101289190610813565b60405180910390f35b61013961036e565b60405161014691906107b7565b60405180910390f35b61015761037b565b005b6101616103ff565b005b61016b610483565b005b34801561017957600080fd5b50610182610508565b60405161018f9190610813565b60405180910390f35b6101a061052c565b005b6101aa6105b6565b005b6101b461063a565b005b3480156101c257600080fd5b506101dd60048036038101906101d8919061085f565b610694565b005b600060266101eb610769565b6101f591906108bb565b9050600381101561025f573373ffffffffffffffffffffffffffffffffffffffff166108fc67a688906bd8b000003461022e919061091b565b9081150290604051600060405180830381858888f19350505050158015610259573d6000803e3d6000fd5b50610260565b5b50565b6000602661026f610769565b61027991906108bb565b9050600c8110156102e3573373ffffffffffffffffffffffffffffffffffffffff166108fc6729a2241af62c0000346102b2919061091b565b9081150290604051600060405180830381858888f193505050501580156102dd573d6000803e3d6000fd5b506102e4565b5b50565b60008060009054906101000a900473ffffffffffffffffffffffffffffffffffffffff1673ffffffffffffffffffffffffffffffffffffffff163373ffffffffffffffffffffffffffffffffffffffff161461034257600080fd5b47905090565b600160009054906101000a900473ffffffffffffffffffffffffffffffffffffffff1681565b6000803490508091505090565b60006026610387610769565b61039191906108bb565b905060068110156103fb573373ffffffffffffffffffffffffffffffffffffffff166108fc6753444835ec580000346103ca919061091b565b9081150290604051600060405180830381858888f193505050501580156103f5573d6000803e3d6000fd5b506103fc565b5b50565b6000602661040b610769565b61041591906108bb565b9050600281101561047f573373ffffffffffffffffffffffffffffffffffffffff166108fc67f9ccd8a1c50800003461044e919061091b565b9081150290604051600060405180830381858888f19350505050158015610479573d6000803e3d6000fd5b50610480565b5b50565b6000602661048f610769565b61049991906108bb565b90506001811015610504573373ffffffffffffffffffffffffffffffffffffffff166108fc6801f399b1438a100000346104d3919061091b565b9081150290604051600060405180830381858888f193505050501580156104fe573d6000803e3d6000fd5b50610505565b5b50565b60008054906101000a900473ffffffffffffffffffffffffffffffffffffffff1681565b60003490506000602661053d610769565b61054791906108bb565b905060128110156105b1573373ffffffffffffffffffffffffffffffffffffffff166108fc671bc16d674ec8000084610580919061091b565b9081150290604051600060405180830381858888f193505050501580156105ab573d6000803e3d6000fd5b506105b2565b5b5050565b600060266105c2610769565b6105cc91906108bb565b90506004811015610636573373ffffffffffffffffffffffffffffffffffffffff166108fc677ce66c50e284000034610605919061091b565b9081150290604051600060405180830381858888f19350505050158015610630573d6000803e3d6000fd5b50610637565b5b50565b60008054906101000a900473ffffffffffffffffffffffffffffffffffffffff1673ffffffffffffffffffffffffffffffffffffffff163373ffffffffffffffffffffffffffffffffffffffff161461069257600080fd5b565b60008054906101000a900473ffffffffffffffffffffffffffffffffffffffff1673ffffffffffffffffffffffffffffffffffffffff163373ffffffffffffffffffffffffffffffffffffffff16146106ec57600080fd5b60008054906101000a900473ffffffffffffffffffffffffffffffffffffffff1673ffffffffffffffffffffffffffffffffffffffff166108fc670de0b6b3a76400008361073a919061091b565b9081150290604051600060405180830381858888f19350505050158015610765573d6000803e3d6000fd5b5050565b600047424460405160200161078093929190610996565b6040516020818303038152906040528051906020012060001c905090565b6000819050919050565b6107b18161079e565b82525050565b60006020820190506107cc60008301846107a8565b92915050565b600073ffffffffffffffffffffffffffffffffffffffff82169050919050565b60006107fd826107d2565b9050919050565b61080d816107f2565b82525050565b60006020820190506108286000830184610804565b92915050565b600080fd5b61083c8161079e565b811461084757600080fd5b50565b60008135905061085981610833565b92915050565b6000602082840312156108755761087461082e565b5b60006108838482850161084a565b91505092915050565b7f4e487b7100000000000000000000000000000000000000000000000000000000600052601260045260246000fd5b60006108c68261079e565b91506108d18361079e565b9250826108e1576108e061088c565b5b828206905092915050565b7f4e487b7100000000000000000000000000000000000000000000000000000000600052601160045260246000fd5b60006109268261079e565b91506109318361079e565b9250817fffffffffffffffffffffffffffffffffffffffffffffffffffffffffffffffff048311821515161561096a576109696108ec565b5b828202905092915050565b6000819050919050565b61099061098b8261079e565b610975565b82525050565b60006109a2828661097f565b6020820191506109b2828561097f565b6020820191506109c2828461097f565b60208201915081905094935050505056fea2646970667358221220d8528bb5b096193db4b9bade8a28e77521d6f5cfcfef0875697c615c63928f6e64736f6c634300080f0033",
					"opcodes": "PUSH1 0x80 PUSH1 0x40 MSTORE CALLVALUE DUP1 ISZERO PUSH2 0x10 JUMPI PUSH1 0x0 DUP1 REVERT JUMPDEST POP CALLER PUSH1 0x0 DUP1 PUSH2 0x100 EXP DUP2 SLOAD DUP2 PUSH20 0xFFFFFFFFFFFFFFFFFFFFFFFFFFFFFFFFFFFFFFFF MUL NOT AND SWAP1 DUP4 PUSH20 0xFFFFFFFFFFFFFFFFFFFFFFFFFFFFFFFFFFFFFFFF AND MUL OR SWAP1 SSTORE POP PUSH2 0xA09 DUP1 PUSH2 0x60 PUSH1 0x0 CODECOPY PUSH1 0x0 RETURN INVALID PUSH1 0x80 PUSH1 0x40 MSTORE PUSH1 0x4 CALLDATASIZE LT PUSH2 0xC2 JUMPI PUSH1 0x0 CALLDATALOAD PUSH1 0xE0 SHR DUP1 PUSH4 0x766F8578 GT PUSH2 0x7F JUMPI DUP1 PUSH4 0xB1AD3053 GT PUSH2 0x59 JUMPI DUP1 PUSH4 0xB1AD3053 EQ PUSH2 0x198 JUMPI DUP1 PUSH4 0xE7120FD9 EQ PUSH2 0x1A2 JUMPI DUP1 PUSH4 0xE8D18212 EQ PUSH2 0x1AC JUMPI DUP1 PUSH4 0xF855AA9E EQ PUSH2 0x1B6 JUMPI PUSH2 0xC2 JUMP JUMPDEST DUP1 PUSH4 0x766F8578 EQ PUSH2 0x159 JUMPI DUP1 PUSH4 0x85B4BA87 EQ PUSH2 0x163 JUMPI DUP1 PUSH4 0x8DA5CB5B EQ PUSH2 0x16D JUMPI PUSH2 0xC2 JUMP JUMPDEST DUP1 PUSH4 0xB634788 EQ PUSH2 0xC7 JUMPI DUP1 PUSH4 0x29402ECB EQ PUSH2 0xD1 JUMPI DUP1 PUSH4 0x374CCD33 EQ PUSH2 0xDB JUMPI DUP1 PUSH4 0x48DB5F89 EQ PUSH2 0x106 JUMPI DUP1 PUSH4 0x6689C33A EQ PUSH2 0x131 JUMPI DUP1 PUSH4 0x6F4C487A EQ PUSH2 0x14F JUMPI JUMPDEST PUSH1 0x0 DUP1 REVERT JUMPDEST PUSH2 0xCF PUSH2 0x1DF JUMP JUMPDEST STOP JUMPDEST PUSH2 0xD9 PUSH2 0x263 JUMP JUMPDEST STOP JUMPDEST CALLVALUE DUP1 ISZERO PUSH2 0xE7 JUMPI PUSH1 0x0 DUP1 REVERT JUMPDEST POP PUSH2 0xF0 PUSH2 0x2E7 JUMP JUMPDEST PUSH1 0x40 MLOAD PUSH2 0xFD SWAP2 SWAP1 PUSH2 0x7B7 JUMP JUMPDEST PUSH1 0x40 MLOAD DUP1 SWAP2 SUB SWAP1 RETURN JUMPDEST CALLVALUE DUP1 ISZERO PUSH2 0x112 JUMPI PUSH1 0x0 DUP1 REVERT JUMPDEST POP PUSH2 0x11B PUSH2 0x348 JUMP JUMPDEST PUSH1 0x40 MLOAD PUSH2 0x128 SWAP2 SWAP1 PUSH2 0x813 JUMP JUMPDEST PUSH1 0x40 MLOAD DUP1 SWAP2 SUB SWAP1 RETURN JUMPDEST PUSH2 0x139 PUSH2 0x36E JUMP JUMPDEST PUSH1 0x40 MLOAD PUSH2 0x146 SWAP2 SWAP1 PUSH2 0x7B7 JUMP JUMPDEST PUSH1 0x40 MLOAD DUP1 SWAP2 SUB SWAP1 RETURN JUMPDEST PUSH2 0x157 PUSH2 0x37B JUMP JUMPDEST STOP JUMPDEST PUSH2 0x161 PUSH2 0x3FF JUMP JUMPDEST STOP JUMPDEST PUSH2 0x16B PUSH2 0x483 JUMP JUMPDEST STOP JUMPDEST CALLVALUE DUP1 ISZERO PUSH2 0x179 JUMPI PUSH1 0x0 DUP1 REVERT JUMPDEST POP PUSH2 0x182 PUSH2 0x508 JUMP JUMPDEST PUSH1 0x40 MLOAD PUSH2 0x18F SWAP2 SWAP1 PUSH2 0x813 JUMP JUMPDEST PUSH1 0x40 MLOAD DUP1 SWAP2 SUB SWAP1 RETURN JUMPDEST PUSH2 0x1A0 PUSH2 0x52C JUMP JUMPDEST STOP JUMPDEST PUSH2 0x1AA PUSH2 0x5B6 JUMP JUMPDEST STOP JUMPDEST PUSH2 0x1B4 PUSH2 0x63A JUMP JUMPDEST STOP JUMPDEST CALLVALUE DUP1 ISZERO PUSH2 0x1C2 JUMPI PUSH1 0x0 DUP1 REVERT JUMPDEST POP PUSH2 0x1DD PUSH1 0x4 DUP1 CALLDATASIZE SUB DUP2 ADD SWAP1 PUSH2 0x1D8 SWAP2 SWAP1 PUSH2 0x85F JUMP JUMPDEST PUSH2 0x694 JUMP JUMPDEST STOP JUMPDEST PUSH1 0x0 PUSH1 0x26 PUSH2 0x1EB PUSH2 0x769 JUMP JUMPDEST PUSH2 0x1F5 SWAP2 SWAP1 PUSH2 0x8BB JUMP JUMPDEST SWAP1 POP PUSH1 0x3 DUP2 LT ISZERO PUSH2 0x25F JUMPI CALLER PUSH20 0xFFFFFFFFFFFFFFFFFFFFFFFFFFFFFFFFFFFFFFFF AND PUSH2 0x8FC PUSH8 0xA688906BD8B00000 CALLVALUE PUSH2 0x22E SWAP2 SWAP1 PUSH2 0x91B JUMP JUMPDEST SWAP1 DUP2 ISZERO MUL SWAP1 PUSH1 0x40 MLOAD PUSH1 0x0 PUSH1 0x40 MLOAD DUP1 DUP4 SUB DUP2 DUP6 DUP9 DUP9 CALL SWAP4 POP POP POP POP ISZERO DUP1 ISZERO PUSH2 0x259 JUMPI RETURNDATASIZE PUSH1 0x0 DUP1 RETURNDATACOPY RETURNDATASIZE PUSH1 0x0 REVERT JUMPDEST POP PUSH2 0x260 JUMP JUMPDEST JUMPDEST POP JUMP JUMPDEST PUSH1 0x0 PUSH1 0x26 PUSH2 0x26F PUSH2 0x769 JUMP JUMPDEST PUSH2 0x279 SWAP2 SWAP1 PUSH2 0x8BB JUMP JUMPDEST SWAP1 POP PUSH1 0xC DUP2 LT ISZERO PUSH2 0x2E3 JUMPI CALLER PUSH20 0xFFFFFFFFFFFFFFFFFFFFFFFFFFFFFFFFFFFFFFFF AND PUSH2 0x8FC PUSH8 0x29A2241AF62C0000 CALLVALUE PUSH2 0x2B2 SWAP2 SWAP1 PUSH2 0x91B JUMP JUMPDEST SWAP1 DUP2 ISZERO MUL SWAP1 PUSH1 0x40 MLOAD PUSH1 0x0 PUSH1 0x40 MLOAD DUP1 DUP4 SUB DUP2 DUP6 DUP9 DUP9 CALL SWAP4 POP POP POP POP ISZERO DUP1 ISZERO PUSH2 0x2DD JUMPI RETURNDATASIZE PUSH1 0x0 DUP1 RETURNDATACOPY RETURNDATASIZE PUSH1 0x0 REVERT JUMPDEST POP PUSH2 0x2E4 JUMP JUMPDEST JUMPDEST POP JUMP JUMPDEST PUSH1 0x0 DUP1 PUSH1 0x0 SWAP1 SLOAD SWAP1 PUSH2 0x100 EXP SWAP1 DIV PUSH20 0xFFFFFFFFFFFFFFFFFFFFFFFFFFFFFFFFFFFFFFFF AND PUSH20 0xFFFFFFFFFFFFFFFFFFFFFFFFFFFFFFFFFFFFFFFF AND CALLER PUSH20 0xFFFFFFFFFFFFFFFFFFFFFFFFFFFFFFFFFFFFFFFF AND EQ PUSH2 0x342 JUMPI PUSH1 0x0 DUP1 REVERT JUMPDEST SELFBALANCE SWAP1 POP SWAP1 JUMP JUMPDEST PUSH1 0x1 PUSH1 0x0 SWAP1 SLOAD SWAP1 PUSH2 0x100 EXP SWAP1 DIV PUSH20 0xFFFFFFFFFFFFFFFFFFFFFFFFFFFFFFFFFFFFFFFF AND DUP2 JUMP JUMPDEST PUSH1 0x0 DUP1 CALLVALUE SWAP1 POP DUP1 SWAP2 POP POP SWAP1 JUMP JUMPDEST PUSH1 0x0 PUSH1 0x26 PUSH2 0x387 PUSH2 0x769 JUMP JUMPDEST PUSH2 0x391 SWAP2 SWAP1 PUSH2 0x8BB JUMP JUMPDEST SWAP1 POP PUSH1 0x6 DUP2 LT ISZERO PUSH2 0x3FB JUMPI CALLER PUSH20 0xFFFFFFFFFFFFFFFFFFFFFFFFFFFFFFFFFFFFFFFF AND PUSH2 0x8FC PUSH8 0x53444835EC580000 CALLVALUE PUSH2 0x3CA SWAP2 SWAP1 PUSH2 0x91B JUMP JUMPDEST SWAP1 DUP2 ISZERO MUL SWAP1 PUSH1 0x40 MLOAD PUSH1 0x0 PUSH1 0x40 MLOAD DUP1 DUP4 SUB DUP2 DUP6 DUP9 DUP9 CALL SWAP4 POP POP POP POP ISZERO DUP1 ISZERO PUSH2 0x3F5 JUMPI RETURNDATASIZE PUSH1 0x0 DUP1 RETURNDATACOPY RETURNDATASIZE PUSH1 0x0 REVERT JUMPDEST POP PUSH2 0x3FC JUMP JUMPDEST JUMPDEST POP JUMP JUMPDEST PUSH1 0x0 PUSH1 0x26 PUSH2 0x40B PUSH2 0x769 JUMP JUMPDEST PUSH2 0x415 SWAP2 SWAP1 PUSH2 0x8BB JUMP JUMPDEST SWAP1 POP PUSH1 0x2 DUP2 LT ISZERO PUSH2 0x47F JUMPI CALLER PUSH20 0xFFFFFFFFFFFFFFFFFFFFFFFFFFFFFFFFFFFFFFFF AND PUSH2 0x8FC PUSH8 0xF9CCD8A1C5080000 CALLVALUE PUSH2 0x44E SWAP2 SWAP1 PUSH2 0x91B JUMP JUMPDEST SWAP1 DUP2 ISZERO MUL SWAP1 PUSH1 0x40 MLOAD PUSH1 0x0 PUSH1 0x40 MLOAD DUP1 DUP4 SUB DUP2 DUP6 DUP9 DUP9 CALL SWAP4 POP POP POP POP ISZERO DUP1 ISZERO PUSH2 0x479 JUMPI RETURNDATASIZE PUSH1 0x0 DUP1 RETURNDATACOPY RETURNDATASIZE PUSH1 0x0 REVERT JUMPDEST POP PUSH2 0x480 JUMP JUMPDEST JUMPDEST POP JUMP JUMPDEST PUSH1 0x0 PUSH1 0x26 PUSH2 0x48F PUSH2 0x769 JUMP JUMPDEST PUSH2 0x499 SWAP2 SWAP1 PUSH2 0x8BB JUMP JUMPDEST SWAP1 POP PUSH1 0x1 DUP2 LT ISZERO PUSH2 0x504 JUMPI CALLER PUSH20 0xFFFFFFFFFFFFFFFFFFFFFFFFFFFFFFFFFFFFFFFF AND PUSH2 0x8FC PUSH9 0x1F399B1438A100000 CALLVALUE PUSH2 0x4D3 SWAP2 SWAP1 PUSH2 0x91B JUMP JUMPDEST SWAP1 DUP2 ISZERO MUL SWAP1 PUSH1 0x40 MLOAD PUSH1 0x0 PUSH1 0x40 MLOAD DUP1 DUP4 SUB DUP2 DUP6 DUP9 DUP9 CALL SWAP4 POP POP POP POP ISZERO DUP1 ISZERO PUSH2 0x4FE JUMPI RETURNDATASIZE PUSH1 0x0 DUP1 RETURNDATACOPY RETURNDATASIZE PUSH1 0x0 REVERT JUMPDEST POP PUSH2 0x505 JUMP JUMPDEST JUMPDEST POP JUMP JUMPDEST PUSH1 0x0 DUP1 SLOAD SWAP1 PUSH2 0x100 EXP SWAP1 DIV PUSH20 0xFFFFFFFFFFFFFFFFFFFFFFFFFFFFFFFFFFFFFFFF AND DUP2 JUMP JUMPDEST PUSH1 0x0 CALLVALUE SWAP1 POP PUSH1 0x0 PUSH1 0x26 PUSH2 0x53D PUSH2 0x769 JUMP JUMPDEST PUSH2 0x547 SWAP2 SWAP1 PUSH2 0x8BB JUMP JUMPDEST SWAP1 POP PUSH1 0x12 DUP2 LT ISZERO PUSH2 0x5B1 JUMPI CALLER PUSH20 0xFFFFFFFFFFFFFFFFFFFFFFFFFFFFFFFFFFFFFFFF AND PUSH2 0x8FC PUSH8 0x1BC16D674EC80000 DUP5 PUSH2 0x580 SWAP2 SWAP1 PUSH2 0x91B JUMP JUMPDEST SWAP1 DUP2 ISZERO MUL SWAP1 PUSH1 0x40 MLOAD PUSH1 0x0 PUSH1 0x40 MLOAD DUP1 DUP4 SUB DUP2 DUP6 DUP9 DUP9 CALL SWAP4 POP POP POP POP ISZERO DUP1 ISZERO PUSH2 0x5AB JUMPI RETURNDATASIZE PUSH1 0x0 DUP1 RETURNDATACOPY RETURNDATASIZE PUSH1 0x0 REVERT JUMPDEST POP PUSH2 0x5B2 JUMP JUMPDEST JUMPDEST POP POP JUMP JUMPDEST PUSH1 0x0 PUSH1 0x26 PUSH2 0x5C2 PUSH2 0x769 JUMP JUMPDEST PUSH2 0x5CC SWAP2 SWAP1 PUSH2 0x8BB JUMP JUMPDEST SWAP1 POP PUSH1 0x4 DUP2 LT ISZERO PUSH2 0x636 JUMPI CALLER PUSH20 0xFFFFFFFFFFFFFFFFFFFFFFFFFFFFFFFFFFFFFFFF AND PUSH2 0x8FC PUSH8 0x7CE66C50E2840000 CALLVALUE PUSH2 0x605 SWAP2 SWAP1 PUSH2 0x91B JUMP JUMPDEST SWAP1 DUP2 ISZERO MUL SWAP1 PUSH1 0x40 MLOAD PUSH1 0x0 PUSH1 0x40 MLOAD DUP1 DUP4 SUB DUP2 DUP6 DUP9 DUP9 CALL SWAP4 POP POP POP POP ISZERO DUP1 ISZERO PUSH2 0x630 JUMPI RETURNDATASIZE PUSH1 0x0 DUP1 RETURNDATACOPY RETURNDATASIZE PUSH1 0x0 REVERT JUMPDEST POP PUSH2 0x637 JUMP JUMPDEST JUMPDEST POP JUMP JUMPDEST PUSH1 0x0 DUP1 SLOAD SWAP1 PUSH2 0x100 EXP SWAP1 DIV PUSH20 0xFFFFFFFFFFFFFFFFFFFFFFFFFFFFFFFFFFFFFFFF AND PUSH20 0xFFFFFFFFFFFFFFFFFFFFFFFFFFFFFFFFFFFFFFFF AND CALLER PUSH20 0xFFFFFFFFFFFFFFFFFFFFFFFFFFFFFFFFFFFFFFFF AND EQ PUSH2 0x692 JUMPI PUSH1 0x0 DUP1 REVERT JUMPDEST JUMP JUMPDEST PUSH1 0x0 DUP1 SLOAD SWAP1 PUSH2 0x100 EXP SWAP1 DIV PUSH20 0xFFFFFFFFFFFFFFFFFFFFFFFFFFFFFFFFFFFFFFFF AND PUSH20 0xFFFFFFFFFFFFFFFFFFFFFFFFFFFFFFFFFFFFFFFF AND CALLER PUSH20 0xFFFFFFFFFFFFFFFFFFFFFFFFFFFFFFFFFFFFFFFF AND EQ PUSH2 0x6EC JUMPI PUSH1 0x0 DUP1 REVERT JUMPDEST PUSH1 0x0 DUP1 SLOAD SWAP1 PUSH2 0x100 EXP SWAP1 DIV PUSH20 0xFFFFFFFFFFFFFFFFFFFFFFFFFFFFFFFFFFFFFFFF AND PUSH20 0xFFFFFFFFFFFFFFFFFFFFFFFFFFFFFFFFFFFFFFFF AND PUSH2 0x8FC PUSH8 0xDE0B6B3A7640000 DUP4 PUSH2 0x73A SWAP2 SWAP1 PUSH2 0x91B JUMP JUMPDEST SWAP1 DUP2 ISZERO MUL SWAP1 PUSH1 0x40 MLOAD PUSH1 0x0 PUSH1 0x40 MLOAD DUP1 DUP4 SUB DUP2 DUP6 DUP9 DUP9 CALL SWAP4 POP POP POP POP ISZERO DUP1 ISZERO PUSH2 0x765 JUMPI RETURNDATASIZE PUSH1 0x0 DUP1 RETURNDATACOPY RETURNDATASIZE PUSH1 0x0 REVERT JUMPDEST POP POP JUMP JUMPDEST PUSH1 0x0 SELFBALANCE TIMESTAMP DIFFICULTY PUSH1 0x40 MLOAD PUSH1 0x20 ADD PUSH2 0x780 SWAP4 SWAP3 SWAP2 SWAP1 PUSH2 0x996 JUMP JUMPDEST PUSH1 0x40 MLOAD PUSH1 0x20 DUP2 DUP4 SUB SUB DUP2 MSTORE SWAP1 PUSH1 0x40 MSTORE DUP1 MLOAD SWAP1 PUSH1 0x20 ADD KECCAK256 PUSH1 0x0 SHR SWAP1 POP SWAP1 JUMP JUMPDEST PUSH1 0x0 DUP2 SWAP1 POP SWAP2 SWAP1 POP JUMP JUMPDEST PUSH2 0x7B1 DUP2 PUSH2 0x79E JUMP JUMPDEST DUP3 MSTORE POP POP JUMP JUMPDEST PUSH1 0x0 PUSH1 0x20 DUP3 ADD SWAP1 POP PUSH2 0x7CC PUSH1 0x0 DUP4 ADD DUP5 PUSH2 0x7A8 JUMP JUMPDEST SWAP3 SWAP2 POP POP JUMP JUMPDEST PUSH1 0x0 PUSH20 0xFFFFFFFFFFFFFFFFFFFFFFFFFFFFFFFFFFFFFFFF DUP3 AND SWAP1 POP SWAP2 SWAP1 POP JUMP JUMPDEST PUSH1 0x0 PUSH2 0x7FD DUP3 PUSH2 0x7D2 JUMP JUMPDEST SWAP1 POP SWAP2 SWAP1 POP JUMP JUMPDEST PUSH2 0x80D DUP2 PUSH2 0x7F2 JUMP JUMPDEST DUP3 MSTORE POP POP JUMP JUMPDEST PUSH1 0x0 PUSH1 0x20 DUP3 ADD SWAP1 POP PUSH2 0x828 PUSH1 0x0 DUP4 ADD DUP5 PUSH2 0x804 JUMP JUMPDEST SWAP3 SWAP2 POP POP JUMP JUMPDEST PUSH1 0x0 DUP1 REVERT JUMPDEST PUSH2 0x83C DUP2 PUSH2 0x79E JUMP JUMPDEST DUP2 EQ PUSH2 0x847 JUMPI PUSH1 0x0 DUP1 REVERT JUMPDEST POP JUMP JUMPDEST PUSH1 0x0 DUP2 CALLDATALOAD SWAP1 POP PUSH2 0x859 DUP2 PUSH2 0x833 JUMP JUMPDEST SWAP3 SWAP2 POP POP JUMP JUMPDEST PUSH1 0x0 PUSH1 0x20 DUP3 DUP5 SUB SLT ISZERO PUSH2 0x875 JUMPI PUSH2 0x874 PUSH2 0x82E JUMP JUMPDEST JUMPDEST PUSH1 0x0 PUSH2 0x883 DUP5 DUP3 DUP6 ADD PUSH2 0x84A JUMP JUMPDEST SWAP2 POP POP SWAP3 SWAP2 POP POP JUMP JUMPDEST PUSH32 0x4E487B7100000000000000000000000000000000000000000000000000000000 PUSH1 0x0 MSTORE PUSH1 0x12 PUSH1 0x4 MSTORE PUSH1 0x24 PUSH1 0x0 REVERT JUMPDEST PUSH1 0x0 PUSH2 0x8C6 DUP3 PUSH2 0x79E JUMP JUMPDEST SWAP2 POP PUSH2 0x8D1 DUP4 PUSH2 0x79E JUMP JUMPDEST SWAP3 POP DUP3 PUSH2 0x8E1 JUMPI PUSH2 0x8E0 PUSH2 0x88C JUMP JUMPDEST JUMPDEST DUP3 DUP3 MOD SWAP1 POP SWAP3 SWAP2 POP POP JUMP JUMPDEST PUSH32 0x4E487B7100000000000000000000000000000000000000000000000000000000 PUSH1 0x0 MSTORE PUSH1 0x11 PUSH1 0x4 MSTORE PUSH1 0x24 PUSH1 0x0 REVERT JUMPDEST PUSH1 0x0 PUSH2 0x926 DUP3 PUSH2 0x79E JUMP JUMPDEST SWAP2 POP PUSH2 0x931 DUP4 PUSH2 0x79E JUMP JUMPDEST SWAP3 POP DUP2 PUSH32 0xFFFFFFFFFFFFFFFFFFFFFFFFFFFFFFFFFFFFFFFFFFFFFFFFFFFFFFFFFFFFFFFF DIV DUP4 GT DUP3 ISZERO ISZERO AND ISZERO PUSH2 0x96A JUMPI PUSH2 0x969 PUSH2 0x8EC JUMP JUMPDEST JUMPDEST DUP3 DUP3 MUL SWAP1 POP SWAP3 SWAP2 POP POP JUMP JUMPDEST PUSH1 0x0 DUP2 SWAP1 POP SWAP2 SWAP1 POP JUMP JUMPDEST PUSH2 0x990 PUSH2 0x98B DUP3 PUSH2 0x79E JUMP JUMPDEST PUSH2 0x975 JUMP JUMPDEST DUP3 MSTORE POP POP JUMP JUMPDEST PUSH1 0x0 PUSH2 0x9A2 DUP3 DUP7 PUSH2 0x97F JUMP JUMPDEST PUSH1 0x20 DUP3 ADD SWAP2 POP PUSH2 0x9B2 DUP3 DUP6 PUSH2 0x97F JUMP JUMPDEST PUSH1 0x20 DUP3 ADD SWAP2 POP PUSH2 0x9C2 DUP3 DUP5 PUSH2 0x97F JUMP JUMPDEST PUSH1 0x20 DUP3 ADD SWAP2 POP DUP2 SWAP1 POP SWAP5 SWAP4 POP POP POP POP JUMP INVALID LOG2 PUSH5 0x6970667358 0x22 SLT KECCAK256 0xD8 MSTORE DUP12 0xB5 0xB0 SWAP7 NOT RETURNDATASIZE 0xB4 0xB9 0xBA 0xDE DUP11 0x28 0xE7 PUSH22 0x21D6F5CFCFEF0875697C615C63928F6E64736F6C6343 STOP ADDMOD 0xF STOP CALLER "
				},
				"gasEstimates": {
					"creation": {
						"codeDepositCost": "513800",
						"executionCost": "24815",
						"totalCost": "538615"
					},
					"external": {
						"AAA_test()": "414",
						"A_oneToOne()": "infinite",
						"B_twoToOne()": "infinite",
						"C_fiveToOne()": "infinite",
						"D_eightToOne()": "infinite",
						"E_elevenToOne()": "infinite",
						"F_seventeenToOne()": "infinite",
						"G_thirtyfiveToOne()": "infinite",
						"H_deposit()": "2353",
						"I_withdraw(uint256)": "infinite",
						"J_getBalance()": "2554",
						"owner()": "2578",
						"player()": "2581"
					},
					"internal": {
						"getRandomNumber()": "infinite"
					}
				},
				"methodIdentifiers": {
					"AAA_test()": "6689c33a",
					"A_oneToOne()": "b1ad3053",
					"B_twoToOne()": "29402ecb",
					"C_fiveToOne()": "6f4c487a",
					"D_eightToOne()": "e7120fd9",
					"E_elevenToOne()": "0b634788",
					"F_seventeenToOne()": "766f8578",
					"G_thirtyfiveToOne()": "85b4ba87",
					"H_deposit()": "e8d18212",
					"I_withdraw(uint256)": "f855aa9e",
					"J_getBalance()": "374ccd33",
					"owner()": "8da5cb5b",
					"player()": "48db5f89"
				}
			},
			"storageLayout": {
				"storage": [
					{
						"astId": 3,
						"contract": "Documents/Web3/Casino/002 Roulette.sol:Roulette",
						"label": "owner",
						"offset": 0,
						"slot": "0",
						"type": "t_address_payable"
					},
					{
						"astId": 5,
						"contract": "Documents/Web3/Casino/002 Roulette.sol:Roulette",
						"label": "player",
						"offset": 0,
						"slot": "1",
						"type": "t_address_payable"
					}
				],
				"types": {
					"t_address_payable": {
						"encoding": "inplace",
						"label": "address payable",
						"numberOfBytes": "20"
					}
				}
			},
			"userdoc": {
				"kind": "user",
				"methods": {},
				"version": 1
			}
		}
	}
}