{
	"Documents/Web3/Casino/002 Roulette.sol": {
		"Roulette": {
			"abi": [
				{
					"inputs": [],
					"stateMutability": "nonpayable",
					"type": "constructor"
				},
				{
					"inputs": [],
					"name": "A_oneToOne",
					"outputs": [],
					"stateMutability": "payable",
					"type": "function"
				},
				{
					"inputs": [],
					"name": "B_twoToOne",
					"outputs": [],
					"stateMutability": "payable",
					"type": "function"
				},
				{
					"inputs": [],
					"name": "C_fiveToOne",
					"outputs": [],
					"stateMutability": "payable",
					"type": "function"
				},
				{
					"inputs": [],
					"name": "D_eightToOne",
					"outputs": [],
					"stateMutability": "payable",
					"type": "function"
				},
				{
					"inputs": [],
					"name": "E_elevenToOne",
					"outputs": [],
					"stateMutability": "payable",
					"type": "function"
				},
				{
					"inputs": [],
					"name": "F_seventeenToOne",
					"outputs": [],
					"stateMutability": "payable",
					"type": "function"
				},
				{
					"inputs": [],
					"name": "G_thirtyfiveToOne",
					"outputs": [],
					"stateMutability": "payable",
					"type": "function"
				},
				{
					"inputs": [],
					"name": "H_deposit",
					"outputs": [],
					"stateMutability": "payable",
					"type": "function"
				},
				{
					"inputs": [
						{
							"internalType": "uint256",
							"name": "amount",
							"type": "uint256"
						}
					],
					"name": "I_withdraw",
					"outputs": [],
					"stateMutability": "nonpayable",
					"type": "function"
				},
				{
					"inputs": [],
					"name": "J_getBalance",
					"outputs": [
						{
							"internalType": "uint256",
							"name": "",
							"type": "uint256"
						}
					],
					"stateMutability": "view",
					"type": "function"
				},
				{
					"inputs": [],
					"name": "owner",
					"outputs": [
						{
							"internalType": "address payable",
							"name": "",
							"type": "address"
						}
					],
					"stateMutability": "view",
					"type": "function"
				},
				{
					"inputs": [],
					"name": "player",
					"outputs": [
						{
							"internalType": "address payable",
							"name": "",
							"type": "address"
						}
					],
					"stateMutability": "view",
					"type": "function"
				}
			],
			"devdoc": {
				"kind": "dev",
				"methods": {},
				"version": 1
			},
			"evm": {
				"assembly": "    /* \"Documents/Web3/Casino/002 Roulette.sol\":547:3347  contract Roulette {... */\n  mstore(0x40, 0x80)\n    /* \"Documents/Web3/Casino/002 Roulette.sol\":674:732  constructor() {... */\n  callvalue\n  dup1\n  iszero\n  tag_1\n  jumpi\n  0x00\n  dup1\n  revert\ntag_1:\n  pop\n    /* \"Documents/Web3/Casino/002 Roulette.sol\":714:724  msg.sender */\n  caller\n    /* \"Documents/Web3/Casino/002 Roulette.sol\":698:703  owner */\n  0x00\n  dup1\n    /* \"Documents/Web3/Casino/002 Roulette.sol\":698:725  owner = payable(msg.sender) */\n  0x0100\n  exp\n  dup2\n  sload\n  dup2\n  0xffffffffffffffffffffffffffffffffffffffff\n  mul\n  not\n  and\n  swap1\n  dup4\n  0xffffffffffffffffffffffffffffffffffffffff\n  and\n  mul\n  or\n  swap1\n  sstore\n  pop\n    /* \"Documents/Web3/Casino/002 Roulette.sol\":547:3347  contract Roulette {... */\n  dataSize(sub_0)\n  dup1\n  dataOffset(sub_0)\n  0x00\n  codecopy\n  0x00\n  return\nstop\n\nsub_0: assembly {\n        /* \"Documents/Web3/Casino/002 Roulette.sol\":547:3347  contract Roulette {... */\n      mstore(0x40, 0x80)\n      jumpi(tag_1, lt(calldatasize, 0x04))\n      shr(0xe0, calldataload(0x00))\n      dup1\n      0x85b4ba87\n      gt\n      tag_14\n      jumpi\n      dup1\n      0x85b4ba87\n      eq\n      tag_8\n      jumpi\n      dup1\n      0x8da5cb5b\n      eq\n      tag_9\n      jumpi\n      dup1\n      0xb1ad3053\n      eq\n      tag_10\n      jumpi\n      dup1\n      0xe7120fd9\n      eq\n      tag_11\n      jumpi\n      dup1\n      0xe8d18212\n      eq\n      tag_12\n      jumpi\n      dup1\n      0xf855aa9e\n      eq\n      tag_13\n      jumpi\n      jump(tag_1)\n    tag_14:\n      dup1\n      0x0b634788\n      eq\n      tag_2\n      jumpi\n      dup1\n      0x29402ecb\n      eq\n      tag_3\n      jumpi\n      dup1\n      0x374ccd33\n      eq\n      tag_4\n      jumpi\n      dup1\n      0x48db5f89\n      eq\n      tag_5\n      jumpi\n      dup1\n      0x6f4c487a\n      eq\n      tag_6\n      jumpi\n      dup1\n      0x766f8578\n      eq\n      tag_7\n      jumpi\n    tag_1:\n      0x00\n      dup1\n      revert\n        /* \"Documents/Web3/Casino/002 Roulette.sol\":2293:2512  function E_elevenToOne() payable public {... */\n    tag_2:\n      tag_15\n      tag_16\n      jump\t// in\n    tag_15:\n      stop\n        /* \"Documents/Web3/Casino/002 Roulette.sol\":1626:1842  function B_twoToOne() payable public {... */\n    tag_3:\n      tag_17\n      tag_18\n      jump\t// in\n    tag_17:\n      stop\n        /* \"Documents/Web3/Casino/002 Roulette.sol\":3232:3340  function J_getBalance() public view onlyOwner() returns (uint) {... */\n    tag_4:\n      callvalue\n      dup1\n      iszero\n      tag_19\n      jumpi\n      0x00\n      dup1\n      revert\n    tag_19:\n      pop\n      tag_20\n      tag_21\n      jump\t// in\n    tag_20:\n      mload(0x40)\n      tag_22\n      swap2\n      swap1\n      tag_23\n      jump\t// in\n    tag_22:\n      mload(0x40)\n      dup1\n      swap2\n      sub\n      swap1\n      return\n        /* \"Documents/Web3/Casino/002 Roulette.sol\":606:635  address payable public player */\n    tag_5:\n      callvalue\n      dup1\n      iszero\n      tag_24\n      jumpi\n      0x00\n      dup1\n      revert\n    tag_24:\n      pop\n      tag_25\n      tag_26\n      jump\t// in\n    tag_25:\n      mload(0x40)\n      tag_27\n      swap2\n      swap1\n      tag_28\n      jump\t// in\n    tag_27:\n      mload(0x40)\n      dup1\n      swap2\n      sub\n      swap1\n      return\n        /* \"Documents/Web3/Casino/002 Roulette.sol\":1848:2064  function C_fiveToOne() payable public {... */\n    tag_6:\n      tag_29\n      tag_30\n      jump\t// in\n    tag_29:\n      stop\n        /* \"Documents/Web3/Casino/002 Roulette.sol\":2518:2740  function F_seventeenToOne() payable public {... */\n    tag_7:\n      tag_31\n      tag_32\n      jump\t// in\n    tag_31:\n      stop\n        /* \"Documents/Web3/Casino/002 Roulette.sol\":2746:2969  function G_thirtyfiveToOne() payable public {... */\n    tag_8:\n      tag_33\n      tag_34\n      jump\t// in\n    tag_33:\n      stop\n        /* \"Documents/Web3/Casino/002 Roulette.sol\":572:600  address payable public owner */\n    tag_9:\n      callvalue\n      dup1\n      iszero\n      tag_35\n      jumpi\n      0x00\n      dup1\n      revert\n    tag_35:\n      pop\n      tag_36\n      tag_37\n      jump\t// in\n    tag_36:\n      mload(0x40)\n      tag_38\n      swap2\n      swap1\n      tag_28\n      jump\t// in\n    tag_38:\n      mload(0x40)\n      dup1\n      swap2\n      sub\n      swap1\n      return\n        /* \"Documents/Web3/Casino/002 Roulette.sol\":1405:1620  function A_oneToOne() payable public setPlayer() {... */\n    tag_10:\n      tag_39\n      tag_40\n      jump\t// in\n    tag_39:\n      stop\n        /* \"Documents/Web3/Casino/002 Roulette.sol\":2070:2287  function D_eightToOne() payable public {... */\n    tag_11:\n      tag_41\n      tag_42\n      jump\t// in\n    tag_41:\n      stop\n        /* \"Documents/Web3/Casino/002 Roulette.sol\":3019:3069  function H_deposit() payable public onlyOwner() {} */\n    tag_12:\n      tag_43\n      tag_44\n      jump\t// in\n    tag_43:\n      stop\n        /* \"Documents/Web3/Casino/002 Roulette.sol\":3075:3176  function I_withdraw(uint amount) public onlyOwner() {... */\n    tag_13:\n      callvalue\n      dup1\n      iszero\n      tag_45\n      jumpi\n      0x00\n      dup1\n      revert\n    tag_45:\n      pop\n      tag_46\n      0x04\n      dup1\n      calldatasize\n      sub\n      dup2\n      add\n      swap1\n      tag_47\n      swap2\n      swap1\n      tag_48\n      jump\t// in\n    tag_47:\n      tag_49\n      jump\t// in\n    tag_46:\n      stop\n        /* \"Documents/Web3/Casino/002 Roulette.sol\":2293:2512  function E_elevenToOne() payable public {... */\n    tag_16:\n        /* \"Documents/Web3/Casino/002 Roulette.sol\":2343:2359  uint determinant */\n      0x00\n        /* \"Documents/Web3/Casino/002 Roulette.sol\":2382:2384  38 */\n      0x26\n        /* \"Documents/Web3/Casino/002 Roulette.sol\":2362:2379  getRandomNumber() */\n      tag_51\n        /* \"Documents/Web3/Casino/002 Roulette.sol\":2362:2377  getRandomNumber */\n      tag_52\n        /* \"Documents/Web3/Casino/002 Roulette.sol\":2362:2379  getRandomNumber() */\n      jump\t// in\n    tag_51:\n        /* \"Documents/Web3/Casino/002 Roulette.sol\":2362:2384  getRandomNumber() % 38 */\n      tag_53\n      swap2\n      swap1\n      tag_54\n      jump\t// in\n    tag_53:\n        /* \"Documents/Web3/Casino/002 Roulette.sol\":2343:2384  uint determinant = getRandomNumber() % 38 */\n      swap1\n      pop\n        /* \"Documents/Web3/Casino/002 Roulette.sol\":2412:2413  3 */\n      0x03\n        /* \"Documents/Web3/Casino/002 Roulette.sol\":2398:2409  determinant */\n      dup2\n        /* \"Documents/Web3/Casino/002 Roulette.sol\":2398:2413  determinant < 3 */\n      lt\n        /* \"Documents/Web3/Casino/002 Roulette.sol\":2394:2506  if (determinant < 3) {... */\n      iszero\n      tag_55\n      jumpi\n        /* \"Documents/Web3/Casino/002 Roulette.sol\":2437:2447  msg.sender */\n      caller\n        /* \"Documents/Web3/Casino/002 Roulette.sol\":2429:2457  payable(msg.sender).transfer */\n      0xffffffffffffffffffffffffffffffffffffffff\n      and\n        /* \"Documents/Web3/Casino/002 Roulette.sol\":2429:2479  payable(msg.sender).transfer(msg.value * 12 ether) */\n      0x08fc\n        /* \"Documents/Web3/Casino/002 Roulette.sol\":2470:2478  12 ether */\n      0xa688906bd8b00000\n        /* \"Documents/Web3/Casino/002 Roulette.sol\":2458:2467  msg.value */\n      callvalue\n        /* \"Documents/Web3/Casino/002 Roulette.sol\":2458:2478  msg.value * 12 ether */\n      tag_56\n      swap2\n      swap1\n      tag_57\n      jump\t// in\n    tag_56:\n        /* \"Documents/Web3/Casino/002 Roulette.sol\":2429:2479  payable(msg.sender).transfer(msg.value * 12 ether) */\n      swap1\n      dup2\n      iszero\n      mul\n      swap1\n      mload(0x40)\n      0x00\n      mload(0x40)\n      dup1\n      dup4\n      sub\n      dup2\n      dup6\n      dup9\n      dup9\n      call\n      swap4\n      pop\n      pop\n      pop\n      pop\n      iszero\n      dup1\n      iszero\n      tag_59\n      jumpi\n      returndatasize\n      0x00\n      dup1\n      returndatacopy\n      revert(0x00, returndatasize)\n    tag_59:\n      pop\n        /* \"Documents/Web3/Casino/002 Roulette.sol\":2394:2506  if (determinant < 3) {... */\n      jump(tag_60)\n    tag_55:\n    tag_60:\n        /* \"Documents/Web3/Casino/002 Roulette.sol\":2333:2512  {... */\n      pop\n        /* \"Documents/Web3/Casino/002 Roulette.sol\":2293:2512  function E_elevenToOne() payable public {... */\n      jump\t// out\n        /* \"Documents/Web3/Casino/002 Roulette.sol\":1626:1842  function B_twoToOne() payable public {... */\n    tag_18:\n        /* \"Documents/Web3/Casino/002 Roulette.sol\":1673:1689  uint determinant */\n      0x00\n        /* \"Documents/Web3/Casino/002 Roulette.sol\":1712:1714  38 */\n      0x26\n        /* \"Documents/Web3/Casino/002 Roulette.sol\":1692:1709  getRandomNumber() */\n      tag_62\n        /* \"Documents/Web3/Casino/002 Roulette.sol\":1692:1707  getRandomNumber */\n      tag_52\n        /* \"Documents/Web3/Casino/002 Roulette.sol\":1692:1709  getRandomNumber() */\n      jump\t// in\n    tag_62:\n        /* \"Documents/Web3/Casino/002 Roulette.sol\":1692:1714  getRandomNumber() % 38 */\n      tag_63\n      swap2\n      swap1\n      tag_54\n      jump\t// in\n    tag_63:\n        /* \"Documents/Web3/Casino/002 Roulette.sol\":1673:1714  uint determinant = getRandomNumber() % 38 */\n      swap1\n      pop\n        /* \"Documents/Web3/Casino/002 Roulette.sol\":1742:1744  12 */\n      0x0c\n        /* \"Documents/Web3/Casino/002 Roulette.sol\":1728:1739  determinant */\n      dup2\n        /* \"Documents/Web3/Casino/002 Roulette.sol\":1728:1744  determinant < 12 */\n      lt\n        /* \"Documents/Web3/Casino/002 Roulette.sol\":1724:1836  if (determinant < 12) {... */\n      iszero\n      tag_64\n      jumpi\n        /* \"Documents/Web3/Casino/002 Roulette.sol\":1768:1778  msg.sender */\n      caller\n        /* \"Documents/Web3/Casino/002 Roulette.sol\":1760:1788  payable(msg.sender).transfer */\n      0xffffffffffffffffffffffffffffffffffffffff\n      and\n        /* \"Documents/Web3/Casino/002 Roulette.sol\":1760:1809  payable(msg.sender).transfer(msg.value * 3 ether) */\n      0x08fc\n        /* \"Documents/Web3/Casino/002 Roulette.sol\":1801:1808  3 ether */\n      0x29a2241af62c0000\n        /* \"Documents/Web3/Casino/002 Roulette.sol\":1789:1798  msg.value */\n      callvalue\n        /* \"Documents/Web3/Casino/002 Roulette.sol\":1789:1808  msg.value * 3 ether */\n      tag_65\n      swap2\n      swap1\n      tag_57\n      jump\t// in\n    tag_65:\n        /* \"Documents/Web3/Casino/002 Roulette.sol\":1760:1809  payable(msg.sender).transfer(msg.value * 3 ether) */\n      swap1\n      dup2\n      iszero\n      mul\n      swap1\n      mload(0x40)\n      0x00\n      mload(0x40)\n      dup1\n      dup4\n      sub\n      dup2\n      dup6\n      dup9\n      dup9\n      call\n      swap4\n      pop\n      pop\n      pop\n      pop\n      iszero\n      dup1\n      iszero\n      tag_67\n      jumpi\n      returndatasize\n      0x00\n      dup1\n      returndatacopy\n      revert(0x00, returndatasize)\n    tag_67:\n      pop\n        /* \"Documents/Web3/Casino/002 Roulette.sol\":1724:1836  if (determinant < 12) {... */\n      jump(tag_68)\n    tag_64:\n    tag_68:\n        /* \"Documents/Web3/Casino/002 Roulette.sol\":1663:1842  {... */\n      pop\n        /* \"Documents/Web3/Casino/002 Roulette.sol\":1626:1842  function B_twoToOne() payable public {... */\n      jump\t// out\n        /* \"Documents/Web3/Casino/002 Roulette.sol\":3232:3340  function J_getBalance() public view onlyOwner() returns (uint) {... */\n    tag_21:\n        /* \"Documents/Web3/Casino/002 Roulette.sol\":3289:3293  uint */\n      0x00\n        /* \"Documents/Web3/Casino/002 Roulette.sol\":828:833  owner */\n      dup1\n      0x00\n      swap1\n      sload\n      swap1\n      0x0100\n      exp\n      swap1\n      div\n      0xffffffffffffffffffffffffffffffffffffffff\n      and\n        /* \"Documents/Web3/Casino/002 Roulette.sol\":814:833  msg.sender == owner */\n      0xffffffffffffffffffffffffffffffffffffffff\n      and\n        /* \"Documents/Web3/Casino/002 Roulette.sol\":814:824  msg.sender */\n      caller\n        /* \"Documents/Web3/Casino/002 Roulette.sol\":814:833  msg.sender == owner */\n      0xffffffffffffffffffffffffffffffffffffffff\n      and\n      eq\n        /* \"Documents/Web3/Casino/002 Roulette.sol\":806:834  require(msg.sender == owner) */\n      tag_70\n      jumpi\n      0x00\n      dup1\n      revert\n    tag_70:\n        /* \"Documents/Web3/Casino/002 Roulette.sol\":3312:3333  address(this).balance */\n      selfbalance\n        /* \"Documents/Web3/Casino/002 Roulette.sol\":3305:3333  return address(this).balance */\n      swap1\n      pop\n        /* \"Documents/Web3/Casino/002 Roulette.sol\":3232:3340  function J_getBalance() public view onlyOwner() returns (uint) {... */\n      swap1\n      jump\t// out\n        /* \"Documents/Web3/Casino/002 Roulette.sol\":606:635  address payable public player */\n    tag_26:\n      0x01\n      0x00\n      swap1\n      sload\n      swap1\n      0x0100\n      exp\n      swap1\n      div\n      0xffffffffffffffffffffffffffffffffffffffff\n      and\n      dup2\n      jump\t// out\n        /* \"Documents/Web3/Casino/002 Roulette.sol\":1848:2064  function C_fiveToOne() payable public {... */\n    tag_30:\n        /* \"Documents/Web3/Casino/002 Roulette.sol\":1896:1912  uint determinant */\n      0x00\n        /* \"Documents/Web3/Casino/002 Roulette.sol\":1935:1937  38 */\n      0x26\n        /* \"Documents/Web3/Casino/002 Roulette.sol\":1915:1932  getRandomNumber() */\n      tag_73\n        /* \"Documents/Web3/Casino/002 Roulette.sol\":1915:1930  getRandomNumber */\n      tag_52\n        /* \"Documents/Web3/Casino/002 Roulette.sol\":1915:1932  getRandomNumber() */\n      jump\t// in\n    tag_73:\n        /* \"Documents/Web3/Casino/002 Roulette.sol\":1915:1937  getRandomNumber() % 38 */\n      tag_74\n      swap2\n      swap1\n      tag_54\n      jump\t// in\n    tag_74:\n        /* \"Documents/Web3/Casino/002 Roulette.sol\":1896:1937  uint determinant = getRandomNumber() % 38 */\n      swap1\n      pop\n        /* \"Documents/Web3/Casino/002 Roulette.sol\":1965:1966  6 */\n      0x06\n        /* \"Documents/Web3/Casino/002 Roulette.sol\":1951:1962  determinant */\n      dup2\n        /* \"Documents/Web3/Casino/002 Roulette.sol\":1951:1966  determinant < 6 */\n      lt\n        /* \"Documents/Web3/Casino/002 Roulette.sol\":1947:2058  if (determinant < 6) {... */\n      iszero\n      tag_75\n      jumpi\n        /* \"Documents/Web3/Casino/002 Roulette.sol\":1990:2000  msg.sender */\n      caller\n        /* \"Documents/Web3/Casino/002 Roulette.sol\":1982:2010  payable(msg.sender).transfer */\n      0xffffffffffffffffffffffffffffffffffffffff\n      and\n        /* \"Documents/Web3/Casino/002 Roulette.sol\":1982:2031  payable(msg.sender).transfer(msg.value * 6 ether) */\n      0x08fc\n        /* \"Documents/Web3/Casino/002 Roulette.sol\":2023:2030  6 ether */\n      0x53444835ec580000\n        /* \"Documents/Web3/Casino/002 Roulette.sol\":2011:2020  msg.value */\n      callvalue\n        /* \"Documents/Web3/Casino/002 Roulette.sol\":2011:2030  msg.value * 6 ether */\n      tag_76\n      swap2\n      swap1\n      tag_57\n      jump\t// in\n    tag_76:\n        /* \"Documents/Web3/Casino/002 Roulette.sol\":1982:2031  payable(msg.sender).transfer(msg.value * 6 ether) */\n      swap1\n      dup2\n      iszero\n      mul\n      swap1\n      mload(0x40)\n      0x00\n      mload(0x40)\n      dup1\n      dup4\n      sub\n      dup2\n      dup6\n      dup9\n      dup9\n      call\n      swap4\n      pop\n      pop\n      pop\n      pop\n      iszero\n      dup1\n      iszero\n      tag_78\n      jumpi\n      returndatasize\n      0x00\n      dup1\n      returndatacopy\n      revert(0x00, returndatasize)\n    tag_78:\n      pop\n        /* \"Documents/Web3/Casino/002 Roulette.sol\":1947:2058  if (determinant < 6) {... */\n      jump(tag_79)\n    tag_75:\n    tag_79:\n        /* \"Documents/Web3/Casino/002 Roulette.sol\":1886:2064  {... */\n      pop\n        /* \"Documents/Web3/Casino/002 Roulette.sol\":1848:2064  function C_fiveToOne() payable public {... */\n      jump\t// out\n        /* \"Documents/Web3/Casino/002 Roulette.sol\":2518:2740  function F_seventeenToOne() payable public {... */\n    tag_32:\n        /* \"Documents/Web3/Casino/002 Roulette.sol\":2571:2587  uint determinant */\n      0x00\n        /* \"Documents/Web3/Casino/002 Roulette.sol\":2610:2612  38 */\n      0x26\n        /* \"Documents/Web3/Casino/002 Roulette.sol\":2590:2607  getRandomNumber() */\n      tag_81\n        /* \"Documents/Web3/Casino/002 Roulette.sol\":2590:2605  getRandomNumber */\n      tag_52\n        /* \"Documents/Web3/Casino/002 Roulette.sol\":2590:2607  getRandomNumber() */\n      jump\t// in\n    tag_81:\n        /* \"Documents/Web3/Casino/002 Roulette.sol\":2590:2612  getRandomNumber() % 38 */\n      tag_82\n      swap2\n      swap1\n      tag_54\n      jump\t// in\n    tag_82:\n        /* \"Documents/Web3/Casino/002 Roulette.sol\":2571:2612  uint determinant = getRandomNumber() % 38 */\n      swap1\n      pop\n        /* \"Documents/Web3/Casino/002 Roulette.sol\":2640:2641  2 */\n      0x02\n        /* \"Documents/Web3/Casino/002 Roulette.sol\":2626:2637  determinant */\n      dup2\n        /* \"Documents/Web3/Casino/002 Roulette.sol\":2626:2641  determinant < 2 */\n      lt\n        /* \"Documents/Web3/Casino/002 Roulette.sol\":2622:2734  if (determinant < 2) {... */\n      iszero\n      tag_83\n      jumpi\n        /* \"Documents/Web3/Casino/002 Roulette.sol\":2665:2675  msg.sender */\n      caller\n        /* \"Documents/Web3/Casino/002 Roulette.sol\":2657:2685  payable(msg.sender).transfer */\n      0xffffffffffffffffffffffffffffffffffffffff\n      and\n        /* \"Documents/Web3/Casino/002 Roulette.sol\":2657:2707  payable(msg.sender).transfer(msg.value * 18 ether) */\n      0x08fc\n        /* \"Documents/Web3/Casino/002 Roulette.sol\":2698:2706  18 ether */\n      0xf9ccd8a1c5080000\n        /* \"Documents/Web3/Casino/002 Roulette.sol\":2686:2695  msg.value */\n      callvalue\n        /* \"Documents/Web3/Casino/002 Roulette.sol\":2686:2706  msg.value * 18 ether */\n      tag_84\n      swap2\n      swap1\n      tag_57\n      jump\t// in\n    tag_84:\n        /* \"Documents/Web3/Casino/002 Roulette.sol\":2657:2707  payable(msg.sender).transfer(msg.value * 18 ether) */\n      swap1\n      dup2\n      iszero\n      mul\n      swap1\n      mload(0x40)\n      0x00\n      mload(0x40)\n      dup1\n      dup4\n      sub\n      dup2\n      dup6\n      dup9\n      dup9\n      call\n      swap4\n      pop\n      pop\n      pop\n      pop\n      iszero\n      dup1\n      iszero\n      tag_86\n      jumpi\n      returndatasize\n      0x00\n      dup1\n      returndatacopy\n      revert(0x00, returndatasize)\n    tag_86:\n      pop\n        /* \"Documents/Web3/Casino/002 Roulette.sol\":2622:2734  if (determinant < 2) {... */\n      jump(tag_87)\n    tag_83:\n    tag_87:\n        /* \"Documents/Web3/Casino/002 Roulette.sol\":2561:2740  {... */\n      pop\n        /* \"Documents/Web3/Casino/002 Roulette.sol\":2518:2740  function F_seventeenToOne() payable public {... */\n      jump\t// out\n        /* \"Documents/Web3/Casino/002 Roulette.sol\":2746:2969  function G_thirtyfiveToOne() payable public {... */\n    tag_34:\n        /* \"Documents/Web3/Casino/002 Roulette.sol\":2800:2816  uint determinant */\n      0x00\n        /* \"Documents/Web3/Casino/002 Roulette.sol\":2839:2841  38 */\n      0x26\n        /* \"Documents/Web3/Casino/002 Roulette.sol\":2819:2836  getRandomNumber() */\n      tag_89\n        /* \"Documents/Web3/Casino/002 Roulette.sol\":2819:2834  getRandomNumber */\n      tag_52\n        /* \"Documents/Web3/Casino/002 Roulette.sol\":2819:2836  getRandomNumber() */\n      jump\t// in\n    tag_89:\n        /* \"Documents/Web3/Casino/002 Roulette.sol\":2819:2841  getRandomNumber() % 38 */\n      tag_90\n      swap2\n      swap1\n      tag_54\n      jump\t// in\n    tag_90:\n        /* \"Documents/Web3/Casino/002 Roulette.sol\":2800:2841  uint determinant = getRandomNumber() % 38 */\n      swap1\n      pop\n        /* \"Documents/Web3/Casino/002 Roulette.sol\":2869:2870  1 */\n      0x01\n        /* \"Documents/Web3/Casino/002 Roulette.sol\":2855:2866  determinant */\n      dup2\n        /* \"Documents/Web3/Casino/002 Roulette.sol\":2855:2870  determinant < 1 */\n      lt\n        /* \"Documents/Web3/Casino/002 Roulette.sol\":2851:2963  if (determinant < 1) {... */\n      iszero\n      tag_91\n      jumpi\n        /* \"Documents/Web3/Casino/002 Roulette.sol\":2894:2904  msg.sender */\n      caller\n        /* \"Documents/Web3/Casino/002 Roulette.sol\":2886:2914  payable(msg.sender).transfer */\n      0xffffffffffffffffffffffffffffffffffffffff\n      and\n        /* \"Documents/Web3/Casino/002 Roulette.sol\":2886:2936  payable(msg.sender).transfer(msg.value * 36 ether) */\n      0x08fc\n        /* \"Documents/Web3/Casino/002 Roulette.sol\":2927:2935  36 ether */\n      0x01f399b1438a100000\n        /* \"Documents/Web3/Casino/002 Roulette.sol\":2915:2924  msg.value */\n      callvalue\n        /* \"Documents/Web3/Casino/002 Roulette.sol\":2915:2935  msg.value * 36 ether */\n      tag_92\n      swap2\n      swap1\n      tag_57\n      jump\t// in\n    tag_92:\n        /* \"Documents/Web3/Casino/002 Roulette.sol\":2886:2936  payable(msg.sender).transfer(msg.value * 36 ether) */\n      swap1\n      dup2\n      iszero\n      mul\n      swap1\n      mload(0x40)\n      0x00\n      mload(0x40)\n      dup1\n      dup4\n      sub\n      dup2\n      dup6\n      dup9\n      dup9\n      call\n      swap4\n      pop\n      pop\n      pop\n      pop\n      iszero\n      dup1\n      iszero\n      tag_94\n      jumpi\n      returndatasize\n      0x00\n      dup1\n      returndatacopy\n      revert(0x00, returndatasize)\n    tag_94:\n      pop\n        /* \"Documents/Web3/Casino/002 Roulette.sol\":2851:2963  if (determinant < 1) {... */\n      jump(tag_95)\n    tag_91:\n    tag_95:\n        /* \"Documents/Web3/Casino/002 Roulette.sol\":2790:2969  {... */\n      pop\n        /* \"Documents/Web3/Casino/002 Roulette.sol\":2746:2969  function G_thirtyfiveToOne() payable public {... */\n      jump\t// out\n        /* \"Documents/Web3/Casino/002 Roulette.sol\":572:600  address payable public owner */\n    tag_37:\n      0x00\n      dup1\n      sload\n      swap1\n      0x0100\n      exp\n      swap1\n      div\n      0xffffffffffffffffffffffffffffffffffffffff\n      and\n      dup2\n      jump\t// out\n        /* \"Documents/Web3/Casino/002 Roulette.sol\":1405:1620  function A_oneToOne() payable public setPlayer() {... */\n    tag_40:\n        /* \"Documents/Web3/Casino/002 Roulette.sol\":906:916  msg.sender */\n      caller\n        /* \"Documents/Web3/Casino/002 Roulette.sol\":889:895  player */\n      0x01\n      0x00\n        /* \"Documents/Web3/Casino/002 Roulette.sol\":889:917  player = payable(msg.sender) */\n      0x0100\n      exp\n      dup2\n      sload\n      dup2\n      0xffffffffffffffffffffffffffffffffffffffff\n      mul\n      not\n      and\n      swap1\n      dup4\n      0xffffffffffffffffffffffffffffffffffffffff\n      and\n      mul\n      or\n      swap1\n      sstore\n      pop\n        /* \"Documents/Web3/Casino/002 Roulette.sol\":1464:1480  uint determinant */\n      0x00\n        /* \"Documents/Web3/Casino/002 Roulette.sol\":1503:1505  38 */\n      0x26\n        /* \"Documents/Web3/Casino/002 Roulette.sol\":1483:1500  getRandomNumber() */\n      tag_98\n        /* \"Documents/Web3/Casino/002 Roulette.sol\":1483:1498  getRandomNumber */\n      tag_52\n        /* \"Documents/Web3/Casino/002 Roulette.sol\":1483:1500  getRandomNumber() */\n      jump\t// in\n    tag_98:\n        /* \"Documents/Web3/Casino/002 Roulette.sol\":1483:1505  getRandomNumber() % 38 */\n      tag_99\n      swap2\n      swap1\n      tag_54\n      jump\t// in\n    tag_99:\n        /* \"Documents/Web3/Casino/002 Roulette.sol\":1464:1505  uint determinant = getRandomNumber() % 38 */\n      swap1\n      pop\n        /* \"Documents/Web3/Casino/002 Roulette.sol\":1533:1535  18 */\n      0x12\n        /* \"Documents/Web3/Casino/002 Roulette.sol\":1519:1530  determinant */\n      dup2\n        /* \"Documents/Web3/Casino/002 Roulette.sol\":1519:1535  determinant < 18 */\n      lt\n        /* \"Documents/Web3/Casino/002 Roulette.sol\":1515:1614  if (determinant < 18) {... */\n      iszero\n      tag_100\n      jumpi\n        /* \"Documents/Web3/Casino/002 Roulette.sol\":1551:1557  player */\n      0x01\n      0x00\n      swap1\n      sload\n      swap1\n      0x0100\n      exp\n      swap1\n      div\n      0xffffffffffffffffffffffffffffffffffffffff\n      and\n        /* \"Documents/Web3/Casino/002 Roulette.sol\":1551:1566  player.transfer */\n      0xffffffffffffffffffffffffffffffffffffffff\n      and\n        /* \"Documents/Web3/Casino/002 Roulette.sol\":1551:1587  player.transfer(msg.value * 2 ether) */\n      0x08fc\n        /* \"Documents/Web3/Casino/002 Roulette.sol\":1579:1586  2 ether */\n      0x1bc16d674ec80000\n        /* \"Documents/Web3/Casino/002 Roulette.sol\":1567:1576  msg.value */\n      callvalue\n        /* \"Documents/Web3/Casino/002 Roulette.sol\":1567:1586  msg.value * 2 ether */\n      tag_101\n      swap2\n      swap1\n      tag_57\n      jump\t// in\n    tag_101:\n        /* \"Documents/Web3/Casino/002 Roulette.sol\":1551:1587  player.transfer(msg.value * 2 ether) */\n      swap1\n      dup2\n      iszero\n      mul\n      swap1\n      mload(0x40)\n      0x00\n      mload(0x40)\n      dup1\n      dup4\n      sub\n      dup2\n      dup6\n      dup9\n      dup9\n      call\n      swap4\n      pop\n      pop\n      pop\n      pop\n      iszero\n      dup1\n      iszero\n      tag_103\n      jumpi\n      returndatasize\n      0x00\n      dup1\n      returndatacopy\n      revert(0x00, returndatasize)\n    tag_103:\n      pop\n        /* \"Documents/Web3/Casino/002 Roulette.sol\":1515:1614  if (determinant < 18) {... */\n      jump(tag_104)\n    tag_100:\n    tag_104:\n        /* \"Documents/Web3/Casino/002 Roulette.sol\":1454:1620  {... */\n      pop\n        /* \"Documents/Web3/Casino/002 Roulette.sol\":1405:1620  function A_oneToOne() payable public setPlayer() {... */\n      jump\t// out\n        /* \"Documents/Web3/Casino/002 Roulette.sol\":2070:2287  function D_eightToOne() payable public {... */\n    tag_42:\n        /* \"Documents/Web3/Casino/002 Roulette.sol\":2119:2135  uint determinant */\n      0x00\n        /* \"Documents/Web3/Casino/002 Roulette.sol\":2158:2160  38 */\n      0x26\n        /* \"Documents/Web3/Casino/002 Roulette.sol\":2138:2155  getRandomNumber() */\n      tag_106\n        /* \"Documents/Web3/Casino/002 Roulette.sol\":2138:2153  getRandomNumber */\n      tag_52\n        /* \"Documents/Web3/Casino/002 Roulette.sol\":2138:2155  getRandomNumber() */\n      jump\t// in\n    tag_106:\n        /* \"Documents/Web3/Casino/002 Roulette.sol\":2138:2160  getRandomNumber() % 38 */\n      tag_107\n      swap2\n      swap1\n      tag_54\n      jump\t// in\n    tag_107:\n        /* \"Documents/Web3/Casino/002 Roulette.sol\":2119:2160  uint determinant = getRandomNumber() % 38 */\n      swap1\n      pop\n        /* \"Documents/Web3/Casino/002 Roulette.sol\":2188:2189  4 */\n      0x04\n        /* \"Documents/Web3/Casino/002 Roulette.sol\":2174:2185  determinant */\n      dup2\n        /* \"Documents/Web3/Casino/002 Roulette.sol\":2174:2189  determinant < 4 */\n      lt\n        /* \"Documents/Web3/Casino/002 Roulette.sol\":2170:2281  if (determinant < 4) {... */\n      iszero\n      tag_108\n      jumpi\n        /* \"Documents/Web3/Casino/002 Roulette.sol\":2213:2223  msg.sender */\n      caller\n        /* \"Documents/Web3/Casino/002 Roulette.sol\":2205:2233  payable(msg.sender).transfer */\n      0xffffffffffffffffffffffffffffffffffffffff\n      and\n        /* \"Documents/Web3/Casino/002 Roulette.sol\":2205:2254  payable(msg.sender).transfer(msg.value * 9 ether) */\n      0x08fc\n        /* \"Documents/Web3/Casino/002 Roulette.sol\":2246:2253  9 ether */\n      0x7ce66c50e2840000\n        /* \"Documents/Web3/Casino/002 Roulette.sol\":2234:2243  msg.value */\n      callvalue\n        /* \"Documents/Web3/Casino/002 Roulette.sol\":2234:2253  msg.value * 9 ether */\n      tag_109\n      swap2\n      swap1\n      tag_57\n      jump\t// in\n    tag_109:\n        /* \"Documents/Web3/Casino/002 Roulette.sol\":2205:2254  payable(msg.sender).transfer(msg.value * 9 ether) */\n      swap1\n      dup2\n      iszero\n      mul\n      swap1\n      mload(0x40)\n      0x00\n      mload(0x40)\n      dup1\n      dup4\n      sub\n      dup2\n      dup6\n      dup9\n      dup9\n      call\n      swap4\n      pop\n      pop\n      pop\n      pop\n      iszero\n      dup1\n      iszero\n      tag_111\n      jumpi\n      returndatasize\n      0x00\n      dup1\n      returndatacopy\n      revert(0x00, returndatasize)\n    tag_111:\n      pop\n        /* \"Documents/Web3/Casino/002 Roulette.sol\":2170:2281  if (determinant < 4) {... */\n      jump(tag_112)\n    tag_108:\n    tag_112:\n        /* \"Documents/Web3/Casino/002 Roulette.sol\":2109:2287  {... */\n      pop\n        /* \"Documents/Web3/Casino/002 Roulette.sol\":2070:2287  function D_eightToOne() payable public {... */\n      jump\t// out\n        /* \"Documents/Web3/Casino/002 Roulette.sol\":3019:3069  function H_deposit() payable public onlyOwner() {} */\n    tag_44:\n        /* \"Documents/Web3/Casino/002 Roulette.sol\":828:833  owner */\n      0x00\n      dup1\n      sload\n      swap1\n      0x0100\n      exp\n      swap1\n      div\n      0xffffffffffffffffffffffffffffffffffffffff\n      and\n        /* \"Documents/Web3/Casino/002 Roulette.sol\":814:833  msg.sender == owner */\n      0xffffffffffffffffffffffffffffffffffffffff\n      and\n        /* \"Documents/Web3/Casino/002 Roulette.sol\":814:824  msg.sender */\n      caller\n        /* \"Documents/Web3/Casino/002 Roulette.sol\":814:833  msg.sender == owner */\n      0xffffffffffffffffffffffffffffffffffffffff\n      and\n      eq\n        /* \"Documents/Web3/Casino/002 Roulette.sol\":806:834  require(msg.sender == owner) */\n      tag_114\n      jumpi\n      0x00\n      dup1\n      revert\n    tag_114:\n        /* \"Documents/Web3/Casino/002 Roulette.sol\":3019:3069  function H_deposit() payable public onlyOwner() {} */\n      jump\t// out\n        /* \"Documents/Web3/Casino/002 Roulette.sol\":3075:3176  function I_withdraw(uint amount) public onlyOwner() {... */\n    tag_49:\n        /* \"Documents/Web3/Casino/002 Roulette.sol\":828:833  owner */\n      0x00\n      dup1\n      sload\n      swap1\n      0x0100\n      exp\n      swap1\n      div\n      0xffffffffffffffffffffffffffffffffffffffff\n      and\n        /* \"Documents/Web3/Casino/002 Roulette.sol\":814:833  msg.sender == owner */\n      0xffffffffffffffffffffffffffffffffffffffff\n      and\n        /* \"Documents/Web3/Casino/002 Roulette.sol\":814:824  msg.sender */\n      caller\n        /* \"Documents/Web3/Casino/002 Roulette.sol\":814:833  msg.sender == owner */\n      0xffffffffffffffffffffffffffffffffffffffff\n      and\n      eq\n        /* \"Documents/Web3/Casino/002 Roulette.sol\":806:834  require(msg.sender == owner) */\n      tag_117\n      jumpi\n      0x00\n      dup1\n      revert\n    tag_117:\n        /* \"Documents/Web3/Casino/002 Roulette.sol\":3137:3142  owner */\n      0x00\n      dup1\n      sload\n      swap1\n      0x0100\n      exp\n      swap1\n      div\n      0xffffffffffffffffffffffffffffffffffffffff\n      and\n        /* \"Documents/Web3/Casino/002 Roulette.sol\":3137:3151  owner.transfer */\n      0xffffffffffffffffffffffffffffffffffffffff\n      and\n        /* \"Documents/Web3/Casino/002 Roulette.sol\":3137:3169  owner.transfer(amount * 1 ether) */\n      0x08fc\n        /* \"Documents/Web3/Casino/002 Roulette.sol\":3161:3168  1 ether */\n      0x0de0b6b3a7640000\n        /* \"Documents/Web3/Casino/002 Roulette.sol\":3152:3158  amount */\n      dup4\n        /* \"Documents/Web3/Casino/002 Roulette.sol\":3152:3168  amount * 1 ether */\n      tag_119\n      swap2\n      swap1\n      tag_57\n      jump\t// in\n    tag_119:\n        /* \"Documents/Web3/Casino/002 Roulette.sol\":3137:3169  owner.transfer(amount * 1 ether) */\n      swap1\n      dup2\n      iszero\n      mul\n      swap1\n      mload(0x40)\n      0x00\n      mload(0x40)\n      dup1\n      dup4\n      sub\n      dup2\n      dup6\n      dup9\n      dup9\n      call\n      swap4\n      pop\n      pop\n      pop\n      pop\n      iszero\n      dup1\n      iszero\n      tag_121\n      jumpi\n      returndatasize\n      0x00\n      dup1\n      returndatacopy\n      revert(0x00, returndatasize)\n    tag_121:\n      pop\n        /* \"Documents/Web3/Casino/002 Roulette.sol\":3075:3176  function I_withdraw(uint amount) public onlyOwner() {... */\n      pop\n      jump\t// out\n        /* \"Documents/Web3/Casino/002 Roulette.sol\":1024:1194  function getRandomNumber() private view returns (uint) {... */\n    tag_52:\n        /* \"Documents/Web3/Casino/002 Roulette.sol\":1073:1077  uint */\n      0x00\n        /* \"Documents/Web3/Casino/002 Roulette.sol\":1128:1149  address(this).balance */\n      selfbalance\n        /* \"Documents/Web3/Casino/002 Roulette.sol\":1151:1166  block.timestamp */\n      timestamp\n        /* \"Documents/Web3/Casino/002 Roulette.sol\":1168:1184  block.difficulty */\n      difficulty\n        /* \"Documents/Web3/Casino/002 Roulette.sol\":1111:1185  abi.encodePacked(address(this).balance, block.timestamp, block.difficulty) */\n      add(0x20, mload(0x40))\n      tag_123\n      swap4\n      swap3\n      swap2\n      swap1\n      tag_124\n      jump\t// in\n    tag_123:\n      mload(0x40)\n      0x20\n      dup2\n      dup4\n      sub\n      sub\n      dup2\n      mstore\n      swap1\n      0x40\n      mstore\n        /* \"Documents/Web3/Casino/002 Roulette.sol\":1101:1186  keccak256(abi.encodePacked(address(this).balance, block.timestamp, block.difficulty)) */\n      dup1\n      mload\n      swap1\n      0x20\n      add\n      keccak256\n        /* \"Documents/Web3/Casino/002 Roulette.sol\":1096:1187  uint(keccak256(abi.encodePacked(address(this).balance, block.timestamp, block.difficulty))) */\n      0x00\n      shr\n        /* \"Documents/Web3/Casino/002 Roulette.sol\":1089:1187  return uint(keccak256(abi.encodePacked(address(this).balance, block.timestamp, block.difficulty))) */\n      swap1\n      pop\n        /* \"Documents/Web3/Casino/002 Roulette.sol\":1024:1194  function getRandomNumber() private view returns (uint) {... */\n      swap1\n      jump\t// out\n        /* \"#utility.yul\":7:84   */\n    tag_125:\n        /* \"#utility.yul\":44:51   */\n      0x00\n        /* \"#utility.yul\":73:78   */\n      dup2\n        /* \"#utility.yul\":62:78   */\n      swap1\n      pop\n        /* \"#utility.yul\":7:84   */\n      swap2\n      swap1\n      pop\n      jump\t// out\n        /* \"#utility.yul\":90:208   */\n    tag_126:\n        /* \"#utility.yul\":177:201   */\n      tag_142\n        /* \"#utility.yul\":195:200   */\n      dup2\n        /* \"#utility.yul\":177:201   */\n      tag_125\n      jump\t// in\n    tag_142:\n        /* \"#utility.yul\":172:175   */\n      dup3\n        /* \"#utility.yul\":165:202   */\n      mstore\n        /* \"#utility.yul\":90:208   */\n      pop\n      pop\n      jump\t// out\n        /* \"#utility.yul\":214:436   */\n    tag_23:\n        /* \"#utility.yul\":307:311   */\n      0x00\n        /* \"#utility.yul\":345:347   */\n      0x20\n        /* \"#utility.yul\":334:343   */\n      dup3\n        /* \"#utility.yul\":330:348   */\n      add\n        /* \"#utility.yul\":322:348   */\n      swap1\n      pop\n        /* \"#utility.yul\":358:429   */\n      tag_144\n        /* \"#utility.yul\":426:427   */\n      0x00\n        /* \"#utility.yul\":415:424   */\n      dup4\n        /* \"#utility.yul\":411:428   */\n      add\n        /* \"#utility.yul\":402:408   */\n      dup5\n        /* \"#utility.yul\":358:429   */\n      tag_126\n      jump\t// in\n    tag_144:\n        /* \"#utility.yul\":214:436   */\n      swap3\n      swap2\n      pop\n      pop\n      jump\t// out\n        /* \"#utility.yul\":442:568   */\n    tag_127:\n        /* \"#utility.yul\":479:486   */\n      0x00\n        /* \"#utility.yul\":519:561   */\n      0xffffffffffffffffffffffffffffffffffffffff\n        /* \"#utility.yul\":512:517   */\n      dup3\n        /* \"#utility.yul\":508:562   */\n      and\n        /* \"#utility.yul\":497:562   */\n      swap1\n      pop\n        /* \"#utility.yul\":442:568   */\n      swap2\n      swap1\n      pop\n      jump\t// out\n        /* \"#utility.yul\":574:678   */\n    tag_128:\n        /* \"#utility.yul\":619:626   */\n      0x00\n        /* \"#utility.yul\":648:672   */\n      tag_147\n        /* \"#utility.yul\":666:671   */\n      dup3\n        /* \"#utility.yul\":648:672   */\n      tag_127\n      jump\t// in\n    tag_147:\n        /* \"#utility.yul\":637:672   */\n      swap1\n      pop\n        /* \"#utility.yul\":574:678   */\n      swap2\n      swap1\n      pop\n      jump\t// out\n        /* \"#utility.yul\":684:826   */\n    tag_129:\n        /* \"#utility.yul\":787:819   */\n      tag_149\n        /* \"#utility.yul\":813:818   */\n      dup2\n        /* \"#utility.yul\":787:819   */\n      tag_128\n      jump\t// in\n    tag_149:\n        /* \"#utility.yul\":782:785   */\n      dup3\n        /* \"#utility.yul\":775:820   */\n      mstore\n        /* \"#utility.yul\":684:826   */\n      pop\n      pop\n      jump\t// out\n        /* \"#utility.yul\":832:1086   */\n    tag_28:\n        /* \"#utility.yul\":941:945   */\n      0x00\n        /* \"#utility.yul\":979:981   */\n      0x20\n        /* \"#utility.yul\":968:977   */\n      dup3\n        /* \"#utility.yul\":964:982   */\n      add\n        /* \"#utility.yul\":956:982   */\n      swap1\n      pop\n        /* \"#utility.yul\":992:1079   */\n      tag_151\n        /* \"#utility.yul\":1076:1077   */\n      0x00\n        /* \"#utility.yul\":1065:1074   */\n      dup4\n        /* \"#utility.yul\":1061:1078   */\n      add\n        /* \"#utility.yul\":1052:1058   */\n      dup5\n        /* \"#utility.yul\":992:1079   */\n      tag_129\n      jump\t// in\n    tag_151:\n        /* \"#utility.yul\":832:1086   */\n      swap3\n      swap2\n      pop\n      pop\n      jump\t// out\n        /* \"#utility.yul\":1173:1290   */\n    tag_131:\n        /* \"#utility.yul\":1282:1283   */\n      0x00\n        /* \"#utility.yul\":1279:1280   */\n      dup1\n        /* \"#utility.yul\":1272:1284   */\n      revert\n        /* \"#utility.yul\":1419:1541   */\n    tag_133:\n        /* \"#utility.yul\":1492:1516   */\n      tag_156\n        /* \"#utility.yul\":1510:1515   */\n      dup2\n        /* \"#utility.yul\":1492:1516   */\n      tag_125\n      jump\t// in\n    tag_156:\n        /* \"#utility.yul\":1485:1490   */\n      dup2\n        /* \"#utility.yul\":1482:1517   */\n      eq\n        /* \"#utility.yul\":1472:1535   */\n      tag_157\n      jumpi\n        /* \"#utility.yul\":1531:1532   */\n      0x00\n        /* \"#utility.yul\":1528:1529   */\n      dup1\n        /* \"#utility.yul\":1521:1533   */\n      revert\n        /* \"#utility.yul\":1472:1535   */\n    tag_157:\n        /* \"#utility.yul\":1419:1541   */\n      pop\n      jump\t// out\n        /* \"#utility.yul\":1547:1686   */\n    tag_134:\n        /* \"#utility.yul\":1593:1598   */\n      0x00\n        /* \"#utility.yul\":1631:1637   */\n      dup2\n        /* \"#utility.yul\":1618:1638   */\n      calldataload\n        /* \"#utility.yul\":1609:1638   */\n      swap1\n      pop\n        /* \"#utility.yul\":1647:1680   */\n      tag_159\n        /* \"#utility.yul\":1674:1679   */\n      dup2\n        /* \"#utility.yul\":1647:1680   */\n      tag_133\n      jump\t// in\n    tag_159:\n        /* \"#utility.yul\":1547:1686   */\n      swap3\n      swap2\n      pop\n      pop\n      jump\t// out\n        /* \"#utility.yul\":1692:2021   */\n    tag_48:\n        /* \"#utility.yul\":1751:1757   */\n      0x00\n        /* \"#utility.yul\":1800:1802   */\n      0x20\n        /* \"#utility.yul\":1788:1797   */\n      dup3\n        /* \"#utility.yul\":1779:1786   */\n      dup5\n        /* \"#utility.yul\":1775:1798   */\n      sub\n        /* \"#utility.yul\":1771:1803   */\n      slt\n        /* \"#utility.yul\":1768:1887   */\n      iszero\n      tag_161\n      jumpi\n        /* \"#utility.yul\":1806:1885   */\n      tag_162\n      tag_131\n      jump\t// in\n    tag_162:\n        /* \"#utility.yul\":1768:1887   */\n    tag_161:\n        /* \"#utility.yul\":1926:1927   */\n      0x00\n        /* \"#utility.yul\":1951:2004   */\n      tag_163\n        /* \"#utility.yul\":1996:2003   */\n      dup5\n        /* \"#utility.yul\":1987:1993   */\n      dup3\n        /* \"#utility.yul\":1976:1985   */\n      dup6\n        /* \"#utility.yul\":1972:1994   */\n      add\n        /* \"#utility.yul\":1951:2004   */\n      tag_134\n      jump\t// in\n    tag_163:\n        /* \"#utility.yul\":1941:2004   */\n      swap2\n      pop\n        /* \"#utility.yul\":1897:2014   */\n      pop\n        /* \"#utility.yul\":1692:2021   */\n      swap3\n      swap2\n      pop\n      pop\n      jump\t// out\n        /* \"#utility.yul\":2027:2207   */\n    tag_135:\n        /* \"#utility.yul\":2075:2152   */\n      0x4e487b7100000000000000000000000000000000000000000000000000000000\n        /* \"#utility.yul\":2072:2073   */\n      0x00\n        /* \"#utility.yul\":2065:2153   */\n      mstore\n        /* \"#utility.yul\":2172:2176   */\n      0x12\n        /* \"#utility.yul\":2169:2170   */\n      0x04\n        /* \"#utility.yul\":2162:2177   */\n      mstore\n        /* \"#utility.yul\":2196:2200   */\n      0x24\n        /* \"#utility.yul\":2193:2194   */\n      0x00\n        /* \"#utility.yul\":2186:2201   */\n      revert\n        /* \"#utility.yul\":2213:2389   */\n    tag_54:\n        /* \"#utility.yul\":2245:2246   */\n      0x00\n        /* \"#utility.yul\":2262:2282   */\n      tag_166\n        /* \"#utility.yul\":2280:2281   */\n      dup3\n        /* \"#utility.yul\":2262:2282   */\n      tag_125\n      jump\t// in\n    tag_166:\n        /* \"#utility.yul\":2257:2282   */\n      swap2\n      pop\n        /* \"#utility.yul\":2296:2316   */\n      tag_167\n        /* \"#utility.yul\":2314:2315   */\n      dup4\n        /* \"#utility.yul\":2296:2316   */\n      tag_125\n      jump\t// in\n    tag_167:\n        /* \"#utility.yul\":2291:2316   */\n      swap3\n      pop\n        /* \"#utility.yul\":2335:2336   */\n      dup3\n        /* \"#utility.yul\":2325:2360   */\n      tag_168\n      jumpi\n        /* \"#utility.yul\":2340:2358   */\n      tag_169\n      tag_135\n      jump\t// in\n    tag_169:\n        /* \"#utility.yul\":2325:2360   */\n    tag_168:\n        /* \"#utility.yul\":2381:2382   */\n      dup3\n        /* \"#utility.yul\":2378:2379   */\n      dup3\n        /* \"#utility.yul\":2374:2383   */\n      mod\n        /* \"#utility.yul\":2369:2383   */\n      swap1\n      pop\n        /* \"#utility.yul\":2213:2389   */\n      swap3\n      swap2\n      pop\n      pop\n      jump\t// out\n        /* \"#utility.yul\":2395:2575   */\n    tag_136:\n        /* \"#utility.yul\":2443:2520   */\n      0x4e487b7100000000000000000000000000000000000000000000000000000000\n        /* \"#utility.yul\":2440:2441   */\n      0x00\n        /* \"#utility.yul\":2433:2521   */\n      mstore\n        /* \"#utility.yul\":2540:2544   */\n      0x11\n        /* \"#utility.yul\":2537:2538   */\n      0x04\n        /* \"#utility.yul\":2530:2545   */\n      mstore\n        /* \"#utility.yul\":2564:2568   */\n      0x24\n        /* \"#utility.yul\":2561:2562   */\n      0x00\n        /* \"#utility.yul\":2554:2569   */\n      revert\n        /* \"#utility.yul\":2581:2929   */\n    tag_57:\n        /* \"#utility.yul\":2621:2628   */\n      0x00\n        /* \"#utility.yul\":2644:2664   */\n      tag_172\n        /* \"#utility.yul\":2662:2663   */\n      dup3\n        /* \"#utility.yul\":2644:2664   */\n      tag_125\n      jump\t// in\n    tag_172:\n        /* \"#utility.yul\":2639:2664   */\n      swap2\n      pop\n        /* \"#utility.yul\":2678:2698   */\n      tag_173\n        /* \"#utility.yul\":2696:2697   */\n      dup4\n        /* \"#utility.yul\":2678:2698   */\n      tag_125\n      jump\t// in\n    tag_173:\n        /* \"#utility.yul\":2673:2698   */\n      swap3\n      pop\n        /* \"#utility.yul\":2866:2867   */\n      dup2\n        /* \"#utility.yul\":2798:2864   */\n      0xffffffffffffffffffffffffffffffffffffffffffffffffffffffffffffffff\n        /* \"#utility.yul\":2794:2868   */\n      div\n        /* \"#utility.yul\":2791:2792   */\n      dup4\n        /* \"#utility.yul\":2788:2869   */\n      gt\n        /* \"#utility.yul\":2783:2784   */\n      dup3\n        /* \"#utility.yul\":2776:2785   */\n      iszero\n        /* \"#utility.yul\":2769:2786   */\n      iszero\n        /* \"#utility.yul\":2765:2870   */\n      and\n        /* \"#utility.yul\":2762:2893   */\n      iszero\n      tag_174\n      jumpi\n        /* \"#utility.yul\":2873:2891   */\n      tag_175\n      tag_136\n      jump\t// in\n    tag_175:\n        /* \"#utility.yul\":2762:2893   */\n    tag_174:\n        /* \"#utility.yul\":2921:2922   */\n      dup3\n        /* \"#utility.yul\":2918:2919   */\n      dup3\n        /* \"#utility.yul\":2914:2923   */\n      mul\n        /* \"#utility.yul\":2903:2923   */\n      swap1\n      pop\n        /* \"#utility.yul\":2581:2929   */\n      swap3\n      swap2\n      pop\n      pop\n      jump\t// out\n        /* \"#utility.yul\":2935:3014   */\n    tag_137:\n        /* \"#utility.yul\":2974:2981   */\n      0x00\n        /* \"#utility.yul\":3003:3008   */\n      dup2\n        /* \"#utility.yul\":2992:3008   */\n      swap1\n      pop\n        /* \"#utility.yul\":2935:3014   */\n      swap2\n      swap1\n      pop\n      jump\t// out\n        /* \"#utility.yul\":3020:3177   */\n    tag_138:\n        /* \"#utility.yul\":3125:3170   */\n      tag_178\n        /* \"#utility.yul\":3145:3169   */\n      tag_179\n        /* \"#utility.yul\":3163:3168   */\n      dup3\n        /* \"#utility.yul\":3145:3169   */\n      tag_125\n      jump\t// in\n    tag_179:\n        /* \"#utility.yul\":3125:3170   */\n      tag_137\n      jump\t// in\n    tag_178:\n        /* \"#utility.yul\":3120:3123   */\n      dup3\n        /* \"#utility.yul\":3113:3171   */\n      mstore\n        /* \"#utility.yul\":3020:3177   */\n      pop\n      pop\n      jump\t// out\n        /* \"#utility.yul\":3183:3721   */\n    tag_124:\n        /* \"#utility.yul\":3351:3354   */\n      0x00\n        /* \"#utility.yul\":3366:3441   */\n      tag_181\n        /* \"#utility.yul\":3437:3440   */\n      dup3\n        /* \"#utility.yul\":3428:3434   */\n      dup7\n        /* \"#utility.yul\":3366:3441   */\n      tag_138\n      jump\t// in\n    tag_181:\n        /* \"#utility.yul\":3466:3468   */\n      0x20\n        /* \"#utility.yul\":3461:3464   */\n      dup3\n        /* \"#utility.yul\":3457:3469   */\n      add\n        /* \"#utility.yul\":3450:3469   */\n      swap2\n      pop\n        /* \"#utility.yul\":3479:3554   */\n      tag_182\n        /* \"#utility.yul\":3550:3553   */\n      dup3\n        /* \"#utility.yul\":3541:3547   */\n      dup6\n        /* \"#utility.yul\":3479:3554   */\n      tag_138\n      jump\t// in\n    tag_182:\n        /* \"#utility.yul\":3579:3581   */\n      0x20\n        /* \"#utility.yul\":3574:3577   */\n      dup3\n        /* \"#utility.yul\":3570:3582   */\n      add\n        /* \"#utility.yul\":3563:3582   */\n      swap2\n      pop\n        /* \"#utility.yul\":3592:3667   */\n      tag_183\n        /* \"#utility.yul\":3663:3666   */\n      dup3\n        /* \"#utility.yul\":3654:3660   */\n      dup5\n        /* \"#utility.yul\":3592:3667   */\n      tag_138\n      jump\t// in\n    tag_183:\n        /* \"#utility.yul\":3692:3694   */\n      0x20\n        /* \"#utility.yul\":3687:3690   */\n      dup3\n        /* \"#utility.yul\":3683:3695   */\n      add\n        /* \"#utility.yul\":3676:3695   */\n      swap2\n      pop\n        /* \"#utility.yul\":3712:3715   */\n      dup2\n        /* \"#utility.yul\":3705:3715   */\n      swap1\n      pop\n        /* \"#utility.yul\":3183:3721   */\n      swap5\n      swap4\n      pop\n      pop\n      pop\n      pop\n      jump\t// out\n\n    auxdata: 0xa2646970667358221220843d40ce2383283fdfdf5c489fdb5ecec29fdfdd23a96c92582cb9bdd1abdc2864736f6c634300080f0033\n}\n",
				"bytecode": {
					"linkReferences": {},
					"object": "608060405234801561001057600080fd5b50336000806101000a81548173ffffffffffffffffffffffffffffffffffffffff021916908373ffffffffffffffffffffffffffffffffffffffff160217905550610a20806100606000396000f3fe6080604052600436106100a75760003560e01c806385b4ba871161006457806385b4ba871461012a5780638da5cb5b14610134578063b1ad30531461015f578063e7120fd914610169578063e8d1821214610173578063f855aa9e1461017d576100a7565b80630b634788146100ac57806329402ecb146100b6578063374ccd33146100c057806348db5f89146100eb5780636f4c487a14610116578063766f857814610120575b600080fd5b6100b46101a6565b005b6100be61022a565b005b3480156100cc57600080fd5b506100d56102ae565b6040516100e291906107ce565b60405180910390f35b3480156100f757600080fd5b5061010061030f565b60405161010d919061082a565b60405180910390f35b61011e610335565b005b6101286103b9565b005b61013261043d565b005b34801561014057600080fd5b506101496104c2565b604051610156919061082a565b60405180910390f35b6101676104e6565b005b6101716105cd565b005b61017b610651565b005b34801561018957600080fd5b506101a4600480360381019061019f9190610876565b6106ab565b005b600060266101b2610780565b6101bc91906108d2565b90506003811015610226573373ffffffffffffffffffffffffffffffffffffffff166108fc67a688906bd8b00000346101f59190610932565b9081150290604051600060405180830381858888f19350505050158015610220573d6000803e3d6000fd5b50610227565b5b50565b60006026610236610780565b61024091906108d2565b9050600c8110156102aa573373ffffffffffffffffffffffffffffffffffffffff166108fc6729a2241af62c0000346102799190610932565b9081150290604051600060405180830381858888f193505050501580156102a4573d6000803e3d6000fd5b506102ab565b5b50565b60008060009054906101000a900473ffffffffffffffffffffffffffffffffffffffff1673ffffffffffffffffffffffffffffffffffffffff163373ffffffffffffffffffffffffffffffffffffffff161461030957600080fd5b47905090565b600160009054906101000a900473ffffffffffffffffffffffffffffffffffffffff1681565b60006026610341610780565b61034b91906108d2565b905060068110156103b5573373ffffffffffffffffffffffffffffffffffffffff166108fc6753444835ec580000346103849190610932565b9081150290604051600060405180830381858888f193505050501580156103af573d6000803e3d6000fd5b506103b6565b5b50565b600060266103c5610780565b6103cf91906108d2565b90506002811015610439573373ffffffffffffffffffffffffffffffffffffffff166108fc67f9ccd8a1c5080000346104089190610932565b9081150290604051600060405180830381858888f19350505050158015610433573d6000803e3d6000fd5b5061043a565b5b50565b60006026610449610780565b61045391906108d2565b905060018110156104be573373ffffffffffffffffffffffffffffffffffffffff166108fc6801f399b1438a1000003461048d9190610932565b9081150290604051600060405180830381858888f193505050501580156104b8573d6000803e3d6000fd5b506104bf565b5b50565b60008054906101000a900473ffffffffffffffffffffffffffffffffffffffff1681565b33600160006101000a81548173ffffffffffffffffffffffffffffffffffffffff021916908373ffffffffffffffffffffffffffffffffffffffff16021790555060006026610533610780565b61053d91906108d2565b905060128110156105c957600160009054906101000a900473ffffffffffffffffffffffffffffffffffffffff1673ffffffffffffffffffffffffffffffffffffffff166108fc671bc16d674ec80000346105989190610932565b9081150290604051600060405180830381858888f193505050501580156105c3573d6000803e3d6000fd5b506105ca565b5b50565b600060266105d9610780565b6105e391906108d2565b9050600481101561064d573373ffffffffffffffffffffffffffffffffffffffff166108fc677ce66c50e28400003461061c9190610932565b9081150290604051600060405180830381858888f19350505050158015610647573d6000803e3d6000fd5b5061064e565b5b50565b60008054906101000a900473ffffffffffffffffffffffffffffffffffffffff1673ffffffffffffffffffffffffffffffffffffffff163373ffffffffffffffffffffffffffffffffffffffff16146106a957600080fd5b565b60008054906101000a900473ffffffffffffffffffffffffffffffffffffffff1673ffffffffffffffffffffffffffffffffffffffff163373ffffffffffffffffffffffffffffffffffffffff161461070357600080fd5b60008054906101000a900473ffffffffffffffffffffffffffffffffffffffff1673ffffffffffffffffffffffffffffffffffffffff166108fc670de0b6b3a7640000836107519190610932565b9081150290604051600060405180830381858888f1935050505015801561077c573d6000803e3d6000fd5b5050565b6000474244604051602001610797939291906109ad565b6040516020818303038152906040528051906020012060001c905090565b6000819050919050565b6107c8816107b5565b82525050565b60006020820190506107e360008301846107bf565b92915050565b600073ffffffffffffffffffffffffffffffffffffffff82169050919050565b6000610814826107e9565b9050919050565b61082481610809565b82525050565b600060208201905061083f600083018461081b565b92915050565b600080fd5b610853816107b5565b811461085e57600080fd5b50565b6000813590506108708161084a565b92915050565b60006020828403121561088c5761088b610845565b5b600061089a84828501610861565b91505092915050565b7f4e487b7100000000000000000000000000000000000000000000000000000000600052601260045260246000fd5b60006108dd826107b5565b91506108e8836107b5565b9250826108f8576108f76108a3565b5b828206905092915050565b7f4e487b7100000000000000000000000000000000000000000000000000000000600052601160045260246000fd5b600061093d826107b5565b9150610948836107b5565b9250817fffffffffffffffffffffffffffffffffffffffffffffffffffffffffffffffff048311821515161561098157610980610903565b5b828202905092915050565b6000819050919050565b6109a76109a2826107b5565b61098c565b82525050565b60006109b98286610996565b6020820191506109c98285610996565b6020820191506109d98284610996565b60208201915081905094935050505056fea2646970667358221220843d40ce2383283fdfdf5c489fdb5ecec29fdfdd23a96c92582cb9bdd1abdc2864736f6c634300080f0033",
					"opcodes": "PUSH1 0x80 PUSH1 0x40 MSTORE CALLVALUE DUP1 ISZERO PUSH2 0x10 JUMPI PUSH1 0x0 DUP1 REVERT JUMPDEST POP CALLER PUSH1 0x0 DUP1 PUSH2 0x100 EXP DUP2 SLOAD DUP2 PUSH20 0xFFFFFFFFFFFFFFFFFFFFFFFFFFFFFFFFFFFFFFFF MUL NOT AND SWAP1 DUP4 PUSH20 0xFFFFFFFFFFFFFFFFFFFFFFFFFFFFFFFFFFFFFFFF AND MUL OR SWAP1 SSTORE POP PUSH2 0xA20 DUP1 PUSH2 0x60 PUSH1 0x0 CODECOPY PUSH1 0x0 RETURN INVALID PUSH1 0x80 PUSH1 0x40 MSTORE PUSH1 0x4 CALLDATASIZE LT PUSH2 0xA7 JUMPI PUSH1 0x0 CALLDATALOAD PUSH1 0xE0 SHR DUP1 PUSH4 0x85B4BA87 GT PUSH2 0x64 JUMPI DUP1 PUSH4 0x85B4BA87 EQ PUSH2 0x12A JUMPI DUP1 PUSH4 0x8DA5CB5B EQ PUSH2 0x134 JUMPI DUP1 PUSH4 0xB1AD3053 EQ PUSH2 0x15F JUMPI DUP1 PUSH4 0xE7120FD9 EQ PUSH2 0x169 JUMPI DUP1 PUSH4 0xE8D18212 EQ PUSH2 0x173 JUMPI DUP1 PUSH4 0xF855AA9E EQ PUSH2 0x17D JUMPI PUSH2 0xA7 JUMP JUMPDEST DUP1 PUSH4 0xB634788 EQ PUSH2 0xAC JUMPI DUP1 PUSH4 0x29402ECB EQ PUSH2 0xB6 JUMPI DUP1 PUSH4 0x374CCD33 EQ PUSH2 0xC0 JUMPI DUP1 PUSH4 0x48DB5F89 EQ PUSH2 0xEB JUMPI DUP1 PUSH4 0x6F4C487A EQ PUSH2 0x116 JUMPI DUP1 PUSH4 0x766F8578 EQ PUSH2 0x120 JUMPI JUMPDEST PUSH1 0x0 DUP1 REVERT JUMPDEST PUSH2 0xB4 PUSH2 0x1A6 JUMP JUMPDEST STOP JUMPDEST PUSH2 0xBE PUSH2 0x22A JUMP JUMPDEST STOP JUMPDEST CALLVALUE DUP1 ISZERO PUSH2 0xCC JUMPI PUSH1 0x0 DUP1 REVERT JUMPDEST POP PUSH2 0xD5 PUSH2 0x2AE JUMP JUMPDEST PUSH1 0x40 MLOAD PUSH2 0xE2 SWAP2 SWAP1 PUSH2 0x7CE JUMP JUMPDEST PUSH1 0x40 MLOAD DUP1 SWAP2 SUB SWAP1 RETURN JUMPDEST CALLVALUE DUP1 ISZERO PUSH2 0xF7 JUMPI PUSH1 0x0 DUP1 REVERT JUMPDEST POP PUSH2 0x100 PUSH2 0x30F JUMP JUMPDEST PUSH1 0x40 MLOAD PUSH2 0x10D SWAP2 SWAP1 PUSH2 0x82A JUMP JUMPDEST PUSH1 0x40 MLOAD DUP1 SWAP2 SUB SWAP1 RETURN JUMPDEST PUSH2 0x11E PUSH2 0x335 JUMP JUMPDEST STOP JUMPDEST PUSH2 0x128 PUSH2 0x3B9 JUMP JUMPDEST STOP JUMPDEST PUSH2 0x132 PUSH2 0x43D JUMP JUMPDEST STOP JUMPDEST CALLVALUE DUP1 ISZERO PUSH2 0x140 JUMPI PUSH1 0x0 DUP1 REVERT JUMPDEST POP PUSH2 0x149 PUSH2 0x4C2 JUMP JUMPDEST PUSH1 0x40 MLOAD PUSH2 0x156 SWAP2 SWAP1 PUSH2 0x82A JUMP JUMPDEST PUSH1 0x40 MLOAD DUP1 SWAP2 SUB SWAP1 RETURN JUMPDEST PUSH2 0x167 PUSH2 0x4E6 JUMP JUMPDEST STOP JUMPDEST PUSH2 0x171 PUSH2 0x5CD JUMP JUMPDEST STOP JUMPDEST PUSH2 0x17B PUSH2 0x651 JUMP JUMPDEST STOP JUMPDEST CALLVALUE DUP1 ISZERO PUSH2 0x189 JUMPI PUSH1 0x0 DUP1 REVERT JUMPDEST POP PUSH2 0x1A4 PUSH1 0x4 DUP1 CALLDATASIZE SUB DUP2 ADD SWAP1 PUSH2 0x19F SWAP2 SWAP1 PUSH2 0x876 JUMP JUMPDEST PUSH2 0x6AB JUMP JUMPDEST STOP JUMPDEST PUSH1 0x0 PUSH1 0x26 PUSH2 0x1B2 PUSH2 0x780 JUMP JUMPDEST PUSH2 0x1BC SWAP2 SWAP1 PUSH2 0x8D2 JUMP JUMPDEST SWAP1 POP PUSH1 0x3 DUP2 LT ISZERO PUSH2 0x226 JUMPI CALLER PUSH20 0xFFFFFFFFFFFFFFFFFFFFFFFFFFFFFFFFFFFFFFFF AND PUSH2 0x8FC PUSH8 0xA688906BD8B00000 CALLVALUE PUSH2 0x1F5 SWAP2 SWAP1 PUSH2 0x932 JUMP JUMPDEST SWAP1 DUP2 ISZERO MUL SWAP1 PUSH1 0x40 MLOAD PUSH1 0x0 PUSH1 0x40 MLOAD DUP1 DUP4 SUB DUP2 DUP6 DUP9 DUP9 CALL SWAP4 POP POP POP POP ISZERO DUP1 ISZERO PUSH2 0x220 JUMPI RETURNDATASIZE PUSH1 0x0 DUP1 RETURNDATACOPY RETURNDATASIZE PUSH1 0x0 REVERT JUMPDEST POP PUSH2 0x227 JUMP JUMPDEST JUMPDEST POP JUMP JUMPDEST PUSH1 0x0 PUSH1 0x26 PUSH2 0x236 PUSH2 0x780 JUMP JUMPDEST PUSH2 0x240 SWAP2 SWAP1 PUSH2 0x8D2 JUMP JUMPDEST SWAP1 POP PUSH1 0xC DUP2 LT ISZERO PUSH2 0x2AA JUMPI CALLER PUSH20 0xFFFFFFFFFFFFFFFFFFFFFFFFFFFFFFFFFFFFFFFF AND PUSH2 0x8FC PUSH8 0x29A2241AF62C0000 CALLVALUE PUSH2 0x279 SWAP2 SWAP1 PUSH2 0x932 JUMP JUMPDEST SWAP1 DUP2 ISZERO MUL SWAP1 PUSH1 0x40 MLOAD PUSH1 0x0 PUSH1 0x40 MLOAD DUP1 DUP4 SUB DUP2 DUP6 DUP9 DUP9 CALL SWAP4 POP POP POP POP ISZERO DUP1 ISZERO PUSH2 0x2A4 JUMPI RETURNDATASIZE PUSH1 0x0 DUP1 RETURNDATACOPY RETURNDATASIZE PUSH1 0x0 REVERT JUMPDEST POP PUSH2 0x2AB JUMP JUMPDEST JUMPDEST POP JUMP JUMPDEST PUSH1 0x0 DUP1 PUSH1 0x0 SWAP1 SLOAD SWAP1 PUSH2 0x100 EXP SWAP1 DIV PUSH20 0xFFFFFFFFFFFFFFFFFFFFFFFFFFFFFFFFFFFFFFFF AND PUSH20 0xFFFFFFFFFFFFFFFFFFFFFFFFFFFFFFFFFFFFFFFF AND CALLER PUSH20 0xFFFFFFFFFFFFFFFFFFFFFFFFFFFFFFFFFFFFFFFF AND EQ PUSH2 0x309 JUMPI PUSH1 0x0 DUP1 REVERT JUMPDEST SELFBALANCE SWAP1 POP SWAP1 JUMP JUMPDEST PUSH1 0x1 PUSH1 0x0 SWAP1 SLOAD SWAP1 PUSH2 0x100 EXP SWAP1 DIV PUSH20 0xFFFFFFFFFFFFFFFFFFFFFFFFFFFFFFFFFFFFFFFF AND DUP2 JUMP JUMPDEST PUSH1 0x0 PUSH1 0x26 PUSH2 0x341 PUSH2 0x780 JUMP JUMPDEST PUSH2 0x34B SWAP2 SWAP1 PUSH2 0x8D2 JUMP JUMPDEST SWAP1 POP PUSH1 0x6 DUP2 LT ISZERO PUSH2 0x3B5 JUMPI CALLER PUSH20 0xFFFFFFFFFFFFFFFFFFFFFFFFFFFFFFFFFFFFFFFF AND PUSH2 0x8FC PUSH8 0x53444835EC580000 CALLVALUE PUSH2 0x384 SWAP2 SWAP1 PUSH2 0x932 JUMP JUMPDEST SWAP1 DUP2 ISZERO MUL SWAP1 PUSH1 0x40 MLOAD PUSH1 0x0 PUSH1 0x40 MLOAD DUP1 DUP4 SUB DUP2 DUP6 DUP9 DUP9 CALL SWAP4 POP POP POP POP ISZERO DUP1 ISZERO PUSH2 0x3AF JUMPI RETURNDATASIZE PUSH1 0x0 DUP1 RETURNDATACOPY RETURNDATASIZE PUSH1 0x0 REVERT JUMPDEST POP PUSH2 0x3B6 JUMP JUMPDEST JUMPDEST POP JUMP JUMPDEST PUSH1 0x0 PUSH1 0x26 PUSH2 0x3C5 PUSH2 0x780 JUMP JUMPDEST PUSH2 0x3CF SWAP2 SWAP1 PUSH2 0x8D2 JUMP JUMPDEST SWAP1 POP PUSH1 0x2 DUP2 LT ISZERO PUSH2 0x439 JUMPI CALLER PUSH20 0xFFFFFFFFFFFFFFFFFFFFFFFFFFFFFFFFFFFFFFFF AND PUSH2 0x8FC PUSH8 0xF9CCD8A1C5080000 CALLVALUE PUSH2 0x408 SWAP2 SWAP1 PUSH2 0x932 JUMP JUMPDEST SWAP1 DUP2 ISZERO MUL SWAP1 PUSH1 0x40 MLOAD PUSH1 0x0 PUSH1 0x40 MLOAD DUP1 DUP4 SUB DUP2 DUP6 DUP9 DUP9 CALL SWAP4 POP POP POP POP ISZERO DUP1 ISZERO PUSH2 0x433 JUMPI RETURNDATASIZE PUSH1 0x0 DUP1 RETURNDATACOPY RETURNDATASIZE PUSH1 0x0 REVERT JUMPDEST POP PUSH2 0x43A JUMP JUMPDEST JUMPDEST POP JUMP JUMPDEST PUSH1 0x0 PUSH1 0x26 PUSH2 0x449 PUSH2 0x780 JUMP JUMPDEST PUSH2 0x453 SWAP2 SWAP1 PUSH2 0x8D2 JUMP JUMPDEST SWAP1 POP PUSH1 0x1 DUP2 LT ISZERO PUSH2 0x4BE JUMPI CALLER PUSH20 0xFFFFFFFFFFFFFFFFFFFFFFFFFFFFFFFFFFFFFFFF AND PUSH2 0x8FC PUSH9 0x1F399B1438A100000 CALLVALUE PUSH2 0x48D SWAP2 SWAP1 PUSH2 0x932 JUMP JUMPDEST SWAP1 DUP2 ISZERO MUL SWAP1 PUSH1 0x40 MLOAD PUSH1 0x0 PUSH1 0x40 MLOAD DUP1 DUP4 SUB DUP2 DUP6 DUP9 DUP9 CALL SWAP4 POP POP POP POP ISZERO DUP1 ISZERO PUSH2 0x4B8 JUMPI RETURNDATASIZE PUSH1 0x0 DUP1 RETURNDATACOPY RETURNDATASIZE PUSH1 0x0 REVERT JUMPDEST POP PUSH2 0x4BF JUMP JUMPDEST JUMPDEST POP JUMP JUMPDEST PUSH1 0x0 DUP1 SLOAD SWAP1 PUSH2 0x100 EXP SWAP1 DIV PUSH20 0xFFFFFFFFFFFFFFFFFFFFFFFFFFFFFFFFFFFFFFFF AND DUP2 JUMP JUMPDEST CALLER PUSH1 0x1 PUSH1 0x0 PUSH2 0x100 EXP DUP2 SLOAD DUP2 PUSH20 0xFFFFFFFFFFFFFFFFFFFFFFFFFFFFFFFFFFFFFFFF MUL NOT AND SWAP1 DUP4 PUSH20 0xFFFFFFFFFFFFFFFFFFFFFFFFFFFFFFFFFFFFFFFF AND MUL OR SWAP1 SSTORE POP PUSH1 0x0 PUSH1 0x26 PUSH2 0x533 PUSH2 0x780 JUMP JUMPDEST PUSH2 0x53D SWAP2 SWAP1 PUSH2 0x8D2 JUMP JUMPDEST SWAP1 POP PUSH1 0x12 DUP2 LT ISZERO PUSH2 0x5C9 JUMPI PUSH1 0x1 PUSH1 0x0 SWAP1 SLOAD SWAP1 PUSH2 0x100 EXP SWAP1 DIV PUSH20 0xFFFFFFFFFFFFFFFFFFFFFFFFFFFFFFFFFFFFFFFF AND PUSH20 0xFFFFFFFFFFFFFFFFFFFFFFFFFFFFFFFFFFFFFFFF AND PUSH2 0x8FC PUSH8 0x1BC16D674EC80000 CALLVALUE PUSH2 0x598 SWAP2 SWAP1 PUSH2 0x932 JUMP JUMPDEST SWAP1 DUP2 ISZERO MUL SWAP1 PUSH1 0x40 MLOAD PUSH1 0x0 PUSH1 0x40 MLOAD DUP1 DUP4 SUB DUP2 DUP6 DUP9 DUP9 CALL SWAP4 POP POP POP POP ISZERO DUP1 ISZERO PUSH2 0x5C3 JUMPI RETURNDATASIZE PUSH1 0x0 DUP1 RETURNDATACOPY RETURNDATASIZE PUSH1 0x0 REVERT JUMPDEST POP PUSH2 0x5CA JUMP JUMPDEST JUMPDEST POP JUMP JUMPDEST PUSH1 0x0 PUSH1 0x26 PUSH2 0x5D9 PUSH2 0x780 JUMP JUMPDEST PUSH2 0x5E3 SWAP2 SWAP1 PUSH2 0x8D2 JUMP JUMPDEST SWAP1 POP PUSH1 0x4 DUP2 LT ISZERO PUSH2 0x64D JUMPI CALLER PUSH20 0xFFFFFFFFFFFFFFFFFFFFFFFFFFFFFFFFFFFFFFFF AND PUSH2 0x8FC PUSH8 0x7CE66C50E2840000 CALLVALUE PUSH2 0x61C SWAP2 SWAP1 PUSH2 0x932 JUMP JUMPDEST SWAP1 DUP2 ISZERO MUL SWAP1 PUSH1 0x40 MLOAD PUSH1 0x0 PUSH1 0x40 MLOAD DUP1 DUP4 SUB DUP2 DUP6 DUP9 DUP9 CALL SWAP4 POP POP POP POP ISZERO DUP1 ISZERO PUSH2 0x647 JUMPI RETURNDATASIZE PUSH1 0x0 DUP1 RETURNDATACOPY RETURNDATASIZE PUSH1 0x0 REVERT JUMPDEST POP PUSH2 0x64E JUMP JUMPDEST JUMPDEST POP JUMP JUMPDEST PUSH1 0x0 DUP1 SLOAD SWAP1 PUSH2 0x100 EXP SWAP1 DIV PUSH20 0xFFFFFFFFFFFFFFFFFFFFFFFFFFFFFFFFFFFFFFFF AND PUSH20 0xFFFFFFFFFFFFFFFFFFFFFFFFFFFFFFFFFFFFFFFF AND CALLER PUSH20 0xFFFFFFFFFFFFFFFFFFFFFFFFFFFFFFFFFFFFFFFF AND EQ PUSH2 0x6A9 JUMPI PUSH1 0x0 DUP1 REVERT JUMPDEST JUMP JUMPDEST PUSH1 0x0 DUP1 SLOAD SWAP1 PUSH2 0x100 EXP SWAP1 DIV PUSH20 0xFFFFFFFFFFFFFFFFFFFFFFFFFFFFFFFFFFFFFFFF AND PUSH20 0xFFFFFFFFFFFFFFFFFFFFFFFFFFFFFFFFFFFFFFFF AND CALLER PUSH20 0xFFFFFFFFFFFFFFFFFFFFFFFFFFFFFFFFFFFFFFFF AND EQ PUSH2 0x703 JUMPI PUSH1 0x0 DUP1 REVERT JUMPDEST PUSH1 0x0 DUP1 SLOAD SWAP1 PUSH2 0x100 EXP SWAP1 DIV PUSH20 0xFFFFFFFFFFFFFFFFFFFFFFFFFFFFFFFFFFFFFFFF AND PUSH20 0xFFFFFFFFFFFFFFFFFFFFFFFFFFFFFFFFFFFFFFFF AND PUSH2 0x8FC PUSH8 0xDE0B6B3A7640000 DUP4 PUSH2 0x751 SWAP2 SWAP1 PUSH2 0x932 JUMP JUMPDEST SWAP1 DUP2 ISZERO MUL SWAP1 PUSH1 0x40 MLOAD PUSH1 0x0 PUSH1 0x40 MLOAD DUP1 DUP4 SUB DUP2 DUP6 DUP9 DUP9 CALL SWAP4 POP POP POP POP ISZERO DUP1 ISZERO PUSH2 0x77C JUMPI RETURNDATASIZE PUSH1 0x0 DUP1 RETURNDATACOPY RETURNDATASIZE PUSH1 0x0 REVERT JUMPDEST POP POP JUMP JUMPDEST PUSH1 0x0 SELFBALANCE TIMESTAMP DIFFICULTY PUSH1 0x40 MLOAD PUSH1 0x20 ADD PUSH2 0x797 SWAP4 SWAP3 SWAP2 SWAP1 PUSH2 0x9AD JUMP JUMPDEST PUSH1 0x40 MLOAD PUSH1 0x20 DUP2 DUP4 SUB SUB DUP2 MSTORE SWAP1 PUSH1 0x40 MSTORE DUP1 MLOAD SWAP1 PUSH1 0x20 ADD KECCAK256 PUSH1 0x0 SHR SWAP1 POP SWAP1 JUMP JUMPDEST PUSH1 0x0 DUP2 SWAP1 POP SWAP2 SWAP1 POP JUMP JUMPDEST PUSH2 0x7C8 DUP2 PUSH2 0x7B5 JUMP JUMPDEST DUP3 MSTORE POP POP JUMP JUMPDEST PUSH1 0x0 PUSH1 0x20 DUP3 ADD SWAP1 POP PUSH2 0x7E3 PUSH1 0x0 DUP4 ADD DUP5 PUSH2 0x7BF JUMP JUMPDEST SWAP3 SWAP2 POP POP JUMP JUMPDEST PUSH1 0x0 PUSH20 0xFFFFFFFFFFFFFFFFFFFFFFFFFFFFFFFFFFFFFFFF DUP3 AND SWAP1 POP SWAP2 SWAP1 POP JUMP JUMPDEST PUSH1 0x0 PUSH2 0x814 DUP3 PUSH2 0x7E9 JUMP JUMPDEST SWAP1 POP SWAP2 SWAP1 POP JUMP JUMPDEST PUSH2 0x824 DUP2 PUSH2 0x809 JUMP JUMPDEST DUP3 MSTORE POP POP JUMP JUMPDEST PUSH1 0x0 PUSH1 0x20 DUP3 ADD SWAP1 POP PUSH2 0x83F PUSH1 0x0 DUP4 ADD DUP5 PUSH2 0x81B JUMP JUMPDEST SWAP3 SWAP2 POP POP JUMP JUMPDEST PUSH1 0x0 DUP1 REVERT JUMPDEST PUSH2 0x853 DUP2 PUSH2 0x7B5 JUMP JUMPDEST DUP2 EQ PUSH2 0x85E JUMPI PUSH1 0x0 DUP1 REVERT JUMPDEST POP JUMP JUMPDEST PUSH1 0x0 DUP2 CALLDATALOAD SWAP1 POP PUSH2 0x870 DUP2 PUSH2 0x84A JUMP JUMPDEST SWAP3 SWAP2 POP POP JUMP JUMPDEST PUSH1 0x0 PUSH1 0x20 DUP3 DUP5 SUB SLT ISZERO PUSH2 0x88C JUMPI PUSH2 0x88B PUSH2 0x845 JUMP JUMPDEST JUMPDEST PUSH1 0x0 PUSH2 0x89A DUP5 DUP3 DUP6 ADD PUSH2 0x861 JUMP JUMPDEST SWAP2 POP POP SWAP3 SWAP2 POP POP JUMP JUMPDEST PUSH32 0x4E487B7100000000000000000000000000000000000000000000000000000000 PUSH1 0x0 MSTORE PUSH1 0x12 PUSH1 0x4 MSTORE PUSH1 0x24 PUSH1 0x0 REVERT JUMPDEST PUSH1 0x0 PUSH2 0x8DD DUP3 PUSH2 0x7B5 JUMP JUMPDEST SWAP2 POP PUSH2 0x8E8 DUP4 PUSH2 0x7B5 JUMP JUMPDEST SWAP3 POP DUP3 PUSH2 0x8F8 JUMPI PUSH2 0x8F7 PUSH2 0x8A3 JUMP JUMPDEST JUMPDEST DUP3 DUP3 MOD SWAP1 POP SWAP3 SWAP2 POP POP JUMP JUMPDEST PUSH32 0x4E487B7100000000000000000000000000000000000000000000000000000000 PUSH1 0x0 MSTORE PUSH1 0x11 PUSH1 0x4 MSTORE PUSH1 0x24 PUSH1 0x0 REVERT JUMPDEST PUSH1 0x0 PUSH2 0x93D DUP3 PUSH2 0x7B5 JUMP JUMPDEST SWAP2 POP PUSH2 0x948 DUP4 PUSH2 0x7B5 JUMP JUMPDEST SWAP3 POP DUP2 PUSH32 0xFFFFFFFFFFFFFFFFFFFFFFFFFFFFFFFFFFFFFFFFFFFFFFFFFFFFFFFFFFFFFFFF DIV DUP4 GT DUP3 ISZERO ISZERO AND ISZERO PUSH2 0x981 JUMPI PUSH2 0x980 PUSH2 0x903 JUMP JUMPDEST JUMPDEST DUP3 DUP3 MUL SWAP1 POP SWAP3 SWAP2 POP POP JUMP JUMPDEST PUSH1 0x0 DUP2 SWAP1 POP SWAP2 SWAP1 POP JUMP JUMPDEST PUSH2 0x9A7 PUSH2 0x9A2 DUP3 PUSH2 0x7B5 JUMP JUMPDEST PUSH2 0x98C JUMP JUMPDEST DUP3 MSTORE POP POP JUMP JUMPDEST PUSH1 0x0 PUSH2 0x9B9 DUP3 DUP7 PUSH2 0x996 JUMP JUMPDEST PUSH1 0x20 DUP3 ADD SWAP2 POP PUSH2 0x9C9 DUP3 DUP6 PUSH2 0x996 JUMP JUMPDEST PUSH1 0x20 DUP3 ADD SWAP2 POP PUSH2 0x9D9 DUP3 DUP5 PUSH2 0x996 JUMP JUMPDEST PUSH1 0x20 DUP3 ADD SWAP2 POP DUP2 SWAP1 POP SWAP5 SWAP4 POP POP POP POP JUMP INVALID LOG2 PUSH5 0x6970667358 0x22 SLT KECCAK256 DUP5 RETURNDATASIZE BLOCKHASH 0xCE 0x23 DUP4 0x28 EXTCODEHASH 0xDF 0xDF 0x5C BASEFEE SWAP16 0xDB 0x5E 0xCE 0xC2 SWAP16 0xDF 0xDD 0x23 0xA9 PUSH13 0x92582CB9BDD1ABDC2864736F6C PUSH4 0x4300080F STOP CALLER "
				},
				"gasEstimates": {
					"creation": {
						"codeDepositCost": "518400",
						"executionCost": "24815",
						"totalCost": "543215"
					},
					"external": {
						"A_oneToOne()": "infinite",
						"B_twoToOne()": "infinite",
						"C_fiveToOne()": "infinite",
						"D_eightToOne()": "infinite",
						"E_elevenToOne()": "infinite",
						"F_seventeenToOne()": "infinite",
						"G_thirtyfiveToOne()": "infinite",
						"H_deposit()": "2375",
						"I_withdraw(uint256)": "infinite",
						"J_getBalance()": "2554",
						"owner()": "2533",
						"player()": "2581"
					},
					"internal": {
						"getRandomNumber()": "infinite"
					}
				},
				"methodIdentifiers": {
					"A_oneToOne()": "b1ad3053",
					"B_twoToOne()": "29402ecb",
					"C_fiveToOne()": "6f4c487a",
					"D_eightToOne()": "e7120fd9",
					"E_elevenToOne()": "0b634788",
					"F_seventeenToOne()": "766f8578",
					"G_thirtyfiveToOne()": "85b4ba87",
					"H_deposit()": "e8d18212",
					"I_withdraw(uint256)": "f855aa9e",
					"J_getBalance()": "374ccd33",
					"owner()": "8da5cb5b",
					"player()": "48db5f89"
				}
			},
			"storageLayout": {
				"storage": [
					{
						"astId": 3,
						"contract": "Documents/Web3/Casino/002 Roulette.sol:Roulette",
						"label": "owner",
						"offset": 0,
						"slot": "0",
						"type": "t_address_payable"
					},
					{
						"astId": 5,
						"contract": "Documents/Web3/Casino/002 Roulette.sol:Roulette",
						"label": "player",
						"offset": 0,
						"slot": "1",
						"type": "t_address_payable"
					}
				],
				"types": {
					"t_address_payable": {
						"encoding": "inplace",
						"label": "address payable",
						"numberOfBytes": "20"
					}
				}
			},
			"userdoc": {
				"kind": "user",
				"methods": {},
				"version": 1
			}
		}
	}
}