{
	"Documents/Web3/Casino/002 Roulette.sol": {
		"Roulette": {
			"abi": [
				{
					"inputs": [],
					"stateMutability": "nonpayable",
					"type": "constructor"
				},
				{
					"inputs": [],
					"name": "AAA_test",
					"outputs": [
						{
							"internalType": "uint256",
							"name": "",
							"type": "uint256"
						}
					],
					"stateMutability": "payable",
					"type": "function"
				},
				{
					"inputs": [
						{
							"internalType": "uint256",
							"name": "bet",
							"type": "uint256"
						}
					],
					"name": "A_oneToOne",
					"outputs": [],
					"stateMutability": "payable",
					"type": "function"
				},
				{
					"inputs": [],
					"name": "B_twoToOne",
					"outputs": [],
					"stateMutability": "payable",
					"type": "function"
				},
				{
					"inputs": [],
					"name": "C_fiveToOne",
					"outputs": [],
					"stateMutability": "payable",
					"type": "function"
				},
				{
					"inputs": [],
					"name": "D_eightToOne",
					"outputs": [],
					"stateMutability": "payable",
					"type": "function"
				},
				{
					"inputs": [],
					"name": "E_elevenToOne",
					"outputs": [],
					"stateMutability": "payable",
					"type": "function"
				},
				{
					"inputs": [],
					"name": "F_seventeenToOne",
					"outputs": [],
					"stateMutability": "payable",
					"type": "function"
				},
				{
					"inputs": [],
					"name": "G_thirtyfiveToOne",
					"outputs": [],
					"stateMutability": "payable",
					"type": "function"
				},
				{
					"inputs": [],
					"name": "H_deposit",
					"outputs": [],
					"stateMutability": "payable",
					"type": "function"
				},
				{
					"inputs": [
						{
							"internalType": "uint256",
							"name": "amount",
							"type": "uint256"
						}
					],
					"name": "I_withdraw",
					"outputs": [],
					"stateMutability": "nonpayable",
					"type": "function"
				},
				{
					"inputs": [],
					"name": "J_getBalance",
					"outputs": [
						{
							"internalType": "uint256",
							"name": "",
							"type": "uint256"
						}
					],
					"stateMutability": "view",
					"type": "function"
				},
				{
					"inputs": [],
					"name": "owner",
					"outputs": [
						{
							"internalType": "address payable",
							"name": "",
							"type": "address"
						}
					],
					"stateMutability": "view",
					"type": "function"
				},
				{
					"inputs": [],
					"name": "player",
					"outputs": [
						{
							"internalType": "address payable",
							"name": "",
							"type": "address"
						}
					],
					"stateMutability": "view",
					"type": "function"
				}
			],
			"devdoc": {
				"kind": "dev",
				"methods": {},
				"version": 1
			},
			"evm": {
				"assembly": "    /* \"Documents/Web3/Casino/002 Roulette.sol\":547:3515  contract Roulette {... */\n  mstore(0x40, 0x80)\n    /* \"Documents/Web3/Casino/002 Roulette.sol\":674:732  constructor() {... */\n  callvalue\n  dup1\n  iszero\n  tag_1\n  jumpi\n  0x00\n  dup1\n  revert\ntag_1:\n  pop\n    /* \"Documents/Web3/Casino/002 Roulette.sol\":714:724  msg.sender */\n  caller\n    /* \"Documents/Web3/Casino/002 Roulette.sol\":698:703  owner */\n  0x00\n  dup1\n    /* \"Documents/Web3/Casino/002 Roulette.sol\":698:725  owner = payable(msg.sender) */\n  0x0100\n  exp\n  dup2\n  sload\n  dup2\n  0xffffffffffffffffffffffffffffffffffffffff\n  mul\n  not\n  and\n  swap1\n  dup4\n  0xffffffffffffffffffffffffffffffffffffffff\n  and\n  mul\n  or\n  swap1\n  sstore\n  pop\n    /* \"Documents/Web3/Casino/002 Roulette.sol\":547:3515  contract Roulette {... */\n  dataSize(sub_0)\n  dup1\n  dataOffset(sub_0)\n  0x00\n  codecopy\n  0x00\n  return\nstop\n\nsub_0: assembly {\n        /* \"Documents/Web3/Casino/002 Roulette.sol\":547:3515  contract Roulette {... */\n      mstore(0x40, 0x80)\n      jumpi(tag_1, lt(calldatasize, 0x04))\n      shr(0xe0, calldataload(0x00))\n      dup1\n      0x6f4c487a\n      gt\n      tag_15\n      jumpi\n      dup1\n      0x8da5cb5b\n      gt\n      tag_16\n      jumpi\n      dup1\n      0x8da5cb5b\n      eq\n      tag_11\n      jumpi\n      dup1\n      0xe7120fd9\n      eq\n      tag_12\n      jumpi\n      dup1\n      0xe8d18212\n      eq\n      tag_13\n      jumpi\n      dup1\n      0xf855aa9e\n      eq\n      tag_14\n      jumpi\n      jump(tag_1)\n    tag_16:\n      dup1\n      0x6f4c487a\n      eq\n      tag_8\n      jumpi\n      dup1\n      0x766f8578\n      eq\n      tag_9\n      jumpi\n      dup1\n      0x85b4ba87\n      eq\n      tag_10\n      jumpi\n      jump(tag_1)\n    tag_15:\n      dup1\n      0x0b634788\n      eq\n      tag_2\n      jumpi\n      dup1\n      0x1640e34e\n      eq\n      tag_3\n      jumpi\n      dup1\n      0x29402ecb\n      eq\n      tag_4\n      jumpi\n      dup1\n      0x374ccd33\n      eq\n      tag_5\n      jumpi\n      dup1\n      0x48db5f89\n      eq\n      tag_6\n      jumpi\n      dup1\n      0x6689c33a\n      eq\n      tag_7\n      jumpi\n    tag_1:\n      0x00\n      dup1\n      revert\n        /* \"Documents/Web3/Casino/002 Roulette.sol\":2461:2680  function E_elevenToOne() payable public {... */\n    tag_2:\n      tag_17\n      tag_18\n      jump\t// in\n    tag_17:\n      stop\n        /* \"Documents/Web3/Casino/002 Roulette.sol\":1525:1788  function A_oneToOne(uint bet) payable public {... */\n    tag_3:\n      tag_19\n      0x04\n      dup1\n      calldatasize\n      sub\n      dup2\n      add\n      swap1\n      tag_20\n      swap2\n      swap1\n      tag_21\n      jump\t// in\n    tag_20:\n      tag_22\n      jump\t// in\n    tag_19:\n      stop\n        /* \"Documents/Web3/Casino/002 Roulette.sol\":1794:2010  function B_twoToOne() payable public {... */\n    tag_4:\n      tag_23\n      tag_24\n      jump\t// in\n    tag_23:\n      stop\n        /* \"Documents/Web3/Casino/002 Roulette.sol\":3400:3508  function J_getBalance() public view onlyOwner() returns (uint) {... */\n    tag_5:\n      callvalue\n      dup1\n      iszero\n      tag_25\n      jumpi\n      0x00\n      dup1\n      revert\n    tag_25:\n      pop\n      tag_26\n      tag_27\n      jump\t// in\n    tag_26:\n      mload(0x40)\n      tag_28\n      swap2\n      swap1\n      tag_29\n      jump\t// in\n    tag_28:\n      mload(0x40)\n      dup1\n      swap2\n      sub\n      swap1\n      return\n        /* \"Documents/Web3/Casino/002 Roulette.sol\":606:635  address payable public player */\n    tag_6:\n      callvalue\n      dup1\n      iszero\n      tag_30\n      jumpi\n      0x00\n      dup1\n      revert\n    tag_30:\n      pop\n      tag_31\n      tag_32\n      jump\t// in\n    tag_31:\n      mload(0x40)\n      tag_33\n      swap2\n      swap1\n      tag_34\n      jump\t// in\n    tag_33:\n      mload(0x40)\n      dup1\n      swap2\n      sub\n      swap1\n      return\n        /* \"Documents/Web3/Casino/002 Roulette.sol\":1406:1519  function AAA_test() payable public returns (uint) {... */\n    tag_7:\n      tag_35\n      tag_36\n      jump\t// in\n    tag_35:\n      mload(0x40)\n      tag_37\n      swap2\n      swap1\n      tag_29\n      jump\t// in\n    tag_37:\n      mload(0x40)\n      dup1\n      swap2\n      sub\n      swap1\n      return\n        /* \"Documents/Web3/Casino/002 Roulette.sol\":2016:2232  function C_fiveToOne() payable public {... */\n    tag_8:\n      tag_38\n      tag_39\n      jump\t// in\n    tag_38:\n      stop\n        /* \"Documents/Web3/Casino/002 Roulette.sol\":2686:2908  function F_seventeenToOne() payable public {... */\n    tag_9:\n      tag_40\n      tag_41\n      jump\t// in\n    tag_40:\n      stop\n        /* \"Documents/Web3/Casino/002 Roulette.sol\":2914:3137  function G_thirtyfiveToOne() payable public {... */\n    tag_10:\n      tag_42\n      tag_43\n      jump\t// in\n    tag_42:\n      stop\n        /* \"Documents/Web3/Casino/002 Roulette.sol\":572:600  address payable public owner */\n    tag_11:\n      callvalue\n      dup1\n      iszero\n      tag_44\n      jumpi\n      0x00\n      dup1\n      revert\n    tag_44:\n      pop\n      tag_45\n      tag_46\n      jump\t// in\n    tag_45:\n      mload(0x40)\n      tag_47\n      swap2\n      swap1\n      tag_34\n      jump\t// in\n    tag_47:\n      mload(0x40)\n      dup1\n      swap2\n      sub\n      swap1\n      return\n        /* \"Documents/Web3/Casino/002 Roulette.sol\":2238:2455  function D_eightToOne() payable public {... */\n    tag_12:\n      tag_48\n      tag_49\n      jump\t// in\n    tag_48:\n      stop\n        /* \"Documents/Web3/Casino/002 Roulette.sol\":3187:3237  function H_deposit() payable public onlyOwner() {} */\n    tag_13:\n      tag_50\n      tag_51\n      jump\t// in\n    tag_50:\n      stop\n        /* \"Documents/Web3/Casino/002 Roulette.sol\":3243:3344  function I_withdraw(uint amount) public onlyOwner() {... */\n    tag_14:\n      callvalue\n      dup1\n      iszero\n      tag_52\n      jumpi\n      0x00\n      dup1\n      revert\n    tag_52:\n      pop\n      tag_53\n      0x04\n      dup1\n      calldatasize\n      sub\n      dup2\n      add\n      swap1\n      tag_54\n      swap2\n      swap1\n      tag_21\n      jump\t// in\n    tag_54:\n      tag_55\n      jump\t// in\n    tag_53:\n      stop\n        /* \"Documents/Web3/Casino/002 Roulette.sol\":2461:2680  function E_elevenToOne() payable public {... */\n    tag_18:\n        /* \"Documents/Web3/Casino/002 Roulette.sol\":2511:2527  uint determinant */\n      0x00\n        /* \"Documents/Web3/Casino/002 Roulette.sol\":2550:2552  38 */\n      0x26\n        /* \"Documents/Web3/Casino/002 Roulette.sol\":2530:2547  getRandomNumber() */\n      tag_57\n        /* \"Documents/Web3/Casino/002 Roulette.sol\":2530:2545  getRandomNumber */\n      tag_58\n        /* \"Documents/Web3/Casino/002 Roulette.sol\":2530:2547  getRandomNumber() */\n      jump\t// in\n    tag_57:\n        /* \"Documents/Web3/Casino/002 Roulette.sol\":2530:2552  getRandomNumber() % 38 */\n      tag_59\n      swap2\n      swap1\n      tag_60\n      jump\t// in\n    tag_59:\n        /* \"Documents/Web3/Casino/002 Roulette.sol\":2511:2552  uint determinant = getRandomNumber() % 38 */\n      swap1\n      pop\n        /* \"Documents/Web3/Casino/002 Roulette.sol\":2580:2581  3 */\n      0x03\n        /* \"Documents/Web3/Casino/002 Roulette.sol\":2566:2577  determinant */\n      dup2\n        /* \"Documents/Web3/Casino/002 Roulette.sol\":2566:2581  determinant < 3 */\n      lt\n        /* \"Documents/Web3/Casino/002 Roulette.sol\":2562:2674  if (determinant < 3) {... */\n      iszero\n      tag_61\n      jumpi\n        /* \"Documents/Web3/Casino/002 Roulette.sol\":2605:2615  msg.sender */\n      caller\n        /* \"Documents/Web3/Casino/002 Roulette.sol\":2597:2625  payable(msg.sender).transfer */\n      0xffffffffffffffffffffffffffffffffffffffff\n      and\n        /* \"Documents/Web3/Casino/002 Roulette.sol\":2597:2647  payable(msg.sender).transfer(msg.value * 12 ether) */\n      0x08fc\n        /* \"Documents/Web3/Casino/002 Roulette.sol\":2638:2646  12 ether */\n      0xa688906bd8b00000\n        /* \"Documents/Web3/Casino/002 Roulette.sol\":2626:2635  msg.value */\n      callvalue\n        /* \"Documents/Web3/Casino/002 Roulette.sol\":2626:2646  msg.value * 12 ether */\n      tag_62\n      swap2\n      swap1\n      tag_63\n      jump\t// in\n    tag_62:\n        /* \"Documents/Web3/Casino/002 Roulette.sol\":2597:2647  payable(msg.sender).transfer(msg.value * 12 ether) */\n      swap1\n      dup2\n      iszero\n      mul\n      swap1\n      mload(0x40)\n      0x00\n      mload(0x40)\n      dup1\n      dup4\n      sub\n      dup2\n      dup6\n      dup9\n      dup9\n      call\n      swap4\n      pop\n      pop\n      pop\n      pop\n      iszero\n      dup1\n      iszero\n      tag_65\n      jumpi\n      returndatasize\n      0x00\n      dup1\n      returndatacopy\n      revert(0x00, returndatasize)\n    tag_65:\n      pop\n        /* \"Documents/Web3/Casino/002 Roulette.sol\":2562:2674  if (determinant < 3) {... */\n      jump(tag_66)\n    tag_61:\n    tag_66:\n        /* \"Documents/Web3/Casino/002 Roulette.sol\":2501:2680  {... */\n      pop\n        /* \"Documents/Web3/Casino/002 Roulette.sol\":2461:2680  function E_elevenToOne() payable public {... */\n      jump\t// out\n        /* \"Documents/Web3/Casino/002 Roulette.sol\":1525:1788  function A_oneToOne(uint bet) payable public {... */\n    tag_22:\n        /* \"Documents/Web3/Casino/002 Roulette.sol\":1607:1614  1 ether */\n      0x0de0b6b3a7640000\n        /* \"Documents/Web3/Casino/002 Roulette.sol\":1601:1604  bet */\n      dup2\n        /* \"Documents/Web3/Casino/002 Roulette.sol\":1601:1614  bet * 1 ether */\n      tag_68\n      swap2\n      swap1\n      tag_63\n      jump\t// in\n    tag_68:\n        /* \"Documents/Web3/Casino/002 Roulette.sol\":1588:1597  msg.value */\n      callvalue\n        /* \"Documents/Web3/Casino/002 Roulette.sol\":1588:1614  msg.value == bet * 1 ether */\n      eq\n        /* \"Documents/Web3/Casino/002 Roulette.sol\":1580:1615  require(msg.value == bet * 1 ether) */\n      tag_69\n      jumpi\n      0x00\n      dup1\n      revert\n    tag_69:\n        /* \"Documents/Web3/Casino/002 Roulette.sol\":1625:1641  uint determinant */\n      0x00\n        /* \"Documents/Web3/Casino/002 Roulette.sol\":1664:1666  38 */\n      0x26\n        /* \"Documents/Web3/Casino/002 Roulette.sol\":1644:1661  getRandomNumber() */\n      tag_70\n        /* \"Documents/Web3/Casino/002 Roulette.sol\":1644:1659  getRandomNumber */\n      tag_58\n        /* \"Documents/Web3/Casino/002 Roulette.sol\":1644:1661  getRandomNumber() */\n      jump\t// in\n    tag_70:\n        /* \"Documents/Web3/Casino/002 Roulette.sol\":1644:1666  getRandomNumber() % 38 */\n      tag_71\n      swap2\n      swap1\n      tag_60\n      jump\t// in\n    tag_71:\n        /* \"Documents/Web3/Casino/002 Roulette.sol\":1625:1666  uint determinant = getRandomNumber() % 38 */\n      swap1\n      pop\n        /* \"Documents/Web3/Casino/002 Roulette.sol\":1694:1696  18 */\n      0x12\n        /* \"Documents/Web3/Casino/002 Roulette.sol\":1680:1691  determinant */\n      dup2\n        /* \"Documents/Web3/Casino/002 Roulette.sol\":1680:1696  determinant < 18 */\n      lt\n        /* \"Documents/Web3/Casino/002 Roulette.sol\":1676:1782  if (determinant < 18) {... */\n      iszero\n      tag_72\n      jumpi\n        /* \"Documents/Web3/Casino/002 Roulette.sol\":1720:1730  msg.sender */\n      caller\n        /* \"Documents/Web3/Casino/002 Roulette.sol\":1712:1740  payable(msg.sender).transfer */\n      0xffffffffffffffffffffffffffffffffffffffff\n      and\n        /* \"Documents/Web3/Casino/002 Roulette.sol\":1712:1755  payable(msg.sender).transfer(bet * 2 ether) */\n      0x08fc\n        /* \"Documents/Web3/Casino/002 Roulette.sol\":1747:1754  2 ether */\n      0x1bc16d674ec80000\n        /* \"Documents/Web3/Casino/002 Roulette.sol\":1741:1744  bet */\n      dup5\n        /* \"Documents/Web3/Casino/002 Roulette.sol\":1741:1754  bet * 2 ether */\n      tag_73\n      swap2\n      swap1\n      tag_63\n      jump\t// in\n    tag_73:\n        /* \"Documents/Web3/Casino/002 Roulette.sol\":1712:1755  payable(msg.sender).transfer(bet * 2 ether) */\n      swap1\n      dup2\n      iszero\n      mul\n      swap1\n      mload(0x40)\n      0x00\n      mload(0x40)\n      dup1\n      dup4\n      sub\n      dup2\n      dup6\n      dup9\n      dup9\n      call\n      swap4\n      pop\n      pop\n      pop\n      pop\n      iszero\n      dup1\n      iszero\n      tag_75\n      jumpi\n      returndatasize\n      0x00\n      dup1\n      returndatacopy\n      revert(0x00, returndatasize)\n    tag_75:\n      pop\n        /* \"Documents/Web3/Casino/002 Roulette.sol\":1676:1782  if (determinant < 18) {... */\n      jump(tag_76)\n    tag_72:\n    tag_76:\n        /* \"Documents/Web3/Casino/002 Roulette.sol\":1570:1788  {... */\n      pop\n        /* \"Documents/Web3/Casino/002 Roulette.sol\":1525:1788  function A_oneToOne(uint bet) payable public {... */\n      pop\n      jump\t// out\n        /* \"Documents/Web3/Casino/002 Roulette.sol\":1794:2010  function B_twoToOne() payable public {... */\n    tag_24:\n        /* \"Documents/Web3/Casino/002 Roulette.sol\":1841:1857  uint determinant */\n      0x00\n        /* \"Documents/Web3/Casino/002 Roulette.sol\":1880:1882  38 */\n      0x26\n        /* \"Documents/Web3/Casino/002 Roulette.sol\":1860:1877  getRandomNumber() */\n      tag_78\n        /* \"Documents/Web3/Casino/002 Roulette.sol\":1860:1875  getRandomNumber */\n      tag_58\n        /* \"Documents/Web3/Casino/002 Roulette.sol\":1860:1877  getRandomNumber() */\n      jump\t// in\n    tag_78:\n        /* \"Documents/Web3/Casino/002 Roulette.sol\":1860:1882  getRandomNumber() % 38 */\n      tag_79\n      swap2\n      swap1\n      tag_60\n      jump\t// in\n    tag_79:\n        /* \"Documents/Web3/Casino/002 Roulette.sol\":1841:1882  uint determinant = getRandomNumber() % 38 */\n      swap1\n      pop\n        /* \"Documents/Web3/Casino/002 Roulette.sol\":1910:1912  12 */\n      0x0c\n        /* \"Documents/Web3/Casino/002 Roulette.sol\":1896:1907  determinant */\n      dup2\n        /* \"Documents/Web3/Casino/002 Roulette.sol\":1896:1912  determinant < 12 */\n      lt\n        /* \"Documents/Web3/Casino/002 Roulette.sol\":1892:2004  if (determinant < 12) {... */\n      iszero\n      tag_80\n      jumpi\n        /* \"Documents/Web3/Casino/002 Roulette.sol\":1936:1946  msg.sender */\n      caller\n        /* \"Documents/Web3/Casino/002 Roulette.sol\":1928:1956  payable(msg.sender).transfer */\n      0xffffffffffffffffffffffffffffffffffffffff\n      and\n        /* \"Documents/Web3/Casino/002 Roulette.sol\":1928:1977  payable(msg.sender).transfer(msg.value * 3 ether) */\n      0x08fc\n        /* \"Documents/Web3/Casino/002 Roulette.sol\":1969:1976  3 ether */\n      0x29a2241af62c0000\n        /* \"Documents/Web3/Casino/002 Roulette.sol\":1957:1966  msg.value */\n      callvalue\n        /* \"Documents/Web3/Casino/002 Roulette.sol\":1957:1976  msg.value * 3 ether */\n      tag_81\n      swap2\n      swap1\n      tag_63\n      jump\t// in\n    tag_81:\n        /* \"Documents/Web3/Casino/002 Roulette.sol\":1928:1977  payable(msg.sender).transfer(msg.value * 3 ether) */\n      swap1\n      dup2\n      iszero\n      mul\n      swap1\n      mload(0x40)\n      0x00\n      mload(0x40)\n      dup1\n      dup4\n      sub\n      dup2\n      dup6\n      dup9\n      dup9\n      call\n      swap4\n      pop\n      pop\n      pop\n      pop\n      iszero\n      dup1\n      iszero\n      tag_83\n      jumpi\n      returndatasize\n      0x00\n      dup1\n      returndatacopy\n      revert(0x00, returndatasize)\n    tag_83:\n      pop\n        /* \"Documents/Web3/Casino/002 Roulette.sol\":1892:2004  if (determinant < 12) {... */\n      jump(tag_84)\n    tag_80:\n    tag_84:\n        /* \"Documents/Web3/Casino/002 Roulette.sol\":1831:2010  {... */\n      pop\n        /* \"Documents/Web3/Casino/002 Roulette.sol\":1794:2010  function B_twoToOne() payable public {... */\n      jump\t// out\n        /* \"Documents/Web3/Casino/002 Roulette.sol\":3400:3508  function J_getBalance() public view onlyOwner() returns (uint) {... */\n    tag_27:\n        /* \"Documents/Web3/Casino/002 Roulette.sol\":3457:3461  uint */\n      0x00\n        /* \"Documents/Web3/Casino/002 Roulette.sol\":828:833  owner */\n      dup1\n      0x00\n      swap1\n      sload\n      swap1\n      0x0100\n      exp\n      swap1\n      div\n      0xffffffffffffffffffffffffffffffffffffffff\n      and\n        /* \"Documents/Web3/Casino/002 Roulette.sol\":814:833  msg.sender == owner */\n      0xffffffffffffffffffffffffffffffffffffffff\n      and\n        /* \"Documents/Web3/Casino/002 Roulette.sol\":814:824  msg.sender */\n      caller\n        /* \"Documents/Web3/Casino/002 Roulette.sol\":814:833  msg.sender == owner */\n      0xffffffffffffffffffffffffffffffffffffffff\n      and\n      eq\n        /* \"Documents/Web3/Casino/002 Roulette.sol\":806:834  require(msg.sender == owner) */\n      tag_86\n      jumpi\n      0x00\n      dup1\n      revert\n    tag_86:\n        /* \"Documents/Web3/Casino/002 Roulette.sol\":3480:3501  address(this).balance */\n      selfbalance\n        /* \"Documents/Web3/Casino/002 Roulette.sol\":3473:3501  return address(this).balance */\n      swap1\n      pop\n        /* \"Documents/Web3/Casino/002 Roulette.sol\":3400:3508  function J_getBalance() public view onlyOwner() returns (uint) {... */\n      swap1\n      jump\t// out\n        /* \"Documents/Web3/Casino/002 Roulette.sol\":606:635  address payable public player */\n    tag_32:\n      0x01\n      0x00\n      swap1\n      sload\n      swap1\n      0x0100\n      exp\n      swap1\n      div\n      0xffffffffffffffffffffffffffffffffffffffff\n      and\n      dup2\n      jump\t// out\n        /* \"Documents/Web3/Casino/002 Roulette.sol\":1406:1519  function AAA_test() payable public returns (uint) {... */\n    tag_36:\n        /* \"Documents/Web3/Casino/002 Roulette.sol\":1450:1454  uint */\n      0x00\n        /* \"Documents/Web3/Casino/002 Roulette.sol\":1466:1477  uint amount */\n      dup1\n        /* \"Documents/Web3/Casino/002 Roulette.sol\":1480:1489  msg.value */\n      callvalue\n        /* \"Documents/Web3/Casino/002 Roulette.sol\":1466:1489  uint amount = msg.value */\n      swap1\n      pop\n        /* \"Documents/Web3/Casino/002 Roulette.sol\":1506:1512  amount */\n      dup1\n        /* \"Documents/Web3/Casino/002 Roulette.sol\":1499:1512  return amount */\n      swap2\n      pop\n      pop\n        /* \"Documents/Web3/Casino/002 Roulette.sol\":1406:1519  function AAA_test() payable public returns (uint) {... */\n      swap1\n      jump\t// out\n        /* \"Documents/Web3/Casino/002 Roulette.sol\":2016:2232  function C_fiveToOne() payable public {... */\n    tag_39:\n        /* \"Documents/Web3/Casino/002 Roulette.sol\":2064:2080  uint determinant */\n      0x00\n        /* \"Documents/Web3/Casino/002 Roulette.sol\":2103:2105  38 */\n      0x26\n        /* \"Documents/Web3/Casino/002 Roulette.sol\":2083:2100  getRandomNumber() */\n      tag_90\n        /* \"Documents/Web3/Casino/002 Roulette.sol\":2083:2098  getRandomNumber */\n      tag_58\n        /* \"Documents/Web3/Casino/002 Roulette.sol\":2083:2100  getRandomNumber() */\n      jump\t// in\n    tag_90:\n        /* \"Documents/Web3/Casino/002 Roulette.sol\":2083:2105  getRandomNumber() % 38 */\n      tag_91\n      swap2\n      swap1\n      tag_60\n      jump\t// in\n    tag_91:\n        /* \"Documents/Web3/Casino/002 Roulette.sol\":2064:2105  uint determinant = getRandomNumber() % 38 */\n      swap1\n      pop\n        /* \"Documents/Web3/Casino/002 Roulette.sol\":2133:2134  6 */\n      0x06\n        /* \"Documents/Web3/Casino/002 Roulette.sol\":2119:2130  determinant */\n      dup2\n        /* \"Documents/Web3/Casino/002 Roulette.sol\":2119:2134  determinant < 6 */\n      lt\n        /* \"Documents/Web3/Casino/002 Roulette.sol\":2115:2226  if (determinant < 6) {... */\n      iszero\n      tag_92\n      jumpi\n        /* \"Documents/Web3/Casino/002 Roulette.sol\":2158:2168  msg.sender */\n      caller\n        /* \"Documents/Web3/Casino/002 Roulette.sol\":2150:2178  payable(msg.sender).transfer */\n      0xffffffffffffffffffffffffffffffffffffffff\n      and\n        /* \"Documents/Web3/Casino/002 Roulette.sol\":2150:2199  payable(msg.sender).transfer(msg.value * 6 ether) */\n      0x08fc\n        /* \"Documents/Web3/Casino/002 Roulette.sol\":2191:2198  6 ether */\n      0x53444835ec580000\n        /* \"Documents/Web3/Casino/002 Roulette.sol\":2179:2188  msg.value */\n      callvalue\n        /* \"Documents/Web3/Casino/002 Roulette.sol\":2179:2198  msg.value * 6 ether */\n      tag_93\n      swap2\n      swap1\n      tag_63\n      jump\t// in\n    tag_93:\n        /* \"Documents/Web3/Casino/002 Roulette.sol\":2150:2199  payable(msg.sender).transfer(msg.value * 6 ether) */\n      swap1\n      dup2\n      iszero\n      mul\n      swap1\n      mload(0x40)\n      0x00\n      mload(0x40)\n      dup1\n      dup4\n      sub\n      dup2\n      dup6\n      dup9\n      dup9\n      call\n      swap4\n      pop\n      pop\n      pop\n      pop\n      iszero\n      dup1\n      iszero\n      tag_95\n      jumpi\n      returndatasize\n      0x00\n      dup1\n      returndatacopy\n      revert(0x00, returndatasize)\n    tag_95:\n      pop\n        /* \"Documents/Web3/Casino/002 Roulette.sol\":2115:2226  if (determinant < 6) {... */\n      jump(tag_96)\n    tag_92:\n    tag_96:\n        /* \"Documents/Web3/Casino/002 Roulette.sol\":2054:2232  {... */\n      pop\n        /* \"Documents/Web3/Casino/002 Roulette.sol\":2016:2232  function C_fiveToOne() payable public {... */\n      jump\t// out\n        /* \"Documents/Web3/Casino/002 Roulette.sol\":2686:2908  function F_seventeenToOne() payable public {... */\n    tag_41:\n        /* \"Documents/Web3/Casino/002 Roulette.sol\":2739:2755  uint determinant */\n      0x00\n        /* \"Documents/Web3/Casino/002 Roulette.sol\":2778:2780  38 */\n      0x26\n        /* \"Documents/Web3/Casino/002 Roulette.sol\":2758:2775  getRandomNumber() */\n      tag_98\n        /* \"Documents/Web3/Casino/002 Roulette.sol\":2758:2773  getRandomNumber */\n      tag_58\n        /* \"Documents/Web3/Casino/002 Roulette.sol\":2758:2775  getRandomNumber() */\n      jump\t// in\n    tag_98:\n        /* \"Documents/Web3/Casino/002 Roulette.sol\":2758:2780  getRandomNumber() % 38 */\n      tag_99\n      swap2\n      swap1\n      tag_60\n      jump\t// in\n    tag_99:\n        /* \"Documents/Web3/Casino/002 Roulette.sol\":2739:2780  uint determinant = getRandomNumber() % 38 */\n      swap1\n      pop\n        /* \"Documents/Web3/Casino/002 Roulette.sol\":2808:2809  2 */\n      0x02\n        /* \"Documents/Web3/Casino/002 Roulette.sol\":2794:2805  determinant */\n      dup2\n        /* \"Documents/Web3/Casino/002 Roulette.sol\":2794:2809  determinant < 2 */\n      lt\n        /* \"Documents/Web3/Casino/002 Roulette.sol\":2790:2902  if (determinant < 2) {... */\n      iszero\n      tag_100\n      jumpi\n        /* \"Documents/Web3/Casino/002 Roulette.sol\":2833:2843  msg.sender */\n      caller\n        /* \"Documents/Web3/Casino/002 Roulette.sol\":2825:2853  payable(msg.sender).transfer */\n      0xffffffffffffffffffffffffffffffffffffffff\n      and\n        /* \"Documents/Web3/Casino/002 Roulette.sol\":2825:2875  payable(msg.sender).transfer(msg.value * 18 ether) */\n      0x08fc\n        /* \"Documents/Web3/Casino/002 Roulette.sol\":2866:2874  18 ether */\n      0xf9ccd8a1c5080000\n        /* \"Documents/Web3/Casino/002 Roulette.sol\":2854:2863  msg.value */\n      callvalue\n        /* \"Documents/Web3/Casino/002 Roulette.sol\":2854:2874  msg.value * 18 ether */\n      tag_101\n      swap2\n      swap1\n      tag_63\n      jump\t// in\n    tag_101:\n        /* \"Documents/Web3/Casino/002 Roulette.sol\":2825:2875  payable(msg.sender).transfer(msg.value * 18 ether) */\n      swap1\n      dup2\n      iszero\n      mul\n      swap1\n      mload(0x40)\n      0x00\n      mload(0x40)\n      dup1\n      dup4\n      sub\n      dup2\n      dup6\n      dup9\n      dup9\n      call\n      swap4\n      pop\n      pop\n      pop\n      pop\n      iszero\n      dup1\n      iszero\n      tag_103\n      jumpi\n      returndatasize\n      0x00\n      dup1\n      returndatacopy\n      revert(0x00, returndatasize)\n    tag_103:\n      pop\n        /* \"Documents/Web3/Casino/002 Roulette.sol\":2790:2902  if (determinant < 2) {... */\n      jump(tag_104)\n    tag_100:\n    tag_104:\n        /* \"Documents/Web3/Casino/002 Roulette.sol\":2729:2908  {... */\n      pop\n        /* \"Documents/Web3/Casino/002 Roulette.sol\":2686:2908  function F_seventeenToOne() payable public {... */\n      jump\t// out\n        /* \"Documents/Web3/Casino/002 Roulette.sol\":2914:3137  function G_thirtyfiveToOne() payable public {... */\n    tag_43:\n        /* \"Documents/Web3/Casino/002 Roulette.sol\":2968:2984  uint determinant */\n      0x00\n        /* \"Documents/Web3/Casino/002 Roulette.sol\":3007:3009  38 */\n      0x26\n        /* \"Documents/Web3/Casino/002 Roulette.sol\":2987:3004  getRandomNumber() */\n      tag_106\n        /* \"Documents/Web3/Casino/002 Roulette.sol\":2987:3002  getRandomNumber */\n      tag_58\n        /* \"Documents/Web3/Casino/002 Roulette.sol\":2987:3004  getRandomNumber() */\n      jump\t// in\n    tag_106:\n        /* \"Documents/Web3/Casino/002 Roulette.sol\":2987:3009  getRandomNumber() % 38 */\n      tag_107\n      swap2\n      swap1\n      tag_60\n      jump\t// in\n    tag_107:\n        /* \"Documents/Web3/Casino/002 Roulette.sol\":2968:3009  uint determinant = getRandomNumber() % 38 */\n      swap1\n      pop\n        /* \"Documents/Web3/Casino/002 Roulette.sol\":3037:3038  1 */\n      0x01\n        /* \"Documents/Web3/Casino/002 Roulette.sol\":3023:3034  determinant */\n      dup2\n        /* \"Documents/Web3/Casino/002 Roulette.sol\":3023:3038  determinant < 1 */\n      lt\n        /* \"Documents/Web3/Casino/002 Roulette.sol\":3019:3131  if (determinant < 1) {... */\n      iszero\n      tag_108\n      jumpi\n        /* \"Documents/Web3/Casino/002 Roulette.sol\":3062:3072  msg.sender */\n      caller\n        /* \"Documents/Web3/Casino/002 Roulette.sol\":3054:3082  payable(msg.sender).transfer */\n      0xffffffffffffffffffffffffffffffffffffffff\n      and\n        /* \"Documents/Web3/Casino/002 Roulette.sol\":3054:3104  payable(msg.sender).transfer(msg.value * 36 ether) */\n      0x08fc\n        /* \"Documents/Web3/Casino/002 Roulette.sol\":3095:3103  36 ether */\n      0x01f399b1438a100000\n        /* \"Documents/Web3/Casino/002 Roulette.sol\":3083:3092  msg.value */\n      callvalue\n        /* \"Documents/Web3/Casino/002 Roulette.sol\":3083:3103  msg.value * 36 ether */\n      tag_109\n      swap2\n      swap1\n      tag_63\n      jump\t// in\n    tag_109:\n        /* \"Documents/Web3/Casino/002 Roulette.sol\":3054:3104  payable(msg.sender).transfer(msg.value * 36 ether) */\n      swap1\n      dup2\n      iszero\n      mul\n      swap1\n      mload(0x40)\n      0x00\n      mload(0x40)\n      dup1\n      dup4\n      sub\n      dup2\n      dup6\n      dup9\n      dup9\n      call\n      swap4\n      pop\n      pop\n      pop\n      pop\n      iszero\n      dup1\n      iszero\n      tag_111\n      jumpi\n      returndatasize\n      0x00\n      dup1\n      returndatacopy\n      revert(0x00, returndatasize)\n    tag_111:\n      pop\n        /* \"Documents/Web3/Casino/002 Roulette.sol\":3019:3131  if (determinant < 1) {... */\n      jump(tag_112)\n    tag_108:\n    tag_112:\n        /* \"Documents/Web3/Casino/002 Roulette.sol\":2958:3137  {... */\n      pop\n        /* \"Documents/Web3/Casino/002 Roulette.sol\":2914:3137  function G_thirtyfiveToOne() payable public {... */\n      jump\t// out\n        /* \"Documents/Web3/Casino/002 Roulette.sol\":572:600  address payable public owner */\n    tag_46:\n      0x00\n      dup1\n      sload\n      swap1\n      0x0100\n      exp\n      swap1\n      div\n      0xffffffffffffffffffffffffffffffffffffffff\n      and\n      dup2\n      jump\t// out\n        /* \"Documents/Web3/Casino/002 Roulette.sol\":2238:2455  function D_eightToOne() payable public {... */\n    tag_49:\n        /* \"Documents/Web3/Casino/002 Roulette.sol\":2287:2303  uint determinant */\n      0x00\n        /* \"Documents/Web3/Casino/002 Roulette.sol\":2326:2328  38 */\n      0x26\n        /* \"Documents/Web3/Casino/002 Roulette.sol\":2306:2323  getRandomNumber() */\n      tag_114\n        /* \"Documents/Web3/Casino/002 Roulette.sol\":2306:2321  getRandomNumber */\n      tag_58\n        /* \"Documents/Web3/Casino/002 Roulette.sol\":2306:2323  getRandomNumber() */\n      jump\t// in\n    tag_114:\n        /* \"Documents/Web3/Casino/002 Roulette.sol\":2306:2328  getRandomNumber() % 38 */\n      tag_115\n      swap2\n      swap1\n      tag_60\n      jump\t// in\n    tag_115:\n        /* \"Documents/Web3/Casino/002 Roulette.sol\":2287:2328  uint determinant = getRandomNumber() % 38 */\n      swap1\n      pop\n        /* \"Documents/Web3/Casino/002 Roulette.sol\":2356:2357  4 */\n      0x04\n        /* \"Documents/Web3/Casino/002 Roulette.sol\":2342:2353  determinant */\n      dup2\n        /* \"Documents/Web3/Casino/002 Roulette.sol\":2342:2357  determinant < 4 */\n      lt\n        /* \"Documents/Web3/Casino/002 Roulette.sol\":2338:2449  if (determinant < 4) {... */\n      iszero\n      tag_116\n      jumpi\n        /* \"Documents/Web3/Casino/002 Roulette.sol\":2381:2391  msg.sender */\n      caller\n        /* \"Documents/Web3/Casino/002 Roulette.sol\":2373:2401  payable(msg.sender).transfer */\n      0xffffffffffffffffffffffffffffffffffffffff\n      and\n        /* \"Documents/Web3/Casino/002 Roulette.sol\":2373:2422  payable(msg.sender).transfer(msg.value * 9 ether) */\n      0x08fc\n        /* \"Documents/Web3/Casino/002 Roulette.sol\":2414:2421  9 ether */\n      0x7ce66c50e2840000\n        /* \"Documents/Web3/Casino/002 Roulette.sol\":2402:2411  msg.value */\n      callvalue\n        /* \"Documents/Web3/Casino/002 Roulette.sol\":2402:2421  msg.value * 9 ether */\n      tag_117\n      swap2\n      swap1\n      tag_63\n      jump\t// in\n    tag_117:\n        /* \"Documents/Web3/Casino/002 Roulette.sol\":2373:2422  payable(msg.sender).transfer(msg.value * 9 ether) */\n      swap1\n      dup2\n      iszero\n      mul\n      swap1\n      mload(0x40)\n      0x00\n      mload(0x40)\n      dup1\n      dup4\n      sub\n      dup2\n      dup6\n      dup9\n      dup9\n      call\n      swap4\n      pop\n      pop\n      pop\n      pop\n      iszero\n      dup1\n      iszero\n      tag_119\n      jumpi\n      returndatasize\n      0x00\n      dup1\n      returndatacopy\n      revert(0x00, returndatasize)\n    tag_119:\n      pop\n        /* \"Documents/Web3/Casino/002 Roulette.sol\":2338:2449  if (determinant < 4) {... */\n      jump(tag_120)\n    tag_116:\n    tag_120:\n        /* \"Documents/Web3/Casino/002 Roulette.sol\":2277:2455  {... */\n      pop\n        /* \"Documents/Web3/Casino/002 Roulette.sol\":2238:2455  function D_eightToOne() payable public {... */\n      jump\t// out\n        /* \"Documents/Web3/Casino/002 Roulette.sol\":3187:3237  function H_deposit() payable public onlyOwner() {} */\n    tag_51:\n        /* \"Documents/Web3/Casino/002 Roulette.sol\":828:833  owner */\n      0x00\n      dup1\n      sload\n      swap1\n      0x0100\n      exp\n      swap1\n      div\n      0xffffffffffffffffffffffffffffffffffffffff\n      and\n        /* \"Documents/Web3/Casino/002 Roulette.sol\":814:833  msg.sender == owner */\n      0xffffffffffffffffffffffffffffffffffffffff\n      and\n        /* \"Documents/Web3/Casino/002 Roulette.sol\":814:824  msg.sender */\n      caller\n        /* \"Documents/Web3/Casino/002 Roulette.sol\":814:833  msg.sender == owner */\n      0xffffffffffffffffffffffffffffffffffffffff\n      and\n      eq\n        /* \"Documents/Web3/Casino/002 Roulette.sol\":806:834  require(msg.sender == owner) */\n      tag_122\n      jumpi\n      0x00\n      dup1\n      revert\n    tag_122:\n        /* \"Documents/Web3/Casino/002 Roulette.sol\":3187:3237  function H_deposit() payable public onlyOwner() {} */\n      jump\t// out\n        /* \"Documents/Web3/Casino/002 Roulette.sol\":3243:3344  function I_withdraw(uint amount) public onlyOwner() {... */\n    tag_55:\n        /* \"Documents/Web3/Casino/002 Roulette.sol\":828:833  owner */\n      0x00\n      dup1\n      sload\n      swap1\n      0x0100\n      exp\n      swap1\n      div\n      0xffffffffffffffffffffffffffffffffffffffff\n      and\n        /* \"Documents/Web3/Casino/002 Roulette.sol\":814:833  msg.sender == owner */\n      0xffffffffffffffffffffffffffffffffffffffff\n      and\n        /* \"Documents/Web3/Casino/002 Roulette.sol\":814:824  msg.sender */\n      caller\n        /* \"Documents/Web3/Casino/002 Roulette.sol\":814:833  msg.sender == owner */\n      0xffffffffffffffffffffffffffffffffffffffff\n      and\n      eq\n        /* \"Documents/Web3/Casino/002 Roulette.sol\":806:834  require(msg.sender == owner) */\n      tag_125\n      jumpi\n      0x00\n      dup1\n      revert\n    tag_125:\n        /* \"Documents/Web3/Casino/002 Roulette.sol\":3305:3310  owner */\n      0x00\n      dup1\n      sload\n      swap1\n      0x0100\n      exp\n      swap1\n      div\n      0xffffffffffffffffffffffffffffffffffffffff\n      and\n        /* \"Documents/Web3/Casino/002 Roulette.sol\":3305:3319  owner.transfer */\n      0xffffffffffffffffffffffffffffffffffffffff\n      and\n        /* \"Documents/Web3/Casino/002 Roulette.sol\":3305:3337  owner.transfer(amount * 1 ether) */\n      0x08fc\n        /* \"Documents/Web3/Casino/002 Roulette.sol\":3329:3336  1 ether */\n      0x0de0b6b3a7640000\n        /* \"Documents/Web3/Casino/002 Roulette.sol\":3320:3326  amount */\n      dup4\n        /* \"Documents/Web3/Casino/002 Roulette.sol\":3320:3336  amount * 1 ether */\n      tag_127\n      swap2\n      swap1\n      tag_63\n      jump\t// in\n    tag_127:\n        /* \"Documents/Web3/Casino/002 Roulette.sol\":3305:3337  owner.transfer(amount * 1 ether) */\n      swap1\n      dup2\n      iszero\n      mul\n      swap1\n      mload(0x40)\n      0x00\n      mload(0x40)\n      dup1\n      dup4\n      sub\n      dup2\n      dup6\n      dup9\n      dup9\n      call\n      swap4\n      pop\n      pop\n      pop\n      pop\n      iszero\n      dup1\n      iszero\n      tag_129\n      jumpi\n      returndatasize\n      0x00\n      dup1\n      returndatacopy\n      revert(0x00, returndatasize)\n    tag_129:\n      pop\n        /* \"Documents/Web3/Casino/002 Roulette.sol\":3243:3344  function I_withdraw(uint amount) public onlyOwner() {... */\n      pop\n      jump\t// out\n        /* \"Documents/Web3/Casino/002 Roulette.sol\":1025:1195  function getRandomNumber() private view returns (uint) {... */\n    tag_58:\n        /* \"Documents/Web3/Casino/002 Roulette.sol\":1074:1078  uint */\n      0x00\n        /* \"Documents/Web3/Casino/002 Roulette.sol\":1129:1150  address(this).balance */\n      selfbalance\n        /* \"Documents/Web3/Casino/002 Roulette.sol\":1152:1167  block.timestamp */\n      timestamp\n        /* \"Documents/Web3/Casino/002 Roulette.sol\":1169:1185  block.difficulty */\n      difficulty\n        /* \"Documents/Web3/Casino/002 Roulette.sol\":1112:1186  abi.encodePacked(address(this).balance, block.timestamp, block.difficulty) */\n      add(0x20, mload(0x40))\n      tag_131\n      swap4\n      swap3\n      swap2\n      swap1\n      tag_132\n      jump\t// in\n    tag_131:\n      mload(0x40)\n      0x20\n      dup2\n      dup4\n      sub\n      sub\n      dup2\n      mstore\n      swap1\n      0x40\n      mstore\n        /* \"Documents/Web3/Casino/002 Roulette.sol\":1102:1187  keccak256(abi.encodePacked(address(this).balance, block.timestamp, block.difficulty)) */\n      dup1\n      mload\n      swap1\n      0x20\n      add\n      keccak256\n        /* \"Documents/Web3/Casino/002 Roulette.sol\":1097:1188  uint(keccak256(abi.encodePacked(address(this).balance, block.timestamp, block.difficulty))) */\n      0x00\n      shr\n        /* \"Documents/Web3/Casino/002 Roulette.sol\":1090:1188  return uint(keccak256(abi.encodePacked(address(this).balance, block.timestamp, block.difficulty))) */\n      swap1\n      pop\n        /* \"Documents/Web3/Casino/002 Roulette.sol\":1025:1195  function getRandomNumber() private view returns (uint) {... */\n      swap1\n      jump\t// out\n        /* \"#utility.yul\":88:205   */\n    tag_134:\n        /* \"#utility.yul\":197:198   */\n      0x00\n        /* \"#utility.yul\":194:195   */\n      dup1\n        /* \"#utility.yul\":187:199   */\n      revert\n        /* \"#utility.yul\":334:411   */\n    tag_136:\n        /* \"#utility.yul\":371:378   */\n      0x00\n        /* \"#utility.yul\":400:405   */\n      dup2\n        /* \"#utility.yul\":389:405   */\n      swap1\n      pop\n        /* \"#utility.yul\":334:411   */\n      swap2\n      swap1\n      pop\n      jump\t// out\n        /* \"#utility.yul\":417:539   */\n    tag_137:\n        /* \"#utility.yul\":490:514   */\n      tag_153\n        /* \"#utility.yul\":508:513   */\n      dup2\n        /* \"#utility.yul\":490:514   */\n      tag_136\n      jump\t// in\n    tag_153:\n        /* \"#utility.yul\":483:488   */\n      dup2\n        /* \"#utility.yul\":480:515   */\n      eq\n        /* \"#utility.yul\":470:533   */\n      tag_154\n      jumpi\n        /* \"#utility.yul\":529:530   */\n      0x00\n        /* \"#utility.yul\":526:527   */\n      dup1\n        /* \"#utility.yul\":519:531   */\n      revert\n        /* \"#utility.yul\":470:533   */\n    tag_154:\n        /* \"#utility.yul\":417:539   */\n      pop\n      jump\t// out\n        /* \"#utility.yul\":545:684   */\n    tag_138:\n        /* \"#utility.yul\":591:596   */\n      0x00\n        /* \"#utility.yul\":629:635   */\n      dup2\n        /* \"#utility.yul\":616:636   */\n      calldataload\n        /* \"#utility.yul\":607:636   */\n      swap1\n      pop\n        /* \"#utility.yul\":645:678   */\n      tag_156\n        /* \"#utility.yul\":672:677   */\n      dup2\n        /* \"#utility.yul\":645:678   */\n      tag_137\n      jump\t// in\n    tag_156:\n        /* \"#utility.yul\":545:684   */\n      swap3\n      swap2\n      pop\n      pop\n      jump\t// out\n        /* \"#utility.yul\":690:1019   */\n    tag_21:\n        /* \"#utility.yul\":749:755   */\n      0x00\n        /* \"#utility.yul\":798:800   */\n      0x20\n        /* \"#utility.yul\":786:795   */\n      dup3\n        /* \"#utility.yul\":777:784   */\n      dup5\n        /* \"#utility.yul\":773:796   */\n      sub\n        /* \"#utility.yul\":769:801   */\n      slt\n        /* \"#utility.yul\":766:885   */\n      iszero\n      tag_158\n      jumpi\n        /* \"#utility.yul\":804:883   */\n      tag_159\n      tag_134\n      jump\t// in\n    tag_159:\n        /* \"#utility.yul\":766:885   */\n    tag_158:\n        /* \"#utility.yul\":924:925   */\n      0x00\n        /* \"#utility.yul\":949:1002   */\n      tag_160\n        /* \"#utility.yul\":994:1001   */\n      dup5\n        /* \"#utility.yul\":985:991   */\n      dup3\n        /* \"#utility.yul\":974:983   */\n      dup6\n        /* \"#utility.yul\":970:992   */\n      add\n        /* \"#utility.yul\":949:1002   */\n      tag_138\n      jump\t// in\n    tag_160:\n        /* \"#utility.yul\":939:1002   */\n      swap2\n      pop\n        /* \"#utility.yul\":895:1012   */\n      pop\n        /* \"#utility.yul\":690:1019   */\n      swap3\n      swap2\n      pop\n      pop\n      jump\t// out\n        /* \"#utility.yul\":1025:1143   */\n    tag_139:\n        /* \"#utility.yul\":1112:1136   */\n      tag_162\n        /* \"#utility.yul\":1130:1135   */\n      dup2\n        /* \"#utility.yul\":1112:1136   */\n      tag_136\n      jump\t// in\n    tag_162:\n        /* \"#utility.yul\":1107:1110   */\n      dup3\n        /* \"#utility.yul\":1100:1137   */\n      mstore\n        /* \"#utility.yul\":1025:1143   */\n      pop\n      pop\n      jump\t// out\n        /* \"#utility.yul\":1149:1371   */\n    tag_29:\n        /* \"#utility.yul\":1242:1246   */\n      0x00\n        /* \"#utility.yul\":1280:1282   */\n      0x20\n        /* \"#utility.yul\":1269:1278   */\n      dup3\n        /* \"#utility.yul\":1265:1283   */\n      add\n        /* \"#utility.yul\":1257:1283   */\n      swap1\n      pop\n        /* \"#utility.yul\":1293:1364   */\n      tag_164\n        /* \"#utility.yul\":1361:1362   */\n      0x00\n        /* \"#utility.yul\":1350:1359   */\n      dup4\n        /* \"#utility.yul\":1346:1363   */\n      add\n        /* \"#utility.yul\":1337:1343   */\n      dup5\n        /* \"#utility.yul\":1293:1364   */\n      tag_139\n      jump\t// in\n    tag_164:\n        /* \"#utility.yul\":1149:1371   */\n      swap3\n      swap2\n      pop\n      pop\n      jump\t// out\n        /* \"#utility.yul\":1377:1503   */\n    tag_140:\n        /* \"#utility.yul\":1414:1421   */\n      0x00\n        /* \"#utility.yul\":1454:1496   */\n      0xffffffffffffffffffffffffffffffffffffffff\n        /* \"#utility.yul\":1447:1452   */\n      dup3\n        /* \"#utility.yul\":1443:1497   */\n      and\n        /* \"#utility.yul\":1432:1497   */\n      swap1\n      pop\n        /* \"#utility.yul\":1377:1503   */\n      swap2\n      swap1\n      pop\n      jump\t// out\n        /* \"#utility.yul\":1509:1613   */\n    tag_141:\n        /* \"#utility.yul\":1554:1561   */\n      0x00\n        /* \"#utility.yul\":1583:1607   */\n      tag_167\n        /* \"#utility.yul\":1601:1606   */\n      dup3\n        /* \"#utility.yul\":1583:1607   */\n      tag_140\n      jump\t// in\n    tag_167:\n        /* \"#utility.yul\":1572:1607   */\n      swap1\n      pop\n        /* \"#utility.yul\":1509:1613   */\n      swap2\n      swap1\n      pop\n      jump\t// out\n        /* \"#utility.yul\":1619:1761   */\n    tag_142:\n        /* \"#utility.yul\":1722:1754   */\n      tag_169\n        /* \"#utility.yul\":1748:1753   */\n      dup2\n        /* \"#utility.yul\":1722:1754   */\n      tag_141\n      jump\t// in\n    tag_169:\n        /* \"#utility.yul\":1717:1720   */\n      dup3\n        /* \"#utility.yul\":1710:1755   */\n      mstore\n        /* \"#utility.yul\":1619:1761   */\n      pop\n      pop\n      jump\t// out\n        /* \"#utility.yul\":1767:2021   */\n    tag_34:\n        /* \"#utility.yul\":1876:1880   */\n      0x00\n        /* \"#utility.yul\":1914:1916   */\n      0x20\n        /* \"#utility.yul\":1903:1912   */\n      dup3\n        /* \"#utility.yul\":1899:1917   */\n      add\n        /* \"#utility.yul\":1891:1917   */\n      swap1\n      pop\n        /* \"#utility.yul\":1927:2014   */\n      tag_171\n        /* \"#utility.yul\":2011:2012   */\n      0x00\n        /* \"#utility.yul\":2000:2009   */\n      dup4\n        /* \"#utility.yul\":1996:2013   */\n      add\n        /* \"#utility.yul\":1987:1993   */\n      dup5\n        /* \"#utility.yul\":1927:2014   */\n      tag_142\n      jump\t// in\n    tag_171:\n        /* \"#utility.yul\":1767:2021   */\n      swap3\n      swap2\n      pop\n      pop\n      jump\t// out\n        /* \"#utility.yul\":2027:2207   */\n    tag_143:\n        /* \"#utility.yul\":2075:2152   */\n      0x4e487b7100000000000000000000000000000000000000000000000000000000\n        /* \"#utility.yul\":2072:2073   */\n      0x00\n        /* \"#utility.yul\":2065:2153   */\n      mstore\n        /* \"#utility.yul\":2172:2176   */\n      0x12\n        /* \"#utility.yul\":2169:2170   */\n      0x04\n        /* \"#utility.yul\":2162:2177   */\n      mstore\n        /* \"#utility.yul\":2196:2200   */\n      0x24\n        /* \"#utility.yul\":2193:2194   */\n      0x00\n        /* \"#utility.yul\":2186:2201   */\n      revert\n        /* \"#utility.yul\":2213:2389   */\n    tag_60:\n        /* \"#utility.yul\":2245:2246   */\n      0x00\n        /* \"#utility.yul\":2262:2282   */\n      tag_174\n        /* \"#utility.yul\":2280:2281   */\n      dup3\n        /* \"#utility.yul\":2262:2282   */\n      tag_136\n      jump\t// in\n    tag_174:\n        /* \"#utility.yul\":2257:2282   */\n      swap2\n      pop\n        /* \"#utility.yul\":2296:2316   */\n      tag_175\n        /* \"#utility.yul\":2314:2315   */\n      dup4\n        /* \"#utility.yul\":2296:2316   */\n      tag_136\n      jump\t// in\n    tag_175:\n        /* \"#utility.yul\":2291:2316   */\n      swap3\n      pop\n        /* \"#utility.yul\":2335:2336   */\n      dup3\n        /* \"#utility.yul\":2325:2360   */\n      tag_176\n      jumpi\n        /* \"#utility.yul\":2340:2358   */\n      tag_177\n      tag_143\n      jump\t// in\n    tag_177:\n        /* \"#utility.yul\":2325:2360   */\n    tag_176:\n        /* \"#utility.yul\":2381:2382   */\n      dup3\n        /* \"#utility.yul\":2378:2379   */\n      dup3\n        /* \"#utility.yul\":2374:2383   */\n      mod\n        /* \"#utility.yul\":2369:2383   */\n      swap1\n      pop\n        /* \"#utility.yul\":2213:2389   */\n      swap3\n      swap2\n      pop\n      pop\n      jump\t// out\n        /* \"#utility.yul\":2395:2575   */\n    tag_144:\n        /* \"#utility.yul\":2443:2520   */\n      0x4e487b7100000000000000000000000000000000000000000000000000000000\n        /* \"#utility.yul\":2440:2441   */\n      0x00\n        /* \"#utility.yul\":2433:2521   */\n      mstore\n        /* \"#utility.yul\":2540:2544   */\n      0x11\n        /* \"#utility.yul\":2537:2538   */\n      0x04\n        /* \"#utility.yul\":2530:2545   */\n      mstore\n        /* \"#utility.yul\":2564:2568   */\n      0x24\n        /* \"#utility.yul\":2561:2562   */\n      0x00\n        /* \"#utility.yul\":2554:2569   */\n      revert\n        /* \"#utility.yul\":2581:2929   */\n    tag_63:\n        /* \"#utility.yul\":2621:2628   */\n      0x00\n        /* \"#utility.yul\":2644:2664   */\n      tag_180\n        /* \"#utility.yul\":2662:2663   */\n      dup3\n        /* \"#utility.yul\":2644:2664   */\n      tag_136\n      jump\t// in\n    tag_180:\n        /* \"#utility.yul\":2639:2664   */\n      swap2\n      pop\n        /* \"#utility.yul\":2678:2698   */\n      tag_181\n        /* \"#utility.yul\":2696:2697   */\n      dup4\n        /* \"#utility.yul\":2678:2698   */\n      tag_136\n      jump\t// in\n    tag_181:\n        /* \"#utility.yul\":2673:2698   */\n      swap3\n      pop\n        /* \"#utility.yul\":2866:2867   */\n      dup2\n        /* \"#utility.yul\":2798:2864   */\n      0xffffffffffffffffffffffffffffffffffffffffffffffffffffffffffffffff\n        /* \"#utility.yul\":2794:2868   */\n      div\n        /* \"#utility.yul\":2791:2792   */\n      dup4\n        /* \"#utility.yul\":2788:2869   */\n      gt\n        /* \"#utility.yul\":2783:2784   */\n      dup3\n        /* \"#utility.yul\":2776:2785   */\n      iszero\n        /* \"#utility.yul\":2769:2786   */\n      iszero\n        /* \"#utility.yul\":2765:2870   */\n      and\n        /* \"#utility.yul\":2762:2893   */\n      iszero\n      tag_182\n      jumpi\n        /* \"#utility.yul\":2873:2891   */\n      tag_183\n      tag_144\n      jump\t// in\n    tag_183:\n        /* \"#utility.yul\":2762:2893   */\n    tag_182:\n        /* \"#utility.yul\":2921:2922   */\n      dup3\n        /* \"#utility.yul\":2918:2919   */\n      dup3\n        /* \"#utility.yul\":2914:2923   */\n      mul\n        /* \"#utility.yul\":2903:2923   */\n      swap1\n      pop\n        /* \"#utility.yul\":2581:2929   */\n      swap3\n      swap2\n      pop\n      pop\n      jump\t// out\n        /* \"#utility.yul\":2935:3014   */\n    tag_145:\n        /* \"#utility.yul\":2974:2981   */\n      0x00\n        /* \"#utility.yul\":3003:3008   */\n      dup2\n        /* \"#utility.yul\":2992:3008   */\n      swap1\n      pop\n        /* \"#utility.yul\":2935:3014   */\n      swap2\n      swap1\n      pop\n      jump\t// out\n        /* \"#utility.yul\":3020:3177   */\n    tag_146:\n        /* \"#utility.yul\":3125:3170   */\n      tag_186\n        /* \"#utility.yul\":3145:3169   */\n      tag_187\n        /* \"#utility.yul\":3163:3168   */\n      dup3\n        /* \"#utility.yul\":3145:3169   */\n      tag_136\n      jump\t// in\n    tag_187:\n        /* \"#utility.yul\":3125:3170   */\n      tag_145\n      jump\t// in\n    tag_186:\n        /* \"#utility.yul\":3120:3123   */\n      dup3\n        /* \"#utility.yul\":3113:3171   */\n      mstore\n        /* \"#utility.yul\":3020:3177   */\n      pop\n      pop\n      jump\t// out\n        /* \"#utility.yul\":3183:3721   */\n    tag_132:\n        /* \"#utility.yul\":3351:3354   */\n      0x00\n        /* \"#utility.yul\":3366:3441   */\n      tag_189\n        /* \"#utility.yul\":3437:3440   */\n      dup3\n        /* \"#utility.yul\":3428:3434   */\n      dup7\n        /* \"#utility.yul\":3366:3441   */\n      tag_146\n      jump\t// in\n    tag_189:\n        /* \"#utility.yul\":3466:3468   */\n      0x20\n        /* \"#utility.yul\":3461:3464   */\n      dup3\n        /* \"#utility.yul\":3457:3469   */\n      add\n        /* \"#utility.yul\":3450:3469   */\n      swap2\n      pop\n        /* \"#utility.yul\":3479:3554   */\n      tag_190\n        /* \"#utility.yul\":3550:3553   */\n      dup3\n        /* \"#utility.yul\":3541:3547   */\n      dup6\n        /* \"#utility.yul\":3479:3554   */\n      tag_146\n      jump\t// in\n    tag_190:\n        /* \"#utility.yul\":3579:3581   */\n      0x20\n        /* \"#utility.yul\":3574:3577   */\n      dup3\n        /* \"#utility.yul\":3570:3582   */\n      add\n        /* \"#utility.yul\":3563:3582   */\n      swap2\n      pop\n        /* \"#utility.yul\":3592:3667   */\n      tag_191\n        /* \"#utility.yul\":3663:3666   */\n      dup3\n        /* \"#utility.yul\":3654:3660   */\n      dup5\n        /* \"#utility.yul\":3592:3667   */\n      tag_146\n      jump\t// in\n    tag_191:\n        /* \"#utility.yul\":3692:3694   */\n      0x20\n        /* \"#utility.yul\":3687:3690   */\n      dup3\n        /* \"#utility.yul\":3683:3695   */\n      add\n        /* \"#utility.yul\":3676:3695   */\n      swap2\n      pop\n        /* \"#utility.yul\":3712:3715   */\n      dup2\n        /* \"#utility.yul\":3705:3715   */\n      swap1\n      pop\n        /* \"#utility.yul\":3183:3721   */\n      swap5\n      swap4\n      pop\n      pop\n      pop\n      pop\n      jump\t// out\n\n    auxdata: 0xa2646970667358221220a5324a51555c648586f3fc137cc6f458f7abd8c5d01b4f0b1bbdfa1f5adef56064736f6c634300080f0033\n}\n",
				"bytecode": {
					"linkReferences": {},
					"object": "608060405234801561001057600080fd5b50336000806101000a81548173ffffffffffffffffffffffffffffffffffffffff021916908373ffffffffffffffffffffffffffffffffffffffff160217905550610a35806100606000396000f3fe6080604052600436106100c25760003560e01c80636f4c487a1161007f5780638da5cb5b116100595780638da5cb5b14610189578063e7120fd9146101b4578063e8d18212146101be578063f855aa9e146101c8576100c2565b80636f4c487a1461016b578063766f85781461017557806385b4ba871461017f576100c2565b80630b634788146100c75780631640e34e146100d157806329402ecb146100ed578063374ccd33146100f757806348db5f89146101225780636689c33a1461014d575b600080fd5b6100cf6101f1565b005b6100eb60048036038101906100e69190610805565b610275565b005b6100f5610319565b005b34801561010357600080fd5b5061010c61039d565b6040516101199190610841565b60405180910390f35b34801561012e57600080fd5b506101376103fe565b604051610144919061089d565b60405180910390f35b610155610424565b6040516101629190610841565b60405180910390f35b610173610431565b005b61017d6104b5565b005b610187610539565b005b34801561019557600080fd5b5061019e6105be565b6040516101ab919061089d565b60405180910390f35b6101bc6105e2565b005b6101c6610666565b005b3480156101d457600080fd5b506101ef60048036038101906101ea9190610805565b6106c0565b005b600060266101fd610795565b61020791906108e7565b90506003811015610271573373ffffffffffffffffffffffffffffffffffffffff166108fc67a688906bd8b00000346102409190610947565b9081150290604051600060405180830381858888f1935050505015801561026b573d6000803e3d6000fd5b50610272565b5b50565b670de0b6b3a7640000816102899190610947565b341461029457600080fd5b600060266102a0610795565b6102aa91906108e7565b90506012811015610314573373ffffffffffffffffffffffffffffffffffffffff166108fc671bc16d674ec80000846102e39190610947565b9081150290604051600060405180830381858888f1935050505015801561030e573d6000803e3d6000fd5b50610315565b5b5050565b60006026610325610795565b61032f91906108e7565b9050600c811015610399573373ffffffffffffffffffffffffffffffffffffffff166108fc6729a2241af62c0000346103689190610947565b9081150290604051600060405180830381858888f19350505050158015610393573d6000803e3d6000fd5b5061039a565b5b50565b60008060009054906101000a900473ffffffffffffffffffffffffffffffffffffffff1673ffffffffffffffffffffffffffffffffffffffff163373ffffffffffffffffffffffffffffffffffffffff16146103f857600080fd5b47905090565b600160009054906101000a900473ffffffffffffffffffffffffffffffffffffffff1681565b6000803490508091505090565b6000602661043d610795565b61044791906108e7565b905060068110156104b1573373ffffffffffffffffffffffffffffffffffffffff166108fc6753444835ec580000346104809190610947565b9081150290604051600060405180830381858888f193505050501580156104ab573d6000803e3d6000fd5b506104b2565b5b50565b600060266104c1610795565b6104cb91906108e7565b90506002811015610535573373ffffffffffffffffffffffffffffffffffffffff166108fc67f9ccd8a1c5080000346105049190610947565b9081150290604051600060405180830381858888f1935050505015801561052f573d6000803e3d6000fd5b50610536565b5b50565b60006026610545610795565b61054f91906108e7565b905060018110156105ba573373ffffffffffffffffffffffffffffffffffffffff166108fc6801f399b1438a100000346105899190610947565b9081150290604051600060405180830381858888f193505050501580156105b4573d6000803e3d6000fd5b506105bb565b5b50565b60008054906101000a900473ffffffffffffffffffffffffffffffffffffffff1681565b600060266105ee610795565b6105f891906108e7565b90506004811015610662573373ffffffffffffffffffffffffffffffffffffffff166108fc677ce66c50e2840000346106319190610947565b9081150290604051600060405180830381858888f1935050505015801561065c573d6000803e3d6000fd5b50610663565b5b50565b60008054906101000a900473ffffffffffffffffffffffffffffffffffffffff1673ffffffffffffffffffffffffffffffffffffffff163373ffffffffffffffffffffffffffffffffffffffff16146106be57600080fd5b565b60008054906101000a900473ffffffffffffffffffffffffffffffffffffffff1673ffffffffffffffffffffffffffffffffffffffff163373ffffffffffffffffffffffffffffffffffffffff161461071857600080fd5b60008054906101000a900473ffffffffffffffffffffffffffffffffffffffff1673ffffffffffffffffffffffffffffffffffffffff166108fc670de0b6b3a7640000836107669190610947565b9081150290604051600060405180830381858888f19350505050158015610791573d6000803e3d6000fd5b5050565b60004742446040516020016107ac939291906109c2565b6040516020818303038152906040528051906020012060001c905090565b600080fd5b6000819050919050565b6107e2816107cf565b81146107ed57600080fd5b50565b6000813590506107ff816107d9565b92915050565b60006020828403121561081b5761081a6107ca565b5b6000610829848285016107f0565b91505092915050565b61083b816107cf565b82525050565b60006020820190506108566000830184610832565b92915050565b600073ffffffffffffffffffffffffffffffffffffffff82169050919050565b60006108878261085c565b9050919050565b6108978161087c565b82525050565b60006020820190506108b2600083018461088e565b92915050565b7f4e487b7100000000000000000000000000000000000000000000000000000000600052601260045260246000fd5b60006108f2826107cf565b91506108fd836107cf565b92508261090d5761090c6108b8565b5b828206905092915050565b7f4e487b7100000000000000000000000000000000000000000000000000000000600052601160045260246000fd5b6000610952826107cf565b915061095d836107cf565b9250817fffffffffffffffffffffffffffffffffffffffffffffffffffffffffffffffff048311821515161561099657610995610918565b5b828202905092915050565b6000819050919050565b6109bc6109b7826107cf565b6109a1565b82525050565b60006109ce82866109ab565b6020820191506109de82856109ab565b6020820191506109ee82846109ab565b60208201915081905094935050505056fea2646970667358221220a5324a51555c648586f3fc137cc6f458f7abd8c5d01b4f0b1bbdfa1f5adef56064736f6c634300080f0033",
					"opcodes": "PUSH1 0x80 PUSH1 0x40 MSTORE CALLVALUE DUP1 ISZERO PUSH2 0x10 JUMPI PUSH1 0x0 DUP1 REVERT JUMPDEST POP CALLER PUSH1 0x0 DUP1 PUSH2 0x100 EXP DUP2 SLOAD DUP2 PUSH20 0xFFFFFFFFFFFFFFFFFFFFFFFFFFFFFFFFFFFFFFFF MUL NOT AND SWAP1 DUP4 PUSH20 0xFFFFFFFFFFFFFFFFFFFFFFFFFFFFFFFFFFFFFFFF AND MUL OR SWAP1 SSTORE POP PUSH2 0xA35 DUP1 PUSH2 0x60 PUSH1 0x0 CODECOPY PUSH1 0x0 RETURN INVALID PUSH1 0x80 PUSH1 0x40 MSTORE PUSH1 0x4 CALLDATASIZE LT PUSH2 0xC2 JUMPI PUSH1 0x0 CALLDATALOAD PUSH1 0xE0 SHR DUP1 PUSH4 0x6F4C487A GT PUSH2 0x7F JUMPI DUP1 PUSH4 0x8DA5CB5B GT PUSH2 0x59 JUMPI DUP1 PUSH4 0x8DA5CB5B EQ PUSH2 0x189 JUMPI DUP1 PUSH4 0xE7120FD9 EQ PUSH2 0x1B4 JUMPI DUP1 PUSH4 0xE8D18212 EQ PUSH2 0x1BE JUMPI DUP1 PUSH4 0xF855AA9E EQ PUSH2 0x1C8 JUMPI PUSH2 0xC2 JUMP JUMPDEST DUP1 PUSH4 0x6F4C487A EQ PUSH2 0x16B JUMPI DUP1 PUSH4 0x766F8578 EQ PUSH2 0x175 JUMPI DUP1 PUSH4 0x85B4BA87 EQ PUSH2 0x17F JUMPI PUSH2 0xC2 JUMP JUMPDEST DUP1 PUSH4 0xB634788 EQ PUSH2 0xC7 JUMPI DUP1 PUSH4 0x1640E34E EQ PUSH2 0xD1 JUMPI DUP1 PUSH4 0x29402ECB EQ PUSH2 0xED JUMPI DUP1 PUSH4 0x374CCD33 EQ PUSH2 0xF7 JUMPI DUP1 PUSH4 0x48DB5F89 EQ PUSH2 0x122 JUMPI DUP1 PUSH4 0x6689C33A EQ PUSH2 0x14D JUMPI JUMPDEST PUSH1 0x0 DUP1 REVERT JUMPDEST PUSH2 0xCF PUSH2 0x1F1 JUMP JUMPDEST STOP JUMPDEST PUSH2 0xEB PUSH1 0x4 DUP1 CALLDATASIZE SUB DUP2 ADD SWAP1 PUSH2 0xE6 SWAP2 SWAP1 PUSH2 0x805 JUMP JUMPDEST PUSH2 0x275 JUMP JUMPDEST STOP JUMPDEST PUSH2 0xF5 PUSH2 0x319 JUMP JUMPDEST STOP JUMPDEST CALLVALUE DUP1 ISZERO PUSH2 0x103 JUMPI PUSH1 0x0 DUP1 REVERT JUMPDEST POP PUSH2 0x10C PUSH2 0x39D JUMP JUMPDEST PUSH1 0x40 MLOAD PUSH2 0x119 SWAP2 SWAP1 PUSH2 0x841 JUMP JUMPDEST PUSH1 0x40 MLOAD DUP1 SWAP2 SUB SWAP1 RETURN JUMPDEST CALLVALUE DUP1 ISZERO PUSH2 0x12E JUMPI PUSH1 0x0 DUP1 REVERT JUMPDEST POP PUSH2 0x137 PUSH2 0x3FE JUMP JUMPDEST PUSH1 0x40 MLOAD PUSH2 0x144 SWAP2 SWAP1 PUSH2 0x89D JUMP JUMPDEST PUSH1 0x40 MLOAD DUP1 SWAP2 SUB SWAP1 RETURN JUMPDEST PUSH2 0x155 PUSH2 0x424 JUMP JUMPDEST PUSH1 0x40 MLOAD PUSH2 0x162 SWAP2 SWAP1 PUSH2 0x841 JUMP JUMPDEST PUSH1 0x40 MLOAD DUP1 SWAP2 SUB SWAP1 RETURN JUMPDEST PUSH2 0x173 PUSH2 0x431 JUMP JUMPDEST STOP JUMPDEST PUSH2 0x17D PUSH2 0x4B5 JUMP JUMPDEST STOP JUMPDEST PUSH2 0x187 PUSH2 0x539 JUMP JUMPDEST STOP JUMPDEST CALLVALUE DUP1 ISZERO PUSH2 0x195 JUMPI PUSH1 0x0 DUP1 REVERT JUMPDEST POP PUSH2 0x19E PUSH2 0x5BE JUMP JUMPDEST PUSH1 0x40 MLOAD PUSH2 0x1AB SWAP2 SWAP1 PUSH2 0x89D JUMP JUMPDEST PUSH1 0x40 MLOAD DUP1 SWAP2 SUB SWAP1 RETURN JUMPDEST PUSH2 0x1BC PUSH2 0x5E2 JUMP JUMPDEST STOP JUMPDEST PUSH2 0x1C6 PUSH2 0x666 JUMP JUMPDEST STOP JUMPDEST CALLVALUE DUP1 ISZERO PUSH2 0x1D4 JUMPI PUSH1 0x0 DUP1 REVERT JUMPDEST POP PUSH2 0x1EF PUSH1 0x4 DUP1 CALLDATASIZE SUB DUP2 ADD SWAP1 PUSH2 0x1EA SWAP2 SWAP1 PUSH2 0x805 JUMP JUMPDEST PUSH2 0x6C0 JUMP JUMPDEST STOP JUMPDEST PUSH1 0x0 PUSH1 0x26 PUSH2 0x1FD PUSH2 0x795 JUMP JUMPDEST PUSH2 0x207 SWAP2 SWAP1 PUSH2 0x8E7 JUMP JUMPDEST SWAP1 POP PUSH1 0x3 DUP2 LT ISZERO PUSH2 0x271 JUMPI CALLER PUSH20 0xFFFFFFFFFFFFFFFFFFFFFFFFFFFFFFFFFFFFFFFF AND PUSH2 0x8FC PUSH8 0xA688906BD8B00000 CALLVALUE PUSH2 0x240 SWAP2 SWAP1 PUSH2 0x947 JUMP JUMPDEST SWAP1 DUP2 ISZERO MUL SWAP1 PUSH1 0x40 MLOAD PUSH1 0x0 PUSH1 0x40 MLOAD DUP1 DUP4 SUB DUP2 DUP6 DUP9 DUP9 CALL SWAP4 POP POP POP POP ISZERO DUP1 ISZERO PUSH2 0x26B JUMPI RETURNDATASIZE PUSH1 0x0 DUP1 RETURNDATACOPY RETURNDATASIZE PUSH1 0x0 REVERT JUMPDEST POP PUSH2 0x272 JUMP JUMPDEST JUMPDEST POP JUMP JUMPDEST PUSH8 0xDE0B6B3A7640000 DUP2 PUSH2 0x289 SWAP2 SWAP1 PUSH2 0x947 JUMP JUMPDEST CALLVALUE EQ PUSH2 0x294 JUMPI PUSH1 0x0 DUP1 REVERT JUMPDEST PUSH1 0x0 PUSH1 0x26 PUSH2 0x2A0 PUSH2 0x795 JUMP JUMPDEST PUSH2 0x2AA SWAP2 SWAP1 PUSH2 0x8E7 JUMP JUMPDEST SWAP1 POP PUSH1 0x12 DUP2 LT ISZERO PUSH2 0x314 JUMPI CALLER PUSH20 0xFFFFFFFFFFFFFFFFFFFFFFFFFFFFFFFFFFFFFFFF AND PUSH2 0x8FC PUSH8 0x1BC16D674EC80000 DUP5 PUSH2 0x2E3 SWAP2 SWAP1 PUSH2 0x947 JUMP JUMPDEST SWAP1 DUP2 ISZERO MUL SWAP1 PUSH1 0x40 MLOAD PUSH1 0x0 PUSH1 0x40 MLOAD DUP1 DUP4 SUB DUP2 DUP6 DUP9 DUP9 CALL SWAP4 POP POP POP POP ISZERO DUP1 ISZERO PUSH2 0x30E JUMPI RETURNDATASIZE PUSH1 0x0 DUP1 RETURNDATACOPY RETURNDATASIZE PUSH1 0x0 REVERT JUMPDEST POP PUSH2 0x315 JUMP JUMPDEST JUMPDEST POP POP JUMP JUMPDEST PUSH1 0x0 PUSH1 0x26 PUSH2 0x325 PUSH2 0x795 JUMP JUMPDEST PUSH2 0x32F SWAP2 SWAP1 PUSH2 0x8E7 JUMP JUMPDEST SWAP1 POP PUSH1 0xC DUP2 LT ISZERO PUSH2 0x399 JUMPI CALLER PUSH20 0xFFFFFFFFFFFFFFFFFFFFFFFFFFFFFFFFFFFFFFFF AND PUSH2 0x8FC PUSH8 0x29A2241AF62C0000 CALLVALUE PUSH2 0x368 SWAP2 SWAP1 PUSH2 0x947 JUMP JUMPDEST SWAP1 DUP2 ISZERO MUL SWAP1 PUSH1 0x40 MLOAD PUSH1 0x0 PUSH1 0x40 MLOAD DUP1 DUP4 SUB DUP2 DUP6 DUP9 DUP9 CALL SWAP4 POP POP POP POP ISZERO DUP1 ISZERO PUSH2 0x393 JUMPI RETURNDATASIZE PUSH1 0x0 DUP1 RETURNDATACOPY RETURNDATASIZE PUSH1 0x0 REVERT JUMPDEST POP PUSH2 0x39A JUMP JUMPDEST JUMPDEST POP JUMP JUMPDEST PUSH1 0x0 DUP1 PUSH1 0x0 SWAP1 SLOAD SWAP1 PUSH2 0x100 EXP SWAP1 DIV PUSH20 0xFFFFFFFFFFFFFFFFFFFFFFFFFFFFFFFFFFFFFFFF AND PUSH20 0xFFFFFFFFFFFFFFFFFFFFFFFFFFFFFFFFFFFFFFFF AND CALLER PUSH20 0xFFFFFFFFFFFFFFFFFFFFFFFFFFFFFFFFFFFFFFFF AND EQ PUSH2 0x3F8 JUMPI PUSH1 0x0 DUP1 REVERT JUMPDEST SELFBALANCE SWAP1 POP SWAP1 JUMP JUMPDEST PUSH1 0x1 PUSH1 0x0 SWAP1 SLOAD SWAP1 PUSH2 0x100 EXP SWAP1 DIV PUSH20 0xFFFFFFFFFFFFFFFFFFFFFFFFFFFFFFFFFFFFFFFF AND DUP2 JUMP JUMPDEST PUSH1 0x0 DUP1 CALLVALUE SWAP1 POP DUP1 SWAP2 POP POP SWAP1 JUMP JUMPDEST PUSH1 0x0 PUSH1 0x26 PUSH2 0x43D PUSH2 0x795 JUMP JUMPDEST PUSH2 0x447 SWAP2 SWAP1 PUSH2 0x8E7 JUMP JUMPDEST SWAP1 POP PUSH1 0x6 DUP2 LT ISZERO PUSH2 0x4B1 JUMPI CALLER PUSH20 0xFFFFFFFFFFFFFFFFFFFFFFFFFFFFFFFFFFFFFFFF AND PUSH2 0x8FC PUSH8 0x53444835EC580000 CALLVALUE PUSH2 0x480 SWAP2 SWAP1 PUSH2 0x947 JUMP JUMPDEST SWAP1 DUP2 ISZERO MUL SWAP1 PUSH1 0x40 MLOAD PUSH1 0x0 PUSH1 0x40 MLOAD DUP1 DUP4 SUB DUP2 DUP6 DUP9 DUP9 CALL SWAP4 POP POP POP POP ISZERO DUP1 ISZERO PUSH2 0x4AB JUMPI RETURNDATASIZE PUSH1 0x0 DUP1 RETURNDATACOPY RETURNDATASIZE PUSH1 0x0 REVERT JUMPDEST POP PUSH2 0x4B2 JUMP JUMPDEST JUMPDEST POP JUMP JUMPDEST PUSH1 0x0 PUSH1 0x26 PUSH2 0x4C1 PUSH2 0x795 JUMP JUMPDEST PUSH2 0x4CB SWAP2 SWAP1 PUSH2 0x8E7 JUMP JUMPDEST SWAP1 POP PUSH1 0x2 DUP2 LT ISZERO PUSH2 0x535 JUMPI CALLER PUSH20 0xFFFFFFFFFFFFFFFFFFFFFFFFFFFFFFFFFFFFFFFF AND PUSH2 0x8FC PUSH8 0xF9CCD8A1C5080000 CALLVALUE PUSH2 0x504 SWAP2 SWAP1 PUSH2 0x947 JUMP JUMPDEST SWAP1 DUP2 ISZERO MUL SWAP1 PUSH1 0x40 MLOAD PUSH1 0x0 PUSH1 0x40 MLOAD DUP1 DUP4 SUB DUP2 DUP6 DUP9 DUP9 CALL SWAP4 POP POP POP POP ISZERO DUP1 ISZERO PUSH2 0x52F JUMPI RETURNDATASIZE PUSH1 0x0 DUP1 RETURNDATACOPY RETURNDATASIZE PUSH1 0x0 REVERT JUMPDEST POP PUSH2 0x536 JUMP JUMPDEST JUMPDEST POP JUMP JUMPDEST PUSH1 0x0 PUSH1 0x26 PUSH2 0x545 PUSH2 0x795 JUMP JUMPDEST PUSH2 0x54F SWAP2 SWAP1 PUSH2 0x8E7 JUMP JUMPDEST SWAP1 POP PUSH1 0x1 DUP2 LT ISZERO PUSH2 0x5BA JUMPI CALLER PUSH20 0xFFFFFFFFFFFFFFFFFFFFFFFFFFFFFFFFFFFFFFFF AND PUSH2 0x8FC PUSH9 0x1F399B1438A100000 CALLVALUE PUSH2 0x589 SWAP2 SWAP1 PUSH2 0x947 JUMP JUMPDEST SWAP1 DUP2 ISZERO MUL SWAP1 PUSH1 0x40 MLOAD PUSH1 0x0 PUSH1 0x40 MLOAD DUP1 DUP4 SUB DUP2 DUP6 DUP9 DUP9 CALL SWAP4 POP POP POP POP ISZERO DUP1 ISZERO PUSH2 0x5B4 JUMPI RETURNDATASIZE PUSH1 0x0 DUP1 RETURNDATACOPY RETURNDATASIZE PUSH1 0x0 REVERT JUMPDEST POP PUSH2 0x5BB JUMP JUMPDEST JUMPDEST POP JUMP JUMPDEST PUSH1 0x0 DUP1 SLOAD SWAP1 PUSH2 0x100 EXP SWAP1 DIV PUSH20 0xFFFFFFFFFFFFFFFFFFFFFFFFFFFFFFFFFFFFFFFF AND DUP2 JUMP JUMPDEST PUSH1 0x0 PUSH1 0x26 PUSH2 0x5EE PUSH2 0x795 JUMP JUMPDEST PUSH2 0x5F8 SWAP2 SWAP1 PUSH2 0x8E7 JUMP JUMPDEST SWAP1 POP PUSH1 0x4 DUP2 LT ISZERO PUSH2 0x662 JUMPI CALLER PUSH20 0xFFFFFFFFFFFFFFFFFFFFFFFFFFFFFFFFFFFFFFFF AND PUSH2 0x8FC PUSH8 0x7CE66C50E2840000 CALLVALUE PUSH2 0x631 SWAP2 SWAP1 PUSH2 0x947 JUMP JUMPDEST SWAP1 DUP2 ISZERO MUL SWAP1 PUSH1 0x40 MLOAD PUSH1 0x0 PUSH1 0x40 MLOAD DUP1 DUP4 SUB DUP2 DUP6 DUP9 DUP9 CALL SWAP4 POP POP POP POP ISZERO DUP1 ISZERO PUSH2 0x65C JUMPI RETURNDATASIZE PUSH1 0x0 DUP1 RETURNDATACOPY RETURNDATASIZE PUSH1 0x0 REVERT JUMPDEST POP PUSH2 0x663 JUMP JUMPDEST JUMPDEST POP JUMP JUMPDEST PUSH1 0x0 DUP1 SLOAD SWAP1 PUSH2 0x100 EXP SWAP1 DIV PUSH20 0xFFFFFFFFFFFFFFFFFFFFFFFFFFFFFFFFFFFFFFFF AND PUSH20 0xFFFFFFFFFFFFFFFFFFFFFFFFFFFFFFFFFFFFFFFF AND CALLER PUSH20 0xFFFFFFFFFFFFFFFFFFFFFFFFFFFFFFFFFFFFFFFF AND EQ PUSH2 0x6BE JUMPI PUSH1 0x0 DUP1 REVERT JUMPDEST JUMP JUMPDEST PUSH1 0x0 DUP1 SLOAD SWAP1 PUSH2 0x100 EXP SWAP1 DIV PUSH20 0xFFFFFFFFFFFFFFFFFFFFFFFFFFFFFFFFFFFFFFFF AND PUSH20 0xFFFFFFFFFFFFFFFFFFFFFFFFFFFFFFFFFFFFFFFF AND CALLER PUSH20 0xFFFFFFFFFFFFFFFFFFFFFFFFFFFFFFFFFFFFFFFF AND EQ PUSH2 0x718 JUMPI PUSH1 0x0 DUP1 REVERT JUMPDEST PUSH1 0x0 DUP1 SLOAD SWAP1 PUSH2 0x100 EXP SWAP1 DIV PUSH20 0xFFFFFFFFFFFFFFFFFFFFFFFFFFFFFFFFFFFFFFFF AND PUSH20 0xFFFFFFFFFFFFFFFFFFFFFFFFFFFFFFFFFFFFFFFF AND PUSH2 0x8FC PUSH8 0xDE0B6B3A7640000 DUP4 PUSH2 0x766 SWAP2 SWAP1 PUSH2 0x947 JUMP JUMPDEST SWAP1 DUP2 ISZERO MUL SWAP1 PUSH1 0x40 MLOAD PUSH1 0x0 PUSH1 0x40 MLOAD DUP1 DUP4 SUB DUP2 DUP6 DUP9 DUP9 CALL SWAP4 POP POP POP POP ISZERO DUP1 ISZERO PUSH2 0x791 JUMPI RETURNDATASIZE PUSH1 0x0 DUP1 RETURNDATACOPY RETURNDATASIZE PUSH1 0x0 REVERT JUMPDEST POP POP JUMP JUMPDEST PUSH1 0x0 SELFBALANCE TIMESTAMP DIFFICULTY PUSH1 0x40 MLOAD PUSH1 0x20 ADD PUSH2 0x7AC SWAP4 SWAP3 SWAP2 SWAP1 PUSH2 0x9C2 JUMP JUMPDEST PUSH1 0x40 MLOAD PUSH1 0x20 DUP2 DUP4 SUB SUB DUP2 MSTORE SWAP1 PUSH1 0x40 MSTORE DUP1 MLOAD SWAP1 PUSH1 0x20 ADD KECCAK256 PUSH1 0x0 SHR SWAP1 POP SWAP1 JUMP JUMPDEST PUSH1 0x0 DUP1 REVERT JUMPDEST PUSH1 0x0 DUP2 SWAP1 POP SWAP2 SWAP1 POP JUMP JUMPDEST PUSH2 0x7E2 DUP2 PUSH2 0x7CF JUMP JUMPDEST DUP2 EQ PUSH2 0x7ED JUMPI PUSH1 0x0 DUP1 REVERT JUMPDEST POP JUMP JUMPDEST PUSH1 0x0 DUP2 CALLDATALOAD SWAP1 POP PUSH2 0x7FF DUP2 PUSH2 0x7D9 JUMP JUMPDEST SWAP3 SWAP2 POP POP JUMP JUMPDEST PUSH1 0x0 PUSH1 0x20 DUP3 DUP5 SUB SLT ISZERO PUSH2 0x81B JUMPI PUSH2 0x81A PUSH2 0x7CA JUMP JUMPDEST JUMPDEST PUSH1 0x0 PUSH2 0x829 DUP5 DUP3 DUP6 ADD PUSH2 0x7F0 JUMP JUMPDEST SWAP2 POP POP SWAP3 SWAP2 POP POP JUMP JUMPDEST PUSH2 0x83B DUP2 PUSH2 0x7CF JUMP JUMPDEST DUP3 MSTORE POP POP JUMP JUMPDEST PUSH1 0x0 PUSH1 0x20 DUP3 ADD SWAP1 POP PUSH2 0x856 PUSH1 0x0 DUP4 ADD DUP5 PUSH2 0x832 JUMP JUMPDEST SWAP3 SWAP2 POP POP JUMP JUMPDEST PUSH1 0x0 PUSH20 0xFFFFFFFFFFFFFFFFFFFFFFFFFFFFFFFFFFFFFFFF DUP3 AND SWAP1 POP SWAP2 SWAP1 POP JUMP JUMPDEST PUSH1 0x0 PUSH2 0x887 DUP3 PUSH2 0x85C JUMP JUMPDEST SWAP1 POP SWAP2 SWAP1 POP JUMP JUMPDEST PUSH2 0x897 DUP2 PUSH2 0x87C JUMP JUMPDEST DUP3 MSTORE POP POP JUMP JUMPDEST PUSH1 0x0 PUSH1 0x20 DUP3 ADD SWAP1 POP PUSH2 0x8B2 PUSH1 0x0 DUP4 ADD DUP5 PUSH2 0x88E JUMP JUMPDEST SWAP3 SWAP2 POP POP JUMP JUMPDEST PUSH32 0x4E487B7100000000000000000000000000000000000000000000000000000000 PUSH1 0x0 MSTORE PUSH1 0x12 PUSH1 0x4 MSTORE PUSH1 0x24 PUSH1 0x0 REVERT JUMPDEST PUSH1 0x0 PUSH2 0x8F2 DUP3 PUSH2 0x7CF JUMP JUMPDEST SWAP2 POP PUSH2 0x8FD DUP4 PUSH2 0x7CF JUMP JUMPDEST SWAP3 POP DUP3 PUSH2 0x90D JUMPI PUSH2 0x90C PUSH2 0x8B8 JUMP JUMPDEST JUMPDEST DUP3 DUP3 MOD SWAP1 POP SWAP3 SWAP2 POP POP JUMP JUMPDEST PUSH32 0x4E487B7100000000000000000000000000000000000000000000000000000000 PUSH1 0x0 MSTORE PUSH1 0x11 PUSH1 0x4 MSTORE PUSH1 0x24 PUSH1 0x0 REVERT JUMPDEST PUSH1 0x0 PUSH2 0x952 DUP3 PUSH2 0x7CF JUMP JUMPDEST SWAP2 POP PUSH2 0x95D DUP4 PUSH2 0x7CF JUMP JUMPDEST SWAP3 POP DUP2 PUSH32 0xFFFFFFFFFFFFFFFFFFFFFFFFFFFFFFFFFFFFFFFFFFFFFFFFFFFFFFFFFFFFFFFF DIV DUP4 GT DUP3 ISZERO ISZERO AND ISZERO PUSH2 0x996 JUMPI PUSH2 0x995 PUSH2 0x918 JUMP JUMPDEST JUMPDEST DUP3 DUP3 MUL SWAP1 POP SWAP3 SWAP2 POP POP JUMP JUMPDEST PUSH1 0x0 DUP2 SWAP1 POP SWAP2 SWAP1 POP JUMP JUMPDEST PUSH2 0x9BC PUSH2 0x9B7 DUP3 PUSH2 0x7CF JUMP JUMPDEST PUSH2 0x9A1 JUMP JUMPDEST DUP3 MSTORE POP POP JUMP JUMPDEST PUSH1 0x0 PUSH2 0x9CE DUP3 DUP7 PUSH2 0x9AB JUMP JUMPDEST PUSH1 0x20 DUP3 ADD SWAP2 POP PUSH2 0x9DE DUP3 DUP6 PUSH2 0x9AB JUMP JUMPDEST PUSH1 0x20 DUP3 ADD SWAP2 POP PUSH2 0x9EE DUP3 DUP5 PUSH2 0x9AB JUMP JUMPDEST PUSH1 0x20 DUP3 ADD SWAP2 POP DUP2 SWAP1 POP SWAP5 SWAP4 POP POP POP POP JUMP INVALID LOG2 PUSH5 0x6970667358 0x22 SLT KECCAK256 0xA5 ORIGIN 0x4A MLOAD SSTORE 0x5C PUSH5 0x8586F3FC13 PUSH29 0xC6F458F7ABD8C5D01B4F0B1BBDFA1F5ADEF56064736F6C634300080F00 CALLER "
				},
				"gasEstimates": {
					"creation": {
						"codeDepositCost": "522600",
						"executionCost": "24822",
						"totalCost": "547422"
					},
					"external": {
						"AAA_test()": "436",
						"A_oneToOne(uint256)": "infinite",
						"B_twoToOne()": "infinite",
						"C_fiveToOne()": "infinite",
						"D_eightToOne()": "infinite",
						"E_elevenToOne()": "infinite",
						"F_seventeenToOne()": "infinite",
						"G_thirtyfiveToOne()": "infinite",
						"H_deposit()": "2353",
						"I_withdraw(uint256)": "infinite",
						"J_getBalance()": "2576",
						"owner()": "2533",
						"player()": "2603"
					},
					"internal": {
						"getRandomNumber()": "infinite"
					}
				},
				"methodIdentifiers": {
					"AAA_test()": "6689c33a",
					"A_oneToOne(uint256)": "1640e34e",
					"B_twoToOne()": "29402ecb",
					"C_fiveToOne()": "6f4c487a",
					"D_eightToOne()": "e7120fd9",
					"E_elevenToOne()": "0b634788",
					"F_seventeenToOne()": "766f8578",
					"G_thirtyfiveToOne()": "85b4ba87",
					"H_deposit()": "e8d18212",
					"I_withdraw(uint256)": "f855aa9e",
					"J_getBalance()": "374ccd33",
					"owner()": "8da5cb5b",
					"player()": "48db5f89"
				}
			},
			"storageLayout": {
				"storage": [
					{
						"astId": 3,
						"contract": "Documents/Web3/Casino/002 Roulette.sol:Roulette",
						"label": "owner",
						"offset": 0,
						"slot": "0",
						"type": "t_address_payable"
					},
					{
						"astId": 5,
						"contract": "Documents/Web3/Casino/002 Roulette.sol:Roulette",
						"label": "player",
						"offset": 0,
						"slot": "1",
						"type": "t_address_payable"
					}
				],
				"types": {
					"t_address_payable": {
						"encoding": "inplace",
						"label": "address payable",
						"numberOfBytes": "20"
					}
				}
			},
			"userdoc": {
				"kind": "user",
				"methods": {},
				"version": 1
			}
		}
	}
}