{
	"Documents/Web3/Casino/002 Roulette.sol": {
		"Roulette": {
			"abi": [
				{
					"inputs": [],
					"stateMutability": "nonpayable",
					"type": "constructor"
				},
				{
					"inputs": [
						{
							"internalType": "uint256",
							"name": "bet",
							"type": "uint256"
						}
					],
					"name": "A_oneToOne",
					"outputs": [],
					"stateMutability": "payable",
					"type": "function"
				},
				{
					"inputs": [
						{
							"internalType": "uint256",
							"name": "bet",
							"type": "uint256"
						}
					],
					"name": "B_twoToOne",
					"outputs": [],
					"stateMutability": "payable",
					"type": "function"
				},
				{
					"inputs": [
						{
							"internalType": "uint256",
							"name": "bet",
							"type": "uint256"
						}
					],
					"name": "C_fiveToOne",
					"outputs": [],
					"stateMutability": "payable",
					"type": "function"
				},
				{
					"inputs": [
						{
							"internalType": "uint256",
							"name": "bet",
							"type": "uint256"
						}
					],
					"name": "D_eightToOne",
					"outputs": [],
					"stateMutability": "payable",
					"type": "function"
				},
				{
					"inputs": [
						{
							"internalType": "uint256",
							"name": "bet",
							"type": "uint256"
						}
					],
					"name": "E_elevenToOne",
					"outputs": [],
					"stateMutability": "payable",
					"type": "function"
				},
				{
					"inputs": [
						{
							"internalType": "uint256",
							"name": "bet",
							"type": "uint256"
						}
					],
					"name": "F_seventeenToOne",
					"outputs": [],
					"stateMutability": "payable",
					"type": "function"
				},
				{
					"inputs": [
						{
							"internalType": "uint256",
							"name": "bet",
							"type": "uint256"
						}
					],
					"name": "G_thirtyfiveToOne",
					"outputs": [],
					"stateMutability": "payable",
					"type": "function"
				},
				{
					"inputs": [],
					"name": "H_deposit",
					"outputs": [],
					"stateMutability": "payable",
					"type": "function"
				},
				{
					"inputs": [
						{
							"internalType": "uint256",
							"name": "amount",
							"type": "uint256"
						}
					],
					"name": "I_withdraw",
					"outputs": [],
					"stateMutability": "nonpayable",
					"type": "function"
				},
				{
					"inputs": [],
					"name": "J_getBalance",
					"outputs": [
						{
							"internalType": "uint256",
							"name": "",
							"type": "uint256"
						}
					],
					"stateMutability": "view",
					"type": "function"
				},
				{
					"inputs": [],
					"name": "owner",
					"outputs": [
						{
							"internalType": "address payable",
							"name": "",
							"type": "address"
						}
					],
					"stateMutability": "view",
					"type": "function"
				},
				{
					"inputs": [],
					"name": "player",
					"outputs": [
						{
							"internalType": "address payable",
							"name": "",
							"type": "address"
						}
					],
					"stateMutability": "view",
					"type": "function"
				}
			],
			"devdoc": {
				"kind": "dev",
				"methods": {},
				"version": 1
			},
			"evm": {
				"assembly": "    /* \"Documents/Web3/Casino/002 Roulette.sol\":547:3679  contract Roulette {... */\n  mstore(0x40, 0x80)\n    /* \"Documents/Web3/Casino/002 Roulette.sol\":674:732  constructor() {... */\n  callvalue\n  dup1\n  iszero\n  tag_1\n  jumpi\n  0x00\n  dup1\n  revert\ntag_1:\n  pop\n    /* \"Documents/Web3/Casino/002 Roulette.sol\":714:724  msg.sender */\n  caller\n    /* \"Documents/Web3/Casino/002 Roulette.sol\":698:703  owner */\n  0x00\n  dup1\n    /* \"Documents/Web3/Casino/002 Roulette.sol\":698:725  owner = payable(msg.sender) */\n  0x0100\n  exp\n  dup2\n  sload\n  dup2\n  0xffffffffffffffffffffffffffffffffffffffff\n  mul\n  not\n  and\n  swap1\n  dup4\n  0xffffffffffffffffffffffffffffffffffffffff\n  and\n  mul\n  or\n  swap1\n  sstore\n  pop\n    /* \"Documents/Web3/Casino/002 Roulette.sol\":547:3679  contract Roulette {... */\n  dataSize(sub_0)\n  dup1\n  dataOffset(sub_0)\n  0x00\n  codecopy\n  0x00\n  return\nstop\n\nsub_0: assembly {\n        /* \"Documents/Web3/Casino/002 Roulette.sol\":547:3679  contract Roulette {... */\n      mstore(0x40, 0x80)\n      jumpi(tag_1, lt(calldatasize, 0x04))\n      shr(0xe0, calldataload(0x00))\n      dup1\n      0x8da5cb5b\n      gt\n      tag_14\n      jumpi\n      dup1\n      0x8da5cb5b\n      eq\n      tag_8\n      jumpi\n      dup1\n      0x8fb17973\n      eq\n      tag_9\n      jumpi\n      dup1\n      0xbed2e0c3\n      eq\n      tag_10\n      jumpi\n      dup1\n      0xe8d18212\n      eq\n      tag_11\n      jumpi\n      dup1\n      0xf855aa9e\n      eq\n      tag_12\n      jumpi\n      dup1\n      0xff65d090\n      eq\n      tag_13\n      jumpi\n      jump(tag_1)\n    tag_14:\n      dup1\n      0x07d0394c\n      eq\n      tag_2\n      jumpi\n      dup1\n      0x14fbb92b\n      eq\n      tag_3\n      jumpi\n      dup1\n      0x1640e34e\n      eq\n      tag_4\n      jumpi\n      dup1\n      0x374ccd33\n      eq\n      tag_5\n      jumpi\n      dup1\n      0x48db5f89\n      eq\n      tag_6\n      jumpi\n      dup1\n      0x4eca8772\n      eq\n      tag_7\n      jumpi\n    tag_1:\n      0x00\n      dup1\n      revert\n        /* \"Documents/Web3/Casino/002 Roulette.sol\":2756:3025  function F_seventeenToOne(uint bet) payable public {... */\n    tag_2:\n      tag_15\n      0x04\n      dup1\n      calldatasize\n      sub\n      dup2\n      add\n      swap1\n      tag_16\n      swap2\n      swap1\n      tag_17\n      jump\t// in\n    tag_16:\n      tag_18\n      jump\t// in\n    tag_15:\n      stop\n        /* \"Documents/Web3/Casino/002 Roulette.sol\":1945:2208  function C_fiveToOne(uint bet) payable public {... */\n    tag_3:\n      tag_19\n      0x04\n      dup1\n      calldatasize\n      sub\n      dup2\n      add\n      swap1\n      tag_20\n      swap2\n      swap1\n      tag_17\n      jump\t// in\n    tag_20:\n      tag_21\n      jump\t// in\n    tag_19:\n      stop\n        /* \"Documents/Web3/Casino/002 Roulette.sol\":1407:1670  function A_oneToOne(uint bet) payable public {... */\n    tag_4:\n      tag_22\n      0x04\n      dup1\n      calldatasize\n      sub\n      dup2\n      add\n      swap1\n      tag_23\n      swap2\n      swap1\n      tag_17\n      jump\t// in\n    tag_23:\n      tag_24\n      jump\t// in\n    tag_22:\n      stop\n        /* \"Documents/Web3/Casino/002 Roulette.sol\":3564:3672  function J_getBalance() public view onlyOwner() returns (uint) {... */\n    tag_5:\n      callvalue\n      dup1\n      iszero\n      tag_25\n      jumpi\n      0x00\n      dup1\n      revert\n    tag_25:\n      pop\n      tag_26\n      tag_27\n      jump\t// in\n    tag_26:\n      mload(0x40)\n      tag_28\n      swap2\n      swap1\n      tag_29\n      jump\t// in\n    tag_28:\n      mload(0x40)\n      dup1\n      swap2\n      sub\n      swap1\n      return\n        /* \"Documents/Web3/Casino/002 Roulette.sol\":606:635  address payable public player */\n    tag_6:\n      callvalue\n      dup1\n      iszero\n      tag_30\n      jumpi\n      0x00\n      dup1\n      revert\n    tag_30:\n      pop\n      tag_31\n      tag_32\n      jump\t// in\n    tag_31:\n      mload(0x40)\n      tag_33\n      swap2\n      swap1\n      tag_34\n      jump\t// in\n    tag_33:\n      mload(0x40)\n      dup1\n      swap2\n      sub\n      swap1\n      return\n        /* \"Documents/Web3/Casino/002 Roulette.sol\":1676:1939  function B_twoToOne(uint bet) payable public {... */\n    tag_7:\n      tag_35\n      0x04\n      dup1\n      calldatasize\n      sub\n      dup2\n      add\n      swap1\n      tag_36\n      swap2\n      swap1\n      tag_17\n      jump\t// in\n    tag_36:\n      tag_37\n      jump\t// in\n    tag_35:\n      stop\n        /* \"Documents/Web3/Casino/002 Roulette.sol\":572:600  address payable public owner */\n    tag_8:\n      callvalue\n      dup1\n      iszero\n      tag_38\n      jumpi\n      0x00\n      dup1\n      revert\n    tag_38:\n      pop\n      tag_39\n      tag_40\n      jump\t// in\n    tag_39:\n      mload(0x40)\n      tag_41\n      swap2\n      swap1\n      tag_34\n      jump\t// in\n    tag_41:\n      mload(0x40)\n      dup1\n      swap2\n      sub\n      swap1\n      return\n        /* \"Documents/Web3/Casino/002 Roulette.sol\":2214:2478  function D_eightToOne(uint bet) payable public {... */\n    tag_9:\n      tag_42\n      0x04\n      dup1\n      calldatasize\n      sub\n      dup2\n      add\n      swap1\n      tag_43\n      swap2\n      swap1\n      tag_17\n      jump\t// in\n    tag_43:\n      tag_44\n      jump\t// in\n    tag_42:\n      stop\n        /* \"Documents/Web3/Casino/002 Roulette.sol\":3031:3301  function G_thirtyfiveToOne(uint bet) payable public {... */\n    tag_10:\n      tag_45\n      0x04\n      dup1\n      calldatasize\n      sub\n      dup2\n      add\n      swap1\n      tag_46\n      swap2\n      swap1\n      tag_17\n      jump\t// in\n    tag_46:\n      tag_47\n      jump\t// in\n    tag_45:\n      stop\n        /* \"Documents/Web3/Casino/002 Roulette.sol\":3351:3401  function H_deposit() payable public onlyOwner() {} */\n    tag_11:\n      tag_48\n      tag_49\n      jump\t// in\n    tag_48:\n      stop\n        /* \"Documents/Web3/Casino/002 Roulette.sol\":3407:3508  function I_withdraw(uint amount) public onlyOwner() {... */\n    tag_12:\n      callvalue\n      dup1\n      iszero\n      tag_50\n      jumpi\n      0x00\n      dup1\n      revert\n    tag_50:\n      pop\n      tag_51\n      0x04\n      dup1\n      calldatasize\n      sub\n      dup2\n      add\n      swap1\n      tag_52\n      swap2\n      swap1\n      tag_17\n      jump\t// in\n    tag_52:\n      tag_53\n      jump\t// in\n    tag_51:\n      stop\n        /* \"Documents/Web3/Casino/002 Roulette.sol\":2484:2750  function E_elevenToOne(uint bet) payable public {... */\n    tag_13:\n      tag_54\n      0x04\n      dup1\n      calldatasize\n      sub\n      dup2\n      add\n      swap1\n      tag_55\n      swap2\n      swap1\n      tag_17\n      jump\t// in\n    tag_55:\n      tag_56\n      jump\t// in\n    tag_54:\n      stop\n        /* \"Documents/Web3/Casino/002 Roulette.sol\":2756:3025  function F_seventeenToOne(uint bet) payable public {... */\n    tag_18:\n        /* \"Documents/Web3/Casino/002 Roulette.sol\":2844:2851  1 ether */\n      0x0de0b6b3a7640000\n        /* \"Documents/Web3/Casino/002 Roulette.sol\":2838:2841  bet */\n      dup2\n        /* \"Documents/Web3/Casino/002 Roulette.sol\":2838:2851  bet * 1 ether */\n      tag_58\n      swap2\n      swap1\n      tag_59\n      jump\t// in\n    tag_58:\n        /* \"Documents/Web3/Casino/002 Roulette.sol\":2825:2834  msg.value */\n      callvalue\n        /* \"Documents/Web3/Casino/002 Roulette.sol\":2825:2851  msg.value == bet * 1 ether */\n      eq\n        /* \"Documents/Web3/Casino/002 Roulette.sol\":2817:2852  require(msg.value == bet * 1 ether) */\n      tag_60\n      jumpi\n      0x00\n      dup1\n      revert\n    tag_60:\n        /* \"Documents/Web3/Casino/002 Roulette.sol\":2862:2878  uint determinant */\n      0x00\n        /* \"Documents/Web3/Casino/002 Roulette.sol\":2901:2903  38 */\n      0x26\n        /* \"Documents/Web3/Casino/002 Roulette.sol\":2881:2898  getRandomNumber() */\n      tag_61\n        /* \"Documents/Web3/Casino/002 Roulette.sol\":2881:2896  getRandomNumber */\n      tag_62\n        /* \"Documents/Web3/Casino/002 Roulette.sol\":2881:2898  getRandomNumber() */\n      jump\t// in\n    tag_61:\n        /* \"Documents/Web3/Casino/002 Roulette.sol\":2881:2903  getRandomNumber() % 38 */\n      tag_63\n      swap2\n      swap1\n      tag_64\n      jump\t// in\n    tag_63:\n        /* \"Documents/Web3/Casino/002 Roulette.sol\":2862:2903  uint determinant = getRandomNumber() % 38 */\n      swap1\n      pop\n        /* \"Documents/Web3/Casino/002 Roulette.sol\":2931:2932  2 */\n      0x02\n        /* \"Documents/Web3/Casino/002 Roulette.sol\":2917:2928  determinant */\n      dup2\n        /* \"Documents/Web3/Casino/002 Roulette.sol\":2917:2932  determinant < 2 */\n      lt\n        /* \"Documents/Web3/Casino/002 Roulette.sol\":2913:3019  if (determinant < 2) {... */\n      iszero\n      tag_65\n      jumpi\n        /* \"Documents/Web3/Casino/002 Roulette.sol\":2956:2966  msg.sender */\n      caller\n        /* \"Documents/Web3/Casino/002 Roulette.sol\":2948:2976  payable(msg.sender).transfer */\n      0xffffffffffffffffffffffffffffffffffffffff\n      and\n        /* \"Documents/Web3/Casino/002 Roulette.sol\":2948:2992  payable(msg.sender).transfer(bet * 18 ether) */\n      0x08fc\n        /* \"Documents/Web3/Casino/002 Roulette.sol\":2983:2991  18 ether */\n      0xf9ccd8a1c5080000\n        /* \"Documents/Web3/Casino/002 Roulette.sol\":2977:2980  bet */\n      dup5\n        /* \"Documents/Web3/Casino/002 Roulette.sol\":2977:2991  bet * 18 ether */\n      tag_66\n      swap2\n      swap1\n      tag_59\n      jump\t// in\n    tag_66:\n        /* \"Documents/Web3/Casino/002 Roulette.sol\":2948:2992  payable(msg.sender).transfer(bet * 18 ether) */\n      swap1\n      dup2\n      iszero\n      mul\n      swap1\n      mload(0x40)\n      0x00\n      mload(0x40)\n      dup1\n      dup4\n      sub\n      dup2\n      dup6\n      dup9\n      dup9\n      call\n      swap4\n      pop\n      pop\n      pop\n      pop\n      iszero\n      dup1\n      iszero\n      tag_68\n      jumpi\n      returndatasize\n      0x00\n      dup1\n      returndatacopy\n      revert(0x00, returndatasize)\n    tag_68:\n      pop\n        /* \"Documents/Web3/Casino/002 Roulette.sol\":2913:3019  if (determinant < 2) {... */\n      jump(tag_69)\n    tag_65:\n    tag_69:\n        /* \"Documents/Web3/Casino/002 Roulette.sol\":2807:3025  {... */\n      pop\n        /* \"Documents/Web3/Casino/002 Roulette.sol\":2756:3025  function F_seventeenToOne(uint bet) payable public {... */\n      pop\n      jump\t// out\n        /* \"Documents/Web3/Casino/002 Roulette.sol\":1945:2208  function C_fiveToOne(uint bet) payable public {... */\n    tag_21:\n        /* \"Documents/Web3/Casino/002 Roulette.sol\":2028:2035  1 ether */\n      0x0de0b6b3a7640000\n        /* \"Documents/Web3/Casino/002 Roulette.sol\":2022:2025  bet */\n      dup2\n        /* \"Documents/Web3/Casino/002 Roulette.sol\":2022:2035  bet * 1 ether */\n      tag_71\n      swap2\n      swap1\n      tag_59\n      jump\t// in\n    tag_71:\n        /* \"Documents/Web3/Casino/002 Roulette.sol\":2009:2018  msg.value */\n      callvalue\n        /* \"Documents/Web3/Casino/002 Roulette.sol\":2009:2035  msg.value == bet * 1 ether */\n      eq\n        /* \"Documents/Web3/Casino/002 Roulette.sol\":2001:2036  require(msg.value == bet * 1 ether) */\n      tag_72\n      jumpi\n      0x00\n      dup1\n      revert\n    tag_72:\n        /* \"Documents/Web3/Casino/002 Roulette.sol\":2046:2062  uint determinant */\n      0x00\n        /* \"Documents/Web3/Casino/002 Roulette.sol\":2085:2087  38 */\n      0x26\n        /* \"Documents/Web3/Casino/002 Roulette.sol\":2065:2082  getRandomNumber() */\n      tag_73\n        /* \"Documents/Web3/Casino/002 Roulette.sol\":2065:2080  getRandomNumber */\n      tag_62\n        /* \"Documents/Web3/Casino/002 Roulette.sol\":2065:2082  getRandomNumber() */\n      jump\t// in\n    tag_73:\n        /* \"Documents/Web3/Casino/002 Roulette.sol\":2065:2087  getRandomNumber() % 38 */\n      tag_74\n      swap2\n      swap1\n      tag_64\n      jump\t// in\n    tag_74:\n        /* \"Documents/Web3/Casino/002 Roulette.sol\":2046:2087  uint determinant = getRandomNumber() % 38 */\n      swap1\n      pop\n        /* \"Documents/Web3/Casino/002 Roulette.sol\":2115:2116  6 */\n      0x06\n        /* \"Documents/Web3/Casino/002 Roulette.sol\":2101:2112  determinant */\n      dup2\n        /* \"Documents/Web3/Casino/002 Roulette.sol\":2101:2116  determinant < 6 */\n      lt\n        /* \"Documents/Web3/Casino/002 Roulette.sol\":2097:2202  if (determinant < 6) {... */\n      iszero\n      tag_75\n      jumpi\n        /* \"Documents/Web3/Casino/002 Roulette.sol\":2140:2150  msg.sender */\n      caller\n        /* \"Documents/Web3/Casino/002 Roulette.sol\":2132:2160  payable(msg.sender).transfer */\n      0xffffffffffffffffffffffffffffffffffffffff\n      and\n        /* \"Documents/Web3/Casino/002 Roulette.sol\":2132:2175  payable(msg.sender).transfer(bet * 6 ether) */\n      0x08fc\n        /* \"Documents/Web3/Casino/002 Roulette.sol\":2167:2174  6 ether */\n      0x53444835ec580000\n        /* \"Documents/Web3/Casino/002 Roulette.sol\":2161:2164  bet */\n      dup5\n        /* \"Documents/Web3/Casino/002 Roulette.sol\":2161:2174  bet * 6 ether */\n      tag_76\n      swap2\n      swap1\n      tag_59\n      jump\t// in\n    tag_76:\n        /* \"Documents/Web3/Casino/002 Roulette.sol\":2132:2175  payable(msg.sender).transfer(bet * 6 ether) */\n      swap1\n      dup2\n      iszero\n      mul\n      swap1\n      mload(0x40)\n      0x00\n      mload(0x40)\n      dup1\n      dup4\n      sub\n      dup2\n      dup6\n      dup9\n      dup9\n      call\n      swap4\n      pop\n      pop\n      pop\n      pop\n      iszero\n      dup1\n      iszero\n      tag_78\n      jumpi\n      returndatasize\n      0x00\n      dup1\n      returndatacopy\n      revert(0x00, returndatasize)\n    tag_78:\n      pop\n        /* \"Documents/Web3/Casino/002 Roulette.sol\":2097:2202  if (determinant < 6) {... */\n      jump(tag_79)\n    tag_75:\n    tag_79:\n        /* \"Documents/Web3/Casino/002 Roulette.sol\":1991:2208  {... */\n      pop\n        /* \"Documents/Web3/Casino/002 Roulette.sol\":1945:2208  function C_fiveToOne(uint bet) payable public {... */\n      pop\n      jump\t// out\n        /* \"Documents/Web3/Casino/002 Roulette.sol\":1407:1670  function A_oneToOne(uint bet) payable public {... */\n    tag_24:\n        /* \"Documents/Web3/Casino/002 Roulette.sol\":1489:1496  1 ether */\n      0x0de0b6b3a7640000\n        /* \"Documents/Web3/Casino/002 Roulette.sol\":1483:1486  bet */\n      dup2\n        /* \"Documents/Web3/Casino/002 Roulette.sol\":1483:1496  bet * 1 ether */\n      tag_81\n      swap2\n      swap1\n      tag_59\n      jump\t// in\n    tag_81:\n        /* \"Documents/Web3/Casino/002 Roulette.sol\":1470:1479  msg.value */\n      callvalue\n        /* \"Documents/Web3/Casino/002 Roulette.sol\":1470:1496  msg.value == bet * 1 ether */\n      eq\n        /* \"Documents/Web3/Casino/002 Roulette.sol\":1462:1497  require(msg.value == bet * 1 ether) */\n      tag_82\n      jumpi\n      0x00\n      dup1\n      revert\n    tag_82:\n        /* \"Documents/Web3/Casino/002 Roulette.sol\":1507:1523  uint determinant */\n      0x00\n        /* \"Documents/Web3/Casino/002 Roulette.sol\":1546:1548  38 */\n      0x26\n        /* \"Documents/Web3/Casino/002 Roulette.sol\":1526:1543  getRandomNumber() */\n      tag_83\n        /* \"Documents/Web3/Casino/002 Roulette.sol\":1526:1541  getRandomNumber */\n      tag_62\n        /* \"Documents/Web3/Casino/002 Roulette.sol\":1526:1543  getRandomNumber() */\n      jump\t// in\n    tag_83:\n        /* \"Documents/Web3/Casino/002 Roulette.sol\":1526:1548  getRandomNumber() % 38 */\n      tag_84\n      swap2\n      swap1\n      tag_64\n      jump\t// in\n    tag_84:\n        /* \"Documents/Web3/Casino/002 Roulette.sol\":1507:1548  uint determinant = getRandomNumber() % 38 */\n      swap1\n      pop\n        /* \"Documents/Web3/Casino/002 Roulette.sol\":1576:1578  18 */\n      0x12\n        /* \"Documents/Web3/Casino/002 Roulette.sol\":1562:1573  determinant */\n      dup2\n        /* \"Documents/Web3/Casino/002 Roulette.sol\":1562:1578  determinant < 18 */\n      lt\n        /* \"Documents/Web3/Casino/002 Roulette.sol\":1558:1664  if (determinant < 18) {... */\n      iszero\n      tag_85\n      jumpi\n        /* \"Documents/Web3/Casino/002 Roulette.sol\":1602:1612  msg.sender */\n      caller\n        /* \"Documents/Web3/Casino/002 Roulette.sol\":1594:1622  payable(msg.sender).transfer */\n      0xffffffffffffffffffffffffffffffffffffffff\n      and\n        /* \"Documents/Web3/Casino/002 Roulette.sol\":1594:1637  payable(msg.sender).transfer(bet * 2 ether) */\n      0x08fc\n        /* \"Documents/Web3/Casino/002 Roulette.sol\":1629:1636  2 ether */\n      0x1bc16d674ec80000\n        /* \"Documents/Web3/Casino/002 Roulette.sol\":1623:1626  bet */\n      dup5\n        /* \"Documents/Web3/Casino/002 Roulette.sol\":1623:1636  bet * 2 ether */\n      tag_86\n      swap2\n      swap1\n      tag_59\n      jump\t// in\n    tag_86:\n        /* \"Documents/Web3/Casino/002 Roulette.sol\":1594:1637  payable(msg.sender).transfer(bet * 2 ether) */\n      swap1\n      dup2\n      iszero\n      mul\n      swap1\n      mload(0x40)\n      0x00\n      mload(0x40)\n      dup1\n      dup4\n      sub\n      dup2\n      dup6\n      dup9\n      dup9\n      call\n      swap4\n      pop\n      pop\n      pop\n      pop\n      iszero\n      dup1\n      iszero\n      tag_88\n      jumpi\n      returndatasize\n      0x00\n      dup1\n      returndatacopy\n      revert(0x00, returndatasize)\n    tag_88:\n      pop\n        /* \"Documents/Web3/Casino/002 Roulette.sol\":1558:1664  if (determinant < 18) {... */\n      jump(tag_89)\n    tag_85:\n    tag_89:\n        /* \"Documents/Web3/Casino/002 Roulette.sol\":1452:1670  {... */\n      pop\n        /* \"Documents/Web3/Casino/002 Roulette.sol\":1407:1670  function A_oneToOne(uint bet) payable public {... */\n      pop\n      jump\t// out\n        /* \"Documents/Web3/Casino/002 Roulette.sol\":3564:3672  function J_getBalance() public view onlyOwner() returns (uint) {... */\n    tag_27:\n        /* \"Documents/Web3/Casino/002 Roulette.sol\":3621:3625  uint */\n      0x00\n        /* \"Documents/Web3/Casino/002 Roulette.sol\":828:833  owner */\n      dup1\n      0x00\n      swap1\n      sload\n      swap1\n      0x0100\n      exp\n      swap1\n      div\n      0xffffffffffffffffffffffffffffffffffffffff\n      and\n        /* \"Documents/Web3/Casino/002 Roulette.sol\":814:833  msg.sender == owner */\n      0xffffffffffffffffffffffffffffffffffffffff\n      and\n        /* \"Documents/Web3/Casino/002 Roulette.sol\":814:824  msg.sender */\n      caller\n        /* \"Documents/Web3/Casino/002 Roulette.sol\":814:833  msg.sender == owner */\n      0xffffffffffffffffffffffffffffffffffffffff\n      and\n      eq\n        /* \"Documents/Web3/Casino/002 Roulette.sol\":806:834  require(msg.sender == owner) */\n      tag_91\n      jumpi\n      0x00\n      dup1\n      revert\n    tag_91:\n        /* \"Documents/Web3/Casino/002 Roulette.sol\":3644:3665  address(this).balance */\n      selfbalance\n        /* \"Documents/Web3/Casino/002 Roulette.sol\":3637:3665  return address(this).balance */\n      swap1\n      pop\n        /* \"Documents/Web3/Casino/002 Roulette.sol\":3564:3672  function J_getBalance() public view onlyOwner() returns (uint) {... */\n      swap1\n      jump\t// out\n        /* \"Documents/Web3/Casino/002 Roulette.sol\":606:635  address payable public player */\n    tag_32:\n      0x01\n      0x00\n      swap1\n      sload\n      swap1\n      0x0100\n      exp\n      swap1\n      div\n      0xffffffffffffffffffffffffffffffffffffffff\n      and\n      dup2\n      jump\t// out\n        /* \"Documents/Web3/Casino/002 Roulette.sol\":1676:1939  function B_twoToOne(uint bet) payable public {... */\n    tag_37:\n        /* \"Documents/Web3/Casino/002 Roulette.sol\":1758:1765  1 ether */\n      0x0de0b6b3a7640000\n        /* \"Documents/Web3/Casino/002 Roulette.sol\":1752:1755  bet */\n      dup2\n        /* \"Documents/Web3/Casino/002 Roulette.sol\":1752:1765  bet * 1 ether */\n      tag_94\n      swap2\n      swap1\n      tag_59\n      jump\t// in\n    tag_94:\n        /* \"Documents/Web3/Casino/002 Roulette.sol\":1739:1748  msg.value */\n      callvalue\n        /* \"Documents/Web3/Casino/002 Roulette.sol\":1739:1765  msg.value == bet * 1 ether */\n      eq\n        /* \"Documents/Web3/Casino/002 Roulette.sol\":1731:1766  require(msg.value == bet * 1 ether) */\n      tag_95\n      jumpi\n      0x00\n      dup1\n      revert\n    tag_95:\n        /* \"Documents/Web3/Casino/002 Roulette.sol\":1776:1792  uint determinant */\n      0x00\n        /* \"Documents/Web3/Casino/002 Roulette.sol\":1815:1817  38 */\n      0x26\n        /* \"Documents/Web3/Casino/002 Roulette.sol\":1795:1812  getRandomNumber() */\n      tag_96\n        /* \"Documents/Web3/Casino/002 Roulette.sol\":1795:1810  getRandomNumber */\n      tag_62\n        /* \"Documents/Web3/Casino/002 Roulette.sol\":1795:1812  getRandomNumber() */\n      jump\t// in\n    tag_96:\n        /* \"Documents/Web3/Casino/002 Roulette.sol\":1795:1817  getRandomNumber() % 38 */\n      tag_97\n      swap2\n      swap1\n      tag_64\n      jump\t// in\n    tag_97:\n        /* \"Documents/Web3/Casino/002 Roulette.sol\":1776:1817  uint determinant = getRandomNumber() % 38 */\n      swap1\n      pop\n        /* \"Documents/Web3/Casino/002 Roulette.sol\":1845:1847  12 */\n      0x0c\n        /* \"Documents/Web3/Casino/002 Roulette.sol\":1831:1842  determinant */\n      dup2\n        /* \"Documents/Web3/Casino/002 Roulette.sol\":1831:1847  determinant < 12 */\n      lt\n        /* \"Documents/Web3/Casino/002 Roulette.sol\":1827:1933  if (determinant < 12) {... */\n      iszero\n      tag_98\n      jumpi\n        /* \"Documents/Web3/Casino/002 Roulette.sol\":1871:1881  msg.sender */\n      caller\n        /* \"Documents/Web3/Casino/002 Roulette.sol\":1863:1891  payable(msg.sender).transfer */\n      0xffffffffffffffffffffffffffffffffffffffff\n      and\n        /* \"Documents/Web3/Casino/002 Roulette.sol\":1863:1906  payable(msg.sender).transfer(bet * 3 ether) */\n      0x08fc\n        /* \"Documents/Web3/Casino/002 Roulette.sol\":1898:1905  3 ether */\n      0x29a2241af62c0000\n        /* \"Documents/Web3/Casino/002 Roulette.sol\":1892:1895  bet */\n      dup5\n        /* \"Documents/Web3/Casino/002 Roulette.sol\":1892:1905  bet * 3 ether */\n      tag_99\n      swap2\n      swap1\n      tag_59\n      jump\t// in\n    tag_99:\n        /* \"Documents/Web3/Casino/002 Roulette.sol\":1863:1906  payable(msg.sender).transfer(bet * 3 ether) */\n      swap1\n      dup2\n      iszero\n      mul\n      swap1\n      mload(0x40)\n      0x00\n      mload(0x40)\n      dup1\n      dup4\n      sub\n      dup2\n      dup6\n      dup9\n      dup9\n      call\n      swap4\n      pop\n      pop\n      pop\n      pop\n      iszero\n      dup1\n      iszero\n      tag_101\n      jumpi\n      returndatasize\n      0x00\n      dup1\n      returndatacopy\n      revert(0x00, returndatasize)\n    tag_101:\n      pop\n        /* \"Documents/Web3/Casino/002 Roulette.sol\":1827:1933  if (determinant < 12) {... */\n      jump(tag_102)\n    tag_98:\n    tag_102:\n        /* \"Documents/Web3/Casino/002 Roulette.sol\":1721:1939  {... */\n      pop\n        /* \"Documents/Web3/Casino/002 Roulette.sol\":1676:1939  function B_twoToOne(uint bet) payable public {... */\n      pop\n      jump\t// out\n        /* \"Documents/Web3/Casino/002 Roulette.sol\":572:600  address payable public owner */\n    tag_40:\n      0x00\n      dup1\n      sload\n      swap1\n      0x0100\n      exp\n      swap1\n      div\n      0xffffffffffffffffffffffffffffffffffffffff\n      and\n      dup2\n      jump\t// out\n        /* \"Documents/Web3/Casino/002 Roulette.sol\":2214:2478  function D_eightToOne(uint bet) payable public {... */\n    tag_44:\n        /* \"Documents/Web3/Casino/002 Roulette.sol\":2298:2305  1 ether */\n      0x0de0b6b3a7640000\n        /* \"Documents/Web3/Casino/002 Roulette.sol\":2292:2295  bet */\n      dup2\n        /* \"Documents/Web3/Casino/002 Roulette.sol\":2292:2305  bet * 1 ether */\n      tag_104\n      swap2\n      swap1\n      tag_59\n      jump\t// in\n    tag_104:\n        /* \"Documents/Web3/Casino/002 Roulette.sol\":2279:2288  msg.value */\n      callvalue\n        /* \"Documents/Web3/Casino/002 Roulette.sol\":2279:2305  msg.value == bet * 1 ether */\n      eq\n        /* \"Documents/Web3/Casino/002 Roulette.sol\":2271:2306  require(msg.value == bet * 1 ether) */\n      tag_105\n      jumpi\n      0x00\n      dup1\n      revert\n    tag_105:\n        /* \"Documents/Web3/Casino/002 Roulette.sol\":2316:2332  uint determinant */\n      0x00\n        /* \"Documents/Web3/Casino/002 Roulette.sol\":2355:2357  38 */\n      0x26\n        /* \"Documents/Web3/Casino/002 Roulette.sol\":2335:2352  getRandomNumber() */\n      tag_106\n        /* \"Documents/Web3/Casino/002 Roulette.sol\":2335:2350  getRandomNumber */\n      tag_62\n        /* \"Documents/Web3/Casino/002 Roulette.sol\":2335:2352  getRandomNumber() */\n      jump\t// in\n    tag_106:\n        /* \"Documents/Web3/Casino/002 Roulette.sol\":2335:2357  getRandomNumber() % 38 */\n      tag_107\n      swap2\n      swap1\n      tag_64\n      jump\t// in\n    tag_107:\n        /* \"Documents/Web3/Casino/002 Roulette.sol\":2316:2357  uint determinant = getRandomNumber() % 38 */\n      swap1\n      pop\n        /* \"Documents/Web3/Casino/002 Roulette.sol\":2385:2386  4 */\n      0x04\n        /* \"Documents/Web3/Casino/002 Roulette.sol\":2371:2382  determinant */\n      dup2\n        /* \"Documents/Web3/Casino/002 Roulette.sol\":2371:2386  determinant < 4 */\n      lt\n        /* \"Documents/Web3/Casino/002 Roulette.sol\":2367:2472  if (determinant < 4) {... */\n      iszero\n      tag_108\n      jumpi\n        /* \"Documents/Web3/Casino/002 Roulette.sol\":2410:2420  msg.sender */\n      caller\n        /* \"Documents/Web3/Casino/002 Roulette.sol\":2402:2430  payable(msg.sender).transfer */\n      0xffffffffffffffffffffffffffffffffffffffff\n      and\n        /* \"Documents/Web3/Casino/002 Roulette.sol\":2402:2445  payable(msg.sender).transfer(bet * 9 ether) */\n      0x08fc\n        /* \"Documents/Web3/Casino/002 Roulette.sol\":2437:2444  9 ether */\n      0x7ce66c50e2840000\n        /* \"Documents/Web3/Casino/002 Roulette.sol\":2431:2434  bet */\n      dup5\n        /* \"Documents/Web3/Casino/002 Roulette.sol\":2431:2444  bet * 9 ether */\n      tag_109\n      swap2\n      swap1\n      tag_59\n      jump\t// in\n    tag_109:\n        /* \"Documents/Web3/Casino/002 Roulette.sol\":2402:2445  payable(msg.sender).transfer(bet * 9 ether) */\n      swap1\n      dup2\n      iszero\n      mul\n      swap1\n      mload(0x40)\n      0x00\n      mload(0x40)\n      dup1\n      dup4\n      sub\n      dup2\n      dup6\n      dup9\n      dup9\n      call\n      swap4\n      pop\n      pop\n      pop\n      pop\n      iszero\n      dup1\n      iszero\n      tag_111\n      jumpi\n      returndatasize\n      0x00\n      dup1\n      returndatacopy\n      revert(0x00, returndatasize)\n    tag_111:\n      pop\n        /* \"Documents/Web3/Casino/002 Roulette.sol\":2367:2472  if (determinant < 4) {... */\n      jump(tag_112)\n    tag_108:\n    tag_112:\n        /* \"Documents/Web3/Casino/002 Roulette.sol\":2261:2478  {... */\n      pop\n        /* \"Documents/Web3/Casino/002 Roulette.sol\":2214:2478  function D_eightToOne(uint bet) payable public {... */\n      pop\n      jump\t// out\n        /* \"Documents/Web3/Casino/002 Roulette.sol\":3031:3301  function G_thirtyfiveToOne(uint bet) payable public {... */\n    tag_47:\n        /* \"Documents/Web3/Casino/002 Roulette.sol\":3120:3127  1 ether */\n      0x0de0b6b3a7640000\n        /* \"Documents/Web3/Casino/002 Roulette.sol\":3114:3117  bet */\n      dup2\n        /* \"Documents/Web3/Casino/002 Roulette.sol\":3114:3127  bet * 1 ether */\n      tag_114\n      swap2\n      swap1\n      tag_59\n      jump\t// in\n    tag_114:\n        /* \"Documents/Web3/Casino/002 Roulette.sol\":3101:3110  msg.value */\n      callvalue\n        /* \"Documents/Web3/Casino/002 Roulette.sol\":3101:3127  msg.value == bet * 1 ether */\n      eq\n        /* \"Documents/Web3/Casino/002 Roulette.sol\":3093:3128  require(msg.value == bet * 1 ether) */\n      tag_115\n      jumpi\n      0x00\n      dup1\n      revert\n    tag_115:\n        /* \"Documents/Web3/Casino/002 Roulette.sol\":3138:3154  uint determinant */\n      0x00\n        /* \"Documents/Web3/Casino/002 Roulette.sol\":3177:3179  38 */\n      0x26\n        /* \"Documents/Web3/Casino/002 Roulette.sol\":3157:3174  getRandomNumber() */\n      tag_116\n        /* \"Documents/Web3/Casino/002 Roulette.sol\":3157:3172  getRandomNumber */\n      tag_62\n        /* \"Documents/Web3/Casino/002 Roulette.sol\":3157:3174  getRandomNumber() */\n      jump\t// in\n    tag_116:\n        /* \"Documents/Web3/Casino/002 Roulette.sol\":3157:3179  getRandomNumber() % 38 */\n      tag_117\n      swap2\n      swap1\n      tag_64\n      jump\t// in\n    tag_117:\n        /* \"Documents/Web3/Casino/002 Roulette.sol\":3138:3179  uint determinant = getRandomNumber() % 38 */\n      swap1\n      pop\n        /* \"Documents/Web3/Casino/002 Roulette.sol\":3207:3208  1 */\n      0x01\n        /* \"Documents/Web3/Casino/002 Roulette.sol\":3193:3204  determinant */\n      dup2\n        /* \"Documents/Web3/Casino/002 Roulette.sol\":3193:3208  determinant < 1 */\n      lt\n        /* \"Documents/Web3/Casino/002 Roulette.sol\":3189:3295  if (determinant < 1) {... */\n      iszero\n      tag_118\n      jumpi\n        /* \"Documents/Web3/Casino/002 Roulette.sol\":3232:3242  msg.sender */\n      caller\n        /* \"Documents/Web3/Casino/002 Roulette.sol\":3224:3252  payable(msg.sender).transfer */\n      0xffffffffffffffffffffffffffffffffffffffff\n      and\n        /* \"Documents/Web3/Casino/002 Roulette.sol\":3224:3268  payable(msg.sender).transfer(bet * 36 ether) */\n      0x08fc\n        /* \"Documents/Web3/Casino/002 Roulette.sol\":3259:3267  36 ether */\n      0x01f399b1438a100000\n        /* \"Documents/Web3/Casino/002 Roulette.sol\":3253:3256  bet */\n      dup5\n        /* \"Documents/Web3/Casino/002 Roulette.sol\":3253:3267  bet * 36 ether */\n      tag_119\n      swap2\n      swap1\n      tag_59\n      jump\t// in\n    tag_119:\n        /* \"Documents/Web3/Casino/002 Roulette.sol\":3224:3268  payable(msg.sender).transfer(bet * 36 ether) */\n      swap1\n      dup2\n      iszero\n      mul\n      swap1\n      mload(0x40)\n      0x00\n      mload(0x40)\n      dup1\n      dup4\n      sub\n      dup2\n      dup6\n      dup9\n      dup9\n      call\n      swap4\n      pop\n      pop\n      pop\n      pop\n      iszero\n      dup1\n      iszero\n      tag_121\n      jumpi\n      returndatasize\n      0x00\n      dup1\n      returndatacopy\n      revert(0x00, returndatasize)\n    tag_121:\n      pop\n        /* \"Documents/Web3/Casino/002 Roulette.sol\":3189:3295  if (determinant < 1) {... */\n      jump(tag_122)\n    tag_118:\n    tag_122:\n        /* \"Documents/Web3/Casino/002 Roulette.sol\":3083:3301  {... */\n      pop\n        /* \"Documents/Web3/Casino/002 Roulette.sol\":3031:3301  function G_thirtyfiveToOne(uint bet) payable public {... */\n      pop\n      jump\t// out\n        /* \"Documents/Web3/Casino/002 Roulette.sol\":3351:3401  function H_deposit() payable public onlyOwner() {} */\n    tag_49:\n        /* \"Documents/Web3/Casino/002 Roulette.sol\":828:833  owner */\n      0x00\n      dup1\n      sload\n      swap1\n      0x0100\n      exp\n      swap1\n      div\n      0xffffffffffffffffffffffffffffffffffffffff\n      and\n        /* \"Documents/Web3/Casino/002 Roulette.sol\":814:833  msg.sender == owner */\n      0xffffffffffffffffffffffffffffffffffffffff\n      and\n        /* \"Documents/Web3/Casino/002 Roulette.sol\":814:824  msg.sender */\n      caller\n        /* \"Documents/Web3/Casino/002 Roulette.sol\":814:833  msg.sender == owner */\n      0xffffffffffffffffffffffffffffffffffffffff\n      and\n      eq\n        /* \"Documents/Web3/Casino/002 Roulette.sol\":806:834  require(msg.sender == owner) */\n      tag_124\n      jumpi\n      0x00\n      dup1\n      revert\n    tag_124:\n        /* \"Documents/Web3/Casino/002 Roulette.sol\":3351:3401  function H_deposit() payable public onlyOwner() {} */\n      jump\t// out\n        /* \"Documents/Web3/Casino/002 Roulette.sol\":3407:3508  function I_withdraw(uint amount) public onlyOwner() {... */\n    tag_53:\n        /* \"Documents/Web3/Casino/002 Roulette.sol\":828:833  owner */\n      0x00\n      dup1\n      sload\n      swap1\n      0x0100\n      exp\n      swap1\n      div\n      0xffffffffffffffffffffffffffffffffffffffff\n      and\n        /* \"Documents/Web3/Casino/002 Roulette.sol\":814:833  msg.sender == owner */\n      0xffffffffffffffffffffffffffffffffffffffff\n      and\n        /* \"Documents/Web3/Casino/002 Roulette.sol\":814:824  msg.sender */\n      caller\n        /* \"Documents/Web3/Casino/002 Roulette.sol\":814:833  msg.sender == owner */\n      0xffffffffffffffffffffffffffffffffffffffff\n      and\n      eq\n        /* \"Documents/Web3/Casino/002 Roulette.sol\":806:834  require(msg.sender == owner) */\n      tag_127\n      jumpi\n      0x00\n      dup1\n      revert\n    tag_127:\n        /* \"Documents/Web3/Casino/002 Roulette.sol\":3469:3474  owner */\n      0x00\n      dup1\n      sload\n      swap1\n      0x0100\n      exp\n      swap1\n      div\n      0xffffffffffffffffffffffffffffffffffffffff\n      and\n        /* \"Documents/Web3/Casino/002 Roulette.sol\":3469:3483  owner.transfer */\n      0xffffffffffffffffffffffffffffffffffffffff\n      and\n        /* \"Documents/Web3/Casino/002 Roulette.sol\":3469:3501  owner.transfer(amount * 1 ether) */\n      0x08fc\n        /* \"Documents/Web3/Casino/002 Roulette.sol\":3493:3500  1 ether */\n      0x0de0b6b3a7640000\n        /* \"Documents/Web3/Casino/002 Roulette.sol\":3484:3490  amount */\n      dup4\n        /* \"Documents/Web3/Casino/002 Roulette.sol\":3484:3500  amount * 1 ether */\n      tag_129\n      swap2\n      swap1\n      tag_59\n      jump\t// in\n    tag_129:\n        /* \"Documents/Web3/Casino/002 Roulette.sol\":3469:3501  owner.transfer(amount * 1 ether) */\n      swap1\n      dup2\n      iszero\n      mul\n      swap1\n      mload(0x40)\n      0x00\n      mload(0x40)\n      dup1\n      dup4\n      sub\n      dup2\n      dup6\n      dup9\n      dup9\n      call\n      swap4\n      pop\n      pop\n      pop\n      pop\n      iszero\n      dup1\n      iszero\n      tag_131\n      jumpi\n      returndatasize\n      0x00\n      dup1\n      returndatacopy\n      revert(0x00, returndatasize)\n    tag_131:\n      pop\n        /* \"Documents/Web3/Casino/002 Roulette.sol\":3407:3508  function I_withdraw(uint amount) public onlyOwner() {... */\n      pop\n      jump\t// out\n        /* \"Documents/Web3/Casino/002 Roulette.sol\":2484:2750  function E_elevenToOne(uint bet) payable public {... */\n    tag_56:\n        /* \"Documents/Web3/Casino/002 Roulette.sol\":2569:2576  1 ether */\n      0x0de0b6b3a7640000\n        /* \"Documents/Web3/Casino/002 Roulette.sol\":2563:2566  bet */\n      dup2\n        /* \"Documents/Web3/Casino/002 Roulette.sol\":2563:2576  bet * 1 ether */\n      tag_133\n      swap2\n      swap1\n      tag_59\n      jump\t// in\n    tag_133:\n        /* \"Documents/Web3/Casino/002 Roulette.sol\":2550:2559  msg.value */\n      callvalue\n        /* \"Documents/Web3/Casino/002 Roulette.sol\":2550:2576  msg.value == bet * 1 ether */\n      eq\n        /* \"Documents/Web3/Casino/002 Roulette.sol\":2542:2577  require(msg.value == bet * 1 ether) */\n      tag_134\n      jumpi\n      0x00\n      dup1\n      revert\n    tag_134:\n        /* \"Documents/Web3/Casino/002 Roulette.sol\":2587:2603  uint determinant */\n      0x00\n        /* \"Documents/Web3/Casino/002 Roulette.sol\":2626:2628  38 */\n      0x26\n        /* \"Documents/Web3/Casino/002 Roulette.sol\":2606:2623  getRandomNumber() */\n      tag_135\n        /* \"Documents/Web3/Casino/002 Roulette.sol\":2606:2621  getRandomNumber */\n      tag_62\n        /* \"Documents/Web3/Casino/002 Roulette.sol\":2606:2623  getRandomNumber() */\n      jump\t// in\n    tag_135:\n        /* \"Documents/Web3/Casino/002 Roulette.sol\":2606:2628  getRandomNumber() % 38 */\n      tag_136\n      swap2\n      swap1\n      tag_64\n      jump\t// in\n    tag_136:\n        /* \"Documents/Web3/Casino/002 Roulette.sol\":2587:2628  uint determinant = getRandomNumber() % 38 */\n      swap1\n      pop\n        /* \"Documents/Web3/Casino/002 Roulette.sol\":2656:2657  3 */\n      0x03\n        /* \"Documents/Web3/Casino/002 Roulette.sol\":2642:2653  determinant */\n      dup2\n        /* \"Documents/Web3/Casino/002 Roulette.sol\":2642:2657  determinant < 3 */\n      lt\n        /* \"Documents/Web3/Casino/002 Roulette.sol\":2638:2744  if (determinant < 3) {... */\n      iszero\n      tag_137\n      jumpi\n        /* \"Documents/Web3/Casino/002 Roulette.sol\":2681:2691  msg.sender */\n      caller\n        /* \"Documents/Web3/Casino/002 Roulette.sol\":2673:2701  payable(msg.sender).transfer */\n      0xffffffffffffffffffffffffffffffffffffffff\n      and\n        /* \"Documents/Web3/Casino/002 Roulette.sol\":2673:2717  payable(msg.sender).transfer(bet * 12 ether) */\n      0x08fc\n        /* \"Documents/Web3/Casino/002 Roulette.sol\":2708:2716  12 ether */\n      0xa688906bd8b00000\n        /* \"Documents/Web3/Casino/002 Roulette.sol\":2702:2705  bet */\n      dup5\n        /* \"Documents/Web3/Casino/002 Roulette.sol\":2702:2716  bet * 12 ether */\n      tag_138\n      swap2\n      swap1\n      tag_59\n      jump\t// in\n    tag_138:\n        /* \"Documents/Web3/Casino/002 Roulette.sol\":2673:2717  payable(msg.sender).transfer(bet * 12 ether) */\n      swap1\n      dup2\n      iszero\n      mul\n      swap1\n      mload(0x40)\n      0x00\n      mload(0x40)\n      dup1\n      dup4\n      sub\n      dup2\n      dup6\n      dup9\n      dup9\n      call\n      swap4\n      pop\n      pop\n      pop\n      pop\n      iszero\n      dup1\n      iszero\n      tag_140\n      jumpi\n      returndatasize\n      0x00\n      dup1\n      returndatacopy\n      revert(0x00, returndatasize)\n    tag_140:\n      pop\n        /* \"Documents/Web3/Casino/002 Roulette.sol\":2638:2744  if (determinant < 3) {... */\n      jump(tag_141)\n    tag_137:\n    tag_141:\n        /* \"Documents/Web3/Casino/002 Roulette.sol\":2532:2750  {... */\n      pop\n        /* \"Documents/Web3/Casino/002 Roulette.sol\":2484:2750  function E_elevenToOne(uint bet) payable public {... */\n      pop\n      jump\t// out\n        /* \"Documents/Web3/Casino/002 Roulette.sol\":1025:1195  function getRandomNumber() private view returns (uint) {... */\n    tag_62:\n        /* \"Documents/Web3/Casino/002 Roulette.sol\":1074:1078  uint */\n      0x00\n        /* \"Documents/Web3/Casino/002 Roulette.sol\":1129:1150  address(this).balance */\n      selfbalance\n        /* \"Documents/Web3/Casino/002 Roulette.sol\":1152:1167  block.timestamp */\n      timestamp\n        /* \"Documents/Web3/Casino/002 Roulette.sol\":1169:1185  block.difficulty */\n      difficulty\n        /* \"Documents/Web3/Casino/002 Roulette.sol\":1112:1186  abi.encodePacked(address(this).balance, block.timestamp, block.difficulty) */\n      add(0x20, mload(0x40))\n      tag_143\n      swap4\n      swap3\n      swap2\n      swap1\n      tag_144\n      jump\t// in\n    tag_143:\n      mload(0x40)\n      0x20\n      dup2\n      dup4\n      sub\n      sub\n      dup2\n      mstore\n      swap1\n      0x40\n      mstore\n        /* \"Documents/Web3/Casino/002 Roulette.sol\":1102:1187  keccak256(abi.encodePacked(address(this).balance, block.timestamp, block.difficulty)) */\n      dup1\n      mload\n      swap1\n      0x20\n      add\n      keccak256\n        /* \"Documents/Web3/Casino/002 Roulette.sol\":1097:1188  uint(keccak256(abi.encodePacked(address(this).balance, block.timestamp, block.difficulty))) */\n      0x00\n      shr\n        /* \"Documents/Web3/Casino/002 Roulette.sol\":1090:1188  return uint(keccak256(abi.encodePacked(address(this).balance, block.timestamp, block.difficulty))) */\n      swap1\n      pop\n        /* \"Documents/Web3/Casino/002 Roulette.sol\":1025:1195  function getRandomNumber() private view returns (uint) {... */\n      swap1\n      jump\t// out\n        /* \"#utility.yul\":88:205   */\n    tag_146:\n        /* \"#utility.yul\":197:198   */\n      0x00\n        /* \"#utility.yul\":194:195   */\n      dup1\n        /* \"#utility.yul\":187:199   */\n      revert\n        /* \"#utility.yul\":334:411   */\n    tag_148:\n        /* \"#utility.yul\":371:378   */\n      0x00\n        /* \"#utility.yul\":400:405   */\n      dup2\n        /* \"#utility.yul\":389:405   */\n      swap1\n      pop\n        /* \"#utility.yul\":334:411   */\n      swap2\n      swap1\n      pop\n      jump\t// out\n        /* \"#utility.yul\":417:539   */\n    tag_149:\n        /* \"#utility.yul\":490:514   */\n      tag_165\n        /* \"#utility.yul\":508:513   */\n      dup2\n        /* \"#utility.yul\":490:514   */\n      tag_148\n      jump\t// in\n    tag_165:\n        /* \"#utility.yul\":483:488   */\n      dup2\n        /* \"#utility.yul\":480:515   */\n      eq\n        /* \"#utility.yul\":470:533   */\n      tag_166\n      jumpi\n        /* \"#utility.yul\":529:530   */\n      0x00\n        /* \"#utility.yul\":526:527   */\n      dup1\n        /* \"#utility.yul\":519:531   */\n      revert\n        /* \"#utility.yul\":470:533   */\n    tag_166:\n        /* \"#utility.yul\":417:539   */\n      pop\n      jump\t// out\n        /* \"#utility.yul\":545:684   */\n    tag_150:\n        /* \"#utility.yul\":591:596   */\n      0x00\n        /* \"#utility.yul\":629:635   */\n      dup2\n        /* \"#utility.yul\":616:636   */\n      calldataload\n        /* \"#utility.yul\":607:636   */\n      swap1\n      pop\n        /* \"#utility.yul\":645:678   */\n      tag_168\n        /* \"#utility.yul\":672:677   */\n      dup2\n        /* \"#utility.yul\":645:678   */\n      tag_149\n      jump\t// in\n    tag_168:\n        /* \"#utility.yul\":545:684   */\n      swap3\n      swap2\n      pop\n      pop\n      jump\t// out\n        /* \"#utility.yul\":690:1019   */\n    tag_17:\n        /* \"#utility.yul\":749:755   */\n      0x00\n        /* \"#utility.yul\":798:800   */\n      0x20\n        /* \"#utility.yul\":786:795   */\n      dup3\n        /* \"#utility.yul\":777:784   */\n      dup5\n        /* \"#utility.yul\":773:796   */\n      sub\n        /* \"#utility.yul\":769:801   */\n      slt\n        /* \"#utility.yul\":766:885   */\n      iszero\n      tag_170\n      jumpi\n        /* \"#utility.yul\":804:883   */\n      tag_171\n      tag_146\n      jump\t// in\n    tag_171:\n        /* \"#utility.yul\":766:885   */\n    tag_170:\n        /* \"#utility.yul\":924:925   */\n      0x00\n        /* \"#utility.yul\":949:1002   */\n      tag_172\n        /* \"#utility.yul\":994:1001   */\n      dup5\n        /* \"#utility.yul\":985:991   */\n      dup3\n        /* \"#utility.yul\":974:983   */\n      dup6\n        /* \"#utility.yul\":970:992   */\n      add\n        /* \"#utility.yul\":949:1002   */\n      tag_150\n      jump\t// in\n    tag_172:\n        /* \"#utility.yul\":939:1002   */\n      swap2\n      pop\n        /* \"#utility.yul\":895:1012   */\n      pop\n        /* \"#utility.yul\":690:1019   */\n      swap3\n      swap2\n      pop\n      pop\n      jump\t// out\n        /* \"#utility.yul\":1025:1143   */\n    tag_151:\n        /* \"#utility.yul\":1112:1136   */\n      tag_174\n        /* \"#utility.yul\":1130:1135   */\n      dup2\n        /* \"#utility.yul\":1112:1136   */\n      tag_148\n      jump\t// in\n    tag_174:\n        /* \"#utility.yul\":1107:1110   */\n      dup3\n        /* \"#utility.yul\":1100:1137   */\n      mstore\n        /* \"#utility.yul\":1025:1143   */\n      pop\n      pop\n      jump\t// out\n        /* \"#utility.yul\":1149:1371   */\n    tag_29:\n        /* \"#utility.yul\":1242:1246   */\n      0x00\n        /* \"#utility.yul\":1280:1282   */\n      0x20\n        /* \"#utility.yul\":1269:1278   */\n      dup3\n        /* \"#utility.yul\":1265:1283   */\n      add\n        /* \"#utility.yul\":1257:1283   */\n      swap1\n      pop\n        /* \"#utility.yul\":1293:1364   */\n      tag_176\n        /* \"#utility.yul\":1361:1362   */\n      0x00\n        /* \"#utility.yul\":1350:1359   */\n      dup4\n        /* \"#utility.yul\":1346:1363   */\n      add\n        /* \"#utility.yul\":1337:1343   */\n      dup5\n        /* \"#utility.yul\":1293:1364   */\n      tag_151\n      jump\t// in\n    tag_176:\n        /* \"#utility.yul\":1149:1371   */\n      swap3\n      swap2\n      pop\n      pop\n      jump\t// out\n        /* \"#utility.yul\":1377:1503   */\n    tag_152:\n        /* \"#utility.yul\":1414:1421   */\n      0x00\n        /* \"#utility.yul\":1454:1496   */\n      0xffffffffffffffffffffffffffffffffffffffff\n        /* \"#utility.yul\":1447:1452   */\n      dup3\n        /* \"#utility.yul\":1443:1497   */\n      and\n        /* \"#utility.yul\":1432:1497   */\n      swap1\n      pop\n        /* \"#utility.yul\":1377:1503   */\n      swap2\n      swap1\n      pop\n      jump\t// out\n        /* \"#utility.yul\":1509:1613   */\n    tag_153:\n        /* \"#utility.yul\":1554:1561   */\n      0x00\n        /* \"#utility.yul\":1583:1607   */\n      tag_179\n        /* \"#utility.yul\":1601:1606   */\n      dup3\n        /* \"#utility.yul\":1583:1607   */\n      tag_152\n      jump\t// in\n    tag_179:\n        /* \"#utility.yul\":1572:1607   */\n      swap1\n      pop\n        /* \"#utility.yul\":1509:1613   */\n      swap2\n      swap1\n      pop\n      jump\t// out\n        /* \"#utility.yul\":1619:1761   */\n    tag_154:\n        /* \"#utility.yul\":1722:1754   */\n      tag_181\n        /* \"#utility.yul\":1748:1753   */\n      dup2\n        /* \"#utility.yul\":1722:1754   */\n      tag_153\n      jump\t// in\n    tag_181:\n        /* \"#utility.yul\":1717:1720   */\n      dup3\n        /* \"#utility.yul\":1710:1755   */\n      mstore\n        /* \"#utility.yul\":1619:1761   */\n      pop\n      pop\n      jump\t// out\n        /* \"#utility.yul\":1767:2021   */\n    tag_34:\n        /* \"#utility.yul\":1876:1880   */\n      0x00\n        /* \"#utility.yul\":1914:1916   */\n      0x20\n        /* \"#utility.yul\":1903:1912   */\n      dup3\n        /* \"#utility.yul\":1899:1917   */\n      add\n        /* \"#utility.yul\":1891:1917   */\n      swap1\n      pop\n        /* \"#utility.yul\":1927:2014   */\n      tag_183\n        /* \"#utility.yul\":2011:2012   */\n      0x00\n        /* \"#utility.yul\":2000:2009   */\n      dup4\n        /* \"#utility.yul\":1996:2013   */\n      add\n        /* \"#utility.yul\":1987:1993   */\n      dup5\n        /* \"#utility.yul\":1927:2014   */\n      tag_154\n      jump\t// in\n    tag_183:\n        /* \"#utility.yul\":1767:2021   */\n      swap3\n      swap2\n      pop\n      pop\n      jump\t// out\n        /* \"#utility.yul\":2027:2207   */\n    tag_155:\n        /* \"#utility.yul\":2075:2152   */\n      0x4e487b7100000000000000000000000000000000000000000000000000000000\n        /* \"#utility.yul\":2072:2073   */\n      0x00\n        /* \"#utility.yul\":2065:2153   */\n      mstore\n        /* \"#utility.yul\":2172:2176   */\n      0x11\n        /* \"#utility.yul\":2169:2170   */\n      0x04\n        /* \"#utility.yul\":2162:2177   */\n      mstore\n        /* \"#utility.yul\":2196:2200   */\n      0x24\n        /* \"#utility.yul\":2193:2194   */\n      0x00\n        /* \"#utility.yul\":2186:2201   */\n      revert\n        /* \"#utility.yul\":2213:2561   */\n    tag_59:\n        /* \"#utility.yul\":2253:2260   */\n      0x00\n        /* \"#utility.yul\":2276:2296   */\n      tag_186\n        /* \"#utility.yul\":2294:2295   */\n      dup3\n        /* \"#utility.yul\":2276:2296   */\n      tag_148\n      jump\t// in\n    tag_186:\n        /* \"#utility.yul\":2271:2296   */\n      swap2\n      pop\n        /* \"#utility.yul\":2310:2330   */\n      tag_187\n        /* \"#utility.yul\":2328:2329   */\n      dup4\n        /* \"#utility.yul\":2310:2330   */\n      tag_148\n      jump\t// in\n    tag_187:\n        /* \"#utility.yul\":2305:2330   */\n      swap3\n      pop\n        /* \"#utility.yul\":2498:2499   */\n      dup2\n        /* \"#utility.yul\":2430:2496   */\n      0xffffffffffffffffffffffffffffffffffffffffffffffffffffffffffffffff\n        /* \"#utility.yul\":2426:2500   */\n      div\n        /* \"#utility.yul\":2423:2424   */\n      dup4\n        /* \"#utility.yul\":2420:2501   */\n      gt\n        /* \"#utility.yul\":2415:2416   */\n      dup3\n        /* \"#utility.yul\":2408:2417   */\n      iszero\n        /* \"#utility.yul\":2401:2418   */\n      iszero\n        /* \"#utility.yul\":2397:2502   */\n      and\n        /* \"#utility.yul\":2394:2525   */\n      iszero\n      tag_188\n      jumpi\n        /* \"#utility.yul\":2505:2523   */\n      tag_189\n      tag_155\n      jump\t// in\n    tag_189:\n        /* \"#utility.yul\":2394:2525   */\n    tag_188:\n        /* \"#utility.yul\":2553:2554   */\n      dup3\n        /* \"#utility.yul\":2550:2551   */\n      dup3\n        /* \"#utility.yul\":2546:2555   */\n      mul\n        /* \"#utility.yul\":2535:2555   */\n      swap1\n      pop\n        /* \"#utility.yul\":2213:2561   */\n      swap3\n      swap2\n      pop\n      pop\n      jump\t// out\n        /* \"#utility.yul\":2567:2747   */\n    tag_156:\n        /* \"#utility.yul\":2615:2692   */\n      0x4e487b7100000000000000000000000000000000000000000000000000000000\n        /* \"#utility.yul\":2612:2613   */\n      0x00\n        /* \"#utility.yul\":2605:2693   */\n      mstore\n        /* \"#utility.yul\":2712:2716   */\n      0x12\n        /* \"#utility.yul\":2709:2710   */\n      0x04\n        /* \"#utility.yul\":2702:2717   */\n      mstore\n        /* \"#utility.yul\":2736:2740   */\n      0x24\n        /* \"#utility.yul\":2733:2734   */\n      0x00\n        /* \"#utility.yul\":2726:2741   */\n      revert\n        /* \"#utility.yul\":2753:2929   */\n    tag_64:\n        /* \"#utility.yul\":2785:2786   */\n      0x00\n        /* \"#utility.yul\":2802:2822   */\n      tag_192\n        /* \"#utility.yul\":2820:2821   */\n      dup3\n        /* \"#utility.yul\":2802:2822   */\n      tag_148\n      jump\t// in\n    tag_192:\n        /* \"#utility.yul\":2797:2822   */\n      swap2\n      pop\n        /* \"#utility.yul\":2836:2856   */\n      tag_193\n        /* \"#utility.yul\":2854:2855   */\n      dup4\n        /* \"#utility.yul\":2836:2856   */\n      tag_148\n      jump\t// in\n    tag_193:\n        /* \"#utility.yul\":2831:2856   */\n      swap3\n      pop\n        /* \"#utility.yul\":2875:2876   */\n      dup3\n        /* \"#utility.yul\":2865:2900   */\n      tag_194\n      jumpi\n        /* \"#utility.yul\":2880:2898   */\n      tag_195\n      tag_156\n      jump\t// in\n    tag_195:\n        /* \"#utility.yul\":2865:2900   */\n    tag_194:\n        /* \"#utility.yul\":2921:2922   */\n      dup3\n        /* \"#utility.yul\":2918:2919   */\n      dup3\n        /* \"#utility.yul\":2914:2923   */\n      mod\n        /* \"#utility.yul\":2909:2923   */\n      swap1\n      pop\n        /* \"#utility.yul\":2753:2929   */\n      swap3\n      swap2\n      pop\n      pop\n      jump\t// out\n        /* \"#utility.yul\":2935:3014   */\n    tag_157:\n        /* \"#utility.yul\":2974:2981   */\n      0x00\n        /* \"#utility.yul\":3003:3008   */\n      dup2\n        /* \"#utility.yul\":2992:3008   */\n      swap1\n      pop\n        /* \"#utility.yul\":2935:3014   */\n      swap2\n      swap1\n      pop\n      jump\t// out\n        /* \"#utility.yul\":3020:3177   */\n    tag_158:\n        /* \"#utility.yul\":3125:3170   */\n      tag_198\n        /* \"#utility.yul\":3145:3169   */\n      tag_199\n        /* \"#utility.yul\":3163:3168   */\n      dup3\n        /* \"#utility.yul\":3145:3169   */\n      tag_148\n      jump\t// in\n    tag_199:\n        /* \"#utility.yul\":3125:3170   */\n      tag_157\n      jump\t// in\n    tag_198:\n        /* \"#utility.yul\":3120:3123   */\n      dup3\n        /* \"#utility.yul\":3113:3171   */\n      mstore\n        /* \"#utility.yul\":3020:3177   */\n      pop\n      pop\n      jump\t// out\n        /* \"#utility.yul\":3183:3721   */\n    tag_144:\n        /* \"#utility.yul\":3351:3354   */\n      0x00\n        /* \"#utility.yul\":3366:3441   */\n      tag_201\n        /* \"#utility.yul\":3437:3440   */\n      dup3\n        /* \"#utility.yul\":3428:3434   */\n      dup7\n        /* \"#utility.yul\":3366:3441   */\n      tag_158\n      jump\t// in\n    tag_201:\n        /* \"#utility.yul\":3466:3468   */\n      0x20\n        /* \"#utility.yul\":3461:3464   */\n      dup3\n        /* \"#utility.yul\":3457:3469   */\n      add\n        /* \"#utility.yul\":3450:3469   */\n      swap2\n      pop\n        /* \"#utility.yul\":3479:3554   */\n      tag_202\n        /* \"#utility.yul\":3550:3553   */\n      dup3\n        /* \"#utility.yul\":3541:3547   */\n      dup6\n        /* \"#utility.yul\":3479:3554   */\n      tag_158\n      jump\t// in\n    tag_202:\n        /* \"#utility.yul\":3579:3581   */\n      0x20\n        /* \"#utility.yul\":3574:3577   */\n      dup3\n        /* \"#utility.yul\":3570:3582   */\n      add\n        /* \"#utility.yul\":3563:3582   */\n      swap2\n      pop\n        /* \"#utility.yul\":3592:3667   */\n      tag_203\n        /* \"#utility.yul\":3663:3666   */\n      dup3\n        /* \"#utility.yul\":3654:3660   */\n      dup5\n        /* \"#utility.yul\":3592:3667   */\n      tag_158\n      jump\t// in\n    tag_203:\n        /* \"#utility.yul\":3692:3694   */\n      0x20\n        /* \"#utility.yul\":3687:3690   */\n      dup3\n        /* \"#utility.yul\":3683:3695   */\n      add\n        /* \"#utility.yul\":3676:3695   */\n      swap2\n      pop\n        /* \"#utility.yul\":3712:3715   */\n      dup2\n        /* \"#utility.yul\":3705:3715   */\n      swap1\n      pop\n        /* \"#utility.yul\":3183:3721   */\n      swap5\n      swap4\n      pop\n      pop\n      pop\n      pop\n      jump\t// out\n\n    auxdata: 0xa26469706673582212209d3d558533c886fad151d45af0642437f58d511500bae16a67873dfd0e52aab664736f6c634300080f0033\n}\n",
				"bytecode": {
					"linkReferences": {},
					"object": "608060405234801561001057600080fd5b50336000806101000a81548173ffffffffffffffffffffffffffffffffffffffff021916908373ffffffffffffffffffffffffffffffffffffffff160217905550610b1b806100606000396000f3fe6080604052600436106100a75760003560e01c80638da5cb5b116100645780638da5cb5b146101725780638fb179731461019d578063bed2e0c3146101b9578063e8d18212146101d5578063f855aa9e146101df578063ff65d09014610208576100a7565b806307d0394c146100ac57806314fbb92b146100c85780631640e34e146100e4578063374ccd331461010057806348db5f891461012b5780634eca877214610156575b600080fd5b6100c660048036038101906100c191906108eb565b610224565b005b6100e260048036038101906100dd91906108eb565b6102c8565b005b6100fe60048036038101906100f991906108eb565b61036c565b005b34801561010c57600080fd5b50610115610410565b6040516101229190610927565b60405180910390f35b34801561013757600080fd5b50610140610471565b60405161014d9190610983565b60405180910390f35b610170600480360381019061016b91906108eb565b610497565b005b34801561017e57600080fd5b5061018761053b565b6040516101949190610983565b60405180910390f35b6101b760048036038101906101b291906108eb565b61055f565b005b6101d360048036038101906101ce91906108eb565b610603565b005b6101dd6106a8565b005b3480156101eb57600080fd5b50610206600480360381019061020191906108eb565b610702565b005b610222600480360381019061021d91906108eb565b6107d7565b005b670de0b6b3a76400008161023891906109cd565b341461024357600080fd5b6000602661024f61087b565b6102599190610a56565b905060028110156102c3573373ffffffffffffffffffffffffffffffffffffffff166108fc67f9ccd8a1c50800008461029291906109cd565b9081150290604051600060405180830381858888f193505050501580156102bd573d6000803e3d6000fd5b506102c4565b5b5050565b670de0b6b3a7640000816102dc91906109cd565b34146102e757600080fd5b600060266102f361087b565b6102fd9190610a56565b90506006811015610367573373ffffffffffffffffffffffffffffffffffffffff166108fc6753444835ec5800008461033691906109cd565b9081150290604051600060405180830381858888f19350505050158015610361573d6000803e3d6000fd5b50610368565b5b5050565b670de0b6b3a76400008161038091906109cd565b341461038b57600080fd5b6000602661039761087b565b6103a19190610a56565b9050601281101561040b573373ffffffffffffffffffffffffffffffffffffffff166108fc671bc16d674ec80000846103da91906109cd565b9081150290604051600060405180830381858888f19350505050158015610405573d6000803e3d6000fd5b5061040c565b5b5050565b60008060009054906101000a900473ffffffffffffffffffffffffffffffffffffffff1673ffffffffffffffffffffffffffffffffffffffff163373ffffffffffffffffffffffffffffffffffffffff161461046b57600080fd5b47905090565b600160009054906101000a900473ffffffffffffffffffffffffffffffffffffffff1681565b670de0b6b3a7640000816104ab91906109cd565b34146104b657600080fd5b600060266104c261087b565b6104cc9190610a56565b9050600c811015610536573373ffffffffffffffffffffffffffffffffffffffff166108fc6729a2241af62c00008461050591906109cd565b9081150290604051600060405180830381858888f19350505050158015610530573d6000803e3d6000fd5b50610537565b5b5050565b60008054906101000a900473ffffffffffffffffffffffffffffffffffffffff1681565b670de0b6b3a76400008161057391906109cd565b341461057e57600080fd5b6000602661058a61087b565b6105949190610a56565b905060048110156105fe573373ffffffffffffffffffffffffffffffffffffffff166108fc677ce66c50e2840000846105cd91906109cd565b9081150290604051600060405180830381858888f193505050501580156105f8573d6000803e3d6000fd5b506105ff565b5b5050565b670de0b6b3a76400008161061791906109cd565b341461062257600080fd5b6000602661062e61087b565b6106389190610a56565b905060018110156106a3573373ffffffffffffffffffffffffffffffffffffffff166108fc6801f399b1438a1000008461067291906109cd565b9081150290604051600060405180830381858888f1935050505015801561069d573d6000803e3d6000fd5b506106a4565b5b5050565b60008054906101000a900473ffffffffffffffffffffffffffffffffffffffff1673ffffffffffffffffffffffffffffffffffffffff163373ffffffffffffffffffffffffffffffffffffffff161461070057600080fd5b565b60008054906101000a900473ffffffffffffffffffffffffffffffffffffffff1673ffffffffffffffffffffffffffffffffffffffff163373ffffffffffffffffffffffffffffffffffffffff161461075a57600080fd5b60008054906101000a900473ffffffffffffffffffffffffffffffffffffffff1673ffffffffffffffffffffffffffffffffffffffff166108fc670de0b6b3a7640000836107a891906109cd565b9081150290604051600060405180830381858888f193505050501580156107d3573d6000803e3d6000fd5b5050565b670de0b6b3a7640000816107eb91906109cd565b34146107f657600080fd5b6000602661080261087b565b61080c9190610a56565b90506003811015610876573373ffffffffffffffffffffffffffffffffffffffff166108fc67a688906bd8b000008461084591906109cd565b9081150290604051600060405180830381858888f19350505050158015610870573d6000803e3d6000fd5b50610877565b5b5050565b600047424460405160200161089293929190610aa8565b6040516020818303038152906040528051906020012060001c905090565b600080fd5b6000819050919050565b6108c8816108b5565b81146108d357600080fd5b50565b6000813590506108e5816108bf565b92915050565b600060208284031215610901576109006108b0565b5b600061090f848285016108d6565b91505092915050565b610921816108b5565b82525050565b600060208201905061093c6000830184610918565b92915050565b600073ffffffffffffffffffffffffffffffffffffffff82169050919050565b600061096d82610942565b9050919050565b61097d81610962565b82525050565b60006020820190506109986000830184610974565b92915050565b7f4e487b7100000000000000000000000000000000000000000000000000000000600052601160045260246000fd5b60006109d8826108b5565b91506109e3836108b5565b9250817fffffffffffffffffffffffffffffffffffffffffffffffffffffffffffffffff0483118215151615610a1c57610a1b61099e565b5b828202905092915050565b7f4e487b7100000000000000000000000000000000000000000000000000000000600052601260045260246000fd5b6000610a61826108b5565b9150610a6c836108b5565b925082610a7c57610a7b610a27565b5b828206905092915050565b6000819050919050565b610aa2610a9d826108b5565b610a87565b82525050565b6000610ab48286610a91565b602082019150610ac48285610a91565b602082019150610ad48284610a91565b60208201915081905094935050505056fea26469706673582212209d3d558533c886fad151d45af0642437f58d511500bae16a67873dfd0e52aab664736f6c634300080f0033",
					"opcodes": "PUSH1 0x80 PUSH1 0x40 MSTORE CALLVALUE DUP1 ISZERO PUSH2 0x10 JUMPI PUSH1 0x0 DUP1 REVERT JUMPDEST POP CALLER PUSH1 0x0 DUP1 PUSH2 0x100 EXP DUP2 SLOAD DUP2 PUSH20 0xFFFFFFFFFFFFFFFFFFFFFFFFFFFFFFFFFFFFFFFF MUL NOT AND SWAP1 DUP4 PUSH20 0xFFFFFFFFFFFFFFFFFFFFFFFFFFFFFFFFFFFFFFFF AND MUL OR SWAP1 SSTORE POP PUSH2 0xB1B DUP1 PUSH2 0x60 PUSH1 0x0 CODECOPY PUSH1 0x0 RETURN INVALID PUSH1 0x80 PUSH1 0x40 MSTORE PUSH1 0x4 CALLDATASIZE LT PUSH2 0xA7 JUMPI PUSH1 0x0 CALLDATALOAD PUSH1 0xE0 SHR DUP1 PUSH4 0x8DA5CB5B GT PUSH2 0x64 JUMPI DUP1 PUSH4 0x8DA5CB5B EQ PUSH2 0x172 JUMPI DUP1 PUSH4 0x8FB17973 EQ PUSH2 0x19D JUMPI DUP1 PUSH4 0xBED2E0C3 EQ PUSH2 0x1B9 JUMPI DUP1 PUSH4 0xE8D18212 EQ PUSH2 0x1D5 JUMPI DUP1 PUSH4 0xF855AA9E EQ PUSH2 0x1DF JUMPI DUP1 PUSH4 0xFF65D090 EQ PUSH2 0x208 JUMPI PUSH2 0xA7 JUMP JUMPDEST DUP1 PUSH4 0x7D0394C EQ PUSH2 0xAC JUMPI DUP1 PUSH4 0x14FBB92B EQ PUSH2 0xC8 JUMPI DUP1 PUSH4 0x1640E34E EQ PUSH2 0xE4 JUMPI DUP1 PUSH4 0x374CCD33 EQ PUSH2 0x100 JUMPI DUP1 PUSH4 0x48DB5F89 EQ PUSH2 0x12B JUMPI DUP1 PUSH4 0x4ECA8772 EQ PUSH2 0x156 JUMPI JUMPDEST PUSH1 0x0 DUP1 REVERT JUMPDEST PUSH2 0xC6 PUSH1 0x4 DUP1 CALLDATASIZE SUB DUP2 ADD SWAP1 PUSH2 0xC1 SWAP2 SWAP1 PUSH2 0x8EB JUMP JUMPDEST PUSH2 0x224 JUMP JUMPDEST STOP JUMPDEST PUSH2 0xE2 PUSH1 0x4 DUP1 CALLDATASIZE SUB DUP2 ADD SWAP1 PUSH2 0xDD SWAP2 SWAP1 PUSH2 0x8EB JUMP JUMPDEST PUSH2 0x2C8 JUMP JUMPDEST STOP JUMPDEST PUSH2 0xFE PUSH1 0x4 DUP1 CALLDATASIZE SUB DUP2 ADD SWAP1 PUSH2 0xF9 SWAP2 SWAP1 PUSH2 0x8EB JUMP JUMPDEST PUSH2 0x36C JUMP JUMPDEST STOP JUMPDEST CALLVALUE DUP1 ISZERO PUSH2 0x10C JUMPI PUSH1 0x0 DUP1 REVERT JUMPDEST POP PUSH2 0x115 PUSH2 0x410 JUMP JUMPDEST PUSH1 0x40 MLOAD PUSH2 0x122 SWAP2 SWAP1 PUSH2 0x927 JUMP JUMPDEST PUSH1 0x40 MLOAD DUP1 SWAP2 SUB SWAP1 RETURN JUMPDEST CALLVALUE DUP1 ISZERO PUSH2 0x137 JUMPI PUSH1 0x0 DUP1 REVERT JUMPDEST POP PUSH2 0x140 PUSH2 0x471 JUMP JUMPDEST PUSH1 0x40 MLOAD PUSH2 0x14D SWAP2 SWAP1 PUSH2 0x983 JUMP JUMPDEST PUSH1 0x40 MLOAD DUP1 SWAP2 SUB SWAP1 RETURN JUMPDEST PUSH2 0x170 PUSH1 0x4 DUP1 CALLDATASIZE SUB DUP2 ADD SWAP1 PUSH2 0x16B SWAP2 SWAP1 PUSH2 0x8EB JUMP JUMPDEST PUSH2 0x497 JUMP JUMPDEST STOP JUMPDEST CALLVALUE DUP1 ISZERO PUSH2 0x17E JUMPI PUSH1 0x0 DUP1 REVERT JUMPDEST POP PUSH2 0x187 PUSH2 0x53B JUMP JUMPDEST PUSH1 0x40 MLOAD PUSH2 0x194 SWAP2 SWAP1 PUSH2 0x983 JUMP JUMPDEST PUSH1 0x40 MLOAD DUP1 SWAP2 SUB SWAP1 RETURN JUMPDEST PUSH2 0x1B7 PUSH1 0x4 DUP1 CALLDATASIZE SUB DUP2 ADD SWAP1 PUSH2 0x1B2 SWAP2 SWAP1 PUSH2 0x8EB JUMP JUMPDEST PUSH2 0x55F JUMP JUMPDEST STOP JUMPDEST PUSH2 0x1D3 PUSH1 0x4 DUP1 CALLDATASIZE SUB DUP2 ADD SWAP1 PUSH2 0x1CE SWAP2 SWAP1 PUSH2 0x8EB JUMP JUMPDEST PUSH2 0x603 JUMP JUMPDEST STOP JUMPDEST PUSH2 0x1DD PUSH2 0x6A8 JUMP JUMPDEST STOP JUMPDEST CALLVALUE DUP1 ISZERO PUSH2 0x1EB JUMPI PUSH1 0x0 DUP1 REVERT JUMPDEST POP PUSH2 0x206 PUSH1 0x4 DUP1 CALLDATASIZE SUB DUP2 ADD SWAP1 PUSH2 0x201 SWAP2 SWAP1 PUSH2 0x8EB JUMP JUMPDEST PUSH2 0x702 JUMP JUMPDEST STOP JUMPDEST PUSH2 0x222 PUSH1 0x4 DUP1 CALLDATASIZE SUB DUP2 ADD SWAP1 PUSH2 0x21D SWAP2 SWAP1 PUSH2 0x8EB JUMP JUMPDEST PUSH2 0x7D7 JUMP JUMPDEST STOP JUMPDEST PUSH8 0xDE0B6B3A7640000 DUP2 PUSH2 0x238 SWAP2 SWAP1 PUSH2 0x9CD JUMP JUMPDEST CALLVALUE EQ PUSH2 0x243 JUMPI PUSH1 0x0 DUP1 REVERT JUMPDEST PUSH1 0x0 PUSH1 0x26 PUSH2 0x24F PUSH2 0x87B JUMP JUMPDEST PUSH2 0x259 SWAP2 SWAP1 PUSH2 0xA56 JUMP JUMPDEST SWAP1 POP PUSH1 0x2 DUP2 LT ISZERO PUSH2 0x2C3 JUMPI CALLER PUSH20 0xFFFFFFFFFFFFFFFFFFFFFFFFFFFFFFFFFFFFFFFF AND PUSH2 0x8FC PUSH8 0xF9CCD8A1C5080000 DUP5 PUSH2 0x292 SWAP2 SWAP1 PUSH2 0x9CD JUMP JUMPDEST SWAP1 DUP2 ISZERO MUL SWAP1 PUSH1 0x40 MLOAD PUSH1 0x0 PUSH1 0x40 MLOAD DUP1 DUP4 SUB DUP2 DUP6 DUP9 DUP9 CALL SWAP4 POP POP POP POP ISZERO DUP1 ISZERO PUSH2 0x2BD JUMPI RETURNDATASIZE PUSH1 0x0 DUP1 RETURNDATACOPY RETURNDATASIZE PUSH1 0x0 REVERT JUMPDEST POP PUSH2 0x2C4 JUMP JUMPDEST JUMPDEST POP POP JUMP JUMPDEST PUSH8 0xDE0B6B3A7640000 DUP2 PUSH2 0x2DC SWAP2 SWAP1 PUSH2 0x9CD JUMP JUMPDEST CALLVALUE EQ PUSH2 0x2E7 JUMPI PUSH1 0x0 DUP1 REVERT JUMPDEST PUSH1 0x0 PUSH1 0x26 PUSH2 0x2F3 PUSH2 0x87B JUMP JUMPDEST PUSH2 0x2FD SWAP2 SWAP1 PUSH2 0xA56 JUMP JUMPDEST SWAP1 POP PUSH1 0x6 DUP2 LT ISZERO PUSH2 0x367 JUMPI CALLER PUSH20 0xFFFFFFFFFFFFFFFFFFFFFFFFFFFFFFFFFFFFFFFF AND PUSH2 0x8FC PUSH8 0x53444835EC580000 DUP5 PUSH2 0x336 SWAP2 SWAP1 PUSH2 0x9CD JUMP JUMPDEST SWAP1 DUP2 ISZERO MUL SWAP1 PUSH1 0x40 MLOAD PUSH1 0x0 PUSH1 0x40 MLOAD DUP1 DUP4 SUB DUP2 DUP6 DUP9 DUP9 CALL SWAP4 POP POP POP POP ISZERO DUP1 ISZERO PUSH2 0x361 JUMPI RETURNDATASIZE PUSH1 0x0 DUP1 RETURNDATACOPY RETURNDATASIZE PUSH1 0x0 REVERT JUMPDEST POP PUSH2 0x368 JUMP JUMPDEST JUMPDEST POP POP JUMP JUMPDEST PUSH8 0xDE0B6B3A7640000 DUP2 PUSH2 0x380 SWAP2 SWAP1 PUSH2 0x9CD JUMP JUMPDEST CALLVALUE EQ PUSH2 0x38B JUMPI PUSH1 0x0 DUP1 REVERT JUMPDEST PUSH1 0x0 PUSH1 0x26 PUSH2 0x397 PUSH2 0x87B JUMP JUMPDEST PUSH2 0x3A1 SWAP2 SWAP1 PUSH2 0xA56 JUMP JUMPDEST SWAP1 POP PUSH1 0x12 DUP2 LT ISZERO PUSH2 0x40B JUMPI CALLER PUSH20 0xFFFFFFFFFFFFFFFFFFFFFFFFFFFFFFFFFFFFFFFF AND PUSH2 0x8FC PUSH8 0x1BC16D674EC80000 DUP5 PUSH2 0x3DA SWAP2 SWAP1 PUSH2 0x9CD JUMP JUMPDEST SWAP1 DUP2 ISZERO MUL SWAP1 PUSH1 0x40 MLOAD PUSH1 0x0 PUSH1 0x40 MLOAD DUP1 DUP4 SUB DUP2 DUP6 DUP9 DUP9 CALL SWAP4 POP POP POP POP ISZERO DUP1 ISZERO PUSH2 0x405 JUMPI RETURNDATASIZE PUSH1 0x0 DUP1 RETURNDATACOPY RETURNDATASIZE PUSH1 0x0 REVERT JUMPDEST POP PUSH2 0x40C JUMP JUMPDEST JUMPDEST POP POP JUMP JUMPDEST PUSH1 0x0 DUP1 PUSH1 0x0 SWAP1 SLOAD SWAP1 PUSH2 0x100 EXP SWAP1 DIV PUSH20 0xFFFFFFFFFFFFFFFFFFFFFFFFFFFFFFFFFFFFFFFF AND PUSH20 0xFFFFFFFFFFFFFFFFFFFFFFFFFFFFFFFFFFFFFFFF AND CALLER PUSH20 0xFFFFFFFFFFFFFFFFFFFFFFFFFFFFFFFFFFFFFFFF AND EQ PUSH2 0x46B JUMPI PUSH1 0x0 DUP1 REVERT JUMPDEST SELFBALANCE SWAP1 POP SWAP1 JUMP JUMPDEST PUSH1 0x1 PUSH1 0x0 SWAP1 SLOAD SWAP1 PUSH2 0x100 EXP SWAP1 DIV PUSH20 0xFFFFFFFFFFFFFFFFFFFFFFFFFFFFFFFFFFFFFFFF AND DUP2 JUMP JUMPDEST PUSH8 0xDE0B6B3A7640000 DUP2 PUSH2 0x4AB SWAP2 SWAP1 PUSH2 0x9CD JUMP JUMPDEST CALLVALUE EQ PUSH2 0x4B6 JUMPI PUSH1 0x0 DUP1 REVERT JUMPDEST PUSH1 0x0 PUSH1 0x26 PUSH2 0x4C2 PUSH2 0x87B JUMP JUMPDEST PUSH2 0x4CC SWAP2 SWAP1 PUSH2 0xA56 JUMP JUMPDEST SWAP1 POP PUSH1 0xC DUP2 LT ISZERO PUSH2 0x536 JUMPI CALLER PUSH20 0xFFFFFFFFFFFFFFFFFFFFFFFFFFFFFFFFFFFFFFFF AND PUSH2 0x8FC PUSH8 0x29A2241AF62C0000 DUP5 PUSH2 0x505 SWAP2 SWAP1 PUSH2 0x9CD JUMP JUMPDEST SWAP1 DUP2 ISZERO MUL SWAP1 PUSH1 0x40 MLOAD PUSH1 0x0 PUSH1 0x40 MLOAD DUP1 DUP4 SUB DUP2 DUP6 DUP9 DUP9 CALL SWAP4 POP POP POP POP ISZERO DUP1 ISZERO PUSH2 0x530 JUMPI RETURNDATASIZE PUSH1 0x0 DUP1 RETURNDATACOPY RETURNDATASIZE PUSH1 0x0 REVERT JUMPDEST POP PUSH2 0x537 JUMP JUMPDEST JUMPDEST POP POP JUMP JUMPDEST PUSH1 0x0 DUP1 SLOAD SWAP1 PUSH2 0x100 EXP SWAP1 DIV PUSH20 0xFFFFFFFFFFFFFFFFFFFFFFFFFFFFFFFFFFFFFFFF AND DUP2 JUMP JUMPDEST PUSH8 0xDE0B6B3A7640000 DUP2 PUSH2 0x573 SWAP2 SWAP1 PUSH2 0x9CD JUMP JUMPDEST CALLVALUE EQ PUSH2 0x57E JUMPI PUSH1 0x0 DUP1 REVERT JUMPDEST PUSH1 0x0 PUSH1 0x26 PUSH2 0x58A PUSH2 0x87B JUMP JUMPDEST PUSH2 0x594 SWAP2 SWAP1 PUSH2 0xA56 JUMP JUMPDEST SWAP1 POP PUSH1 0x4 DUP2 LT ISZERO PUSH2 0x5FE JUMPI CALLER PUSH20 0xFFFFFFFFFFFFFFFFFFFFFFFFFFFFFFFFFFFFFFFF AND PUSH2 0x8FC PUSH8 0x7CE66C50E2840000 DUP5 PUSH2 0x5CD SWAP2 SWAP1 PUSH2 0x9CD JUMP JUMPDEST SWAP1 DUP2 ISZERO MUL SWAP1 PUSH1 0x40 MLOAD PUSH1 0x0 PUSH1 0x40 MLOAD DUP1 DUP4 SUB DUP2 DUP6 DUP9 DUP9 CALL SWAP4 POP POP POP POP ISZERO DUP1 ISZERO PUSH2 0x5F8 JUMPI RETURNDATASIZE PUSH1 0x0 DUP1 RETURNDATACOPY RETURNDATASIZE PUSH1 0x0 REVERT JUMPDEST POP PUSH2 0x5FF JUMP JUMPDEST JUMPDEST POP POP JUMP JUMPDEST PUSH8 0xDE0B6B3A7640000 DUP2 PUSH2 0x617 SWAP2 SWAP1 PUSH2 0x9CD JUMP JUMPDEST CALLVALUE EQ PUSH2 0x622 JUMPI PUSH1 0x0 DUP1 REVERT JUMPDEST PUSH1 0x0 PUSH1 0x26 PUSH2 0x62E PUSH2 0x87B JUMP JUMPDEST PUSH2 0x638 SWAP2 SWAP1 PUSH2 0xA56 JUMP JUMPDEST SWAP1 POP PUSH1 0x1 DUP2 LT ISZERO PUSH2 0x6A3 JUMPI CALLER PUSH20 0xFFFFFFFFFFFFFFFFFFFFFFFFFFFFFFFFFFFFFFFF AND PUSH2 0x8FC PUSH9 0x1F399B1438A100000 DUP5 PUSH2 0x672 SWAP2 SWAP1 PUSH2 0x9CD JUMP JUMPDEST SWAP1 DUP2 ISZERO MUL SWAP1 PUSH1 0x40 MLOAD PUSH1 0x0 PUSH1 0x40 MLOAD DUP1 DUP4 SUB DUP2 DUP6 DUP9 DUP9 CALL SWAP4 POP POP POP POP ISZERO DUP1 ISZERO PUSH2 0x69D JUMPI RETURNDATASIZE PUSH1 0x0 DUP1 RETURNDATACOPY RETURNDATASIZE PUSH1 0x0 REVERT JUMPDEST POP PUSH2 0x6A4 JUMP JUMPDEST JUMPDEST POP POP JUMP JUMPDEST PUSH1 0x0 DUP1 SLOAD SWAP1 PUSH2 0x100 EXP SWAP1 DIV PUSH20 0xFFFFFFFFFFFFFFFFFFFFFFFFFFFFFFFFFFFFFFFF AND PUSH20 0xFFFFFFFFFFFFFFFFFFFFFFFFFFFFFFFFFFFFFFFF AND CALLER PUSH20 0xFFFFFFFFFFFFFFFFFFFFFFFFFFFFFFFFFFFFFFFF AND EQ PUSH2 0x700 JUMPI PUSH1 0x0 DUP1 REVERT JUMPDEST JUMP JUMPDEST PUSH1 0x0 DUP1 SLOAD SWAP1 PUSH2 0x100 EXP SWAP1 DIV PUSH20 0xFFFFFFFFFFFFFFFFFFFFFFFFFFFFFFFFFFFFFFFF AND PUSH20 0xFFFFFFFFFFFFFFFFFFFFFFFFFFFFFFFFFFFFFFFF AND CALLER PUSH20 0xFFFFFFFFFFFFFFFFFFFFFFFFFFFFFFFFFFFFFFFF AND EQ PUSH2 0x75A JUMPI PUSH1 0x0 DUP1 REVERT JUMPDEST PUSH1 0x0 DUP1 SLOAD SWAP1 PUSH2 0x100 EXP SWAP1 DIV PUSH20 0xFFFFFFFFFFFFFFFFFFFFFFFFFFFFFFFFFFFFFFFF AND PUSH20 0xFFFFFFFFFFFFFFFFFFFFFFFFFFFFFFFFFFFFFFFF AND PUSH2 0x8FC PUSH8 0xDE0B6B3A7640000 DUP4 PUSH2 0x7A8 SWAP2 SWAP1 PUSH2 0x9CD JUMP JUMPDEST SWAP1 DUP2 ISZERO MUL SWAP1 PUSH1 0x40 MLOAD PUSH1 0x0 PUSH1 0x40 MLOAD DUP1 DUP4 SUB DUP2 DUP6 DUP9 DUP9 CALL SWAP4 POP POP POP POP ISZERO DUP1 ISZERO PUSH2 0x7D3 JUMPI RETURNDATASIZE PUSH1 0x0 DUP1 RETURNDATACOPY RETURNDATASIZE PUSH1 0x0 REVERT JUMPDEST POP POP JUMP JUMPDEST PUSH8 0xDE0B6B3A7640000 DUP2 PUSH2 0x7EB SWAP2 SWAP1 PUSH2 0x9CD JUMP JUMPDEST CALLVALUE EQ PUSH2 0x7F6 JUMPI PUSH1 0x0 DUP1 REVERT JUMPDEST PUSH1 0x0 PUSH1 0x26 PUSH2 0x802 PUSH2 0x87B JUMP JUMPDEST PUSH2 0x80C SWAP2 SWAP1 PUSH2 0xA56 JUMP JUMPDEST SWAP1 POP PUSH1 0x3 DUP2 LT ISZERO PUSH2 0x876 JUMPI CALLER PUSH20 0xFFFFFFFFFFFFFFFFFFFFFFFFFFFFFFFFFFFFFFFF AND PUSH2 0x8FC PUSH8 0xA688906BD8B00000 DUP5 PUSH2 0x845 SWAP2 SWAP1 PUSH2 0x9CD JUMP JUMPDEST SWAP1 DUP2 ISZERO MUL SWAP1 PUSH1 0x40 MLOAD PUSH1 0x0 PUSH1 0x40 MLOAD DUP1 DUP4 SUB DUP2 DUP6 DUP9 DUP9 CALL SWAP4 POP POP POP POP ISZERO DUP1 ISZERO PUSH2 0x870 JUMPI RETURNDATASIZE PUSH1 0x0 DUP1 RETURNDATACOPY RETURNDATASIZE PUSH1 0x0 REVERT JUMPDEST POP PUSH2 0x877 JUMP JUMPDEST JUMPDEST POP POP JUMP JUMPDEST PUSH1 0x0 SELFBALANCE TIMESTAMP DIFFICULTY PUSH1 0x40 MLOAD PUSH1 0x20 ADD PUSH2 0x892 SWAP4 SWAP3 SWAP2 SWAP1 PUSH2 0xAA8 JUMP JUMPDEST PUSH1 0x40 MLOAD PUSH1 0x20 DUP2 DUP4 SUB SUB DUP2 MSTORE SWAP1 PUSH1 0x40 MSTORE DUP1 MLOAD SWAP1 PUSH1 0x20 ADD KECCAK256 PUSH1 0x0 SHR SWAP1 POP SWAP1 JUMP JUMPDEST PUSH1 0x0 DUP1 REVERT JUMPDEST PUSH1 0x0 DUP2 SWAP1 POP SWAP2 SWAP1 POP JUMP JUMPDEST PUSH2 0x8C8 DUP2 PUSH2 0x8B5 JUMP JUMPDEST DUP2 EQ PUSH2 0x8D3 JUMPI PUSH1 0x0 DUP1 REVERT JUMPDEST POP JUMP JUMPDEST PUSH1 0x0 DUP2 CALLDATALOAD SWAP1 POP PUSH2 0x8E5 DUP2 PUSH2 0x8BF JUMP JUMPDEST SWAP3 SWAP2 POP POP JUMP JUMPDEST PUSH1 0x0 PUSH1 0x20 DUP3 DUP5 SUB SLT ISZERO PUSH2 0x901 JUMPI PUSH2 0x900 PUSH2 0x8B0 JUMP JUMPDEST JUMPDEST PUSH1 0x0 PUSH2 0x90F DUP5 DUP3 DUP6 ADD PUSH2 0x8D6 JUMP JUMPDEST SWAP2 POP POP SWAP3 SWAP2 POP POP JUMP JUMPDEST PUSH2 0x921 DUP2 PUSH2 0x8B5 JUMP JUMPDEST DUP3 MSTORE POP POP JUMP JUMPDEST PUSH1 0x0 PUSH1 0x20 DUP3 ADD SWAP1 POP PUSH2 0x93C PUSH1 0x0 DUP4 ADD DUP5 PUSH2 0x918 JUMP JUMPDEST SWAP3 SWAP2 POP POP JUMP JUMPDEST PUSH1 0x0 PUSH20 0xFFFFFFFFFFFFFFFFFFFFFFFFFFFFFFFFFFFFFFFF DUP3 AND SWAP1 POP SWAP2 SWAP1 POP JUMP JUMPDEST PUSH1 0x0 PUSH2 0x96D DUP3 PUSH2 0x942 JUMP JUMPDEST SWAP1 POP SWAP2 SWAP1 POP JUMP JUMPDEST PUSH2 0x97D DUP2 PUSH2 0x962 JUMP JUMPDEST DUP3 MSTORE POP POP JUMP JUMPDEST PUSH1 0x0 PUSH1 0x20 DUP3 ADD SWAP1 POP PUSH2 0x998 PUSH1 0x0 DUP4 ADD DUP5 PUSH2 0x974 JUMP JUMPDEST SWAP3 SWAP2 POP POP JUMP JUMPDEST PUSH32 0x4E487B7100000000000000000000000000000000000000000000000000000000 PUSH1 0x0 MSTORE PUSH1 0x11 PUSH1 0x4 MSTORE PUSH1 0x24 PUSH1 0x0 REVERT JUMPDEST PUSH1 0x0 PUSH2 0x9D8 DUP3 PUSH2 0x8B5 JUMP JUMPDEST SWAP2 POP PUSH2 0x9E3 DUP4 PUSH2 0x8B5 JUMP JUMPDEST SWAP3 POP DUP2 PUSH32 0xFFFFFFFFFFFFFFFFFFFFFFFFFFFFFFFFFFFFFFFFFFFFFFFFFFFFFFFFFFFFFFFF DIV DUP4 GT DUP3 ISZERO ISZERO AND ISZERO PUSH2 0xA1C JUMPI PUSH2 0xA1B PUSH2 0x99E JUMP JUMPDEST JUMPDEST DUP3 DUP3 MUL SWAP1 POP SWAP3 SWAP2 POP POP JUMP JUMPDEST PUSH32 0x4E487B7100000000000000000000000000000000000000000000000000000000 PUSH1 0x0 MSTORE PUSH1 0x12 PUSH1 0x4 MSTORE PUSH1 0x24 PUSH1 0x0 REVERT JUMPDEST PUSH1 0x0 PUSH2 0xA61 DUP3 PUSH2 0x8B5 JUMP JUMPDEST SWAP2 POP PUSH2 0xA6C DUP4 PUSH2 0x8B5 JUMP JUMPDEST SWAP3 POP DUP3 PUSH2 0xA7C JUMPI PUSH2 0xA7B PUSH2 0xA27 JUMP JUMPDEST JUMPDEST DUP3 DUP3 MOD SWAP1 POP SWAP3 SWAP2 POP POP JUMP JUMPDEST PUSH1 0x0 DUP2 SWAP1 POP SWAP2 SWAP1 POP JUMP JUMPDEST PUSH2 0xAA2 PUSH2 0xA9D DUP3 PUSH2 0x8B5 JUMP JUMPDEST PUSH2 0xA87 JUMP JUMPDEST DUP3 MSTORE POP POP JUMP JUMPDEST PUSH1 0x0 PUSH2 0xAB4 DUP3 DUP7 PUSH2 0xA91 JUMP JUMPDEST PUSH1 0x20 DUP3 ADD SWAP2 POP PUSH2 0xAC4 DUP3 DUP6 PUSH2 0xA91 JUMP JUMPDEST PUSH1 0x20 DUP3 ADD SWAP2 POP PUSH2 0xAD4 DUP3 DUP5 PUSH2 0xA91 JUMP JUMPDEST PUSH1 0x20 DUP3 ADD SWAP2 POP DUP2 SWAP1 POP SWAP5 SWAP4 POP POP POP POP JUMP INVALID LOG2 PUSH5 0x6970667358 0x22 SLT KECCAK256 SWAP14 RETURNDATASIZE SSTORE DUP6 CALLER 0xC8 DUP7 STATICCALL 0xD1 MLOAD 0xD4 GAS CREATE PUSH5 0x2437F58D51 ISZERO STOP 0xBA 0xE1 PUSH11 0x67873DFD0E52AAB664736F PUSH13 0x634300080F0033000000000000 "
				},
				"gasEstimates": {
					"creation": {
						"codeDepositCost": "568600",
						"executionCost": "24866",
						"totalCost": "593466"
					},
					"external": {
						"A_oneToOne(uint256)": "infinite",
						"B_twoToOne(uint256)": "infinite",
						"C_fiveToOne(uint256)": "infinite",
						"D_eightToOne(uint256)": "infinite",
						"E_elevenToOne(uint256)": "infinite",
						"F_seventeenToOne(uint256)": "infinite",
						"G_thirtyfiveToOne(uint256)": "infinite",
						"H_deposit()": "2353",
						"I_withdraw(uint256)": "infinite",
						"J_getBalance()": "2576",
						"owner()": "2511",
						"player()": "2603"
					},
					"internal": {
						"getRandomNumber()": "infinite"
					}
				},
				"methodIdentifiers": {
					"A_oneToOne(uint256)": "1640e34e",
					"B_twoToOne(uint256)": "4eca8772",
					"C_fiveToOne(uint256)": "14fbb92b",
					"D_eightToOne(uint256)": "8fb17973",
					"E_elevenToOne(uint256)": "ff65d090",
					"F_seventeenToOne(uint256)": "07d0394c",
					"G_thirtyfiveToOne(uint256)": "bed2e0c3",
					"H_deposit()": "e8d18212",
					"I_withdraw(uint256)": "f855aa9e",
					"J_getBalance()": "374ccd33",
					"owner()": "8da5cb5b",
					"player()": "48db5f89"
				}
			},
			"storageLayout": {
				"storage": [
					{
						"astId": 3,
						"contract": "Documents/Web3/Casino/002 Roulette.sol:Roulette",
						"label": "owner",
						"offset": 0,
						"slot": "0",
						"type": "t_address_payable"
					},
					{
						"astId": 5,
						"contract": "Documents/Web3/Casino/002 Roulette.sol:Roulette",
						"label": "player",
						"offset": 0,
						"slot": "1",
						"type": "t_address_payable"
					}
				],
				"types": {
					"t_address_payable": {
						"encoding": "inplace",
						"label": "address payable",
						"numberOfBytes": "20"
					}
				}
			},
			"userdoc": {
				"kind": "user",
				"methods": {},
				"version": 1
			}
		}
	}
}