{
	"Documents/Web3/Casino/002 Roulette.sol": {
		"Roulette": {
			"abi": [
				{
					"inputs": [],
					"stateMutability": "nonpayable",
					"type": "constructor"
				},
				{
					"inputs": [],
					"name": "AAA_test",
					"outputs": [
						{
							"internalType": "uint256",
							"name": "",
							"type": "uint256"
						}
					],
					"stateMutability": "payable",
					"type": "function"
				},
				{
					"inputs": [],
					"name": "A_oneToOne",
					"outputs": [],
					"stateMutability": "payable",
					"type": "function"
				},
				{
					"inputs": [],
					"name": "B_twoToOne",
					"outputs": [],
					"stateMutability": "payable",
					"type": "function"
				},
				{
					"inputs": [],
					"name": "C_fiveToOne",
					"outputs": [],
					"stateMutability": "payable",
					"type": "function"
				},
				{
					"inputs": [],
					"name": "D_eightToOne",
					"outputs": [],
					"stateMutability": "payable",
					"type": "function"
				},
				{
					"inputs": [],
					"name": "E_elevenToOne",
					"outputs": [],
					"stateMutability": "payable",
					"type": "function"
				},
				{
					"inputs": [],
					"name": "F_seventeenToOne",
					"outputs": [],
					"stateMutability": "payable",
					"type": "function"
				},
				{
					"inputs": [],
					"name": "G_thirtyfiveToOne",
					"outputs": [],
					"stateMutability": "payable",
					"type": "function"
				},
				{
					"inputs": [],
					"name": "H_deposit",
					"outputs": [],
					"stateMutability": "payable",
					"type": "function"
				},
				{
					"inputs": [
						{
							"internalType": "uint256",
							"name": "amount",
							"type": "uint256"
						}
					],
					"name": "I_withdraw",
					"outputs": [],
					"stateMutability": "nonpayable",
					"type": "function"
				},
				{
					"inputs": [],
					"name": "J_getBalance",
					"outputs": [
						{
							"internalType": "uint256",
							"name": "",
							"type": "uint256"
						}
					],
					"stateMutability": "view",
					"type": "function"
				},
				{
					"inputs": [],
					"name": "owner",
					"outputs": [
						{
							"internalType": "address payable",
							"name": "",
							"type": "address"
						}
					],
					"stateMutability": "view",
					"type": "function"
				},
				{
					"inputs": [],
					"name": "player",
					"outputs": [
						{
							"internalType": "address payable",
							"name": "",
							"type": "address"
						}
					],
					"stateMutability": "view",
					"type": "function"
				}
			],
			"devdoc": {
				"kind": "dev",
				"methods": {},
				"version": 1
			},
			"evm": {
				"assembly": "    /* \"Documents/Web3/Casino/002 Roulette.sol\":547:3456  contract Roulette {... */\n  mstore(0x40, 0x80)\n    /* \"Documents/Web3/Casino/002 Roulette.sol\":674:732  constructor() {... */\n  callvalue\n  dup1\n  iszero\n  tag_1\n  jumpi\n  0x00\n  dup1\n  revert\ntag_1:\n  pop\n    /* \"Documents/Web3/Casino/002 Roulette.sol\":714:724  msg.sender */\n  caller\n    /* \"Documents/Web3/Casino/002 Roulette.sol\":698:703  owner */\n  0x00\n  dup1\n    /* \"Documents/Web3/Casino/002 Roulette.sol\":698:725  owner = payable(msg.sender) */\n  0x0100\n  exp\n  dup2\n  sload\n  dup2\n  0xffffffffffffffffffffffffffffffffffffffff\n  mul\n  not\n  and\n  swap1\n  dup4\n  0xffffffffffffffffffffffffffffffffffffffff\n  and\n  mul\n  or\n  swap1\n  sstore\n  pop\n    /* \"Documents/Web3/Casino/002 Roulette.sol\":547:3456  contract Roulette {... */\n  dataSize(sub_0)\n  dup1\n  dataOffset(sub_0)\n  0x00\n  codecopy\n  0x00\n  return\nstop\n\nsub_0: assembly {\n        /* \"Documents/Web3/Casino/002 Roulette.sol\":547:3456  contract Roulette {... */\n      mstore(0x40, 0x80)\n      jumpi(tag_1, lt(calldatasize, 0x04))\n      shr(0xe0, calldataload(0x00))\n      dup1\n      0x766f8578\n      gt\n      tag_15\n      jumpi\n      dup1\n      0xb1ad3053\n      gt\n      tag_16\n      jumpi\n      dup1\n      0xb1ad3053\n      eq\n      tag_11\n      jumpi\n      dup1\n      0xe7120fd9\n      eq\n      tag_12\n      jumpi\n      dup1\n      0xe8d18212\n      eq\n      tag_13\n      jumpi\n      dup1\n      0xf855aa9e\n      eq\n      tag_14\n      jumpi\n      jump(tag_1)\n    tag_16:\n      dup1\n      0x766f8578\n      eq\n      tag_8\n      jumpi\n      dup1\n      0x85b4ba87\n      eq\n      tag_9\n      jumpi\n      dup1\n      0x8da5cb5b\n      eq\n      tag_10\n      jumpi\n      jump(tag_1)\n    tag_15:\n      dup1\n      0x0b634788\n      eq\n      tag_2\n      jumpi\n      dup1\n      0x29402ecb\n      eq\n      tag_3\n      jumpi\n      dup1\n      0x374ccd33\n      eq\n      tag_4\n      jumpi\n      dup1\n      0x48db5f89\n      eq\n      tag_5\n      jumpi\n      dup1\n      0x6689c33a\n      eq\n      tag_6\n      jumpi\n      dup1\n      0x6f4c487a\n      eq\n      tag_7\n      jumpi\n    tag_1:\n      0x00\n      dup1\n      revert\n        /* \"Documents/Web3/Casino/002 Roulette.sol\":2402:2621  function E_elevenToOne() payable public {... */\n    tag_2:\n      tag_17\n      tag_18\n      jump\t// in\n    tag_17:\n      stop\n        /* \"Documents/Web3/Casino/002 Roulette.sol\":1735:1951  function B_twoToOne() payable public {... */\n    tag_3:\n      tag_19\n      tag_20\n      jump\t// in\n    tag_19:\n      stop\n        /* \"Documents/Web3/Casino/002 Roulette.sol\":3341:3449  function J_getBalance() public view onlyOwner() returns (uint) {... */\n    tag_4:\n      callvalue\n      dup1\n      iszero\n      tag_21\n      jumpi\n      0x00\n      dup1\n      revert\n    tag_21:\n      pop\n      tag_22\n      tag_23\n      jump\t// in\n    tag_22:\n      mload(0x40)\n      tag_24\n      swap2\n      swap1\n      tag_25\n      jump\t// in\n    tag_24:\n      mload(0x40)\n      dup1\n      swap2\n      sub\n      swap1\n      return\n        /* \"Documents/Web3/Casino/002 Roulette.sol\":606:635  address payable public player */\n    tag_5:\n      callvalue\n      dup1\n      iszero\n      tag_26\n      jumpi\n      0x00\n      dup1\n      revert\n    tag_26:\n      pop\n      tag_27\n      tag_28\n      jump\t// in\n    tag_27:\n      mload(0x40)\n      tag_29\n      swap2\n      swap1\n      tag_30\n      jump\t// in\n    tag_29:\n      mload(0x40)\n      dup1\n      swap2\n      sub\n      swap1\n      return\n        /* \"Documents/Web3/Casino/002 Roulette.sol\":1405:1495  function AAA_test() payable public returns (uint) {... */\n    tag_6:\n      tag_31\n      tag_32\n      jump\t// in\n    tag_31:\n      mload(0x40)\n      tag_33\n      swap2\n      swap1\n      tag_25\n      jump\t// in\n    tag_33:\n      mload(0x40)\n      dup1\n      swap2\n      sub\n      swap1\n      return\n        /* \"Documents/Web3/Casino/002 Roulette.sol\":1957:2173  function C_fiveToOne() payable public {... */\n    tag_7:\n      tag_34\n      tag_35\n      jump\t// in\n    tag_34:\n      stop\n        /* \"Documents/Web3/Casino/002 Roulette.sol\":2627:2849  function F_seventeenToOne() payable public {... */\n    tag_8:\n      tag_36\n      tag_37\n      jump\t// in\n    tag_36:\n      stop\n        /* \"Documents/Web3/Casino/002 Roulette.sol\":2855:3078  function G_thirtyfiveToOne() payable public {... */\n    tag_9:\n      tag_38\n      tag_39\n      jump\t// in\n    tag_38:\n      stop\n        /* \"Documents/Web3/Casino/002 Roulette.sol\":572:600  address payable public owner */\n    tag_10:\n      callvalue\n      dup1\n      iszero\n      tag_40\n      jumpi\n      0x00\n      dup1\n      revert\n    tag_40:\n      pop\n      tag_41\n      tag_42\n      jump\t// in\n    tag_41:\n      mload(0x40)\n      tag_43\n      swap2\n      swap1\n      tag_30\n      jump\t// in\n    tag_43:\n      mload(0x40)\n      dup1\n      swap2\n      sub\n      swap1\n      return\n        /* \"Documents/Web3/Casino/002 Roulette.sol\":1501:1729  function A_oneToOne() payable public setPlayer() {... */\n    tag_11:\n      tag_44\n      tag_45\n      jump\t// in\n    tag_44:\n      stop\n        /* \"Documents/Web3/Casino/002 Roulette.sol\":2179:2396  function D_eightToOne() payable public {... */\n    tag_12:\n      tag_46\n      tag_47\n      jump\t// in\n    tag_46:\n      stop\n        /* \"Documents/Web3/Casino/002 Roulette.sol\":3128:3178  function H_deposit() payable public onlyOwner() {} */\n    tag_13:\n      tag_48\n      tag_49\n      jump\t// in\n    tag_48:\n      stop\n        /* \"Documents/Web3/Casino/002 Roulette.sol\":3184:3285  function I_withdraw(uint amount) public onlyOwner() {... */\n    tag_14:\n      callvalue\n      dup1\n      iszero\n      tag_50\n      jumpi\n      0x00\n      dup1\n      revert\n    tag_50:\n      pop\n      tag_51\n      0x04\n      dup1\n      calldatasize\n      sub\n      dup2\n      add\n      swap1\n      tag_52\n      swap2\n      swap1\n      tag_53\n      jump\t// in\n    tag_52:\n      tag_54\n      jump\t// in\n    tag_51:\n      stop\n        /* \"Documents/Web3/Casino/002 Roulette.sol\":2402:2621  function E_elevenToOne() payable public {... */\n    tag_18:\n        /* \"Documents/Web3/Casino/002 Roulette.sol\":2452:2468  uint determinant */\n      0x00\n        /* \"Documents/Web3/Casino/002 Roulette.sol\":2491:2493  38 */\n      0x26\n        /* \"Documents/Web3/Casino/002 Roulette.sol\":2471:2488  getRandomNumber() */\n      tag_56\n        /* \"Documents/Web3/Casino/002 Roulette.sol\":2471:2486  getRandomNumber */\n      tag_57\n        /* \"Documents/Web3/Casino/002 Roulette.sol\":2471:2488  getRandomNumber() */\n      jump\t// in\n    tag_56:\n        /* \"Documents/Web3/Casino/002 Roulette.sol\":2471:2493  getRandomNumber() % 38 */\n      tag_58\n      swap2\n      swap1\n      tag_59\n      jump\t// in\n    tag_58:\n        /* \"Documents/Web3/Casino/002 Roulette.sol\":2452:2493  uint determinant = getRandomNumber() % 38 */\n      swap1\n      pop\n        /* \"Documents/Web3/Casino/002 Roulette.sol\":2521:2522  3 */\n      0x03\n        /* \"Documents/Web3/Casino/002 Roulette.sol\":2507:2518  determinant */\n      dup2\n        /* \"Documents/Web3/Casino/002 Roulette.sol\":2507:2522  determinant < 3 */\n      lt\n        /* \"Documents/Web3/Casino/002 Roulette.sol\":2503:2615  if (determinant < 3) {... */\n      iszero\n      tag_60\n      jumpi\n        /* \"Documents/Web3/Casino/002 Roulette.sol\":2546:2556  msg.sender */\n      caller\n        /* \"Documents/Web3/Casino/002 Roulette.sol\":2538:2566  payable(msg.sender).transfer */\n      0xffffffffffffffffffffffffffffffffffffffff\n      and\n        /* \"Documents/Web3/Casino/002 Roulette.sol\":2538:2588  payable(msg.sender).transfer(msg.value * 12 ether) */\n      0x08fc\n        /* \"Documents/Web3/Casino/002 Roulette.sol\":2579:2587  12 ether */\n      0xa688906bd8b00000\n        /* \"Documents/Web3/Casino/002 Roulette.sol\":2567:2576  msg.value */\n      callvalue\n        /* \"Documents/Web3/Casino/002 Roulette.sol\":2567:2587  msg.value * 12 ether */\n      tag_61\n      swap2\n      swap1\n      tag_62\n      jump\t// in\n    tag_61:\n        /* \"Documents/Web3/Casino/002 Roulette.sol\":2538:2588  payable(msg.sender).transfer(msg.value * 12 ether) */\n      swap1\n      dup2\n      iszero\n      mul\n      swap1\n      mload(0x40)\n      0x00\n      mload(0x40)\n      dup1\n      dup4\n      sub\n      dup2\n      dup6\n      dup9\n      dup9\n      call\n      swap4\n      pop\n      pop\n      pop\n      pop\n      iszero\n      dup1\n      iszero\n      tag_64\n      jumpi\n      returndatasize\n      0x00\n      dup1\n      returndatacopy\n      revert(0x00, returndatasize)\n    tag_64:\n      pop\n        /* \"Documents/Web3/Casino/002 Roulette.sol\":2503:2615  if (determinant < 3) {... */\n      jump(tag_65)\n    tag_60:\n    tag_65:\n        /* \"Documents/Web3/Casino/002 Roulette.sol\":2442:2621  {... */\n      pop\n        /* \"Documents/Web3/Casino/002 Roulette.sol\":2402:2621  function E_elevenToOne() payable public {... */\n      jump\t// out\n        /* \"Documents/Web3/Casino/002 Roulette.sol\":1735:1951  function B_twoToOne() payable public {... */\n    tag_20:\n        /* \"Documents/Web3/Casino/002 Roulette.sol\":1782:1798  uint determinant */\n      0x00\n        /* \"Documents/Web3/Casino/002 Roulette.sol\":1821:1823  38 */\n      0x26\n        /* \"Documents/Web3/Casino/002 Roulette.sol\":1801:1818  getRandomNumber() */\n      tag_67\n        /* \"Documents/Web3/Casino/002 Roulette.sol\":1801:1816  getRandomNumber */\n      tag_57\n        /* \"Documents/Web3/Casino/002 Roulette.sol\":1801:1818  getRandomNumber() */\n      jump\t// in\n    tag_67:\n        /* \"Documents/Web3/Casino/002 Roulette.sol\":1801:1823  getRandomNumber() % 38 */\n      tag_68\n      swap2\n      swap1\n      tag_59\n      jump\t// in\n    tag_68:\n        /* \"Documents/Web3/Casino/002 Roulette.sol\":1782:1823  uint determinant = getRandomNumber() % 38 */\n      swap1\n      pop\n        /* \"Documents/Web3/Casino/002 Roulette.sol\":1851:1853  12 */\n      0x0c\n        /* \"Documents/Web3/Casino/002 Roulette.sol\":1837:1848  determinant */\n      dup2\n        /* \"Documents/Web3/Casino/002 Roulette.sol\":1837:1853  determinant < 12 */\n      lt\n        /* \"Documents/Web3/Casino/002 Roulette.sol\":1833:1945  if (determinant < 12) {... */\n      iszero\n      tag_69\n      jumpi\n        /* \"Documents/Web3/Casino/002 Roulette.sol\":1877:1887  msg.sender */\n      caller\n        /* \"Documents/Web3/Casino/002 Roulette.sol\":1869:1897  payable(msg.sender).transfer */\n      0xffffffffffffffffffffffffffffffffffffffff\n      and\n        /* \"Documents/Web3/Casino/002 Roulette.sol\":1869:1918  payable(msg.sender).transfer(msg.value * 3 ether) */\n      0x08fc\n        /* \"Documents/Web3/Casino/002 Roulette.sol\":1910:1917  3 ether */\n      0x29a2241af62c0000\n        /* \"Documents/Web3/Casino/002 Roulette.sol\":1898:1907  msg.value */\n      callvalue\n        /* \"Documents/Web3/Casino/002 Roulette.sol\":1898:1917  msg.value * 3 ether */\n      tag_70\n      swap2\n      swap1\n      tag_62\n      jump\t// in\n    tag_70:\n        /* \"Documents/Web3/Casino/002 Roulette.sol\":1869:1918  payable(msg.sender).transfer(msg.value * 3 ether) */\n      swap1\n      dup2\n      iszero\n      mul\n      swap1\n      mload(0x40)\n      0x00\n      mload(0x40)\n      dup1\n      dup4\n      sub\n      dup2\n      dup6\n      dup9\n      dup9\n      call\n      swap4\n      pop\n      pop\n      pop\n      pop\n      iszero\n      dup1\n      iszero\n      tag_72\n      jumpi\n      returndatasize\n      0x00\n      dup1\n      returndatacopy\n      revert(0x00, returndatasize)\n    tag_72:\n      pop\n        /* \"Documents/Web3/Casino/002 Roulette.sol\":1833:1945  if (determinant < 12) {... */\n      jump(tag_73)\n    tag_69:\n    tag_73:\n        /* \"Documents/Web3/Casino/002 Roulette.sol\":1772:1951  {... */\n      pop\n        /* \"Documents/Web3/Casino/002 Roulette.sol\":1735:1951  function B_twoToOne() payable public {... */\n      jump\t// out\n        /* \"Documents/Web3/Casino/002 Roulette.sol\":3341:3449  function J_getBalance() public view onlyOwner() returns (uint) {... */\n    tag_23:\n        /* \"Documents/Web3/Casino/002 Roulette.sol\":3398:3402  uint */\n      0x00\n        /* \"Documents/Web3/Casino/002 Roulette.sol\":828:833  owner */\n      dup1\n      0x00\n      swap1\n      sload\n      swap1\n      0x0100\n      exp\n      swap1\n      div\n      0xffffffffffffffffffffffffffffffffffffffff\n      and\n        /* \"Documents/Web3/Casino/002 Roulette.sol\":814:833  msg.sender == owner */\n      0xffffffffffffffffffffffffffffffffffffffff\n      and\n        /* \"Documents/Web3/Casino/002 Roulette.sol\":814:824  msg.sender */\n      caller\n        /* \"Documents/Web3/Casino/002 Roulette.sol\":814:833  msg.sender == owner */\n      0xffffffffffffffffffffffffffffffffffffffff\n      and\n      eq\n        /* \"Documents/Web3/Casino/002 Roulette.sol\":806:834  require(msg.sender == owner) */\n      tag_75\n      jumpi\n      0x00\n      dup1\n      revert\n    tag_75:\n        /* \"Documents/Web3/Casino/002 Roulette.sol\":3421:3442  address(this).balance */\n      selfbalance\n        /* \"Documents/Web3/Casino/002 Roulette.sol\":3414:3442  return address(this).balance */\n      swap1\n      pop\n        /* \"Documents/Web3/Casino/002 Roulette.sol\":3341:3449  function J_getBalance() public view onlyOwner() returns (uint) {... */\n      swap1\n      jump\t// out\n        /* \"Documents/Web3/Casino/002 Roulette.sol\":606:635  address payable public player */\n    tag_28:\n      0x01\n      0x00\n      swap1\n      sload\n      swap1\n      0x0100\n      exp\n      swap1\n      div\n      0xffffffffffffffffffffffffffffffffffffffff\n      and\n      dup2\n      jump\t// out\n        /* \"Documents/Web3/Casino/002 Roulette.sol\":1405:1495  function AAA_test() payable public returns (uint) {... */\n    tag_32:\n        /* \"Documents/Web3/Casino/002 Roulette.sol\":1449:1453  uint */\n      0x00\n        /* \"Documents/Web3/Casino/002 Roulette.sol\":1465:1476  uint amount */\n      dup1\n        /* \"Documents/Web3/Casino/002 Roulette.sol\":1479:1488  msg.value */\n      callvalue\n        /* \"Documents/Web3/Casino/002 Roulette.sol\":1465:1488  uint amount = msg.value */\n      swap1\n      pop\n        /* \"Documents/Web3/Casino/002 Roulette.sol\":1455:1495  {... */\n      pop\n        /* \"Documents/Web3/Casino/002 Roulette.sol\":1405:1495  function AAA_test() payable public returns (uint) {... */\n      swap1\n      jump\t// out\n        /* \"Documents/Web3/Casino/002 Roulette.sol\":1957:2173  function C_fiveToOne() payable public {... */\n    tag_35:\n        /* \"Documents/Web3/Casino/002 Roulette.sol\":2005:2021  uint determinant */\n      0x00\n        /* \"Documents/Web3/Casino/002 Roulette.sol\":2044:2046  38 */\n      0x26\n        /* \"Documents/Web3/Casino/002 Roulette.sol\":2024:2041  getRandomNumber() */\n      tag_79\n        /* \"Documents/Web3/Casino/002 Roulette.sol\":2024:2039  getRandomNumber */\n      tag_57\n        /* \"Documents/Web3/Casino/002 Roulette.sol\":2024:2041  getRandomNumber() */\n      jump\t// in\n    tag_79:\n        /* \"Documents/Web3/Casino/002 Roulette.sol\":2024:2046  getRandomNumber() % 38 */\n      tag_80\n      swap2\n      swap1\n      tag_59\n      jump\t// in\n    tag_80:\n        /* \"Documents/Web3/Casino/002 Roulette.sol\":2005:2046  uint determinant = getRandomNumber() % 38 */\n      swap1\n      pop\n        /* \"Documents/Web3/Casino/002 Roulette.sol\":2074:2075  6 */\n      0x06\n        /* \"Documents/Web3/Casino/002 Roulette.sol\":2060:2071  determinant */\n      dup2\n        /* \"Documents/Web3/Casino/002 Roulette.sol\":2060:2075  determinant < 6 */\n      lt\n        /* \"Documents/Web3/Casino/002 Roulette.sol\":2056:2167  if (determinant < 6) {... */\n      iszero\n      tag_81\n      jumpi\n        /* \"Documents/Web3/Casino/002 Roulette.sol\":2099:2109  msg.sender */\n      caller\n        /* \"Documents/Web3/Casino/002 Roulette.sol\":2091:2119  payable(msg.sender).transfer */\n      0xffffffffffffffffffffffffffffffffffffffff\n      and\n        /* \"Documents/Web3/Casino/002 Roulette.sol\":2091:2140  payable(msg.sender).transfer(msg.value * 6 ether) */\n      0x08fc\n        /* \"Documents/Web3/Casino/002 Roulette.sol\":2132:2139  6 ether */\n      0x53444835ec580000\n        /* \"Documents/Web3/Casino/002 Roulette.sol\":2120:2129  msg.value */\n      callvalue\n        /* \"Documents/Web3/Casino/002 Roulette.sol\":2120:2139  msg.value * 6 ether */\n      tag_82\n      swap2\n      swap1\n      tag_62\n      jump\t// in\n    tag_82:\n        /* \"Documents/Web3/Casino/002 Roulette.sol\":2091:2140  payable(msg.sender).transfer(msg.value * 6 ether) */\n      swap1\n      dup2\n      iszero\n      mul\n      swap1\n      mload(0x40)\n      0x00\n      mload(0x40)\n      dup1\n      dup4\n      sub\n      dup2\n      dup6\n      dup9\n      dup9\n      call\n      swap4\n      pop\n      pop\n      pop\n      pop\n      iszero\n      dup1\n      iszero\n      tag_84\n      jumpi\n      returndatasize\n      0x00\n      dup1\n      returndatacopy\n      revert(0x00, returndatasize)\n    tag_84:\n      pop\n        /* \"Documents/Web3/Casino/002 Roulette.sol\":2056:2167  if (determinant < 6) {... */\n      jump(tag_85)\n    tag_81:\n    tag_85:\n        /* \"Documents/Web3/Casino/002 Roulette.sol\":1995:2173  {... */\n      pop\n        /* \"Documents/Web3/Casino/002 Roulette.sol\":1957:2173  function C_fiveToOne() payable public {... */\n      jump\t// out\n        /* \"Documents/Web3/Casino/002 Roulette.sol\":2627:2849  function F_seventeenToOne() payable public {... */\n    tag_37:\n        /* \"Documents/Web3/Casino/002 Roulette.sol\":2680:2696  uint determinant */\n      0x00\n        /* \"Documents/Web3/Casino/002 Roulette.sol\":2719:2721  38 */\n      0x26\n        /* \"Documents/Web3/Casino/002 Roulette.sol\":2699:2716  getRandomNumber() */\n      tag_87\n        /* \"Documents/Web3/Casino/002 Roulette.sol\":2699:2714  getRandomNumber */\n      tag_57\n        /* \"Documents/Web3/Casino/002 Roulette.sol\":2699:2716  getRandomNumber() */\n      jump\t// in\n    tag_87:\n        /* \"Documents/Web3/Casino/002 Roulette.sol\":2699:2721  getRandomNumber() % 38 */\n      tag_88\n      swap2\n      swap1\n      tag_59\n      jump\t// in\n    tag_88:\n        /* \"Documents/Web3/Casino/002 Roulette.sol\":2680:2721  uint determinant = getRandomNumber() % 38 */\n      swap1\n      pop\n        /* \"Documents/Web3/Casino/002 Roulette.sol\":2749:2750  2 */\n      0x02\n        /* \"Documents/Web3/Casino/002 Roulette.sol\":2735:2746  determinant */\n      dup2\n        /* \"Documents/Web3/Casino/002 Roulette.sol\":2735:2750  determinant < 2 */\n      lt\n        /* \"Documents/Web3/Casino/002 Roulette.sol\":2731:2843  if (determinant < 2) {... */\n      iszero\n      tag_89\n      jumpi\n        /* \"Documents/Web3/Casino/002 Roulette.sol\":2774:2784  msg.sender */\n      caller\n        /* \"Documents/Web3/Casino/002 Roulette.sol\":2766:2794  payable(msg.sender).transfer */\n      0xffffffffffffffffffffffffffffffffffffffff\n      and\n        /* \"Documents/Web3/Casino/002 Roulette.sol\":2766:2816  payable(msg.sender).transfer(msg.value * 18 ether) */\n      0x08fc\n        /* \"Documents/Web3/Casino/002 Roulette.sol\":2807:2815  18 ether */\n      0xf9ccd8a1c5080000\n        /* \"Documents/Web3/Casino/002 Roulette.sol\":2795:2804  msg.value */\n      callvalue\n        /* \"Documents/Web3/Casino/002 Roulette.sol\":2795:2815  msg.value * 18 ether */\n      tag_90\n      swap2\n      swap1\n      tag_62\n      jump\t// in\n    tag_90:\n        /* \"Documents/Web3/Casino/002 Roulette.sol\":2766:2816  payable(msg.sender).transfer(msg.value * 18 ether) */\n      swap1\n      dup2\n      iszero\n      mul\n      swap1\n      mload(0x40)\n      0x00\n      mload(0x40)\n      dup1\n      dup4\n      sub\n      dup2\n      dup6\n      dup9\n      dup9\n      call\n      swap4\n      pop\n      pop\n      pop\n      pop\n      iszero\n      dup1\n      iszero\n      tag_92\n      jumpi\n      returndatasize\n      0x00\n      dup1\n      returndatacopy\n      revert(0x00, returndatasize)\n    tag_92:\n      pop\n        /* \"Documents/Web3/Casino/002 Roulette.sol\":2731:2843  if (determinant < 2) {... */\n      jump(tag_93)\n    tag_89:\n    tag_93:\n        /* \"Documents/Web3/Casino/002 Roulette.sol\":2670:2849  {... */\n      pop\n        /* \"Documents/Web3/Casino/002 Roulette.sol\":2627:2849  function F_seventeenToOne() payable public {... */\n      jump\t// out\n        /* \"Documents/Web3/Casino/002 Roulette.sol\":2855:3078  function G_thirtyfiveToOne() payable public {... */\n    tag_39:\n        /* \"Documents/Web3/Casino/002 Roulette.sol\":2909:2925  uint determinant */\n      0x00\n        /* \"Documents/Web3/Casino/002 Roulette.sol\":2948:2950  38 */\n      0x26\n        /* \"Documents/Web3/Casino/002 Roulette.sol\":2928:2945  getRandomNumber() */\n      tag_95\n        /* \"Documents/Web3/Casino/002 Roulette.sol\":2928:2943  getRandomNumber */\n      tag_57\n        /* \"Documents/Web3/Casino/002 Roulette.sol\":2928:2945  getRandomNumber() */\n      jump\t// in\n    tag_95:\n        /* \"Documents/Web3/Casino/002 Roulette.sol\":2928:2950  getRandomNumber() % 38 */\n      tag_96\n      swap2\n      swap1\n      tag_59\n      jump\t// in\n    tag_96:\n        /* \"Documents/Web3/Casino/002 Roulette.sol\":2909:2950  uint determinant = getRandomNumber() % 38 */\n      swap1\n      pop\n        /* \"Documents/Web3/Casino/002 Roulette.sol\":2978:2979  1 */\n      0x01\n        /* \"Documents/Web3/Casino/002 Roulette.sol\":2964:2975  determinant */\n      dup2\n        /* \"Documents/Web3/Casino/002 Roulette.sol\":2964:2979  determinant < 1 */\n      lt\n        /* \"Documents/Web3/Casino/002 Roulette.sol\":2960:3072  if (determinant < 1) {... */\n      iszero\n      tag_97\n      jumpi\n        /* \"Documents/Web3/Casino/002 Roulette.sol\":3003:3013  msg.sender */\n      caller\n        /* \"Documents/Web3/Casino/002 Roulette.sol\":2995:3023  payable(msg.sender).transfer */\n      0xffffffffffffffffffffffffffffffffffffffff\n      and\n        /* \"Documents/Web3/Casino/002 Roulette.sol\":2995:3045  payable(msg.sender).transfer(msg.value * 36 ether) */\n      0x08fc\n        /* \"Documents/Web3/Casino/002 Roulette.sol\":3036:3044  36 ether */\n      0x01f399b1438a100000\n        /* \"Documents/Web3/Casino/002 Roulette.sol\":3024:3033  msg.value */\n      callvalue\n        /* \"Documents/Web3/Casino/002 Roulette.sol\":3024:3044  msg.value * 36 ether */\n      tag_98\n      swap2\n      swap1\n      tag_62\n      jump\t// in\n    tag_98:\n        /* \"Documents/Web3/Casino/002 Roulette.sol\":2995:3045  payable(msg.sender).transfer(msg.value * 36 ether) */\n      swap1\n      dup2\n      iszero\n      mul\n      swap1\n      mload(0x40)\n      0x00\n      mload(0x40)\n      dup1\n      dup4\n      sub\n      dup2\n      dup6\n      dup9\n      dup9\n      call\n      swap4\n      pop\n      pop\n      pop\n      pop\n      iszero\n      dup1\n      iszero\n      tag_100\n      jumpi\n      returndatasize\n      0x00\n      dup1\n      returndatacopy\n      revert(0x00, returndatasize)\n    tag_100:\n      pop\n        /* \"Documents/Web3/Casino/002 Roulette.sol\":2960:3072  if (determinant < 1) {... */\n      jump(tag_101)\n    tag_97:\n    tag_101:\n        /* \"Documents/Web3/Casino/002 Roulette.sol\":2899:3078  {... */\n      pop\n        /* \"Documents/Web3/Casino/002 Roulette.sol\":2855:3078  function G_thirtyfiveToOne() payable public {... */\n      jump\t// out\n        /* \"Documents/Web3/Casino/002 Roulette.sol\":572:600  address payable public owner */\n    tag_42:\n      0x00\n      dup1\n      sload\n      swap1\n      0x0100\n      exp\n      swap1\n      div\n      0xffffffffffffffffffffffffffffffffffffffff\n      and\n      dup2\n      jump\t// out\n        /* \"Documents/Web3/Casino/002 Roulette.sol\":1501:1729  function A_oneToOne() payable public setPlayer() {... */\n    tag_45:\n        /* \"Documents/Web3/Casino/002 Roulette.sol\":906:916  msg.sender */\n      caller\n        /* \"Documents/Web3/Casino/002 Roulette.sol\":889:895  player */\n      0x01\n      0x00\n        /* \"Documents/Web3/Casino/002 Roulette.sol\":889:917  player = payable(msg.sender) */\n      0x0100\n      exp\n      dup2\n      sload\n      dup2\n      0xffffffffffffffffffffffffffffffffffffffff\n      mul\n      not\n      and\n      swap1\n      dup4\n      0xffffffffffffffffffffffffffffffffffffffff\n      and\n      mul\n      or\n      swap1\n      sstore\n      pop\n        /* \"Documents/Web3/Casino/002 Roulette.sol\":1560:1576  uint determinant */\n      0x00\n        /* \"Documents/Web3/Casino/002 Roulette.sol\":1599:1601  38 */\n      0x26\n        /* \"Documents/Web3/Casino/002 Roulette.sol\":1579:1596  getRandomNumber() */\n      tag_104\n        /* \"Documents/Web3/Casino/002 Roulette.sol\":1579:1594  getRandomNumber */\n      tag_57\n        /* \"Documents/Web3/Casino/002 Roulette.sol\":1579:1596  getRandomNumber() */\n      jump\t// in\n    tag_104:\n        /* \"Documents/Web3/Casino/002 Roulette.sol\":1579:1601  getRandomNumber() % 38 */\n      tag_105\n      swap2\n      swap1\n      tag_59\n      jump\t// in\n    tag_105:\n        /* \"Documents/Web3/Casino/002 Roulette.sol\":1560:1601  uint determinant = getRandomNumber() % 38 */\n      swap1\n      pop\n        /* \"Documents/Web3/Casino/002 Roulette.sol\":1629:1631  18 */\n      0x12\n        /* \"Documents/Web3/Casino/002 Roulette.sol\":1615:1626  determinant */\n      dup2\n        /* \"Documents/Web3/Casino/002 Roulette.sol\":1615:1631  determinant < 18 */\n      lt\n        /* \"Documents/Web3/Casino/002 Roulette.sol\":1611:1723  if (determinant < 18) {... */\n      iszero\n      tag_106\n      jumpi\n        /* \"Documents/Web3/Casino/002 Roulette.sol\":1655:1665  msg.sender */\n      caller\n        /* \"Documents/Web3/Casino/002 Roulette.sol\":1647:1675  payable(msg.sender).transfer */\n      0xffffffffffffffffffffffffffffffffffffffff\n      and\n        /* \"Documents/Web3/Casino/002 Roulette.sol\":1647:1696  payable(msg.sender).transfer(msg.value * 2 ether) */\n      0x08fc\n        /* \"Documents/Web3/Casino/002 Roulette.sol\":1688:1695  2 ether */\n      0x1bc16d674ec80000\n        /* \"Documents/Web3/Casino/002 Roulette.sol\":1676:1685  msg.value */\n      callvalue\n        /* \"Documents/Web3/Casino/002 Roulette.sol\":1676:1695  msg.value * 2 ether */\n      tag_107\n      swap2\n      swap1\n      tag_62\n      jump\t// in\n    tag_107:\n        /* \"Documents/Web3/Casino/002 Roulette.sol\":1647:1696  payable(msg.sender).transfer(msg.value * 2 ether) */\n      swap1\n      dup2\n      iszero\n      mul\n      swap1\n      mload(0x40)\n      0x00\n      mload(0x40)\n      dup1\n      dup4\n      sub\n      dup2\n      dup6\n      dup9\n      dup9\n      call\n      swap4\n      pop\n      pop\n      pop\n      pop\n      iszero\n      dup1\n      iszero\n      tag_109\n      jumpi\n      returndatasize\n      0x00\n      dup1\n      returndatacopy\n      revert(0x00, returndatasize)\n    tag_109:\n      pop\n        /* \"Documents/Web3/Casino/002 Roulette.sol\":1611:1723  if (determinant < 18) {... */\n      jump(tag_110)\n    tag_106:\n    tag_110:\n        /* \"Documents/Web3/Casino/002 Roulette.sol\":1550:1729  {... */\n      pop\n        /* \"Documents/Web3/Casino/002 Roulette.sol\":1501:1729  function A_oneToOne() payable public setPlayer() {... */\n      jump\t// out\n        /* \"Documents/Web3/Casino/002 Roulette.sol\":2179:2396  function D_eightToOne() payable public {... */\n    tag_47:\n        /* \"Documents/Web3/Casino/002 Roulette.sol\":2228:2244  uint determinant */\n      0x00\n        /* \"Documents/Web3/Casino/002 Roulette.sol\":2267:2269  38 */\n      0x26\n        /* \"Documents/Web3/Casino/002 Roulette.sol\":2247:2264  getRandomNumber() */\n      tag_112\n        /* \"Documents/Web3/Casino/002 Roulette.sol\":2247:2262  getRandomNumber */\n      tag_57\n        /* \"Documents/Web3/Casino/002 Roulette.sol\":2247:2264  getRandomNumber() */\n      jump\t// in\n    tag_112:\n        /* \"Documents/Web3/Casino/002 Roulette.sol\":2247:2269  getRandomNumber() % 38 */\n      tag_113\n      swap2\n      swap1\n      tag_59\n      jump\t// in\n    tag_113:\n        /* \"Documents/Web3/Casino/002 Roulette.sol\":2228:2269  uint determinant = getRandomNumber() % 38 */\n      swap1\n      pop\n        /* \"Documents/Web3/Casino/002 Roulette.sol\":2297:2298  4 */\n      0x04\n        /* \"Documents/Web3/Casino/002 Roulette.sol\":2283:2294  determinant */\n      dup2\n        /* \"Documents/Web3/Casino/002 Roulette.sol\":2283:2298  determinant < 4 */\n      lt\n        /* \"Documents/Web3/Casino/002 Roulette.sol\":2279:2390  if (determinant < 4) {... */\n      iszero\n      tag_114\n      jumpi\n        /* \"Documents/Web3/Casino/002 Roulette.sol\":2322:2332  msg.sender */\n      caller\n        /* \"Documents/Web3/Casino/002 Roulette.sol\":2314:2342  payable(msg.sender).transfer */\n      0xffffffffffffffffffffffffffffffffffffffff\n      and\n        /* \"Documents/Web3/Casino/002 Roulette.sol\":2314:2363  payable(msg.sender).transfer(msg.value * 9 ether) */\n      0x08fc\n        /* \"Documents/Web3/Casino/002 Roulette.sol\":2355:2362  9 ether */\n      0x7ce66c50e2840000\n        /* \"Documents/Web3/Casino/002 Roulette.sol\":2343:2352  msg.value */\n      callvalue\n        /* \"Documents/Web3/Casino/002 Roulette.sol\":2343:2362  msg.value * 9 ether */\n      tag_115\n      swap2\n      swap1\n      tag_62\n      jump\t// in\n    tag_115:\n        /* \"Documents/Web3/Casino/002 Roulette.sol\":2314:2363  payable(msg.sender).transfer(msg.value * 9 ether) */\n      swap1\n      dup2\n      iszero\n      mul\n      swap1\n      mload(0x40)\n      0x00\n      mload(0x40)\n      dup1\n      dup4\n      sub\n      dup2\n      dup6\n      dup9\n      dup9\n      call\n      swap4\n      pop\n      pop\n      pop\n      pop\n      iszero\n      dup1\n      iszero\n      tag_117\n      jumpi\n      returndatasize\n      0x00\n      dup1\n      returndatacopy\n      revert(0x00, returndatasize)\n    tag_117:\n      pop\n        /* \"Documents/Web3/Casino/002 Roulette.sol\":2279:2390  if (determinant < 4) {... */\n      jump(tag_118)\n    tag_114:\n    tag_118:\n        /* \"Documents/Web3/Casino/002 Roulette.sol\":2218:2396  {... */\n      pop\n        /* \"Documents/Web3/Casino/002 Roulette.sol\":2179:2396  function D_eightToOne() payable public {... */\n      jump\t// out\n        /* \"Documents/Web3/Casino/002 Roulette.sol\":3128:3178  function H_deposit() payable public onlyOwner() {} */\n    tag_49:\n        /* \"Documents/Web3/Casino/002 Roulette.sol\":828:833  owner */\n      0x00\n      dup1\n      sload\n      swap1\n      0x0100\n      exp\n      swap1\n      div\n      0xffffffffffffffffffffffffffffffffffffffff\n      and\n        /* \"Documents/Web3/Casino/002 Roulette.sol\":814:833  msg.sender == owner */\n      0xffffffffffffffffffffffffffffffffffffffff\n      and\n        /* \"Documents/Web3/Casino/002 Roulette.sol\":814:824  msg.sender */\n      caller\n        /* \"Documents/Web3/Casino/002 Roulette.sol\":814:833  msg.sender == owner */\n      0xffffffffffffffffffffffffffffffffffffffff\n      and\n      eq\n        /* \"Documents/Web3/Casino/002 Roulette.sol\":806:834  require(msg.sender == owner) */\n      tag_120\n      jumpi\n      0x00\n      dup1\n      revert\n    tag_120:\n        /* \"Documents/Web3/Casino/002 Roulette.sol\":3128:3178  function H_deposit() payable public onlyOwner() {} */\n      jump\t// out\n        /* \"Documents/Web3/Casino/002 Roulette.sol\":3184:3285  function I_withdraw(uint amount) public onlyOwner() {... */\n    tag_54:\n        /* \"Documents/Web3/Casino/002 Roulette.sol\":828:833  owner */\n      0x00\n      dup1\n      sload\n      swap1\n      0x0100\n      exp\n      swap1\n      div\n      0xffffffffffffffffffffffffffffffffffffffff\n      and\n        /* \"Documents/Web3/Casino/002 Roulette.sol\":814:833  msg.sender == owner */\n      0xffffffffffffffffffffffffffffffffffffffff\n      and\n        /* \"Documents/Web3/Casino/002 Roulette.sol\":814:824  msg.sender */\n      caller\n        /* \"Documents/Web3/Casino/002 Roulette.sol\":814:833  msg.sender == owner */\n      0xffffffffffffffffffffffffffffffffffffffff\n      and\n      eq\n        /* \"Documents/Web3/Casino/002 Roulette.sol\":806:834  require(msg.sender == owner) */\n      tag_123\n      jumpi\n      0x00\n      dup1\n      revert\n    tag_123:\n        /* \"Documents/Web3/Casino/002 Roulette.sol\":3246:3251  owner */\n      0x00\n      dup1\n      sload\n      swap1\n      0x0100\n      exp\n      swap1\n      div\n      0xffffffffffffffffffffffffffffffffffffffff\n      and\n        /* \"Documents/Web3/Casino/002 Roulette.sol\":3246:3260  owner.transfer */\n      0xffffffffffffffffffffffffffffffffffffffff\n      and\n        /* \"Documents/Web3/Casino/002 Roulette.sol\":3246:3278  owner.transfer(amount * 1 ether) */\n      0x08fc\n        /* \"Documents/Web3/Casino/002 Roulette.sol\":3270:3277  1 ether */\n      0x0de0b6b3a7640000\n        /* \"Documents/Web3/Casino/002 Roulette.sol\":3261:3267  amount */\n      dup4\n        /* \"Documents/Web3/Casino/002 Roulette.sol\":3261:3277  amount * 1 ether */\n      tag_125\n      swap2\n      swap1\n      tag_62\n      jump\t// in\n    tag_125:\n        /* \"Documents/Web3/Casino/002 Roulette.sol\":3246:3278  owner.transfer(amount * 1 ether) */\n      swap1\n      dup2\n      iszero\n      mul\n      swap1\n      mload(0x40)\n      0x00\n      mload(0x40)\n      dup1\n      dup4\n      sub\n      dup2\n      dup6\n      dup9\n      dup9\n      call\n      swap4\n      pop\n      pop\n      pop\n      pop\n      iszero\n      dup1\n      iszero\n      tag_127\n      jumpi\n      returndatasize\n      0x00\n      dup1\n      returndatacopy\n      revert(0x00, returndatasize)\n    tag_127:\n      pop\n        /* \"Documents/Web3/Casino/002 Roulette.sol\":3184:3285  function I_withdraw(uint amount) public onlyOwner() {... */\n      pop\n      jump\t// out\n        /* \"Documents/Web3/Casino/002 Roulette.sol\":1024:1194  function getRandomNumber() private view returns (uint) {... */\n    tag_57:\n        /* \"Documents/Web3/Casino/002 Roulette.sol\":1073:1077  uint */\n      0x00\n        /* \"Documents/Web3/Casino/002 Roulette.sol\":1128:1149  address(this).balance */\n      selfbalance\n        /* \"Documents/Web3/Casino/002 Roulette.sol\":1151:1166  block.timestamp */\n      timestamp\n        /* \"Documents/Web3/Casino/002 Roulette.sol\":1168:1184  block.difficulty */\n      difficulty\n        /* \"Documents/Web3/Casino/002 Roulette.sol\":1111:1185  abi.encodePacked(address(this).balance, block.timestamp, block.difficulty) */\n      add(0x20, mload(0x40))\n      tag_129\n      swap4\n      swap3\n      swap2\n      swap1\n      tag_130\n      jump\t// in\n    tag_129:\n      mload(0x40)\n      0x20\n      dup2\n      dup4\n      sub\n      sub\n      dup2\n      mstore\n      swap1\n      0x40\n      mstore\n        /* \"Documents/Web3/Casino/002 Roulette.sol\":1101:1186  keccak256(abi.encodePacked(address(this).balance, block.timestamp, block.difficulty)) */\n      dup1\n      mload\n      swap1\n      0x20\n      add\n      keccak256\n        /* \"Documents/Web3/Casino/002 Roulette.sol\":1096:1187  uint(keccak256(abi.encodePacked(address(this).balance, block.timestamp, block.difficulty))) */\n      0x00\n      shr\n        /* \"Documents/Web3/Casino/002 Roulette.sol\":1089:1187  return uint(keccak256(abi.encodePacked(address(this).balance, block.timestamp, block.difficulty))) */\n      swap1\n      pop\n        /* \"Documents/Web3/Casino/002 Roulette.sol\":1024:1194  function getRandomNumber() private view returns (uint) {... */\n      swap1\n      jump\t// out\n        /* \"#utility.yul\":7:84   */\n    tag_131:\n        /* \"#utility.yul\":44:51   */\n      0x00\n        /* \"#utility.yul\":73:78   */\n      dup2\n        /* \"#utility.yul\":62:78   */\n      swap1\n      pop\n        /* \"#utility.yul\":7:84   */\n      swap2\n      swap1\n      pop\n      jump\t// out\n        /* \"#utility.yul\":90:208   */\n    tag_132:\n        /* \"#utility.yul\":177:201   */\n      tag_148\n        /* \"#utility.yul\":195:200   */\n      dup2\n        /* \"#utility.yul\":177:201   */\n      tag_131\n      jump\t// in\n    tag_148:\n        /* \"#utility.yul\":172:175   */\n      dup3\n        /* \"#utility.yul\":165:202   */\n      mstore\n        /* \"#utility.yul\":90:208   */\n      pop\n      pop\n      jump\t// out\n        /* \"#utility.yul\":214:436   */\n    tag_25:\n        /* \"#utility.yul\":307:311   */\n      0x00\n        /* \"#utility.yul\":345:347   */\n      0x20\n        /* \"#utility.yul\":334:343   */\n      dup3\n        /* \"#utility.yul\":330:348   */\n      add\n        /* \"#utility.yul\":322:348   */\n      swap1\n      pop\n        /* \"#utility.yul\":358:429   */\n      tag_150\n        /* \"#utility.yul\":426:427   */\n      0x00\n        /* \"#utility.yul\":415:424   */\n      dup4\n        /* \"#utility.yul\":411:428   */\n      add\n        /* \"#utility.yul\":402:408   */\n      dup5\n        /* \"#utility.yul\":358:429   */\n      tag_132\n      jump\t// in\n    tag_150:\n        /* \"#utility.yul\":214:436   */\n      swap3\n      swap2\n      pop\n      pop\n      jump\t// out\n        /* \"#utility.yul\":442:568   */\n    tag_133:\n        /* \"#utility.yul\":479:486   */\n      0x00\n        /* \"#utility.yul\":519:561   */\n      0xffffffffffffffffffffffffffffffffffffffff\n        /* \"#utility.yul\":512:517   */\n      dup3\n        /* \"#utility.yul\":508:562   */\n      and\n        /* \"#utility.yul\":497:562   */\n      swap1\n      pop\n        /* \"#utility.yul\":442:568   */\n      swap2\n      swap1\n      pop\n      jump\t// out\n        /* \"#utility.yul\":574:678   */\n    tag_134:\n        /* \"#utility.yul\":619:626   */\n      0x00\n        /* \"#utility.yul\":648:672   */\n      tag_153\n        /* \"#utility.yul\":666:671   */\n      dup3\n        /* \"#utility.yul\":648:672   */\n      tag_133\n      jump\t// in\n    tag_153:\n        /* \"#utility.yul\":637:672   */\n      swap1\n      pop\n        /* \"#utility.yul\":574:678   */\n      swap2\n      swap1\n      pop\n      jump\t// out\n        /* \"#utility.yul\":684:826   */\n    tag_135:\n        /* \"#utility.yul\":787:819   */\n      tag_155\n        /* \"#utility.yul\":813:818   */\n      dup2\n        /* \"#utility.yul\":787:819   */\n      tag_134\n      jump\t// in\n    tag_155:\n        /* \"#utility.yul\":782:785   */\n      dup3\n        /* \"#utility.yul\":775:820   */\n      mstore\n        /* \"#utility.yul\":684:826   */\n      pop\n      pop\n      jump\t// out\n        /* \"#utility.yul\":832:1086   */\n    tag_30:\n        /* \"#utility.yul\":941:945   */\n      0x00\n        /* \"#utility.yul\":979:981   */\n      0x20\n        /* \"#utility.yul\":968:977   */\n      dup3\n        /* \"#utility.yul\":964:982   */\n      add\n        /* \"#utility.yul\":956:982   */\n      swap1\n      pop\n        /* \"#utility.yul\":992:1079   */\n      tag_157\n        /* \"#utility.yul\":1076:1077   */\n      0x00\n        /* \"#utility.yul\":1065:1074   */\n      dup4\n        /* \"#utility.yul\":1061:1078   */\n      add\n        /* \"#utility.yul\":1052:1058   */\n      dup5\n        /* \"#utility.yul\":992:1079   */\n      tag_135\n      jump\t// in\n    tag_157:\n        /* \"#utility.yul\":832:1086   */\n      swap3\n      swap2\n      pop\n      pop\n      jump\t// out\n        /* \"#utility.yul\":1173:1290   */\n    tag_137:\n        /* \"#utility.yul\":1282:1283   */\n      0x00\n        /* \"#utility.yul\":1279:1280   */\n      dup1\n        /* \"#utility.yul\":1272:1284   */\n      revert\n        /* \"#utility.yul\":1419:1541   */\n    tag_139:\n        /* \"#utility.yul\":1492:1516   */\n      tag_162\n        /* \"#utility.yul\":1510:1515   */\n      dup2\n        /* \"#utility.yul\":1492:1516   */\n      tag_131\n      jump\t// in\n    tag_162:\n        /* \"#utility.yul\":1485:1490   */\n      dup2\n        /* \"#utility.yul\":1482:1517   */\n      eq\n        /* \"#utility.yul\":1472:1535   */\n      tag_163\n      jumpi\n        /* \"#utility.yul\":1531:1532   */\n      0x00\n        /* \"#utility.yul\":1528:1529   */\n      dup1\n        /* \"#utility.yul\":1521:1533   */\n      revert\n        /* \"#utility.yul\":1472:1535   */\n    tag_163:\n        /* \"#utility.yul\":1419:1541   */\n      pop\n      jump\t// out\n        /* \"#utility.yul\":1547:1686   */\n    tag_140:\n        /* \"#utility.yul\":1593:1598   */\n      0x00\n        /* \"#utility.yul\":1631:1637   */\n      dup2\n        /* \"#utility.yul\":1618:1638   */\n      calldataload\n        /* \"#utility.yul\":1609:1638   */\n      swap1\n      pop\n        /* \"#utility.yul\":1647:1680   */\n      tag_165\n        /* \"#utility.yul\":1674:1679   */\n      dup2\n        /* \"#utility.yul\":1647:1680   */\n      tag_139\n      jump\t// in\n    tag_165:\n        /* \"#utility.yul\":1547:1686   */\n      swap3\n      swap2\n      pop\n      pop\n      jump\t// out\n        /* \"#utility.yul\":1692:2021   */\n    tag_53:\n        /* \"#utility.yul\":1751:1757   */\n      0x00\n        /* \"#utility.yul\":1800:1802   */\n      0x20\n        /* \"#utility.yul\":1788:1797   */\n      dup3\n        /* \"#utility.yul\":1779:1786   */\n      dup5\n        /* \"#utility.yul\":1775:1798   */\n      sub\n        /* \"#utility.yul\":1771:1803   */\n      slt\n        /* \"#utility.yul\":1768:1887   */\n      iszero\n      tag_167\n      jumpi\n        /* \"#utility.yul\":1806:1885   */\n      tag_168\n      tag_137\n      jump\t// in\n    tag_168:\n        /* \"#utility.yul\":1768:1887   */\n    tag_167:\n        /* \"#utility.yul\":1926:1927   */\n      0x00\n        /* \"#utility.yul\":1951:2004   */\n      tag_169\n        /* \"#utility.yul\":1996:2003   */\n      dup5\n        /* \"#utility.yul\":1987:1993   */\n      dup3\n        /* \"#utility.yul\":1976:1985   */\n      dup6\n        /* \"#utility.yul\":1972:1994   */\n      add\n        /* \"#utility.yul\":1951:2004   */\n      tag_140\n      jump\t// in\n    tag_169:\n        /* \"#utility.yul\":1941:2004   */\n      swap2\n      pop\n        /* \"#utility.yul\":1897:2014   */\n      pop\n        /* \"#utility.yul\":1692:2021   */\n      swap3\n      swap2\n      pop\n      pop\n      jump\t// out\n        /* \"#utility.yul\":2027:2207   */\n    tag_141:\n        /* \"#utility.yul\":2075:2152   */\n      0x4e487b7100000000000000000000000000000000000000000000000000000000\n        /* \"#utility.yul\":2072:2073   */\n      0x00\n        /* \"#utility.yul\":2065:2153   */\n      mstore\n        /* \"#utility.yul\":2172:2176   */\n      0x12\n        /* \"#utility.yul\":2169:2170   */\n      0x04\n        /* \"#utility.yul\":2162:2177   */\n      mstore\n        /* \"#utility.yul\":2196:2200   */\n      0x24\n        /* \"#utility.yul\":2193:2194   */\n      0x00\n        /* \"#utility.yul\":2186:2201   */\n      revert\n        /* \"#utility.yul\":2213:2389   */\n    tag_59:\n        /* \"#utility.yul\":2245:2246   */\n      0x00\n        /* \"#utility.yul\":2262:2282   */\n      tag_172\n        /* \"#utility.yul\":2280:2281   */\n      dup3\n        /* \"#utility.yul\":2262:2282   */\n      tag_131\n      jump\t// in\n    tag_172:\n        /* \"#utility.yul\":2257:2282   */\n      swap2\n      pop\n        /* \"#utility.yul\":2296:2316   */\n      tag_173\n        /* \"#utility.yul\":2314:2315   */\n      dup4\n        /* \"#utility.yul\":2296:2316   */\n      tag_131\n      jump\t// in\n    tag_173:\n        /* \"#utility.yul\":2291:2316   */\n      swap3\n      pop\n        /* \"#utility.yul\":2335:2336   */\n      dup3\n        /* \"#utility.yul\":2325:2360   */\n      tag_174\n      jumpi\n        /* \"#utility.yul\":2340:2358   */\n      tag_175\n      tag_141\n      jump\t// in\n    tag_175:\n        /* \"#utility.yul\":2325:2360   */\n    tag_174:\n        /* \"#utility.yul\":2381:2382   */\n      dup3\n        /* \"#utility.yul\":2378:2379   */\n      dup3\n        /* \"#utility.yul\":2374:2383   */\n      mod\n        /* \"#utility.yul\":2369:2383   */\n      swap1\n      pop\n        /* \"#utility.yul\":2213:2389   */\n      swap3\n      swap2\n      pop\n      pop\n      jump\t// out\n        /* \"#utility.yul\":2395:2575   */\n    tag_142:\n        /* \"#utility.yul\":2443:2520   */\n      0x4e487b7100000000000000000000000000000000000000000000000000000000\n        /* \"#utility.yul\":2440:2441   */\n      0x00\n        /* \"#utility.yul\":2433:2521   */\n      mstore\n        /* \"#utility.yul\":2540:2544   */\n      0x11\n        /* \"#utility.yul\":2537:2538   */\n      0x04\n        /* \"#utility.yul\":2530:2545   */\n      mstore\n        /* \"#utility.yul\":2564:2568   */\n      0x24\n        /* \"#utility.yul\":2561:2562   */\n      0x00\n        /* \"#utility.yul\":2554:2569   */\n      revert\n        /* \"#utility.yul\":2581:2929   */\n    tag_62:\n        /* \"#utility.yul\":2621:2628   */\n      0x00\n        /* \"#utility.yul\":2644:2664   */\n      tag_178\n        /* \"#utility.yul\":2662:2663   */\n      dup3\n        /* \"#utility.yul\":2644:2664   */\n      tag_131\n      jump\t// in\n    tag_178:\n        /* \"#utility.yul\":2639:2664   */\n      swap2\n      pop\n        /* \"#utility.yul\":2678:2698   */\n      tag_179\n        /* \"#utility.yul\":2696:2697   */\n      dup4\n        /* \"#utility.yul\":2678:2698   */\n      tag_131\n      jump\t// in\n    tag_179:\n        /* \"#utility.yul\":2673:2698   */\n      swap3\n      pop\n        /* \"#utility.yul\":2866:2867   */\n      dup2\n        /* \"#utility.yul\":2798:2864   */\n      0xffffffffffffffffffffffffffffffffffffffffffffffffffffffffffffffff\n        /* \"#utility.yul\":2794:2868   */\n      div\n        /* \"#utility.yul\":2791:2792   */\n      dup4\n        /* \"#utility.yul\":2788:2869   */\n      gt\n        /* \"#utility.yul\":2783:2784   */\n      dup3\n        /* \"#utility.yul\":2776:2785   */\n      iszero\n        /* \"#utility.yul\":2769:2786   */\n      iszero\n        /* \"#utility.yul\":2765:2870   */\n      and\n        /* \"#utility.yul\":2762:2893   */\n      iszero\n      tag_180\n      jumpi\n        /* \"#utility.yul\":2873:2891   */\n      tag_181\n      tag_142\n      jump\t// in\n    tag_181:\n        /* \"#utility.yul\":2762:2893   */\n    tag_180:\n        /* \"#utility.yul\":2921:2922   */\n      dup3\n        /* \"#utility.yul\":2918:2919   */\n      dup3\n        /* \"#utility.yul\":2914:2923   */\n      mul\n        /* \"#utility.yul\":2903:2923   */\n      swap1\n      pop\n        /* \"#utility.yul\":2581:2929   */\n      swap3\n      swap2\n      pop\n      pop\n      jump\t// out\n        /* \"#utility.yul\":2935:3014   */\n    tag_143:\n        /* \"#utility.yul\":2974:2981   */\n      0x00\n        /* \"#utility.yul\":3003:3008   */\n      dup2\n        /* \"#utility.yul\":2992:3008   */\n      swap1\n      pop\n        /* \"#utility.yul\":2935:3014   */\n      swap2\n      swap1\n      pop\n      jump\t// out\n        /* \"#utility.yul\":3020:3177   */\n    tag_144:\n        /* \"#utility.yul\":3125:3170   */\n      tag_184\n        /* \"#utility.yul\":3145:3169   */\n      tag_185\n        /* \"#utility.yul\":3163:3168   */\n      dup3\n        /* \"#utility.yul\":3145:3169   */\n      tag_131\n      jump\t// in\n    tag_185:\n        /* \"#utility.yul\":3125:3170   */\n      tag_143\n      jump\t// in\n    tag_184:\n        /* \"#utility.yul\":3120:3123   */\n      dup3\n        /* \"#utility.yul\":3113:3171   */\n      mstore\n        /* \"#utility.yul\":3020:3177   */\n      pop\n      pop\n      jump\t// out\n        /* \"#utility.yul\":3183:3721   */\n    tag_130:\n        /* \"#utility.yul\":3351:3354   */\n      0x00\n        /* \"#utility.yul\":3366:3441   */\n      tag_187\n        /* \"#utility.yul\":3437:3440   */\n      dup3\n        /* \"#utility.yul\":3428:3434   */\n      dup7\n        /* \"#utility.yul\":3366:3441   */\n      tag_144\n      jump\t// in\n    tag_187:\n        /* \"#utility.yul\":3466:3468   */\n      0x20\n        /* \"#utility.yul\":3461:3464   */\n      dup3\n        /* \"#utility.yul\":3457:3469   */\n      add\n        /* \"#utility.yul\":3450:3469   */\n      swap2\n      pop\n        /* \"#utility.yul\":3479:3554   */\n      tag_188\n        /* \"#utility.yul\":3550:3553   */\n      dup3\n        /* \"#utility.yul\":3541:3547   */\n      dup6\n        /* \"#utility.yul\":3479:3554   */\n      tag_144\n      jump\t// in\n    tag_188:\n        /* \"#utility.yul\":3579:3581   */\n      0x20\n        /* \"#utility.yul\":3574:3577   */\n      dup3\n        /* \"#utility.yul\":3570:3582   */\n      add\n        /* \"#utility.yul\":3563:3582   */\n      swap2\n      pop\n        /* \"#utility.yul\":3592:3667   */\n      tag_189\n        /* \"#utility.yul\":3663:3666   */\n      dup3\n        /* \"#utility.yul\":3654:3660   */\n      dup5\n        /* \"#utility.yul\":3592:3667   */\n      tag_144\n      jump\t// in\n    tag_189:\n        /* \"#utility.yul\":3692:3694   */\n      0x20\n        /* \"#utility.yul\":3687:3690   */\n      dup3\n        /* \"#utility.yul\":3683:3695   */\n      add\n        /* \"#utility.yul\":3676:3695   */\n      swap2\n      pop\n        /* \"#utility.yul\":3712:3715   */\n      dup2\n        /* \"#utility.yul\":3705:3715   */\n      swap1\n      pop\n        /* \"#utility.yul\":3183:3721   */\n      swap5\n      swap4\n      pop\n      pop\n      pop\n      pop\n      jump\t// out\n\n    auxdata: 0xa2646970667358221220dcec126a4e47fa1f7f9db7ff760bf185754f4be2d7c2184875d01defc0b8ff9a64736f6c634300080f0033\n}\n",
				"bytecode": {
					"linkReferences": {},
					"object": "608060405234801561001057600080fd5b50336000806101000a81548173ffffffffffffffffffffffffffffffffffffffff021916908373ffffffffffffffffffffffffffffffffffffffff160217905550610a41806100606000396000f3fe6080604052600436106100c25760003560e01c8063766f85781161007f578063b1ad305311610059578063b1ad305314610198578063e7120fd9146101a2578063e8d18212146101ac578063f855aa9e146101b6576100c2565b8063766f85781461015957806385b4ba87146101635780638da5cb5b1461016d576100c2565b80630b634788146100c757806329402ecb146100d1578063374ccd33146100db57806348db5f89146101065780636689c33a146101315780636f4c487a1461014f575b600080fd5b6100cf6101df565b005b6100d9610263565b005b3480156100e757600080fd5b506100f06102e7565b6040516100fd91906107ef565b60405180910390f35b34801561011257600080fd5b5061011b610348565b604051610128919061084b565b60405180910390f35b61013961036e565b60405161014691906107ef565b60405180910390f35b610157610378565b005b6101616103fc565b005b61016b610480565b005b34801561017957600080fd5b50610182610505565b60405161018f919061084b565b60405180910390f35b6101a0610529565b005b6101aa6105ee565b005b6101b4610672565b005b3480156101c257600080fd5b506101dd60048036038101906101d89190610897565b6106cc565b005b600060266101eb6107a1565b6101f591906108f3565b9050600381101561025f573373ffffffffffffffffffffffffffffffffffffffff166108fc67a688906bd8b000003461022e9190610953565b9081150290604051600060405180830381858888f19350505050158015610259573d6000803e3d6000fd5b50610260565b5b50565b6000602661026f6107a1565b61027991906108f3565b9050600c8110156102e3573373ffffffffffffffffffffffffffffffffffffffff166108fc6729a2241af62c0000346102b29190610953565b9081150290604051600060405180830381858888f193505050501580156102dd573d6000803e3d6000fd5b506102e4565b5b50565b60008060009054906101000a900473ffffffffffffffffffffffffffffffffffffffff1673ffffffffffffffffffffffffffffffffffffffff163373ffffffffffffffffffffffffffffffffffffffff161461034257600080fd5b47905090565b600160009054906101000a900473ffffffffffffffffffffffffffffffffffffffff1681565b6000803490505090565b600060266103846107a1565b61038e91906108f3565b905060068110156103f8573373ffffffffffffffffffffffffffffffffffffffff166108fc6753444835ec580000346103c79190610953565b9081150290604051600060405180830381858888f193505050501580156103f2573d6000803e3d6000fd5b506103f9565b5b50565b600060266104086107a1565b61041291906108f3565b9050600281101561047c573373ffffffffffffffffffffffffffffffffffffffff166108fc67f9ccd8a1c50800003461044b9190610953565b9081150290604051600060405180830381858888f19350505050158015610476573d6000803e3d6000fd5b5061047d565b5b50565b6000602661048c6107a1565b61049691906108f3565b90506001811015610501573373ffffffffffffffffffffffffffffffffffffffff166108fc6801f399b1438a100000346104d09190610953565b9081150290604051600060405180830381858888f193505050501580156104fb573d6000803e3d6000fd5b50610502565b5b50565b60008054906101000a900473ffffffffffffffffffffffffffffffffffffffff1681565b33600160006101000a81548173ffffffffffffffffffffffffffffffffffffffff021916908373ffffffffffffffffffffffffffffffffffffffff160217905550600060266105766107a1565b61058091906108f3565b905060128110156105ea573373ffffffffffffffffffffffffffffffffffffffff166108fc671bc16d674ec80000346105b99190610953565b9081150290604051600060405180830381858888f193505050501580156105e4573d6000803e3d6000fd5b506105eb565b5b50565b600060266105fa6107a1565b61060491906108f3565b9050600481101561066e573373ffffffffffffffffffffffffffffffffffffffff166108fc677ce66c50e28400003461063d9190610953565b9081150290604051600060405180830381858888f19350505050158015610668573d6000803e3d6000fd5b5061066f565b5b50565b60008054906101000a900473ffffffffffffffffffffffffffffffffffffffff1673ffffffffffffffffffffffffffffffffffffffff163373ffffffffffffffffffffffffffffffffffffffff16146106ca57600080fd5b565b60008054906101000a900473ffffffffffffffffffffffffffffffffffffffff1673ffffffffffffffffffffffffffffffffffffffff163373ffffffffffffffffffffffffffffffffffffffff161461072457600080fd5b60008054906101000a900473ffffffffffffffffffffffffffffffffffffffff1673ffffffffffffffffffffffffffffffffffffffff166108fc670de0b6b3a7640000836107729190610953565b9081150290604051600060405180830381858888f1935050505015801561079d573d6000803e3d6000fd5b5050565b60004742446040516020016107b8939291906109ce565b6040516020818303038152906040528051906020012060001c905090565b6000819050919050565b6107e9816107d6565b82525050565b600060208201905061080460008301846107e0565b92915050565b600073ffffffffffffffffffffffffffffffffffffffff82169050919050565b60006108358261080a565b9050919050565b6108458161082a565b82525050565b6000602082019050610860600083018461083c565b92915050565b600080fd5b610874816107d6565b811461087f57600080fd5b50565b6000813590506108918161086b565b92915050565b6000602082840312156108ad576108ac610866565b5b60006108bb84828501610882565b91505092915050565b7f4e487b7100000000000000000000000000000000000000000000000000000000600052601260045260246000fd5b60006108fe826107d6565b9150610909836107d6565b925082610919576109186108c4565b5b828206905092915050565b7f4e487b7100000000000000000000000000000000000000000000000000000000600052601160045260246000fd5b600061095e826107d6565b9150610969836107d6565b9250817fffffffffffffffffffffffffffffffffffffffffffffffffffffffffffffffff04831182151516156109a2576109a1610924565b5b828202905092915050565b6000819050919050565b6109c86109c3826107d6565b6109ad565b82525050565b60006109da82866109b7565b6020820191506109ea82856109b7565b6020820191506109fa82846109b7565b60208201915081905094935050505056fea2646970667358221220dcec126a4e47fa1f7f9db7ff760bf185754f4be2d7c2184875d01defc0b8ff9a64736f6c634300080f0033",
					"opcodes": "PUSH1 0x80 PUSH1 0x40 MSTORE CALLVALUE DUP1 ISZERO PUSH2 0x10 JUMPI PUSH1 0x0 DUP1 REVERT JUMPDEST POP CALLER PUSH1 0x0 DUP1 PUSH2 0x100 EXP DUP2 SLOAD DUP2 PUSH20 0xFFFFFFFFFFFFFFFFFFFFFFFFFFFFFFFFFFFFFFFF MUL NOT AND SWAP1 DUP4 PUSH20 0xFFFFFFFFFFFFFFFFFFFFFFFFFFFFFFFFFFFFFFFF AND MUL OR SWAP1 SSTORE POP PUSH2 0xA41 DUP1 PUSH2 0x60 PUSH1 0x0 CODECOPY PUSH1 0x0 RETURN INVALID PUSH1 0x80 PUSH1 0x40 MSTORE PUSH1 0x4 CALLDATASIZE LT PUSH2 0xC2 JUMPI PUSH1 0x0 CALLDATALOAD PUSH1 0xE0 SHR DUP1 PUSH4 0x766F8578 GT PUSH2 0x7F JUMPI DUP1 PUSH4 0xB1AD3053 GT PUSH2 0x59 JUMPI DUP1 PUSH4 0xB1AD3053 EQ PUSH2 0x198 JUMPI DUP1 PUSH4 0xE7120FD9 EQ PUSH2 0x1A2 JUMPI DUP1 PUSH4 0xE8D18212 EQ PUSH2 0x1AC JUMPI DUP1 PUSH4 0xF855AA9E EQ PUSH2 0x1B6 JUMPI PUSH2 0xC2 JUMP JUMPDEST DUP1 PUSH4 0x766F8578 EQ PUSH2 0x159 JUMPI DUP1 PUSH4 0x85B4BA87 EQ PUSH2 0x163 JUMPI DUP1 PUSH4 0x8DA5CB5B EQ PUSH2 0x16D JUMPI PUSH2 0xC2 JUMP JUMPDEST DUP1 PUSH4 0xB634788 EQ PUSH2 0xC7 JUMPI DUP1 PUSH4 0x29402ECB EQ PUSH2 0xD1 JUMPI DUP1 PUSH4 0x374CCD33 EQ PUSH2 0xDB JUMPI DUP1 PUSH4 0x48DB5F89 EQ PUSH2 0x106 JUMPI DUP1 PUSH4 0x6689C33A EQ PUSH2 0x131 JUMPI DUP1 PUSH4 0x6F4C487A EQ PUSH2 0x14F JUMPI JUMPDEST PUSH1 0x0 DUP1 REVERT JUMPDEST PUSH2 0xCF PUSH2 0x1DF JUMP JUMPDEST STOP JUMPDEST PUSH2 0xD9 PUSH2 0x263 JUMP JUMPDEST STOP JUMPDEST CALLVALUE DUP1 ISZERO PUSH2 0xE7 JUMPI PUSH1 0x0 DUP1 REVERT JUMPDEST POP PUSH2 0xF0 PUSH2 0x2E7 JUMP JUMPDEST PUSH1 0x40 MLOAD PUSH2 0xFD SWAP2 SWAP1 PUSH2 0x7EF JUMP JUMPDEST PUSH1 0x40 MLOAD DUP1 SWAP2 SUB SWAP1 RETURN JUMPDEST CALLVALUE DUP1 ISZERO PUSH2 0x112 JUMPI PUSH1 0x0 DUP1 REVERT JUMPDEST POP PUSH2 0x11B PUSH2 0x348 JUMP JUMPDEST PUSH1 0x40 MLOAD PUSH2 0x128 SWAP2 SWAP1 PUSH2 0x84B JUMP JUMPDEST PUSH1 0x40 MLOAD DUP1 SWAP2 SUB SWAP1 RETURN JUMPDEST PUSH2 0x139 PUSH2 0x36E JUMP JUMPDEST PUSH1 0x40 MLOAD PUSH2 0x146 SWAP2 SWAP1 PUSH2 0x7EF JUMP JUMPDEST PUSH1 0x40 MLOAD DUP1 SWAP2 SUB SWAP1 RETURN JUMPDEST PUSH2 0x157 PUSH2 0x378 JUMP JUMPDEST STOP JUMPDEST PUSH2 0x161 PUSH2 0x3FC JUMP JUMPDEST STOP JUMPDEST PUSH2 0x16B PUSH2 0x480 JUMP JUMPDEST STOP JUMPDEST CALLVALUE DUP1 ISZERO PUSH2 0x179 JUMPI PUSH1 0x0 DUP1 REVERT JUMPDEST POP PUSH2 0x182 PUSH2 0x505 JUMP JUMPDEST PUSH1 0x40 MLOAD PUSH2 0x18F SWAP2 SWAP1 PUSH2 0x84B JUMP JUMPDEST PUSH1 0x40 MLOAD DUP1 SWAP2 SUB SWAP1 RETURN JUMPDEST PUSH2 0x1A0 PUSH2 0x529 JUMP JUMPDEST STOP JUMPDEST PUSH2 0x1AA PUSH2 0x5EE JUMP JUMPDEST STOP JUMPDEST PUSH2 0x1B4 PUSH2 0x672 JUMP JUMPDEST STOP JUMPDEST CALLVALUE DUP1 ISZERO PUSH2 0x1C2 JUMPI PUSH1 0x0 DUP1 REVERT JUMPDEST POP PUSH2 0x1DD PUSH1 0x4 DUP1 CALLDATASIZE SUB DUP2 ADD SWAP1 PUSH2 0x1D8 SWAP2 SWAP1 PUSH2 0x897 JUMP JUMPDEST PUSH2 0x6CC JUMP JUMPDEST STOP JUMPDEST PUSH1 0x0 PUSH1 0x26 PUSH2 0x1EB PUSH2 0x7A1 JUMP JUMPDEST PUSH2 0x1F5 SWAP2 SWAP1 PUSH2 0x8F3 JUMP JUMPDEST SWAP1 POP PUSH1 0x3 DUP2 LT ISZERO PUSH2 0x25F JUMPI CALLER PUSH20 0xFFFFFFFFFFFFFFFFFFFFFFFFFFFFFFFFFFFFFFFF AND PUSH2 0x8FC PUSH8 0xA688906BD8B00000 CALLVALUE PUSH2 0x22E SWAP2 SWAP1 PUSH2 0x953 JUMP JUMPDEST SWAP1 DUP2 ISZERO MUL SWAP1 PUSH1 0x40 MLOAD PUSH1 0x0 PUSH1 0x40 MLOAD DUP1 DUP4 SUB DUP2 DUP6 DUP9 DUP9 CALL SWAP4 POP POP POP POP ISZERO DUP1 ISZERO PUSH2 0x259 JUMPI RETURNDATASIZE PUSH1 0x0 DUP1 RETURNDATACOPY RETURNDATASIZE PUSH1 0x0 REVERT JUMPDEST POP PUSH2 0x260 JUMP JUMPDEST JUMPDEST POP JUMP JUMPDEST PUSH1 0x0 PUSH1 0x26 PUSH2 0x26F PUSH2 0x7A1 JUMP JUMPDEST PUSH2 0x279 SWAP2 SWAP1 PUSH2 0x8F3 JUMP JUMPDEST SWAP1 POP PUSH1 0xC DUP2 LT ISZERO PUSH2 0x2E3 JUMPI CALLER PUSH20 0xFFFFFFFFFFFFFFFFFFFFFFFFFFFFFFFFFFFFFFFF AND PUSH2 0x8FC PUSH8 0x29A2241AF62C0000 CALLVALUE PUSH2 0x2B2 SWAP2 SWAP1 PUSH2 0x953 JUMP JUMPDEST SWAP1 DUP2 ISZERO MUL SWAP1 PUSH1 0x40 MLOAD PUSH1 0x0 PUSH1 0x40 MLOAD DUP1 DUP4 SUB DUP2 DUP6 DUP9 DUP9 CALL SWAP4 POP POP POP POP ISZERO DUP1 ISZERO PUSH2 0x2DD JUMPI RETURNDATASIZE PUSH1 0x0 DUP1 RETURNDATACOPY RETURNDATASIZE PUSH1 0x0 REVERT JUMPDEST POP PUSH2 0x2E4 JUMP JUMPDEST JUMPDEST POP JUMP JUMPDEST PUSH1 0x0 DUP1 PUSH1 0x0 SWAP1 SLOAD SWAP1 PUSH2 0x100 EXP SWAP1 DIV PUSH20 0xFFFFFFFFFFFFFFFFFFFFFFFFFFFFFFFFFFFFFFFF AND PUSH20 0xFFFFFFFFFFFFFFFFFFFFFFFFFFFFFFFFFFFFFFFF AND CALLER PUSH20 0xFFFFFFFFFFFFFFFFFFFFFFFFFFFFFFFFFFFFFFFF AND EQ PUSH2 0x342 JUMPI PUSH1 0x0 DUP1 REVERT JUMPDEST SELFBALANCE SWAP1 POP SWAP1 JUMP JUMPDEST PUSH1 0x1 PUSH1 0x0 SWAP1 SLOAD SWAP1 PUSH2 0x100 EXP SWAP1 DIV PUSH20 0xFFFFFFFFFFFFFFFFFFFFFFFFFFFFFFFFFFFFFFFF AND DUP2 JUMP JUMPDEST PUSH1 0x0 DUP1 CALLVALUE SWAP1 POP POP SWAP1 JUMP JUMPDEST PUSH1 0x0 PUSH1 0x26 PUSH2 0x384 PUSH2 0x7A1 JUMP JUMPDEST PUSH2 0x38E SWAP2 SWAP1 PUSH2 0x8F3 JUMP JUMPDEST SWAP1 POP PUSH1 0x6 DUP2 LT ISZERO PUSH2 0x3F8 JUMPI CALLER PUSH20 0xFFFFFFFFFFFFFFFFFFFFFFFFFFFFFFFFFFFFFFFF AND PUSH2 0x8FC PUSH8 0x53444835EC580000 CALLVALUE PUSH2 0x3C7 SWAP2 SWAP1 PUSH2 0x953 JUMP JUMPDEST SWAP1 DUP2 ISZERO MUL SWAP1 PUSH1 0x40 MLOAD PUSH1 0x0 PUSH1 0x40 MLOAD DUP1 DUP4 SUB DUP2 DUP6 DUP9 DUP9 CALL SWAP4 POP POP POP POP ISZERO DUP1 ISZERO PUSH2 0x3F2 JUMPI RETURNDATASIZE PUSH1 0x0 DUP1 RETURNDATACOPY RETURNDATASIZE PUSH1 0x0 REVERT JUMPDEST POP PUSH2 0x3F9 JUMP JUMPDEST JUMPDEST POP JUMP JUMPDEST PUSH1 0x0 PUSH1 0x26 PUSH2 0x408 PUSH2 0x7A1 JUMP JUMPDEST PUSH2 0x412 SWAP2 SWAP1 PUSH2 0x8F3 JUMP JUMPDEST SWAP1 POP PUSH1 0x2 DUP2 LT ISZERO PUSH2 0x47C JUMPI CALLER PUSH20 0xFFFFFFFFFFFFFFFFFFFFFFFFFFFFFFFFFFFFFFFF AND PUSH2 0x8FC PUSH8 0xF9CCD8A1C5080000 CALLVALUE PUSH2 0x44B SWAP2 SWAP1 PUSH2 0x953 JUMP JUMPDEST SWAP1 DUP2 ISZERO MUL SWAP1 PUSH1 0x40 MLOAD PUSH1 0x0 PUSH1 0x40 MLOAD DUP1 DUP4 SUB DUP2 DUP6 DUP9 DUP9 CALL SWAP4 POP POP POP POP ISZERO DUP1 ISZERO PUSH2 0x476 JUMPI RETURNDATASIZE PUSH1 0x0 DUP1 RETURNDATACOPY RETURNDATASIZE PUSH1 0x0 REVERT JUMPDEST POP PUSH2 0x47D JUMP JUMPDEST JUMPDEST POP JUMP JUMPDEST PUSH1 0x0 PUSH1 0x26 PUSH2 0x48C PUSH2 0x7A1 JUMP JUMPDEST PUSH2 0x496 SWAP2 SWAP1 PUSH2 0x8F3 JUMP JUMPDEST SWAP1 POP PUSH1 0x1 DUP2 LT ISZERO PUSH2 0x501 JUMPI CALLER PUSH20 0xFFFFFFFFFFFFFFFFFFFFFFFFFFFFFFFFFFFFFFFF AND PUSH2 0x8FC PUSH9 0x1F399B1438A100000 CALLVALUE PUSH2 0x4D0 SWAP2 SWAP1 PUSH2 0x953 JUMP JUMPDEST SWAP1 DUP2 ISZERO MUL SWAP1 PUSH1 0x40 MLOAD PUSH1 0x0 PUSH1 0x40 MLOAD DUP1 DUP4 SUB DUP2 DUP6 DUP9 DUP9 CALL SWAP4 POP POP POP POP ISZERO DUP1 ISZERO PUSH2 0x4FB JUMPI RETURNDATASIZE PUSH1 0x0 DUP1 RETURNDATACOPY RETURNDATASIZE PUSH1 0x0 REVERT JUMPDEST POP PUSH2 0x502 JUMP JUMPDEST JUMPDEST POP JUMP JUMPDEST PUSH1 0x0 DUP1 SLOAD SWAP1 PUSH2 0x100 EXP SWAP1 DIV PUSH20 0xFFFFFFFFFFFFFFFFFFFFFFFFFFFFFFFFFFFFFFFF AND DUP2 JUMP JUMPDEST CALLER PUSH1 0x1 PUSH1 0x0 PUSH2 0x100 EXP DUP2 SLOAD DUP2 PUSH20 0xFFFFFFFFFFFFFFFFFFFFFFFFFFFFFFFFFFFFFFFF MUL NOT AND SWAP1 DUP4 PUSH20 0xFFFFFFFFFFFFFFFFFFFFFFFFFFFFFFFFFFFFFFFF AND MUL OR SWAP1 SSTORE POP PUSH1 0x0 PUSH1 0x26 PUSH2 0x576 PUSH2 0x7A1 JUMP JUMPDEST PUSH2 0x580 SWAP2 SWAP1 PUSH2 0x8F3 JUMP JUMPDEST SWAP1 POP PUSH1 0x12 DUP2 LT ISZERO PUSH2 0x5EA JUMPI CALLER PUSH20 0xFFFFFFFFFFFFFFFFFFFFFFFFFFFFFFFFFFFFFFFF AND PUSH2 0x8FC PUSH8 0x1BC16D674EC80000 CALLVALUE PUSH2 0x5B9 SWAP2 SWAP1 PUSH2 0x953 JUMP JUMPDEST SWAP1 DUP2 ISZERO MUL SWAP1 PUSH1 0x40 MLOAD PUSH1 0x0 PUSH1 0x40 MLOAD DUP1 DUP4 SUB DUP2 DUP6 DUP9 DUP9 CALL SWAP4 POP POP POP POP ISZERO DUP1 ISZERO PUSH2 0x5E4 JUMPI RETURNDATASIZE PUSH1 0x0 DUP1 RETURNDATACOPY RETURNDATASIZE PUSH1 0x0 REVERT JUMPDEST POP PUSH2 0x5EB JUMP JUMPDEST JUMPDEST POP JUMP JUMPDEST PUSH1 0x0 PUSH1 0x26 PUSH2 0x5FA PUSH2 0x7A1 JUMP JUMPDEST PUSH2 0x604 SWAP2 SWAP1 PUSH2 0x8F3 JUMP JUMPDEST SWAP1 POP PUSH1 0x4 DUP2 LT ISZERO PUSH2 0x66E JUMPI CALLER PUSH20 0xFFFFFFFFFFFFFFFFFFFFFFFFFFFFFFFFFFFFFFFF AND PUSH2 0x8FC PUSH8 0x7CE66C50E2840000 CALLVALUE PUSH2 0x63D SWAP2 SWAP1 PUSH2 0x953 JUMP JUMPDEST SWAP1 DUP2 ISZERO MUL SWAP1 PUSH1 0x40 MLOAD PUSH1 0x0 PUSH1 0x40 MLOAD DUP1 DUP4 SUB DUP2 DUP6 DUP9 DUP9 CALL SWAP4 POP POP POP POP ISZERO DUP1 ISZERO PUSH2 0x668 JUMPI RETURNDATASIZE PUSH1 0x0 DUP1 RETURNDATACOPY RETURNDATASIZE PUSH1 0x0 REVERT JUMPDEST POP PUSH2 0x66F JUMP JUMPDEST JUMPDEST POP JUMP JUMPDEST PUSH1 0x0 DUP1 SLOAD SWAP1 PUSH2 0x100 EXP SWAP1 DIV PUSH20 0xFFFFFFFFFFFFFFFFFFFFFFFFFFFFFFFFFFFFFFFF AND PUSH20 0xFFFFFFFFFFFFFFFFFFFFFFFFFFFFFFFFFFFFFFFF AND CALLER PUSH20 0xFFFFFFFFFFFFFFFFFFFFFFFFFFFFFFFFFFFFFFFF AND EQ PUSH2 0x6CA JUMPI PUSH1 0x0 DUP1 REVERT JUMPDEST JUMP JUMPDEST PUSH1 0x0 DUP1 SLOAD SWAP1 PUSH2 0x100 EXP SWAP1 DIV PUSH20 0xFFFFFFFFFFFFFFFFFFFFFFFFFFFFFFFFFFFFFFFF AND PUSH20 0xFFFFFFFFFFFFFFFFFFFFFFFFFFFFFFFFFFFFFFFF AND CALLER PUSH20 0xFFFFFFFFFFFFFFFFFFFFFFFFFFFFFFFFFFFFFFFF AND EQ PUSH2 0x724 JUMPI PUSH1 0x0 DUP1 REVERT JUMPDEST PUSH1 0x0 DUP1 SLOAD SWAP1 PUSH2 0x100 EXP SWAP1 DIV PUSH20 0xFFFFFFFFFFFFFFFFFFFFFFFFFFFFFFFFFFFFFFFF AND PUSH20 0xFFFFFFFFFFFFFFFFFFFFFFFFFFFFFFFFFFFFFFFF AND PUSH2 0x8FC PUSH8 0xDE0B6B3A7640000 DUP4 PUSH2 0x772 SWAP2 SWAP1 PUSH2 0x953 JUMP JUMPDEST SWAP1 DUP2 ISZERO MUL SWAP1 PUSH1 0x40 MLOAD PUSH1 0x0 PUSH1 0x40 MLOAD DUP1 DUP4 SUB DUP2 DUP6 DUP9 DUP9 CALL SWAP4 POP POP POP POP ISZERO DUP1 ISZERO PUSH2 0x79D JUMPI RETURNDATASIZE PUSH1 0x0 DUP1 RETURNDATACOPY RETURNDATASIZE PUSH1 0x0 REVERT JUMPDEST POP POP JUMP JUMPDEST PUSH1 0x0 SELFBALANCE TIMESTAMP DIFFICULTY PUSH1 0x40 MLOAD PUSH1 0x20 ADD PUSH2 0x7B8 SWAP4 SWAP3 SWAP2 SWAP1 PUSH2 0x9CE JUMP JUMPDEST PUSH1 0x40 MLOAD PUSH1 0x20 DUP2 DUP4 SUB SUB DUP2 MSTORE SWAP1 PUSH1 0x40 MSTORE DUP1 MLOAD SWAP1 PUSH1 0x20 ADD KECCAK256 PUSH1 0x0 SHR SWAP1 POP SWAP1 JUMP JUMPDEST PUSH1 0x0 DUP2 SWAP1 POP SWAP2 SWAP1 POP JUMP JUMPDEST PUSH2 0x7E9 DUP2 PUSH2 0x7D6 JUMP JUMPDEST DUP3 MSTORE POP POP JUMP JUMPDEST PUSH1 0x0 PUSH1 0x20 DUP3 ADD SWAP1 POP PUSH2 0x804 PUSH1 0x0 DUP4 ADD DUP5 PUSH2 0x7E0 JUMP JUMPDEST SWAP3 SWAP2 POP POP JUMP JUMPDEST PUSH1 0x0 PUSH20 0xFFFFFFFFFFFFFFFFFFFFFFFFFFFFFFFFFFFFFFFF DUP3 AND SWAP1 POP SWAP2 SWAP1 POP JUMP JUMPDEST PUSH1 0x0 PUSH2 0x835 DUP3 PUSH2 0x80A JUMP JUMPDEST SWAP1 POP SWAP2 SWAP1 POP JUMP JUMPDEST PUSH2 0x845 DUP2 PUSH2 0x82A JUMP JUMPDEST DUP3 MSTORE POP POP JUMP JUMPDEST PUSH1 0x0 PUSH1 0x20 DUP3 ADD SWAP1 POP PUSH2 0x860 PUSH1 0x0 DUP4 ADD DUP5 PUSH2 0x83C JUMP JUMPDEST SWAP3 SWAP2 POP POP JUMP JUMPDEST PUSH1 0x0 DUP1 REVERT JUMPDEST PUSH2 0x874 DUP2 PUSH2 0x7D6 JUMP JUMPDEST DUP2 EQ PUSH2 0x87F JUMPI PUSH1 0x0 DUP1 REVERT JUMPDEST POP JUMP JUMPDEST PUSH1 0x0 DUP2 CALLDATALOAD SWAP1 POP PUSH2 0x891 DUP2 PUSH2 0x86B JUMP JUMPDEST SWAP3 SWAP2 POP POP JUMP JUMPDEST PUSH1 0x0 PUSH1 0x20 DUP3 DUP5 SUB SLT ISZERO PUSH2 0x8AD JUMPI PUSH2 0x8AC PUSH2 0x866 JUMP JUMPDEST JUMPDEST PUSH1 0x0 PUSH2 0x8BB DUP5 DUP3 DUP6 ADD PUSH2 0x882 JUMP JUMPDEST SWAP2 POP POP SWAP3 SWAP2 POP POP JUMP JUMPDEST PUSH32 0x4E487B7100000000000000000000000000000000000000000000000000000000 PUSH1 0x0 MSTORE PUSH1 0x12 PUSH1 0x4 MSTORE PUSH1 0x24 PUSH1 0x0 REVERT JUMPDEST PUSH1 0x0 PUSH2 0x8FE DUP3 PUSH2 0x7D6 JUMP JUMPDEST SWAP2 POP PUSH2 0x909 DUP4 PUSH2 0x7D6 JUMP JUMPDEST SWAP3 POP DUP3 PUSH2 0x919 JUMPI PUSH2 0x918 PUSH2 0x8C4 JUMP JUMPDEST JUMPDEST DUP3 DUP3 MOD SWAP1 POP SWAP3 SWAP2 POP POP JUMP JUMPDEST PUSH32 0x4E487B7100000000000000000000000000000000000000000000000000000000 PUSH1 0x0 MSTORE PUSH1 0x11 PUSH1 0x4 MSTORE PUSH1 0x24 PUSH1 0x0 REVERT JUMPDEST PUSH1 0x0 PUSH2 0x95E DUP3 PUSH2 0x7D6 JUMP JUMPDEST SWAP2 POP PUSH2 0x969 DUP4 PUSH2 0x7D6 JUMP JUMPDEST SWAP3 POP DUP2 PUSH32 0xFFFFFFFFFFFFFFFFFFFFFFFFFFFFFFFFFFFFFFFFFFFFFFFFFFFFFFFFFFFFFFFF DIV DUP4 GT DUP3 ISZERO ISZERO AND ISZERO PUSH2 0x9A2 JUMPI PUSH2 0x9A1 PUSH2 0x924 JUMP JUMPDEST JUMPDEST DUP3 DUP3 MUL SWAP1 POP SWAP3 SWAP2 POP POP JUMP JUMPDEST PUSH1 0x0 DUP2 SWAP1 POP SWAP2 SWAP1 POP JUMP JUMPDEST PUSH2 0x9C8 PUSH2 0x9C3 DUP3 PUSH2 0x7D6 JUMP JUMPDEST PUSH2 0x9AD JUMP JUMPDEST DUP3 MSTORE POP POP JUMP JUMPDEST PUSH1 0x0 PUSH2 0x9DA DUP3 DUP7 PUSH2 0x9B7 JUMP JUMPDEST PUSH1 0x20 DUP3 ADD SWAP2 POP PUSH2 0x9EA DUP3 DUP6 PUSH2 0x9B7 JUMP JUMPDEST PUSH1 0x20 DUP3 ADD SWAP2 POP PUSH2 0x9FA DUP3 DUP5 PUSH2 0x9B7 JUMP JUMPDEST PUSH1 0x20 DUP3 ADD SWAP2 POP DUP2 SWAP1 POP SWAP5 SWAP4 POP POP POP POP JUMP INVALID LOG2 PUSH5 0x6970667358 0x22 SLT KECCAK256 0xDC 0xEC SLT PUSH11 0x4E47FA1F7F9DB7FF760BF1 DUP6 PUSH22 0x4F4BE2D7C2184875D01DEFC0B8FF9A64736F6C634300 ADDMOD 0xF STOP CALLER "
				},
				"gasEstimates": {
					"creation": {
						"codeDepositCost": "525000",
						"executionCost": "24828",
						"totalCost": "549828"
					},
					"external": {
						"AAA_test()": "406",
						"A_oneToOne()": "infinite",
						"B_twoToOne()": "infinite",
						"C_fiveToOne()": "infinite",
						"D_eightToOne()": "infinite",
						"E_elevenToOne()": "infinite",
						"F_seventeenToOne()": "infinite",
						"G_thirtyfiveToOne()": "infinite",
						"H_deposit()": "2353",
						"I_withdraw(uint256)": "infinite",
						"J_getBalance()": "2554",
						"owner()": "2578",
						"player()": "2581"
					},
					"internal": {
						"getRandomNumber()": "infinite"
					}
				},
				"methodIdentifiers": {
					"AAA_test()": "6689c33a",
					"A_oneToOne()": "b1ad3053",
					"B_twoToOne()": "29402ecb",
					"C_fiveToOne()": "6f4c487a",
					"D_eightToOne()": "e7120fd9",
					"E_elevenToOne()": "0b634788",
					"F_seventeenToOne()": "766f8578",
					"G_thirtyfiveToOne()": "85b4ba87",
					"H_deposit()": "e8d18212",
					"I_withdraw(uint256)": "f855aa9e",
					"J_getBalance()": "374ccd33",
					"owner()": "8da5cb5b",
					"player()": "48db5f89"
				}
			},
			"storageLayout": {
				"storage": [
					{
						"astId": 3,
						"contract": "Documents/Web3/Casino/002 Roulette.sol:Roulette",
						"label": "owner",
						"offset": 0,
						"slot": "0",
						"type": "t_address_payable"
					},
					{
						"astId": 5,
						"contract": "Documents/Web3/Casino/002 Roulette.sol:Roulette",
						"label": "player",
						"offset": 0,
						"slot": "1",
						"type": "t_address_payable"
					}
				],
				"types": {
					"t_address_payable": {
						"encoding": "inplace",
						"label": "address payable",
						"numberOfBytes": "20"
					}
				}
			},
			"userdoc": {
				"kind": "user",
				"methods": {},
				"version": 1
			}
		}
	}
}