{
	"Documents/Web3/Casino/002 Roulette.sol": {
		"Roulette": {
			"abi": [
				{
					"inputs": [],
					"stateMutability": "nonpayable",
					"type": "constructor"
				},
				{
					"inputs": [],
					"name": "A_oneToOne",
					"outputs": [],
					"stateMutability": "payable",
					"type": "function"
				},
				{
					"inputs": [],
					"name": "B_twoToOne",
					"outputs": [],
					"stateMutability": "payable",
					"type": "function"
				},
				{
					"inputs": [],
					"name": "C_fiveToOne",
					"outputs": [],
					"stateMutability": "payable",
					"type": "function"
				},
				{
					"inputs": [],
					"name": "D_eightToOne",
					"outputs": [],
					"stateMutability": "payable",
					"type": "function"
				},
				{
					"inputs": [],
					"name": "E_elevenToOne",
					"outputs": [],
					"stateMutability": "payable",
					"type": "function"
				},
				{
					"inputs": [],
					"name": "F_seventeenToOne",
					"outputs": [],
					"stateMutability": "payable",
					"type": "function"
				},
				{
					"inputs": [],
					"name": "G_thirtyfiveToOne",
					"outputs": [],
					"stateMutability": "payable",
					"type": "function"
				},
				{
					"inputs": [],
					"name": "H_deposit",
					"outputs": [],
					"stateMutability": "payable",
					"type": "function"
				},
				{
					"inputs": [
						{
							"internalType": "uint256",
							"name": "amount",
							"type": "uint256"
						}
					],
					"name": "I_withdraw",
					"outputs": [],
					"stateMutability": "nonpayable",
					"type": "function"
				},
				{
					"inputs": [],
					"name": "J_getBalance",
					"outputs": [
						{
							"internalType": "uint256",
							"name": "",
							"type": "uint256"
						}
					],
					"stateMutability": "view",
					"type": "function"
				},
				{
					"inputs": [],
					"name": "owner",
					"outputs": [
						{
							"internalType": "address payable",
							"name": "",
							"type": "address"
						}
					],
					"stateMutability": "view",
					"type": "function"
				}
			],
			"devdoc": {
				"kind": "dev",
				"methods": {},
				"version": 1
			},
			"evm": {
				"assembly": "    /* \"Documents/Web3/Casino/002 Roulette.sol\":547:3229  contract Roulette {... */\n  mstore(0x40, 0x80)\n    /* \"Documents/Web3/Casino/002 Roulette.sol\":639:697  constructor() {... */\n  callvalue\n  dup1\n  iszero\n  tag_1\n  jumpi\n  0x00\n  dup1\n  revert\ntag_1:\n  pop\n    /* \"Documents/Web3/Casino/002 Roulette.sol\":679:689  msg.sender */\n  caller\n    /* \"Documents/Web3/Casino/002 Roulette.sol\":663:668  owner */\n  0x00\n  dup1\n    /* \"Documents/Web3/Casino/002 Roulette.sol\":663:690  owner = payable(msg.sender) */\n  0x0100\n  exp\n  dup2\n  sload\n  dup2\n  0xffffffffffffffffffffffffffffffffffffffff\n  mul\n  not\n  and\n  swap1\n  dup4\n  0xffffffffffffffffffffffffffffffffffffffff\n  and\n  mul\n  or\n  swap1\n  sstore\n  pop\n    /* \"Documents/Web3/Casino/002 Roulette.sol\":547:3229  contract Roulette {... */\n  dataSize(sub_0)\n  dup1\n  dataOffset(sub_0)\n  0x00\n  codecopy\n  0x00\n  return\nstop\n\nsub_0: assembly {\n        /* \"Documents/Web3/Casino/002 Roulette.sol\":547:3229  contract Roulette {... */\n      mstore(0x40, 0x80)\n      jumpi(tag_1, lt(calldatasize, 0x04))\n      shr(0xe0, calldataload(0x00))\n      dup1\n      0x85b4ba87\n      gt\n      tag_13\n      jumpi\n      dup1\n      0x85b4ba87\n      eq\n      tag_7\n      jumpi\n      dup1\n      0x8da5cb5b\n      eq\n      tag_8\n      jumpi\n      dup1\n      0xb1ad3053\n      eq\n      tag_9\n      jumpi\n      dup1\n      0xe7120fd9\n      eq\n      tag_10\n      jumpi\n      dup1\n      0xe8d18212\n      eq\n      tag_11\n      jumpi\n      dup1\n      0xf855aa9e\n      eq\n      tag_12\n      jumpi\n      jump(tag_1)\n    tag_13:\n      dup1\n      0x0b634788\n      eq\n      tag_2\n      jumpi\n      dup1\n      0x29402ecb\n      eq\n      tag_3\n      jumpi\n      dup1\n      0x374ccd33\n      eq\n      tag_4\n      jumpi\n      dup1\n      0x6f4c487a\n      eq\n      tag_5\n      jumpi\n      dup1\n      0x766f8578\n      eq\n      tag_6\n      jumpi\n    tag_1:\n      0x00\n      dup1\n      revert\n        /* \"Documents/Web3/Casino/002 Roulette.sol\":2175:2394  function E_elevenToOne() payable public {... */\n    tag_2:\n      tag_14\n      tag_15\n      jump\t// in\n    tag_14:\n      stop\n        /* \"Documents/Web3/Casino/002 Roulette.sol\":1508:1724  function B_twoToOne() payable public {... */\n    tag_3:\n      tag_16\n      tag_17\n      jump\t// in\n    tag_16:\n      stop\n        /* \"Documents/Web3/Casino/002 Roulette.sol\":3114:3222  function J_getBalance() public view onlyOwner() returns (uint) {... */\n    tag_4:\n      callvalue\n      dup1\n      iszero\n      tag_18\n      jumpi\n      0x00\n      dup1\n      revert\n    tag_18:\n      pop\n      tag_19\n      tag_20\n      jump\t// in\n    tag_19:\n      mload(0x40)\n      tag_21\n      swap2\n      swap1\n      tag_22\n      jump\t// in\n    tag_21:\n      mload(0x40)\n      dup1\n      swap2\n      sub\n      swap1\n      return\n        /* \"Documents/Web3/Casino/002 Roulette.sol\":1730:1946  function C_fiveToOne() payable public {... */\n    tag_5:\n      tag_23\n      tag_24\n      jump\t// in\n    tag_23:\n      stop\n        /* \"Documents/Web3/Casino/002 Roulette.sol\":2400:2622  function F_seventeenToOne() payable public {... */\n    tag_6:\n      tag_25\n      tag_26\n      jump\t// in\n    tag_25:\n      stop\n        /* \"Documents/Web3/Casino/002 Roulette.sol\":2628:2851  function G_thirtyfiveToOne() payable public {... */\n    tag_7:\n      tag_27\n      tag_28\n      jump\t// in\n    tag_27:\n      stop\n        /* \"Documents/Web3/Casino/002 Roulette.sol\":572:600  address payable public owner */\n    tag_8:\n      callvalue\n      dup1\n      iszero\n      tag_29\n      jumpi\n      0x00\n      dup1\n      revert\n    tag_29:\n      pop\n      tag_30\n      tag_31\n      jump\t// in\n    tag_30:\n      mload(0x40)\n      tag_32\n      swap2\n      swap1\n      tag_33\n      jump\t// in\n    tag_32:\n      mload(0x40)\n      dup1\n      swap2\n      sub\n      swap1\n      return\n        /* \"Documents/Web3/Casino/002 Roulette.sol\":1287:1502  function A_oneToOne() payable public {... */\n    tag_9:\n      tag_34\n      tag_35\n      jump\t// in\n    tag_34:\n      stop\n        /* \"Documents/Web3/Casino/002 Roulette.sol\":1952:2169  function D_eightToOne() payable public {... */\n    tag_10:\n      tag_36\n      tag_37\n      jump\t// in\n    tag_36:\n      stop\n        /* \"Documents/Web3/Casino/002 Roulette.sol\":2901:2951  function H_deposit() payable public onlyOwner() {} */\n    tag_11:\n      tag_38\n      tag_39\n      jump\t// in\n    tag_38:\n      stop\n        /* \"Documents/Web3/Casino/002 Roulette.sol\":2957:3058  function I_withdraw(uint amount) public onlyOwner() {... */\n    tag_12:\n      callvalue\n      dup1\n      iszero\n      tag_40\n      jumpi\n      0x00\n      dup1\n      revert\n    tag_40:\n      pop\n      tag_41\n      0x04\n      dup1\n      calldatasize\n      sub\n      dup2\n      add\n      swap1\n      tag_42\n      swap2\n      swap1\n      tag_43\n      jump\t// in\n    tag_42:\n      tag_44\n      jump\t// in\n    tag_41:\n      stop\n        /* \"Documents/Web3/Casino/002 Roulette.sol\":2175:2394  function E_elevenToOne() payable public {... */\n    tag_15:\n        /* \"Documents/Web3/Casino/002 Roulette.sol\":2225:2241  uint determinant */\n      0x00\n        /* \"Documents/Web3/Casino/002 Roulette.sol\":2264:2266  38 */\n      0x26\n        /* \"Documents/Web3/Casino/002 Roulette.sol\":2244:2261  getRandomNumber() */\n      tag_46\n        /* \"Documents/Web3/Casino/002 Roulette.sol\":2244:2259  getRandomNumber */\n      tag_47\n        /* \"Documents/Web3/Casino/002 Roulette.sol\":2244:2261  getRandomNumber() */\n      jump\t// in\n    tag_46:\n        /* \"Documents/Web3/Casino/002 Roulette.sol\":2244:2266  getRandomNumber() % 38 */\n      tag_48\n      swap2\n      swap1\n      tag_49\n      jump\t// in\n    tag_48:\n        /* \"Documents/Web3/Casino/002 Roulette.sol\":2225:2266  uint determinant = getRandomNumber() % 38 */\n      swap1\n      pop\n        /* \"Documents/Web3/Casino/002 Roulette.sol\":2294:2295  3 */\n      0x03\n        /* \"Documents/Web3/Casino/002 Roulette.sol\":2280:2291  determinant */\n      dup2\n        /* \"Documents/Web3/Casino/002 Roulette.sol\":2280:2295  determinant < 3 */\n      lt\n        /* \"Documents/Web3/Casino/002 Roulette.sol\":2276:2388  if (determinant < 3) {... */\n      iszero\n      tag_50\n      jumpi\n        /* \"Documents/Web3/Casino/002 Roulette.sol\":2319:2329  msg.sender */\n      caller\n        /* \"Documents/Web3/Casino/002 Roulette.sol\":2311:2339  payable(msg.sender).transfer */\n      0xffffffffffffffffffffffffffffffffffffffff\n      and\n        /* \"Documents/Web3/Casino/002 Roulette.sol\":2311:2361  payable(msg.sender).transfer(msg.value * 12 ether) */\n      0x08fc\n        /* \"Documents/Web3/Casino/002 Roulette.sol\":2352:2360  12 ether */\n      0xa688906bd8b00000\n        /* \"Documents/Web3/Casino/002 Roulette.sol\":2340:2349  msg.value */\n      callvalue\n        /* \"Documents/Web3/Casino/002 Roulette.sol\":2340:2360  msg.value * 12 ether */\n      tag_51\n      swap2\n      swap1\n      tag_52\n      jump\t// in\n    tag_51:\n        /* \"Documents/Web3/Casino/002 Roulette.sol\":2311:2361  payable(msg.sender).transfer(msg.value * 12 ether) */\n      swap1\n      dup2\n      iszero\n      mul\n      swap1\n      mload(0x40)\n      0x00\n      mload(0x40)\n      dup1\n      dup4\n      sub\n      dup2\n      dup6\n      dup9\n      dup9\n      call\n      swap4\n      pop\n      pop\n      pop\n      pop\n      iszero\n      dup1\n      iszero\n      tag_54\n      jumpi\n      returndatasize\n      0x00\n      dup1\n      returndatacopy\n      revert(0x00, returndatasize)\n    tag_54:\n      pop\n        /* \"Documents/Web3/Casino/002 Roulette.sol\":2276:2388  if (determinant < 3) {... */\n      jump(tag_55)\n    tag_50:\n    tag_55:\n        /* \"Documents/Web3/Casino/002 Roulette.sol\":2215:2394  {... */\n      pop\n        /* \"Documents/Web3/Casino/002 Roulette.sol\":2175:2394  function E_elevenToOne() payable public {... */\n      jump\t// out\n        /* \"Documents/Web3/Casino/002 Roulette.sol\":1508:1724  function B_twoToOne() payable public {... */\n    tag_17:\n        /* \"Documents/Web3/Casino/002 Roulette.sol\":1555:1571  uint determinant */\n      0x00\n        /* \"Documents/Web3/Casino/002 Roulette.sol\":1594:1596  38 */\n      0x26\n        /* \"Documents/Web3/Casino/002 Roulette.sol\":1574:1591  getRandomNumber() */\n      tag_57\n        /* \"Documents/Web3/Casino/002 Roulette.sol\":1574:1589  getRandomNumber */\n      tag_47\n        /* \"Documents/Web3/Casino/002 Roulette.sol\":1574:1591  getRandomNumber() */\n      jump\t// in\n    tag_57:\n        /* \"Documents/Web3/Casino/002 Roulette.sol\":1574:1596  getRandomNumber() % 38 */\n      tag_58\n      swap2\n      swap1\n      tag_49\n      jump\t// in\n    tag_58:\n        /* \"Documents/Web3/Casino/002 Roulette.sol\":1555:1596  uint determinant = getRandomNumber() % 38 */\n      swap1\n      pop\n        /* \"Documents/Web3/Casino/002 Roulette.sol\":1624:1626  12 */\n      0x0c\n        /* \"Documents/Web3/Casino/002 Roulette.sol\":1610:1621  determinant */\n      dup2\n        /* \"Documents/Web3/Casino/002 Roulette.sol\":1610:1626  determinant < 12 */\n      lt\n        /* \"Documents/Web3/Casino/002 Roulette.sol\":1606:1718  if (determinant < 12) {... */\n      iszero\n      tag_59\n      jumpi\n        /* \"Documents/Web3/Casino/002 Roulette.sol\":1650:1660  msg.sender */\n      caller\n        /* \"Documents/Web3/Casino/002 Roulette.sol\":1642:1670  payable(msg.sender).transfer */\n      0xffffffffffffffffffffffffffffffffffffffff\n      and\n        /* \"Documents/Web3/Casino/002 Roulette.sol\":1642:1691  payable(msg.sender).transfer(msg.value * 3 ether) */\n      0x08fc\n        /* \"Documents/Web3/Casino/002 Roulette.sol\":1683:1690  3 ether */\n      0x29a2241af62c0000\n        /* \"Documents/Web3/Casino/002 Roulette.sol\":1671:1680  msg.value */\n      callvalue\n        /* \"Documents/Web3/Casino/002 Roulette.sol\":1671:1690  msg.value * 3 ether */\n      tag_60\n      swap2\n      swap1\n      tag_52\n      jump\t// in\n    tag_60:\n        /* \"Documents/Web3/Casino/002 Roulette.sol\":1642:1691  payable(msg.sender).transfer(msg.value * 3 ether) */\n      swap1\n      dup2\n      iszero\n      mul\n      swap1\n      mload(0x40)\n      0x00\n      mload(0x40)\n      dup1\n      dup4\n      sub\n      dup2\n      dup6\n      dup9\n      dup9\n      call\n      swap4\n      pop\n      pop\n      pop\n      pop\n      iszero\n      dup1\n      iszero\n      tag_62\n      jumpi\n      returndatasize\n      0x00\n      dup1\n      returndatacopy\n      revert(0x00, returndatasize)\n    tag_62:\n      pop\n        /* \"Documents/Web3/Casino/002 Roulette.sol\":1606:1718  if (determinant < 12) {... */\n      jump(tag_63)\n    tag_59:\n    tag_63:\n        /* \"Documents/Web3/Casino/002 Roulette.sol\":1545:1724  {... */\n      pop\n        /* \"Documents/Web3/Casino/002 Roulette.sol\":1508:1724  function B_twoToOne() payable public {... */\n      jump\t// out\n        /* \"Documents/Web3/Casino/002 Roulette.sol\":3114:3222  function J_getBalance() public view onlyOwner() returns (uint) {... */\n    tag_20:\n        /* \"Documents/Web3/Casino/002 Roulette.sol\":3171:3175  uint */\n      0x00\n        /* \"Documents/Web3/Casino/002 Roulette.sol\":793:798  owner */\n      dup1\n      0x00\n      swap1\n      sload\n      swap1\n      0x0100\n      exp\n      swap1\n      div\n      0xffffffffffffffffffffffffffffffffffffffff\n      and\n        /* \"Documents/Web3/Casino/002 Roulette.sol\":779:798  msg.sender == owner */\n      0xffffffffffffffffffffffffffffffffffffffff\n      and\n        /* \"Documents/Web3/Casino/002 Roulette.sol\":779:789  msg.sender */\n      caller\n        /* \"Documents/Web3/Casino/002 Roulette.sol\":779:798  msg.sender == owner */\n      0xffffffffffffffffffffffffffffffffffffffff\n      and\n      eq\n        /* \"Documents/Web3/Casino/002 Roulette.sol\":771:799  require(msg.sender == owner) */\n      tag_65\n      jumpi\n      0x00\n      dup1\n      revert\n    tag_65:\n        /* \"Documents/Web3/Casino/002 Roulette.sol\":3194:3215  address(this).balance */\n      selfbalance\n        /* \"Documents/Web3/Casino/002 Roulette.sol\":3187:3215  return address(this).balance */\n      swap1\n      pop\n        /* \"Documents/Web3/Casino/002 Roulette.sol\":3114:3222  function J_getBalance() public view onlyOwner() returns (uint) {... */\n      swap1\n      jump\t// out\n        /* \"Documents/Web3/Casino/002 Roulette.sol\":1730:1946  function C_fiveToOne() payable public {... */\n    tag_24:\n        /* \"Documents/Web3/Casino/002 Roulette.sol\":1778:1794  uint determinant */\n      0x00\n        /* \"Documents/Web3/Casino/002 Roulette.sol\":1817:1819  38 */\n      0x26\n        /* \"Documents/Web3/Casino/002 Roulette.sol\":1797:1814  getRandomNumber() */\n      tag_68\n        /* \"Documents/Web3/Casino/002 Roulette.sol\":1797:1812  getRandomNumber */\n      tag_47\n        /* \"Documents/Web3/Casino/002 Roulette.sol\":1797:1814  getRandomNumber() */\n      jump\t// in\n    tag_68:\n        /* \"Documents/Web3/Casino/002 Roulette.sol\":1797:1819  getRandomNumber() % 38 */\n      tag_69\n      swap2\n      swap1\n      tag_49\n      jump\t// in\n    tag_69:\n        /* \"Documents/Web3/Casino/002 Roulette.sol\":1778:1819  uint determinant = getRandomNumber() % 38 */\n      swap1\n      pop\n        /* \"Documents/Web3/Casino/002 Roulette.sol\":1847:1848  6 */\n      0x06\n        /* \"Documents/Web3/Casino/002 Roulette.sol\":1833:1844  determinant */\n      dup2\n        /* \"Documents/Web3/Casino/002 Roulette.sol\":1833:1848  determinant < 6 */\n      lt\n        /* \"Documents/Web3/Casino/002 Roulette.sol\":1829:1940  if (determinant < 6) {... */\n      iszero\n      tag_70\n      jumpi\n        /* \"Documents/Web3/Casino/002 Roulette.sol\":1872:1882  msg.sender */\n      caller\n        /* \"Documents/Web3/Casino/002 Roulette.sol\":1864:1892  payable(msg.sender).transfer */\n      0xffffffffffffffffffffffffffffffffffffffff\n      and\n        /* \"Documents/Web3/Casino/002 Roulette.sol\":1864:1913  payable(msg.sender).transfer(msg.value * 6 ether) */\n      0x08fc\n        /* \"Documents/Web3/Casino/002 Roulette.sol\":1905:1912  6 ether */\n      0x53444835ec580000\n        /* \"Documents/Web3/Casino/002 Roulette.sol\":1893:1902  msg.value */\n      callvalue\n        /* \"Documents/Web3/Casino/002 Roulette.sol\":1893:1912  msg.value * 6 ether */\n      tag_71\n      swap2\n      swap1\n      tag_52\n      jump\t// in\n    tag_71:\n        /* \"Documents/Web3/Casino/002 Roulette.sol\":1864:1913  payable(msg.sender).transfer(msg.value * 6 ether) */\n      swap1\n      dup2\n      iszero\n      mul\n      swap1\n      mload(0x40)\n      0x00\n      mload(0x40)\n      dup1\n      dup4\n      sub\n      dup2\n      dup6\n      dup9\n      dup9\n      call\n      swap4\n      pop\n      pop\n      pop\n      pop\n      iszero\n      dup1\n      iszero\n      tag_73\n      jumpi\n      returndatasize\n      0x00\n      dup1\n      returndatacopy\n      revert(0x00, returndatasize)\n    tag_73:\n      pop\n        /* \"Documents/Web3/Casino/002 Roulette.sol\":1829:1940  if (determinant < 6) {... */\n      jump(tag_74)\n    tag_70:\n    tag_74:\n        /* \"Documents/Web3/Casino/002 Roulette.sol\":1768:1946  {... */\n      pop\n        /* \"Documents/Web3/Casino/002 Roulette.sol\":1730:1946  function C_fiveToOne() payable public {... */\n      jump\t// out\n        /* \"Documents/Web3/Casino/002 Roulette.sol\":2400:2622  function F_seventeenToOne() payable public {... */\n    tag_26:\n        /* \"Documents/Web3/Casino/002 Roulette.sol\":2453:2469  uint determinant */\n      0x00\n        /* \"Documents/Web3/Casino/002 Roulette.sol\":2492:2494  38 */\n      0x26\n        /* \"Documents/Web3/Casino/002 Roulette.sol\":2472:2489  getRandomNumber() */\n      tag_76\n        /* \"Documents/Web3/Casino/002 Roulette.sol\":2472:2487  getRandomNumber */\n      tag_47\n        /* \"Documents/Web3/Casino/002 Roulette.sol\":2472:2489  getRandomNumber() */\n      jump\t// in\n    tag_76:\n        /* \"Documents/Web3/Casino/002 Roulette.sol\":2472:2494  getRandomNumber() % 38 */\n      tag_77\n      swap2\n      swap1\n      tag_49\n      jump\t// in\n    tag_77:\n        /* \"Documents/Web3/Casino/002 Roulette.sol\":2453:2494  uint determinant = getRandomNumber() % 38 */\n      swap1\n      pop\n        /* \"Documents/Web3/Casino/002 Roulette.sol\":2522:2523  2 */\n      0x02\n        /* \"Documents/Web3/Casino/002 Roulette.sol\":2508:2519  determinant */\n      dup2\n        /* \"Documents/Web3/Casino/002 Roulette.sol\":2508:2523  determinant < 2 */\n      lt\n        /* \"Documents/Web3/Casino/002 Roulette.sol\":2504:2616  if (determinant < 2) {... */\n      iszero\n      tag_78\n      jumpi\n        /* \"Documents/Web3/Casino/002 Roulette.sol\":2547:2557  msg.sender */\n      caller\n        /* \"Documents/Web3/Casino/002 Roulette.sol\":2539:2567  payable(msg.sender).transfer */\n      0xffffffffffffffffffffffffffffffffffffffff\n      and\n        /* \"Documents/Web3/Casino/002 Roulette.sol\":2539:2589  payable(msg.sender).transfer(msg.value * 18 ether) */\n      0x08fc\n        /* \"Documents/Web3/Casino/002 Roulette.sol\":2580:2588  18 ether */\n      0xf9ccd8a1c5080000\n        /* \"Documents/Web3/Casino/002 Roulette.sol\":2568:2577  msg.value */\n      callvalue\n        /* \"Documents/Web3/Casino/002 Roulette.sol\":2568:2588  msg.value * 18 ether */\n      tag_79\n      swap2\n      swap1\n      tag_52\n      jump\t// in\n    tag_79:\n        /* \"Documents/Web3/Casino/002 Roulette.sol\":2539:2589  payable(msg.sender).transfer(msg.value * 18 ether) */\n      swap1\n      dup2\n      iszero\n      mul\n      swap1\n      mload(0x40)\n      0x00\n      mload(0x40)\n      dup1\n      dup4\n      sub\n      dup2\n      dup6\n      dup9\n      dup9\n      call\n      swap4\n      pop\n      pop\n      pop\n      pop\n      iszero\n      dup1\n      iszero\n      tag_81\n      jumpi\n      returndatasize\n      0x00\n      dup1\n      returndatacopy\n      revert(0x00, returndatasize)\n    tag_81:\n      pop\n        /* \"Documents/Web3/Casino/002 Roulette.sol\":2504:2616  if (determinant < 2) {... */\n      jump(tag_82)\n    tag_78:\n    tag_82:\n        /* \"Documents/Web3/Casino/002 Roulette.sol\":2443:2622  {... */\n      pop\n        /* \"Documents/Web3/Casino/002 Roulette.sol\":2400:2622  function F_seventeenToOne() payable public {... */\n      jump\t// out\n        /* \"Documents/Web3/Casino/002 Roulette.sol\":2628:2851  function G_thirtyfiveToOne() payable public {... */\n    tag_28:\n        /* \"Documents/Web3/Casino/002 Roulette.sol\":2682:2698  uint determinant */\n      0x00\n        /* \"Documents/Web3/Casino/002 Roulette.sol\":2721:2723  38 */\n      0x26\n        /* \"Documents/Web3/Casino/002 Roulette.sol\":2701:2718  getRandomNumber() */\n      tag_84\n        /* \"Documents/Web3/Casino/002 Roulette.sol\":2701:2716  getRandomNumber */\n      tag_47\n        /* \"Documents/Web3/Casino/002 Roulette.sol\":2701:2718  getRandomNumber() */\n      jump\t// in\n    tag_84:\n        /* \"Documents/Web3/Casino/002 Roulette.sol\":2701:2723  getRandomNumber() % 38 */\n      tag_85\n      swap2\n      swap1\n      tag_49\n      jump\t// in\n    tag_85:\n        /* \"Documents/Web3/Casino/002 Roulette.sol\":2682:2723  uint determinant = getRandomNumber() % 38 */\n      swap1\n      pop\n        /* \"Documents/Web3/Casino/002 Roulette.sol\":2751:2752  1 */\n      0x01\n        /* \"Documents/Web3/Casino/002 Roulette.sol\":2737:2748  determinant */\n      dup2\n        /* \"Documents/Web3/Casino/002 Roulette.sol\":2737:2752  determinant < 1 */\n      lt\n        /* \"Documents/Web3/Casino/002 Roulette.sol\":2733:2845  if (determinant < 1) {... */\n      iszero\n      tag_86\n      jumpi\n        /* \"Documents/Web3/Casino/002 Roulette.sol\":2776:2786  msg.sender */\n      caller\n        /* \"Documents/Web3/Casino/002 Roulette.sol\":2768:2796  payable(msg.sender).transfer */\n      0xffffffffffffffffffffffffffffffffffffffff\n      and\n        /* \"Documents/Web3/Casino/002 Roulette.sol\":2768:2818  payable(msg.sender).transfer(msg.value * 36 ether) */\n      0x08fc\n        /* \"Documents/Web3/Casino/002 Roulette.sol\":2809:2817  36 ether */\n      0x01f399b1438a100000\n        /* \"Documents/Web3/Casino/002 Roulette.sol\":2797:2806  msg.value */\n      callvalue\n        /* \"Documents/Web3/Casino/002 Roulette.sol\":2797:2817  msg.value * 36 ether */\n      tag_87\n      swap2\n      swap1\n      tag_52\n      jump\t// in\n    tag_87:\n        /* \"Documents/Web3/Casino/002 Roulette.sol\":2768:2818  payable(msg.sender).transfer(msg.value * 36 ether) */\n      swap1\n      dup2\n      iszero\n      mul\n      swap1\n      mload(0x40)\n      0x00\n      mload(0x40)\n      dup1\n      dup4\n      sub\n      dup2\n      dup6\n      dup9\n      dup9\n      call\n      swap4\n      pop\n      pop\n      pop\n      pop\n      iszero\n      dup1\n      iszero\n      tag_89\n      jumpi\n      returndatasize\n      0x00\n      dup1\n      returndatacopy\n      revert(0x00, returndatasize)\n    tag_89:\n      pop\n        /* \"Documents/Web3/Casino/002 Roulette.sol\":2733:2845  if (determinant < 1) {... */\n      jump(tag_90)\n    tag_86:\n    tag_90:\n        /* \"Documents/Web3/Casino/002 Roulette.sol\":2672:2851  {... */\n      pop\n        /* \"Documents/Web3/Casino/002 Roulette.sol\":2628:2851  function G_thirtyfiveToOne() payable public {... */\n      jump\t// out\n        /* \"Documents/Web3/Casino/002 Roulette.sol\":572:600  address payable public owner */\n    tag_31:\n      0x00\n      dup1\n      sload\n      swap1\n      0x0100\n      exp\n      swap1\n      div\n      0xffffffffffffffffffffffffffffffffffffffff\n      and\n      dup2\n      jump\t// out\n        /* \"Documents/Web3/Casino/002 Roulette.sol\":1287:1502  function A_oneToOne() payable public {... */\n    tag_35:\n        /* \"Documents/Web3/Casino/002 Roulette.sol\":1334:1350  uint determinant */\n      0x00\n        /* \"Documents/Web3/Casino/002 Roulette.sol\":1373:1375  38 */\n      0x26\n        /* \"Documents/Web3/Casino/002 Roulette.sol\":1353:1370  getRandomNumber() */\n      tag_92\n        /* \"Documents/Web3/Casino/002 Roulette.sol\":1353:1368  getRandomNumber */\n      tag_47\n        /* \"Documents/Web3/Casino/002 Roulette.sol\":1353:1370  getRandomNumber() */\n      jump\t// in\n    tag_92:\n        /* \"Documents/Web3/Casino/002 Roulette.sol\":1353:1375  getRandomNumber() % 38 */\n      tag_93\n      swap2\n      swap1\n      tag_49\n      jump\t// in\n    tag_93:\n        /* \"Documents/Web3/Casino/002 Roulette.sol\":1334:1375  uint determinant = getRandomNumber() % 38 */\n      swap1\n      pop\n        /* \"Documents/Web3/Casino/002 Roulette.sol\":1403:1405  18 */\n      0x12\n        /* \"Documents/Web3/Casino/002 Roulette.sol\":1389:1400  determinant */\n      dup2\n        /* \"Documents/Web3/Casino/002 Roulette.sol\":1389:1405  determinant < 18 */\n      lt\n        /* \"Documents/Web3/Casino/002 Roulette.sol\":1385:1496  if (determinant < 18) {... */\n      iszero\n      tag_94\n      jumpi\n        /* \"Documents/Web3/Casino/002 Roulette.sol\":1429:1438  tx.origin */\n      origin\n        /* \"Documents/Web3/Casino/002 Roulette.sol\":1421:1448  payable(tx.origin).transfer */\n      0xffffffffffffffffffffffffffffffffffffffff\n      and\n        /* \"Documents/Web3/Casino/002 Roulette.sol\":1421:1469  payable(tx.origin).transfer(msg.value * 2 ether) */\n      0x08fc\n        /* \"Documents/Web3/Casino/002 Roulette.sol\":1461:1468  2 ether */\n      0x1bc16d674ec80000\n        /* \"Documents/Web3/Casino/002 Roulette.sol\":1449:1458  msg.value */\n      callvalue\n        /* \"Documents/Web3/Casino/002 Roulette.sol\":1449:1468  msg.value * 2 ether */\n      tag_95\n      swap2\n      swap1\n      tag_52\n      jump\t// in\n    tag_95:\n        /* \"Documents/Web3/Casino/002 Roulette.sol\":1421:1469  payable(tx.origin).transfer(msg.value * 2 ether) */\n      swap1\n      dup2\n      iszero\n      mul\n      swap1\n      mload(0x40)\n      0x00\n      mload(0x40)\n      dup1\n      dup4\n      sub\n      dup2\n      dup6\n      dup9\n      dup9\n      call\n      swap4\n      pop\n      pop\n      pop\n      pop\n      iszero\n      dup1\n      iszero\n      tag_97\n      jumpi\n      returndatasize\n      0x00\n      dup1\n      returndatacopy\n      revert(0x00, returndatasize)\n    tag_97:\n      pop\n        /* \"Documents/Web3/Casino/002 Roulette.sol\":1385:1496  if (determinant < 18) {... */\n      jump(tag_98)\n    tag_94:\n    tag_98:\n        /* \"Documents/Web3/Casino/002 Roulette.sol\":1324:1502  {... */\n      pop\n        /* \"Documents/Web3/Casino/002 Roulette.sol\":1287:1502  function A_oneToOne() payable public {... */\n      jump\t// out\n        /* \"Documents/Web3/Casino/002 Roulette.sol\":1952:2169  function D_eightToOne() payable public {... */\n    tag_37:\n        /* \"Documents/Web3/Casino/002 Roulette.sol\":2001:2017  uint determinant */\n      0x00\n        /* \"Documents/Web3/Casino/002 Roulette.sol\":2040:2042  38 */\n      0x26\n        /* \"Documents/Web3/Casino/002 Roulette.sol\":2020:2037  getRandomNumber() */\n      tag_100\n        /* \"Documents/Web3/Casino/002 Roulette.sol\":2020:2035  getRandomNumber */\n      tag_47\n        /* \"Documents/Web3/Casino/002 Roulette.sol\":2020:2037  getRandomNumber() */\n      jump\t// in\n    tag_100:\n        /* \"Documents/Web3/Casino/002 Roulette.sol\":2020:2042  getRandomNumber() % 38 */\n      tag_101\n      swap2\n      swap1\n      tag_49\n      jump\t// in\n    tag_101:\n        /* \"Documents/Web3/Casino/002 Roulette.sol\":2001:2042  uint determinant = getRandomNumber() % 38 */\n      swap1\n      pop\n        /* \"Documents/Web3/Casino/002 Roulette.sol\":2070:2071  4 */\n      0x04\n        /* \"Documents/Web3/Casino/002 Roulette.sol\":2056:2067  determinant */\n      dup2\n        /* \"Documents/Web3/Casino/002 Roulette.sol\":2056:2071  determinant < 4 */\n      lt\n        /* \"Documents/Web3/Casino/002 Roulette.sol\":2052:2163  if (determinant < 4) {... */\n      iszero\n      tag_102\n      jumpi\n        /* \"Documents/Web3/Casino/002 Roulette.sol\":2095:2105  msg.sender */\n      caller\n        /* \"Documents/Web3/Casino/002 Roulette.sol\":2087:2115  payable(msg.sender).transfer */\n      0xffffffffffffffffffffffffffffffffffffffff\n      and\n        /* \"Documents/Web3/Casino/002 Roulette.sol\":2087:2136  payable(msg.sender).transfer(msg.value * 9 ether) */\n      0x08fc\n        /* \"Documents/Web3/Casino/002 Roulette.sol\":2128:2135  9 ether */\n      0x7ce66c50e2840000\n        /* \"Documents/Web3/Casino/002 Roulette.sol\":2116:2125  msg.value */\n      callvalue\n        /* \"Documents/Web3/Casino/002 Roulette.sol\":2116:2135  msg.value * 9 ether */\n      tag_103\n      swap2\n      swap1\n      tag_52\n      jump\t// in\n    tag_103:\n        /* \"Documents/Web3/Casino/002 Roulette.sol\":2087:2136  payable(msg.sender).transfer(msg.value * 9 ether) */\n      swap1\n      dup2\n      iszero\n      mul\n      swap1\n      mload(0x40)\n      0x00\n      mload(0x40)\n      dup1\n      dup4\n      sub\n      dup2\n      dup6\n      dup9\n      dup9\n      call\n      swap4\n      pop\n      pop\n      pop\n      pop\n      iszero\n      dup1\n      iszero\n      tag_105\n      jumpi\n      returndatasize\n      0x00\n      dup1\n      returndatacopy\n      revert(0x00, returndatasize)\n    tag_105:\n      pop\n        /* \"Documents/Web3/Casino/002 Roulette.sol\":2052:2163  if (determinant < 4) {... */\n      jump(tag_106)\n    tag_102:\n    tag_106:\n        /* \"Documents/Web3/Casino/002 Roulette.sol\":1991:2169  {... */\n      pop\n        /* \"Documents/Web3/Casino/002 Roulette.sol\":1952:2169  function D_eightToOne() payable public {... */\n      jump\t// out\n        /* \"Documents/Web3/Casino/002 Roulette.sol\":2901:2951  function H_deposit() payable public onlyOwner() {} */\n    tag_39:\n        /* \"Documents/Web3/Casino/002 Roulette.sol\":793:798  owner */\n      0x00\n      dup1\n      sload\n      swap1\n      0x0100\n      exp\n      swap1\n      div\n      0xffffffffffffffffffffffffffffffffffffffff\n      and\n        /* \"Documents/Web3/Casino/002 Roulette.sol\":779:798  msg.sender == owner */\n      0xffffffffffffffffffffffffffffffffffffffff\n      and\n        /* \"Documents/Web3/Casino/002 Roulette.sol\":779:789  msg.sender */\n      caller\n        /* \"Documents/Web3/Casino/002 Roulette.sol\":779:798  msg.sender == owner */\n      0xffffffffffffffffffffffffffffffffffffffff\n      and\n      eq\n        /* \"Documents/Web3/Casino/002 Roulette.sol\":771:799  require(msg.sender == owner) */\n      tag_108\n      jumpi\n      0x00\n      dup1\n      revert\n    tag_108:\n        /* \"Documents/Web3/Casino/002 Roulette.sol\":2901:2951  function H_deposit() payable public onlyOwner() {} */\n      jump\t// out\n        /* \"Documents/Web3/Casino/002 Roulette.sol\":2957:3058  function I_withdraw(uint amount) public onlyOwner() {... */\n    tag_44:\n        /* \"Documents/Web3/Casino/002 Roulette.sol\":793:798  owner */\n      0x00\n      dup1\n      sload\n      swap1\n      0x0100\n      exp\n      swap1\n      div\n      0xffffffffffffffffffffffffffffffffffffffff\n      and\n        /* \"Documents/Web3/Casino/002 Roulette.sol\":779:798  msg.sender == owner */\n      0xffffffffffffffffffffffffffffffffffffffff\n      and\n        /* \"Documents/Web3/Casino/002 Roulette.sol\":779:789  msg.sender */\n      caller\n        /* \"Documents/Web3/Casino/002 Roulette.sol\":779:798  msg.sender == owner */\n      0xffffffffffffffffffffffffffffffffffffffff\n      and\n      eq\n        /* \"Documents/Web3/Casino/002 Roulette.sol\":771:799  require(msg.sender == owner) */\n      tag_111\n      jumpi\n      0x00\n      dup1\n      revert\n    tag_111:\n        /* \"Documents/Web3/Casino/002 Roulette.sol\":3019:3024  owner */\n      0x00\n      dup1\n      sload\n      swap1\n      0x0100\n      exp\n      swap1\n      div\n      0xffffffffffffffffffffffffffffffffffffffff\n      and\n        /* \"Documents/Web3/Casino/002 Roulette.sol\":3019:3033  owner.transfer */\n      0xffffffffffffffffffffffffffffffffffffffff\n      and\n        /* \"Documents/Web3/Casino/002 Roulette.sol\":3019:3051  owner.transfer(amount * 1 ether) */\n      0x08fc\n        /* \"Documents/Web3/Casino/002 Roulette.sol\":3043:3050  1 ether */\n      0x0de0b6b3a7640000\n        /* \"Documents/Web3/Casino/002 Roulette.sol\":3034:3040  amount */\n      dup4\n        /* \"Documents/Web3/Casino/002 Roulette.sol\":3034:3050  amount * 1 ether */\n      tag_113\n      swap2\n      swap1\n      tag_52\n      jump\t// in\n    tag_113:\n        /* \"Documents/Web3/Casino/002 Roulette.sol\":3019:3051  owner.transfer(amount * 1 ether) */\n      swap1\n      dup2\n      iszero\n      mul\n      swap1\n      mload(0x40)\n      0x00\n      mload(0x40)\n      dup1\n      dup4\n      sub\n      dup2\n      dup6\n      dup9\n      dup9\n      call\n      swap4\n      pop\n      pop\n      pop\n      pop\n      iszero\n      dup1\n      iszero\n      tag_115\n      jumpi\n      returndatasize\n      0x00\n      dup1\n      returndatacopy\n      revert(0x00, returndatasize)\n    tag_115:\n      pop\n        /* \"Documents/Web3/Casino/002 Roulette.sol\":2957:3058  function I_withdraw(uint amount) public onlyOwner() {... */\n      pop\n      jump\t// out\n        /* \"Documents/Web3/Casino/002 Roulette.sol\":906:1076  function getRandomNumber() private view returns (uint) {... */\n    tag_47:\n        /* \"Documents/Web3/Casino/002 Roulette.sol\":955:959  uint */\n      0x00\n        /* \"Documents/Web3/Casino/002 Roulette.sol\":1010:1031  address(this).balance */\n      selfbalance\n        /* \"Documents/Web3/Casino/002 Roulette.sol\":1033:1048  block.timestamp */\n      timestamp\n        /* \"Documents/Web3/Casino/002 Roulette.sol\":1050:1066  block.difficulty */\n      difficulty\n        /* \"Documents/Web3/Casino/002 Roulette.sol\":993:1067  abi.encodePacked(address(this).balance, block.timestamp, block.difficulty) */\n      add(0x20, mload(0x40))\n      tag_117\n      swap4\n      swap3\n      swap2\n      swap1\n      tag_118\n      jump\t// in\n    tag_117:\n      mload(0x40)\n      0x20\n      dup2\n      dup4\n      sub\n      sub\n      dup2\n      mstore\n      swap1\n      0x40\n      mstore\n        /* \"Documents/Web3/Casino/002 Roulette.sol\":983:1068  keccak256(abi.encodePacked(address(this).balance, block.timestamp, block.difficulty)) */\n      dup1\n      mload\n      swap1\n      0x20\n      add\n      keccak256\n        /* \"Documents/Web3/Casino/002 Roulette.sol\":978:1069  uint(keccak256(abi.encodePacked(address(this).balance, block.timestamp, block.difficulty))) */\n      0x00\n      shr\n        /* \"Documents/Web3/Casino/002 Roulette.sol\":971:1069  return uint(keccak256(abi.encodePacked(address(this).balance, block.timestamp, block.difficulty))) */\n      swap1\n      pop\n        /* \"Documents/Web3/Casino/002 Roulette.sol\":906:1076  function getRandomNumber() private view returns (uint) {... */\n      swap1\n      jump\t// out\n        /* \"#utility.yul\":7:84   */\n    tag_119:\n        /* \"#utility.yul\":44:51   */\n      0x00\n        /* \"#utility.yul\":73:78   */\n      dup2\n        /* \"#utility.yul\":62:78   */\n      swap1\n      pop\n        /* \"#utility.yul\":7:84   */\n      swap2\n      swap1\n      pop\n      jump\t// out\n        /* \"#utility.yul\":90:208   */\n    tag_120:\n        /* \"#utility.yul\":177:201   */\n      tag_136\n        /* \"#utility.yul\":195:200   */\n      dup2\n        /* \"#utility.yul\":177:201   */\n      tag_119\n      jump\t// in\n    tag_136:\n        /* \"#utility.yul\":172:175   */\n      dup3\n        /* \"#utility.yul\":165:202   */\n      mstore\n        /* \"#utility.yul\":90:208   */\n      pop\n      pop\n      jump\t// out\n        /* \"#utility.yul\":214:436   */\n    tag_22:\n        /* \"#utility.yul\":307:311   */\n      0x00\n        /* \"#utility.yul\":345:347   */\n      0x20\n        /* \"#utility.yul\":334:343   */\n      dup3\n        /* \"#utility.yul\":330:348   */\n      add\n        /* \"#utility.yul\":322:348   */\n      swap1\n      pop\n        /* \"#utility.yul\":358:429   */\n      tag_138\n        /* \"#utility.yul\":426:427   */\n      0x00\n        /* \"#utility.yul\":415:424   */\n      dup4\n        /* \"#utility.yul\":411:428   */\n      add\n        /* \"#utility.yul\":402:408   */\n      dup5\n        /* \"#utility.yul\":358:429   */\n      tag_120\n      jump\t// in\n    tag_138:\n        /* \"#utility.yul\":214:436   */\n      swap3\n      swap2\n      pop\n      pop\n      jump\t// out\n        /* \"#utility.yul\":442:568   */\n    tag_121:\n        /* \"#utility.yul\":479:486   */\n      0x00\n        /* \"#utility.yul\":519:561   */\n      0xffffffffffffffffffffffffffffffffffffffff\n        /* \"#utility.yul\":512:517   */\n      dup3\n        /* \"#utility.yul\":508:562   */\n      and\n        /* \"#utility.yul\":497:562   */\n      swap1\n      pop\n        /* \"#utility.yul\":442:568   */\n      swap2\n      swap1\n      pop\n      jump\t// out\n        /* \"#utility.yul\":574:678   */\n    tag_122:\n        /* \"#utility.yul\":619:626   */\n      0x00\n        /* \"#utility.yul\":648:672   */\n      tag_141\n        /* \"#utility.yul\":666:671   */\n      dup3\n        /* \"#utility.yul\":648:672   */\n      tag_121\n      jump\t// in\n    tag_141:\n        /* \"#utility.yul\":637:672   */\n      swap1\n      pop\n        /* \"#utility.yul\":574:678   */\n      swap2\n      swap1\n      pop\n      jump\t// out\n        /* \"#utility.yul\":684:826   */\n    tag_123:\n        /* \"#utility.yul\":787:819   */\n      tag_143\n        /* \"#utility.yul\":813:818   */\n      dup2\n        /* \"#utility.yul\":787:819   */\n      tag_122\n      jump\t// in\n    tag_143:\n        /* \"#utility.yul\":782:785   */\n      dup3\n        /* \"#utility.yul\":775:820   */\n      mstore\n        /* \"#utility.yul\":684:826   */\n      pop\n      pop\n      jump\t// out\n        /* \"#utility.yul\":832:1086   */\n    tag_33:\n        /* \"#utility.yul\":941:945   */\n      0x00\n        /* \"#utility.yul\":979:981   */\n      0x20\n        /* \"#utility.yul\":968:977   */\n      dup3\n        /* \"#utility.yul\":964:982   */\n      add\n        /* \"#utility.yul\":956:982   */\n      swap1\n      pop\n        /* \"#utility.yul\":992:1079   */\n      tag_145\n        /* \"#utility.yul\":1076:1077   */\n      0x00\n        /* \"#utility.yul\":1065:1074   */\n      dup4\n        /* \"#utility.yul\":1061:1078   */\n      add\n        /* \"#utility.yul\":1052:1058   */\n      dup5\n        /* \"#utility.yul\":992:1079   */\n      tag_123\n      jump\t// in\n    tag_145:\n        /* \"#utility.yul\":832:1086   */\n      swap3\n      swap2\n      pop\n      pop\n      jump\t// out\n        /* \"#utility.yul\":1173:1290   */\n    tag_125:\n        /* \"#utility.yul\":1282:1283   */\n      0x00\n        /* \"#utility.yul\":1279:1280   */\n      dup1\n        /* \"#utility.yul\":1272:1284   */\n      revert\n        /* \"#utility.yul\":1419:1541   */\n    tag_127:\n        /* \"#utility.yul\":1492:1516   */\n      tag_150\n        /* \"#utility.yul\":1510:1515   */\n      dup2\n        /* \"#utility.yul\":1492:1516   */\n      tag_119\n      jump\t// in\n    tag_150:\n        /* \"#utility.yul\":1485:1490   */\n      dup2\n        /* \"#utility.yul\":1482:1517   */\n      eq\n        /* \"#utility.yul\":1472:1535   */\n      tag_151\n      jumpi\n        /* \"#utility.yul\":1531:1532   */\n      0x00\n        /* \"#utility.yul\":1528:1529   */\n      dup1\n        /* \"#utility.yul\":1521:1533   */\n      revert\n        /* \"#utility.yul\":1472:1535   */\n    tag_151:\n        /* \"#utility.yul\":1419:1541   */\n      pop\n      jump\t// out\n        /* \"#utility.yul\":1547:1686   */\n    tag_128:\n        /* \"#utility.yul\":1593:1598   */\n      0x00\n        /* \"#utility.yul\":1631:1637   */\n      dup2\n        /* \"#utility.yul\":1618:1638   */\n      calldataload\n        /* \"#utility.yul\":1609:1638   */\n      swap1\n      pop\n        /* \"#utility.yul\":1647:1680   */\n      tag_153\n        /* \"#utility.yul\":1674:1679   */\n      dup2\n        /* \"#utility.yul\":1647:1680   */\n      tag_127\n      jump\t// in\n    tag_153:\n        /* \"#utility.yul\":1547:1686   */\n      swap3\n      swap2\n      pop\n      pop\n      jump\t// out\n        /* \"#utility.yul\":1692:2021   */\n    tag_43:\n        /* \"#utility.yul\":1751:1757   */\n      0x00\n        /* \"#utility.yul\":1800:1802   */\n      0x20\n        /* \"#utility.yul\":1788:1797   */\n      dup3\n        /* \"#utility.yul\":1779:1786   */\n      dup5\n        /* \"#utility.yul\":1775:1798   */\n      sub\n        /* \"#utility.yul\":1771:1803   */\n      slt\n        /* \"#utility.yul\":1768:1887   */\n      iszero\n      tag_155\n      jumpi\n        /* \"#utility.yul\":1806:1885   */\n      tag_156\n      tag_125\n      jump\t// in\n    tag_156:\n        /* \"#utility.yul\":1768:1887   */\n    tag_155:\n        /* \"#utility.yul\":1926:1927   */\n      0x00\n        /* \"#utility.yul\":1951:2004   */\n      tag_157\n        /* \"#utility.yul\":1996:2003   */\n      dup5\n        /* \"#utility.yul\":1987:1993   */\n      dup3\n        /* \"#utility.yul\":1976:1985   */\n      dup6\n        /* \"#utility.yul\":1972:1994   */\n      add\n        /* \"#utility.yul\":1951:2004   */\n      tag_128\n      jump\t// in\n    tag_157:\n        /* \"#utility.yul\":1941:2004   */\n      swap2\n      pop\n        /* \"#utility.yul\":1897:2014   */\n      pop\n        /* \"#utility.yul\":1692:2021   */\n      swap3\n      swap2\n      pop\n      pop\n      jump\t// out\n        /* \"#utility.yul\":2027:2207   */\n    tag_129:\n        /* \"#utility.yul\":2075:2152   */\n      0x4e487b7100000000000000000000000000000000000000000000000000000000\n        /* \"#utility.yul\":2072:2073   */\n      0x00\n        /* \"#utility.yul\":2065:2153   */\n      mstore\n        /* \"#utility.yul\":2172:2176   */\n      0x12\n        /* \"#utility.yul\":2169:2170   */\n      0x04\n        /* \"#utility.yul\":2162:2177   */\n      mstore\n        /* \"#utility.yul\":2196:2200   */\n      0x24\n        /* \"#utility.yul\":2193:2194   */\n      0x00\n        /* \"#utility.yul\":2186:2201   */\n      revert\n        /* \"#utility.yul\":2213:2389   */\n    tag_49:\n        /* \"#utility.yul\":2245:2246   */\n      0x00\n        /* \"#utility.yul\":2262:2282   */\n      tag_160\n        /* \"#utility.yul\":2280:2281   */\n      dup3\n        /* \"#utility.yul\":2262:2282   */\n      tag_119\n      jump\t// in\n    tag_160:\n        /* \"#utility.yul\":2257:2282   */\n      swap2\n      pop\n        /* \"#utility.yul\":2296:2316   */\n      tag_161\n        /* \"#utility.yul\":2314:2315   */\n      dup4\n        /* \"#utility.yul\":2296:2316   */\n      tag_119\n      jump\t// in\n    tag_161:\n        /* \"#utility.yul\":2291:2316   */\n      swap3\n      pop\n        /* \"#utility.yul\":2335:2336   */\n      dup3\n        /* \"#utility.yul\":2325:2360   */\n      tag_162\n      jumpi\n        /* \"#utility.yul\":2340:2358   */\n      tag_163\n      tag_129\n      jump\t// in\n    tag_163:\n        /* \"#utility.yul\":2325:2360   */\n    tag_162:\n        /* \"#utility.yul\":2381:2382   */\n      dup3\n        /* \"#utility.yul\":2378:2379   */\n      dup3\n        /* \"#utility.yul\":2374:2383   */\n      mod\n        /* \"#utility.yul\":2369:2383   */\n      swap1\n      pop\n        /* \"#utility.yul\":2213:2389   */\n      swap3\n      swap2\n      pop\n      pop\n      jump\t// out\n        /* \"#utility.yul\":2395:2575   */\n    tag_130:\n        /* \"#utility.yul\":2443:2520   */\n      0x4e487b7100000000000000000000000000000000000000000000000000000000\n        /* \"#utility.yul\":2440:2441   */\n      0x00\n        /* \"#utility.yul\":2433:2521   */\n      mstore\n        /* \"#utility.yul\":2540:2544   */\n      0x11\n        /* \"#utility.yul\":2537:2538   */\n      0x04\n        /* \"#utility.yul\":2530:2545   */\n      mstore\n        /* \"#utility.yul\":2564:2568   */\n      0x24\n        /* \"#utility.yul\":2561:2562   */\n      0x00\n        /* \"#utility.yul\":2554:2569   */\n      revert\n        /* \"#utility.yul\":2581:2929   */\n    tag_52:\n        /* \"#utility.yul\":2621:2628   */\n      0x00\n        /* \"#utility.yul\":2644:2664   */\n      tag_166\n        /* \"#utility.yul\":2662:2663   */\n      dup3\n        /* \"#utility.yul\":2644:2664   */\n      tag_119\n      jump\t// in\n    tag_166:\n        /* \"#utility.yul\":2639:2664   */\n      swap2\n      pop\n        /* \"#utility.yul\":2678:2698   */\n      tag_167\n        /* \"#utility.yul\":2696:2697   */\n      dup4\n        /* \"#utility.yul\":2678:2698   */\n      tag_119\n      jump\t// in\n    tag_167:\n        /* \"#utility.yul\":2673:2698   */\n      swap3\n      pop\n        /* \"#utility.yul\":2866:2867   */\n      dup2\n        /* \"#utility.yul\":2798:2864   */\n      0xffffffffffffffffffffffffffffffffffffffffffffffffffffffffffffffff\n        /* \"#utility.yul\":2794:2868   */\n      div\n        /* \"#utility.yul\":2791:2792   */\n      dup4\n        /* \"#utility.yul\":2788:2869   */\n      gt\n        /* \"#utility.yul\":2783:2784   */\n      dup3\n        /* \"#utility.yul\":2776:2785   */\n      iszero\n        /* \"#utility.yul\":2769:2786   */\n      iszero\n        /* \"#utility.yul\":2765:2870   */\n      and\n        /* \"#utility.yul\":2762:2893   */\n      iszero\n      tag_168\n      jumpi\n        /* \"#utility.yul\":2873:2891   */\n      tag_169\n      tag_130\n      jump\t// in\n    tag_169:\n        /* \"#utility.yul\":2762:2893   */\n    tag_168:\n        /* \"#utility.yul\":2921:2922   */\n      dup3\n        /* \"#utility.yul\":2918:2919   */\n      dup3\n        /* \"#utility.yul\":2914:2923   */\n      mul\n        /* \"#utility.yul\":2903:2923   */\n      swap1\n      pop\n        /* \"#utility.yul\":2581:2929   */\n      swap3\n      swap2\n      pop\n      pop\n      jump\t// out\n        /* \"#utility.yul\":2935:3014   */\n    tag_131:\n        /* \"#utility.yul\":2974:2981   */\n      0x00\n        /* \"#utility.yul\":3003:3008   */\n      dup2\n        /* \"#utility.yul\":2992:3008   */\n      swap1\n      pop\n        /* \"#utility.yul\":2935:3014   */\n      swap2\n      swap1\n      pop\n      jump\t// out\n        /* \"#utility.yul\":3020:3177   */\n    tag_132:\n        /* \"#utility.yul\":3125:3170   */\n      tag_172\n        /* \"#utility.yul\":3145:3169   */\n      tag_173\n        /* \"#utility.yul\":3163:3168   */\n      dup3\n        /* \"#utility.yul\":3145:3169   */\n      tag_119\n      jump\t// in\n    tag_173:\n        /* \"#utility.yul\":3125:3170   */\n      tag_131\n      jump\t// in\n    tag_172:\n        /* \"#utility.yul\":3120:3123   */\n      dup3\n        /* \"#utility.yul\":3113:3171   */\n      mstore\n        /* \"#utility.yul\":3020:3177   */\n      pop\n      pop\n      jump\t// out\n        /* \"#utility.yul\":3183:3721   */\n    tag_118:\n        /* \"#utility.yul\":3351:3354   */\n      0x00\n        /* \"#utility.yul\":3366:3441   */\n      tag_175\n        /* \"#utility.yul\":3437:3440   */\n      dup3\n        /* \"#utility.yul\":3428:3434   */\n      dup7\n        /* \"#utility.yul\":3366:3441   */\n      tag_132\n      jump\t// in\n    tag_175:\n        /* \"#utility.yul\":3466:3468   */\n      0x20\n        /* \"#utility.yul\":3461:3464   */\n      dup3\n        /* \"#utility.yul\":3457:3469   */\n      add\n        /* \"#utility.yul\":3450:3469   */\n      swap2\n      pop\n        /* \"#utility.yul\":3479:3554   */\n      tag_176\n        /* \"#utility.yul\":3550:3553   */\n      dup3\n        /* \"#utility.yul\":3541:3547   */\n      dup6\n        /* \"#utility.yul\":3479:3554   */\n      tag_132\n      jump\t// in\n    tag_176:\n        /* \"#utility.yul\":3579:3581   */\n      0x20\n        /* \"#utility.yul\":3574:3577   */\n      dup3\n        /* \"#utility.yul\":3570:3582   */\n      add\n        /* \"#utility.yul\":3563:3582   */\n      swap2\n      pop\n        /* \"#utility.yul\":3592:3667   */\n      tag_177\n        /* \"#utility.yul\":3663:3666   */\n      dup3\n        /* \"#utility.yul\":3654:3660   */\n      dup5\n        /* \"#utility.yul\":3592:3667   */\n      tag_132\n      jump\t// in\n    tag_177:\n        /* \"#utility.yul\":3692:3694   */\n      0x20\n        /* \"#utility.yul\":3687:3690   */\n      dup3\n        /* \"#utility.yul\":3683:3695   */\n      add\n        /* \"#utility.yul\":3676:3695   */\n      swap2\n      pop\n        /* \"#utility.yul\":3712:3715   */\n      dup2\n        /* \"#utility.yul\":3705:3715   */\n      swap1\n      pop\n        /* \"#utility.yul\":3183:3721   */\n      swap5\n      swap4\n      pop\n      pop\n      pop\n      pop\n      jump\t// out\n\n    auxdata: 0xa26469706673582212200b314aebad1cf2352edee8b295e941a02ca2e045fd3c812392a402fb2f87c06264736f6c634300080f0033\n}\n",
				"bytecode": {
					"linkReferences": {},
					"object": "608060405234801561001057600080fd5b50336000806101000a81548173ffffffffffffffffffffffffffffffffffffffff021916908373ffffffffffffffffffffffffffffffffffffffff160217905550610961806100606000396000f3fe60806040526004361061009c5760003560e01c806385b4ba871161006457806385b4ba87146100f45780638da5cb5b146100fe578063b1ad305314610129578063e7120fd914610133578063e8d182121461013d578063f855aa9e146101475761009c565b80630b634788146100a157806329402ecb146100ab578063374ccd33146100b55780636f4c487a146100e0578063766f8578146100ea575b600080fd5b6100a9610170565b005b6100b36101f4565b005b3480156100c157600080fd5b506100ca610278565b6040516100d7919061070f565b60405180910390f35b6100e86102d9565b005b6100f261035d565b005b6100fc6103e1565b005b34801561010a57600080fd5b50610113610466565b604051610120919061076b565b60405180910390f35b61013161048a565b005b61013b61050e565b005b610145610592565b005b34801561015357600080fd5b5061016e600480360381019061016991906107b7565b6105ec565b005b6000602661017c6106c1565b6101869190610813565b905060038110156101f0573373ffffffffffffffffffffffffffffffffffffffff166108fc67a688906bd8b00000346101bf9190610873565b9081150290604051600060405180830381858888f193505050501580156101ea573d6000803e3d6000fd5b506101f1565b5b50565b600060266102006106c1565b61020a9190610813565b9050600c811015610274573373ffffffffffffffffffffffffffffffffffffffff166108fc6729a2241af62c0000346102439190610873565b9081150290604051600060405180830381858888f1935050505015801561026e573d6000803e3d6000fd5b50610275565b5b50565b60008060009054906101000a900473ffffffffffffffffffffffffffffffffffffffff1673ffffffffffffffffffffffffffffffffffffffff163373ffffffffffffffffffffffffffffffffffffffff16146102d357600080fd5b47905090565b600060266102e56106c1565b6102ef9190610813565b90506006811015610359573373ffffffffffffffffffffffffffffffffffffffff166108fc6753444835ec580000346103289190610873565b9081150290604051600060405180830381858888f19350505050158015610353573d6000803e3d6000fd5b5061035a565b5b50565b600060266103696106c1565b6103739190610813565b905060028110156103dd573373ffffffffffffffffffffffffffffffffffffffff166108fc67f9ccd8a1c5080000346103ac9190610873565b9081150290604051600060405180830381858888f193505050501580156103d7573d6000803e3d6000fd5b506103de565b5b50565b600060266103ed6106c1565b6103f79190610813565b90506001811015610462573373ffffffffffffffffffffffffffffffffffffffff166108fc6801f399b1438a100000346104319190610873565b9081150290604051600060405180830381858888f1935050505015801561045c573d6000803e3d6000fd5b50610463565b5b50565b60008054906101000a900473ffffffffffffffffffffffffffffffffffffffff1681565b600060266104966106c1565b6104a09190610813565b9050601281101561050a573273ffffffffffffffffffffffffffffffffffffffff166108fc671bc16d674ec80000346104d99190610873565b9081150290604051600060405180830381858888f19350505050158015610504573d6000803e3d6000fd5b5061050b565b5b50565b6000602661051a6106c1565b6105249190610813565b9050600481101561058e573373ffffffffffffffffffffffffffffffffffffffff166108fc677ce66c50e28400003461055d9190610873565b9081150290604051600060405180830381858888f19350505050158015610588573d6000803e3d6000fd5b5061058f565b5b50565b60008054906101000a900473ffffffffffffffffffffffffffffffffffffffff1673ffffffffffffffffffffffffffffffffffffffff163373ffffffffffffffffffffffffffffffffffffffff16146105ea57600080fd5b565b60008054906101000a900473ffffffffffffffffffffffffffffffffffffffff1673ffffffffffffffffffffffffffffffffffffffff163373ffffffffffffffffffffffffffffffffffffffff161461064457600080fd5b60008054906101000a900473ffffffffffffffffffffffffffffffffffffffff1673ffffffffffffffffffffffffffffffffffffffff166108fc670de0b6b3a7640000836106929190610873565b9081150290604051600060405180830381858888f193505050501580156106bd573d6000803e3d6000fd5b5050565b60004742446040516020016106d8939291906108ee565b6040516020818303038152906040528051906020012060001c905090565b6000819050919050565b610709816106f6565b82525050565b60006020820190506107246000830184610700565b92915050565b600073ffffffffffffffffffffffffffffffffffffffff82169050919050565b60006107558261072a565b9050919050565b6107658161074a565b82525050565b6000602082019050610780600083018461075c565b92915050565b600080fd5b610794816106f6565b811461079f57600080fd5b50565b6000813590506107b18161078b565b92915050565b6000602082840312156107cd576107cc610786565b5b60006107db848285016107a2565b91505092915050565b7f4e487b7100000000000000000000000000000000000000000000000000000000600052601260045260246000fd5b600061081e826106f6565b9150610829836106f6565b925082610839576108386107e4565b5b828206905092915050565b7f4e487b7100000000000000000000000000000000000000000000000000000000600052601160045260246000fd5b600061087e826106f6565b9150610889836106f6565b9250817fffffffffffffffffffffffffffffffffffffffffffffffffffffffffffffffff04831182151516156108c2576108c1610844565b5b828202905092915050565b6000819050919050565b6108e86108e3826106f6565b6108cd565b82525050565b60006108fa82866108d7565b60208201915061090a82856108d7565b60208201915061091a82846108d7565b60208201915081905094935050505056fea26469706673582212200b314aebad1cf2352edee8b295e941a02ca2e045fd3c812392a402fb2f87c06264736f6c634300080f0033",
					"opcodes": "PUSH1 0x80 PUSH1 0x40 MSTORE CALLVALUE DUP1 ISZERO PUSH2 0x10 JUMPI PUSH1 0x0 DUP1 REVERT JUMPDEST POP CALLER PUSH1 0x0 DUP1 PUSH2 0x100 EXP DUP2 SLOAD DUP2 PUSH20 0xFFFFFFFFFFFFFFFFFFFFFFFFFFFFFFFFFFFFFFFF MUL NOT AND SWAP1 DUP4 PUSH20 0xFFFFFFFFFFFFFFFFFFFFFFFFFFFFFFFFFFFFFFFF AND MUL OR SWAP1 SSTORE POP PUSH2 0x961 DUP1 PUSH2 0x60 PUSH1 0x0 CODECOPY PUSH1 0x0 RETURN INVALID PUSH1 0x80 PUSH1 0x40 MSTORE PUSH1 0x4 CALLDATASIZE LT PUSH2 0x9C JUMPI PUSH1 0x0 CALLDATALOAD PUSH1 0xE0 SHR DUP1 PUSH4 0x85B4BA87 GT PUSH2 0x64 JUMPI DUP1 PUSH4 0x85B4BA87 EQ PUSH2 0xF4 JUMPI DUP1 PUSH4 0x8DA5CB5B EQ PUSH2 0xFE JUMPI DUP1 PUSH4 0xB1AD3053 EQ PUSH2 0x129 JUMPI DUP1 PUSH4 0xE7120FD9 EQ PUSH2 0x133 JUMPI DUP1 PUSH4 0xE8D18212 EQ PUSH2 0x13D JUMPI DUP1 PUSH4 0xF855AA9E EQ PUSH2 0x147 JUMPI PUSH2 0x9C JUMP JUMPDEST DUP1 PUSH4 0xB634788 EQ PUSH2 0xA1 JUMPI DUP1 PUSH4 0x29402ECB EQ PUSH2 0xAB JUMPI DUP1 PUSH4 0x374CCD33 EQ PUSH2 0xB5 JUMPI DUP1 PUSH4 0x6F4C487A EQ PUSH2 0xE0 JUMPI DUP1 PUSH4 0x766F8578 EQ PUSH2 0xEA JUMPI JUMPDEST PUSH1 0x0 DUP1 REVERT JUMPDEST PUSH2 0xA9 PUSH2 0x170 JUMP JUMPDEST STOP JUMPDEST PUSH2 0xB3 PUSH2 0x1F4 JUMP JUMPDEST STOP JUMPDEST CALLVALUE DUP1 ISZERO PUSH2 0xC1 JUMPI PUSH1 0x0 DUP1 REVERT JUMPDEST POP PUSH2 0xCA PUSH2 0x278 JUMP JUMPDEST PUSH1 0x40 MLOAD PUSH2 0xD7 SWAP2 SWAP1 PUSH2 0x70F JUMP JUMPDEST PUSH1 0x40 MLOAD DUP1 SWAP2 SUB SWAP1 RETURN JUMPDEST PUSH2 0xE8 PUSH2 0x2D9 JUMP JUMPDEST STOP JUMPDEST PUSH2 0xF2 PUSH2 0x35D JUMP JUMPDEST STOP JUMPDEST PUSH2 0xFC PUSH2 0x3E1 JUMP JUMPDEST STOP JUMPDEST CALLVALUE DUP1 ISZERO PUSH2 0x10A JUMPI PUSH1 0x0 DUP1 REVERT JUMPDEST POP PUSH2 0x113 PUSH2 0x466 JUMP JUMPDEST PUSH1 0x40 MLOAD PUSH2 0x120 SWAP2 SWAP1 PUSH2 0x76B JUMP JUMPDEST PUSH1 0x40 MLOAD DUP1 SWAP2 SUB SWAP1 RETURN JUMPDEST PUSH2 0x131 PUSH2 0x48A JUMP JUMPDEST STOP JUMPDEST PUSH2 0x13B PUSH2 0x50E JUMP JUMPDEST STOP JUMPDEST PUSH2 0x145 PUSH2 0x592 JUMP JUMPDEST STOP JUMPDEST CALLVALUE DUP1 ISZERO PUSH2 0x153 JUMPI PUSH1 0x0 DUP1 REVERT JUMPDEST POP PUSH2 0x16E PUSH1 0x4 DUP1 CALLDATASIZE SUB DUP2 ADD SWAP1 PUSH2 0x169 SWAP2 SWAP1 PUSH2 0x7B7 JUMP JUMPDEST PUSH2 0x5EC JUMP JUMPDEST STOP JUMPDEST PUSH1 0x0 PUSH1 0x26 PUSH2 0x17C PUSH2 0x6C1 JUMP JUMPDEST PUSH2 0x186 SWAP2 SWAP1 PUSH2 0x813 JUMP JUMPDEST SWAP1 POP PUSH1 0x3 DUP2 LT ISZERO PUSH2 0x1F0 JUMPI CALLER PUSH20 0xFFFFFFFFFFFFFFFFFFFFFFFFFFFFFFFFFFFFFFFF AND PUSH2 0x8FC PUSH8 0xA688906BD8B00000 CALLVALUE PUSH2 0x1BF SWAP2 SWAP1 PUSH2 0x873 JUMP JUMPDEST SWAP1 DUP2 ISZERO MUL SWAP1 PUSH1 0x40 MLOAD PUSH1 0x0 PUSH1 0x40 MLOAD DUP1 DUP4 SUB DUP2 DUP6 DUP9 DUP9 CALL SWAP4 POP POP POP POP ISZERO DUP1 ISZERO PUSH2 0x1EA JUMPI RETURNDATASIZE PUSH1 0x0 DUP1 RETURNDATACOPY RETURNDATASIZE PUSH1 0x0 REVERT JUMPDEST POP PUSH2 0x1F1 JUMP JUMPDEST JUMPDEST POP JUMP JUMPDEST PUSH1 0x0 PUSH1 0x26 PUSH2 0x200 PUSH2 0x6C1 JUMP JUMPDEST PUSH2 0x20A SWAP2 SWAP1 PUSH2 0x813 JUMP JUMPDEST SWAP1 POP PUSH1 0xC DUP2 LT ISZERO PUSH2 0x274 JUMPI CALLER PUSH20 0xFFFFFFFFFFFFFFFFFFFFFFFFFFFFFFFFFFFFFFFF AND PUSH2 0x8FC PUSH8 0x29A2241AF62C0000 CALLVALUE PUSH2 0x243 SWAP2 SWAP1 PUSH2 0x873 JUMP JUMPDEST SWAP1 DUP2 ISZERO MUL SWAP1 PUSH1 0x40 MLOAD PUSH1 0x0 PUSH1 0x40 MLOAD DUP1 DUP4 SUB DUP2 DUP6 DUP9 DUP9 CALL SWAP4 POP POP POP POP ISZERO DUP1 ISZERO PUSH2 0x26E JUMPI RETURNDATASIZE PUSH1 0x0 DUP1 RETURNDATACOPY RETURNDATASIZE PUSH1 0x0 REVERT JUMPDEST POP PUSH2 0x275 JUMP JUMPDEST JUMPDEST POP JUMP JUMPDEST PUSH1 0x0 DUP1 PUSH1 0x0 SWAP1 SLOAD SWAP1 PUSH2 0x100 EXP SWAP1 DIV PUSH20 0xFFFFFFFFFFFFFFFFFFFFFFFFFFFFFFFFFFFFFFFF AND PUSH20 0xFFFFFFFFFFFFFFFFFFFFFFFFFFFFFFFFFFFFFFFF AND CALLER PUSH20 0xFFFFFFFFFFFFFFFFFFFFFFFFFFFFFFFFFFFFFFFF AND EQ PUSH2 0x2D3 JUMPI PUSH1 0x0 DUP1 REVERT JUMPDEST SELFBALANCE SWAP1 POP SWAP1 JUMP JUMPDEST PUSH1 0x0 PUSH1 0x26 PUSH2 0x2E5 PUSH2 0x6C1 JUMP JUMPDEST PUSH2 0x2EF SWAP2 SWAP1 PUSH2 0x813 JUMP JUMPDEST SWAP1 POP PUSH1 0x6 DUP2 LT ISZERO PUSH2 0x359 JUMPI CALLER PUSH20 0xFFFFFFFFFFFFFFFFFFFFFFFFFFFFFFFFFFFFFFFF AND PUSH2 0x8FC PUSH8 0x53444835EC580000 CALLVALUE PUSH2 0x328 SWAP2 SWAP1 PUSH2 0x873 JUMP JUMPDEST SWAP1 DUP2 ISZERO MUL SWAP1 PUSH1 0x40 MLOAD PUSH1 0x0 PUSH1 0x40 MLOAD DUP1 DUP4 SUB DUP2 DUP6 DUP9 DUP9 CALL SWAP4 POP POP POP POP ISZERO DUP1 ISZERO PUSH2 0x353 JUMPI RETURNDATASIZE PUSH1 0x0 DUP1 RETURNDATACOPY RETURNDATASIZE PUSH1 0x0 REVERT JUMPDEST POP PUSH2 0x35A JUMP JUMPDEST JUMPDEST POP JUMP JUMPDEST PUSH1 0x0 PUSH1 0x26 PUSH2 0x369 PUSH2 0x6C1 JUMP JUMPDEST PUSH2 0x373 SWAP2 SWAP1 PUSH2 0x813 JUMP JUMPDEST SWAP1 POP PUSH1 0x2 DUP2 LT ISZERO PUSH2 0x3DD JUMPI CALLER PUSH20 0xFFFFFFFFFFFFFFFFFFFFFFFFFFFFFFFFFFFFFFFF AND PUSH2 0x8FC PUSH8 0xF9CCD8A1C5080000 CALLVALUE PUSH2 0x3AC SWAP2 SWAP1 PUSH2 0x873 JUMP JUMPDEST SWAP1 DUP2 ISZERO MUL SWAP1 PUSH1 0x40 MLOAD PUSH1 0x0 PUSH1 0x40 MLOAD DUP1 DUP4 SUB DUP2 DUP6 DUP9 DUP9 CALL SWAP4 POP POP POP POP ISZERO DUP1 ISZERO PUSH2 0x3D7 JUMPI RETURNDATASIZE PUSH1 0x0 DUP1 RETURNDATACOPY RETURNDATASIZE PUSH1 0x0 REVERT JUMPDEST POP PUSH2 0x3DE JUMP JUMPDEST JUMPDEST POP JUMP JUMPDEST PUSH1 0x0 PUSH1 0x26 PUSH2 0x3ED PUSH2 0x6C1 JUMP JUMPDEST PUSH2 0x3F7 SWAP2 SWAP1 PUSH2 0x813 JUMP JUMPDEST SWAP1 POP PUSH1 0x1 DUP2 LT ISZERO PUSH2 0x462 JUMPI CALLER PUSH20 0xFFFFFFFFFFFFFFFFFFFFFFFFFFFFFFFFFFFFFFFF AND PUSH2 0x8FC PUSH9 0x1F399B1438A100000 CALLVALUE PUSH2 0x431 SWAP2 SWAP1 PUSH2 0x873 JUMP JUMPDEST SWAP1 DUP2 ISZERO MUL SWAP1 PUSH1 0x40 MLOAD PUSH1 0x0 PUSH1 0x40 MLOAD DUP1 DUP4 SUB DUP2 DUP6 DUP9 DUP9 CALL SWAP4 POP POP POP POP ISZERO DUP1 ISZERO PUSH2 0x45C JUMPI RETURNDATASIZE PUSH1 0x0 DUP1 RETURNDATACOPY RETURNDATASIZE PUSH1 0x0 REVERT JUMPDEST POP PUSH2 0x463 JUMP JUMPDEST JUMPDEST POP JUMP JUMPDEST PUSH1 0x0 DUP1 SLOAD SWAP1 PUSH2 0x100 EXP SWAP1 DIV PUSH20 0xFFFFFFFFFFFFFFFFFFFFFFFFFFFFFFFFFFFFFFFF AND DUP2 JUMP JUMPDEST PUSH1 0x0 PUSH1 0x26 PUSH2 0x496 PUSH2 0x6C1 JUMP JUMPDEST PUSH2 0x4A0 SWAP2 SWAP1 PUSH2 0x813 JUMP JUMPDEST SWAP1 POP PUSH1 0x12 DUP2 LT ISZERO PUSH2 0x50A JUMPI ORIGIN PUSH20 0xFFFFFFFFFFFFFFFFFFFFFFFFFFFFFFFFFFFFFFFF AND PUSH2 0x8FC PUSH8 0x1BC16D674EC80000 CALLVALUE PUSH2 0x4D9 SWAP2 SWAP1 PUSH2 0x873 JUMP JUMPDEST SWAP1 DUP2 ISZERO MUL SWAP1 PUSH1 0x40 MLOAD PUSH1 0x0 PUSH1 0x40 MLOAD DUP1 DUP4 SUB DUP2 DUP6 DUP9 DUP9 CALL SWAP4 POP POP POP POP ISZERO DUP1 ISZERO PUSH2 0x504 JUMPI RETURNDATASIZE PUSH1 0x0 DUP1 RETURNDATACOPY RETURNDATASIZE PUSH1 0x0 REVERT JUMPDEST POP PUSH2 0x50B JUMP JUMPDEST JUMPDEST POP JUMP JUMPDEST PUSH1 0x0 PUSH1 0x26 PUSH2 0x51A PUSH2 0x6C1 JUMP JUMPDEST PUSH2 0x524 SWAP2 SWAP1 PUSH2 0x813 JUMP JUMPDEST SWAP1 POP PUSH1 0x4 DUP2 LT ISZERO PUSH2 0x58E JUMPI CALLER PUSH20 0xFFFFFFFFFFFFFFFFFFFFFFFFFFFFFFFFFFFFFFFF AND PUSH2 0x8FC PUSH8 0x7CE66C50E2840000 CALLVALUE PUSH2 0x55D SWAP2 SWAP1 PUSH2 0x873 JUMP JUMPDEST SWAP1 DUP2 ISZERO MUL SWAP1 PUSH1 0x40 MLOAD PUSH1 0x0 PUSH1 0x40 MLOAD DUP1 DUP4 SUB DUP2 DUP6 DUP9 DUP9 CALL SWAP4 POP POP POP POP ISZERO DUP1 ISZERO PUSH2 0x588 JUMPI RETURNDATASIZE PUSH1 0x0 DUP1 RETURNDATACOPY RETURNDATASIZE PUSH1 0x0 REVERT JUMPDEST POP PUSH2 0x58F JUMP JUMPDEST JUMPDEST POP JUMP JUMPDEST PUSH1 0x0 DUP1 SLOAD SWAP1 PUSH2 0x100 EXP SWAP1 DIV PUSH20 0xFFFFFFFFFFFFFFFFFFFFFFFFFFFFFFFFFFFFFFFF AND PUSH20 0xFFFFFFFFFFFFFFFFFFFFFFFFFFFFFFFFFFFFFFFF AND CALLER PUSH20 0xFFFFFFFFFFFFFFFFFFFFFFFFFFFFFFFFFFFFFFFF AND EQ PUSH2 0x5EA JUMPI PUSH1 0x0 DUP1 REVERT JUMPDEST JUMP JUMPDEST PUSH1 0x0 DUP1 SLOAD SWAP1 PUSH2 0x100 EXP SWAP1 DIV PUSH20 0xFFFFFFFFFFFFFFFFFFFFFFFFFFFFFFFFFFFFFFFF AND PUSH20 0xFFFFFFFFFFFFFFFFFFFFFFFFFFFFFFFFFFFFFFFF AND CALLER PUSH20 0xFFFFFFFFFFFFFFFFFFFFFFFFFFFFFFFFFFFFFFFF AND EQ PUSH2 0x644 JUMPI PUSH1 0x0 DUP1 REVERT JUMPDEST PUSH1 0x0 DUP1 SLOAD SWAP1 PUSH2 0x100 EXP SWAP1 DIV PUSH20 0xFFFFFFFFFFFFFFFFFFFFFFFFFFFFFFFFFFFFFFFF AND PUSH20 0xFFFFFFFFFFFFFFFFFFFFFFFFFFFFFFFFFFFFFFFF AND PUSH2 0x8FC PUSH8 0xDE0B6B3A7640000 DUP4 PUSH2 0x692 SWAP2 SWAP1 PUSH2 0x873 JUMP JUMPDEST SWAP1 DUP2 ISZERO MUL SWAP1 PUSH1 0x40 MLOAD PUSH1 0x0 PUSH1 0x40 MLOAD DUP1 DUP4 SUB DUP2 DUP6 DUP9 DUP9 CALL SWAP4 POP POP POP POP ISZERO DUP1 ISZERO PUSH2 0x6BD JUMPI RETURNDATASIZE PUSH1 0x0 DUP1 RETURNDATACOPY RETURNDATASIZE PUSH1 0x0 REVERT JUMPDEST POP POP JUMP JUMPDEST PUSH1 0x0 SELFBALANCE TIMESTAMP DIFFICULTY PUSH1 0x40 MLOAD PUSH1 0x20 ADD PUSH2 0x6D8 SWAP4 SWAP3 SWAP2 SWAP1 PUSH2 0x8EE JUMP JUMPDEST PUSH1 0x40 MLOAD PUSH1 0x20 DUP2 DUP4 SUB SUB DUP2 MSTORE SWAP1 PUSH1 0x40 MSTORE DUP1 MLOAD SWAP1 PUSH1 0x20 ADD KECCAK256 PUSH1 0x0 SHR SWAP1 POP SWAP1 JUMP JUMPDEST PUSH1 0x0 DUP2 SWAP1 POP SWAP2 SWAP1 POP JUMP JUMPDEST PUSH2 0x709 DUP2 PUSH2 0x6F6 JUMP JUMPDEST DUP3 MSTORE POP POP JUMP JUMPDEST PUSH1 0x0 PUSH1 0x20 DUP3 ADD SWAP1 POP PUSH2 0x724 PUSH1 0x0 DUP4 ADD DUP5 PUSH2 0x700 JUMP JUMPDEST SWAP3 SWAP2 POP POP JUMP JUMPDEST PUSH1 0x0 PUSH20 0xFFFFFFFFFFFFFFFFFFFFFFFFFFFFFFFFFFFFFFFF DUP3 AND SWAP1 POP SWAP2 SWAP1 POP JUMP JUMPDEST PUSH1 0x0 PUSH2 0x755 DUP3 PUSH2 0x72A JUMP JUMPDEST SWAP1 POP SWAP2 SWAP1 POP JUMP JUMPDEST PUSH2 0x765 DUP2 PUSH2 0x74A JUMP JUMPDEST DUP3 MSTORE POP POP JUMP JUMPDEST PUSH1 0x0 PUSH1 0x20 DUP3 ADD SWAP1 POP PUSH2 0x780 PUSH1 0x0 DUP4 ADD DUP5 PUSH2 0x75C JUMP JUMPDEST SWAP3 SWAP2 POP POP JUMP JUMPDEST PUSH1 0x0 DUP1 REVERT JUMPDEST PUSH2 0x794 DUP2 PUSH2 0x6F6 JUMP JUMPDEST DUP2 EQ PUSH2 0x79F JUMPI PUSH1 0x0 DUP1 REVERT JUMPDEST POP JUMP JUMPDEST PUSH1 0x0 DUP2 CALLDATALOAD SWAP1 POP PUSH2 0x7B1 DUP2 PUSH2 0x78B JUMP JUMPDEST SWAP3 SWAP2 POP POP JUMP JUMPDEST PUSH1 0x0 PUSH1 0x20 DUP3 DUP5 SUB SLT ISZERO PUSH2 0x7CD JUMPI PUSH2 0x7CC PUSH2 0x786 JUMP JUMPDEST JUMPDEST PUSH1 0x0 PUSH2 0x7DB DUP5 DUP3 DUP6 ADD PUSH2 0x7A2 JUMP JUMPDEST SWAP2 POP POP SWAP3 SWAP2 POP POP JUMP JUMPDEST PUSH32 0x4E487B7100000000000000000000000000000000000000000000000000000000 PUSH1 0x0 MSTORE PUSH1 0x12 PUSH1 0x4 MSTORE PUSH1 0x24 PUSH1 0x0 REVERT JUMPDEST PUSH1 0x0 PUSH2 0x81E DUP3 PUSH2 0x6F6 JUMP JUMPDEST SWAP2 POP PUSH2 0x829 DUP4 PUSH2 0x6F6 JUMP JUMPDEST SWAP3 POP DUP3 PUSH2 0x839 JUMPI PUSH2 0x838 PUSH2 0x7E4 JUMP JUMPDEST JUMPDEST DUP3 DUP3 MOD SWAP1 POP SWAP3 SWAP2 POP POP JUMP JUMPDEST PUSH32 0x4E487B7100000000000000000000000000000000000000000000000000000000 PUSH1 0x0 MSTORE PUSH1 0x11 PUSH1 0x4 MSTORE PUSH1 0x24 PUSH1 0x0 REVERT JUMPDEST PUSH1 0x0 PUSH2 0x87E DUP3 PUSH2 0x6F6 JUMP JUMPDEST SWAP2 POP PUSH2 0x889 DUP4 PUSH2 0x6F6 JUMP JUMPDEST SWAP3 POP DUP2 PUSH32 0xFFFFFFFFFFFFFFFFFFFFFFFFFFFFFFFFFFFFFFFFFFFFFFFFFFFFFFFFFFFFFFFF DIV DUP4 GT DUP3 ISZERO ISZERO AND ISZERO PUSH2 0x8C2 JUMPI PUSH2 0x8C1 PUSH2 0x844 JUMP JUMPDEST JUMPDEST DUP3 DUP3 MUL SWAP1 POP SWAP3 SWAP2 POP POP JUMP JUMPDEST PUSH1 0x0 DUP2 SWAP1 POP SWAP2 SWAP1 POP JUMP JUMPDEST PUSH2 0x8E8 PUSH2 0x8E3 DUP3 PUSH2 0x6F6 JUMP JUMPDEST PUSH2 0x8CD JUMP JUMPDEST DUP3 MSTORE POP POP JUMP JUMPDEST PUSH1 0x0 PUSH2 0x8FA DUP3 DUP7 PUSH2 0x8D7 JUMP JUMPDEST PUSH1 0x20 DUP3 ADD SWAP2 POP PUSH2 0x90A DUP3 DUP6 PUSH2 0x8D7 JUMP JUMPDEST PUSH1 0x20 DUP3 ADD SWAP2 POP PUSH2 0x91A DUP3 DUP5 PUSH2 0x8D7 JUMP JUMPDEST PUSH1 0x20 DUP3 ADD SWAP2 POP DUP2 SWAP1 POP SWAP5 SWAP4 POP POP POP POP JUMP INVALID LOG2 PUSH5 0x6970667358 0x22 SLT KECCAK256 SIGNEXTEND BALANCE 0x4A 0xEB 0xAD SHR CALLCODE CALLDATALOAD 0x2E 0xDE 0xE8 0xB2 SWAP6 0xE9 COINBASE LOG0 0x2C LOG2 0xE0 GASLIMIT REVERT EXTCODECOPY DUP2 0x23 SWAP3 LOG4 MUL 0xFB 0x2F DUP8 0xC0 PUSH3 0x64736F PUSH13 0x634300080F0033000000000000 "
				},
				"gasEstimates": {
					"creation": {
						"codeDepositCost": "480200",
						"executionCost": "24784",
						"totalCost": "504984"
					},
					"external": {
						"A_oneToOne()": "infinite",
						"B_twoToOne()": "infinite",
						"C_fiveToOne()": "infinite",
						"D_eightToOne()": "infinite",
						"E_elevenToOne()": "infinite",
						"F_seventeenToOne()": "infinite",
						"G_thirtyfiveToOne()": "infinite",
						"H_deposit()": "2375",
						"I_withdraw(uint256)": "infinite",
						"J_getBalance()": "2554",
						"owner()": "2533"
					},
					"internal": {
						"getRandomNumber()": "infinite"
					}
				},
				"methodIdentifiers": {
					"A_oneToOne()": "b1ad3053",
					"B_twoToOne()": "29402ecb",
					"C_fiveToOne()": "6f4c487a",
					"D_eightToOne()": "e7120fd9",
					"E_elevenToOne()": "0b634788",
					"F_seventeenToOne()": "766f8578",
					"G_thirtyfiveToOne()": "85b4ba87",
					"H_deposit()": "e8d18212",
					"I_withdraw(uint256)": "f855aa9e",
					"J_getBalance()": "374ccd33",
					"owner()": "8da5cb5b"
				}
			},
			"storageLayout": {
				"storage": [
					{
						"astId": 3,
						"contract": "Documents/Web3/Casino/002 Roulette.sol:Roulette",
						"label": "owner",
						"offset": 0,
						"slot": "0",
						"type": "t_address_payable"
					}
				],
				"types": {
					"t_address_payable": {
						"encoding": "inplace",
						"label": "address payable",
						"numberOfBytes": "20"
					}
				}
			},
			"userdoc": {
				"kind": "user",
				"methods": {},
				"version": 1
			}
		}
	}
}