{
	"Documents/Web3/Casino/001 Lottery.sol": {
		"lottery": {
			"abi": [
				{
					"inputs": [],
					"stateMutability": "nonpayable",
					"type": "constructor"
				},
				{
					"inputs": [
						{
							"internalType": "uint256",
							"name": "amount",
							"type": "uint256"
						}
					],
					"name": "enter",
					"outputs": [],
					"stateMutability": "payable",
					"type": "function"
				},
				{
					"inputs": [],
					"name": "owner",
					"outputs": [
						{
							"internalType": "address",
							"name": "",
							"type": "address"
						}
					],
					"stateMutability": "view",
					"type": "function"
				},
				{
					"inputs": [
						{
							"internalType": "uint256",
							"name": "",
							"type": "uint256"
						}
					],
					"name": "playerEntries",
					"outputs": [
						{
							"internalType": "address payable",
							"name": "",
							"type": "address"
						}
					],
					"stateMutability": "view",
					"type": "function"
				}
			],
			"devdoc": {
				"kind": "dev",
				"methods": {},
				"version": 1
			},
			"evm": {
				"assembly": "    /* \"Documents/Web3/Casino/001 Lottery.sol\":65:503  contract lottery {... */\n  mstore(0x40, 0x80)\n    /* \"Documents/Web3/Casino/001 Lottery.sol\":194:243  constructor() {... */\n  callvalue\n  dup1\n  iszero\n  tag_1\n  jumpi\n  0x00\n  dup1\n  revert\ntag_1:\n  pop\n    /* \"Documents/Web3/Casino/001 Lottery.sol\":226:236  msg.sender */\n  caller\n    /* \"Documents/Web3/Casino/001 Lottery.sol\":218:223  owner */\n  0x00\n  dup1\n    /* \"Documents/Web3/Casino/001 Lottery.sol\":218:236  owner = msg.sender */\n  0x0100\n  exp\n  dup2\n  sload\n  dup2\n  0xffffffffffffffffffffffffffffffffffffffff\n  mul\n  not\n  and\n  swap1\n  dup4\n  0xffffffffffffffffffffffffffffffffffffffff\n  and\n  mul\n  or\n  swap1\n  sstore\n  pop\n    /* \"Documents/Web3/Casino/001 Lottery.sol\":65:503  contract lottery {... */\n  dataSize(sub_0)\n  dup1\n  dataOffset(sub_0)\n  0x00\n  codecopy\n  0x00\n  return\nstop\n\nsub_0: assembly {\n        /* \"Documents/Web3/Casino/001 Lottery.sol\":65:503  contract lottery {... */\n      mstore(0x40, 0x80)\n      jumpi(tag_1, lt(calldatasize, 0x04))\n      shr(0xe0, calldataload(0x00))\n      dup1\n      0x523b09d2\n      eq\n      tag_2\n      jumpi\n      dup1\n      0x8da5cb5b\n      eq\n      tag_3\n      jumpi\n      dup1\n      0xa59f3e0c\n      eq\n      tag_4\n      jumpi\n    tag_1:\n      0x00\n      dup1\n      revert\n        /* \"Documents/Web3/Casino/001 Lottery.sol\":131:169  address payable[] public playerEntries */\n    tag_2:\n      callvalue\n      dup1\n      iszero\n      tag_5\n      jumpi\n      0x00\n      dup1\n      revert\n    tag_5:\n      pop\n      tag_6\n      0x04\n      dup1\n      calldatasize\n      sub\n      dup2\n      add\n      swap1\n      tag_7\n      swap2\n      swap1\n      tag_8\n      jump\t// in\n    tag_7:\n      tag_9\n      jump\t// in\n    tag_6:\n      mload(0x40)\n      tag_10\n      swap2\n      swap1\n      tag_11\n      jump\t// in\n    tag_10:\n      mload(0x40)\n      dup1\n      swap2\n      sub\n      swap1\n      return\n        /* \"Documents/Web3/Casino/001 Lottery.sol\":105:125  address public owner */\n    tag_3:\n      callvalue\n      dup1\n      iszero\n      tag_12\n      jumpi\n      0x00\n      dup1\n      revert\n    tag_12:\n      pop\n      tag_13\n      tag_14\n      jump\t// in\n    tag_13:\n      mload(0x40)\n      tag_15\n      swap2\n      swap1\n      tag_16\n      jump\t// in\n    tag_15:\n      mload(0x40)\n      dup1\n      swap2\n      sub\n      swap1\n      return\n        /* \"Documents/Web3/Casino/001 Lottery.sol\":266:501  function enter(uint amount) public payable {... */\n    tag_4:\n      tag_17\n      0x04\n      dup1\n      calldatasize\n      sub\n      dup2\n      add\n      swap1\n      tag_18\n      swap2\n      swap1\n      tag_8\n      jump\t// in\n    tag_18:\n      tag_19\n      jump\t// in\n    tag_17:\n      stop\n        /* \"Documents/Web3/Casino/001 Lottery.sol\":131:169  address payable[] public playerEntries */\n    tag_9:\n      0x01\n      dup2\n      dup2\n      sload\n      dup2\n      lt\n      tag_20\n      jumpi\n      0x00\n      dup1\n      revert\n    tag_20:\n      swap1\n      0x00\n      mstore\n      keccak256(0x00, 0x20)\n      add\n      0x00\n      swap2\n      pop\n      sload\n      swap1\n      0x0100\n      exp\n      swap1\n      div\n      0xffffffffffffffffffffffffffffffffffffffff\n      and\n      dup2\n      jump\t// out\n        /* \"Documents/Web3/Casino/001 Lottery.sol\":105:125  address public owner */\n    tag_14:\n      0x00\n      dup1\n      sload\n      swap1\n      0x0100\n      exp\n      swap1\n      div\n      0xffffffffffffffffffffffffffffffffffffffff\n      and\n      dup2\n      jump\t// out\n        /* \"Documents/Web3/Casino/001 Lottery.sol\":266:501  function enter(uint amount) public payable {... */\n    tag_19:\n        /* \"Documents/Web3/Casino/001 Lottery.sol\":349:356  1 ether */\n      0x0de0b6b3a7640000\n        /* \"Documents/Web3/Casino/001 Lottery.sol\":340:346  amount */\n      dup2\n        /* \"Documents/Web3/Casino/001 Lottery.sol\":340:356  amount * 1 ether */\n      tag_23\n      swap2\n      swap1\n      tag_24\n      jump\t// in\n    tag_23:\n        /* \"Documents/Web3/Casino/001 Lottery.sol\":327:336  msg.value */\n      callvalue\n        /* \"Documents/Web3/Casino/001 Lottery.sol\":327:356  msg.value >= amount * 1 ether */\n      lt\n      iszero\n        /* \"Documents/Web3/Casino/001 Lottery.sol\":319:386  require(msg.value >= amount * 1 ether, \"Each entry costs 1 Ether.\") */\n      tag_25\n      jumpi\n      mload(0x40)\n      0x08c379a000000000000000000000000000000000000000000000000000000000\n      dup2\n      mstore\n      0x04\n      add\n      tag_26\n      swap1\n      tag_27\n      jump\t// in\n    tag_26:\n      mload(0x40)\n      dup1\n      swap2\n      sub\n      swap1\n      revert\n    tag_25:\n        /* \"Documents/Web3/Casino/001 Lottery.sol\":401:407  uint i */\n      0x00\n        /* \"Documents/Web3/Casino/001 Lottery.sol\":396:495  for (uint i = 0; i >= amount; i++) {... */\n    tag_28:\n        /* \"Documents/Web3/Casino/001 Lottery.sol\":418:424  amount */\n      dup2\n        /* \"Documents/Web3/Casino/001 Lottery.sol\":413:414  i */\n      dup2\n        /* \"Documents/Web3/Casino/001 Lottery.sol\":413:424  i >= amount */\n      lt\n        /* \"Documents/Web3/Casino/001 Lottery.sol\":396:495  for (uint i = 0; i >= amount; i++) {... */\n      tag_29\n      jumpi\n        /* \"Documents/Web3/Casino/001 Lottery.sol\":445:458  playerEntries */\n      0x01\n        /* \"Documents/Web3/Casino/001 Lottery.sol\":472:482  msg.sender */\n      caller\n        /* \"Documents/Web3/Casino/001 Lottery.sol\":445:484  playerEntries.push(payable(msg.sender)) */\n      swap1\n      dup1\n      0x01\n      dup2\n      sload\n      add\n      dup1\n      dup3\n      sstore\n      dup1\n      swap2\n      pop\n      pop\n      0x01\n      swap1\n      sub\n      swap1\n      0x00\n      mstore\n      keccak256(0x00, 0x20)\n      add\n      0x00\n      swap1\n      swap2\n      swap1\n      swap2\n      swap1\n      swap2\n      0x0100\n      exp\n      dup2\n      sload\n      dup2\n      0xffffffffffffffffffffffffffffffffffffffff\n      mul\n      not\n      and\n      swap1\n      dup4\n      0xffffffffffffffffffffffffffffffffffffffff\n      and\n      mul\n      or\n      swap1\n      sstore\n      pop\n        /* \"Documents/Web3/Casino/001 Lottery.sol\":426:429  i++ */\n      dup1\n      dup1\n      tag_32\n      swap1\n      tag_33\n      jump\t// in\n    tag_32:\n      swap2\n      pop\n      pop\n        /* \"Documents/Web3/Casino/001 Lottery.sol\":396:495  for (uint i = 0; i >= amount; i++) {... */\n      jump(tag_28)\n    tag_29:\n      pop\n        /* \"Documents/Web3/Casino/001 Lottery.sol\":266:501  function enter(uint amount) public payable {... */\n      pop\n      jump\t// out\n        /* \"#utility.yul\":88:205   */\n    tag_35:\n        /* \"#utility.yul\":197:198   */\n      0x00\n        /* \"#utility.yul\":194:195   */\n      dup1\n        /* \"#utility.yul\":187:199   */\n      revert\n        /* \"#utility.yul\":334:411   */\n    tag_37:\n        /* \"#utility.yul\":371:378   */\n      0x00\n        /* \"#utility.yul\":400:405   */\n      dup2\n        /* \"#utility.yul\":389:405   */\n      swap1\n      pop\n        /* \"#utility.yul\":334:411   */\n      swap2\n      swap1\n      pop\n      jump\t// out\n        /* \"#utility.yul\":417:539   */\n    tag_38:\n        /* \"#utility.yul\":490:514   */\n      tag_55\n        /* \"#utility.yul\":508:513   */\n      dup2\n        /* \"#utility.yul\":490:514   */\n      tag_37\n      jump\t// in\n    tag_55:\n        /* \"#utility.yul\":483:488   */\n      dup2\n        /* \"#utility.yul\":480:515   */\n      eq\n        /* \"#utility.yul\":470:533   */\n      tag_56\n      jumpi\n        /* \"#utility.yul\":529:530   */\n      0x00\n        /* \"#utility.yul\":526:527   */\n      dup1\n        /* \"#utility.yul\":519:531   */\n      revert\n        /* \"#utility.yul\":470:533   */\n    tag_56:\n        /* \"#utility.yul\":417:539   */\n      pop\n      jump\t// out\n        /* \"#utility.yul\":545:684   */\n    tag_39:\n        /* \"#utility.yul\":591:596   */\n      0x00\n        /* \"#utility.yul\":629:635   */\n      dup2\n        /* \"#utility.yul\":616:636   */\n      calldataload\n        /* \"#utility.yul\":607:636   */\n      swap1\n      pop\n        /* \"#utility.yul\":645:678   */\n      tag_58\n        /* \"#utility.yul\":672:677   */\n      dup2\n        /* \"#utility.yul\":645:678   */\n      tag_38\n      jump\t// in\n    tag_58:\n        /* \"#utility.yul\":545:684   */\n      swap3\n      swap2\n      pop\n      pop\n      jump\t// out\n        /* \"#utility.yul\":690:1019   */\n    tag_8:\n        /* \"#utility.yul\":749:755   */\n      0x00\n        /* \"#utility.yul\":798:800   */\n      0x20\n        /* \"#utility.yul\":786:795   */\n      dup3\n        /* \"#utility.yul\":777:784   */\n      dup5\n        /* \"#utility.yul\":773:796   */\n      sub\n        /* \"#utility.yul\":769:801   */\n      slt\n        /* \"#utility.yul\":766:885   */\n      iszero\n      tag_60\n      jumpi\n        /* \"#utility.yul\":804:883   */\n      tag_61\n      tag_35\n      jump\t// in\n    tag_61:\n        /* \"#utility.yul\":766:885   */\n    tag_60:\n        /* \"#utility.yul\":924:925   */\n      0x00\n        /* \"#utility.yul\":949:1002   */\n      tag_62\n        /* \"#utility.yul\":994:1001   */\n      dup5\n        /* \"#utility.yul\":985:991   */\n      dup3\n        /* \"#utility.yul\":974:983   */\n      dup6\n        /* \"#utility.yul\":970:992   */\n      add\n        /* \"#utility.yul\":949:1002   */\n      tag_39\n      jump\t// in\n    tag_62:\n        /* \"#utility.yul\":939:1002   */\n      swap2\n      pop\n        /* \"#utility.yul\":895:1012   */\n      pop\n        /* \"#utility.yul\":690:1019   */\n      swap3\n      swap2\n      pop\n      pop\n      jump\t// out\n        /* \"#utility.yul\":1025:1151   */\n    tag_40:\n        /* \"#utility.yul\":1062:1069   */\n      0x00\n        /* \"#utility.yul\":1102:1144   */\n      0xffffffffffffffffffffffffffffffffffffffff\n        /* \"#utility.yul\":1095:1100   */\n      dup3\n        /* \"#utility.yul\":1091:1145   */\n      and\n        /* \"#utility.yul\":1080:1145   */\n      swap1\n      pop\n        /* \"#utility.yul\":1025:1151   */\n      swap2\n      swap1\n      pop\n      jump\t// out\n        /* \"#utility.yul\":1157:1261   */\n    tag_41:\n        /* \"#utility.yul\":1202:1209   */\n      0x00\n        /* \"#utility.yul\":1231:1255   */\n      tag_65\n        /* \"#utility.yul\":1249:1254   */\n      dup3\n        /* \"#utility.yul\":1231:1255   */\n      tag_40\n      jump\t// in\n    tag_65:\n        /* \"#utility.yul\":1220:1255   */\n      swap1\n      pop\n        /* \"#utility.yul\":1157:1261   */\n      swap2\n      swap1\n      pop\n      jump\t// out\n        /* \"#utility.yul\":1267:1409   */\n    tag_42:\n        /* \"#utility.yul\":1370:1402   */\n      tag_67\n        /* \"#utility.yul\":1396:1401   */\n      dup2\n        /* \"#utility.yul\":1370:1402   */\n      tag_41\n      jump\t// in\n    tag_67:\n        /* \"#utility.yul\":1365:1368   */\n      dup3\n        /* \"#utility.yul\":1358:1403   */\n      mstore\n        /* \"#utility.yul\":1267:1409   */\n      pop\n      pop\n      jump\t// out\n        /* \"#utility.yul\":1415:1669   */\n    tag_11:\n        /* \"#utility.yul\":1524:1528   */\n      0x00\n        /* \"#utility.yul\":1562:1564   */\n      0x20\n        /* \"#utility.yul\":1551:1560   */\n      dup3\n        /* \"#utility.yul\":1547:1565   */\n      add\n        /* \"#utility.yul\":1539:1565   */\n      swap1\n      pop\n        /* \"#utility.yul\":1575:1662   */\n      tag_69\n        /* \"#utility.yul\":1659:1660   */\n      0x00\n        /* \"#utility.yul\":1648:1657   */\n      dup4\n        /* \"#utility.yul\":1644:1661   */\n      add\n        /* \"#utility.yul\":1635:1641   */\n      dup5\n        /* \"#utility.yul\":1575:1662   */\n      tag_42\n      jump\t// in\n    tag_69:\n        /* \"#utility.yul\":1415:1669   */\n      swap3\n      swap2\n      pop\n      pop\n      jump\t// out\n        /* \"#utility.yul\":1675:1771   */\n    tag_43:\n        /* \"#utility.yul\":1712:1719   */\n      0x00\n        /* \"#utility.yul\":1741:1765   */\n      tag_71\n        /* \"#utility.yul\":1759:1764   */\n      dup3\n        /* \"#utility.yul\":1741:1765   */\n      tag_40\n      jump\t// in\n    tag_71:\n        /* \"#utility.yul\":1730:1765   */\n      swap1\n      pop\n        /* \"#utility.yul\":1675:1771   */\n      swap2\n      swap1\n      pop\n      jump\t// out\n        /* \"#utility.yul\":1777:1895   */\n    tag_44:\n        /* \"#utility.yul\":1864:1888   */\n      tag_73\n        /* \"#utility.yul\":1882:1887   */\n      dup2\n        /* \"#utility.yul\":1864:1888   */\n      tag_43\n      jump\t// in\n    tag_73:\n        /* \"#utility.yul\":1859:1862   */\n      dup3\n        /* \"#utility.yul\":1852:1889   */\n      mstore\n        /* \"#utility.yul\":1777:1895   */\n      pop\n      pop\n      jump\t// out\n        /* \"#utility.yul\":1901:2123   */\n    tag_16:\n        /* \"#utility.yul\":1994:1998   */\n      0x00\n        /* \"#utility.yul\":2032:2034   */\n      0x20\n        /* \"#utility.yul\":2021:2030   */\n      dup3\n        /* \"#utility.yul\":2017:2035   */\n      add\n        /* \"#utility.yul\":2009:2035   */\n      swap1\n      pop\n        /* \"#utility.yul\":2045:2116   */\n      tag_75\n        /* \"#utility.yul\":2113:2114   */\n      0x00\n        /* \"#utility.yul\":2102:2111   */\n      dup4\n        /* \"#utility.yul\":2098:2115   */\n      add\n        /* \"#utility.yul\":2089:2095   */\n      dup5\n        /* \"#utility.yul\":2045:2116   */\n      tag_44\n      jump\t// in\n    tag_75:\n        /* \"#utility.yul\":1901:2123   */\n      swap3\n      swap2\n      pop\n      pop\n      jump\t// out\n        /* \"#utility.yul\":2129:2309   */\n    tag_45:\n        /* \"#utility.yul\":2177:2254   */\n      0x4e487b7100000000000000000000000000000000000000000000000000000000\n        /* \"#utility.yul\":2174:2175   */\n      0x00\n        /* \"#utility.yul\":2167:2255   */\n      mstore\n        /* \"#utility.yul\":2274:2278   */\n      0x11\n        /* \"#utility.yul\":2271:2272   */\n      0x04\n        /* \"#utility.yul\":2264:2279   */\n      mstore\n        /* \"#utility.yul\":2298:2302   */\n      0x24\n        /* \"#utility.yul\":2295:2296   */\n      0x00\n        /* \"#utility.yul\":2288:2303   */\n      revert\n        /* \"#utility.yul\":2315:2663   */\n    tag_24:\n        /* \"#utility.yul\":2355:2362   */\n      0x00\n        /* \"#utility.yul\":2378:2398   */\n      tag_78\n        /* \"#utility.yul\":2396:2397   */\n      dup3\n        /* \"#utility.yul\":2378:2398   */\n      tag_37\n      jump\t// in\n    tag_78:\n        /* \"#utility.yul\":2373:2398   */\n      swap2\n      pop\n        /* \"#utility.yul\":2412:2432   */\n      tag_79\n        /* \"#utility.yul\":2430:2431   */\n      dup4\n        /* \"#utility.yul\":2412:2432   */\n      tag_37\n      jump\t// in\n    tag_79:\n        /* \"#utility.yul\":2407:2432   */\n      swap3\n      pop\n        /* \"#utility.yul\":2600:2601   */\n      dup2\n        /* \"#utility.yul\":2532:2598   */\n      0xffffffffffffffffffffffffffffffffffffffffffffffffffffffffffffffff\n        /* \"#utility.yul\":2528:2602   */\n      div\n        /* \"#utility.yul\":2525:2526   */\n      dup4\n        /* \"#utility.yul\":2522:2603   */\n      gt\n        /* \"#utility.yul\":2517:2518   */\n      dup3\n        /* \"#utility.yul\":2510:2519   */\n      iszero\n        /* \"#utility.yul\":2503:2520   */\n      iszero\n        /* \"#utility.yul\":2499:2604   */\n      and\n        /* \"#utility.yul\":2496:2627   */\n      iszero\n      tag_80\n      jumpi\n        /* \"#utility.yul\":2607:2625   */\n      tag_81\n      tag_45\n      jump\t// in\n    tag_81:\n        /* \"#utility.yul\":2496:2627   */\n    tag_80:\n        /* \"#utility.yul\":2655:2656   */\n      dup3\n        /* \"#utility.yul\":2652:2653   */\n      dup3\n        /* \"#utility.yul\":2648:2657   */\n      mul\n        /* \"#utility.yul\":2637:2657   */\n      swap1\n      pop\n        /* \"#utility.yul\":2315:2663   */\n      swap3\n      swap2\n      pop\n      pop\n      jump\t// out\n        /* \"#utility.yul\":2669:2838   */\n    tag_46:\n        /* \"#utility.yul\":2753:2764   */\n      0x00\n        /* \"#utility.yul\":2787:2793   */\n      dup3\n        /* \"#utility.yul\":2782:2785   */\n      dup3\n        /* \"#utility.yul\":2775:2794   */\n      mstore\n        /* \"#utility.yul\":2827:2831   */\n      0x20\n        /* \"#utility.yul\":2822:2825   */\n      dup3\n        /* \"#utility.yul\":2818:2832   */\n      add\n        /* \"#utility.yul\":2803:2832   */\n      swap1\n      pop\n        /* \"#utility.yul\":2669:2838   */\n      swap3\n      swap2\n      pop\n      pop\n      jump\t// out\n        /* \"#utility.yul\":2844:3019   */\n    tag_47:\n        /* \"#utility.yul\":2984:3011   */\n      0x4561636820656e74727920636f73747320312045746865722e00000000000000\n        /* \"#utility.yul\":2980:2981   */\n      0x00\n        /* \"#utility.yul\":2972:2978   */\n      dup3\n        /* \"#utility.yul\":2968:2982   */\n      add\n        /* \"#utility.yul\":2961:3012   */\n      mstore\n        /* \"#utility.yul\":2844:3019   */\n      pop\n      jump\t// out\n        /* \"#utility.yul\":3025:3391   */\n    tag_48:\n        /* \"#utility.yul\":3167:3170   */\n      0x00\n        /* \"#utility.yul\":3188:3255   */\n      tag_85\n        /* \"#utility.yul\":3252:3254   */\n      0x19\n        /* \"#utility.yul\":3247:3250   */\n      dup4\n        /* \"#utility.yul\":3188:3255   */\n      tag_46\n      jump\t// in\n    tag_85:\n        /* \"#utility.yul\":3181:3255   */\n      swap2\n      pop\n        /* \"#utility.yul\":3264:3357   */\n      tag_86\n        /* \"#utility.yul\":3353:3356   */\n      dup3\n        /* \"#utility.yul\":3264:3357   */\n      tag_47\n      jump\t// in\n    tag_86:\n        /* \"#utility.yul\":3382:3384   */\n      0x20\n        /* \"#utility.yul\":3377:3380   */\n      dup3\n        /* \"#utility.yul\":3373:3385   */\n      add\n        /* \"#utility.yul\":3366:3385   */\n      swap1\n      pop\n        /* \"#utility.yul\":3025:3391   */\n      swap2\n      swap1\n      pop\n      jump\t// out\n        /* \"#utility.yul\":3397:3816   */\n    tag_27:\n        /* \"#utility.yul\":3563:3567   */\n      0x00\n        /* \"#utility.yul\":3601:3603   */\n      0x20\n        /* \"#utility.yul\":3590:3599   */\n      dup3\n        /* \"#utility.yul\":3586:3604   */\n      add\n        /* \"#utility.yul\":3578:3604   */\n      swap1\n      pop\n        /* \"#utility.yul\":3650:3659   */\n      dup2\n        /* \"#utility.yul\":3644:3648   */\n      dup2\n        /* \"#utility.yul\":3640:3660   */\n      sub\n        /* \"#utility.yul\":3636:3637   */\n      0x00\n        /* \"#utility.yul\":3625:3634   */\n      dup4\n        /* \"#utility.yul\":3621:3638   */\n      add\n        /* \"#utility.yul\":3614:3661   */\n      mstore\n        /* \"#utility.yul\":3678:3809   */\n      tag_88\n        /* \"#utility.yul\":3804:3808   */\n      dup2\n        /* \"#utility.yul\":3678:3809   */\n      tag_48\n      jump\t// in\n    tag_88:\n        /* \"#utility.yul\":3670:3809   */\n      swap1\n      pop\n        /* \"#utility.yul\":3397:3816   */\n      swap2\n      swap1\n      pop\n      jump\t// out\n        /* \"#utility.yul\":3822:4055   */\n    tag_33:\n        /* \"#utility.yul\":3861:3864   */\n      0x00\n        /* \"#utility.yul\":3884:3908   */\n      tag_90\n        /* \"#utility.yul\":3902:3907   */\n      dup3\n        /* \"#utility.yul\":3884:3908   */\n      tag_37\n      jump\t// in\n    tag_90:\n        /* \"#utility.yul\":3875:3908   */\n      swap2\n      pop\n        /* \"#utility.yul\":3930:3996   */\n      0xffffffffffffffffffffffffffffffffffffffffffffffffffffffffffffffff\n        /* \"#utility.yul\":3923:3928   */\n      dup3\n        /* \"#utility.yul\":3920:3997   */\n      eq\n        /* \"#utility.yul\":3917:4020   */\n      iszero\n      tag_91\n      jumpi\n        /* \"#utility.yul\":4000:4018   */\n      tag_92\n      tag_45\n      jump\t// in\n    tag_92:\n        /* \"#utility.yul\":3917:4020   */\n    tag_91:\n        /* \"#utility.yul\":4047:4048   */\n      0x01\n        /* \"#utility.yul\":4040:4045   */\n      dup3\n        /* \"#utility.yul\":4036:4049   */\n      add\n        /* \"#utility.yul\":4029:4049   */\n      swap1\n      pop\n        /* \"#utility.yul\":3822:4055   */\n      swap2\n      swap1\n      pop\n      jump\t// out\n\n    auxdata: 0xa2646970667358221220cb1b257d9bf759344ecc315c1a0192f852d48f71d894732b7da16f3210589c6d64736f6c634300080b0033\n}\n",
				"bytecode": {
					"linkReferences": {},
					"object": "608060405234801561001057600080fd5b50336000806101000a81548173ffffffffffffffffffffffffffffffffffffffff021916908373ffffffffffffffffffffffffffffffffffffffff16021790555061047f806100606000396000f3fe6080604052600436106100345760003560e01c8063523b09d2146100395780638da5cb5b14610076578063a59f3e0c146100a1575b600080fd5b34801561004557600080fd5b50610060600480360381019061005b9190610235565b6100bd565b60405161006d91906102a3565b60405180910390f35b34801561008257600080fd5b5061008b6100fc565b60405161009891906102df565b60405180910390f35b6100bb60048036038101906100b69190610235565b610120565b005b600181815481106100cd57600080fd5b906000526020600020016000915054906101000a900473ffffffffffffffffffffffffffffffffffffffff1681565b60008054906101000a900473ffffffffffffffffffffffffffffffffffffffff1681565b670de0b6b3a7640000816101349190610329565b341015610176576040517f08c379a000000000000000000000000000000000000000000000000000000000815260040161016d906103e0565b60405180910390fd5b60005b8181106101f6576001339080600181540180825580915050600190039060005260206000200160009091909190916101000a81548173ffffffffffffffffffffffffffffffffffffffff021916908373ffffffffffffffffffffffffffffffffffffffff16021790555080806101ee90610400565b915050610179565b5050565b600080fd5b6000819050919050565b610212816101ff565b811461021d57600080fd5b50565b60008135905061022f81610209565b92915050565b60006020828403121561024b5761024a6101fa565b5b600061025984828501610220565b91505092915050565b600073ffffffffffffffffffffffffffffffffffffffff82169050919050565b600061028d82610262565b9050919050565b61029d81610282565b82525050565b60006020820190506102b86000830184610294565b92915050565b60006102c982610262565b9050919050565b6102d9816102be565b82525050565b60006020820190506102f460008301846102d0565b92915050565b7f4e487b7100000000000000000000000000000000000000000000000000000000600052601160045260246000fd5b6000610334826101ff565b915061033f836101ff565b9250817fffffffffffffffffffffffffffffffffffffffffffffffffffffffffffffffff0483118215151615610378576103776102fa565b5b828202905092915050565b600082825260208201905092915050565b7f4561636820656e74727920636f73747320312045746865722e00000000000000600082015250565b60006103ca601983610383565b91506103d582610394565b602082019050919050565b600060208201905081810360008301526103f9816103bd565b9050919050565b600061040b826101ff565b91507fffffffffffffffffffffffffffffffffffffffffffffffffffffffffffffffff82141561043e5761043d6102fa565b5b60018201905091905056fea2646970667358221220cb1b257d9bf759344ecc315c1a0192f852d48f71d894732b7da16f3210589c6d64736f6c634300080b0033",
					"opcodes": "PUSH1 0x80 PUSH1 0x40 MSTORE CALLVALUE DUP1 ISZERO PUSH2 0x10 JUMPI PUSH1 0x0 DUP1 REVERT JUMPDEST POP CALLER PUSH1 0x0 DUP1 PUSH2 0x100 EXP DUP2 SLOAD DUP2 PUSH20 0xFFFFFFFFFFFFFFFFFFFFFFFFFFFFFFFFFFFFFFFF MUL NOT AND SWAP1 DUP4 PUSH20 0xFFFFFFFFFFFFFFFFFFFFFFFFFFFFFFFFFFFFFFFF AND MUL OR SWAP1 SSTORE POP PUSH2 0x47F DUP1 PUSH2 0x60 PUSH1 0x0 CODECOPY PUSH1 0x0 RETURN INVALID PUSH1 0x80 PUSH1 0x40 MSTORE PUSH1 0x4 CALLDATASIZE LT PUSH2 0x34 JUMPI PUSH1 0x0 CALLDATALOAD PUSH1 0xE0 SHR DUP1 PUSH4 0x523B09D2 EQ PUSH2 0x39 JUMPI DUP1 PUSH4 0x8DA5CB5B EQ PUSH2 0x76 JUMPI DUP1 PUSH4 0xA59F3E0C EQ PUSH2 0xA1 JUMPI JUMPDEST PUSH1 0x0 DUP1 REVERT JUMPDEST CALLVALUE DUP1 ISZERO PUSH2 0x45 JUMPI PUSH1 0x0 DUP1 REVERT JUMPDEST POP PUSH2 0x60 PUSH1 0x4 DUP1 CALLDATASIZE SUB DUP2 ADD SWAP1 PUSH2 0x5B SWAP2 SWAP1 PUSH2 0x235 JUMP JUMPDEST PUSH2 0xBD JUMP JUMPDEST PUSH1 0x40 MLOAD PUSH2 0x6D SWAP2 SWAP1 PUSH2 0x2A3 JUMP JUMPDEST PUSH1 0x40 MLOAD DUP1 SWAP2 SUB SWAP1 RETURN JUMPDEST CALLVALUE DUP1 ISZERO PUSH2 0x82 JUMPI PUSH1 0x0 DUP1 REVERT JUMPDEST POP PUSH2 0x8B PUSH2 0xFC JUMP JUMPDEST PUSH1 0x40 MLOAD PUSH2 0x98 SWAP2 SWAP1 PUSH2 0x2DF JUMP JUMPDEST PUSH1 0x40 MLOAD DUP1 SWAP2 SUB SWAP1 RETURN JUMPDEST PUSH2 0xBB PUSH1 0x4 DUP1 CALLDATASIZE SUB DUP2 ADD SWAP1 PUSH2 0xB6 SWAP2 SWAP1 PUSH2 0x235 JUMP JUMPDEST PUSH2 0x120 JUMP JUMPDEST STOP JUMPDEST PUSH1 0x1 DUP2 DUP2 SLOAD DUP2 LT PUSH2 0xCD JUMPI PUSH1 0x0 DUP1 REVERT JUMPDEST SWAP1 PUSH1 0x0 MSTORE PUSH1 0x20 PUSH1 0x0 KECCAK256 ADD PUSH1 0x0 SWAP2 POP SLOAD SWAP1 PUSH2 0x100 EXP SWAP1 DIV PUSH20 0xFFFFFFFFFFFFFFFFFFFFFFFFFFFFFFFFFFFFFFFF AND DUP2 JUMP JUMPDEST PUSH1 0x0 DUP1 SLOAD SWAP1 PUSH2 0x100 EXP SWAP1 DIV PUSH20 0xFFFFFFFFFFFFFFFFFFFFFFFFFFFFFFFFFFFFFFFF AND DUP2 JUMP JUMPDEST PUSH8 0xDE0B6B3A7640000 DUP2 PUSH2 0x134 SWAP2 SWAP1 PUSH2 0x329 JUMP JUMPDEST CALLVALUE LT ISZERO PUSH2 0x176 JUMPI PUSH1 0x40 MLOAD PUSH32 0x8C379A000000000000000000000000000000000000000000000000000000000 DUP2 MSTORE PUSH1 0x4 ADD PUSH2 0x16D SWAP1 PUSH2 0x3E0 JUMP JUMPDEST PUSH1 0x40 MLOAD DUP1 SWAP2 SUB SWAP1 REVERT JUMPDEST PUSH1 0x0 JUMPDEST DUP2 DUP2 LT PUSH2 0x1F6 JUMPI PUSH1 0x1 CALLER SWAP1 DUP1 PUSH1 0x1 DUP2 SLOAD ADD DUP1 DUP3 SSTORE DUP1 SWAP2 POP POP PUSH1 0x1 SWAP1 SUB SWAP1 PUSH1 0x0 MSTORE PUSH1 0x20 PUSH1 0x0 KECCAK256 ADD PUSH1 0x0 SWAP1 SWAP2 SWAP1 SWAP2 SWAP1 SWAP2 PUSH2 0x100 EXP DUP2 SLOAD DUP2 PUSH20 0xFFFFFFFFFFFFFFFFFFFFFFFFFFFFFFFFFFFFFFFF MUL NOT AND SWAP1 DUP4 PUSH20 0xFFFFFFFFFFFFFFFFFFFFFFFFFFFFFFFFFFFFFFFF AND MUL OR SWAP1 SSTORE POP DUP1 DUP1 PUSH2 0x1EE SWAP1 PUSH2 0x400 JUMP JUMPDEST SWAP2 POP POP PUSH2 0x179 JUMP JUMPDEST POP POP JUMP JUMPDEST PUSH1 0x0 DUP1 REVERT JUMPDEST PUSH1 0x0 DUP2 SWAP1 POP SWAP2 SWAP1 POP JUMP JUMPDEST PUSH2 0x212 DUP2 PUSH2 0x1FF JUMP JUMPDEST DUP2 EQ PUSH2 0x21D JUMPI PUSH1 0x0 DUP1 REVERT JUMPDEST POP JUMP JUMPDEST PUSH1 0x0 DUP2 CALLDATALOAD SWAP1 POP PUSH2 0x22F DUP2 PUSH2 0x209 JUMP JUMPDEST SWAP3 SWAP2 POP POP JUMP JUMPDEST PUSH1 0x0 PUSH1 0x20 DUP3 DUP5 SUB SLT ISZERO PUSH2 0x24B JUMPI PUSH2 0x24A PUSH2 0x1FA JUMP JUMPDEST JUMPDEST PUSH1 0x0 PUSH2 0x259 DUP5 DUP3 DUP6 ADD PUSH2 0x220 JUMP JUMPDEST SWAP2 POP POP SWAP3 SWAP2 POP POP JUMP JUMPDEST PUSH1 0x0 PUSH20 0xFFFFFFFFFFFFFFFFFFFFFFFFFFFFFFFFFFFFFFFF DUP3 AND SWAP1 POP SWAP2 SWAP1 POP JUMP JUMPDEST PUSH1 0x0 PUSH2 0x28D DUP3 PUSH2 0x262 JUMP JUMPDEST SWAP1 POP SWAP2 SWAP1 POP JUMP JUMPDEST PUSH2 0x29D DUP2 PUSH2 0x282 JUMP JUMPDEST DUP3 MSTORE POP POP JUMP JUMPDEST PUSH1 0x0 PUSH1 0x20 DUP3 ADD SWAP1 POP PUSH2 0x2B8 PUSH1 0x0 DUP4 ADD DUP5 PUSH2 0x294 JUMP JUMPDEST SWAP3 SWAP2 POP POP JUMP JUMPDEST PUSH1 0x0 PUSH2 0x2C9 DUP3 PUSH2 0x262 JUMP JUMPDEST SWAP1 POP SWAP2 SWAP1 POP JUMP JUMPDEST PUSH2 0x2D9 DUP2 PUSH2 0x2BE JUMP JUMPDEST DUP3 MSTORE POP POP JUMP JUMPDEST PUSH1 0x0 PUSH1 0x20 DUP3 ADD SWAP1 POP PUSH2 0x2F4 PUSH1 0x0 DUP4 ADD DUP5 PUSH2 0x2D0 JUMP JUMPDEST SWAP3 SWAP2 POP POP JUMP JUMPDEST PUSH32 0x4E487B7100000000000000000000000000000000000000000000000000000000 PUSH1 0x0 MSTORE PUSH1 0x11 PUSH1 0x4 MSTORE PUSH1 0x24 PUSH1 0x0 REVERT JUMPDEST PUSH1 0x0 PUSH2 0x334 DUP3 PUSH2 0x1FF JUMP JUMPDEST SWAP2 POP PUSH2 0x33F DUP4 PUSH2 0x1FF JUMP JUMPDEST SWAP3 POP DUP2 PUSH32 0xFFFFFFFFFFFFFFFFFFFFFFFFFFFFFFFFFFFFFFFFFFFFFFFFFFFFFFFFFFFFFFFF DIV DUP4 GT DUP3 ISZERO ISZERO AND ISZERO PUSH2 0x378 JUMPI PUSH2 0x377 PUSH2 0x2FA JUMP JUMPDEST JUMPDEST DUP3 DUP3 MUL SWAP1 POP SWAP3 SWAP2 POP POP JUMP JUMPDEST PUSH1 0x0 DUP3 DUP3 MSTORE PUSH1 0x20 DUP3 ADD SWAP1 POP SWAP3 SWAP2 POP POP JUMP JUMPDEST PUSH32 0x4561636820656E74727920636F73747320312045746865722E00000000000000 PUSH1 0x0 DUP3 ADD MSTORE POP JUMP JUMPDEST PUSH1 0x0 PUSH2 0x3CA PUSH1 0x19 DUP4 PUSH2 0x383 JUMP JUMPDEST SWAP2 POP PUSH2 0x3D5 DUP3 PUSH2 0x394 JUMP JUMPDEST PUSH1 0x20 DUP3 ADD SWAP1 POP SWAP2 SWAP1 POP JUMP JUMPDEST PUSH1 0x0 PUSH1 0x20 DUP3 ADD SWAP1 POP DUP2 DUP2 SUB PUSH1 0x0 DUP4 ADD MSTORE PUSH2 0x3F9 DUP2 PUSH2 0x3BD JUMP JUMPDEST SWAP1 POP SWAP2 SWAP1 POP JUMP JUMPDEST PUSH1 0x0 PUSH2 0x40B DUP3 PUSH2 0x1FF JUMP JUMPDEST SWAP2 POP PUSH32 0xFFFFFFFFFFFFFFFFFFFFFFFFFFFFFFFFFFFFFFFFFFFFFFFFFFFFFFFFFFFFFFFF DUP3 EQ ISZERO PUSH2 0x43E JUMPI PUSH2 0x43D PUSH2 0x2FA JUMP JUMPDEST JUMPDEST PUSH1 0x1 DUP3 ADD SWAP1 POP SWAP2 SWAP1 POP JUMP INVALID LOG2 PUSH5 0x6970667358 0x22 SLT KECCAK256 0xCB SHL 0x25 PUSH30 0x9BF759344ECC315C1A0192F852D48F71D894732B7DA16F3210589C6D6473 PUSH16 0x6C634300080B00330000000000000000 "
				},
				"gasEstimates": {
					"creation": {
						"codeDepositCost": "230200",
						"executionCost": "24535",
						"totalCost": "254735"
					},
					"external": {
						"enter(uint256)": "infinite",
						"owner()": "2511",
						"playerEntries(uint256)": "4934"
					}
				},
				"methodIdentifiers": {
					"enter(uint256)": "a59f3e0c",
					"owner()": "8da5cb5b",
					"playerEntries(uint256)": "523b09d2"
				}
			},
			"storageLayout": {
				"storage": [
					{
						"astId": 3,
						"contract": "Documents/Web3/Casino/001 Lottery.sol:lottery",
						"label": "owner",
						"offset": 0,
						"slot": "0",
						"type": "t_address"
					},
					{
						"astId": 6,
						"contract": "Documents/Web3/Casino/001 Lottery.sol:lottery",
						"label": "playerEntries",
						"offset": 0,
						"slot": "1",
						"type": "t_array(t_address_payable)dyn_storage"
					}
				],
				"types": {
					"t_address": {
						"encoding": "inplace",
						"label": "address",
						"numberOfBytes": "20"
					},
					"t_address_payable": {
						"encoding": "inplace",
						"label": "address payable",
						"numberOfBytes": "20"
					},
					"t_array(t_address_payable)dyn_storage": {
						"base": "t_address_payable",
						"encoding": "dynamic_array",
						"label": "address payable[]",
						"numberOfBytes": "32"
					}
				}
			},
			"userdoc": {
				"kind": "user",
				"methods": {},
				"version": 1
			}
		}
	}
}