{
	"Documents/Web3/Casino/002 Roulette.sol": {
		"Roulette": {
			"abi": [
				{
					"inputs": [],
					"stateMutability": "nonpayable",
					"type": "constructor"
				},
				{
					"inputs": [],
					"name": "AAA_test",
					"outputs": [
						{
							"internalType": "uint256",
							"name": "",
							"type": "uint256"
						}
					],
					"stateMutability": "payable",
					"type": "function"
				},
				{
					"inputs": [
						{
							"internalType": "uint256",
							"name": "bet",
							"type": "uint256"
						}
					],
					"name": "A_oneToOne",
					"outputs": [],
					"stateMutability": "payable",
					"type": "function"
				},
				{
					"inputs": [
						{
							"internalType": "uint256",
							"name": "bet",
							"type": "uint256"
						}
					],
					"name": "B_twoToOne",
					"outputs": [],
					"stateMutability": "payable",
					"type": "function"
				},
				{
					"inputs": [
						{
							"internalType": "uint256",
							"name": "bet",
							"type": "uint256"
						}
					],
					"name": "C_fiveToOne",
					"outputs": [],
					"stateMutability": "payable",
					"type": "function"
				},
				{
					"inputs": [
						{
							"internalType": "uint256",
							"name": "bet",
							"type": "uint256"
						}
					],
					"name": "D_eightToOne",
					"outputs": [],
					"stateMutability": "payable",
					"type": "function"
				},
				{
					"inputs": [
						{
							"internalType": "uint256",
							"name": "bet",
							"type": "uint256"
						}
					],
					"name": "E_elevenToOne",
					"outputs": [],
					"stateMutability": "payable",
					"type": "function"
				},
				{
					"inputs": [
						{
							"internalType": "uint256",
							"name": "bet",
							"type": "uint256"
						}
					],
					"name": "F_seventeenToOne",
					"outputs": [],
					"stateMutability": "payable",
					"type": "function"
				},
				{
					"inputs": [
						{
							"internalType": "uint256",
							"name": "bet",
							"type": "uint256"
						}
					],
					"name": "G_thirtyfiveToOne",
					"outputs": [],
					"stateMutability": "payable",
					"type": "function"
				},
				{
					"inputs": [],
					"name": "H_deposit",
					"outputs": [],
					"stateMutability": "payable",
					"type": "function"
				},
				{
					"inputs": [
						{
							"internalType": "uint256",
							"name": "amount",
							"type": "uint256"
						}
					],
					"name": "I_withdraw",
					"outputs": [],
					"stateMutability": "nonpayable",
					"type": "function"
				},
				{
					"inputs": [],
					"name": "J_getBalance",
					"outputs": [
						{
							"internalType": "uint256",
							"name": "",
							"type": "uint256"
						}
					],
					"stateMutability": "view",
					"type": "function"
				},
				{
					"inputs": [],
					"name": "owner",
					"outputs": [
						{
							"internalType": "address payable",
							"name": "",
							"type": "address"
						}
					],
					"stateMutability": "view",
					"type": "function"
				},
				{
					"inputs": [],
					"name": "player",
					"outputs": [
						{
							"internalType": "address payable",
							"name": "",
							"type": "address"
						}
					],
					"stateMutability": "view",
					"type": "function"
				}
			],
			"devdoc": {
				"kind": "dev",
				"methods": {},
				"version": 1
			},
			"evm": {
				"assembly": "    /* \"Documents/Web3/Casino/002 Roulette.sol\":547:3797  contract Roulette {... */\n  mstore(0x40, 0x80)\n    /* \"Documents/Web3/Casino/002 Roulette.sol\":674:732  constructor() {... */\n  callvalue\n  dup1\n  iszero\n  tag_1\n  jumpi\n  0x00\n  dup1\n  revert\ntag_1:\n  pop\n    /* \"Documents/Web3/Casino/002 Roulette.sol\":714:724  msg.sender */\n  caller\n    /* \"Documents/Web3/Casino/002 Roulette.sol\":698:703  owner */\n  0x00\n  dup1\n    /* \"Documents/Web3/Casino/002 Roulette.sol\":698:725  owner = payable(msg.sender) */\n  0x0100\n  exp\n  dup2\n  sload\n  dup2\n  0xffffffffffffffffffffffffffffffffffffffff\n  mul\n  not\n  and\n  swap1\n  dup4\n  0xffffffffffffffffffffffffffffffffffffffff\n  and\n  mul\n  or\n  swap1\n  sstore\n  pop\n    /* \"Documents/Web3/Casino/002 Roulette.sol\":547:3797  contract Roulette {... */\n  dataSize(sub_0)\n  dup1\n  dataOffset(sub_0)\n  0x00\n  codecopy\n  0x00\n  return\nstop\n\nsub_0: assembly {\n        /* \"Documents/Web3/Casino/002 Roulette.sol\":547:3797  contract Roulette {... */\n      mstore(0x40, 0x80)\n      jumpi(tag_1, lt(calldatasize, 0x04))\n      shr(0xe0, calldataload(0x00))\n      dup1\n      0x6689c33a\n      gt\n      tag_15\n      jumpi\n      dup1\n      0xbed2e0c3\n      gt\n      tag_16\n      jumpi\n      dup1\n      0xbed2e0c3\n      eq\n      tag_11\n      jumpi\n      dup1\n      0xe8d18212\n      eq\n      tag_12\n      jumpi\n      dup1\n      0xf855aa9e\n      eq\n      tag_13\n      jumpi\n      dup1\n      0xff65d090\n      eq\n      tag_14\n      jumpi\n      jump(tag_1)\n    tag_16:\n      dup1\n      0x6689c33a\n      eq\n      tag_8\n      jumpi\n      dup1\n      0x8da5cb5b\n      eq\n      tag_9\n      jumpi\n      dup1\n      0x8fb17973\n      eq\n      tag_10\n      jumpi\n      jump(tag_1)\n    tag_15:\n      dup1\n      0x07d0394c\n      eq\n      tag_2\n      jumpi\n      dup1\n      0x14fbb92b\n      eq\n      tag_3\n      jumpi\n      dup1\n      0x1640e34e\n      eq\n      tag_4\n      jumpi\n      dup1\n      0x374ccd33\n      eq\n      tag_5\n      jumpi\n      dup1\n      0x48db5f89\n      eq\n      tag_6\n      jumpi\n      dup1\n      0x4eca8772\n      eq\n      tag_7\n      jumpi\n    tag_1:\n      0x00\n      dup1\n      revert\n        /* \"Documents/Web3/Casino/002 Roulette.sol\":2874:3143  function F_seventeenToOne(uint bet) payable public {... */\n    tag_2:\n      tag_17\n      0x04\n      dup1\n      calldatasize\n      sub\n      dup2\n      add\n      swap1\n      tag_18\n      swap2\n      swap1\n      tag_19\n      jump\t// in\n    tag_18:\n      tag_20\n      jump\t// in\n    tag_17:\n      stop\n        /* \"Documents/Web3/Casino/002 Roulette.sol\":2063:2326  function C_fiveToOne(uint bet) payable public {... */\n    tag_3:\n      tag_21\n      0x04\n      dup1\n      calldatasize\n      sub\n      dup2\n      add\n      swap1\n      tag_22\n      swap2\n      swap1\n      tag_19\n      jump\t// in\n    tag_22:\n      tag_23\n      jump\t// in\n    tag_21:\n      stop\n        /* \"Documents/Web3/Casino/002 Roulette.sol\":1525:1788  function A_oneToOne(uint bet) payable public {... */\n    tag_4:\n      tag_24\n      0x04\n      dup1\n      calldatasize\n      sub\n      dup2\n      add\n      swap1\n      tag_25\n      swap2\n      swap1\n      tag_19\n      jump\t// in\n    tag_25:\n      tag_26\n      jump\t// in\n    tag_24:\n      stop\n        /* \"Documents/Web3/Casino/002 Roulette.sol\":3682:3790  function J_getBalance() public view onlyOwner() returns (uint) {... */\n    tag_5:\n      callvalue\n      dup1\n      iszero\n      tag_27\n      jumpi\n      0x00\n      dup1\n      revert\n    tag_27:\n      pop\n      tag_28\n      tag_29\n      jump\t// in\n    tag_28:\n      mload(0x40)\n      tag_30\n      swap2\n      swap1\n      tag_31\n      jump\t// in\n    tag_30:\n      mload(0x40)\n      dup1\n      swap2\n      sub\n      swap1\n      return\n        /* \"Documents/Web3/Casino/002 Roulette.sol\":606:635  address payable public player */\n    tag_6:\n      callvalue\n      dup1\n      iszero\n      tag_32\n      jumpi\n      0x00\n      dup1\n      revert\n    tag_32:\n      pop\n      tag_33\n      tag_34\n      jump\t// in\n    tag_33:\n      mload(0x40)\n      tag_35\n      swap2\n      swap1\n      tag_36\n      jump\t// in\n    tag_35:\n      mload(0x40)\n      dup1\n      swap2\n      sub\n      swap1\n      return\n        /* \"Documents/Web3/Casino/002 Roulette.sol\":1794:2057  function B_twoToOne(uint bet) payable public {... */\n    tag_7:\n      tag_37\n      0x04\n      dup1\n      calldatasize\n      sub\n      dup2\n      add\n      swap1\n      tag_38\n      swap2\n      swap1\n      tag_19\n      jump\t// in\n    tag_38:\n      tag_39\n      jump\t// in\n    tag_37:\n      stop\n        /* \"Documents/Web3/Casino/002 Roulette.sol\":1406:1519  function AAA_test() payable public returns (uint) {... */\n    tag_8:\n      tag_40\n      tag_41\n      jump\t// in\n    tag_40:\n      mload(0x40)\n      tag_42\n      swap2\n      swap1\n      tag_31\n      jump\t// in\n    tag_42:\n      mload(0x40)\n      dup1\n      swap2\n      sub\n      swap1\n      return\n        /* \"Documents/Web3/Casino/002 Roulette.sol\":572:600  address payable public owner */\n    tag_9:\n      callvalue\n      dup1\n      iszero\n      tag_43\n      jumpi\n      0x00\n      dup1\n      revert\n    tag_43:\n      pop\n      tag_44\n      tag_45\n      jump\t// in\n    tag_44:\n      mload(0x40)\n      tag_46\n      swap2\n      swap1\n      tag_36\n      jump\t// in\n    tag_46:\n      mload(0x40)\n      dup1\n      swap2\n      sub\n      swap1\n      return\n        /* \"Documents/Web3/Casino/002 Roulette.sol\":2332:2596  function D_eightToOne(uint bet) payable public {... */\n    tag_10:\n      tag_47\n      0x04\n      dup1\n      calldatasize\n      sub\n      dup2\n      add\n      swap1\n      tag_48\n      swap2\n      swap1\n      tag_19\n      jump\t// in\n    tag_48:\n      tag_49\n      jump\t// in\n    tag_47:\n      stop\n        /* \"Documents/Web3/Casino/002 Roulette.sol\":3149:3419  function G_thirtyfiveToOne(uint bet) payable public {... */\n    tag_11:\n      tag_50\n      0x04\n      dup1\n      calldatasize\n      sub\n      dup2\n      add\n      swap1\n      tag_51\n      swap2\n      swap1\n      tag_19\n      jump\t// in\n    tag_51:\n      tag_52\n      jump\t// in\n    tag_50:\n      stop\n        /* \"Documents/Web3/Casino/002 Roulette.sol\":3469:3519  function H_deposit() payable public onlyOwner() {} */\n    tag_12:\n      tag_53\n      tag_54\n      jump\t// in\n    tag_53:\n      stop\n        /* \"Documents/Web3/Casino/002 Roulette.sol\":3525:3626  function I_withdraw(uint amount) public onlyOwner() {... */\n    tag_13:\n      callvalue\n      dup1\n      iszero\n      tag_55\n      jumpi\n      0x00\n      dup1\n      revert\n    tag_55:\n      pop\n      tag_56\n      0x04\n      dup1\n      calldatasize\n      sub\n      dup2\n      add\n      swap1\n      tag_57\n      swap2\n      swap1\n      tag_19\n      jump\t// in\n    tag_57:\n      tag_58\n      jump\t// in\n    tag_56:\n      stop\n        /* \"Documents/Web3/Casino/002 Roulette.sol\":2602:2868  function E_elevenToOne(uint bet) payable public {... */\n    tag_14:\n      tag_59\n      0x04\n      dup1\n      calldatasize\n      sub\n      dup2\n      add\n      swap1\n      tag_60\n      swap2\n      swap1\n      tag_19\n      jump\t// in\n    tag_60:\n      tag_61\n      jump\t// in\n    tag_59:\n      stop\n        /* \"Documents/Web3/Casino/002 Roulette.sol\":2874:3143  function F_seventeenToOne(uint bet) payable public {... */\n    tag_20:\n        /* \"Documents/Web3/Casino/002 Roulette.sol\":2962:2969  1 ether */\n      0x0de0b6b3a7640000\n        /* \"Documents/Web3/Casino/002 Roulette.sol\":2956:2959  bet */\n      dup2\n        /* \"Documents/Web3/Casino/002 Roulette.sol\":2956:2969  bet * 1 ether */\n      tag_63\n      swap2\n      swap1\n      tag_64\n      jump\t// in\n    tag_63:\n        /* \"Documents/Web3/Casino/002 Roulette.sol\":2943:2952  msg.value */\n      callvalue\n        /* \"Documents/Web3/Casino/002 Roulette.sol\":2943:2969  msg.value == bet * 1 ether */\n      eq\n        /* \"Documents/Web3/Casino/002 Roulette.sol\":2935:2970  require(msg.value == bet * 1 ether) */\n      tag_65\n      jumpi\n      0x00\n      dup1\n      revert\n    tag_65:\n        /* \"Documents/Web3/Casino/002 Roulette.sol\":2980:2996  uint determinant */\n      0x00\n        /* \"Documents/Web3/Casino/002 Roulette.sol\":3019:3021  38 */\n      0x26\n        /* \"Documents/Web3/Casino/002 Roulette.sol\":2999:3016  getRandomNumber() */\n      tag_66\n        /* \"Documents/Web3/Casino/002 Roulette.sol\":2999:3014  getRandomNumber */\n      tag_67\n        /* \"Documents/Web3/Casino/002 Roulette.sol\":2999:3016  getRandomNumber() */\n      jump\t// in\n    tag_66:\n        /* \"Documents/Web3/Casino/002 Roulette.sol\":2999:3021  getRandomNumber() % 38 */\n      tag_68\n      swap2\n      swap1\n      tag_69\n      jump\t// in\n    tag_68:\n        /* \"Documents/Web3/Casino/002 Roulette.sol\":2980:3021  uint determinant = getRandomNumber() % 38 */\n      swap1\n      pop\n        /* \"Documents/Web3/Casino/002 Roulette.sol\":3049:3050  2 */\n      0x02\n        /* \"Documents/Web3/Casino/002 Roulette.sol\":3035:3046  determinant */\n      dup2\n        /* \"Documents/Web3/Casino/002 Roulette.sol\":3035:3050  determinant < 2 */\n      lt\n        /* \"Documents/Web3/Casino/002 Roulette.sol\":3031:3137  if (determinant < 2) {... */\n      iszero\n      tag_70\n      jumpi\n        /* \"Documents/Web3/Casino/002 Roulette.sol\":3074:3084  msg.sender */\n      caller\n        /* \"Documents/Web3/Casino/002 Roulette.sol\":3066:3094  payable(msg.sender).transfer */\n      0xffffffffffffffffffffffffffffffffffffffff\n      and\n        /* \"Documents/Web3/Casino/002 Roulette.sol\":3066:3110  payable(msg.sender).transfer(bet * 18 ether) */\n      0x08fc\n        /* \"Documents/Web3/Casino/002 Roulette.sol\":3101:3109  18 ether */\n      0xf9ccd8a1c5080000\n        /* \"Documents/Web3/Casino/002 Roulette.sol\":3095:3098  bet */\n      dup5\n        /* \"Documents/Web3/Casino/002 Roulette.sol\":3095:3109  bet * 18 ether */\n      tag_71\n      swap2\n      swap1\n      tag_64\n      jump\t// in\n    tag_71:\n        /* \"Documents/Web3/Casino/002 Roulette.sol\":3066:3110  payable(msg.sender).transfer(bet * 18 ether) */\n      swap1\n      dup2\n      iszero\n      mul\n      swap1\n      mload(0x40)\n      0x00\n      mload(0x40)\n      dup1\n      dup4\n      sub\n      dup2\n      dup6\n      dup9\n      dup9\n      call\n      swap4\n      pop\n      pop\n      pop\n      pop\n      iszero\n      dup1\n      iszero\n      tag_73\n      jumpi\n      returndatasize\n      0x00\n      dup1\n      returndatacopy\n      revert(0x00, returndatasize)\n    tag_73:\n      pop\n        /* \"Documents/Web3/Casino/002 Roulette.sol\":3031:3137  if (determinant < 2) {... */\n      jump(tag_74)\n    tag_70:\n    tag_74:\n        /* \"Documents/Web3/Casino/002 Roulette.sol\":2925:3143  {... */\n      pop\n        /* \"Documents/Web3/Casino/002 Roulette.sol\":2874:3143  function F_seventeenToOne(uint bet) payable public {... */\n      pop\n      jump\t// out\n        /* \"Documents/Web3/Casino/002 Roulette.sol\":2063:2326  function C_fiveToOne(uint bet) payable public {... */\n    tag_23:\n        /* \"Documents/Web3/Casino/002 Roulette.sol\":2146:2153  1 ether */\n      0x0de0b6b3a7640000\n        /* \"Documents/Web3/Casino/002 Roulette.sol\":2140:2143  bet */\n      dup2\n        /* \"Documents/Web3/Casino/002 Roulette.sol\":2140:2153  bet * 1 ether */\n      tag_76\n      swap2\n      swap1\n      tag_64\n      jump\t// in\n    tag_76:\n        /* \"Documents/Web3/Casino/002 Roulette.sol\":2127:2136  msg.value */\n      callvalue\n        /* \"Documents/Web3/Casino/002 Roulette.sol\":2127:2153  msg.value == bet * 1 ether */\n      eq\n        /* \"Documents/Web3/Casino/002 Roulette.sol\":2119:2154  require(msg.value == bet * 1 ether) */\n      tag_77\n      jumpi\n      0x00\n      dup1\n      revert\n    tag_77:\n        /* \"Documents/Web3/Casino/002 Roulette.sol\":2164:2180  uint determinant */\n      0x00\n        /* \"Documents/Web3/Casino/002 Roulette.sol\":2203:2205  38 */\n      0x26\n        /* \"Documents/Web3/Casino/002 Roulette.sol\":2183:2200  getRandomNumber() */\n      tag_78\n        /* \"Documents/Web3/Casino/002 Roulette.sol\":2183:2198  getRandomNumber */\n      tag_67\n        /* \"Documents/Web3/Casino/002 Roulette.sol\":2183:2200  getRandomNumber() */\n      jump\t// in\n    tag_78:\n        /* \"Documents/Web3/Casino/002 Roulette.sol\":2183:2205  getRandomNumber() % 38 */\n      tag_79\n      swap2\n      swap1\n      tag_69\n      jump\t// in\n    tag_79:\n        /* \"Documents/Web3/Casino/002 Roulette.sol\":2164:2205  uint determinant = getRandomNumber() % 38 */\n      swap1\n      pop\n        /* \"Documents/Web3/Casino/002 Roulette.sol\":2233:2234  6 */\n      0x06\n        /* \"Documents/Web3/Casino/002 Roulette.sol\":2219:2230  determinant */\n      dup2\n        /* \"Documents/Web3/Casino/002 Roulette.sol\":2219:2234  determinant < 6 */\n      lt\n        /* \"Documents/Web3/Casino/002 Roulette.sol\":2215:2320  if (determinant < 6) {... */\n      iszero\n      tag_80\n      jumpi\n        /* \"Documents/Web3/Casino/002 Roulette.sol\":2258:2268  msg.sender */\n      caller\n        /* \"Documents/Web3/Casino/002 Roulette.sol\":2250:2278  payable(msg.sender).transfer */\n      0xffffffffffffffffffffffffffffffffffffffff\n      and\n        /* \"Documents/Web3/Casino/002 Roulette.sol\":2250:2293  payable(msg.sender).transfer(bet * 6 ether) */\n      0x08fc\n        /* \"Documents/Web3/Casino/002 Roulette.sol\":2285:2292  6 ether */\n      0x53444835ec580000\n        /* \"Documents/Web3/Casino/002 Roulette.sol\":2279:2282  bet */\n      dup5\n        /* \"Documents/Web3/Casino/002 Roulette.sol\":2279:2292  bet * 6 ether */\n      tag_81\n      swap2\n      swap1\n      tag_64\n      jump\t// in\n    tag_81:\n        /* \"Documents/Web3/Casino/002 Roulette.sol\":2250:2293  payable(msg.sender).transfer(bet * 6 ether) */\n      swap1\n      dup2\n      iszero\n      mul\n      swap1\n      mload(0x40)\n      0x00\n      mload(0x40)\n      dup1\n      dup4\n      sub\n      dup2\n      dup6\n      dup9\n      dup9\n      call\n      swap4\n      pop\n      pop\n      pop\n      pop\n      iszero\n      dup1\n      iszero\n      tag_83\n      jumpi\n      returndatasize\n      0x00\n      dup1\n      returndatacopy\n      revert(0x00, returndatasize)\n    tag_83:\n      pop\n        /* \"Documents/Web3/Casino/002 Roulette.sol\":2215:2320  if (determinant < 6) {... */\n      jump(tag_84)\n    tag_80:\n    tag_84:\n        /* \"Documents/Web3/Casino/002 Roulette.sol\":2109:2326  {... */\n      pop\n        /* \"Documents/Web3/Casino/002 Roulette.sol\":2063:2326  function C_fiveToOne(uint bet) payable public {... */\n      pop\n      jump\t// out\n        /* \"Documents/Web3/Casino/002 Roulette.sol\":1525:1788  function A_oneToOne(uint bet) payable public {... */\n    tag_26:\n        /* \"Documents/Web3/Casino/002 Roulette.sol\":1607:1614  1 ether */\n      0x0de0b6b3a7640000\n        /* \"Documents/Web3/Casino/002 Roulette.sol\":1601:1604  bet */\n      dup2\n        /* \"Documents/Web3/Casino/002 Roulette.sol\":1601:1614  bet * 1 ether */\n      tag_86\n      swap2\n      swap1\n      tag_64\n      jump\t// in\n    tag_86:\n        /* \"Documents/Web3/Casino/002 Roulette.sol\":1588:1597  msg.value */\n      callvalue\n        /* \"Documents/Web3/Casino/002 Roulette.sol\":1588:1614  msg.value == bet * 1 ether */\n      eq\n        /* \"Documents/Web3/Casino/002 Roulette.sol\":1580:1615  require(msg.value == bet * 1 ether) */\n      tag_87\n      jumpi\n      0x00\n      dup1\n      revert\n    tag_87:\n        /* \"Documents/Web3/Casino/002 Roulette.sol\":1625:1641  uint determinant */\n      0x00\n        /* \"Documents/Web3/Casino/002 Roulette.sol\":1664:1666  38 */\n      0x26\n        /* \"Documents/Web3/Casino/002 Roulette.sol\":1644:1661  getRandomNumber() */\n      tag_88\n        /* \"Documents/Web3/Casino/002 Roulette.sol\":1644:1659  getRandomNumber */\n      tag_67\n        /* \"Documents/Web3/Casino/002 Roulette.sol\":1644:1661  getRandomNumber() */\n      jump\t// in\n    tag_88:\n        /* \"Documents/Web3/Casino/002 Roulette.sol\":1644:1666  getRandomNumber() % 38 */\n      tag_89\n      swap2\n      swap1\n      tag_69\n      jump\t// in\n    tag_89:\n        /* \"Documents/Web3/Casino/002 Roulette.sol\":1625:1666  uint determinant = getRandomNumber() % 38 */\n      swap1\n      pop\n        /* \"Documents/Web3/Casino/002 Roulette.sol\":1694:1696  18 */\n      0x12\n        /* \"Documents/Web3/Casino/002 Roulette.sol\":1680:1691  determinant */\n      dup2\n        /* \"Documents/Web3/Casino/002 Roulette.sol\":1680:1696  determinant < 18 */\n      lt\n        /* \"Documents/Web3/Casino/002 Roulette.sol\":1676:1782  if (determinant < 18) {... */\n      iszero\n      tag_90\n      jumpi\n        /* \"Documents/Web3/Casino/002 Roulette.sol\":1720:1730  msg.sender */\n      caller\n        /* \"Documents/Web3/Casino/002 Roulette.sol\":1712:1740  payable(msg.sender).transfer */\n      0xffffffffffffffffffffffffffffffffffffffff\n      and\n        /* \"Documents/Web3/Casino/002 Roulette.sol\":1712:1755  payable(msg.sender).transfer(bet * 2 ether) */\n      0x08fc\n        /* \"Documents/Web3/Casino/002 Roulette.sol\":1747:1754  2 ether */\n      0x1bc16d674ec80000\n        /* \"Documents/Web3/Casino/002 Roulette.sol\":1741:1744  bet */\n      dup5\n        /* \"Documents/Web3/Casino/002 Roulette.sol\":1741:1754  bet * 2 ether */\n      tag_91\n      swap2\n      swap1\n      tag_64\n      jump\t// in\n    tag_91:\n        /* \"Documents/Web3/Casino/002 Roulette.sol\":1712:1755  payable(msg.sender).transfer(bet * 2 ether) */\n      swap1\n      dup2\n      iszero\n      mul\n      swap1\n      mload(0x40)\n      0x00\n      mload(0x40)\n      dup1\n      dup4\n      sub\n      dup2\n      dup6\n      dup9\n      dup9\n      call\n      swap4\n      pop\n      pop\n      pop\n      pop\n      iszero\n      dup1\n      iszero\n      tag_93\n      jumpi\n      returndatasize\n      0x00\n      dup1\n      returndatacopy\n      revert(0x00, returndatasize)\n    tag_93:\n      pop\n        /* \"Documents/Web3/Casino/002 Roulette.sol\":1676:1782  if (determinant < 18) {... */\n      jump(tag_94)\n    tag_90:\n    tag_94:\n        /* \"Documents/Web3/Casino/002 Roulette.sol\":1570:1788  {... */\n      pop\n        /* \"Documents/Web3/Casino/002 Roulette.sol\":1525:1788  function A_oneToOne(uint bet) payable public {... */\n      pop\n      jump\t// out\n        /* \"Documents/Web3/Casino/002 Roulette.sol\":3682:3790  function J_getBalance() public view onlyOwner() returns (uint) {... */\n    tag_29:\n        /* \"Documents/Web3/Casino/002 Roulette.sol\":3739:3743  uint */\n      0x00\n        /* \"Documents/Web3/Casino/002 Roulette.sol\":828:833  owner */\n      dup1\n      0x00\n      swap1\n      sload\n      swap1\n      0x0100\n      exp\n      swap1\n      div\n      0xffffffffffffffffffffffffffffffffffffffff\n      and\n        /* \"Documents/Web3/Casino/002 Roulette.sol\":814:833  msg.sender == owner */\n      0xffffffffffffffffffffffffffffffffffffffff\n      and\n        /* \"Documents/Web3/Casino/002 Roulette.sol\":814:824  msg.sender */\n      caller\n        /* \"Documents/Web3/Casino/002 Roulette.sol\":814:833  msg.sender == owner */\n      0xffffffffffffffffffffffffffffffffffffffff\n      and\n      eq\n        /* \"Documents/Web3/Casino/002 Roulette.sol\":806:834  require(msg.sender == owner) */\n      tag_96\n      jumpi\n      0x00\n      dup1\n      revert\n    tag_96:\n        /* \"Documents/Web3/Casino/002 Roulette.sol\":3762:3783  address(this).balance */\n      selfbalance\n        /* \"Documents/Web3/Casino/002 Roulette.sol\":3755:3783  return address(this).balance */\n      swap1\n      pop\n        /* \"Documents/Web3/Casino/002 Roulette.sol\":3682:3790  function J_getBalance() public view onlyOwner() returns (uint) {... */\n      swap1\n      jump\t// out\n        /* \"Documents/Web3/Casino/002 Roulette.sol\":606:635  address payable public player */\n    tag_34:\n      0x01\n      0x00\n      swap1\n      sload\n      swap1\n      0x0100\n      exp\n      swap1\n      div\n      0xffffffffffffffffffffffffffffffffffffffff\n      and\n      dup2\n      jump\t// out\n        /* \"Documents/Web3/Casino/002 Roulette.sol\":1794:2057  function B_twoToOne(uint bet) payable public {... */\n    tag_39:\n        /* \"Documents/Web3/Casino/002 Roulette.sol\":1876:1883  1 ether */\n      0x0de0b6b3a7640000\n        /* \"Documents/Web3/Casino/002 Roulette.sol\":1870:1873  bet */\n      dup2\n        /* \"Documents/Web3/Casino/002 Roulette.sol\":1870:1883  bet * 1 ether */\n      tag_99\n      swap2\n      swap1\n      tag_64\n      jump\t// in\n    tag_99:\n        /* \"Documents/Web3/Casino/002 Roulette.sol\":1857:1866  msg.value */\n      callvalue\n        /* \"Documents/Web3/Casino/002 Roulette.sol\":1857:1883  msg.value == bet * 1 ether */\n      eq\n        /* \"Documents/Web3/Casino/002 Roulette.sol\":1849:1884  require(msg.value == bet * 1 ether) */\n      tag_100\n      jumpi\n      0x00\n      dup1\n      revert\n    tag_100:\n        /* \"Documents/Web3/Casino/002 Roulette.sol\":1894:1910  uint determinant */\n      0x00\n        /* \"Documents/Web3/Casino/002 Roulette.sol\":1933:1935  38 */\n      0x26\n        /* \"Documents/Web3/Casino/002 Roulette.sol\":1913:1930  getRandomNumber() */\n      tag_101\n        /* \"Documents/Web3/Casino/002 Roulette.sol\":1913:1928  getRandomNumber */\n      tag_67\n        /* \"Documents/Web3/Casino/002 Roulette.sol\":1913:1930  getRandomNumber() */\n      jump\t// in\n    tag_101:\n        /* \"Documents/Web3/Casino/002 Roulette.sol\":1913:1935  getRandomNumber() % 38 */\n      tag_102\n      swap2\n      swap1\n      tag_69\n      jump\t// in\n    tag_102:\n        /* \"Documents/Web3/Casino/002 Roulette.sol\":1894:1935  uint determinant = getRandomNumber() % 38 */\n      swap1\n      pop\n        /* \"Documents/Web3/Casino/002 Roulette.sol\":1963:1965  12 */\n      0x0c\n        /* \"Documents/Web3/Casino/002 Roulette.sol\":1949:1960  determinant */\n      dup2\n        /* \"Documents/Web3/Casino/002 Roulette.sol\":1949:1965  determinant < 12 */\n      lt\n        /* \"Documents/Web3/Casino/002 Roulette.sol\":1945:2051  if (determinant < 12) {... */\n      iszero\n      tag_103\n      jumpi\n        /* \"Documents/Web3/Casino/002 Roulette.sol\":1989:1999  msg.sender */\n      caller\n        /* \"Documents/Web3/Casino/002 Roulette.sol\":1981:2009  payable(msg.sender).transfer */\n      0xffffffffffffffffffffffffffffffffffffffff\n      and\n        /* \"Documents/Web3/Casino/002 Roulette.sol\":1981:2024  payable(msg.sender).transfer(bet * 3 ether) */\n      0x08fc\n        /* \"Documents/Web3/Casino/002 Roulette.sol\":2016:2023  3 ether */\n      0x29a2241af62c0000\n        /* \"Documents/Web3/Casino/002 Roulette.sol\":2010:2013  bet */\n      dup5\n        /* \"Documents/Web3/Casino/002 Roulette.sol\":2010:2023  bet * 3 ether */\n      tag_104\n      swap2\n      swap1\n      tag_64\n      jump\t// in\n    tag_104:\n        /* \"Documents/Web3/Casino/002 Roulette.sol\":1981:2024  payable(msg.sender).transfer(bet * 3 ether) */\n      swap1\n      dup2\n      iszero\n      mul\n      swap1\n      mload(0x40)\n      0x00\n      mload(0x40)\n      dup1\n      dup4\n      sub\n      dup2\n      dup6\n      dup9\n      dup9\n      call\n      swap4\n      pop\n      pop\n      pop\n      pop\n      iszero\n      dup1\n      iszero\n      tag_106\n      jumpi\n      returndatasize\n      0x00\n      dup1\n      returndatacopy\n      revert(0x00, returndatasize)\n    tag_106:\n      pop\n        /* \"Documents/Web3/Casino/002 Roulette.sol\":1945:2051  if (determinant < 12) {... */\n      jump(tag_107)\n    tag_103:\n    tag_107:\n        /* \"Documents/Web3/Casino/002 Roulette.sol\":1839:2057  {... */\n      pop\n        /* \"Documents/Web3/Casino/002 Roulette.sol\":1794:2057  function B_twoToOne(uint bet) payable public {... */\n      pop\n      jump\t// out\n        /* \"Documents/Web3/Casino/002 Roulette.sol\":1406:1519  function AAA_test() payable public returns (uint) {... */\n    tag_41:\n        /* \"Documents/Web3/Casino/002 Roulette.sol\":1450:1454  uint */\n      0x00\n        /* \"Documents/Web3/Casino/002 Roulette.sol\":1466:1477  uint amount */\n      dup1\n        /* \"Documents/Web3/Casino/002 Roulette.sol\":1480:1489  msg.value */\n      callvalue\n        /* \"Documents/Web3/Casino/002 Roulette.sol\":1466:1489  uint amount = msg.value */\n      swap1\n      pop\n        /* \"Documents/Web3/Casino/002 Roulette.sol\":1506:1512  amount */\n      dup1\n        /* \"Documents/Web3/Casino/002 Roulette.sol\":1499:1512  return amount */\n      swap2\n      pop\n      pop\n        /* \"Documents/Web3/Casino/002 Roulette.sol\":1406:1519  function AAA_test() payable public returns (uint) {... */\n      swap1\n      jump\t// out\n        /* \"Documents/Web3/Casino/002 Roulette.sol\":572:600  address payable public owner */\n    tag_45:\n      0x00\n      dup1\n      sload\n      swap1\n      0x0100\n      exp\n      swap1\n      div\n      0xffffffffffffffffffffffffffffffffffffffff\n      and\n      dup2\n      jump\t// out\n        /* \"Documents/Web3/Casino/002 Roulette.sol\":2332:2596  function D_eightToOne(uint bet) payable public {... */\n    tag_49:\n        /* \"Documents/Web3/Casino/002 Roulette.sol\":2416:2423  1 ether */\n      0x0de0b6b3a7640000\n        /* \"Documents/Web3/Casino/002 Roulette.sol\":2410:2413  bet */\n      dup2\n        /* \"Documents/Web3/Casino/002 Roulette.sol\":2410:2423  bet * 1 ether */\n      tag_110\n      swap2\n      swap1\n      tag_64\n      jump\t// in\n    tag_110:\n        /* \"Documents/Web3/Casino/002 Roulette.sol\":2397:2406  msg.value */\n      callvalue\n        /* \"Documents/Web3/Casino/002 Roulette.sol\":2397:2423  msg.value == bet * 1 ether */\n      eq\n        /* \"Documents/Web3/Casino/002 Roulette.sol\":2389:2424  require(msg.value == bet * 1 ether) */\n      tag_111\n      jumpi\n      0x00\n      dup1\n      revert\n    tag_111:\n        /* \"Documents/Web3/Casino/002 Roulette.sol\":2434:2450  uint determinant */\n      0x00\n        /* \"Documents/Web3/Casino/002 Roulette.sol\":2473:2475  38 */\n      0x26\n        /* \"Documents/Web3/Casino/002 Roulette.sol\":2453:2470  getRandomNumber() */\n      tag_112\n        /* \"Documents/Web3/Casino/002 Roulette.sol\":2453:2468  getRandomNumber */\n      tag_67\n        /* \"Documents/Web3/Casino/002 Roulette.sol\":2453:2470  getRandomNumber() */\n      jump\t// in\n    tag_112:\n        /* \"Documents/Web3/Casino/002 Roulette.sol\":2453:2475  getRandomNumber() % 38 */\n      tag_113\n      swap2\n      swap1\n      tag_69\n      jump\t// in\n    tag_113:\n        /* \"Documents/Web3/Casino/002 Roulette.sol\":2434:2475  uint determinant = getRandomNumber() % 38 */\n      swap1\n      pop\n        /* \"Documents/Web3/Casino/002 Roulette.sol\":2503:2504  4 */\n      0x04\n        /* \"Documents/Web3/Casino/002 Roulette.sol\":2489:2500  determinant */\n      dup2\n        /* \"Documents/Web3/Casino/002 Roulette.sol\":2489:2504  determinant < 4 */\n      lt\n        /* \"Documents/Web3/Casino/002 Roulette.sol\":2485:2590  if (determinant < 4) {... */\n      iszero\n      tag_114\n      jumpi\n        /* \"Documents/Web3/Casino/002 Roulette.sol\":2528:2538  msg.sender */\n      caller\n        /* \"Documents/Web3/Casino/002 Roulette.sol\":2520:2548  payable(msg.sender).transfer */\n      0xffffffffffffffffffffffffffffffffffffffff\n      and\n        /* \"Documents/Web3/Casino/002 Roulette.sol\":2520:2563  payable(msg.sender).transfer(bet * 9 ether) */\n      0x08fc\n        /* \"Documents/Web3/Casino/002 Roulette.sol\":2555:2562  9 ether */\n      0x7ce66c50e2840000\n        /* \"Documents/Web3/Casino/002 Roulette.sol\":2549:2552  bet */\n      dup5\n        /* \"Documents/Web3/Casino/002 Roulette.sol\":2549:2562  bet * 9 ether */\n      tag_115\n      swap2\n      swap1\n      tag_64\n      jump\t// in\n    tag_115:\n        /* \"Documents/Web3/Casino/002 Roulette.sol\":2520:2563  payable(msg.sender).transfer(bet * 9 ether) */\n      swap1\n      dup2\n      iszero\n      mul\n      swap1\n      mload(0x40)\n      0x00\n      mload(0x40)\n      dup1\n      dup4\n      sub\n      dup2\n      dup6\n      dup9\n      dup9\n      call\n      swap4\n      pop\n      pop\n      pop\n      pop\n      iszero\n      dup1\n      iszero\n      tag_117\n      jumpi\n      returndatasize\n      0x00\n      dup1\n      returndatacopy\n      revert(0x00, returndatasize)\n    tag_117:\n      pop\n        /* \"Documents/Web3/Casino/002 Roulette.sol\":2485:2590  if (determinant < 4) {... */\n      jump(tag_118)\n    tag_114:\n    tag_118:\n        /* \"Documents/Web3/Casino/002 Roulette.sol\":2379:2596  {... */\n      pop\n        /* \"Documents/Web3/Casino/002 Roulette.sol\":2332:2596  function D_eightToOne(uint bet) payable public {... */\n      pop\n      jump\t// out\n        /* \"Documents/Web3/Casino/002 Roulette.sol\":3149:3419  function G_thirtyfiveToOne(uint bet) payable public {... */\n    tag_52:\n        /* \"Documents/Web3/Casino/002 Roulette.sol\":3238:3245  1 ether */\n      0x0de0b6b3a7640000\n        /* \"Documents/Web3/Casino/002 Roulette.sol\":3232:3235  bet */\n      dup2\n        /* \"Documents/Web3/Casino/002 Roulette.sol\":3232:3245  bet * 1 ether */\n      tag_120\n      swap2\n      swap1\n      tag_64\n      jump\t// in\n    tag_120:\n        /* \"Documents/Web3/Casino/002 Roulette.sol\":3219:3228  msg.value */\n      callvalue\n        /* \"Documents/Web3/Casino/002 Roulette.sol\":3219:3245  msg.value == bet * 1 ether */\n      eq\n        /* \"Documents/Web3/Casino/002 Roulette.sol\":3211:3246  require(msg.value == bet * 1 ether) */\n      tag_121\n      jumpi\n      0x00\n      dup1\n      revert\n    tag_121:\n        /* \"Documents/Web3/Casino/002 Roulette.sol\":3256:3272  uint determinant */\n      0x00\n        /* \"Documents/Web3/Casino/002 Roulette.sol\":3295:3297  38 */\n      0x26\n        /* \"Documents/Web3/Casino/002 Roulette.sol\":3275:3292  getRandomNumber() */\n      tag_122\n        /* \"Documents/Web3/Casino/002 Roulette.sol\":3275:3290  getRandomNumber */\n      tag_67\n        /* \"Documents/Web3/Casino/002 Roulette.sol\":3275:3292  getRandomNumber() */\n      jump\t// in\n    tag_122:\n        /* \"Documents/Web3/Casino/002 Roulette.sol\":3275:3297  getRandomNumber() % 38 */\n      tag_123\n      swap2\n      swap1\n      tag_69\n      jump\t// in\n    tag_123:\n        /* \"Documents/Web3/Casino/002 Roulette.sol\":3256:3297  uint determinant = getRandomNumber() % 38 */\n      swap1\n      pop\n        /* \"Documents/Web3/Casino/002 Roulette.sol\":3325:3326  1 */\n      0x01\n        /* \"Documents/Web3/Casino/002 Roulette.sol\":3311:3322  determinant */\n      dup2\n        /* \"Documents/Web3/Casino/002 Roulette.sol\":3311:3326  determinant < 1 */\n      lt\n        /* \"Documents/Web3/Casino/002 Roulette.sol\":3307:3413  if (determinant < 1) {... */\n      iszero\n      tag_124\n      jumpi\n        /* \"Documents/Web3/Casino/002 Roulette.sol\":3350:3360  msg.sender */\n      caller\n        /* \"Documents/Web3/Casino/002 Roulette.sol\":3342:3370  payable(msg.sender).transfer */\n      0xffffffffffffffffffffffffffffffffffffffff\n      and\n        /* \"Documents/Web3/Casino/002 Roulette.sol\":3342:3386  payable(msg.sender).transfer(bet * 36 ether) */\n      0x08fc\n        /* \"Documents/Web3/Casino/002 Roulette.sol\":3377:3385  36 ether */\n      0x01f399b1438a100000\n        /* \"Documents/Web3/Casino/002 Roulette.sol\":3371:3374  bet */\n      dup5\n        /* \"Documents/Web3/Casino/002 Roulette.sol\":3371:3385  bet * 36 ether */\n      tag_125\n      swap2\n      swap1\n      tag_64\n      jump\t// in\n    tag_125:\n        /* \"Documents/Web3/Casino/002 Roulette.sol\":3342:3386  payable(msg.sender).transfer(bet * 36 ether) */\n      swap1\n      dup2\n      iszero\n      mul\n      swap1\n      mload(0x40)\n      0x00\n      mload(0x40)\n      dup1\n      dup4\n      sub\n      dup2\n      dup6\n      dup9\n      dup9\n      call\n      swap4\n      pop\n      pop\n      pop\n      pop\n      iszero\n      dup1\n      iszero\n      tag_127\n      jumpi\n      returndatasize\n      0x00\n      dup1\n      returndatacopy\n      revert(0x00, returndatasize)\n    tag_127:\n      pop\n        /* \"Documents/Web3/Casino/002 Roulette.sol\":3307:3413  if (determinant < 1) {... */\n      jump(tag_128)\n    tag_124:\n    tag_128:\n        /* \"Documents/Web3/Casino/002 Roulette.sol\":3201:3419  {... */\n      pop\n        /* \"Documents/Web3/Casino/002 Roulette.sol\":3149:3419  function G_thirtyfiveToOne(uint bet) payable public {... */\n      pop\n      jump\t// out\n        /* \"Documents/Web3/Casino/002 Roulette.sol\":3469:3519  function H_deposit() payable public onlyOwner() {} */\n    tag_54:\n        /* \"Documents/Web3/Casino/002 Roulette.sol\":828:833  owner */\n      0x00\n      dup1\n      sload\n      swap1\n      0x0100\n      exp\n      swap1\n      div\n      0xffffffffffffffffffffffffffffffffffffffff\n      and\n        /* \"Documents/Web3/Casino/002 Roulette.sol\":814:833  msg.sender == owner */\n      0xffffffffffffffffffffffffffffffffffffffff\n      and\n        /* \"Documents/Web3/Casino/002 Roulette.sol\":814:824  msg.sender */\n      caller\n        /* \"Documents/Web3/Casino/002 Roulette.sol\":814:833  msg.sender == owner */\n      0xffffffffffffffffffffffffffffffffffffffff\n      and\n      eq\n        /* \"Documents/Web3/Casino/002 Roulette.sol\":806:834  require(msg.sender == owner) */\n      tag_130\n      jumpi\n      0x00\n      dup1\n      revert\n    tag_130:\n        /* \"Documents/Web3/Casino/002 Roulette.sol\":3469:3519  function H_deposit() payable public onlyOwner() {} */\n      jump\t// out\n        /* \"Documents/Web3/Casino/002 Roulette.sol\":3525:3626  function I_withdraw(uint amount) public onlyOwner() {... */\n    tag_58:\n        /* \"Documents/Web3/Casino/002 Roulette.sol\":828:833  owner */\n      0x00\n      dup1\n      sload\n      swap1\n      0x0100\n      exp\n      swap1\n      div\n      0xffffffffffffffffffffffffffffffffffffffff\n      and\n        /* \"Documents/Web3/Casino/002 Roulette.sol\":814:833  msg.sender == owner */\n      0xffffffffffffffffffffffffffffffffffffffff\n      and\n        /* \"Documents/Web3/Casino/002 Roulette.sol\":814:824  msg.sender */\n      caller\n        /* \"Documents/Web3/Casino/002 Roulette.sol\":814:833  msg.sender == owner */\n      0xffffffffffffffffffffffffffffffffffffffff\n      and\n      eq\n        /* \"Documents/Web3/Casino/002 Roulette.sol\":806:834  require(msg.sender == owner) */\n      tag_133\n      jumpi\n      0x00\n      dup1\n      revert\n    tag_133:\n        /* \"Documents/Web3/Casino/002 Roulette.sol\":3587:3592  owner */\n      0x00\n      dup1\n      sload\n      swap1\n      0x0100\n      exp\n      swap1\n      div\n      0xffffffffffffffffffffffffffffffffffffffff\n      and\n        /* \"Documents/Web3/Casino/002 Roulette.sol\":3587:3601  owner.transfer */\n      0xffffffffffffffffffffffffffffffffffffffff\n      and\n        /* \"Documents/Web3/Casino/002 Roulette.sol\":3587:3619  owner.transfer(amount * 1 ether) */\n      0x08fc\n        /* \"Documents/Web3/Casino/002 Roulette.sol\":3611:3618  1 ether */\n      0x0de0b6b3a7640000\n        /* \"Documents/Web3/Casino/002 Roulette.sol\":3602:3608  amount */\n      dup4\n        /* \"Documents/Web3/Casino/002 Roulette.sol\":3602:3618  amount * 1 ether */\n      tag_135\n      swap2\n      swap1\n      tag_64\n      jump\t// in\n    tag_135:\n        /* \"Documents/Web3/Casino/002 Roulette.sol\":3587:3619  owner.transfer(amount * 1 ether) */\n      swap1\n      dup2\n      iszero\n      mul\n      swap1\n      mload(0x40)\n      0x00\n      mload(0x40)\n      dup1\n      dup4\n      sub\n      dup2\n      dup6\n      dup9\n      dup9\n      call\n      swap4\n      pop\n      pop\n      pop\n      pop\n      iszero\n      dup1\n      iszero\n      tag_137\n      jumpi\n      returndatasize\n      0x00\n      dup1\n      returndatacopy\n      revert(0x00, returndatasize)\n    tag_137:\n      pop\n        /* \"Documents/Web3/Casino/002 Roulette.sol\":3525:3626  function I_withdraw(uint amount) public onlyOwner() {... */\n      pop\n      jump\t// out\n        /* \"Documents/Web3/Casino/002 Roulette.sol\":2602:2868  function E_elevenToOne(uint bet) payable public {... */\n    tag_61:\n        /* \"Documents/Web3/Casino/002 Roulette.sol\":2687:2694  1 ether */\n      0x0de0b6b3a7640000\n        /* \"Documents/Web3/Casino/002 Roulette.sol\":2681:2684  bet */\n      dup2\n        /* \"Documents/Web3/Casino/002 Roulette.sol\":2681:2694  bet * 1 ether */\n      tag_139\n      swap2\n      swap1\n      tag_64\n      jump\t// in\n    tag_139:\n        /* \"Documents/Web3/Casino/002 Roulette.sol\":2668:2677  msg.value */\n      callvalue\n        /* \"Documents/Web3/Casino/002 Roulette.sol\":2668:2694  msg.value == bet * 1 ether */\n      eq\n        /* \"Documents/Web3/Casino/002 Roulette.sol\":2660:2695  require(msg.value == bet * 1 ether) */\n      tag_140\n      jumpi\n      0x00\n      dup1\n      revert\n    tag_140:\n        /* \"Documents/Web3/Casino/002 Roulette.sol\":2705:2721  uint determinant */\n      0x00\n        /* \"Documents/Web3/Casino/002 Roulette.sol\":2744:2746  38 */\n      0x26\n        /* \"Documents/Web3/Casino/002 Roulette.sol\":2724:2741  getRandomNumber() */\n      tag_141\n        /* \"Documents/Web3/Casino/002 Roulette.sol\":2724:2739  getRandomNumber */\n      tag_67\n        /* \"Documents/Web3/Casino/002 Roulette.sol\":2724:2741  getRandomNumber() */\n      jump\t// in\n    tag_141:\n        /* \"Documents/Web3/Casino/002 Roulette.sol\":2724:2746  getRandomNumber() % 38 */\n      tag_142\n      swap2\n      swap1\n      tag_69\n      jump\t// in\n    tag_142:\n        /* \"Documents/Web3/Casino/002 Roulette.sol\":2705:2746  uint determinant = getRandomNumber() % 38 */\n      swap1\n      pop\n        /* \"Documents/Web3/Casino/002 Roulette.sol\":2774:2775  3 */\n      0x03\n        /* \"Documents/Web3/Casino/002 Roulette.sol\":2760:2771  determinant */\n      dup2\n        /* \"Documents/Web3/Casino/002 Roulette.sol\":2760:2775  determinant < 3 */\n      lt\n        /* \"Documents/Web3/Casino/002 Roulette.sol\":2756:2862  if (determinant < 3) {... */\n      iszero\n      tag_143\n      jumpi\n        /* \"Documents/Web3/Casino/002 Roulette.sol\":2799:2809  msg.sender */\n      caller\n        /* \"Documents/Web3/Casino/002 Roulette.sol\":2791:2819  payable(msg.sender).transfer */\n      0xffffffffffffffffffffffffffffffffffffffff\n      and\n        /* \"Documents/Web3/Casino/002 Roulette.sol\":2791:2835  payable(msg.sender).transfer(bet * 12 ether) */\n      0x08fc\n        /* \"Documents/Web3/Casino/002 Roulette.sol\":2826:2834  12 ether */\n      0xa688906bd8b00000\n        /* \"Documents/Web3/Casino/002 Roulette.sol\":2820:2823  bet */\n      dup5\n        /* \"Documents/Web3/Casino/002 Roulette.sol\":2820:2834  bet * 12 ether */\n      tag_144\n      swap2\n      swap1\n      tag_64\n      jump\t// in\n    tag_144:\n        /* \"Documents/Web3/Casino/002 Roulette.sol\":2791:2835  payable(msg.sender).transfer(bet * 12 ether) */\n      swap1\n      dup2\n      iszero\n      mul\n      swap1\n      mload(0x40)\n      0x00\n      mload(0x40)\n      dup1\n      dup4\n      sub\n      dup2\n      dup6\n      dup9\n      dup9\n      call\n      swap4\n      pop\n      pop\n      pop\n      pop\n      iszero\n      dup1\n      iszero\n      tag_146\n      jumpi\n      returndatasize\n      0x00\n      dup1\n      returndatacopy\n      revert(0x00, returndatasize)\n    tag_146:\n      pop\n        /* \"Documents/Web3/Casino/002 Roulette.sol\":2756:2862  if (determinant < 3) {... */\n      jump(tag_147)\n    tag_143:\n    tag_147:\n        /* \"Documents/Web3/Casino/002 Roulette.sol\":2650:2868  {... */\n      pop\n        /* \"Documents/Web3/Casino/002 Roulette.sol\":2602:2868  function E_elevenToOne(uint bet) payable public {... */\n      pop\n      jump\t// out\n        /* \"Documents/Web3/Casino/002 Roulette.sol\":1025:1195  function getRandomNumber() private view returns (uint) {... */\n    tag_67:\n        /* \"Documents/Web3/Casino/002 Roulette.sol\":1074:1078  uint */\n      0x00\n        /* \"Documents/Web3/Casino/002 Roulette.sol\":1129:1150  address(this).balance */\n      selfbalance\n        /* \"Documents/Web3/Casino/002 Roulette.sol\":1152:1167  block.timestamp */\n      timestamp\n        /* \"Documents/Web3/Casino/002 Roulette.sol\":1169:1185  block.difficulty */\n      difficulty\n        /* \"Documents/Web3/Casino/002 Roulette.sol\":1112:1186  abi.encodePacked(address(this).balance, block.timestamp, block.difficulty) */\n      add(0x20, mload(0x40))\n      tag_149\n      swap4\n      swap3\n      swap2\n      swap1\n      tag_150\n      jump\t// in\n    tag_149:\n      mload(0x40)\n      0x20\n      dup2\n      dup4\n      sub\n      sub\n      dup2\n      mstore\n      swap1\n      0x40\n      mstore\n        /* \"Documents/Web3/Casino/002 Roulette.sol\":1102:1187  keccak256(abi.encodePacked(address(this).balance, block.timestamp, block.difficulty)) */\n      dup1\n      mload\n      swap1\n      0x20\n      add\n      keccak256\n        /* \"Documents/Web3/Casino/002 Roulette.sol\":1097:1188  uint(keccak256(abi.encodePacked(address(this).balance, block.timestamp, block.difficulty))) */\n      0x00\n      shr\n        /* \"Documents/Web3/Casino/002 Roulette.sol\":1090:1188  return uint(keccak256(abi.encodePacked(address(this).balance, block.timestamp, block.difficulty))) */\n      swap1\n      pop\n        /* \"Documents/Web3/Casino/002 Roulette.sol\":1025:1195  function getRandomNumber() private view returns (uint) {... */\n      swap1\n      jump\t// out\n        /* \"#utility.yul\":88:205   */\n    tag_152:\n        /* \"#utility.yul\":197:198   */\n      0x00\n        /* \"#utility.yul\":194:195   */\n      dup1\n        /* \"#utility.yul\":187:199   */\n      revert\n        /* \"#utility.yul\":334:411   */\n    tag_154:\n        /* \"#utility.yul\":371:378   */\n      0x00\n        /* \"#utility.yul\":400:405   */\n      dup2\n        /* \"#utility.yul\":389:405   */\n      swap1\n      pop\n        /* \"#utility.yul\":334:411   */\n      swap2\n      swap1\n      pop\n      jump\t// out\n        /* \"#utility.yul\":417:539   */\n    tag_155:\n        /* \"#utility.yul\":490:514   */\n      tag_171\n        /* \"#utility.yul\":508:513   */\n      dup2\n        /* \"#utility.yul\":490:514   */\n      tag_154\n      jump\t// in\n    tag_171:\n        /* \"#utility.yul\":483:488   */\n      dup2\n        /* \"#utility.yul\":480:515   */\n      eq\n        /* \"#utility.yul\":470:533   */\n      tag_172\n      jumpi\n        /* \"#utility.yul\":529:530   */\n      0x00\n        /* \"#utility.yul\":526:527   */\n      dup1\n        /* \"#utility.yul\":519:531   */\n      revert\n        /* \"#utility.yul\":470:533   */\n    tag_172:\n        /* \"#utility.yul\":417:539   */\n      pop\n      jump\t// out\n        /* \"#utility.yul\":545:684   */\n    tag_156:\n        /* \"#utility.yul\":591:596   */\n      0x00\n        /* \"#utility.yul\":629:635   */\n      dup2\n        /* \"#utility.yul\":616:636   */\n      calldataload\n        /* \"#utility.yul\":607:636   */\n      swap1\n      pop\n        /* \"#utility.yul\":645:678   */\n      tag_174\n        /* \"#utility.yul\":672:677   */\n      dup2\n        /* \"#utility.yul\":645:678   */\n      tag_155\n      jump\t// in\n    tag_174:\n        /* \"#utility.yul\":545:684   */\n      swap3\n      swap2\n      pop\n      pop\n      jump\t// out\n        /* \"#utility.yul\":690:1019   */\n    tag_19:\n        /* \"#utility.yul\":749:755   */\n      0x00\n        /* \"#utility.yul\":798:800   */\n      0x20\n        /* \"#utility.yul\":786:795   */\n      dup3\n        /* \"#utility.yul\":777:784   */\n      dup5\n        /* \"#utility.yul\":773:796   */\n      sub\n        /* \"#utility.yul\":769:801   */\n      slt\n        /* \"#utility.yul\":766:885   */\n      iszero\n      tag_176\n      jumpi\n        /* \"#utility.yul\":804:883   */\n      tag_177\n      tag_152\n      jump\t// in\n    tag_177:\n        /* \"#utility.yul\":766:885   */\n    tag_176:\n        /* \"#utility.yul\":924:925   */\n      0x00\n        /* \"#utility.yul\":949:1002   */\n      tag_178\n        /* \"#utility.yul\":994:1001   */\n      dup5\n        /* \"#utility.yul\":985:991   */\n      dup3\n        /* \"#utility.yul\":974:983   */\n      dup6\n        /* \"#utility.yul\":970:992   */\n      add\n        /* \"#utility.yul\":949:1002   */\n      tag_156\n      jump\t// in\n    tag_178:\n        /* \"#utility.yul\":939:1002   */\n      swap2\n      pop\n        /* \"#utility.yul\":895:1012   */\n      pop\n        /* \"#utility.yul\":690:1019   */\n      swap3\n      swap2\n      pop\n      pop\n      jump\t// out\n        /* \"#utility.yul\":1025:1143   */\n    tag_157:\n        /* \"#utility.yul\":1112:1136   */\n      tag_180\n        /* \"#utility.yul\":1130:1135   */\n      dup2\n        /* \"#utility.yul\":1112:1136   */\n      tag_154\n      jump\t// in\n    tag_180:\n        /* \"#utility.yul\":1107:1110   */\n      dup3\n        /* \"#utility.yul\":1100:1137   */\n      mstore\n        /* \"#utility.yul\":1025:1143   */\n      pop\n      pop\n      jump\t// out\n        /* \"#utility.yul\":1149:1371   */\n    tag_31:\n        /* \"#utility.yul\":1242:1246   */\n      0x00\n        /* \"#utility.yul\":1280:1282   */\n      0x20\n        /* \"#utility.yul\":1269:1278   */\n      dup3\n        /* \"#utility.yul\":1265:1283   */\n      add\n        /* \"#utility.yul\":1257:1283   */\n      swap1\n      pop\n        /* \"#utility.yul\":1293:1364   */\n      tag_182\n        /* \"#utility.yul\":1361:1362   */\n      0x00\n        /* \"#utility.yul\":1350:1359   */\n      dup4\n        /* \"#utility.yul\":1346:1363   */\n      add\n        /* \"#utility.yul\":1337:1343   */\n      dup5\n        /* \"#utility.yul\":1293:1364   */\n      tag_157\n      jump\t// in\n    tag_182:\n        /* \"#utility.yul\":1149:1371   */\n      swap3\n      swap2\n      pop\n      pop\n      jump\t// out\n        /* \"#utility.yul\":1377:1503   */\n    tag_158:\n        /* \"#utility.yul\":1414:1421   */\n      0x00\n        /* \"#utility.yul\":1454:1496   */\n      0xffffffffffffffffffffffffffffffffffffffff\n        /* \"#utility.yul\":1447:1452   */\n      dup3\n        /* \"#utility.yul\":1443:1497   */\n      and\n        /* \"#utility.yul\":1432:1497   */\n      swap1\n      pop\n        /* \"#utility.yul\":1377:1503   */\n      swap2\n      swap1\n      pop\n      jump\t// out\n        /* \"#utility.yul\":1509:1613   */\n    tag_159:\n        /* \"#utility.yul\":1554:1561   */\n      0x00\n        /* \"#utility.yul\":1583:1607   */\n      tag_185\n        /* \"#utility.yul\":1601:1606   */\n      dup3\n        /* \"#utility.yul\":1583:1607   */\n      tag_158\n      jump\t// in\n    tag_185:\n        /* \"#utility.yul\":1572:1607   */\n      swap1\n      pop\n        /* \"#utility.yul\":1509:1613   */\n      swap2\n      swap1\n      pop\n      jump\t// out\n        /* \"#utility.yul\":1619:1761   */\n    tag_160:\n        /* \"#utility.yul\":1722:1754   */\n      tag_187\n        /* \"#utility.yul\":1748:1753   */\n      dup2\n        /* \"#utility.yul\":1722:1754   */\n      tag_159\n      jump\t// in\n    tag_187:\n        /* \"#utility.yul\":1717:1720   */\n      dup3\n        /* \"#utility.yul\":1710:1755   */\n      mstore\n        /* \"#utility.yul\":1619:1761   */\n      pop\n      pop\n      jump\t// out\n        /* \"#utility.yul\":1767:2021   */\n    tag_36:\n        /* \"#utility.yul\":1876:1880   */\n      0x00\n        /* \"#utility.yul\":1914:1916   */\n      0x20\n        /* \"#utility.yul\":1903:1912   */\n      dup3\n        /* \"#utility.yul\":1899:1917   */\n      add\n        /* \"#utility.yul\":1891:1917   */\n      swap1\n      pop\n        /* \"#utility.yul\":1927:2014   */\n      tag_189\n        /* \"#utility.yul\":2011:2012   */\n      0x00\n        /* \"#utility.yul\":2000:2009   */\n      dup4\n        /* \"#utility.yul\":1996:2013   */\n      add\n        /* \"#utility.yul\":1987:1993   */\n      dup5\n        /* \"#utility.yul\":1927:2014   */\n      tag_160\n      jump\t// in\n    tag_189:\n        /* \"#utility.yul\":1767:2021   */\n      swap3\n      swap2\n      pop\n      pop\n      jump\t// out\n        /* \"#utility.yul\":2027:2207   */\n    tag_161:\n        /* \"#utility.yul\":2075:2152   */\n      0x4e487b7100000000000000000000000000000000000000000000000000000000\n        /* \"#utility.yul\":2072:2073   */\n      0x00\n        /* \"#utility.yul\":2065:2153   */\n      mstore\n        /* \"#utility.yul\":2172:2176   */\n      0x11\n        /* \"#utility.yul\":2169:2170   */\n      0x04\n        /* \"#utility.yul\":2162:2177   */\n      mstore\n        /* \"#utility.yul\":2196:2200   */\n      0x24\n        /* \"#utility.yul\":2193:2194   */\n      0x00\n        /* \"#utility.yul\":2186:2201   */\n      revert\n        /* \"#utility.yul\":2213:2561   */\n    tag_64:\n        /* \"#utility.yul\":2253:2260   */\n      0x00\n        /* \"#utility.yul\":2276:2296   */\n      tag_192\n        /* \"#utility.yul\":2294:2295   */\n      dup3\n        /* \"#utility.yul\":2276:2296   */\n      tag_154\n      jump\t// in\n    tag_192:\n        /* \"#utility.yul\":2271:2296   */\n      swap2\n      pop\n        /* \"#utility.yul\":2310:2330   */\n      tag_193\n        /* \"#utility.yul\":2328:2329   */\n      dup4\n        /* \"#utility.yul\":2310:2330   */\n      tag_154\n      jump\t// in\n    tag_193:\n        /* \"#utility.yul\":2305:2330   */\n      swap3\n      pop\n        /* \"#utility.yul\":2498:2499   */\n      dup2\n        /* \"#utility.yul\":2430:2496   */\n      0xffffffffffffffffffffffffffffffffffffffffffffffffffffffffffffffff\n        /* \"#utility.yul\":2426:2500   */\n      div\n        /* \"#utility.yul\":2423:2424   */\n      dup4\n        /* \"#utility.yul\":2420:2501   */\n      gt\n        /* \"#utility.yul\":2415:2416   */\n      dup3\n        /* \"#utility.yul\":2408:2417   */\n      iszero\n        /* \"#utility.yul\":2401:2418   */\n      iszero\n        /* \"#utility.yul\":2397:2502   */\n      and\n        /* \"#utility.yul\":2394:2525   */\n      iszero\n      tag_194\n      jumpi\n        /* \"#utility.yul\":2505:2523   */\n      tag_195\n      tag_161\n      jump\t// in\n    tag_195:\n        /* \"#utility.yul\":2394:2525   */\n    tag_194:\n        /* \"#utility.yul\":2553:2554   */\n      dup3\n        /* \"#utility.yul\":2550:2551   */\n      dup3\n        /* \"#utility.yul\":2546:2555   */\n      mul\n        /* \"#utility.yul\":2535:2555   */\n      swap1\n      pop\n        /* \"#utility.yul\":2213:2561   */\n      swap3\n      swap2\n      pop\n      pop\n      jump\t// out\n        /* \"#utility.yul\":2567:2747   */\n    tag_162:\n        /* \"#utility.yul\":2615:2692   */\n      0x4e487b7100000000000000000000000000000000000000000000000000000000\n        /* \"#utility.yul\":2612:2613   */\n      0x00\n        /* \"#utility.yul\":2605:2693   */\n      mstore\n        /* \"#utility.yul\":2712:2716   */\n      0x12\n        /* \"#utility.yul\":2709:2710   */\n      0x04\n        /* \"#utility.yul\":2702:2717   */\n      mstore\n        /* \"#utility.yul\":2736:2740   */\n      0x24\n        /* \"#utility.yul\":2733:2734   */\n      0x00\n        /* \"#utility.yul\":2726:2741   */\n      revert\n        /* \"#utility.yul\":2753:2929   */\n    tag_69:\n        /* \"#utility.yul\":2785:2786   */\n      0x00\n        /* \"#utility.yul\":2802:2822   */\n      tag_198\n        /* \"#utility.yul\":2820:2821   */\n      dup3\n        /* \"#utility.yul\":2802:2822   */\n      tag_154\n      jump\t// in\n    tag_198:\n        /* \"#utility.yul\":2797:2822   */\n      swap2\n      pop\n        /* \"#utility.yul\":2836:2856   */\n      tag_199\n        /* \"#utility.yul\":2854:2855   */\n      dup4\n        /* \"#utility.yul\":2836:2856   */\n      tag_154\n      jump\t// in\n    tag_199:\n        /* \"#utility.yul\":2831:2856   */\n      swap3\n      pop\n        /* \"#utility.yul\":2875:2876   */\n      dup3\n        /* \"#utility.yul\":2865:2900   */\n      tag_200\n      jumpi\n        /* \"#utility.yul\":2880:2898   */\n      tag_201\n      tag_162\n      jump\t// in\n    tag_201:\n        /* \"#utility.yul\":2865:2900   */\n    tag_200:\n        /* \"#utility.yul\":2921:2922   */\n      dup3\n        /* \"#utility.yul\":2918:2919   */\n      dup3\n        /* \"#utility.yul\":2914:2923   */\n      mod\n        /* \"#utility.yul\":2909:2923   */\n      swap1\n      pop\n        /* \"#utility.yul\":2753:2929   */\n      swap3\n      swap2\n      pop\n      pop\n      jump\t// out\n        /* \"#utility.yul\":2935:3014   */\n    tag_163:\n        /* \"#utility.yul\":2974:2981   */\n      0x00\n        /* \"#utility.yul\":3003:3008   */\n      dup2\n        /* \"#utility.yul\":2992:3008   */\n      swap1\n      pop\n        /* \"#utility.yul\":2935:3014   */\n      swap2\n      swap1\n      pop\n      jump\t// out\n        /* \"#utility.yul\":3020:3177   */\n    tag_164:\n        /* \"#utility.yul\":3125:3170   */\n      tag_204\n        /* \"#utility.yul\":3145:3169   */\n      tag_205\n        /* \"#utility.yul\":3163:3168   */\n      dup3\n        /* \"#utility.yul\":3145:3169   */\n      tag_154\n      jump\t// in\n    tag_205:\n        /* \"#utility.yul\":3125:3170   */\n      tag_163\n      jump\t// in\n    tag_204:\n        /* \"#utility.yul\":3120:3123   */\n      dup3\n        /* \"#utility.yul\":3113:3171   */\n      mstore\n        /* \"#utility.yul\":3020:3177   */\n      pop\n      pop\n      jump\t// out\n        /* \"#utility.yul\":3183:3721   */\n    tag_150:\n        /* \"#utility.yul\":3351:3354   */\n      0x00\n        /* \"#utility.yul\":3366:3441   */\n      tag_207\n        /* \"#utility.yul\":3437:3440   */\n      dup3\n        /* \"#utility.yul\":3428:3434   */\n      dup7\n        /* \"#utility.yul\":3366:3441   */\n      tag_164\n      jump\t// in\n    tag_207:\n        /* \"#utility.yul\":3466:3468   */\n      0x20\n        /* \"#utility.yul\":3461:3464   */\n      dup3\n        /* \"#utility.yul\":3457:3469   */\n      add\n        /* \"#utility.yul\":3450:3469   */\n      swap2\n      pop\n        /* \"#utility.yul\":3479:3554   */\n      tag_208\n        /* \"#utility.yul\":3550:3553   */\n      dup3\n        /* \"#utility.yul\":3541:3547   */\n      dup6\n        /* \"#utility.yul\":3479:3554   */\n      tag_164\n      jump\t// in\n    tag_208:\n        /* \"#utility.yul\":3579:3581   */\n      0x20\n        /* \"#utility.yul\":3574:3577   */\n      dup3\n        /* \"#utility.yul\":3570:3582   */\n      add\n        /* \"#utility.yul\":3563:3582   */\n      swap2\n      pop\n        /* \"#utility.yul\":3592:3667   */\n      tag_209\n        /* \"#utility.yul\":3663:3666   */\n      dup3\n        /* \"#utility.yul\":3654:3660   */\n      dup5\n        /* \"#utility.yul\":3592:3667   */\n      tag_164\n      jump\t// in\n    tag_209:\n        /* \"#utility.yul\":3692:3694   */\n      0x20\n        /* \"#utility.yul\":3687:3690   */\n      dup3\n        /* \"#utility.yul\":3683:3695   */\n      add\n        /* \"#utility.yul\":3676:3695   */\n      swap2\n      pop\n        /* \"#utility.yul\":3712:3715   */\n      dup2\n        /* \"#utility.yul\":3705:3715   */\n      swap1\n      pop\n        /* \"#utility.yul\":3183:3721   */\n      swap5\n      swap4\n      pop\n      pop\n      pop\n      pop\n      jump\t// out\n\n    auxdata: 0xa2646970667358221220794abe8ff8b3a225060306b35f22ad08d992186ac2c02f4131d6a2ddcc4f07b064736f6c634300080f0033\n}\n",
				"bytecode": {
					"linkReferences": {},
					"object": "608060405234801561001057600080fd5b50336000806101000a81548173ffffffffffffffffffffffffffffffffffffffff021916908373ffffffffffffffffffffffffffffffffffffffff160217905550610b61806100606000396000f3fe6080604052600436106100c25760003560e01c80636689c33a1161007f578063bed2e0c311610059578063bed2e0c3146101f2578063e8d182121461020e578063f855aa9e14610218578063ff65d09014610241576100c2565b80636689c33a1461018d5780638da5cb5b146101ab5780638fb17973146101d6576100c2565b806307d0394c146100c757806314fbb92b146100e35780631640e34e146100ff578063374ccd331461011b57806348db5f89146101465780634eca877214610171575b600080fd5b6100e160048036038101906100dc9190610931565b61025d565b005b6100fd60048036038101906100f89190610931565b610301565b005b61011960048036038101906101149190610931565b6103a5565b005b34801561012757600080fd5b50610130610449565b60405161013d919061096d565b60405180910390f35b34801561015257600080fd5b5061015b6104aa565b60405161016891906109c9565b60405180910390f35b61018b60048036038101906101869190610931565b6104d0565b005b610195610574565b6040516101a2919061096d565b60405180910390f35b3480156101b757600080fd5b506101c0610581565b6040516101cd91906109c9565b60405180910390f35b6101f060048036038101906101eb9190610931565b6105a5565b005b61020c60048036038101906102079190610931565b610649565b005b6102166106ee565b005b34801561022457600080fd5b5061023f600480360381019061023a9190610931565b610748565b005b61025b60048036038101906102569190610931565b61081d565b005b670de0b6b3a7640000816102719190610a13565b341461027c57600080fd5b600060266102886108c1565b6102929190610a9c565b905060028110156102fc573373ffffffffffffffffffffffffffffffffffffffff166108fc67f9ccd8a1c5080000846102cb9190610a13565b9081150290604051600060405180830381858888f193505050501580156102f6573d6000803e3d6000fd5b506102fd565b5b5050565b670de0b6b3a7640000816103159190610a13565b341461032057600080fd5b6000602661032c6108c1565b6103369190610a9c565b905060068110156103a0573373ffffffffffffffffffffffffffffffffffffffff166108fc6753444835ec5800008461036f9190610a13565b9081150290604051600060405180830381858888f1935050505015801561039a573d6000803e3d6000fd5b506103a1565b5b5050565b670de0b6b3a7640000816103b99190610a13565b34146103c457600080fd5b600060266103d06108c1565b6103da9190610a9c565b90506012811015610444573373ffffffffffffffffffffffffffffffffffffffff166108fc671bc16d674ec80000846104139190610a13565b9081150290604051600060405180830381858888f1935050505015801561043e573d6000803e3d6000fd5b50610445565b5b5050565b60008060009054906101000a900473ffffffffffffffffffffffffffffffffffffffff1673ffffffffffffffffffffffffffffffffffffffff163373ffffffffffffffffffffffffffffffffffffffff16146104a457600080fd5b47905090565b600160009054906101000a900473ffffffffffffffffffffffffffffffffffffffff1681565b670de0b6b3a7640000816104e49190610a13565b34146104ef57600080fd5b600060266104fb6108c1565b6105059190610a9c565b9050600c81101561056f573373ffffffffffffffffffffffffffffffffffffffff166108fc6729a2241af62c00008461053e9190610a13565b9081150290604051600060405180830381858888f19350505050158015610569573d6000803e3d6000fd5b50610570565b5b5050565b6000803490508091505090565b60008054906101000a900473ffffffffffffffffffffffffffffffffffffffff1681565b670de0b6b3a7640000816105b99190610a13565b34146105c457600080fd5b600060266105d06108c1565b6105da9190610a9c565b90506004811015610644573373ffffffffffffffffffffffffffffffffffffffff166108fc677ce66c50e2840000846106139190610a13565b9081150290604051600060405180830381858888f1935050505015801561063e573d6000803e3d6000fd5b50610645565b5b5050565b670de0b6b3a76400008161065d9190610a13565b341461066857600080fd5b600060266106746108c1565b61067e9190610a9c565b905060018110156106e9573373ffffffffffffffffffffffffffffffffffffffff166108fc6801f399b1438a100000846106b89190610a13565b9081150290604051600060405180830381858888f193505050501580156106e3573d6000803e3d6000fd5b506106ea565b5b5050565b60008054906101000a900473ffffffffffffffffffffffffffffffffffffffff1673ffffffffffffffffffffffffffffffffffffffff163373ffffffffffffffffffffffffffffffffffffffff161461074657600080fd5b565b60008054906101000a900473ffffffffffffffffffffffffffffffffffffffff1673ffffffffffffffffffffffffffffffffffffffff163373ffffffffffffffffffffffffffffffffffffffff16146107a057600080fd5b60008054906101000a900473ffffffffffffffffffffffffffffffffffffffff1673ffffffffffffffffffffffffffffffffffffffff166108fc670de0b6b3a7640000836107ee9190610a13565b9081150290604051600060405180830381858888f19350505050158015610819573d6000803e3d6000fd5b5050565b670de0b6b3a7640000816108319190610a13565b341461083c57600080fd5b600060266108486108c1565b6108529190610a9c565b905060038110156108bc573373ffffffffffffffffffffffffffffffffffffffff166108fc67a688906bd8b000008461088b9190610a13565b9081150290604051600060405180830381858888f193505050501580156108b6573d6000803e3d6000fd5b506108bd565b5b5050565b60004742446040516020016108d893929190610aee565b6040516020818303038152906040528051906020012060001c905090565b600080fd5b6000819050919050565b61090e816108fb565b811461091957600080fd5b50565b60008135905061092b81610905565b92915050565b600060208284031215610947576109466108f6565b5b60006109558482850161091c565b91505092915050565b610967816108fb565b82525050565b6000602082019050610982600083018461095e565b92915050565b600073ffffffffffffffffffffffffffffffffffffffff82169050919050565b60006109b382610988565b9050919050565b6109c3816109a8565b82525050565b60006020820190506109de60008301846109ba565b92915050565b7f4e487b7100000000000000000000000000000000000000000000000000000000600052601160045260246000fd5b6000610a1e826108fb565b9150610a29836108fb565b9250817fffffffffffffffffffffffffffffffffffffffffffffffffffffffffffffffff0483118215151615610a6257610a616109e4565b5b828202905092915050565b7f4e487b7100000000000000000000000000000000000000000000000000000000600052601260045260246000fd5b6000610aa7826108fb565b9150610ab2836108fb565b925082610ac257610ac1610a6d565b5b828206905092915050565b6000819050919050565b610ae8610ae3826108fb565b610acd565b82525050565b6000610afa8286610ad7565b602082019150610b0a8285610ad7565b602082019150610b1a8284610ad7565b60208201915081905094935050505056fea2646970667358221220794abe8ff8b3a225060306b35f22ad08d992186ac2c02f4131d6a2ddcc4f07b064736f6c634300080f0033",
					"opcodes": "PUSH1 0x80 PUSH1 0x40 MSTORE CALLVALUE DUP1 ISZERO PUSH2 0x10 JUMPI PUSH1 0x0 DUP1 REVERT JUMPDEST POP CALLER PUSH1 0x0 DUP1 PUSH2 0x100 EXP DUP2 SLOAD DUP2 PUSH20 0xFFFFFFFFFFFFFFFFFFFFFFFFFFFFFFFFFFFFFFFF MUL NOT AND SWAP1 DUP4 PUSH20 0xFFFFFFFFFFFFFFFFFFFFFFFFFFFFFFFFFFFFFFFF AND MUL OR SWAP1 SSTORE POP PUSH2 0xB61 DUP1 PUSH2 0x60 PUSH1 0x0 CODECOPY PUSH1 0x0 RETURN INVALID PUSH1 0x80 PUSH1 0x40 MSTORE PUSH1 0x4 CALLDATASIZE LT PUSH2 0xC2 JUMPI PUSH1 0x0 CALLDATALOAD PUSH1 0xE0 SHR DUP1 PUSH4 0x6689C33A GT PUSH2 0x7F JUMPI DUP1 PUSH4 0xBED2E0C3 GT PUSH2 0x59 JUMPI DUP1 PUSH4 0xBED2E0C3 EQ PUSH2 0x1F2 JUMPI DUP1 PUSH4 0xE8D18212 EQ PUSH2 0x20E JUMPI DUP1 PUSH4 0xF855AA9E EQ PUSH2 0x218 JUMPI DUP1 PUSH4 0xFF65D090 EQ PUSH2 0x241 JUMPI PUSH2 0xC2 JUMP JUMPDEST DUP1 PUSH4 0x6689C33A EQ PUSH2 0x18D JUMPI DUP1 PUSH4 0x8DA5CB5B EQ PUSH2 0x1AB JUMPI DUP1 PUSH4 0x8FB17973 EQ PUSH2 0x1D6 JUMPI PUSH2 0xC2 JUMP JUMPDEST DUP1 PUSH4 0x7D0394C EQ PUSH2 0xC7 JUMPI DUP1 PUSH4 0x14FBB92B EQ PUSH2 0xE3 JUMPI DUP1 PUSH4 0x1640E34E EQ PUSH2 0xFF JUMPI DUP1 PUSH4 0x374CCD33 EQ PUSH2 0x11B JUMPI DUP1 PUSH4 0x48DB5F89 EQ PUSH2 0x146 JUMPI DUP1 PUSH4 0x4ECA8772 EQ PUSH2 0x171 JUMPI JUMPDEST PUSH1 0x0 DUP1 REVERT JUMPDEST PUSH2 0xE1 PUSH1 0x4 DUP1 CALLDATASIZE SUB DUP2 ADD SWAP1 PUSH2 0xDC SWAP2 SWAP1 PUSH2 0x931 JUMP JUMPDEST PUSH2 0x25D JUMP JUMPDEST STOP JUMPDEST PUSH2 0xFD PUSH1 0x4 DUP1 CALLDATASIZE SUB DUP2 ADD SWAP1 PUSH2 0xF8 SWAP2 SWAP1 PUSH2 0x931 JUMP JUMPDEST PUSH2 0x301 JUMP JUMPDEST STOP JUMPDEST PUSH2 0x119 PUSH1 0x4 DUP1 CALLDATASIZE SUB DUP2 ADD SWAP1 PUSH2 0x114 SWAP2 SWAP1 PUSH2 0x931 JUMP JUMPDEST PUSH2 0x3A5 JUMP JUMPDEST STOP JUMPDEST CALLVALUE DUP1 ISZERO PUSH2 0x127 JUMPI PUSH1 0x0 DUP1 REVERT JUMPDEST POP PUSH2 0x130 PUSH2 0x449 JUMP JUMPDEST PUSH1 0x40 MLOAD PUSH2 0x13D SWAP2 SWAP1 PUSH2 0x96D JUMP JUMPDEST PUSH1 0x40 MLOAD DUP1 SWAP2 SUB SWAP1 RETURN JUMPDEST CALLVALUE DUP1 ISZERO PUSH2 0x152 JUMPI PUSH1 0x0 DUP1 REVERT JUMPDEST POP PUSH2 0x15B PUSH2 0x4AA JUMP JUMPDEST PUSH1 0x40 MLOAD PUSH2 0x168 SWAP2 SWAP1 PUSH2 0x9C9 JUMP JUMPDEST PUSH1 0x40 MLOAD DUP1 SWAP2 SUB SWAP1 RETURN JUMPDEST PUSH2 0x18B PUSH1 0x4 DUP1 CALLDATASIZE SUB DUP2 ADD SWAP1 PUSH2 0x186 SWAP2 SWAP1 PUSH2 0x931 JUMP JUMPDEST PUSH2 0x4D0 JUMP JUMPDEST STOP JUMPDEST PUSH2 0x195 PUSH2 0x574 JUMP JUMPDEST PUSH1 0x40 MLOAD PUSH2 0x1A2 SWAP2 SWAP1 PUSH2 0x96D JUMP JUMPDEST PUSH1 0x40 MLOAD DUP1 SWAP2 SUB SWAP1 RETURN JUMPDEST CALLVALUE DUP1 ISZERO PUSH2 0x1B7 JUMPI PUSH1 0x0 DUP1 REVERT JUMPDEST POP PUSH2 0x1C0 PUSH2 0x581 JUMP JUMPDEST PUSH1 0x40 MLOAD PUSH2 0x1CD SWAP2 SWAP1 PUSH2 0x9C9 JUMP JUMPDEST PUSH1 0x40 MLOAD DUP1 SWAP2 SUB SWAP1 RETURN JUMPDEST PUSH2 0x1F0 PUSH1 0x4 DUP1 CALLDATASIZE SUB DUP2 ADD SWAP1 PUSH2 0x1EB SWAP2 SWAP1 PUSH2 0x931 JUMP JUMPDEST PUSH2 0x5A5 JUMP JUMPDEST STOP JUMPDEST PUSH2 0x20C PUSH1 0x4 DUP1 CALLDATASIZE SUB DUP2 ADD SWAP1 PUSH2 0x207 SWAP2 SWAP1 PUSH2 0x931 JUMP JUMPDEST PUSH2 0x649 JUMP JUMPDEST STOP JUMPDEST PUSH2 0x216 PUSH2 0x6EE JUMP JUMPDEST STOP JUMPDEST CALLVALUE DUP1 ISZERO PUSH2 0x224 JUMPI PUSH1 0x0 DUP1 REVERT JUMPDEST POP PUSH2 0x23F PUSH1 0x4 DUP1 CALLDATASIZE SUB DUP2 ADD SWAP1 PUSH2 0x23A SWAP2 SWAP1 PUSH2 0x931 JUMP JUMPDEST PUSH2 0x748 JUMP JUMPDEST STOP JUMPDEST PUSH2 0x25B PUSH1 0x4 DUP1 CALLDATASIZE SUB DUP2 ADD SWAP1 PUSH2 0x256 SWAP2 SWAP1 PUSH2 0x931 JUMP JUMPDEST PUSH2 0x81D JUMP JUMPDEST STOP JUMPDEST PUSH8 0xDE0B6B3A7640000 DUP2 PUSH2 0x271 SWAP2 SWAP1 PUSH2 0xA13 JUMP JUMPDEST CALLVALUE EQ PUSH2 0x27C JUMPI PUSH1 0x0 DUP1 REVERT JUMPDEST PUSH1 0x0 PUSH1 0x26 PUSH2 0x288 PUSH2 0x8C1 JUMP JUMPDEST PUSH2 0x292 SWAP2 SWAP1 PUSH2 0xA9C JUMP JUMPDEST SWAP1 POP PUSH1 0x2 DUP2 LT ISZERO PUSH2 0x2FC JUMPI CALLER PUSH20 0xFFFFFFFFFFFFFFFFFFFFFFFFFFFFFFFFFFFFFFFF AND PUSH2 0x8FC PUSH8 0xF9CCD8A1C5080000 DUP5 PUSH2 0x2CB SWAP2 SWAP1 PUSH2 0xA13 JUMP JUMPDEST SWAP1 DUP2 ISZERO MUL SWAP1 PUSH1 0x40 MLOAD PUSH1 0x0 PUSH1 0x40 MLOAD DUP1 DUP4 SUB DUP2 DUP6 DUP9 DUP9 CALL SWAP4 POP POP POP POP ISZERO DUP1 ISZERO PUSH2 0x2F6 JUMPI RETURNDATASIZE PUSH1 0x0 DUP1 RETURNDATACOPY RETURNDATASIZE PUSH1 0x0 REVERT JUMPDEST POP PUSH2 0x2FD JUMP JUMPDEST JUMPDEST POP POP JUMP JUMPDEST PUSH8 0xDE0B6B3A7640000 DUP2 PUSH2 0x315 SWAP2 SWAP1 PUSH2 0xA13 JUMP JUMPDEST CALLVALUE EQ PUSH2 0x320 JUMPI PUSH1 0x0 DUP1 REVERT JUMPDEST PUSH1 0x0 PUSH1 0x26 PUSH2 0x32C PUSH2 0x8C1 JUMP JUMPDEST PUSH2 0x336 SWAP2 SWAP1 PUSH2 0xA9C JUMP JUMPDEST SWAP1 POP PUSH1 0x6 DUP2 LT ISZERO PUSH2 0x3A0 JUMPI CALLER PUSH20 0xFFFFFFFFFFFFFFFFFFFFFFFFFFFFFFFFFFFFFFFF AND PUSH2 0x8FC PUSH8 0x53444835EC580000 DUP5 PUSH2 0x36F SWAP2 SWAP1 PUSH2 0xA13 JUMP JUMPDEST SWAP1 DUP2 ISZERO MUL SWAP1 PUSH1 0x40 MLOAD PUSH1 0x0 PUSH1 0x40 MLOAD DUP1 DUP4 SUB DUP2 DUP6 DUP9 DUP9 CALL SWAP4 POP POP POP POP ISZERO DUP1 ISZERO PUSH2 0x39A JUMPI RETURNDATASIZE PUSH1 0x0 DUP1 RETURNDATACOPY RETURNDATASIZE PUSH1 0x0 REVERT JUMPDEST POP PUSH2 0x3A1 JUMP JUMPDEST JUMPDEST POP POP JUMP JUMPDEST PUSH8 0xDE0B6B3A7640000 DUP2 PUSH2 0x3B9 SWAP2 SWAP1 PUSH2 0xA13 JUMP JUMPDEST CALLVALUE EQ PUSH2 0x3C4 JUMPI PUSH1 0x0 DUP1 REVERT JUMPDEST PUSH1 0x0 PUSH1 0x26 PUSH2 0x3D0 PUSH2 0x8C1 JUMP JUMPDEST PUSH2 0x3DA SWAP2 SWAP1 PUSH2 0xA9C JUMP JUMPDEST SWAP1 POP PUSH1 0x12 DUP2 LT ISZERO PUSH2 0x444 JUMPI CALLER PUSH20 0xFFFFFFFFFFFFFFFFFFFFFFFFFFFFFFFFFFFFFFFF AND PUSH2 0x8FC PUSH8 0x1BC16D674EC80000 DUP5 PUSH2 0x413 SWAP2 SWAP1 PUSH2 0xA13 JUMP JUMPDEST SWAP1 DUP2 ISZERO MUL SWAP1 PUSH1 0x40 MLOAD PUSH1 0x0 PUSH1 0x40 MLOAD DUP1 DUP4 SUB DUP2 DUP6 DUP9 DUP9 CALL SWAP4 POP POP POP POP ISZERO DUP1 ISZERO PUSH2 0x43E JUMPI RETURNDATASIZE PUSH1 0x0 DUP1 RETURNDATACOPY RETURNDATASIZE PUSH1 0x0 REVERT JUMPDEST POP PUSH2 0x445 JUMP JUMPDEST JUMPDEST POP POP JUMP JUMPDEST PUSH1 0x0 DUP1 PUSH1 0x0 SWAP1 SLOAD SWAP1 PUSH2 0x100 EXP SWAP1 DIV PUSH20 0xFFFFFFFFFFFFFFFFFFFFFFFFFFFFFFFFFFFFFFFF AND PUSH20 0xFFFFFFFFFFFFFFFFFFFFFFFFFFFFFFFFFFFFFFFF AND CALLER PUSH20 0xFFFFFFFFFFFFFFFFFFFFFFFFFFFFFFFFFFFFFFFF AND EQ PUSH2 0x4A4 JUMPI PUSH1 0x0 DUP1 REVERT JUMPDEST SELFBALANCE SWAP1 POP SWAP1 JUMP JUMPDEST PUSH1 0x1 PUSH1 0x0 SWAP1 SLOAD SWAP1 PUSH2 0x100 EXP SWAP1 DIV PUSH20 0xFFFFFFFFFFFFFFFFFFFFFFFFFFFFFFFFFFFFFFFF AND DUP2 JUMP JUMPDEST PUSH8 0xDE0B6B3A7640000 DUP2 PUSH2 0x4E4 SWAP2 SWAP1 PUSH2 0xA13 JUMP JUMPDEST CALLVALUE EQ PUSH2 0x4EF JUMPI PUSH1 0x0 DUP1 REVERT JUMPDEST PUSH1 0x0 PUSH1 0x26 PUSH2 0x4FB PUSH2 0x8C1 JUMP JUMPDEST PUSH2 0x505 SWAP2 SWAP1 PUSH2 0xA9C JUMP JUMPDEST SWAP1 POP PUSH1 0xC DUP2 LT ISZERO PUSH2 0x56F JUMPI CALLER PUSH20 0xFFFFFFFFFFFFFFFFFFFFFFFFFFFFFFFFFFFFFFFF AND PUSH2 0x8FC PUSH8 0x29A2241AF62C0000 DUP5 PUSH2 0x53E SWAP2 SWAP1 PUSH2 0xA13 JUMP JUMPDEST SWAP1 DUP2 ISZERO MUL SWAP1 PUSH1 0x40 MLOAD PUSH1 0x0 PUSH1 0x40 MLOAD DUP1 DUP4 SUB DUP2 DUP6 DUP9 DUP9 CALL SWAP4 POP POP POP POP ISZERO DUP1 ISZERO PUSH2 0x569 JUMPI RETURNDATASIZE PUSH1 0x0 DUP1 RETURNDATACOPY RETURNDATASIZE PUSH1 0x0 REVERT JUMPDEST POP PUSH2 0x570 JUMP JUMPDEST JUMPDEST POP POP JUMP JUMPDEST PUSH1 0x0 DUP1 CALLVALUE SWAP1 POP DUP1 SWAP2 POP POP SWAP1 JUMP JUMPDEST PUSH1 0x0 DUP1 SLOAD SWAP1 PUSH2 0x100 EXP SWAP1 DIV PUSH20 0xFFFFFFFFFFFFFFFFFFFFFFFFFFFFFFFFFFFFFFFF AND DUP2 JUMP JUMPDEST PUSH8 0xDE0B6B3A7640000 DUP2 PUSH2 0x5B9 SWAP2 SWAP1 PUSH2 0xA13 JUMP JUMPDEST CALLVALUE EQ PUSH2 0x5C4 JUMPI PUSH1 0x0 DUP1 REVERT JUMPDEST PUSH1 0x0 PUSH1 0x26 PUSH2 0x5D0 PUSH2 0x8C1 JUMP JUMPDEST PUSH2 0x5DA SWAP2 SWAP1 PUSH2 0xA9C JUMP JUMPDEST SWAP1 POP PUSH1 0x4 DUP2 LT ISZERO PUSH2 0x644 JUMPI CALLER PUSH20 0xFFFFFFFFFFFFFFFFFFFFFFFFFFFFFFFFFFFFFFFF AND PUSH2 0x8FC PUSH8 0x7CE66C50E2840000 DUP5 PUSH2 0x613 SWAP2 SWAP1 PUSH2 0xA13 JUMP JUMPDEST SWAP1 DUP2 ISZERO MUL SWAP1 PUSH1 0x40 MLOAD PUSH1 0x0 PUSH1 0x40 MLOAD DUP1 DUP4 SUB DUP2 DUP6 DUP9 DUP9 CALL SWAP4 POP POP POP POP ISZERO DUP1 ISZERO PUSH2 0x63E JUMPI RETURNDATASIZE PUSH1 0x0 DUP1 RETURNDATACOPY RETURNDATASIZE PUSH1 0x0 REVERT JUMPDEST POP PUSH2 0x645 JUMP JUMPDEST JUMPDEST POP POP JUMP JUMPDEST PUSH8 0xDE0B6B3A7640000 DUP2 PUSH2 0x65D SWAP2 SWAP1 PUSH2 0xA13 JUMP JUMPDEST CALLVALUE EQ PUSH2 0x668 JUMPI PUSH1 0x0 DUP1 REVERT JUMPDEST PUSH1 0x0 PUSH1 0x26 PUSH2 0x674 PUSH2 0x8C1 JUMP JUMPDEST PUSH2 0x67E SWAP2 SWAP1 PUSH2 0xA9C JUMP JUMPDEST SWAP1 POP PUSH1 0x1 DUP2 LT ISZERO PUSH2 0x6E9 JUMPI CALLER PUSH20 0xFFFFFFFFFFFFFFFFFFFFFFFFFFFFFFFFFFFFFFFF AND PUSH2 0x8FC PUSH9 0x1F399B1438A100000 DUP5 PUSH2 0x6B8 SWAP2 SWAP1 PUSH2 0xA13 JUMP JUMPDEST SWAP1 DUP2 ISZERO MUL SWAP1 PUSH1 0x40 MLOAD PUSH1 0x0 PUSH1 0x40 MLOAD DUP1 DUP4 SUB DUP2 DUP6 DUP9 DUP9 CALL SWAP4 POP POP POP POP ISZERO DUP1 ISZERO PUSH2 0x6E3 JUMPI RETURNDATASIZE PUSH1 0x0 DUP1 RETURNDATACOPY RETURNDATASIZE PUSH1 0x0 REVERT JUMPDEST POP PUSH2 0x6EA JUMP JUMPDEST JUMPDEST POP POP JUMP JUMPDEST PUSH1 0x0 DUP1 SLOAD SWAP1 PUSH2 0x100 EXP SWAP1 DIV PUSH20 0xFFFFFFFFFFFFFFFFFFFFFFFFFFFFFFFFFFFFFFFF AND PUSH20 0xFFFFFFFFFFFFFFFFFFFFFFFFFFFFFFFFFFFFFFFF AND CALLER PUSH20 0xFFFFFFFFFFFFFFFFFFFFFFFFFFFFFFFFFFFFFFFF AND EQ PUSH2 0x746 JUMPI PUSH1 0x0 DUP1 REVERT JUMPDEST JUMP JUMPDEST PUSH1 0x0 DUP1 SLOAD SWAP1 PUSH2 0x100 EXP SWAP1 DIV PUSH20 0xFFFFFFFFFFFFFFFFFFFFFFFFFFFFFFFFFFFFFFFF AND PUSH20 0xFFFFFFFFFFFFFFFFFFFFFFFFFFFFFFFFFFFFFFFF AND CALLER PUSH20 0xFFFFFFFFFFFFFFFFFFFFFFFFFFFFFFFFFFFFFFFF AND EQ PUSH2 0x7A0 JUMPI PUSH1 0x0 DUP1 REVERT JUMPDEST PUSH1 0x0 DUP1 SLOAD SWAP1 PUSH2 0x100 EXP SWAP1 DIV PUSH20 0xFFFFFFFFFFFFFFFFFFFFFFFFFFFFFFFFFFFFFFFF AND PUSH20 0xFFFFFFFFFFFFFFFFFFFFFFFFFFFFFFFFFFFFFFFF AND PUSH2 0x8FC PUSH8 0xDE0B6B3A7640000 DUP4 PUSH2 0x7EE SWAP2 SWAP1 PUSH2 0xA13 JUMP JUMPDEST SWAP1 DUP2 ISZERO MUL SWAP1 PUSH1 0x40 MLOAD PUSH1 0x0 PUSH1 0x40 MLOAD DUP1 DUP4 SUB DUP2 DUP6 DUP9 DUP9 CALL SWAP4 POP POP POP POP ISZERO DUP1 ISZERO PUSH2 0x819 JUMPI RETURNDATASIZE PUSH1 0x0 DUP1 RETURNDATACOPY RETURNDATASIZE PUSH1 0x0 REVERT JUMPDEST POP POP JUMP JUMPDEST PUSH8 0xDE0B6B3A7640000 DUP2 PUSH2 0x831 SWAP2 SWAP1 PUSH2 0xA13 JUMP JUMPDEST CALLVALUE EQ PUSH2 0x83C JUMPI PUSH1 0x0 DUP1 REVERT JUMPDEST PUSH1 0x0 PUSH1 0x26 PUSH2 0x848 PUSH2 0x8C1 JUMP JUMPDEST PUSH2 0x852 SWAP2 SWAP1 PUSH2 0xA9C JUMP JUMPDEST SWAP1 POP PUSH1 0x3 DUP2 LT ISZERO PUSH2 0x8BC JUMPI CALLER PUSH20 0xFFFFFFFFFFFFFFFFFFFFFFFFFFFFFFFFFFFFFFFF AND PUSH2 0x8FC PUSH8 0xA688906BD8B00000 DUP5 PUSH2 0x88B SWAP2 SWAP1 PUSH2 0xA13 JUMP JUMPDEST SWAP1 DUP2 ISZERO MUL SWAP1 PUSH1 0x40 MLOAD PUSH1 0x0 PUSH1 0x40 MLOAD DUP1 DUP4 SUB DUP2 DUP6 DUP9 DUP9 CALL SWAP4 POP POP POP POP ISZERO DUP1 ISZERO PUSH2 0x8B6 JUMPI RETURNDATASIZE PUSH1 0x0 DUP1 RETURNDATACOPY RETURNDATASIZE PUSH1 0x0 REVERT JUMPDEST POP PUSH2 0x8BD JUMP JUMPDEST JUMPDEST POP POP JUMP JUMPDEST PUSH1 0x0 SELFBALANCE TIMESTAMP DIFFICULTY PUSH1 0x40 MLOAD PUSH1 0x20 ADD PUSH2 0x8D8 SWAP4 SWAP3 SWAP2 SWAP1 PUSH2 0xAEE JUMP JUMPDEST PUSH1 0x40 MLOAD PUSH1 0x20 DUP2 DUP4 SUB SUB DUP2 MSTORE SWAP1 PUSH1 0x40 MSTORE DUP1 MLOAD SWAP1 PUSH1 0x20 ADD KECCAK256 PUSH1 0x0 SHR SWAP1 POP SWAP1 JUMP JUMPDEST PUSH1 0x0 DUP1 REVERT JUMPDEST PUSH1 0x0 DUP2 SWAP1 POP SWAP2 SWAP1 POP JUMP JUMPDEST PUSH2 0x90E DUP2 PUSH2 0x8FB JUMP JUMPDEST DUP2 EQ PUSH2 0x919 JUMPI PUSH1 0x0 DUP1 REVERT JUMPDEST POP JUMP JUMPDEST PUSH1 0x0 DUP2 CALLDATALOAD SWAP1 POP PUSH2 0x92B DUP2 PUSH2 0x905 JUMP JUMPDEST SWAP3 SWAP2 POP POP JUMP JUMPDEST PUSH1 0x0 PUSH1 0x20 DUP3 DUP5 SUB SLT ISZERO PUSH2 0x947 JUMPI PUSH2 0x946 PUSH2 0x8F6 JUMP JUMPDEST JUMPDEST PUSH1 0x0 PUSH2 0x955 DUP5 DUP3 DUP6 ADD PUSH2 0x91C JUMP JUMPDEST SWAP2 POP POP SWAP3 SWAP2 POP POP JUMP JUMPDEST PUSH2 0x967 DUP2 PUSH2 0x8FB JUMP JUMPDEST DUP3 MSTORE POP POP JUMP JUMPDEST PUSH1 0x0 PUSH1 0x20 DUP3 ADD SWAP1 POP PUSH2 0x982 PUSH1 0x0 DUP4 ADD DUP5 PUSH2 0x95E JUMP JUMPDEST SWAP3 SWAP2 POP POP JUMP JUMPDEST PUSH1 0x0 PUSH20 0xFFFFFFFFFFFFFFFFFFFFFFFFFFFFFFFFFFFFFFFF DUP3 AND SWAP1 POP SWAP2 SWAP1 POP JUMP JUMPDEST PUSH1 0x0 PUSH2 0x9B3 DUP3 PUSH2 0x988 JUMP JUMPDEST SWAP1 POP SWAP2 SWAP1 POP JUMP JUMPDEST PUSH2 0x9C3 DUP2 PUSH2 0x9A8 JUMP JUMPDEST DUP3 MSTORE POP POP JUMP JUMPDEST PUSH1 0x0 PUSH1 0x20 DUP3 ADD SWAP1 POP PUSH2 0x9DE PUSH1 0x0 DUP4 ADD DUP5 PUSH2 0x9BA JUMP JUMPDEST SWAP3 SWAP2 POP POP JUMP JUMPDEST PUSH32 0x4E487B7100000000000000000000000000000000000000000000000000000000 PUSH1 0x0 MSTORE PUSH1 0x11 PUSH1 0x4 MSTORE PUSH1 0x24 PUSH1 0x0 REVERT JUMPDEST PUSH1 0x0 PUSH2 0xA1E DUP3 PUSH2 0x8FB JUMP JUMPDEST SWAP2 POP PUSH2 0xA29 DUP4 PUSH2 0x8FB JUMP JUMPDEST SWAP3 POP DUP2 PUSH32 0xFFFFFFFFFFFFFFFFFFFFFFFFFFFFFFFFFFFFFFFFFFFFFFFFFFFFFFFFFFFFFFFF DIV DUP4 GT DUP3 ISZERO ISZERO AND ISZERO PUSH2 0xA62 JUMPI PUSH2 0xA61 PUSH2 0x9E4 JUMP JUMPDEST JUMPDEST DUP3 DUP3 MUL SWAP1 POP SWAP3 SWAP2 POP POP JUMP JUMPDEST PUSH32 0x4E487B7100000000000000000000000000000000000000000000000000000000 PUSH1 0x0 MSTORE PUSH1 0x12 PUSH1 0x4 MSTORE PUSH1 0x24 PUSH1 0x0 REVERT JUMPDEST PUSH1 0x0 PUSH2 0xAA7 DUP3 PUSH2 0x8FB JUMP JUMPDEST SWAP2 POP PUSH2 0xAB2 DUP4 PUSH2 0x8FB JUMP JUMPDEST SWAP3 POP DUP3 PUSH2 0xAC2 JUMPI PUSH2 0xAC1 PUSH2 0xA6D JUMP JUMPDEST JUMPDEST DUP3 DUP3 MOD SWAP1 POP SWAP3 SWAP2 POP POP JUMP JUMPDEST PUSH1 0x0 DUP2 SWAP1 POP SWAP2 SWAP1 POP JUMP JUMPDEST PUSH2 0xAE8 PUSH2 0xAE3 DUP3 PUSH2 0x8FB JUMP JUMPDEST PUSH2 0xACD JUMP JUMPDEST DUP3 MSTORE POP POP JUMP JUMPDEST PUSH1 0x0 PUSH2 0xAFA DUP3 DUP7 PUSH2 0xAD7 JUMP JUMPDEST PUSH1 0x20 DUP3 ADD SWAP2 POP PUSH2 0xB0A DUP3 DUP6 PUSH2 0xAD7 JUMP JUMPDEST PUSH1 0x20 DUP3 ADD SWAP2 POP PUSH2 0xB1A DUP3 DUP5 PUSH2 0xAD7 JUMP JUMPDEST PUSH1 0x20 DUP3 ADD SWAP2 POP DUP2 SWAP1 POP SWAP5 SWAP4 POP POP POP POP JUMP INVALID LOG2 PUSH5 0x6970667358 0x22 SLT KECCAK256 PUSH26 0x4ABE8FF8B3A225060306B35F22AD08D992186AC2C02F4131D6A2 0xDD 0xCC 0x4F SMOD 0xB0 PUSH5 0x736F6C6343 STOP ADDMOD 0xF STOP CALLER "
				},
				"gasEstimates": {
					"creation": {
						"codeDepositCost": "582600",
						"executionCost": "24885",
						"totalCost": "607485"
					},
					"external": {
						"AAA_test()": "348",
						"A_oneToOne(uint256)": "infinite",
						"B_twoToOne(uint256)": "infinite",
						"C_fiveToOne(uint256)": "infinite",
						"D_eightToOne(uint256)": "infinite",
						"E_elevenToOne(uint256)": "infinite",
						"F_seventeenToOne(uint256)": "infinite",
						"G_thirtyfiveToOne(uint256)": "infinite",
						"H_deposit()": "2331",
						"I_withdraw(uint256)": "infinite",
						"J_getBalance()": "2576",
						"owner()": "2556",
						"player()": "2603"
					},
					"internal": {
						"getRandomNumber()": "infinite"
					}
				},
				"methodIdentifiers": {
					"AAA_test()": "6689c33a",
					"A_oneToOne(uint256)": "1640e34e",
					"B_twoToOne(uint256)": "4eca8772",
					"C_fiveToOne(uint256)": "14fbb92b",
					"D_eightToOne(uint256)": "8fb17973",
					"E_elevenToOne(uint256)": "ff65d090",
					"F_seventeenToOne(uint256)": "07d0394c",
					"G_thirtyfiveToOne(uint256)": "bed2e0c3",
					"H_deposit()": "e8d18212",
					"I_withdraw(uint256)": "f855aa9e",
					"J_getBalance()": "374ccd33",
					"owner()": "8da5cb5b",
					"player()": "48db5f89"
				}
			},
			"storageLayout": {
				"storage": [
					{
						"astId": 3,
						"contract": "Documents/Web3/Casino/002 Roulette.sol:Roulette",
						"label": "owner",
						"offset": 0,
						"slot": "0",
						"type": "t_address_payable"
					},
					{
						"astId": 5,
						"contract": "Documents/Web3/Casino/002 Roulette.sol:Roulette",
						"label": "player",
						"offset": 0,
						"slot": "1",
						"type": "t_address_payable"
					}
				],
				"types": {
					"t_address_payable": {
						"encoding": "inplace",
						"label": "address payable",
						"numberOfBytes": "20"
					}
				}
			},
			"userdoc": {
				"kind": "user",
				"methods": {},
				"version": 1
			}
		}
	}
}