{
	"Documents/Web3/Casino/001 Lottery.sol": {
		"lottery": {
			"abi": [
				{
					"inputs": [],
					"stateMutability": "nonpayable",
					"type": "constructor"
				},
				{
					"inputs": [
						{
							"internalType": "uint256",
							"name": "amount",
							"type": "uint256"
						}
					],
					"name": "enter",
					"outputs": [],
					"stateMutability": "payable",
					"type": "function"
				},
				{
					"inputs": [
						{
							"internalType": "uint256",
							"name": "",
							"type": "uint256"
						}
					],
					"name": "entries",
					"outputs": [
						{
							"internalType": "address payable",
							"name": "",
							"type": "address"
						}
					],
					"stateMutability": "view",
					"type": "function"
				},
				{
					"inputs": [],
					"name": "getBalance",
					"outputs": [
						{
							"internalType": "uint256",
							"name": "",
							"type": "uint256"
						}
					],
					"stateMutability": "view",
					"type": "function"
				},
				{
					"inputs": [],
					"name": "getEntries",
					"outputs": [
						{
							"internalType": "uint256",
							"name": "",
							"type": "uint256"
						}
					],
					"stateMutability": "view",
					"type": "function"
				},
				{
					"inputs": [],
					"name": "getPlayers",
					"outputs": [
						{
							"internalType": "address payable[]",
							"name": "",
							"type": "address[]"
						}
					],
					"stateMutability": "view",
					"type": "function"
				},
				{
					"inputs": [],
					"name": "owner",
					"outputs": [
						{
							"internalType": "address",
							"name": "",
							"type": "address"
						}
					],
					"stateMutability": "view",
					"type": "function"
				},
				{
					"inputs": [
						{
							"internalType": "uint256",
							"name": "additionalEntries",
							"type": "uint256"
						}
					],
					"name": "playerOdds",
					"outputs": [
						{
							"internalType": "uint256",
							"name": "",
							"type": "uint256"
						}
					],
					"stateMutability": "view",
					"type": "function"
				},
				{
					"inputs": [],
					"name": "rng",
					"outputs": [
						{
							"internalType": "uint256",
							"name": "",
							"type": "uint256"
						}
					],
					"stateMutability": "view",
					"type": "function"
				},
				{
					"inputs": [],
					"name": "selectWinner",
					"outputs": [],
					"stateMutability": "nonpayable",
					"type": "function"
				}
			],
			"devdoc": {
				"kind": "dev",
				"methods": {},
				"version": 1
			},
			"evm": {
				"assembly": "    /* \"Documents/Web3/Casino/001 Lottery.sol\":65:2086  contract lottery {... */\n  mstore(0x40, 0x80)\n    /* \"Documents/Web3/Casino/001 Lottery.sol\":284:333  constructor() {... */\n  callvalue\n  dup1\n  iszero\n  tag_1\n  jumpi\n  0x00\n  dup1\n  revert\ntag_1:\n  pop\n    /* \"Documents/Web3/Casino/001 Lottery.sol\":316:326  msg.sender */\n  caller\n    /* \"Documents/Web3/Casino/001 Lottery.sol\":308:313  owner */\n  0x00\n  dup1\n    /* \"Documents/Web3/Casino/001 Lottery.sol\":308:326  owner = msg.sender */\n  0x0100\n  exp\n  dup2\n  sload\n  dup2\n  0xffffffffffffffffffffffffffffffffffffffff\n  mul\n  not\n  and\n  swap1\n  dup4\n  0xffffffffffffffffffffffffffffffffffffffff\n  and\n  mul\n  or\n  swap1\n  sstore\n  pop\n    /* \"Documents/Web3/Casino/001 Lottery.sol\":65:2086  contract lottery {... */\n  dataSize(sub_0)\n  dup1\n  dataOffset(sub_0)\n  0x00\n  codecopy\n  0x00\n  return\nstop\n\nsub_0: assembly {\n        /* \"Documents/Web3/Casino/001 Lottery.sol\":65:2086  contract lottery {... */\n      mstore(0x40, 0x80)\n      jumpi(tag_1, lt(calldatasize, 0x04))\n      shr(0xe0, calldataload(0x00))\n      dup1\n      0x8da5cb5b\n      gt\n      tag_11\n      jumpi\n      dup1\n      0x8da5cb5b\n      eq\n      tag_6\n      jumpi\n      dup1\n      0xa59f3e0c\n      eq\n      tag_7\n      jumpi\n      dup1\n      0xacbbd7c0\n      eq\n      tag_8\n      jumpi\n      dup1\n      0xb30906d4\n      eq\n      tag_9\n      jumpi\n      dup1\n      0xd605787b\n      eq\n      tag_10\n      jumpi\n      jump(tag_1)\n    tag_11:\n      dup1\n      0x12065fe0\n      eq\n      tag_2\n      jumpi\n      dup1\n      0x17be85c3\n      eq\n      tag_3\n      jumpi\n      dup1\n      0x33a99e04\n      eq\n      tag_4\n      jumpi\n      dup1\n      0x8b5b9ccc\n      eq\n      tag_5\n      jumpi\n    tag_1:\n      0x00\n      dup1\n      revert\n        /* \"Documents/Web3/Casino/001 Lottery.sol\":1732:1826  function getBalance() public view returns (uint) {... */\n    tag_2:\n      callvalue\n      dup1\n      iszero\n      tag_12\n      jumpi\n      0x00\n      dup1\n      revert\n    tag_12:\n      pop\n      tag_13\n      tag_14\n      jump\t// in\n    tag_13:\n      mload(0x40)\n      tag_15\n      swap2\n      swap1\n      tag_16\n      jump\t// in\n    tag_15:\n      mload(0x40)\n      dup1\n      swap2\n      sub\n      swap1\n      return\n        /* \"Documents/Web3/Casino/001 Lottery.sol\":1891:1978  function getEntries() public view returns (uint) {... */\n    tag_3:\n      callvalue\n      dup1\n      iszero\n      tag_17\n      jumpi\n      0x00\n      dup1\n      revert\n    tag_17:\n      pop\n      tag_18\n      tag_19\n      jump\t// in\n    tag_18:\n      mload(0x40)\n      tag_20\n      swap2\n      swap1\n      tag_16\n      jump\t// in\n    tag_20:\n      mload(0x40)\n      dup1\n      swap2\n      sub\n      swap1\n      return\n        /* \"Documents/Web3/Casino/001 Lottery.sol\":1087:1411  function selectWinner() public onlyOwner {... */\n    tag_4:\n      callvalue\n      dup1\n      iszero\n      tag_21\n      jumpi\n      0x00\n      dup1\n      revert\n    tag_21:\n      pop\n      tag_22\n      tag_23\n      jump\t// in\n    tag_22:\n      stop\n        /* \"Documents/Web3/Casino/001 Lottery.sol\":1984:2084  function getPlayers() public view returns (address payable[] memory) {... */\n    tag_5:\n      callvalue\n      dup1\n      iszero\n      tag_24\n      jumpi\n      0x00\n      dup1\n      revert\n    tag_24:\n      pop\n      tag_25\n      tag_26\n      jump\t// in\n    tag_25:\n      mload(0x40)\n      tag_27\n      swap2\n      swap1\n      tag_28\n      jump\t// in\n    tag_27:\n      mload(0x40)\n      dup1\n      swap2\n      sub\n      swap1\n      return\n        /* \"Documents/Web3/Casino/001 Lottery.sol\":106:126  address public owner */\n    tag_6:\n      callvalue\n      dup1\n      iszero\n      tag_29\n      jumpi\n      0x00\n      dup1\n      revert\n    tag_29:\n      pop\n      tag_30\n      tag_31\n      jump\t// in\n    tag_30:\n      mload(0x40)\n      tag_32\n      swap2\n      swap1\n      tag_33\n      jump\t// in\n    tag_32:\n      mload(0x40)\n      dup1\n      swap2\n      sub\n      swap1\n      return\n        /* \"Documents/Web3/Casino/001 Lottery.sol\":601:877  function enter(uint amount) public payable {... */\n    tag_7:\n      tag_34\n      0x04\n      dup1\n      calldatasize\n      sub\n      dup2\n      add\n      swap1\n      tag_35\n      swap2\n      swap1\n      tag_36\n      jump\t// in\n    tag_35:\n      tag_37\n      jump\t// in\n    tag_34:\n      stop\n        /* \"Documents/Web3/Casino/001 Lottery.sol\":1513:1692  function playerOdds(uint additionalEntries) public view returns (uint) {... */\n    tag_8:\n      callvalue\n      dup1\n      iszero\n      tag_38\n      jumpi\n      0x00\n      dup1\n      revert\n    tag_38:\n      pop\n      tag_39\n      0x04\n      dup1\n      calldatasize\n      sub\n      dup2\n      add\n      swap1\n      tag_40\n      swap2\n      swap1\n      tag_36\n      jump\t// in\n    tag_40:\n      tag_41\n      jump\t// in\n    tag_39:\n      mload(0x40)\n      tag_42\n      swap2\n      swap1\n      tag_16\n      jump\t// in\n    tag_42:\n      mload(0x40)\n      dup1\n      swap2\n      sub\n      swap1\n      return\n        /* \"Documents/Web3/Casino/001 Lottery.sol\":132:164  address payable[] public entries */\n    tag_9:\n      callvalue\n      dup1\n      iszero\n      tag_43\n      jumpi\n      0x00\n      dup1\n      revert\n    tag_43:\n      pop\n      tag_44\n      0x04\n      dup1\n      calldatasize\n      sub\n      dup2\n      add\n      swap1\n      tag_45\n      swap2\n      swap1\n      tag_36\n      jump\t// in\n    tag_45:\n      tag_46\n      jump\t// in\n    tag_44:\n      mload(0x40)\n      tag_47\n      swap2\n      swap1\n      tag_48\n      jump\t// in\n    tag_47:\n      mload(0x40)\n      dup1\n      swap2\n      sub\n      swap1\n      return\n        /* \"Documents/Web3/Casino/001 Lottery.sol\":925:1048  function rng() public view returns (uint) {... */\n    tag_10:\n      callvalue\n      dup1\n      iszero\n      tag_49\n      jumpi\n      0x00\n      dup1\n      revert\n    tag_49:\n      pop\n      tag_50\n      tag_51\n      jump\t// in\n    tag_50:\n      mload(0x40)\n      tag_52\n      swap2\n      swap1\n      tag_16\n      jump\t// in\n    tag_52:\n      mload(0x40)\n      dup1\n      swap2\n      sub\n      swap1\n      return\n        /* \"Documents/Web3/Casino/001 Lottery.sol\":1732:1826  function getBalance() public view returns (uint) {... */\n    tag_14:\n        /* \"Documents/Web3/Casino/001 Lottery.sol\":1775:1779  uint */\n      0x00\n        /* \"Documents/Web3/Casino/001 Lottery.sol\":1798:1819  address(this).balance */\n      selfbalance\n        /* \"Documents/Web3/Casino/001 Lottery.sol\":1791:1819  return address(this).balance */\n      swap1\n      pop\n        /* \"Documents/Web3/Casino/001 Lottery.sol\":1732:1826  function getBalance() public view returns (uint) {... */\n      swap1\n      jump\t// out\n        /* \"Documents/Web3/Casino/001 Lottery.sol\":1891:1978  function getEntries() public view returns (uint) {... */\n    tag_19:\n        /* \"Documents/Web3/Casino/001 Lottery.sol\":1934:1938  uint */\n      0x00\n        /* \"Documents/Web3/Casino/001 Lottery.sol\":1957:1964  entries */\n      0x01\n        /* \"Documents/Web3/Casino/001 Lottery.sol\":1957:1971  entries.length */\n      dup1\n      sload\n      swap1\n      pop\n        /* \"Documents/Web3/Casino/001 Lottery.sol\":1950:1971  return entries.length */\n      swap1\n      pop\n        /* \"Documents/Web3/Casino/001 Lottery.sol\":1891:1978  function getEntries() public view returns (uint) {... */\n      swap1\n      jump\t// out\n        /* \"Documents/Web3/Casino/001 Lottery.sol\":1087:1411  function selectWinner() public onlyOwner {... */\n    tag_23:\n        /* \"Documents/Web3/Casino/001 Lottery.sol\":522:527  owner */\n      0x00\n      dup1\n      sload\n      swap1\n      0x0100\n      exp\n      swap1\n      div\n      0xffffffffffffffffffffffffffffffffffffffff\n      and\n        /* \"Documents/Web3/Casino/001 Lottery.sol\":508:527  msg.sender == owner */\n      0xffffffffffffffffffffffffffffffffffffffff\n      and\n        /* \"Documents/Web3/Casino/001 Lottery.sol\":508:518  msg.sender */\n      caller\n        /* \"Documents/Web3/Casino/001 Lottery.sol\":508:527  msg.sender == owner */\n      0xffffffffffffffffffffffffffffffffffffffff\n      and\n      eq\n        /* \"Documents/Web3/Casino/001 Lottery.sol\":500:528  require(msg.sender == owner) */\n      tag_56\n      jumpi\n      0x00\n      dup1\n      revert\n    tag_56:\n        /* \"Documents/Web3/Casino/001 Lottery.sol\":1175:1185  uint index */\n      0x00\n        /* \"Documents/Web3/Casino/001 Lottery.sol\":1196:1203  entries */\n      0x01\n        /* \"Documents/Web3/Casino/001 Lottery.sol\":1196:1210  entries.length */\n      dup1\n      sload\n      swap1\n      pop\n        /* \"Documents/Web3/Casino/001 Lottery.sol\":1188:1193  rng() */\n      tag_58\n        /* \"Documents/Web3/Casino/001 Lottery.sol\":1188:1191  rng */\n      tag_51\n        /* \"Documents/Web3/Casino/001 Lottery.sol\":1188:1193  rng() */\n      jump\t// in\n    tag_58:\n        /* \"Documents/Web3/Casino/001 Lottery.sol\":1188:1210  rng() % entries.length */\n      tag_59\n      swap2\n      swap1\n      tag_60\n      jump\t// in\n    tag_59:\n        /* \"Documents/Web3/Casino/001 Lottery.sol\":1175:1210  uint index = rng() % entries.length */\n      swap1\n      pop\n        /* \"Documents/Web3/Casino/001 Lottery.sol\":1287:1294  entries */\n      0x01\n        /* \"Documents/Web3/Casino/001 Lottery.sol\":1295:1300  index */\n      dup2\n        /* \"Documents/Web3/Casino/001 Lottery.sol\":1287:1301  entries[index] */\n      dup2\n      sload\n      dup2\n      lt\n      tag_61\n      jumpi\n      tag_62\n      tag_63\n      jump\t// in\n    tag_62:\n    tag_61:\n      swap1\n      0x00\n      mstore\n      keccak256(0x00, 0x20)\n      add\n      0x00\n      swap1\n      sload\n      swap1\n      0x0100\n      exp\n      swap1\n      div\n      0xffffffffffffffffffffffffffffffffffffffff\n      and\n        /* \"Documents/Web3/Casino/001 Lottery.sol\":1287:1310  entries[index].transfer */\n      0xffffffffffffffffffffffffffffffffffffffff\n      and\n        /* \"Documents/Web3/Casino/001 Lottery.sol\":1287:1333  entries[index].transfer(address(this).balance) */\n      0x08fc\n        /* \"Documents/Web3/Casino/001 Lottery.sol\":1311:1332  address(this).balance */\n      selfbalance\n        /* \"Documents/Web3/Casino/001 Lottery.sol\":1287:1333  entries[index].transfer(address(this).balance) */\n      swap1\n      dup2\n      iszero\n      mul\n      swap1\n      mload(0x40)\n      0x00\n      mload(0x40)\n      dup1\n      dup4\n      sub\n      dup2\n      dup6\n      dup9\n      dup9\n      call\n      swap4\n      pop\n      pop\n      pop\n      pop\n      iszero\n      dup1\n      iszero\n      tag_66\n      jumpi\n      returndatasize\n      0x00\n      dup1\n      returndatacopy\n      revert(0x00, returndatasize)\n    tag_66:\n      pop\n        /* \"Documents/Web3/Casino/001 Lottery.sol\":1402:1403  0 */\n      0x00\n        /* \"Documents/Web3/Casino/001 Lottery.sol\":1380:1404  new address payable[](0) */\n      0xffffffffffffffff\n      dup2\n      gt\n      iszero\n      tag_67\n      jumpi\n      tag_68\n      tag_69\n      jump\t// in\n    tag_68:\n    tag_67:\n      mload(0x40)\n      swap1\n      dup1\n      dup3\n      mstore\n      dup1\n      0x20\n      mul\n      0x20\n      add\n      dup3\n      add\n      0x40\n      mstore\n      dup1\n      iszero\n      tag_70\n      jumpi\n      dup2\n      0x20\n      add\n      0x20\n      dup3\n      mul\n      dup1\n      calldatasize\n      dup4\n      calldatacopy\n      dup1\n      dup3\n      add\n      swap2\n      pop\n      pop\n      swap1\n      pop\n    tag_70:\n      pop\n        /* \"Documents/Web3/Casino/001 Lottery.sol\":1370:1377  entries */\n      0x01\n        /* \"Documents/Web3/Casino/001 Lottery.sol\":1370:1404  entries = new address payable[](0) */\n      swap1\n      dup1\n      mload\n      swap1\n      0x20\n      add\n      swap1\n      tag_71\n      swap3\n      swap2\n      swap1\n      tag_72\n      jump\t// in\n    tag_71:\n      pop\n        /* \"Documents/Web3/Casino/001 Lottery.sol\":1128:1411  {... */\n      pop\n        /* \"Documents/Web3/Casino/001 Lottery.sol\":1087:1411  function selectWinner() public onlyOwner {... */\n      jump\t// out\n        /* \"Documents/Web3/Casino/001 Lottery.sol\":1984:2084  function getPlayers() public view returns (address payable[] memory) {... */\n    tag_26:\n        /* \"Documents/Web3/Casino/001 Lottery.sol\":2027:2051  address payable[] memory */\n      0x60\n        /* \"Documents/Web3/Casino/001 Lottery.sol\":2070:2077  entries */\n      0x01\n        /* \"Documents/Web3/Casino/001 Lottery.sol\":2063:2077  return entries */\n      dup1\n      sload\n      dup1\n      0x20\n      mul\n      0x20\n      add\n      mload(0x40)\n      swap1\n      dup2\n      add\n      0x40\n      mstore\n      dup1\n      swap3\n      swap2\n      swap1\n      dup2\n      dup2\n      mstore\n      0x20\n      add\n      dup3\n      dup1\n      sload\n      dup1\n      iszero\n      tag_74\n      jumpi\n      0x20\n      mul\n      dup3\n      add\n      swap2\n      swap1\n      0x00\n      mstore\n      keccak256(0x00, 0x20)\n      swap1\n    tag_75:\n      dup2\n      0x00\n      swap1\n      sload\n      swap1\n      0x0100\n      exp\n      swap1\n      div\n      0xffffffffffffffffffffffffffffffffffffffff\n      and\n      0xffffffffffffffffffffffffffffffffffffffff\n      and\n      dup2\n      mstore\n      0x20\n      add\n      swap1\n      0x01\n      add\n      swap1\n      dup1\n      dup4\n      gt\n      tag_75\n      jumpi\n    tag_74:\n      pop\n      pop\n      pop\n      pop\n      pop\n      swap1\n      pop\n        /* \"Documents/Web3/Casino/001 Lottery.sol\":1984:2084  function getPlayers() public view returns (address payable[] memory) {... */\n      swap1\n      jump\t// out\n        /* \"Documents/Web3/Casino/001 Lottery.sol\":106:126  address public owner */\n    tag_31:\n      0x00\n      dup1\n      sload\n      swap1\n      0x0100\n      exp\n      swap1\n      div\n      0xffffffffffffffffffffffffffffffffffffffff\n      and\n      dup2\n      jump\t// out\n        /* \"Documents/Web3/Casino/001 Lottery.sol\":601:877  function enter(uint amount) public payable {... */\n    tag_37:\n        /* \"Documents/Web3/Casino/001 Lottery.sol\":684:691  1 ether */\n      0x0de0b6b3a7640000\n        /* \"Documents/Web3/Casino/001 Lottery.sol\":675:681  amount */\n      dup2\n        /* \"Documents/Web3/Casino/001 Lottery.sol\":675:691  amount * 1 ether */\n      tag_77\n      swap2\n      swap1\n      tag_78\n      jump\t// in\n    tag_77:\n        /* \"Documents/Web3/Casino/001 Lottery.sol\":662:671  msg.value */\n      callvalue\n        /* \"Documents/Web3/Casino/001 Lottery.sol\":662:691  msg.value >= amount * 1 ether */\n      lt\n      iszero\n        /* \"Documents/Web3/Casino/001 Lottery.sol\":654:721  require(msg.value >= amount * 1 ether, \"Each entry costs 1 Ether.\") */\n      tag_79\n      jumpi\n      mload(0x40)\n      0x08c379a000000000000000000000000000000000000000000000000000000000\n      dup2\n      mstore\n      0x04\n      add\n      tag_80\n      swap1\n      tag_81\n      jump\t// in\n    tag_80:\n      mload(0x40)\n      dup1\n      swap2\n      sub\n      swap1\n      revert\n    tag_79:\n        /* \"Documents/Web3/Casino/001 Lottery.sol\":736:742  uint i */\n      0x00\n        /* \"Documents/Web3/Casino/001 Lottery.sol\":731:871  for (uint i = 0; i >= amount; i++) {... */\n    tag_82:\n        /* \"Documents/Web3/Casino/001 Lottery.sol\":753:759  amount */\n      dup2\n        /* \"Documents/Web3/Casino/001 Lottery.sol\":748:749  i */\n      dup2\n        /* \"Documents/Web3/Casino/001 Lottery.sol\":748:759  i >= amount */\n      lt\n        /* \"Documents/Web3/Casino/001 Lottery.sol\":731:871  for (uint i = 0; i >= amount; i++) {... */\n      tag_83\n      jumpi\n        /* \"Documents/Web3/Casino/001 Lottery.sol\":780:787  entries */\n      0x01\n        /* \"Documents/Web3/Casino/001 Lottery.sol\":801:811  msg.sender */\n      caller\n        /* \"Documents/Web3/Casino/001 Lottery.sol\":780:813  entries.push(payable(msg.sender)) */\n      swap1\n      dup1\n      0x01\n      dup2\n      sload\n      add\n      dup1\n      dup3\n      sstore\n      dup1\n      swap2\n      pop\n      pop\n      0x01\n      swap1\n      sub\n      swap1\n      0x00\n      mstore\n      keccak256(0x00, 0x20)\n      add\n      0x00\n      swap1\n      swap2\n      swap1\n      swap2\n      swap1\n      swap2\n      0x0100\n      exp\n      dup2\n      sload\n      dup2\n      0xffffffffffffffffffffffffffffffffffffffff\n      mul\n      not\n      and\n      swap1\n      dup4\n      0xffffffffffffffffffffffffffffffffffffffff\n      and\n      mul\n      or\n      swap1\n      sstore\n      pop\n        /* \"Documents/Web3/Casino/001 Lottery.sol\":827:846  playerEntriesAmount */\n      0x02\n        /* \"Documents/Web3/Casino/001 Lottery.sol\":827:858  playerEntriesAmount[msg.sender] */\n      0x00\n        /* \"Documents/Web3/Casino/001 Lottery.sol\":847:857  msg.sender */\n      caller\n        /* \"Documents/Web3/Casino/001 Lottery.sol\":827:858  playerEntriesAmount[msg.sender] */\n      0xffffffffffffffffffffffffffffffffffffffff\n      and\n      0xffffffffffffffffffffffffffffffffffffffff\n      and\n      dup2\n      mstore\n      0x20\n      add\n      swap1\n      dup2\n      mstore\n      0x20\n      add\n      0x00\n      keccak256\n      0x00\n        /* \"Documents/Web3/Casino/001 Lottery.sol\":827:860  playerEntriesAmount[msg.sender]++ */\n      dup2\n      sload\n      dup1\n      swap3\n      swap2\n      swap1\n      tag_86\n      swap1\n      tag_87\n      jump\t// in\n    tag_86:\n      swap2\n      swap1\n      pop\n      sstore\n      pop\n        /* \"Documents/Web3/Casino/001 Lottery.sol\":761:764  i++ */\n      dup1\n      dup1\n      tag_88\n      swap1\n      tag_87\n      jump\t// in\n    tag_88:\n      swap2\n      pop\n      pop\n        /* \"Documents/Web3/Casino/001 Lottery.sol\":731:871  for (uint i = 0; i >= amount; i++) {... */\n      jump(tag_82)\n    tag_83:\n      pop\n        /* \"Documents/Web3/Casino/001 Lottery.sol\":601:877  function enter(uint amount) public payable {... */\n      pop\n      jump\t// out\n        /* \"Documents/Web3/Casino/001 Lottery.sol\":1513:1692  function playerOdds(uint additionalEntries) public view returns (uint) {... */\n    tag_41:\n        /* \"Documents/Web3/Casino/001 Lottery.sol\":1578:1582  uint */\n      0x00\n        /* \"Documents/Web3/Casino/001 Lottery.sol\":1681:1684  100 */\n      0x64\n        /* \"Documents/Web3/Casino/001 Lottery.sol\":1663:1670  entries */\n      0x01\n        /* \"Documents/Web3/Casino/001 Lottery.sol\":1663:1677  entries.length */\n      dup1\n      sload\n      swap1\n      pop\n        /* \"Documents/Web3/Casino/001 Lottery.sol\":1642:1659  additionalEntries */\n      dup4\n        /* \"Documents/Web3/Casino/001 Lottery.sol\":1608:1627  playerEntriesAmount */\n      0x02\n        /* \"Documents/Web3/Casino/001 Lottery.sol\":1608:1639  playerEntriesAmount[msg.sender] */\n      0x00\n        /* \"Documents/Web3/Casino/001 Lottery.sol\":1628:1638  msg.sender */\n      caller\n        /* \"Documents/Web3/Casino/001 Lottery.sol\":1608:1639  playerEntriesAmount[msg.sender] */\n      0xffffffffffffffffffffffffffffffffffffffff\n      and\n      0xffffffffffffffffffffffffffffffffffffffff\n      and\n      dup2\n      mstore\n      0x20\n      add\n      swap1\n      dup2\n      mstore\n      0x20\n      add\n      0x00\n      keccak256\n      sload\n        /* \"Documents/Web3/Casino/001 Lottery.sol\":1608:1659  playerEntriesAmount[msg.sender] + additionalEntries */\n      tag_90\n      swap2\n      swap1\n      tag_91\n      jump\t// in\n    tag_90:\n        /* \"Documents/Web3/Casino/001 Lottery.sol\":1607:1677  (playerEntriesAmount[msg.sender] + additionalEntries) / entries.length */\n      tag_92\n      swap2\n      swap1\n      tag_93\n      jump\t// in\n    tag_92:\n        /* \"Documents/Web3/Casino/001 Lottery.sol\":1606:1684  ((playerEntriesAmount[msg.sender] + additionalEntries) / entries.length) * 100 */\n      tag_94\n      swap2\n      swap1\n      tag_78\n      jump\t// in\n    tag_94:\n        /* \"Documents/Web3/Casino/001 Lottery.sol\":1594:1685  return uint(((playerEntriesAmount[msg.sender] + additionalEntries) / entries.length) * 100) */\n      swap1\n      pop\n        /* \"Documents/Web3/Casino/001 Lottery.sol\":1513:1692  function playerOdds(uint additionalEntries) public view returns (uint) {... */\n      swap2\n      swap1\n      pop\n      jump\t// out\n        /* \"Documents/Web3/Casino/001 Lottery.sol\":132:164  address payable[] public entries */\n    tag_46:\n      0x01\n      dup2\n      dup2\n      sload\n      dup2\n      lt\n      tag_95\n      jumpi\n      0x00\n      dup1\n      revert\n    tag_95:\n      swap1\n      0x00\n      mstore\n      keccak256(0x00, 0x20)\n      add\n      0x00\n      swap2\n      pop\n      sload\n      swap1\n      0x0100\n      exp\n      swap1\n      div\n      0xffffffffffffffffffffffffffffffffffffffff\n      and\n      dup2\n      jump\t// out\n        /* \"Documents/Web3/Casino/001 Lottery.sol\":925:1048  function rng() public view returns (uint) {... */\n    tag_51:\n        /* \"Documents/Web3/Casino/001 Lottery.sol\":961:965  uint */\n      0x00\n        /* \"Documents/Web3/Casino/001 Lottery.sol\":1016:1021  owner */\n      dup1\n      0x00\n      swap1\n      sload\n      swap1\n      0x0100\n      exp\n      swap1\n      div\n      0xffffffffffffffffffffffffffffffffffffffff\n      and\n        /* \"Documents/Web3/Casino/001 Lottery.sol\":1023:1038  block.timestamp */\n      timestamp\n        /* \"Documents/Web3/Casino/001 Lottery.sol\":999:1039  abi.encodePacked(owner, block.timestamp) */\n      add(0x20, mload(0x40))\n      tag_98\n      swap3\n      swap2\n      swap1\n      tag_99\n      jump\t// in\n    tag_98:\n      mload(0x40)\n      0x20\n      dup2\n      dup4\n      sub\n      sub\n      dup2\n      mstore\n      swap1\n      0x40\n      mstore\n        /* \"Documents/Web3/Casino/001 Lottery.sol\":989:1040  keccak256(abi.encodePacked(owner, block.timestamp)) */\n      dup1\n      mload\n      swap1\n      0x20\n      add\n      keccak256\n        /* \"Documents/Web3/Casino/001 Lottery.sol\":984:1041  uint(keccak256(abi.encodePacked(owner, block.timestamp))) */\n      0x00\n      shr\n        /* \"Documents/Web3/Casino/001 Lottery.sol\":977:1041  return uint(keccak256(abi.encodePacked(owner, block.timestamp))) */\n      swap1\n      pop\n        /* \"Documents/Web3/Casino/001 Lottery.sol\":925:1048  function rng() public view returns (uint) {... */\n      swap1\n      jump\t// out\n    tag_72:\n      dup3\n      dup1\n      sload\n      dup3\n      dup3\n      sstore\n      swap1\n      0x00\n      mstore\n      keccak256(0x00, 0x20)\n      swap1\n      dup2\n      add\n      swap3\n      dup3\n      iszero\n      tag_100\n      jumpi\n      swap2\n      0x20\n      mul\n      dup3\n      add\n    tag_101:\n      dup3\n      dup2\n      gt\n      iszero\n      tag_102\n      jumpi\n      dup3\n      mload\n      dup3\n      exp(0x0100, 0x00)\n      dup2\n      sload\n      dup2\n      0xffffffffffffffffffffffffffffffffffffffff\n      mul\n      not\n      and\n      swap1\n      dup4\n      0xffffffffffffffffffffffffffffffffffffffff\n      and\n      mul\n      or\n      swap1\n      sstore\n      pop\n      swap2\n      0x20\n      add\n      swap2\n      swap1\n      0x01\n      add\n      swap1\n      jump(tag_101)\n    tag_102:\n    tag_100:\n      pop\n      swap1\n      pop\n      tag_103\n      swap2\n      swap1\n      tag_104\n      jump\t// in\n    tag_103:\n      pop\n      swap1\n      jump\t// out\n    tag_104:\n    tag_105:\n      dup1\n      dup3\n      gt\n      iszero\n      tag_106\n      jumpi\n      0x00\n      dup2\n      0x00\n      swap1\n      sstore\n      pop\n      0x01\n      add\n      jump(tag_105)\n    tag_106:\n      pop\n      swap1\n      jump\t// out\n        /* \"#utility.yul\":7:84   */\n    tag_107:\n        /* \"#utility.yul\":44:51   */\n      0x00\n        /* \"#utility.yul\":73:78   */\n      dup2\n        /* \"#utility.yul\":62:78   */\n      swap1\n      pop\n        /* \"#utility.yul\":7:84   */\n      swap2\n      swap1\n      pop\n      jump\t// out\n        /* \"#utility.yul\":90:208   */\n    tag_108:\n        /* \"#utility.yul\":177:201   */\n      tag_140\n        /* \"#utility.yul\":195:200   */\n      dup2\n        /* \"#utility.yul\":177:201   */\n      tag_107\n      jump\t// in\n    tag_140:\n        /* \"#utility.yul\":172:175   */\n      dup3\n        /* \"#utility.yul\":165:202   */\n      mstore\n        /* \"#utility.yul\":90:208   */\n      pop\n      pop\n      jump\t// out\n        /* \"#utility.yul\":214:436   */\n    tag_16:\n        /* \"#utility.yul\":307:311   */\n      0x00\n        /* \"#utility.yul\":345:347   */\n      0x20\n        /* \"#utility.yul\":334:343   */\n      dup3\n        /* \"#utility.yul\":330:348   */\n      add\n        /* \"#utility.yul\":322:348   */\n      swap1\n      pop\n        /* \"#utility.yul\":358:429   */\n      tag_142\n        /* \"#utility.yul\":426:427   */\n      0x00\n        /* \"#utility.yul\":415:424   */\n      dup4\n        /* \"#utility.yul\":411:428   */\n      add\n        /* \"#utility.yul\":402:408   */\n      dup5\n        /* \"#utility.yul\":358:429   */\n      tag_108\n      jump\t// in\n    tag_142:\n        /* \"#utility.yul\":214:436   */\n      swap3\n      swap2\n      pop\n      pop\n      jump\t// out\n        /* \"#utility.yul\":442:564   */\n    tag_109:\n        /* \"#utility.yul\":517:523   */\n      0x00\n        /* \"#utility.yul\":551:556   */\n      dup2\n        /* \"#utility.yul\":545:557   */\n      mload\n        /* \"#utility.yul\":535:557   */\n      swap1\n      pop\n        /* \"#utility.yul\":442:564   */\n      swap2\n      swap1\n      pop\n      jump\t// out\n        /* \"#utility.yul\":570:762   */\n    tag_110:\n        /* \"#utility.yul\":677:688   */\n      0x00\n        /* \"#utility.yul\":711:717   */\n      dup3\n        /* \"#utility.yul\":706:709   */\n      dup3\n        /* \"#utility.yul\":699:718   */\n      mstore\n        /* \"#utility.yul\":751:755   */\n      0x20\n        /* \"#utility.yul\":746:749   */\n      dup3\n        /* \"#utility.yul\":742:756   */\n      add\n        /* \"#utility.yul\":727:756   */\n      swap1\n      pop\n        /* \"#utility.yul\":570:762   */\n      swap3\n      swap2\n      pop\n      pop\n      jump\t// out\n        /* \"#utility.yul\":768:908   */\n    tag_111:\n        /* \"#utility.yul\":843:847   */\n      0x00\n        /* \"#utility.yul\":866:869   */\n      dup2\n        /* \"#utility.yul\":858:869   */\n      swap1\n      pop\n        /* \"#utility.yul\":896:900   */\n      0x20\n        /* \"#utility.yul\":891:894   */\n      dup3\n        /* \"#utility.yul\":887:901   */\n      add\n        /* \"#utility.yul\":879:901   */\n      swap1\n      pop\n        /* \"#utility.yul\":768:908   */\n      swap2\n      swap1\n      pop\n      jump\t// out\n        /* \"#utility.yul\":914:1040   */\n    tag_112:\n        /* \"#utility.yul\":951:958   */\n      0x00\n        /* \"#utility.yul\":991:1033   */\n      0xffffffffffffffffffffffffffffffffffffffff\n        /* \"#utility.yul\":984:989   */\n      dup3\n        /* \"#utility.yul\":980:1034   */\n      and\n        /* \"#utility.yul\":969:1034   */\n      swap1\n      pop\n        /* \"#utility.yul\":914:1040   */\n      swap2\n      swap1\n      pop\n      jump\t// out\n        /* \"#utility.yul\":1046:1150   */\n    tag_113:\n        /* \"#utility.yul\":1091:1098   */\n      0x00\n        /* \"#utility.yul\":1120:1144   */\n      tag_148\n        /* \"#utility.yul\":1138:1143   */\n      dup3\n        /* \"#utility.yul\":1120:1144   */\n      tag_112\n      jump\t// in\n    tag_148:\n        /* \"#utility.yul\":1109:1144   */\n      swap1\n      pop\n        /* \"#utility.yul\":1046:1150   */\n      swap2\n      swap1\n      pop\n      jump\t// out\n        /* \"#utility.yul\":1156:1288   */\n    tag_114:\n        /* \"#utility.yul\":1249:1281   */\n      tag_150\n        /* \"#utility.yul\":1275:1280   */\n      dup2\n        /* \"#utility.yul\":1249:1281   */\n      tag_113\n      jump\t// in\n    tag_150:\n        /* \"#utility.yul\":1244:1247   */\n      dup3\n        /* \"#utility.yul\":1237:1282   */\n      mstore\n        /* \"#utility.yul\":1156:1288   */\n      pop\n      pop\n      jump\t// out\n        /* \"#utility.yul\":1294:1505   */\n    tag_115:\n        /* \"#utility.yul\":1379:1389   */\n      0x00\n        /* \"#utility.yul\":1400:1462   */\n      tag_152\n        /* \"#utility.yul\":1458:1461   */\n      dup4\n        /* \"#utility.yul\":1450:1456   */\n      dup4\n        /* \"#utility.yul\":1400:1462   */\n      tag_114\n      jump\t// in\n    tag_152:\n        /* \"#utility.yul\":1494:1498   */\n      0x20\n        /* \"#utility.yul\":1489:1492   */\n      dup4\n        /* \"#utility.yul\":1485:1499   */\n      add\n        /* \"#utility.yul\":1471:1499   */\n      swap1\n      pop\n        /* \"#utility.yul\":1294:1505   */\n      swap3\n      swap2\n      pop\n      pop\n      jump\t// out\n        /* \"#utility.yul\":1511:1632   */\n    tag_116:\n        /* \"#utility.yul\":1589:1593   */\n      0x00\n        /* \"#utility.yul\":1621:1625   */\n      0x20\n        /* \"#utility.yul\":1616:1619   */\n      dup3\n        /* \"#utility.yul\":1612:1626   */\n      add\n        /* \"#utility.yul\":1604:1626   */\n      swap1\n      pop\n        /* \"#utility.yul\":1511:1632   */\n      swap2\n      swap1\n      pop\n      jump\t// out\n        /* \"#utility.yul\":1684:2480   */\n    tag_117:\n        /* \"#utility.yul\":1819:1822   */\n      0x00\n        /* \"#utility.yul\":1848:1910   */\n      tag_155\n        /* \"#utility.yul\":1904:1909   */\n      dup3\n        /* \"#utility.yul\":1848:1910   */\n      tag_109\n      jump\t// in\n    tag_155:\n        /* \"#utility.yul\":1926:2020   */\n      tag_156\n        /* \"#utility.yul\":2013:2019   */\n      dup2\n        /* \"#utility.yul\":2008:2011   */\n      dup6\n        /* \"#utility.yul\":1926:2020   */\n      tag_110\n      jump\t// in\n    tag_156:\n        /* \"#utility.yul\":1919:2020   */\n      swap4\n      pop\n        /* \"#utility.yul\":2044:2108   */\n      tag_157\n        /* \"#utility.yul\":2102:2107   */\n      dup4\n        /* \"#utility.yul\":2044:2108   */\n      tag_111\n      jump\t// in\n    tag_157:\n        /* \"#utility.yul\":2131:2138   */\n      dup1\n        /* \"#utility.yul\":2162:2163   */\n      0x00\n        /* \"#utility.yul\":2147:2455   */\n    tag_158:\n        /* \"#utility.yul\":2172:2178   */\n      dup4\n        /* \"#utility.yul\":2169:2170   */\n      dup2\n        /* \"#utility.yul\":2166:2179   */\n      lt\n        /* \"#utility.yul\":2147:2455   */\n      iszero\n      tag_160\n      jumpi\n        /* \"#utility.yul\":2248:2254   */\n      dup2\n        /* \"#utility.yul\":2242:2255   */\n      mload\n        /* \"#utility.yul\":2275:2354   */\n      tag_161\n        /* \"#utility.yul\":2350:2353   */\n      dup9\n        /* \"#utility.yul\":2335:2348   */\n      dup3\n        /* \"#utility.yul\":2275:2354   */\n      tag_115\n      jump\t// in\n    tag_161:\n        /* \"#utility.yul\":2268:2354   */\n      swap8\n      pop\n        /* \"#utility.yul\":2377:2445   */\n      tag_162\n        /* \"#utility.yul\":2438:2444   */\n      dup4\n        /* \"#utility.yul\":2377:2445   */\n      tag_116\n      jump\t// in\n    tag_162:\n        /* \"#utility.yul\":2367:2445   */\n      swap3\n      pop\n        /* \"#utility.yul\":2207:2455   */\n      pop\n        /* \"#utility.yul\":2194:2195   */\n      0x01\n        /* \"#utility.yul\":2191:2192   */\n      dup2\n        /* \"#utility.yul\":2187:2196   */\n      add\n        /* \"#utility.yul\":2182:2196   */\n      swap1\n      pop\n        /* \"#utility.yul\":2147:2455   */\n      jump(tag_158)\n    tag_160:\n        /* \"#utility.yul\":2151:2165   */\n      pop\n        /* \"#utility.yul\":2471:2474   */\n      dup6\n        /* \"#utility.yul\":2464:2474   */\n      swap4\n      pop\n        /* \"#utility.yul\":1824:2480   */\n      pop\n      pop\n      pop\n        /* \"#utility.yul\":1684:2480   */\n      swap3\n      swap2\n      pop\n      pop\n      jump\t// out\n        /* \"#utility.yul\":2486:2891   */\n    tag_28:\n        /* \"#utility.yul\":2645:2649   */\n      0x00\n        /* \"#utility.yul\":2683:2685   */\n      0x20\n        /* \"#utility.yul\":2672:2681   */\n      dup3\n        /* \"#utility.yul\":2668:2686   */\n      add\n        /* \"#utility.yul\":2660:2686   */\n      swap1\n      pop\n        /* \"#utility.yul\":2732:2741   */\n      dup2\n        /* \"#utility.yul\":2726:2730   */\n      dup2\n        /* \"#utility.yul\":2722:2742   */\n      sub\n        /* \"#utility.yul\":2718:2719   */\n      0x00\n        /* \"#utility.yul\":2707:2716   */\n      dup4\n        /* \"#utility.yul\":2703:2720   */\n      add\n        /* \"#utility.yul\":2696:2743   */\n      mstore\n        /* \"#utility.yul\":2760:2884   */\n      tag_164\n        /* \"#utility.yul\":2879:2883   */\n      dup2\n        /* \"#utility.yul\":2870:2876   */\n      dup5\n        /* \"#utility.yul\":2760:2884   */\n      tag_117\n      jump\t// in\n    tag_164:\n        /* \"#utility.yul\":2752:2884   */\n      swap1\n      pop\n        /* \"#utility.yul\":2486:2891   */\n      swap3\n      swap2\n      pop\n      pop\n      jump\t// out\n        /* \"#utility.yul\":2897:2993   */\n    tag_118:\n        /* \"#utility.yul\":2934:2941   */\n      0x00\n        /* \"#utility.yul\":2963:2987   */\n      tag_166\n        /* \"#utility.yul\":2981:2986   */\n      dup3\n        /* \"#utility.yul\":2963:2987   */\n      tag_112\n      jump\t// in\n    tag_166:\n        /* \"#utility.yul\":2952:2987   */\n      swap1\n      pop\n        /* \"#utility.yul\":2897:2993   */\n      swap2\n      swap1\n      pop\n      jump\t// out\n        /* \"#utility.yul\":2999:3117   */\n    tag_119:\n        /* \"#utility.yul\":3086:3110   */\n      tag_168\n        /* \"#utility.yul\":3104:3109   */\n      dup2\n        /* \"#utility.yul\":3086:3110   */\n      tag_118\n      jump\t// in\n    tag_168:\n        /* \"#utility.yul\":3081:3084   */\n      dup3\n        /* \"#utility.yul\":3074:3111   */\n      mstore\n        /* \"#utility.yul\":2999:3117   */\n      pop\n      pop\n      jump\t// out\n        /* \"#utility.yul\":3123:3345   */\n    tag_33:\n        /* \"#utility.yul\":3216:3220   */\n      0x00\n        /* \"#utility.yul\":3254:3256   */\n      0x20\n        /* \"#utility.yul\":3243:3252   */\n      dup3\n        /* \"#utility.yul\":3239:3257   */\n      add\n        /* \"#utility.yul\":3231:3257   */\n      swap1\n      pop\n        /* \"#utility.yul\":3267:3338   */\n      tag_170\n        /* \"#utility.yul\":3335:3336   */\n      0x00\n        /* \"#utility.yul\":3324:3333   */\n      dup4\n        /* \"#utility.yul\":3320:3337   */\n      add\n        /* \"#utility.yul\":3311:3317   */\n      dup5\n        /* \"#utility.yul\":3267:3338   */\n      tag_119\n      jump\t// in\n    tag_170:\n        /* \"#utility.yul\":3123:3345   */\n      swap3\n      swap2\n      pop\n      pop\n      jump\t// out\n        /* \"#utility.yul\":3432:3549   */\n    tag_121:\n        /* \"#utility.yul\":3541:3542   */\n      0x00\n        /* \"#utility.yul\":3538:3539   */\n      dup1\n        /* \"#utility.yul\":3531:3543   */\n      revert\n        /* \"#utility.yul\":3678:3800   */\n    tag_123:\n        /* \"#utility.yul\":3751:3775   */\n      tag_175\n        /* \"#utility.yul\":3769:3774   */\n      dup2\n        /* \"#utility.yul\":3751:3775   */\n      tag_107\n      jump\t// in\n    tag_175:\n        /* \"#utility.yul\":3744:3749   */\n      dup2\n        /* \"#utility.yul\":3741:3776   */\n      eq\n        /* \"#utility.yul\":3731:3794   */\n      tag_176\n      jumpi\n        /* \"#utility.yul\":3790:3791   */\n      0x00\n        /* \"#utility.yul\":3787:3788   */\n      dup1\n        /* \"#utility.yul\":3780:3792   */\n      revert\n        /* \"#utility.yul\":3731:3794   */\n    tag_176:\n        /* \"#utility.yul\":3678:3800   */\n      pop\n      jump\t// out\n        /* \"#utility.yul\":3806:3945   */\n    tag_124:\n        /* \"#utility.yul\":3852:3857   */\n      0x00\n        /* \"#utility.yul\":3890:3896   */\n      dup2\n        /* \"#utility.yul\":3877:3897   */\n      calldataload\n        /* \"#utility.yul\":3868:3897   */\n      swap1\n      pop\n        /* \"#utility.yul\":3906:3939   */\n      tag_178\n        /* \"#utility.yul\":3933:3938   */\n      dup2\n        /* \"#utility.yul\":3906:3939   */\n      tag_123\n      jump\t// in\n    tag_178:\n        /* \"#utility.yul\":3806:3945   */\n      swap3\n      swap2\n      pop\n      pop\n      jump\t// out\n        /* \"#utility.yul\":3951:4280   */\n    tag_36:\n        /* \"#utility.yul\":4010:4016   */\n      0x00\n        /* \"#utility.yul\":4059:4061   */\n      0x20\n        /* \"#utility.yul\":4047:4056   */\n      dup3\n        /* \"#utility.yul\":4038:4045   */\n      dup5\n        /* \"#utility.yul\":4034:4057   */\n      sub\n        /* \"#utility.yul\":4030:4062   */\n      slt\n        /* \"#utility.yul\":4027:4146   */\n      iszero\n      tag_180\n      jumpi\n        /* \"#utility.yul\":4065:4144   */\n      tag_181\n      tag_121\n      jump\t// in\n    tag_181:\n        /* \"#utility.yul\":4027:4146   */\n    tag_180:\n        /* \"#utility.yul\":4185:4186   */\n      0x00\n        /* \"#utility.yul\":4210:4263   */\n      tag_182\n        /* \"#utility.yul\":4255:4262   */\n      dup5\n        /* \"#utility.yul\":4246:4252   */\n      dup3\n        /* \"#utility.yul\":4235:4244   */\n      dup6\n        /* \"#utility.yul\":4231:4253   */\n      add\n        /* \"#utility.yul\":4210:4263   */\n      tag_124\n      jump\t// in\n    tag_182:\n        /* \"#utility.yul\":4200:4263   */\n      swap2\n      pop\n        /* \"#utility.yul\":4156:4273   */\n      pop\n        /* \"#utility.yul\":3951:4280   */\n      swap3\n      swap2\n      pop\n      pop\n      jump\t// out\n        /* \"#utility.yul\":4286:4428   */\n    tag_125:\n        /* \"#utility.yul\":4389:4421   */\n      tag_184\n        /* \"#utility.yul\":4415:4420   */\n      dup2\n        /* \"#utility.yul\":4389:4421   */\n      tag_113\n      jump\t// in\n    tag_184:\n        /* \"#utility.yul\":4384:4387   */\n      dup3\n        /* \"#utility.yul\":4377:4422   */\n      mstore\n        /* \"#utility.yul\":4286:4428   */\n      pop\n      pop\n      jump\t// out\n        /* \"#utility.yul\":4434:4688   */\n    tag_48:\n        /* \"#utility.yul\":4543:4547   */\n      0x00\n        /* \"#utility.yul\":4581:4583   */\n      0x20\n        /* \"#utility.yul\":4570:4579   */\n      dup3\n        /* \"#utility.yul\":4566:4584   */\n      add\n        /* \"#utility.yul\":4558:4584   */\n      swap1\n      pop\n        /* \"#utility.yul\":4594:4681   */\n      tag_186\n        /* \"#utility.yul\":4678:4679   */\n      0x00\n        /* \"#utility.yul\":4667:4676   */\n      dup4\n        /* \"#utility.yul\":4663:4680   */\n      add\n        /* \"#utility.yul\":4654:4660   */\n      dup5\n        /* \"#utility.yul\":4594:4681   */\n      tag_125\n      jump\t// in\n    tag_186:\n        /* \"#utility.yul\":4434:4688   */\n      swap3\n      swap2\n      pop\n      pop\n      jump\t// out\n        /* \"#utility.yul\":4694:4874   */\n    tag_126:\n        /* \"#utility.yul\":4742:4819   */\n      0x4e487b7100000000000000000000000000000000000000000000000000000000\n        /* \"#utility.yul\":4739:4740   */\n      0x00\n        /* \"#utility.yul\":4732:4820   */\n      mstore\n        /* \"#utility.yul\":4839:4843   */\n      0x12\n        /* \"#utility.yul\":4836:4837   */\n      0x04\n        /* \"#utility.yul\":4829:4844   */\n      mstore\n        /* \"#utility.yul\":4863:4867   */\n      0x24\n        /* \"#utility.yul\":4860:4861   */\n      0x00\n        /* \"#utility.yul\":4853:4868   */\n      revert\n        /* \"#utility.yul\":4880:5056   */\n    tag_60:\n        /* \"#utility.yul\":4912:4913   */\n      0x00\n        /* \"#utility.yul\":4929:4949   */\n      tag_189\n        /* \"#utility.yul\":4947:4948   */\n      dup3\n        /* \"#utility.yul\":4929:4949   */\n      tag_107\n      jump\t// in\n    tag_189:\n        /* \"#utility.yul\":4924:4949   */\n      swap2\n      pop\n        /* \"#utility.yul\":4963:4983   */\n      tag_190\n        /* \"#utility.yul\":4981:4982   */\n      dup4\n        /* \"#utility.yul\":4963:4983   */\n      tag_107\n      jump\t// in\n    tag_190:\n        /* \"#utility.yul\":4958:4983   */\n      swap3\n      pop\n        /* \"#utility.yul\":5002:5003   */\n      dup3\n        /* \"#utility.yul\":4992:5027   */\n      tag_191\n      jumpi\n        /* \"#utility.yul\":5007:5025   */\n      tag_192\n      tag_126\n      jump\t// in\n    tag_192:\n        /* \"#utility.yul\":4992:5027   */\n    tag_191:\n        /* \"#utility.yul\":5048:5049   */\n      dup3\n        /* \"#utility.yul\":5045:5046   */\n      dup3\n        /* \"#utility.yul\":5041:5050   */\n      mod\n        /* \"#utility.yul\":5036:5050   */\n      swap1\n      pop\n        /* \"#utility.yul\":4880:5056   */\n      swap3\n      swap2\n      pop\n      pop\n      jump\t// out\n        /* \"#utility.yul\":5062:5242   */\n    tag_63:\n        /* \"#utility.yul\":5110:5187   */\n      0x4e487b7100000000000000000000000000000000000000000000000000000000\n        /* \"#utility.yul\":5107:5108   */\n      0x00\n        /* \"#utility.yul\":5100:5188   */\n      mstore\n        /* \"#utility.yul\":5207:5211   */\n      0x32\n        /* \"#utility.yul\":5204:5205   */\n      0x04\n        /* \"#utility.yul\":5197:5212   */\n      mstore\n        /* \"#utility.yul\":5231:5235   */\n      0x24\n        /* \"#utility.yul\":5228:5229   */\n      0x00\n        /* \"#utility.yul\":5221:5236   */\n      revert\n        /* \"#utility.yul\":5248:5428   */\n    tag_69:\n        /* \"#utility.yul\":5296:5373   */\n      0x4e487b7100000000000000000000000000000000000000000000000000000000\n        /* \"#utility.yul\":5293:5294   */\n      0x00\n        /* \"#utility.yul\":5286:5374   */\n      mstore\n        /* \"#utility.yul\":5393:5397   */\n      0x41\n        /* \"#utility.yul\":5390:5391   */\n      0x04\n        /* \"#utility.yul\":5383:5398   */\n      mstore\n        /* \"#utility.yul\":5417:5421   */\n      0x24\n        /* \"#utility.yul\":5414:5415   */\n      0x00\n        /* \"#utility.yul\":5407:5422   */\n      revert\n        /* \"#utility.yul\":5434:5614   */\n    tag_127:\n        /* \"#utility.yul\":5482:5559   */\n      0x4e487b7100000000000000000000000000000000000000000000000000000000\n        /* \"#utility.yul\":5479:5480   */\n      0x00\n        /* \"#utility.yul\":5472:5560   */\n      mstore\n        /* \"#utility.yul\":5579:5583   */\n      0x11\n        /* \"#utility.yul\":5576:5577   */\n      0x04\n        /* \"#utility.yul\":5569:5584   */\n      mstore\n        /* \"#utility.yul\":5603:5607   */\n      0x24\n        /* \"#utility.yul\":5600:5601   */\n      0x00\n        /* \"#utility.yul\":5593:5608   */\n      revert\n        /* \"#utility.yul\":5620:5968   */\n    tag_78:\n        /* \"#utility.yul\":5660:5667   */\n      0x00\n        /* \"#utility.yul\":5683:5703   */\n      tag_197\n        /* \"#utility.yul\":5701:5702   */\n      dup3\n        /* \"#utility.yul\":5683:5703   */\n      tag_107\n      jump\t// in\n    tag_197:\n        /* \"#utility.yul\":5678:5703   */\n      swap2\n      pop\n        /* \"#utility.yul\":5717:5737   */\n      tag_198\n        /* \"#utility.yul\":5735:5736   */\n      dup4\n        /* \"#utility.yul\":5717:5737   */\n      tag_107\n      jump\t// in\n    tag_198:\n        /* \"#utility.yul\":5712:5737   */\n      swap3\n      pop\n        /* \"#utility.yul\":5905:5906   */\n      dup2\n        /* \"#utility.yul\":5837:5903   */\n      0xffffffffffffffffffffffffffffffffffffffffffffffffffffffffffffffff\n        /* \"#utility.yul\":5833:5907   */\n      div\n        /* \"#utility.yul\":5830:5831   */\n      dup4\n        /* \"#utility.yul\":5827:5908   */\n      gt\n        /* \"#utility.yul\":5822:5823   */\n      dup3\n        /* \"#utility.yul\":5815:5824   */\n      iszero\n        /* \"#utility.yul\":5808:5825   */\n      iszero\n        /* \"#utility.yul\":5804:5909   */\n      and\n        /* \"#utility.yul\":5801:5932   */\n      iszero\n      tag_199\n      jumpi\n        /* \"#utility.yul\":5912:5930   */\n      tag_200\n      tag_127\n      jump\t// in\n    tag_200:\n        /* \"#utility.yul\":5801:5932   */\n    tag_199:\n        /* \"#utility.yul\":5960:5961   */\n      dup3\n        /* \"#utility.yul\":5957:5958   */\n      dup3\n        /* \"#utility.yul\":5953:5962   */\n      mul\n        /* \"#utility.yul\":5942:5962   */\n      swap1\n      pop\n        /* \"#utility.yul\":5620:5968   */\n      swap3\n      swap2\n      pop\n      pop\n      jump\t// out\n        /* \"#utility.yul\":5974:6143   */\n    tag_128:\n        /* \"#utility.yul\":6058:6069   */\n      0x00\n        /* \"#utility.yul\":6092:6098   */\n      dup3\n        /* \"#utility.yul\":6087:6090   */\n      dup3\n        /* \"#utility.yul\":6080:6099   */\n      mstore\n        /* \"#utility.yul\":6132:6136   */\n      0x20\n        /* \"#utility.yul\":6127:6130   */\n      dup3\n        /* \"#utility.yul\":6123:6137   */\n      add\n        /* \"#utility.yul\":6108:6137   */\n      swap1\n      pop\n        /* \"#utility.yul\":5974:6143   */\n      swap3\n      swap2\n      pop\n      pop\n      jump\t// out\n        /* \"#utility.yul\":6149:6324   */\n    tag_129:\n        /* \"#utility.yul\":6289:6316   */\n      0x4561636820656e74727920636f73747320312045746865722e00000000000000\n        /* \"#utility.yul\":6285:6286   */\n      0x00\n        /* \"#utility.yul\":6277:6283   */\n      dup3\n        /* \"#utility.yul\":6273:6287   */\n      add\n        /* \"#utility.yul\":6266:6317   */\n      mstore\n        /* \"#utility.yul\":6149:6324   */\n      pop\n      jump\t// out\n        /* \"#utility.yul\":6330:6696   */\n    tag_130:\n        /* \"#utility.yul\":6472:6475   */\n      0x00\n        /* \"#utility.yul\":6493:6560   */\n      tag_204\n        /* \"#utility.yul\":6557:6559   */\n      0x19\n        /* \"#utility.yul\":6552:6555   */\n      dup4\n        /* \"#utility.yul\":6493:6560   */\n      tag_128\n      jump\t// in\n    tag_204:\n        /* \"#utility.yul\":6486:6560   */\n      swap2\n      pop\n        /* \"#utility.yul\":6569:6662   */\n      tag_205\n        /* \"#utility.yul\":6658:6661   */\n      dup3\n        /* \"#utility.yul\":6569:6662   */\n      tag_129\n      jump\t// in\n    tag_205:\n        /* \"#utility.yul\":6687:6689   */\n      0x20\n        /* \"#utility.yul\":6682:6685   */\n      dup3\n        /* \"#utility.yul\":6678:6690   */\n      add\n        /* \"#utility.yul\":6671:6690   */\n      swap1\n      pop\n        /* \"#utility.yul\":6330:6696   */\n      swap2\n      swap1\n      pop\n      jump\t// out\n        /* \"#utility.yul\":6702:7121   */\n    tag_81:\n        /* \"#utility.yul\":6868:6872   */\n      0x00\n        /* \"#utility.yul\":6906:6908   */\n      0x20\n        /* \"#utility.yul\":6895:6904   */\n      dup3\n        /* \"#utility.yul\":6891:6909   */\n      add\n        /* \"#utility.yul\":6883:6909   */\n      swap1\n      pop\n        /* \"#utility.yul\":6955:6964   */\n      dup2\n        /* \"#utility.yul\":6949:6953   */\n      dup2\n        /* \"#utility.yul\":6945:6965   */\n      sub\n        /* \"#utility.yul\":6941:6942   */\n      0x00\n        /* \"#utility.yul\":6930:6939   */\n      dup4\n        /* \"#utility.yul\":6926:6943   */\n      add\n        /* \"#utility.yul\":6919:6966   */\n      mstore\n        /* \"#utility.yul\":6983:7114   */\n      tag_207\n        /* \"#utility.yul\":7109:7113   */\n      dup2\n        /* \"#utility.yul\":6983:7114   */\n      tag_130\n      jump\t// in\n    tag_207:\n        /* \"#utility.yul\":6975:7114   */\n      swap1\n      pop\n        /* \"#utility.yul\":6702:7121   */\n      swap2\n      swap1\n      pop\n      jump\t// out\n        /* \"#utility.yul\":7127:7360   */\n    tag_87:\n        /* \"#utility.yul\":7166:7169   */\n      0x00\n        /* \"#utility.yul\":7189:7213   */\n      tag_209\n        /* \"#utility.yul\":7207:7212   */\n      dup3\n        /* \"#utility.yul\":7189:7213   */\n      tag_107\n      jump\t// in\n    tag_209:\n        /* \"#utility.yul\":7180:7213   */\n      swap2\n      pop\n        /* \"#utility.yul\":7235:7301   */\n      0xffffffffffffffffffffffffffffffffffffffffffffffffffffffffffffffff\n        /* \"#utility.yul\":7228:7233   */\n      dup3\n        /* \"#utility.yul\":7225:7302   */\n      eq\n        /* \"#utility.yul\":7222:7325   */\n      iszero\n      tag_210\n      jumpi\n        /* \"#utility.yul\":7305:7323   */\n      tag_211\n      tag_127\n      jump\t// in\n    tag_211:\n        /* \"#utility.yul\":7222:7325   */\n    tag_210:\n        /* \"#utility.yul\":7352:7353   */\n      0x01\n        /* \"#utility.yul\":7345:7350   */\n      dup3\n        /* \"#utility.yul\":7341:7354   */\n      add\n        /* \"#utility.yul\":7334:7354   */\n      swap1\n      pop\n        /* \"#utility.yul\":7127:7360   */\n      swap2\n      swap1\n      pop\n      jump\t// out\n        /* \"#utility.yul\":7366:7671   */\n    tag_91:\n        /* \"#utility.yul\":7406:7409   */\n      0x00\n        /* \"#utility.yul\":7425:7445   */\n      tag_213\n        /* \"#utility.yul\":7443:7444   */\n      dup3\n        /* \"#utility.yul\":7425:7445   */\n      tag_107\n      jump\t// in\n    tag_213:\n        /* \"#utility.yul\":7420:7445   */\n      swap2\n      pop\n        /* \"#utility.yul\":7459:7479   */\n      tag_214\n        /* \"#utility.yul\":7477:7478   */\n      dup4\n        /* \"#utility.yul\":7459:7479   */\n      tag_107\n      jump\t// in\n    tag_214:\n        /* \"#utility.yul\":7454:7479   */\n      swap3\n      pop\n        /* \"#utility.yul\":7613:7614   */\n      dup3\n        /* \"#utility.yul\":7545:7611   */\n      0xffffffffffffffffffffffffffffffffffffffffffffffffffffffffffffffff\n        /* \"#utility.yul\":7541:7615   */\n      sub\n        /* \"#utility.yul\":7538:7539   */\n      dup3\n        /* \"#utility.yul\":7535:7616   */\n      gt\n        /* \"#utility.yul\":7532:7639   */\n      iszero\n      tag_215\n      jumpi\n        /* \"#utility.yul\":7619:7637   */\n      tag_216\n      tag_127\n      jump\t// in\n    tag_216:\n        /* \"#utility.yul\":7532:7639   */\n    tag_215:\n        /* \"#utility.yul\":7663:7664   */\n      dup3\n        /* \"#utility.yul\":7660:7661   */\n      dup3\n        /* \"#utility.yul\":7656:7665   */\n      add\n        /* \"#utility.yul\":7649:7665   */\n      swap1\n      pop\n        /* \"#utility.yul\":7366:7671   */\n      swap3\n      swap2\n      pop\n      pop\n      jump\t// out\n        /* \"#utility.yul\":7677:7862   */\n    tag_93:\n        /* \"#utility.yul\":7717:7718   */\n      0x00\n        /* \"#utility.yul\":7734:7754   */\n      tag_218\n        /* \"#utility.yul\":7752:7753   */\n      dup3\n        /* \"#utility.yul\":7734:7754   */\n      tag_107\n      jump\t// in\n    tag_218:\n        /* \"#utility.yul\":7729:7754   */\n      swap2\n      pop\n        /* \"#utility.yul\":7768:7788   */\n      tag_219\n        /* \"#utility.yul\":7786:7787   */\n      dup4\n        /* \"#utility.yul\":7768:7788   */\n      tag_107\n      jump\t// in\n    tag_219:\n        /* \"#utility.yul\":7763:7788   */\n      swap3\n      pop\n        /* \"#utility.yul\":7807:7808   */\n      dup3\n        /* \"#utility.yul\":7797:7832   */\n      tag_220\n      jumpi\n        /* \"#utility.yul\":7812:7830   */\n      tag_221\n      tag_126\n      jump\t// in\n    tag_221:\n        /* \"#utility.yul\":7797:7832   */\n    tag_220:\n        /* \"#utility.yul\":7854:7855   */\n      dup3\n        /* \"#utility.yul\":7851:7852   */\n      dup3\n        /* \"#utility.yul\":7847:7856   */\n      div\n        /* \"#utility.yul\":7842:7856   */\n      swap1\n      pop\n        /* \"#utility.yul\":7677:7862   */\n      swap3\n      swap2\n      pop\n      pop\n      jump\t// out\n        /* \"#utility.yul\":7868:7962   */\n    tag_131:\n        /* \"#utility.yul\":7901:7909   */\n      0x00\n        /* \"#utility.yul\":7949:7954   */\n      dup2\n        /* \"#utility.yul\":7945:7947   */\n      0x60\n        /* \"#utility.yul\":7941:7955   */\n      shl\n        /* \"#utility.yul\":7920:7955   */\n      swap1\n      pop\n        /* \"#utility.yul\":7868:7962   */\n      swap2\n      swap1\n      pop\n      jump\t// out\n        /* \"#utility.yul\":7968:8062   */\n    tag_132:\n        /* \"#utility.yul\":8007:8014   */\n      0x00\n        /* \"#utility.yul\":8036:8056   */\n      tag_224\n        /* \"#utility.yul\":8050:8055   */\n      dup3\n        /* \"#utility.yul\":8036:8056   */\n      tag_131\n      jump\t// in\n    tag_224:\n        /* \"#utility.yul\":8025:8056   */\n      swap1\n      pop\n        /* \"#utility.yul\":7968:8062   */\n      swap2\n      swap1\n      pop\n      jump\t// out\n        /* \"#utility.yul\":8068:8168   */\n    tag_133:\n        /* \"#utility.yul\":8107:8114   */\n      0x00\n        /* \"#utility.yul\":8136:8162   */\n      tag_226\n        /* \"#utility.yul\":8156:8161   */\n      dup3\n        /* \"#utility.yul\":8136:8162   */\n      tag_132\n      jump\t// in\n    tag_226:\n        /* \"#utility.yul\":8125:8162   */\n      swap1\n      pop\n        /* \"#utility.yul\":8068:8168   */\n      swap2\n      swap1\n      pop\n      jump\t// out\n        /* \"#utility.yul\":8174:8331   */\n    tag_134:\n        /* \"#utility.yul\":8279:8324   */\n      tag_228\n        /* \"#utility.yul\":8299:8323   */\n      tag_229\n        /* \"#utility.yul\":8317:8322   */\n      dup3\n        /* \"#utility.yul\":8299:8323   */\n      tag_118\n      jump\t// in\n    tag_229:\n        /* \"#utility.yul\":8279:8324   */\n      tag_133\n      jump\t// in\n    tag_228:\n        /* \"#utility.yul\":8274:8277   */\n      dup3\n        /* \"#utility.yul\":8267:8325   */\n      mstore\n        /* \"#utility.yul\":8174:8331   */\n      pop\n      pop\n      jump\t// out\n        /* \"#utility.yul\":8337:8416   */\n    tag_135:\n        /* \"#utility.yul\":8376:8383   */\n      0x00\n        /* \"#utility.yul\":8405:8410   */\n      dup2\n        /* \"#utility.yul\":8394:8410   */\n      swap1\n      pop\n        /* \"#utility.yul\":8337:8416   */\n      swap2\n      swap1\n      pop\n      jump\t// out\n        /* \"#utility.yul\":8422:8579   */\n    tag_136:\n        /* \"#utility.yul\":8527:8572   */\n      tag_232\n        /* \"#utility.yul\":8547:8571   */\n      tag_233\n        /* \"#utility.yul\":8565:8570   */\n      dup3\n        /* \"#utility.yul\":8547:8571   */\n      tag_107\n      jump\t// in\n    tag_233:\n        /* \"#utility.yul\":8527:8572   */\n      tag_135\n      jump\t// in\n    tag_232:\n        /* \"#utility.yul\":8522:8525   */\n      dup3\n        /* \"#utility.yul\":8515:8573   */\n      mstore\n        /* \"#utility.yul\":8422:8579   */\n      pop\n      pop\n      jump\t// out\n        /* \"#utility.yul\":8585:8982   */\n    tag_99:\n        /* \"#utility.yul\":8725:8728   */\n      0x00\n        /* \"#utility.yul\":8740:8815   */\n      tag_235\n        /* \"#utility.yul\":8811:8814   */\n      dup3\n        /* \"#utility.yul\":8802:8808   */\n      dup6\n        /* \"#utility.yul\":8740:8815   */\n      tag_134\n      jump\t// in\n    tag_235:\n        /* \"#utility.yul\":8840:8842   */\n      0x14\n        /* \"#utility.yul\":8835:8838   */\n      dup3\n        /* \"#utility.yul\":8831:8843   */\n      add\n        /* \"#utility.yul\":8824:8843   */\n      swap2\n      pop\n        /* \"#utility.yul\":8853:8928   */\n      tag_236\n        /* \"#utility.yul\":8924:8927   */\n      dup3\n        /* \"#utility.yul\":8915:8921   */\n      dup5\n        /* \"#utility.yul\":8853:8928   */\n      tag_136\n      jump\t// in\n    tag_236:\n        /* \"#utility.yul\":8953:8955   */\n      0x20\n        /* \"#utility.yul\":8948:8951   */\n      dup3\n        /* \"#utility.yul\":8944:8956   */\n      add\n        /* \"#utility.yul\":8937:8956   */\n      swap2\n      pop\n        /* \"#utility.yul\":8973:8976   */\n      dup2\n        /* \"#utility.yul\":8966:8976   */\n      swap1\n      pop\n        /* \"#utility.yul\":8585:8982   */\n      swap4\n      swap3\n      pop\n      pop\n      pop\n      jump\t// out\n\n    auxdata: 0xa2646970667358221220b5c5735d9fd11a4caa29eef304424b33e7a92fb0646421467ecc1fddc1a38a9c64736f6c634300080b0033\n}\n",
				"bytecode": {
					"linkReferences": {},
					"object": "608060405234801561001057600080fd5b50336000806101000a81548173ffffffffffffffffffffffffffffffffffffffff021916908373ffffffffffffffffffffffffffffffffffffffff160217905550610c74806100606000396000f3fe6080604052600436106100865760003560e01c80638da5cb5b116100595780638da5cb5b14610123578063a59f3e0c1461014e578063acbbd7c01461016a578063b30906d4146101a7578063d605787b146101e457610086565b806312065fe01461008b57806317be85c3146100b657806333a99e04146100e15780638b5b9ccc146100f8575b600080fd5b34801561009757600080fd5b506100a061020f565b6040516100ad9190610724565b60405180910390f35b3480156100c257600080fd5b506100cb610217565b6040516100d89190610724565b60405180910390f35b3480156100ed57600080fd5b506100f6610224565b005b34801561010457600080fd5b5061010d610380565b60405161011a919061082f565b60405180910390f35b34801561012f57600080fd5b5061013861040e565b6040516101459190610872565b60405180910390f35b610168600480360381019061016391906108be565b610432565b005b34801561017657600080fd5b50610191600480360381019061018c91906108be565b610561565b60405161019e9190610724565b60405180910390f35b3480156101b357600080fd5b506101ce60048036038101906101c991906108be565b6105d1565b6040516101db91906108fa565b60405180910390f35b3480156101f057600080fd5b506101f9610610565b6040516102069190610724565b60405180910390f35b600047905090565b6000600180549050905090565b60008054906101000a900473ffffffffffffffffffffffffffffffffffffffff1673ffffffffffffffffffffffffffffffffffffffff163373ffffffffffffffffffffffffffffffffffffffff161461027c57600080fd5b600060018054905061028c610610565b6102969190610944565b9050600181815481106102ac576102ab610975565b5b9060005260206000200160009054906101000a900473ffffffffffffffffffffffffffffffffffffffff1673ffffffffffffffffffffffffffffffffffffffff166108fc479081150290604051600060405180830381858888f1935050505015801561031c573d6000803e3d6000fd5b50600067ffffffffffffffff811115610338576103376109a4565b5b6040519080825280602002602001820160405280156103665781602001602082028036833780820191505090505b506001908051906020019061037c929190610664565b5050565b6060600180548060200260200160405190810160405280929190818152602001828054801561040457602002820191906000526020600020905b8160009054906101000a900473ffffffffffffffffffffffffffffffffffffffff1673ffffffffffffffffffffffffffffffffffffffff16815260200190600101908083116103ba575b5050505050905090565b60008054906101000a900473ffffffffffffffffffffffffffffffffffffffff1681565b670de0b6b3a7640000816104469190610a02565b341015610488576040517f08c379a000000000000000000000000000000000000000000000000000000000815260040161047f90610ab9565b60405180910390fd5b60005b81811061055d576001339080600181540180825580915050600190039060005260206000200160009091909190916101000a81548173ffffffffffffffffffffffffffffffffffffffff021916908373ffffffffffffffffffffffffffffffffffffffff160217905550600260003373ffffffffffffffffffffffffffffffffffffffff1673ffffffffffffffffffffffffffffffffffffffff168152602001908152602001600020600081548092919061054590610ad9565b9190505550808061055590610ad9565b91505061048b565b5050565b6000606460018054905083600260003373ffffffffffffffffffffffffffffffffffffffff1673ffffffffffffffffffffffffffffffffffffffff168152602001908152602001600020546105b69190610b22565b6105c09190610b78565b6105ca9190610a02565b9050919050565b600181815481106105e157600080fd5b906000526020600020016000915054906101000a900473ffffffffffffffffffffffffffffffffffffffff1681565b60008060009054906101000a900473ffffffffffffffffffffffffffffffffffffffff1642604051602001610646929190610c12565b6040516020818303038152906040528051906020012060001c905090565b8280548282559060005260206000209081019282156106dd579160200282015b828111156106dc5782518260006101000a81548173ffffffffffffffffffffffffffffffffffffffff021916908373ffffffffffffffffffffffffffffffffffffffff16021790555091602001919060010190610684565b5b5090506106ea91906106ee565b5090565b5b808211156107075760008160009055506001016106ef565b5090565b6000819050919050565b61071e8161070b565b82525050565b60006020820190506107396000830184610715565b92915050565b600081519050919050565b600082825260208201905092915050565b6000819050602082019050919050565b600073ffffffffffffffffffffffffffffffffffffffff82169050919050565b60006107968261076b565b9050919050565b6107a68161078b565b82525050565b60006107b8838361079d565b60208301905092915050565b6000602082019050919050565b60006107dc8261073f565b6107e6818561074a565b93506107f18361075b565b8060005b8381101561082257815161080988826107ac565b9750610814836107c4565b9250506001810190506107f5565b5085935050505092915050565b6000602082019050818103600083015261084981846107d1565b905092915050565b600061085c8261076b565b9050919050565b61086c81610851565b82525050565b60006020820190506108876000830184610863565b92915050565b600080fd5b61089b8161070b565b81146108a657600080fd5b50565b6000813590506108b881610892565b92915050565b6000602082840312156108d4576108d361088d565b5b60006108e2848285016108a9565b91505092915050565b6108f48161078b565b82525050565b600060208201905061090f60008301846108eb565b92915050565b7f4e487b7100000000000000000000000000000000000000000000000000000000600052601260045260246000fd5b600061094f8261070b565b915061095a8361070b565b92508261096a57610969610915565b5b828206905092915050565b7f4e487b7100000000000000000000000000000000000000000000000000000000600052603260045260246000fd5b7f4e487b7100000000000000000000000000000000000000000000000000000000600052604160045260246000fd5b7f4e487b7100000000000000000000000000000000000000000000000000000000600052601160045260246000fd5b6000610a0d8261070b565b9150610a188361070b565b9250817fffffffffffffffffffffffffffffffffffffffffffffffffffffffffffffffff0483118215151615610a5157610a506109d3565b5b828202905092915050565b600082825260208201905092915050565b7f4561636820656e74727920636f73747320312045746865722e00000000000000600082015250565b6000610aa3601983610a5c565b9150610aae82610a6d565b602082019050919050565b60006020820190508181036000830152610ad281610a96565b9050919050565b6000610ae48261070b565b91507fffffffffffffffffffffffffffffffffffffffffffffffffffffffffffffffff821415610b1757610b166109d3565b5b600182019050919050565b6000610b2d8261070b565b9150610b388361070b565b9250827fffffffffffffffffffffffffffffffffffffffffffffffffffffffffffffffff03821115610b6d57610b6c6109d3565b5b828201905092915050565b6000610b838261070b565b9150610b8e8361070b565b925082610b9e57610b9d610915565b5b828204905092915050565b60008160601b9050919050565b6000610bc182610ba9565b9050919050565b6000610bd382610bb6565b9050919050565b610beb610be682610851565b610bc8565b82525050565b6000819050919050565b610c0c610c078261070b565b610bf1565b82525050565b6000610c1e8285610bda565b601482019150610c2e8284610bfb565b602082019150819050939250505056fea2646970667358221220b5c5735d9fd11a4caa29eef304424b33e7a92fb0646421467ecc1fddc1a38a9c64736f6c634300080b0033",
					"opcodes": "PUSH1 0x80 PUSH1 0x40 MSTORE CALLVALUE DUP1 ISZERO PUSH2 0x10 JUMPI PUSH1 0x0 DUP1 REVERT JUMPDEST POP CALLER PUSH1 0x0 DUP1 PUSH2 0x100 EXP DUP2 SLOAD DUP2 PUSH20 0xFFFFFFFFFFFFFFFFFFFFFFFFFFFFFFFFFFFFFFFF MUL NOT AND SWAP1 DUP4 PUSH20 0xFFFFFFFFFFFFFFFFFFFFFFFFFFFFFFFFFFFFFFFF AND MUL OR SWAP1 SSTORE POP PUSH2 0xC74 DUP1 PUSH2 0x60 PUSH1 0x0 CODECOPY PUSH1 0x0 RETURN INVALID PUSH1 0x80 PUSH1 0x40 MSTORE PUSH1 0x4 CALLDATASIZE LT PUSH2 0x86 JUMPI PUSH1 0x0 CALLDATALOAD PUSH1 0xE0 SHR DUP1 PUSH4 0x8DA5CB5B GT PUSH2 0x59 JUMPI DUP1 PUSH4 0x8DA5CB5B EQ PUSH2 0x123 JUMPI DUP1 PUSH4 0xA59F3E0C EQ PUSH2 0x14E JUMPI DUP1 PUSH4 0xACBBD7C0 EQ PUSH2 0x16A JUMPI DUP1 PUSH4 0xB30906D4 EQ PUSH2 0x1A7 JUMPI DUP1 PUSH4 0xD605787B EQ PUSH2 0x1E4 JUMPI PUSH2 0x86 JUMP JUMPDEST DUP1 PUSH4 0x12065FE0 EQ PUSH2 0x8B JUMPI DUP1 PUSH4 0x17BE85C3 EQ PUSH2 0xB6 JUMPI DUP1 PUSH4 0x33A99E04 EQ PUSH2 0xE1 JUMPI DUP1 PUSH4 0x8B5B9CCC EQ PUSH2 0xF8 JUMPI JUMPDEST PUSH1 0x0 DUP1 REVERT JUMPDEST CALLVALUE DUP1 ISZERO PUSH2 0x97 JUMPI PUSH1 0x0 DUP1 REVERT JUMPDEST POP PUSH2 0xA0 PUSH2 0x20F JUMP JUMPDEST PUSH1 0x40 MLOAD PUSH2 0xAD SWAP2 SWAP1 PUSH2 0x724 JUMP JUMPDEST PUSH1 0x40 MLOAD DUP1 SWAP2 SUB SWAP1 RETURN JUMPDEST CALLVALUE DUP1 ISZERO PUSH2 0xC2 JUMPI PUSH1 0x0 DUP1 REVERT JUMPDEST POP PUSH2 0xCB PUSH2 0x217 JUMP JUMPDEST PUSH1 0x40 MLOAD PUSH2 0xD8 SWAP2 SWAP1 PUSH2 0x724 JUMP JUMPDEST PUSH1 0x40 MLOAD DUP1 SWAP2 SUB SWAP1 RETURN JUMPDEST CALLVALUE DUP1 ISZERO PUSH2 0xED JUMPI PUSH1 0x0 DUP1 REVERT JUMPDEST POP PUSH2 0xF6 PUSH2 0x224 JUMP JUMPDEST STOP JUMPDEST CALLVALUE DUP1 ISZERO PUSH2 0x104 JUMPI PUSH1 0x0 DUP1 REVERT JUMPDEST POP PUSH2 0x10D PUSH2 0x380 JUMP JUMPDEST PUSH1 0x40 MLOAD PUSH2 0x11A SWAP2 SWAP1 PUSH2 0x82F JUMP JUMPDEST PUSH1 0x40 MLOAD DUP1 SWAP2 SUB SWAP1 RETURN JUMPDEST CALLVALUE DUP1 ISZERO PUSH2 0x12F JUMPI PUSH1 0x0 DUP1 REVERT JUMPDEST POP PUSH2 0x138 PUSH2 0x40E JUMP JUMPDEST PUSH1 0x40 MLOAD PUSH2 0x145 SWAP2 SWAP1 PUSH2 0x872 JUMP JUMPDEST PUSH1 0x40 MLOAD DUP1 SWAP2 SUB SWAP1 RETURN JUMPDEST PUSH2 0x168 PUSH1 0x4 DUP1 CALLDATASIZE SUB DUP2 ADD SWAP1 PUSH2 0x163 SWAP2 SWAP1 PUSH2 0x8BE JUMP JUMPDEST PUSH2 0x432 JUMP JUMPDEST STOP JUMPDEST CALLVALUE DUP1 ISZERO PUSH2 0x176 JUMPI PUSH1 0x0 DUP1 REVERT JUMPDEST POP PUSH2 0x191 PUSH1 0x4 DUP1 CALLDATASIZE SUB DUP2 ADD SWAP1 PUSH2 0x18C SWAP2 SWAP1 PUSH2 0x8BE JUMP JUMPDEST PUSH2 0x561 JUMP JUMPDEST PUSH1 0x40 MLOAD PUSH2 0x19E SWAP2 SWAP1 PUSH2 0x724 JUMP JUMPDEST PUSH1 0x40 MLOAD DUP1 SWAP2 SUB SWAP1 RETURN JUMPDEST CALLVALUE DUP1 ISZERO PUSH2 0x1B3 JUMPI PUSH1 0x0 DUP1 REVERT JUMPDEST POP PUSH2 0x1CE PUSH1 0x4 DUP1 CALLDATASIZE SUB DUP2 ADD SWAP1 PUSH2 0x1C9 SWAP2 SWAP1 PUSH2 0x8BE JUMP JUMPDEST PUSH2 0x5D1 JUMP JUMPDEST PUSH1 0x40 MLOAD PUSH2 0x1DB SWAP2 SWAP1 PUSH2 0x8FA JUMP JUMPDEST PUSH1 0x40 MLOAD DUP1 SWAP2 SUB SWAP1 RETURN JUMPDEST CALLVALUE DUP1 ISZERO PUSH2 0x1F0 JUMPI PUSH1 0x0 DUP1 REVERT JUMPDEST POP PUSH2 0x1F9 PUSH2 0x610 JUMP JUMPDEST PUSH1 0x40 MLOAD PUSH2 0x206 SWAP2 SWAP1 PUSH2 0x724 JUMP JUMPDEST PUSH1 0x40 MLOAD DUP1 SWAP2 SUB SWAP1 RETURN JUMPDEST PUSH1 0x0 SELFBALANCE SWAP1 POP SWAP1 JUMP JUMPDEST PUSH1 0x0 PUSH1 0x1 DUP1 SLOAD SWAP1 POP SWAP1 POP SWAP1 JUMP JUMPDEST PUSH1 0x0 DUP1 SLOAD SWAP1 PUSH2 0x100 EXP SWAP1 DIV PUSH20 0xFFFFFFFFFFFFFFFFFFFFFFFFFFFFFFFFFFFFFFFF AND PUSH20 0xFFFFFFFFFFFFFFFFFFFFFFFFFFFFFFFFFFFFFFFF AND CALLER PUSH20 0xFFFFFFFFFFFFFFFFFFFFFFFFFFFFFFFFFFFFFFFF AND EQ PUSH2 0x27C JUMPI PUSH1 0x0 DUP1 REVERT JUMPDEST PUSH1 0x0 PUSH1 0x1 DUP1 SLOAD SWAP1 POP PUSH2 0x28C PUSH2 0x610 JUMP JUMPDEST PUSH2 0x296 SWAP2 SWAP1 PUSH2 0x944 JUMP JUMPDEST SWAP1 POP PUSH1 0x1 DUP2 DUP2 SLOAD DUP2 LT PUSH2 0x2AC JUMPI PUSH2 0x2AB PUSH2 0x975 JUMP JUMPDEST JUMPDEST SWAP1 PUSH1 0x0 MSTORE PUSH1 0x20 PUSH1 0x0 KECCAK256 ADD PUSH1 0x0 SWAP1 SLOAD SWAP1 PUSH2 0x100 EXP SWAP1 DIV PUSH20 0xFFFFFFFFFFFFFFFFFFFFFFFFFFFFFFFFFFFFFFFF AND PUSH20 0xFFFFFFFFFFFFFFFFFFFFFFFFFFFFFFFFFFFFFFFF AND PUSH2 0x8FC SELFBALANCE SWAP1 DUP2 ISZERO MUL SWAP1 PUSH1 0x40 MLOAD PUSH1 0x0 PUSH1 0x40 MLOAD DUP1 DUP4 SUB DUP2 DUP6 DUP9 DUP9 CALL SWAP4 POP POP POP POP ISZERO DUP1 ISZERO PUSH2 0x31C JUMPI RETURNDATASIZE PUSH1 0x0 DUP1 RETURNDATACOPY RETURNDATASIZE PUSH1 0x0 REVERT JUMPDEST POP PUSH1 0x0 PUSH8 0xFFFFFFFFFFFFFFFF DUP2 GT ISZERO PUSH2 0x338 JUMPI PUSH2 0x337 PUSH2 0x9A4 JUMP JUMPDEST JUMPDEST PUSH1 0x40 MLOAD SWAP1 DUP1 DUP3 MSTORE DUP1 PUSH1 0x20 MUL PUSH1 0x20 ADD DUP3 ADD PUSH1 0x40 MSTORE DUP1 ISZERO PUSH2 0x366 JUMPI DUP2 PUSH1 0x20 ADD PUSH1 0x20 DUP3 MUL DUP1 CALLDATASIZE DUP4 CALLDATACOPY DUP1 DUP3 ADD SWAP2 POP POP SWAP1 POP JUMPDEST POP PUSH1 0x1 SWAP1 DUP1 MLOAD SWAP1 PUSH1 0x20 ADD SWAP1 PUSH2 0x37C SWAP3 SWAP2 SWAP1 PUSH2 0x664 JUMP JUMPDEST POP POP JUMP JUMPDEST PUSH1 0x60 PUSH1 0x1 DUP1 SLOAD DUP1 PUSH1 0x20 MUL PUSH1 0x20 ADD PUSH1 0x40 MLOAD SWAP1 DUP2 ADD PUSH1 0x40 MSTORE DUP1 SWAP3 SWAP2 SWAP1 DUP2 DUP2 MSTORE PUSH1 0x20 ADD DUP3 DUP1 SLOAD DUP1 ISZERO PUSH2 0x404 JUMPI PUSH1 0x20 MUL DUP3 ADD SWAP2 SWAP1 PUSH1 0x0 MSTORE PUSH1 0x20 PUSH1 0x0 KECCAK256 SWAP1 JUMPDEST DUP2 PUSH1 0x0 SWAP1 SLOAD SWAP1 PUSH2 0x100 EXP SWAP1 DIV PUSH20 0xFFFFFFFFFFFFFFFFFFFFFFFFFFFFFFFFFFFFFFFF AND PUSH20 0xFFFFFFFFFFFFFFFFFFFFFFFFFFFFFFFFFFFFFFFF AND DUP2 MSTORE PUSH1 0x20 ADD SWAP1 PUSH1 0x1 ADD SWAP1 DUP1 DUP4 GT PUSH2 0x3BA JUMPI JUMPDEST POP POP POP POP POP SWAP1 POP SWAP1 JUMP JUMPDEST PUSH1 0x0 DUP1 SLOAD SWAP1 PUSH2 0x100 EXP SWAP1 DIV PUSH20 0xFFFFFFFFFFFFFFFFFFFFFFFFFFFFFFFFFFFFFFFF AND DUP2 JUMP JUMPDEST PUSH8 0xDE0B6B3A7640000 DUP2 PUSH2 0x446 SWAP2 SWAP1 PUSH2 0xA02 JUMP JUMPDEST CALLVALUE LT ISZERO PUSH2 0x488 JUMPI PUSH1 0x40 MLOAD PUSH32 0x8C379A000000000000000000000000000000000000000000000000000000000 DUP2 MSTORE PUSH1 0x4 ADD PUSH2 0x47F SWAP1 PUSH2 0xAB9 JUMP JUMPDEST PUSH1 0x40 MLOAD DUP1 SWAP2 SUB SWAP1 REVERT JUMPDEST PUSH1 0x0 JUMPDEST DUP2 DUP2 LT PUSH2 0x55D JUMPI PUSH1 0x1 CALLER SWAP1 DUP1 PUSH1 0x1 DUP2 SLOAD ADD DUP1 DUP3 SSTORE DUP1 SWAP2 POP POP PUSH1 0x1 SWAP1 SUB SWAP1 PUSH1 0x0 MSTORE PUSH1 0x20 PUSH1 0x0 KECCAK256 ADD PUSH1 0x0 SWAP1 SWAP2 SWAP1 SWAP2 SWAP1 SWAP2 PUSH2 0x100 EXP DUP2 SLOAD DUP2 PUSH20 0xFFFFFFFFFFFFFFFFFFFFFFFFFFFFFFFFFFFFFFFF MUL NOT AND SWAP1 DUP4 PUSH20 0xFFFFFFFFFFFFFFFFFFFFFFFFFFFFFFFFFFFFFFFF AND MUL OR SWAP1 SSTORE POP PUSH1 0x2 PUSH1 0x0 CALLER PUSH20 0xFFFFFFFFFFFFFFFFFFFFFFFFFFFFFFFFFFFFFFFF AND PUSH20 0xFFFFFFFFFFFFFFFFFFFFFFFFFFFFFFFFFFFFFFFF AND DUP2 MSTORE PUSH1 0x20 ADD SWAP1 DUP2 MSTORE PUSH1 0x20 ADD PUSH1 0x0 KECCAK256 PUSH1 0x0 DUP2 SLOAD DUP1 SWAP3 SWAP2 SWAP1 PUSH2 0x545 SWAP1 PUSH2 0xAD9 JUMP JUMPDEST SWAP2 SWAP1 POP SSTORE POP DUP1 DUP1 PUSH2 0x555 SWAP1 PUSH2 0xAD9 JUMP JUMPDEST SWAP2 POP POP PUSH2 0x48B JUMP JUMPDEST POP POP JUMP JUMPDEST PUSH1 0x0 PUSH1 0x64 PUSH1 0x1 DUP1 SLOAD SWAP1 POP DUP4 PUSH1 0x2 PUSH1 0x0 CALLER PUSH20 0xFFFFFFFFFFFFFFFFFFFFFFFFFFFFFFFFFFFFFFFF AND PUSH20 0xFFFFFFFFFFFFFFFFFFFFFFFFFFFFFFFFFFFFFFFF AND DUP2 MSTORE PUSH1 0x20 ADD SWAP1 DUP2 MSTORE PUSH1 0x20 ADD PUSH1 0x0 KECCAK256 SLOAD PUSH2 0x5B6 SWAP2 SWAP1 PUSH2 0xB22 JUMP JUMPDEST PUSH2 0x5C0 SWAP2 SWAP1 PUSH2 0xB78 JUMP JUMPDEST PUSH2 0x5CA SWAP2 SWAP1 PUSH2 0xA02 JUMP JUMPDEST SWAP1 POP SWAP2 SWAP1 POP JUMP JUMPDEST PUSH1 0x1 DUP2 DUP2 SLOAD DUP2 LT PUSH2 0x5E1 JUMPI PUSH1 0x0 DUP1 REVERT JUMPDEST SWAP1 PUSH1 0x0 MSTORE PUSH1 0x20 PUSH1 0x0 KECCAK256 ADD PUSH1 0x0 SWAP2 POP SLOAD SWAP1 PUSH2 0x100 EXP SWAP1 DIV PUSH20 0xFFFFFFFFFFFFFFFFFFFFFFFFFFFFFFFFFFFFFFFF AND DUP2 JUMP JUMPDEST PUSH1 0x0 DUP1 PUSH1 0x0 SWAP1 SLOAD SWAP1 PUSH2 0x100 EXP SWAP1 DIV PUSH20 0xFFFFFFFFFFFFFFFFFFFFFFFFFFFFFFFFFFFFFFFF AND TIMESTAMP PUSH1 0x40 MLOAD PUSH1 0x20 ADD PUSH2 0x646 SWAP3 SWAP2 SWAP1 PUSH2 0xC12 JUMP JUMPDEST PUSH1 0x40 MLOAD PUSH1 0x20 DUP2 DUP4 SUB SUB DUP2 MSTORE SWAP1 PUSH1 0x40 MSTORE DUP1 MLOAD SWAP1 PUSH1 0x20 ADD KECCAK256 PUSH1 0x0 SHR SWAP1 POP SWAP1 JUMP JUMPDEST DUP3 DUP1 SLOAD DUP3 DUP3 SSTORE SWAP1 PUSH1 0x0 MSTORE PUSH1 0x20 PUSH1 0x0 KECCAK256 SWAP1 DUP2 ADD SWAP3 DUP3 ISZERO PUSH2 0x6DD JUMPI SWAP2 PUSH1 0x20 MUL DUP3 ADD JUMPDEST DUP3 DUP2 GT ISZERO PUSH2 0x6DC JUMPI DUP3 MLOAD DUP3 PUSH1 0x0 PUSH2 0x100 EXP DUP2 SLOAD DUP2 PUSH20 0xFFFFFFFFFFFFFFFFFFFFFFFFFFFFFFFFFFFFFFFF MUL NOT AND SWAP1 DUP4 PUSH20 0xFFFFFFFFFFFFFFFFFFFFFFFFFFFFFFFFFFFFFFFF AND MUL OR SWAP1 SSTORE POP SWAP2 PUSH1 0x20 ADD SWAP2 SWAP1 PUSH1 0x1 ADD SWAP1 PUSH2 0x684 JUMP JUMPDEST JUMPDEST POP SWAP1 POP PUSH2 0x6EA SWAP2 SWAP1 PUSH2 0x6EE JUMP JUMPDEST POP SWAP1 JUMP JUMPDEST JUMPDEST DUP1 DUP3 GT ISZERO PUSH2 0x707 JUMPI PUSH1 0x0 DUP2 PUSH1 0x0 SWAP1 SSTORE POP PUSH1 0x1 ADD PUSH2 0x6EF JUMP JUMPDEST POP SWAP1 JUMP JUMPDEST PUSH1 0x0 DUP2 SWAP1 POP SWAP2 SWAP1 POP JUMP JUMPDEST PUSH2 0x71E DUP2 PUSH2 0x70B JUMP JUMPDEST DUP3 MSTORE POP POP JUMP JUMPDEST PUSH1 0x0 PUSH1 0x20 DUP3 ADD SWAP1 POP PUSH2 0x739 PUSH1 0x0 DUP4 ADD DUP5 PUSH2 0x715 JUMP JUMPDEST SWAP3 SWAP2 POP POP JUMP JUMPDEST PUSH1 0x0 DUP2 MLOAD SWAP1 POP SWAP2 SWAP1 POP JUMP JUMPDEST PUSH1 0x0 DUP3 DUP3 MSTORE PUSH1 0x20 DUP3 ADD SWAP1 POP SWAP3 SWAP2 POP POP JUMP JUMPDEST PUSH1 0x0 DUP2 SWAP1 POP PUSH1 0x20 DUP3 ADD SWAP1 POP SWAP2 SWAP1 POP JUMP JUMPDEST PUSH1 0x0 PUSH20 0xFFFFFFFFFFFFFFFFFFFFFFFFFFFFFFFFFFFFFFFF DUP3 AND SWAP1 POP SWAP2 SWAP1 POP JUMP JUMPDEST PUSH1 0x0 PUSH2 0x796 DUP3 PUSH2 0x76B JUMP JUMPDEST SWAP1 POP SWAP2 SWAP1 POP JUMP JUMPDEST PUSH2 0x7A6 DUP2 PUSH2 0x78B JUMP JUMPDEST DUP3 MSTORE POP POP JUMP JUMPDEST PUSH1 0x0 PUSH2 0x7B8 DUP4 DUP4 PUSH2 0x79D JUMP JUMPDEST PUSH1 0x20 DUP4 ADD SWAP1 POP SWAP3 SWAP2 POP POP JUMP JUMPDEST PUSH1 0x0 PUSH1 0x20 DUP3 ADD SWAP1 POP SWAP2 SWAP1 POP JUMP JUMPDEST PUSH1 0x0 PUSH2 0x7DC DUP3 PUSH2 0x73F JUMP JUMPDEST PUSH2 0x7E6 DUP2 DUP6 PUSH2 0x74A JUMP JUMPDEST SWAP4 POP PUSH2 0x7F1 DUP4 PUSH2 0x75B JUMP JUMPDEST DUP1 PUSH1 0x0 JUMPDEST DUP4 DUP2 LT ISZERO PUSH2 0x822 JUMPI DUP2 MLOAD PUSH2 0x809 DUP9 DUP3 PUSH2 0x7AC JUMP JUMPDEST SWAP8 POP PUSH2 0x814 DUP4 PUSH2 0x7C4 JUMP JUMPDEST SWAP3 POP POP PUSH1 0x1 DUP2 ADD SWAP1 POP PUSH2 0x7F5 JUMP JUMPDEST POP DUP6 SWAP4 POP POP POP POP SWAP3 SWAP2 POP POP JUMP JUMPDEST PUSH1 0x0 PUSH1 0x20 DUP3 ADD SWAP1 POP DUP2 DUP2 SUB PUSH1 0x0 DUP4 ADD MSTORE PUSH2 0x849 DUP2 DUP5 PUSH2 0x7D1 JUMP JUMPDEST SWAP1 POP SWAP3 SWAP2 POP POP JUMP JUMPDEST PUSH1 0x0 PUSH2 0x85C DUP3 PUSH2 0x76B JUMP JUMPDEST SWAP1 POP SWAP2 SWAP1 POP JUMP JUMPDEST PUSH2 0x86C DUP2 PUSH2 0x851 JUMP JUMPDEST DUP3 MSTORE POP POP JUMP JUMPDEST PUSH1 0x0 PUSH1 0x20 DUP3 ADD SWAP1 POP PUSH2 0x887 PUSH1 0x0 DUP4 ADD DUP5 PUSH2 0x863 JUMP JUMPDEST SWAP3 SWAP2 POP POP JUMP JUMPDEST PUSH1 0x0 DUP1 REVERT JUMPDEST PUSH2 0x89B DUP2 PUSH2 0x70B JUMP JUMPDEST DUP2 EQ PUSH2 0x8A6 JUMPI PUSH1 0x0 DUP1 REVERT JUMPDEST POP JUMP JUMPDEST PUSH1 0x0 DUP2 CALLDATALOAD SWAP1 POP PUSH2 0x8B8 DUP2 PUSH2 0x892 JUMP JUMPDEST SWAP3 SWAP2 POP POP JUMP JUMPDEST PUSH1 0x0 PUSH1 0x20 DUP3 DUP5 SUB SLT ISZERO PUSH2 0x8D4 JUMPI PUSH2 0x8D3 PUSH2 0x88D JUMP JUMPDEST JUMPDEST PUSH1 0x0 PUSH2 0x8E2 DUP5 DUP3 DUP6 ADD PUSH2 0x8A9 JUMP JUMPDEST SWAP2 POP POP SWAP3 SWAP2 POP POP JUMP JUMPDEST PUSH2 0x8F4 DUP2 PUSH2 0x78B JUMP JUMPDEST DUP3 MSTORE POP POP JUMP JUMPDEST PUSH1 0x0 PUSH1 0x20 DUP3 ADD SWAP1 POP PUSH2 0x90F PUSH1 0x0 DUP4 ADD DUP5 PUSH2 0x8EB JUMP JUMPDEST SWAP3 SWAP2 POP POP JUMP JUMPDEST PUSH32 0x4E487B7100000000000000000000000000000000000000000000000000000000 PUSH1 0x0 MSTORE PUSH1 0x12 PUSH1 0x4 MSTORE PUSH1 0x24 PUSH1 0x0 REVERT JUMPDEST PUSH1 0x0 PUSH2 0x94F DUP3 PUSH2 0x70B JUMP JUMPDEST SWAP2 POP PUSH2 0x95A DUP4 PUSH2 0x70B JUMP JUMPDEST SWAP3 POP DUP3 PUSH2 0x96A JUMPI PUSH2 0x969 PUSH2 0x915 JUMP JUMPDEST JUMPDEST DUP3 DUP3 MOD SWAP1 POP SWAP3 SWAP2 POP POP JUMP JUMPDEST PUSH32 0x4E487B7100000000000000000000000000000000000000000000000000000000 PUSH1 0x0 MSTORE PUSH1 0x32 PUSH1 0x4 MSTORE PUSH1 0x24 PUSH1 0x0 REVERT JUMPDEST PUSH32 0x4E487B7100000000000000000000000000000000000000000000000000000000 PUSH1 0x0 MSTORE PUSH1 0x41 PUSH1 0x4 MSTORE PUSH1 0x24 PUSH1 0x0 REVERT JUMPDEST PUSH32 0x4E487B7100000000000000000000000000000000000000000000000000000000 PUSH1 0x0 MSTORE PUSH1 0x11 PUSH1 0x4 MSTORE PUSH1 0x24 PUSH1 0x0 REVERT JUMPDEST PUSH1 0x0 PUSH2 0xA0D DUP3 PUSH2 0x70B JUMP JUMPDEST SWAP2 POP PUSH2 0xA18 DUP4 PUSH2 0x70B JUMP JUMPDEST SWAP3 POP DUP2 PUSH32 0xFFFFFFFFFFFFFFFFFFFFFFFFFFFFFFFFFFFFFFFFFFFFFFFFFFFFFFFFFFFFFFFF DIV DUP4 GT DUP3 ISZERO ISZERO AND ISZERO PUSH2 0xA51 JUMPI PUSH2 0xA50 PUSH2 0x9D3 JUMP JUMPDEST JUMPDEST DUP3 DUP3 MUL SWAP1 POP SWAP3 SWAP2 POP POP JUMP JUMPDEST PUSH1 0x0 DUP3 DUP3 MSTORE PUSH1 0x20 DUP3 ADD SWAP1 POP SWAP3 SWAP2 POP POP JUMP JUMPDEST PUSH32 0x4561636820656E74727920636F73747320312045746865722E00000000000000 PUSH1 0x0 DUP3 ADD MSTORE POP JUMP JUMPDEST PUSH1 0x0 PUSH2 0xAA3 PUSH1 0x19 DUP4 PUSH2 0xA5C JUMP JUMPDEST SWAP2 POP PUSH2 0xAAE DUP3 PUSH2 0xA6D JUMP JUMPDEST PUSH1 0x20 DUP3 ADD SWAP1 POP SWAP2 SWAP1 POP JUMP JUMPDEST PUSH1 0x0 PUSH1 0x20 DUP3 ADD SWAP1 POP DUP2 DUP2 SUB PUSH1 0x0 DUP4 ADD MSTORE PUSH2 0xAD2 DUP2 PUSH2 0xA96 JUMP JUMPDEST SWAP1 POP SWAP2 SWAP1 POP JUMP JUMPDEST PUSH1 0x0 PUSH2 0xAE4 DUP3 PUSH2 0x70B JUMP JUMPDEST SWAP2 POP PUSH32 0xFFFFFFFFFFFFFFFFFFFFFFFFFFFFFFFFFFFFFFFFFFFFFFFFFFFFFFFFFFFFFFFF DUP3 EQ ISZERO PUSH2 0xB17 JUMPI PUSH2 0xB16 PUSH2 0x9D3 JUMP JUMPDEST JUMPDEST PUSH1 0x1 DUP3 ADD SWAP1 POP SWAP2 SWAP1 POP JUMP JUMPDEST PUSH1 0x0 PUSH2 0xB2D DUP3 PUSH2 0x70B JUMP JUMPDEST SWAP2 POP PUSH2 0xB38 DUP4 PUSH2 0x70B JUMP JUMPDEST SWAP3 POP DUP3 PUSH32 0xFFFFFFFFFFFFFFFFFFFFFFFFFFFFFFFFFFFFFFFFFFFFFFFFFFFFFFFFFFFFFFFF SUB DUP3 GT ISZERO PUSH2 0xB6D JUMPI PUSH2 0xB6C PUSH2 0x9D3 JUMP JUMPDEST JUMPDEST DUP3 DUP3 ADD SWAP1 POP SWAP3 SWAP2 POP POP JUMP JUMPDEST PUSH1 0x0 PUSH2 0xB83 DUP3 PUSH2 0x70B JUMP JUMPDEST SWAP2 POP PUSH2 0xB8E DUP4 PUSH2 0x70B JUMP JUMPDEST SWAP3 POP DUP3 PUSH2 0xB9E JUMPI PUSH2 0xB9D PUSH2 0x915 JUMP JUMPDEST JUMPDEST DUP3 DUP3 DIV SWAP1 POP SWAP3 SWAP2 POP POP JUMP JUMPDEST PUSH1 0x0 DUP2 PUSH1 0x60 SHL SWAP1 POP SWAP2 SWAP1 POP JUMP JUMPDEST PUSH1 0x0 PUSH2 0xBC1 DUP3 PUSH2 0xBA9 JUMP JUMPDEST SWAP1 POP SWAP2 SWAP1 POP JUMP JUMPDEST PUSH1 0x0 PUSH2 0xBD3 DUP3 PUSH2 0xBB6 JUMP JUMPDEST SWAP1 POP SWAP2 SWAP1 POP JUMP JUMPDEST PUSH2 0xBEB PUSH2 0xBE6 DUP3 PUSH2 0x851 JUMP JUMPDEST PUSH2 0xBC8 JUMP JUMPDEST DUP3 MSTORE POP POP JUMP JUMPDEST PUSH1 0x0 DUP2 SWAP1 POP SWAP2 SWAP1 POP JUMP JUMPDEST PUSH2 0xC0C PUSH2 0xC07 DUP3 PUSH2 0x70B JUMP JUMPDEST PUSH2 0xBF1 JUMP JUMPDEST DUP3 MSTORE POP POP JUMP JUMPDEST PUSH1 0x0 PUSH2 0xC1E DUP3 DUP6 PUSH2 0xBDA JUMP JUMPDEST PUSH1 0x14 DUP3 ADD SWAP2 POP PUSH2 0xC2E DUP3 DUP5 PUSH2 0xBFB JUMP JUMPDEST PUSH1 0x20 DUP3 ADD SWAP2 POP DUP2 SWAP1 POP SWAP4 SWAP3 POP POP POP JUMP INVALID LOG2 PUSH5 0x6970667358 0x22 SLT KECCAK256 0xB5 0xC5 PUSH20 0x5D9FD11A4CAA29EEF304424B33E7A92FB0646421 CHAINID PUSH31 0xCC1FDDC1A38A9C64736F6C634300080B003300000000000000000000000000 "
				},
				"gasEstimates": {
					"creation": {
						"codeDepositCost": "637600",
						"executionCost": "24936",
						"totalCost": "662536"
					},
					"external": {
						"enter(uint256)": "infinite",
						"entries(uint256)": "5022",
						"getBalance()": "340",
						"getEntries()": "2468",
						"getPlayers()": "infinite",
						"owner()": "2511",
						"playerOdds(uint256)": "infinite",
						"rng()": "infinite",
						"selectWinner()": "infinite"
					}
				},
				"methodIdentifiers": {
					"enter(uint256)": "a59f3e0c",
					"entries(uint256)": "b30906d4",
					"getBalance()": "12065fe0",
					"getEntries()": "17be85c3",
					"getPlayers()": "8b5b9ccc",
					"owner()": "8da5cb5b",
					"playerOdds(uint256)": "acbbd7c0",
					"rng()": "d605787b",
					"selectWinner()": "33a99e04"
				}
			},
			"storageLayout": {
				"storage": [
					{
						"astId": 3,
						"contract": "Documents/Web3/Casino/001 Lottery.sol:lottery",
						"label": "owner",
						"offset": 0,
						"slot": "0",
						"type": "t_address"
					},
					{
						"astId": 6,
						"contract": "Documents/Web3/Casino/001 Lottery.sol:lottery",
						"label": "entries",
						"offset": 0,
						"slot": "1",
						"type": "t_array(t_address_payable)dyn_storage"
					},
					{
						"astId": 19,
						"contract": "Documents/Web3/Casino/001 Lottery.sol:lottery",
						"label": "playerEntriesAmount",
						"offset": 0,
						"slot": "2",
						"type": "t_mapping(t_address,t_uint256)"
					}
				],
				"types": {
					"t_address": {
						"encoding": "inplace",
						"label": "address",
						"numberOfBytes": "20"
					},
					"t_address_payable": {
						"encoding": "inplace",
						"label": "address payable",
						"numberOfBytes": "20"
					},
					"t_array(t_address_payable)dyn_storage": {
						"base": "t_address_payable",
						"encoding": "dynamic_array",
						"label": "address payable[]",
						"numberOfBytes": "32"
					},
					"t_mapping(t_address,t_uint256)": {
						"encoding": "mapping",
						"key": "t_address",
						"label": "mapping(address => uint256)",
						"numberOfBytes": "32",
						"value": "t_uint256"
					},
					"t_uint256": {
						"encoding": "inplace",
						"label": "uint256",
						"numberOfBytes": "32"
					}
				}
			},
			"userdoc": {
				"kind": "user",
				"methods": {},
				"version": 1
			}
		}
	}
}