{
	"Documents/Web3/Casino/001 Lottery.sol": {
		"lottery": {
			"abi": [
				{
					"inputs": [],
					"stateMutability": "nonpayable",
					"type": "constructor"
				},
				{
					"inputs": [
						{
							"internalType": "uint256",
							"name": "amount",
							"type": "uint256"
						}
					],
					"name": "enter",
					"outputs": [],
					"stateMutability": "payable",
					"type": "function"
				},
				{
					"inputs": [
						{
							"internalType": "uint256",
							"name": "",
							"type": "uint256"
						}
					],
					"name": "entries",
					"outputs": [
						{
							"internalType": "address payable",
							"name": "",
							"type": "address"
						}
					],
					"stateMutability": "view",
					"type": "function"
				},
				{
					"inputs": [],
					"name": "owner",
					"outputs": [
						{
							"internalType": "address",
							"name": "",
							"type": "address"
						}
					],
					"stateMutability": "view",
					"type": "function"
				},
				{
					"inputs": [
						{
							"internalType": "uint256",
							"name": "additionalEntries",
							"type": "uint256"
						}
					],
					"name": "playerOdds",
					"outputs": [
						{
							"internalType": "uint256",
							"name": "",
							"type": "uint256"
						}
					],
					"stateMutability": "view",
					"type": "function"
				},
				{
					"inputs": [],
					"name": "rng",
					"outputs": [
						{
							"internalType": "uint256",
							"name": "",
							"type": "uint256"
						}
					],
					"stateMutability": "view",
					"type": "function"
				},
				{
					"inputs": [],
					"name": "selectWinner",
					"outputs": [],
					"stateMutability": "nonpayable",
					"type": "function"
				}
			],
			"devdoc": {
				"kind": "dev",
				"methods": {},
				"version": 1
			},
			"evm": {
				"assembly": "    /* \"Documents/Web3/Casino/001 Lottery.sol\":65:1598  contract lottery {... */\n  mstore(0x40, 0x80)\n    /* \"Documents/Web3/Casino/001 Lottery.sol\":188:237  constructor() {... */\n  callvalue\n  dup1\n  iszero\n  tag_1\n  jumpi\n  0x00\n  dup1\n  revert\ntag_1:\n  pop\n    /* \"Documents/Web3/Casino/001 Lottery.sol\":220:230  msg.sender */\n  caller\n    /* \"Documents/Web3/Casino/001 Lottery.sol\":212:217  owner */\n  0x00\n  dup1\n    /* \"Documents/Web3/Casino/001 Lottery.sol\":212:230  owner = msg.sender */\n  0x0100\n  exp\n  dup2\n  sload\n  dup2\n  0xffffffffffffffffffffffffffffffffffffffff\n  mul\n  not\n  and\n  swap1\n  dup4\n  0xffffffffffffffffffffffffffffffffffffffff\n  and\n  mul\n  or\n  swap1\n  sstore\n  pop\n    /* \"Documents/Web3/Casino/001 Lottery.sol\":65:1598  contract lottery {... */\n  dataSize(sub_0)\n  dup1\n  dataOffset(sub_0)\n  0x00\n  codecopy\n  0x00\n  return\nstop\n\nsub_0: assembly {\n        /* \"Documents/Web3/Casino/001 Lottery.sol\":65:1598  contract lottery {... */\n      mstore(0x40, 0x80)\n      jumpi(tag_1, lt(calldatasize, 0x04))\n      shr(0xe0, calldataload(0x00))\n      dup1\n      0x33a99e04\n      eq\n      tag_2\n      jumpi\n      dup1\n      0x8da5cb5b\n      eq\n      tag_3\n      jumpi\n      dup1\n      0xa59f3e0c\n      eq\n      tag_4\n      jumpi\n      dup1\n      0xacbbd7c0\n      eq\n      tag_5\n      jumpi\n      dup1\n      0xb30906d4\n      eq\n      tag_6\n      jumpi\n      dup1\n      0xd605787b\n      eq\n      tag_7\n      jumpi\n    tag_1:\n      0x00\n      dup1\n      revert\n        /* \"Documents/Web3/Casino/001 Lottery.sol\":991:1315  function selectWinner() public onlyOwner {... */\n    tag_2:\n      callvalue\n      dup1\n      iszero\n      tag_8\n      jumpi\n      0x00\n      dup1\n      revert\n    tag_8:\n      pop\n      tag_9\n      tag_10\n      jump\t// in\n    tag_9:\n      stop\n        /* \"Documents/Web3/Casino/001 Lottery.sol\":106:126  address public owner */\n    tag_3:\n      callvalue\n      dup1\n      iszero\n      tag_11\n      jumpi\n      0x00\n      dup1\n      revert\n    tag_11:\n      pop\n      tag_12\n      tag_13\n      jump\t// in\n    tag_12:\n      mload(0x40)\n      tag_14\n      swap2\n      swap1\n      tag_15\n      jump\t// in\n    tag_14:\n      mload(0x40)\n      dup1\n      swap2\n      sub\n      swap1\n      return\n        /* \"Documents/Web3/Casino/001 Lottery.sol\":505:781  function enter(uint amount) public payable {... */\n    tag_4:\n      tag_16\n      0x04\n      dup1\n      calldatasize\n      sub\n      dup2\n      add\n      swap1\n      tag_17\n      swap2\n      swap1\n      tag_18\n      jump\t// in\n    tag_17:\n      tag_19\n      jump\t// in\n    tag_16:\n      stop\n        /* \"Documents/Web3/Casino/001 Lottery.sol\":1417:1596  function playerOdds(uint additionalEntries) public view returns (uint) {... */\n    tag_5:\n      callvalue\n      dup1\n      iszero\n      tag_20\n      jumpi\n      0x00\n      dup1\n      revert\n    tag_20:\n      pop\n      tag_21\n      0x04\n      dup1\n      calldatasize\n      sub\n      dup2\n      add\n      swap1\n      tag_22\n      swap2\n      swap1\n      tag_18\n      jump\t// in\n    tag_22:\n      tag_23\n      jump\t// in\n    tag_21:\n      mload(0x40)\n      tag_24\n      swap2\n      swap1\n      tag_25\n      jump\t// in\n    tag_24:\n      mload(0x40)\n      dup1\n      swap2\n      sub\n      swap1\n      return\n        /* \"Documents/Web3/Casino/001 Lottery.sol\":132:164  address payable[] public entries */\n    tag_6:\n      callvalue\n      dup1\n      iszero\n      tag_26\n      jumpi\n      0x00\n      dup1\n      revert\n    tag_26:\n      pop\n      tag_27\n      0x04\n      dup1\n      calldatasize\n      sub\n      dup2\n      add\n      swap1\n      tag_28\n      swap2\n      swap1\n      tag_18\n      jump\t// in\n    tag_28:\n      tag_29\n      jump\t// in\n    tag_27:\n      mload(0x40)\n      tag_30\n      swap2\n      swap1\n      tag_31\n      jump\t// in\n    tag_30:\n      mload(0x40)\n      dup1\n      swap2\n      sub\n      swap1\n      return\n        /* \"Documents/Web3/Casino/001 Lottery.sol\":829:952  function rng() public view returns (uint) {... */\n    tag_7:\n      callvalue\n      dup1\n      iszero\n      tag_32\n      jumpi\n      0x00\n      dup1\n      revert\n    tag_32:\n      pop\n      tag_33\n      tag_34\n      jump\t// in\n    tag_33:\n      mload(0x40)\n      tag_35\n      swap2\n      swap1\n      tag_25\n      jump\t// in\n    tag_35:\n      mload(0x40)\n      dup1\n      swap2\n      sub\n      swap1\n      return\n        /* \"Documents/Web3/Casino/001 Lottery.sol\":991:1315  function selectWinner() public onlyOwner {... */\n    tag_10:\n        /* \"Documents/Web3/Casino/001 Lottery.sol\":426:431  owner */\n      0x00\n      dup1\n      sload\n      swap1\n      0x0100\n      exp\n      swap1\n      div\n      0xffffffffffffffffffffffffffffffffffffffff\n      and\n        /* \"Documents/Web3/Casino/001 Lottery.sol\":412:431  msg.sender == owner */\n      0xffffffffffffffffffffffffffffffffffffffff\n      and\n        /* \"Documents/Web3/Casino/001 Lottery.sol\":412:422  msg.sender */\n      caller\n        /* \"Documents/Web3/Casino/001 Lottery.sol\":412:431  msg.sender == owner */\n      0xffffffffffffffffffffffffffffffffffffffff\n      and\n      eq\n        /* \"Documents/Web3/Casino/001 Lottery.sol\":404:432  require(msg.sender == owner) */\n      tag_37\n      jumpi\n      0x00\n      dup1\n      revert\n    tag_37:\n        /* \"Documents/Web3/Casino/001 Lottery.sol\":1079:1089  uint index */\n      0x00\n        /* \"Documents/Web3/Casino/001 Lottery.sol\":1100:1107  entries */\n      0x01\n        /* \"Documents/Web3/Casino/001 Lottery.sol\":1100:1114  entries.length */\n      dup1\n      sload\n      swap1\n      pop\n        /* \"Documents/Web3/Casino/001 Lottery.sol\":1092:1097  rng() */\n      tag_39\n        /* \"Documents/Web3/Casino/001 Lottery.sol\":1092:1095  rng */\n      tag_34\n        /* \"Documents/Web3/Casino/001 Lottery.sol\":1092:1097  rng() */\n      jump\t// in\n    tag_39:\n        /* \"Documents/Web3/Casino/001 Lottery.sol\":1092:1114  rng() % entries.length */\n      tag_40\n      swap2\n      swap1\n      tag_41\n      jump\t// in\n    tag_40:\n        /* \"Documents/Web3/Casino/001 Lottery.sol\":1079:1114  uint index = rng() % entries.length */\n      swap1\n      pop\n        /* \"Documents/Web3/Casino/001 Lottery.sol\":1191:1198  entries */\n      0x01\n        /* \"Documents/Web3/Casino/001 Lottery.sol\":1199:1204  index */\n      dup2\n        /* \"Documents/Web3/Casino/001 Lottery.sol\":1191:1205  entries[index] */\n      dup2\n      sload\n      dup2\n      lt\n      tag_42\n      jumpi\n      tag_43\n      tag_44\n      jump\t// in\n    tag_43:\n    tag_42:\n      swap1\n      0x00\n      mstore\n      keccak256(0x00, 0x20)\n      add\n      0x00\n      swap1\n      sload\n      swap1\n      0x0100\n      exp\n      swap1\n      div\n      0xffffffffffffffffffffffffffffffffffffffff\n      and\n        /* \"Documents/Web3/Casino/001 Lottery.sol\":1191:1214  entries[index].transfer */\n      0xffffffffffffffffffffffffffffffffffffffff\n      and\n        /* \"Documents/Web3/Casino/001 Lottery.sol\":1191:1237  entries[index].transfer(address(this).balance) */\n      0x08fc\n        /* \"Documents/Web3/Casino/001 Lottery.sol\":1215:1236  address(this).balance */\n      selfbalance\n        /* \"Documents/Web3/Casino/001 Lottery.sol\":1191:1237  entries[index].transfer(address(this).balance) */\n      swap1\n      dup2\n      iszero\n      mul\n      swap1\n      mload(0x40)\n      0x00\n      mload(0x40)\n      dup1\n      dup4\n      sub\n      dup2\n      dup6\n      dup9\n      dup9\n      call\n      swap4\n      pop\n      pop\n      pop\n      pop\n      iszero\n      dup1\n      iszero\n      tag_47\n      jumpi\n      returndatasize\n      0x00\n      dup1\n      returndatacopy\n      revert(0x00, returndatasize)\n    tag_47:\n      pop\n        /* \"Documents/Web3/Casino/001 Lottery.sol\":1306:1307  0 */\n      0x00\n        /* \"Documents/Web3/Casino/001 Lottery.sol\":1284:1308  new address payable[](0) */\n      0xffffffffffffffff\n      dup2\n      gt\n      iszero\n      tag_48\n      jumpi\n      tag_49\n      tag_50\n      jump\t// in\n    tag_49:\n    tag_48:\n      mload(0x40)\n      swap1\n      dup1\n      dup3\n      mstore\n      dup1\n      0x20\n      mul\n      0x20\n      add\n      dup3\n      add\n      0x40\n      mstore\n      dup1\n      iszero\n      tag_51\n      jumpi\n      dup2\n      0x20\n      add\n      0x20\n      dup3\n      mul\n      dup1\n      calldatasize\n      dup4\n      calldatacopy\n      dup1\n      dup3\n      add\n      swap2\n      pop\n      pop\n      swap1\n      pop\n    tag_51:\n      pop\n        /* \"Documents/Web3/Casino/001 Lottery.sol\":1274:1281  entries */\n      0x01\n        /* \"Documents/Web3/Casino/001 Lottery.sol\":1274:1308  entries = new address payable[](0) */\n      swap1\n      dup1\n      mload\n      swap1\n      0x20\n      add\n      swap1\n      tag_52\n      swap3\n      swap2\n      swap1\n      tag_53\n      jump\t// in\n    tag_52:\n      pop\n        /* \"Documents/Web3/Casino/001 Lottery.sol\":1032:1315  {... */\n      pop\n        /* \"Documents/Web3/Casino/001 Lottery.sol\":991:1315  function selectWinner() public onlyOwner {... */\n      jump\t// out\n        /* \"Documents/Web3/Casino/001 Lottery.sol\":106:126  address public owner */\n    tag_13:\n      0x00\n      dup1\n      sload\n      swap1\n      0x0100\n      exp\n      swap1\n      div\n      0xffffffffffffffffffffffffffffffffffffffff\n      and\n      dup2\n      jump\t// out\n        /* \"Documents/Web3/Casino/001 Lottery.sol\":505:781  function enter(uint amount) public payable {... */\n    tag_19:\n        /* \"Documents/Web3/Casino/001 Lottery.sol\":588:595  1 ether */\n      0x0de0b6b3a7640000\n        /* \"Documents/Web3/Casino/001 Lottery.sol\":579:585  amount */\n      dup2\n        /* \"Documents/Web3/Casino/001 Lottery.sol\":579:595  amount * 1 ether */\n      tag_55\n      swap2\n      swap1\n      tag_56\n      jump\t// in\n    tag_55:\n        /* \"Documents/Web3/Casino/001 Lottery.sol\":566:575  msg.value */\n      callvalue\n        /* \"Documents/Web3/Casino/001 Lottery.sol\":566:595  msg.value >= amount * 1 ether */\n      lt\n      iszero\n        /* \"Documents/Web3/Casino/001 Lottery.sol\":558:625  require(msg.value >= amount * 1 ether, \"Each entry costs 1 Ether.\") */\n      tag_57\n      jumpi\n      mload(0x40)\n      0x08c379a000000000000000000000000000000000000000000000000000000000\n      dup2\n      mstore\n      0x04\n      add\n      tag_58\n      swap1\n      tag_59\n      jump\t// in\n    tag_58:\n      mload(0x40)\n      dup1\n      swap2\n      sub\n      swap1\n      revert\n    tag_57:\n        /* \"Documents/Web3/Casino/001 Lottery.sol\":640:646  uint i */\n      0x00\n        /* \"Documents/Web3/Casino/001 Lottery.sol\":635:775  for (uint i = 0; i >= amount; i++) {... */\n    tag_60:\n        /* \"Documents/Web3/Casino/001 Lottery.sol\":657:663  amount */\n      dup2\n        /* \"Documents/Web3/Casino/001 Lottery.sol\":652:653  i */\n      dup2\n        /* \"Documents/Web3/Casino/001 Lottery.sol\":652:663  i >= amount */\n      lt\n        /* \"Documents/Web3/Casino/001 Lottery.sol\":635:775  for (uint i = 0; i >= amount; i++) {... */\n      tag_61\n      jumpi\n        /* \"Documents/Web3/Casino/001 Lottery.sol\":684:691  entries */\n      0x01\n        /* \"Documents/Web3/Casino/001 Lottery.sol\":705:715  msg.sender */\n      caller\n        /* \"Documents/Web3/Casino/001 Lottery.sol\":684:717  entries.push(payable(msg.sender)) */\n      swap1\n      dup1\n      0x01\n      dup2\n      sload\n      add\n      dup1\n      dup3\n      sstore\n      dup1\n      swap2\n      pop\n      pop\n      0x01\n      swap1\n      sub\n      swap1\n      0x00\n      mstore\n      keccak256(0x00, 0x20)\n      add\n      0x00\n      swap1\n      swap2\n      swap1\n      swap2\n      swap1\n      swap2\n      0x0100\n      exp\n      dup2\n      sload\n      dup2\n      0xffffffffffffffffffffffffffffffffffffffff\n      mul\n      not\n      and\n      swap1\n      dup4\n      0xffffffffffffffffffffffffffffffffffffffff\n      and\n      mul\n      or\n      swap1\n      sstore\n      pop\n        /* \"Documents/Web3/Casino/001 Lottery.sol\":731:750  playerEntriesAmount */\n      0x02\n        /* \"Documents/Web3/Casino/001 Lottery.sol\":731:762  playerEntriesAmount[msg.sender] */\n      0x00\n        /* \"Documents/Web3/Casino/001 Lottery.sol\":751:761  msg.sender */\n      caller\n        /* \"Documents/Web3/Casino/001 Lottery.sol\":731:762  playerEntriesAmount[msg.sender] */\n      0xffffffffffffffffffffffffffffffffffffffff\n      and\n      0xffffffffffffffffffffffffffffffffffffffff\n      and\n      dup2\n      mstore\n      0x20\n      add\n      swap1\n      dup2\n      mstore\n      0x20\n      add\n      0x00\n      keccak256\n      0x00\n        /* \"Documents/Web3/Casino/001 Lottery.sol\":731:764  playerEntriesAmount[msg.sender]++ */\n      dup2\n      sload\n      dup1\n      swap3\n      swap2\n      swap1\n      tag_64\n      swap1\n      tag_65\n      jump\t// in\n    tag_64:\n      swap2\n      swap1\n      pop\n      sstore\n      pop\n        /* \"Documents/Web3/Casino/001 Lottery.sol\":665:668  i++ */\n      dup1\n      dup1\n      tag_66\n      swap1\n      tag_65\n      jump\t// in\n    tag_66:\n      swap2\n      pop\n      pop\n        /* \"Documents/Web3/Casino/001 Lottery.sol\":635:775  for (uint i = 0; i >= amount; i++) {... */\n      jump(tag_60)\n    tag_61:\n      pop\n        /* \"Documents/Web3/Casino/001 Lottery.sol\":505:781  function enter(uint amount) public payable {... */\n      pop\n      jump\t// out\n        /* \"Documents/Web3/Casino/001 Lottery.sol\":1417:1596  function playerOdds(uint additionalEntries) public view returns (uint) {... */\n    tag_23:\n        /* \"Documents/Web3/Casino/001 Lottery.sol\":1482:1486  uint */\n      0x00\n        /* \"Documents/Web3/Casino/001 Lottery.sol\":1585:1588  100 */\n      0x64\n        /* \"Documents/Web3/Casino/001 Lottery.sol\":1567:1574  entries */\n      0x01\n        /* \"Documents/Web3/Casino/001 Lottery.sol\":1567:1581  entries.length */\n      dup1\n      sload\n      swap1\n      pop\n        /* \"Documents/Web3/Casino/001 Lottery.sol\":1546:1563  additionalEntries */\n      dup4\n        /* \"Documents/Web3/Casino/001 Lottery.sol\":1512:1531  playerEntriesAmount */\n      0x02\n        /* \"Documents/Web3/Casino/001 Lottery.sol\":1512:1543  playerEntriesAmount[msg.sender] */\n      0x00\n        /* \"Documents/Web3/Casino/001 Lottery.sol\":1532:1542  msg.sender */\n      caller\n        /* \"Documents/Web3/Casino/001 Lottery.sol\":1512:1543  playerEntriesAmount[msg.sender] */\n      0xffffffffffffffffffffffffffffffffffffffff\n      and\n      0xffffffffffffffffffffffffffffffffffffffff\n      and\n      dup2\n      mstore\n      0x20\n      add\n      swap1\n      dup2\n      mstore\n      0x20\n      add\n      0x00\n      keccak256\n      sload\n        /* \"Documents/Web3/Casino/001 Lottery.sol\":1512:1563  playerEntriesAmount[msg.sender] + additionalEntries */\n      tag_68\n      swap2\n      swap1\n      tag_69\n      jump\t// in\n    tag_68:\n        /* \"Documents/Web3/Casino/001 Lottery.sol\":1511:1581  (playerEntriesAmount[msg.sender] + additionalEntries) / entries.length */\n      tag_70\n      swap2\n      swap1\n      tag_71\n      jump\t// in\n    tag_70:\n        /* \"Documents/Web3/Casino/001 Lottery.sol\":1510:1588  ((playerEntriesAmount[msg.sender] + additionalEntries) / entries.length) * 100 */\n      tag_72\n      swap2\n      swap1\n      tag_56\n      jump\t// in\n    tag_72:\n        /* \"Documents/Web3/Casino/001 Lottery.sol\":1498:1589  return uint(((playerEntriesAmount[msg.sender] + additionalEntries) / entries.length) * 100) */\n      swap1\n      pop\n        /* \"Documents/Web3/Casino/001 Lottery.sol\":1417:1596  function playerOdds(uint additionalEntries) public view returns (uint) {... */\n      swap2\n      swap1\n      pop\n      jump\t// out\n        /* \"Documents/Web3/Casino/001 Lottery.sol\":132:164  address payable[] public entries */\n    tag_29:\n      0x01\n      dup2\n      dup2\n      sload\n      dup2\n      lt\n      tag_73\n      jumpi\n      0x00\n      dup1\n      revert\n    tag_73:\n      swap1\n      0x00\n      mstore\n      keccak256(0x00, 0x20)\n      add\n      0x00\n      swap2\n      pop\n      sload\n      swap1\n      0x0100\n      exp\n      swap1\n      div\n      0xffffffffffffffffffffffffffffffffffffffff\n      and\n      dup2\n      jump\t// out\n        /* \"Documents/Web3/Casino/001 Lottery.sol\":829:952  function rng() public view returns (uint) {... */\n    tag_34:\n        /* \"Documents/Web3/Casino/001 Lottery.sol\":865:869  uint */\n      0x00\n        /* \"Documents/Web3/Casino/001 Lottery.sol\":920:925  owner */\n      dup1\n      0x00\n      swap1\n      sload\n      swap1\n      0x0100\n      exp\n      swap1\n      div\n      0xffffffffffffffffffffffffffffffffffffffff\n      and\n        /* \"Documents/Web3/Casino/001 Lottery.sol\":927:942  block.timestamp */\n      timestamp\n        /* \"Documents/Web3/Casino/001 Lottery.sol\":903:943  abi.encodePacked(owner, block.timestamp) */\n      add(0x20, mload(0x40))\n      tag_76\n      swap3\n      swap2\n      swap1\n      tag_77\n      jump\t// in\n    tag_76:\n      mload(0x40)\n      0x20\n      dup2\n      dup4\n      sub\n      sub\n      dup2\n      mstore\n      swap1\n      0x40\n      mstore\n        /* \"Documents/Web3/Casino/001 Lottery.sol\":893:944  keccak256(abi.encodePacked(owner, block.timestamp)) */\n      dup1\n      mload\n      swap1\n      0x20\n      add\n      keccak256\n        /* \"Documents/Web3/Casino/001 Lottery.sol\":888:945  uint(keccak256(abi.encodePacked(owner, block.timestamp))) */\n      0x00\n      shr\n        /* \"Documents/Web3/Casino/001 Lottery.sol\":881:945  return uint(keccak256(abi.encodePacked(owner, block.timestamp))) */\n      swap1\n      pop\n        /* \"Documents/Web3/Casino/001 Lottery.sol\":829:952  function rng() public view returns (uint) {... */\n      swap1\n      jump\t// out\n    tag_53:\n      dup3\n      dup1\n      sload\n      dup3\n      dup3\n      sstore\n      swap1\n      0x00\n      mstore\n      keccak256(0x00, 0x20)\n      swap1\n      dup2\n      add\n      swap3\n      dup3\n      iszero\n      tag_78\n      jumpi\n      swap2\n      0x20\n      mul\n      dup3\n      add\n    tag_79:\n      dup3\n      dup2\n      gt\n      iszero\n      tag_80\n      jumpi\n      dup3\n      mload\n      dup3\n      exp(0x0100, 0x00)\n      dup2\n      sload\n      dup2\n      0xffffffffffffffffffffffffffffffffffffffff\n      mul\n      not\n      and\n      swap1\n      dup4\n      0xffffffffffffffffffffffffffffffffffffffff\n      and\n      mul\n      or\n      swap1\n      sstore\n      pop\n      swap2\n      0x20\n      add\n      swap2\n      swap1\n      0x01\n      add\n      swap1\n      jump(tag_79)\n    tag_80:\n    tag_78:\n      pop\n      swap1\n      pop\n      tag_81\n      swap2\n      swap1\n      tag_82\n      jump\t// in\n    tag_81:\n      pop\n      swap1\n      jump\t// out\n    tag_82:\n    tag_83:\n      dup1\n      dup3\n      gt\n      iszero\n      tag_84\n      jumpi\n      0x00\n      dup2\n      0x00\n      swap1\n      sstore\n      pop\n      0x01\n      add\n      jump(tag_83)\n    tag_84:\n      pop\n      swap1\n      jump\t// out\n        /* \"#utility.yul\":7:133   */\n    tag_85:\n        /* \"#utility.yul\":44:51   */\n      0x00\n        /* \"#utility.yul\":84:126   */\n      0xffffffffffffffffffffffffffffffffffffffff\n        /* \"#utility.yul\":77:82   */\n      dup3\n        /* \"#utility.yul\":73:127   */\n      and\n        /* \"#utility.yul\":62:127   */\n      swap1\n      pop\n        /* \"#utility.yul\":7:133   */\n      swap2\n      swap1\n      pop\n      jump\t// out\n        /* \"#utility.yul\":139:235   */\n    tag_86:\n        /* \"#utility.yul\":176:183   */\n      0x00\n        /* \"#utility.yul\":205:229   */\n      tag_111\n        /* \"#utility.yul\":223:228   */\n      dup3\n        /* \"#utility.yul\":205:229   */\n      tag_85\n      jump\t// in\n    tag_111:\n        /* \"#utility.yul\":194:229   */\n      swap1\n      pop\n        /* \"#utility.yul\":139:235   */\n      swap2\n      swap1\n      pop\n      jump\t// out\n        /* \"#utility.yul\":241:359   */\n    tag_87:\n        /* \"#utility.yul\":328:352   */\n      tag_113\n        /* \"#utility.yul\":346:351   */\n      dup2\n        /* \"#utility.yul\":328:352   */\n      tag_86\n      jump\t// in\n    tag_113:\n        /* \"#utility.yul\":323:326   */\n      dup3\n        /* \"#utility.yul\":316:353   */\n      mstore\n        /* \"#utility.yul\":241:359   */\n      pop\n      pop\n      jump\t// out\n        /* \"#utility.yul\":365:587   */\n    tag_15:\n        /* \"#utility.yul\":458:462   */\n      0x00\n        /* \"#utility.yul\":496:498   */\n      0x20\n        /* \"#utility.yul\":485:494   */\n      dup3\n        /* \"#utility.yul\":481:499   */\n      add\n        /* \"#utility.yul\":473:499   */\n      swap1\n      pop\n        /* \"#utility.yul\":509:580   */\n      tag_115\n        /* \"#utility.yul\":577:578   */\n      0x00\n        /* \"#utility.yul\":566:575   */\n      dup4\n        /* \"#utility.yul\":562:579   */\n      add\n        /* \"#utility.yul\":553:559   */\n      dup5\n        /* \"#utility.yul\":509:580   */\n      tag_87\n      jump\t// in\n    tag_115:\n        /* \"#utility.yul\":365:587   */\n      swap3\n      swap2\n      pop\n      pop\n      jump\t// out\n        /* \"#utility.yul\":674:791   */\n    tag_89:\n        /* \"#utility.yul\":783:784   */\n      0x00\n        /* \"#utility.yul\":780:781   */\n      dup1\n        /* \"#utility.yul\":773:785   */\n      revert\n        /* \"#utility.yul\":920:997   */\n    tag_91:\n        /* \"#utility.yul\":957:964   */\n      0x00\n        /* \"#utility.yul\":986:991   */\n      dup2\n        /* \"#utility.yul\":975:991   */\n      swap1\n      pop\n        /* \"#utility.yul\":920:997   */\n      swap2\n      swap1\n      pop\n      jump\t// out\n        /* \"#utility.yul\":1003:1125   */\n    tag_92:\n        /* \"#utility.yul\":1076:1100   */\n      tag_121\n        /* \"#utility.yul\":1094:1099   */\n      dup2\n        /* \"#utility.yul\":1076:1100   */\n      tag_91\n      jump\t// in\n    tag_121:\n        /* \"#utility.yul\":1069:1074   */\n      dup2\n        /* \"#utility.yul\":1066:1101   */\n      eq\n        /* \"#utility.yul\":1056:1119   */\n      tag_122\n      jumpi\n        /* \"#utility.yul\":1115:1116   */\n      0x00\n        /* \"#utility.yul\":1112:1113   */\n      dup1\n        /* \"#utility.yul\":1105:1117   */\n      revert\n        /* \"#utility.yul\":1056:1119   */\n    tag_122:\n        /* \"#utility.yul\":1003:1125   */\n      pop\n      jump\t// out\n        /* \"#utility.yul\":1131:1270   */\n    tag_93:\n        /* \"#utility.yul\":1177:1182   */\n      0x00\n        /* \"#utility.yul\":1215:1221   */\n      dup2\n        /* \"#utility.yul\":1202:1222   */\n      calldataload\n        /* \"#utility.yul\":1193:1222   */\n      swap1\n      pop\n        /* \"#utility.yul\":1231:1264   */\n      tag_124\n        /* \"#utility.yul\":1258:1263   */\n      dup2\n        /* \"#utility.yul\":1231:1264   */\n      tag_92\n      jump\t// in\n    tag_124:\n        /* \"#utility.yul\":1131:1270   */\n      swap3\n      swap2\n      pop\n      pop\n      jump\t// out\n        /* \"#utility.yul\":1276:1605   */\n    tag_18:\n        /* \"#utility.yul\":1335:1341   */\n      0x00\n        /* \"#utility.yul\":1384:1386   */\n      0x20\n        /* \"#utility.yul\":1372:1381   */\n      dup3\n        /* \"#utility.yul\":1363:1370   */\n      dup5\n        /* \"#utility.yul\":1359:1382   */\n      sub\n        /* \"#utility.yul\":1355:1387   */\n      slt\n        /* \"#utility.yul\":1352:1471   */\n      iszero\n      tag_126\n      jumpi\n        /* \"#utility.yul\":1390:1469   */\n      tag_127\n      tag_89\n      jump\t// in\n    tag_127:\n        /* \"#utility.yul\":1352:1471   */\n    tag_126:\n        /* \"#utility.yul\":1510:1511   */\n      0x00\n        /* \"#utility.yul\":1535:1588   */\n      tag_128\n        /* \"#utility.yul\":1580:1587   */\n      dup5\n        /* \"#utility.yul\":1571:1577   */\n      dup3\n        /* \"#utility.yul\":1560:1569   */\n      dup6\n        /* \"#utility.yul\":1556:1578   */\n      add\n        /* \"#utility.yul\":1535:1588   */\n      tag_93\n      jump\t// in\n    tag_128:\n        /* \"#utility.yul\":1525:1588   */\n      swap2\n      pop\n        /* \"#utility.yul\":1481:1598   */\n      pop\n        /* \"#utility.yul\":1276:1605   */\n      swap3\n      swap2\n      pop\n      pop\n      jump\t// out\n        /* \"#utility.yul\":1611:1729   */\n    tag_94:\n        /* \"#utility.yul\":1698:1722   */\n      tag_130\n        /* \"#utility.yul\":1716:1721   */\n      dup2\n        /* \"#utility.yul\":1698:1722   */\n      tag_91\n      jump\t// in\n    tag_130:\n        /* \"#utility.yul\":1693:1696   */\n      dup3\n        /* \"#utility.yul\":1686:1723   */\n      mstore\n        /* \"#utility.yul\":1611:1729   */\n      pop\n      pop\n      jump\t// out\n        /* \"#utility.yul\":1735:1957   */\n    tag_25:\n        /* \"#utility.yul\":1828:1832   */\n      0x00\n        /* \"#utility.yul\":1866:1868   */\n      0x20\n        /* \"#utility.yul\":1855:1864   */\n      dup3\n        /* \"#utility.yul\":1851:1869   */\n      add\n        /* \"#utility.yul\":1843:1869   */\n      swap1\n      pop\n        /* \"#utility.yul\":1879:1950   */\n      tag_132\n        /* \"#utility.yul\":1947:1948   */\n      0x00\n        /* \"#utility.yul\":1936:1945   */\n      dup4\n        /* \"#utility.yul\":1932:1949   */\n      add\n        /* \"#utility.yul\":1923:1929   */\n      dup5\n        /* \"#utility.yul\":1879:1950   */\n      tag_94\n      jump\t// in\n    tag_132:\n        /* \"#utility.yul\":1735:1957   */\n      swap3\n      swap2\n      pop\n      pop\n      jump\t// out\n        /* \"#utility.yul\":1963:2067   */\n    tag_95:\n        /* \"#utility.yul\":2008:2015   */\n      0x00\n        /* \"#utility.yul\":2037:2061   */\n      tag_134\n        /* \"#utility.yul\":2055:2060   */\n      dup3\n        /* \"#utility.yul\":2037:2061   */\n      tag_85\n      jump\t// in\n    tag_134:\n        /* \"#utility.yul\":2026:2061   */\n      swap1\n      pop\n        /* \"#utility.yul\":1963:2067   */\n      swap2\n      swap1\n      pop\n      jump\t// out\n        /* \"#utility.yul\":2073:2215   */\n    tag_96:\n        /* \"#utility.yul\":2176:2208   */\n      tag_136\n        /* \"#utility.yul\":2202:2207   */\n      dup2\n        /* \"#utility.yul\":2176:2208   */\n      tag_95\n      jump\t// in\n    tag_136:\n        /* \"#utility.yul\":2171:2174   */\n      dup3\n        /* \"#utility.yul\":2164:2209   */\n      mstore\n        /* \"#utility.yul\":2073:2215   */\n      pop\n      pop\n      jump\t// out\n        /* \"#utility.yul\":2221:2475   */\n    tag_31:\n        /* \"#utility.yul\":2330:2334   */\n      0x00\n        /* \"#utility.yul\":2368:2370   */\n      0x20\n        /* \"#utility.yul\":2357:2366   */\n      dup3\n        /* \"#utility.yul\":2353:2371   */\n      add\n        /* \"#utility.yul\":2345:2371   */\n      swap1\n      pop\n        /* \"#utility.yul\":2381:2468   */\n      tag_138\n        /* \"#utility.yul\":2465:2466   */\n      0x00\n        /* \"#utility.yul\":2454:2463   */\n      dup4\n        /* \"#utility.yul\":2450:2467   */\n      add\n        /* \"#utility.yul\":2441:2447   */\n      dup5\n        /* \"#utility.yul\":2381:2468   */\n      tag_96\n      jump\t// in\n    tag_138:\n        /* \"#utility.yul\":2221:2475   */\n      swap3\n      swap2\n      pop\n      pop\n      jump\t// out\n        /* \"#utility.yul\":2481:2661   */\n    tag_97:\n        /* \"#utility.yul\":2529:2606   */\n      0x4e487b7100000000000000000000000000000000000000000000000000000000\n        /* \"#utility.yul\":2526:2527   */\n      0x00\n        /* \"#utility.yul\":2519:2607   */\n      mstore\n        /* \"#utility.yul\":2626:2630   */\n      0x12\n        /* \"#utility.yul\":2623:2624   */\n      0x04\n        /* \"#utility.yul\":2616:2631   */\n      mstore\n        /* \"#utility.yul\":2650:2654   */\n      0x24\n        /* \"#utility.yul\":2647:2648   */\n      0x00\n        /* \"#utility.yul\":2640:2655   */\n      revert\n        /* \"#utility.yul\":2667:2843   */\n    tag_41:\n        /* \"#utility.yul\":2699:2700   */\n      0x00\n        /* \"#utility.yul\":2716:2736   */\n      tag_141\n        /* \"#utility.yul\":2734:2735   */\n      dup3\n        /* \"#utility.yul\":2716:2736   */\n      tag_91\n      jump\t// in\n    tag_141:\n        /* \"#utility.yul\":2711:2736   */\n      swap2\n      pop\n        /* \"#utility.yul\":2750:2770   */\n      tag_142\n        /* \"#utility.yul\":2768:2769   */\n      dup4\n        /* \"#utility.yul\":2750:2770   */\n      tag_91\n      jump\t// in\n    tag_142:\n        /* \"#utility.yul\":2745:2770   */\n      swap3\n      pop\n        /* \"#utility.yul\":2789:2790   */\n      dup3\n        /* \"#utility.yul\":2779:2814   */\n      tag_143\n      jumpi\n        /* \"#utility.yul\":2794:2812   */\n      tag_144\n      tag_97\n      jump\t// in\n    tag_144:\n        /* \"#utility.yul\":2779:2814   */\n    tag_143:\n        /* \"#utility.yul\":2835:2836   */\n      dup3\n        /* \"#utility.yul\":2832:2833   */\n      dup3\n        /* \"#utility.yul\":2828:2837   */\n      mod\n        /* \"#utility.yul\":2823:2837   */\n      swap1\n      pop\n        /* \"#utility.yul\":2667:2843   */\n      swap3\n      swap2\n      pop\n      pop\n      jump\t// out\n        /* \"#utility.yul\":2849:3029   */\n    tag_44:\n        /* \"#utility.yul\":2897:2974   */\n      0x4e487b7100000000000000000000000000000000000000000000000000000000\n        /* \"#utility.yul\":2894:2895   */\n      0x00\n        /* \"#utility.yul\":2887:2975   */\n      mstore\n        /* \"#utility.yul\":2994:2998   */\n      0x32\n        /* \"#utility.yul\":2991:2992   */\n      0x04\n        /* \"#utility.yul\":2984:2999   */\n      mstore\n        /* \"#utility.yul\":3018:3022   */\n      0x24\n        /* \"#utility.yul\":3015:3016   */\n      0x00\n        /* \"#utility.yul\":3008:3023   */\n      revert\n        /* \"#utility.yul\":3035:3215   */\n    tag_50:\n        /* \"#utility.yul\":3083:3160   */\n      0x4e487b7100000000000000000000000000000000000000000000000000000000\n        /* \"#utility.yul\":3080:3081   */\n      0x00\n        /* \"#utility.yul\":3073:3161   */\n      mstore\n        /* \"#utility.yul\":3180:3184   */\n      0x41\n        /* \"#utility.yul\":3177:3178   */\n      0x04\n        /* \"#utility.yul\":3170:3185   */\n      mstore\n        /* \"#utility.yul\":3204:3208   */\n      0x24\n        /* \"#utility.yul\":3201:3202   */\n      0x00\n        /* \"#utility.yul\":3194:3209   */\n      revert\n        /* \"#utility.yul\":3221:3401   */\n    tag_98:\n        /* \"#utility.yul\":3269:3346   */\n      0x4e487b7100000000000000000000000000000000000000000000000000000000\n        /* \"#utility.yul\":3266:3267   */\n      0x00\n        /* \"#utility.yul\":3259:3347   */\n      mstore\n        /* \"#utility.yul\":3366:3370   */\n      0x11\n        /* \"#utility.yul\":3363:3364   */\n      0x04\n        /* \"#utility.yul\":3356:3371   */\n      mstore\n        /* \"#utility.yul\":3390:3394   */\n      0x24\n        /* \"#utility.yul\":3387:3388   */\n      0x00\n        /* \"#utility.yul\":3380:3395   */\n      revert\n        /* \"#utility.yul\":3407:3755   */\n    tag_56:\n        /* \"#utility.yul\":3447:3454   */\n      0x00\n        /* \"#utility.yul\":3470:3490   */\n      tag_149\n        /* \"#utility.yul\":3488:3489   */\n      dup3\n        /* \"#utility.yul\":3470:3490   */\n      tag_91\n      jump\t// in\n    tag_149:\n        /* \"#utility.yul\":3465:3490   */\n      swap2\n      pop\n        /* \"#utility.yul\":3504:3524   */\n      tag_150\n        /* \"#utility.yul\":3522:3523   */\n      dup4\n        /* \"#utility.yul\":3504:3524   */\n      tag_91\n      jump\t// in\n    tag_150:\n        /* \"#utility.yul\":3499:3524   */\n      swap3\n      pop\n        /* \"#utility.yul\":3692:3693   */\n      dup2\n        /* \"#utility.yul\":3624:3690   */\n      0xffffffffffffffffffffffffffffffffffffffffffffffffffffffffffffffff\n        /* \"#utility.yul\":3620:3694   */\n      div\n        /* \"#utility.yul\":3617:3618   */\n      dup4\n        /* \"#utility.yul\":3614:3695   */\n      gt\n        /* \"#utility.yul\":3609:3610   */\n      dup3\n        /* \"#utility.yul\":3602:3611   */\n      iszero\n        /* \"#utility.yul\":3595:3612   */\n      iszero\n        /* \"#utility.yul\":3591:3696   */\n      and\n        /* \"#utility.yul\":3588:3719   */\n      iszero\n      tag_151\n      jumpi\n        /* \"#utility.yul\":3699:3717   */\n      tag_152\n      tag_98\n      jump\t// in\n    tag_152:\n        /* \"#utility.yul\":3588:3719   */\n    tag_151:\n        /* \"#utility.yul\":3747:3748   */\n      dup3\n        /* \"#utility.yul\":3744:3745   */\n      dup3\n        /* \"#utility.yul\":3740:3749   */\n      mul\n        /* \"#utility.yul\":3729:3749   */\n      swap1\n      pop\n        /* \"#utility.yul\":3407:3755   */\n      swap3\n      swap2\n      pop\n      pop\n      jump\t// out\n        /* \"#utility.yul\":3761:3930   */\n    tag_99:\n        /* \"#utility.yul\":3845:3856   */\n      0x00\n        /* \"#utility.yul\":3879:3885   */\n      dup3\n        /* \"#utility.yul\":3874:3877   */\n      dup3\n        /* \"#utility.yul\":3867:3886   */\n      mstore\n        /* \"#utility.yul\":3919:3923   */\n      0x20\n        /* \"#utility.yul\":3914:3917   */\n      dup3\n        /* \"#utility.yul\":3910:3924   */\n      add\n        /* \"#utility.yul\":3895:3924   */\n      swap1\n      pop\n        /* \"#utility.yul\":3761:3930   */\n      swap3\n      swap2\n      pop\n      pop\n      jump\t// out\n        /* \"#utility.yul\":3936:4111   */\n    tag_100:\n        /* \"#utility.yul\":4076:4103   */\n      0x4561636820656e74727920636f73747320312045746865722e00000000000000\n        /* \"#utility.yul\":4072:4073   */\n      0x00\n        /* \"#utility.yul\":4064:4070   */\n      dup3\n        /* \"#utility.yul\":4060:4074   */\n      add\n        /* \"#utility.yul\":4053:4104   */\n      mstore\n        /* \"#utility.yul\":3936:4111   */\n      pop\n      jump\t// out\n        /* \"#utility.yul\":4117:4483   */\n    tag_101:\n        /* \"#utility.yul\":4259:4262   */\n      0x00\n        /* \"#utility.yul\":4280:4347   */\n      tag_156\n        /* \"#utility.yul\":4344:4346   */\n      0x19\n        /* \"#utility.yul\":4339:4342   */\n      dup4\n        /* \"#utility.yul\":4280:4347   */\n      tag_99\n      jump\t// in\n    tag_156:\n        /* \"#utility.yul\":4273:4347   */\n      swap2\n      pop\n        /* \"#utility.yul\":4356:4449   */\n      tag_157\n        /* \"#utility.yul\":4445:4448   */\n      dup3\n        /* \"#utility.yul\":4356:4449   */\n      tag_100\n      jump\t// in\n    tag_157:\n        /* \"#utility.yul\":4474:4476   */\n      0x20\n        /* \"#utility.yul\":4469:4472   */\n      dup3\n        /* \"#utility.yul\":4465:4477   */\n      add\n        /* \"#utility.yul\":4458:4477   */\n      swap1\n      pop\n        /* \"#utility.yul\":4117:4483   */\n      swap2\n      swap1\n      pop\n      jump\t// out\n        /* \"#utility.yul\":4489:4908   */\n    tag_59:\n        /* \"#utility.yul\":4655:4659   */\n      0x00\n        /* \"#utility.yul\":4693:4695   */\n      0x20\n        /* \"#utility.yul\":4682:4691   */\n      dup3\n        /* \"#utility.yul\":4678:4696   */\n      add\n        /* \"#utility.yul\":4670:4696   */\n      swap1\n      pop\n        /* \"#utility.yul\":4742:4751   */\n      dup2\n        /* \"#utility.yul\":4736:4740   */\n      dup2\n        /* \"#utility.yul\":4732:4752   */\n      sub\n        /* \"#utility.yul\":4728:4729   */\n      0x00\n        /* \"#utility.yul\":4717:4726   */\n      dup4\n        /* \"#utility.yul\":4713:4730   */\n      add\n        /* \"#utility.yul\":4706:4753   */\n      mstore\n        /* \"#utility.yul\":4770:4901   */\n      tag_159\n        /* \"#utility.yul\":4896:4900   */\n      dup2\n        /* \"#utility.yul\":4770:4901   */\n      tag_101\n      jump\t// in\n    tag_159:\n        /* \"#utility.yul\":4762:4901   */\n      swap1\n      pop\n        /* \"#utility.yul\":4489:4908   */\n      swap2\n      swap1\n      pop\n      jump\t// out\n        /* \"#utility.yul\":4914:5147   */\n    tag_65:\n        /* \"#utility.yul\":4953:4956   */\n      0x00\n        /* \"#utility.yul\":4976:5000   */\n      tag_161\n        /* \"#utility.yul\":4994:4999   */\n      dup3\n        /* \"#utility.yul\":4976:5000   */\n      tag_91\n      jump\t// in\n    tag_161:\n        /* \"#utility.yul\":4967:5000   */\n      swap2\n      pop\n        /* \"#utility.yul\":5022:5088   */\n      0xffffffffffffffffffffffffffffffffffffffffffffffffffffffffffffffff\n        /* \"#utility.yul\":5015:5020   */\n      dup3\n        /* \"#utility.yul\":5012:5089   */\n      eq\n        /* \"#utility.yul\":5009:5112   */\n      iszero\n      tag_162\n      jumpi\n        /* \"#utility.yul\":5092:5110   */\n      tag_163\n      tag_98\n      jump\t// in\n    tag_163:\n        /* \"#utility.yul\":5009:5112   */\n    tag_162:\n        /* \"#utility.yul\":5139:5140   */\n      0x01\n        /* \"#utility.yul\":5132:5137   */\n      dup3\n        /* \"#utility.yul\":5128:5141   */\n      add\n        /* \"#utility.yul\":5121:5141   */\n      swap1\n      pop\n        /* \"#utility.yul\":4914:5147   */\n      swap2\n      swap1\n      pop\n      jump\t// out\n        /* \"#utility.yul\":5153:5458   */\n    tag_69:\n        /* \"#utility.yul\":5193:5196   */\n      0x00\n        /* \"#utility.yul\":5212:5232   */\n      tag_165\n        /* \"#utility.yul\":5230:5231   */\n      dup3\n        /* \"#utility.yul\":5212:5232   */\n      tag_91\n      jump\t// in\n    tag_165:\n        /* \"#utility.yul\":5207:5232   */\n      swap2\n      pop\n        /* \"#utility.yul\":5246:5266   */\n      tag_166\n        /* \"#utility.yul\":5264:5265   */\n      dup4\n        /* \"#utility.yul\":5246:5266   */\n      tag_91\n      jump\t// in\n    tag_166:\n        /* \"#utility.yul\":5241:5266   */\n      swap3\n      pop\n        /* \"#utility.yul\":5400:5401   */\n      dup3\n        /* \"#utility.yul\":5332:5398   */\n      0xffffffffffffffffffffffffffffffffffffffffffffffffffffffffffffffff\n        /* \"#utility.yul\":5328:5402   */\n      sub\n        /* \"#utility.yul\":5325:5326   */\n      dup3\n        /* \"#utility.yul\":5322:5403   */\n      gt\n        /* \"#utility.yul\":5319:5426   */\n      iszero\n      tag_167\n      jumpi\n        /* \"#utility.yul\":5406:5424   */\n      tag_168\n      tag_98\n      jump\t// in\n    tag_168:\n        /* \"#utility.yul\":5319:5426   */\n    tag_167:\n        /* \"#utility.yul\":5450:5451   */\n      dup3\n        /* \"#utility.yul\":5447:5448   */\n      dup3\n        /* \"#utility.yul\":5443:5452   */\n      add\n        /* \"#utility.yul\":5436:5452   */\n      swap1\n      pop\n        /* \"#utility.yul\":5153:5458   */\n      swap3\n      swap2\n      pop\n      pop\n      jump\t// out\n        /* \"#utility.yul\":5464:5649   */\n    tag_71:\n        /* \"#utility.yul\":5504:5505   */\n      0x00\n        /* \"#utility.yul\":5521:5541   */\n      tag_170\n        /* \"#utility.yul\":5539:5540   */\n      dup3\n        /* \"#utility.yul\":5521:5541   */\n      tag_91\n      jump\t// in\n    tag_170:\n        /* \"#utility.yul\":5516:5541   */\n      swap2\n      pop\n        /* \"#utility.yul\":5555:5575   */\n      tag_171\n        /* \"#utility.yul\":5573:5574   */\n      dup4\n        /* \"#utility.yul\":5555:5575   */\n      tag_91\n      jump\t// in\n    tag_171:\n        /* \"#utility.yul\":5550:5575   */\n      swap3\n      pop\n        /* \"#utility.yul\":5594:5595   */\n      dup3\n        /* \"#utility.yul\":5584:5619   */\n      tag_172\n      jumpi\n        /* \"#utility.yul\":5599:5617   */\n      tag_173\n      tag_97\n      jump\t// in\n    tag_173:\n        /* \"#utility.yul\":5584:5619   */\n    tag_172:\n        /* \"#utility.yul\":5641:5642   */\n      dup3\n        /* \"#utility.yul\":5638:5639   */\n      dup3\n        /* \"#utility.yul\":5634:5643   */\n      div\n        /* \"#utility.yul\":5629:5643   */\n      swap1\n      pop\n        /* \"#utility.yul\":5464:5649   */\n      swap3\n      swap2\n      pop\n      pop\n      jump\t// out\n        /* \"#utility.yul\":5655:5749   */\n    tag_102:\n        /* \"#utility.yul\":5688:5696   */\n      0x00\n        /* \"#utility.yul\":5736:5741   */\n      dup2\n        /* \"#utility.yul\":5732:5734   */\n      0x60\n        /* \"#utility.yul\":5728:5742   */\n      shl\n        /* \"#utility.yul\":5707:5742   */\n      swap1\n      pop\n        /* \"#utility.yul\":5655:5749   */\n      swap2\n      swap1\n      pop\n      jump\t// out\n        /* \"#utility.yul\":5755:5849   */\n    tag_103:\n        /* \"#utility.yul\":5794:5801   */\n      0x00\n        /* \"#utility.yul\":5823:5843   */\n      tag_176\n        /* \"#utility.yul\":5837:5842   */\n      dup3\n        /* \"#utility.yul\":5823:5843   */\n      tag_102\n      jump\t// in\n    tag_176:\n        /* \"#utility.yul\":5812:5843   */\n      swap1\n      pop\n        /* \"#utility.yul\":5755:5849   */\n      swap2\n      swap1\n      pop\n      jump\t// out\n        /* \"#utility.yul\":5855:5955   */\n    tag_104:\n        /* \"#utility.yul\":5894:5901   */\n      0x00\n        /* \"#utility.yul\":5923:5949   */\n      tag_178\n        /* \"#utility.yul\":5943:5948   */\n      dup3\n        /* \"#utility.yul\":5923:5949   */\n      tag_103\n      jump\t// in\n    tag_178:\n        /* \"#utility.yul\":5912:5949   */\n      swap1\n      pop\n        /* \"#utility.yul\":5855:5955   */\n      swap2\n      swap1\n      pop\n      jump\t// out\n        /* \"#utility.yul\":5961:6118   */\n    tag_105:\n        /* \"#utility.yul\":6066:6111   */\n      tag_180\n        /* \"#utility.yul\":6086:6110   */\n      tag_181\n        /* \"#utility.yul\":6104:6109   */\n      dup3\n        /* \"#utility.yul\":6086:6110   */\n      tag_86\n      jump\t// in\n    tag_181:\n        /* \"#utility.yul\":6066:6111   */\n      tag_104\n      jump\t// in\n    tag_180:\n        /* \"#utility.yul\":6061:6064   */\n      dup3\n        /* \"#utility.yul\":6054:6112   */\n      mstore\n        /* \"#utility.yul\":5961:6118   */\n      pop\n      pop\n      jump\t// out\n        /* \"#utility.yul\":6124:6203   */\n    tag_106:\n        /* \"#utility.yul\":6163:6170   */\n      0x00\n        /* \"#utility.yul\":6192:6197   */\n      dup2\n        /* \"#utility.yul\":6181:6197   */\n      swap1\n      pop\n        /* \"#utility.yul\":6124:6203   */\n      swap2\n      swap1\n      pop\n      jump\t// out\n        /* \"#utility.yul\":6209:6366   */\n    tag_107:\n        /* \"#utility.yul\":6314:6359   */\n      tag_184\n        /* \"#utility.yul\":6334:6358   */\n      tag_185\n        /* \"#utility.yul\":6352:6357   */\n      dup3\n        /* \"#utility.yul\":6334:6358   */\n      tag_91\n      jump\t// in\n    tag_185:\n        /* \"#utility.yul\":6314:6359   */\n      tag_106\n      jump\t// in\n    tag_184:\n        /* \"#utility.yul\":6309:6312   */\n      dup3\n        /* \"#utility.yul\":6302:6360   */\n      mstore\n        /* \"#utility.yul\":6209:6366   */\n      pop\n      pop\n      jump\t// out\n        /* \"#utility.yul\":6372:6769   */\n    tag_77:\n        /* \"#utility.yul\":6512:6515   */\n      0x00\n        /* \"#utility.yul\":6527:6602   */\n      tag_187\n        /* \"#utility.yul\":6598:6601   */\n      dup3\n        /* \"#utility.yul\":6589:6595   */\n      dup6\n        /* \"#utility.yul\":6527:6602   */\n      tag_105\n      jump\t// in\n    tag_187:\n        /* \"#utility.yul\":6627:6629   */\n      0x14\n        /* \"#utility.yul\":6622:6625   */\n      dup3\n        /* \"#utility.yul\":6618:6630   */\n      add\n        /* \"#utility.yul\":6611:6630   */\n      swap2\n      pop\n        /* \"#utility.yul\":6640:6715   */\n      tag_188\n        /* \"#utility.yul\":6711:6714   */\n      dup3\n        /* \"#utility.yul\":6702:6708   */\n      dup5\n        /* \"#utility.yul\":6640:6715   */\n      tag_107\n      jump\t// in\n    tag_188:\n        /* \"#utility.yul\":6740:6742   */\n      0x20\n        /* \"#utility.yul\":6735:6738   */\n      dup3\n        /* \"#utility.yul\":6731:6743   */\n      add\n        /* \"#utility.yul\":6724:6743   */\n      swap2\n      pop\n        /* \"#utility.yul\":6760:6763   */\n      dup2\n        /* \"#utility.yul\":6753:6763   */\n      swap1\n      pop\n        /* \"#utility.yul\":6372:6769   */\n      swap4\n      swap3\n      pop\n      pop\n      pop\n      jump\t// out\n\n    auxdata: 0xa2646970667358221220dc7549dec781525bc61b578ab9f81ed34490daa996a576dd92e70c3b388465e964736f6c634300080b0033\n}\n",
				"bytecode": {
					"linkReferences": {},
					"object": "608060405234801561001057600080fd5b50336000806101000a81548173ffffffffffffffffffffffffffffffffffffffff021916908373ffffffffffffffffffffffffffffffffffffffff160217905550610a3f806100606000396000f3fe6080604052600436106100555760003560e01c806333a99e041461005a5780638da5cb5b14610071578063a59f3e0c1461009c578063acbbd7c0146100b8578063b30906d4146100f5578063d605787b14610132575b600080fd5b34801561006657600080fd5b5061006f61015d565b005b34801561007d57600080fd5b506100866102b9565b60405161009391906105f7565b60405180910390f35b6100b660048036038101906100b1919061064d565b6102dd565b005b3480156100c457600080fd5b506100df60048036038101906100da919061064d565b61040c565b6040516100ec9190610689565b60405180910390f35b34801561010157600080fd5b5061011c6004803603810190610117919061064d565b61047c565b60405161012991906106c5565b60405180910390f35b34801561013e57600080fd5b506101476104bb565b6040516101549190610689565b60405180910390f35b60008054906101000a900473ffffffffffffffffffffffffffffffffffffffff1673ffffffffffffffffffffffffffffffffffffffff163373ffffffffffffffffffffffffffffffffffffffff16146101b557600080fd5b60006001805490506101c56104bb565b6101cf919061070f565b9050600181815481106101e5576101e4610740565b5b9060005260206000200160009054906101000a900473ffffffffffffffffffffffffffffffffffffffff1673ffffffffffffffffffffffffffffffffffffffff166108fc479081150290604051600060405180830381858888f19350505050158015610255573d6000803e3d6000fd5b50600067ffffffffffffffff8111156102715761027061076f565b5b60405190808252806020026020018201604052801561029f5781602001602082028036833780820191505090505b50600190805190602001906102b592919061050f565b5050565b60008054906101000a900473ffffffffffffffffffffffffffffffffffffffff1681565b670de0b6b3a7640000816102f191906107cd565b341015610333576040517f08c379a000000000000000000000000000000000000000000000000000000000815260040161032a90610884565b60405180910390fd5b60005b818110610408576001339080600181540180825580915050600190039060005260206000200160009091909190916101000a81548173ffffffffffffffffffffffffffffffffffffffff021916908373ffffffffffffffffffffffffffffffffffffffff160217905550600260003373ffffffffffffffffffffffffffffffffffffffff1673ffffffffffffffffffffffffffffffffffffffff16815260200190815260200160002060008154809291906103f0906108a4565b91905055508080610400906108a4565b915050610336565b5050565b6000606460018054905083600260003373ffffffffffffffffffffffffffffffffffffffff1673ffffffffffffffffffffffffffffffffffffffff1681526020019081526020016000205461046191906108ed565b61046b9190610943565b61047591906107cd565b9050919050565b6001818154811061048c57600080fd5b906000526020600020016000915054906101000a900473ffffffffffffffffffffffffffffffffffffffff1681565b60008060009054906101000a900473ffffffffffffffffffffffffffffffffffffffff16426040516020016104f19291906109dd565b6040516020818303038152906040528051906020012060001c905090565b828054828255906000526020600020908101928215610588579160200282015b828111156105875782518260006101000a81548173ffffffffffffffffffffffffffffffffffffffff021916908373ffffffffffffffffffffffffffffffffffffffff1602179055509160200191906001019061052f565b5b5090506105959190610599565b5090565b5b808211156105b257600081600090555060010161059a565b5090565b600073ffffffffffffffffffffffffffffffffffffffff82169050919050565b60006105e1826105b6565b9050919050565b6105f1816105d6565b82525050565b600060208201905061060c60008301846105e8565b92915050565b600080fd5b6000819050919050565b61062a81610617565b811461063557600080fd5b50565b60008135905061064781610621565b92915050565b60006020828403121561066357610662610612565b5b600061067184828501610638565b91505092915050565b61068381610617565b82525050565b600060208201905061069e600083018461067a565b92915050565b60006106af826105b6565b9050919050565b6106bf816106a4565b82525050565b60006020820190506106da60008301846106b6565b92915050565b7f4e487b7100000000000000000000000000000000000000000000000000000000600052601260045260246000fd5b600061071a82610617565b915061072583610617565b925082610735576107346106e0565b5b828206905092915050565b7f4e487b7100000000000000000000000000000000000000000000000000000000600052603260045260246000fd5b7f4e487b7100000000000000000000000000000000000000000000000000000000600052604160045260246000fd5b7f4e487b7100000000000000000000000000000000000000000000000000000000600052601160045260246000fd5b60006107d882610617565b91506107e383610617565b9250817fffffffffffffffffffffffffffffffffffffffffffffffffffffffffffffffff048311821515161561081c5761081b61079e565b5b828202905092915050565b600082825260208201905092915050565b7f4561636820656e74727920636f73747320312045746865722e00000000000000600082015250565b600061086e601983610827565b915061087982610838565b602082019050919050565b6000602082019050818103600083015261089d81610861565b9050919050565b60006108af82610617565b91507fffffffffffffffffffffffffffffffffffffffffffffffffffffffffffffffff8214156108e2576108e161079e565b5b600182019050919050565b60006108f882610617565b915061090383610617565b9250827fffffffffffffffffffffffffffffffffffffffffffffffffffffffffffffffff038211156109385761093761079e565b5b828201905092915050565b600061094e82610617565b915061095983610617565b925082610969576109686106e0565b5b828204905092915050565b60008160601b9050919050565b600061098c82610974565b9050919050565b600061099e82610981565b9050919050565b6109b66109b1826105d6565b610993565b82525050565b6000819050919050565b6109d76109d282610617565b6109bc565b82525050565b60006109e982856109a5565b6014820191506109f982846109c6565b602082019150819050939250505056fea2646970667358221220dc7549dec781525bc61b578ab9f81ed34490daa996a576dd92e70c3b388465e964736f6c634300080b0033",
					"opcodes": "PUSH1 0x80 PUSH1 0x40 MSTORE CALLVALUE DUP1 ISZERO PUSH2 0x10 JUMPI PUSH1 0x0 DUP1 REVERT JUMPDEST POP CALLER PUSH1 0x0 DUP1 PUSH2 0x100 EXP DUP2 SLOAD DUP2 PUSH20 0xFFFFFFFFFFFFFFFFFFFFFFFFFFFFFFFFFFFFFFFF MUL NOT AND SWAP1 DUP4 PUSH20 0xFFFFFFFFFFFFFFFFFFFFFFFFFFFFFFFFFFFFFFFF AND MUL OR SWAP1 SSTORE POP PUSH2 0xA3F DUP1 PUSH2 0x60 PUSH1 0x0 CODECOPY PUSH1 0x0 RETURN INVALID PUSH1 0x80 PUSH1 0x40 MSTORE PUSH1 0x4 CALLDATASIZE LT PUSH2 0x55 JUMPI PUSH1 0x0 CALLDATALOAD PUSH1 0xE0 SHR DUP1 PUSH4 0x33A99E04 EQ PUSH2 0x5A JUMPI DUP1 PUSH4 0x8DA5CB5B EQ PUSH2 0x71 JUMPI DUP1 PUSH4 0xA59F3E0C EQ PUSH2 0x9C JUMPI DUP1 PUSH4 0xACBBD7C0 EQ PUSH2 0xB8 JUMPI DUP1 PUSH4 0xB30906D4 EQ PUSH2 0xF5 JUMPI DUP1 PUSH4 0xD605787B EQ PUSH2 0x132 JUMPI JUMPDEST PUSH1 0x0 DUP1 REVERT JUMPDEST CALLVALUE DUP1 ISZERO PUSH2 0x66 JUMPI PUSH1 0x0 DUP1 REVERT JUMPDEST POP PUSH2 0x6F PUSH2 0x15D JUMP JUMPDEST STOP JUMPDEST CALLVALUE DUP1 ISZERO PUSH2 0x7D JUMPI PUSH1 0x0 DUP1 REVERT JUMPDEST POP PUSH2 0x86 PUSH2 0x2B9 JUMP JUMPDEST PUSH1 0x40 MLOAD PUSH2 0x93 SWAP2 SWAP1 PUSH2 0x5F7 JUMP JUMPDEST PUSH1 0x40 MLOAD DUP1 SWAP2 SUB SWAP1 RETURN JUMPDEST PUSH2 0xB6 PUSH1 0x4 DUP1 CALLDATASIZE SUB DUP2 ADD SWAP1 PUSH2 0xB1 SWAP2 SWAP1 PUSH2 0x64D JUMP JUMPDEST PUSH2 0x2DD JUMP JUMPDEST STOP JUMPDEST CALLVALUE DUP1 ISZERO PUSH2 0xC4 JUMPI PUSH1 0x0 DUP1 REVERT JUMPDEST POP PUSH2 0xDF PUSH1 0x4 DUP1 CALLDATASIZE SUB DUP2 ADD SWAP1 PUSH2 0xDA SWAP2 SWAP1 PUSH2 0x64D JUMP JUMPDEST PUSH2 0x40C JUMP JUMPDEST PUSH1 0x40 MLOAD PUSH2 0xEC SWAP2 SWAP1 PUSH2 0x689 JUMP JUMPDEST PUSH1 0x40 MLOAD DUP1 SWAP2 SUB SWAP1 RETURN JUMPDEST CALLVALUE DUP1 ISZERO PUSH2 0x101 JUMPI PUSH1 0x0 DUP1 REVERT JUMPDEST POP PUSH2 0x11C PUSH1 0x4 DUP1 CALLDATASIZE SUB DUP2 ADD SWAP1 PUSH2 0x117 SWAP2 SWAP1 PUSH2 0x64D JUMP JUMPDEST PUSH2 0x47C JUMP JUMPDEST PUSH1 0x40 MLOAD PUSH2 0x129 SWAP2 SWAP1 PUSH2 0x6C5 JUMP JUMPDEST PUSH1 0x40 MLOAD DUP1 SWAP2 SUB SWAP1 RETURN JUMPDEST CALLVALUE DUP1 ISZERO PUSH2 0x13E JUMPI PUSH1 0x0 DUP1 REVERT JUMPDEST POP PUSH2 0x147 PUSH2 0x4BB JUMP JUMPDEST PUSH1 0x40 MLOAD PUSH2 0x154 SWAP2 SWAP1 PUSH2 0x689 JUMP JUMPDEST PUSH1 0x40 MLOAD DUP1 SWAP2 SUB SWAP1 RETURN JUMPDEST PUSH1 0x0 DUP1 SLOAD SWAP1 PUSH2 0x100 EXP SWAP1 DIV PUSH20 0xFFFFFFFFFFFFFFFFFFFFFFFFFFFFFFFFFFFFFFFF AND PUSH20 0xFFFFFFFFFFFFFFFFFFFFFFFFFFFFFFFFFFFFFFFF AND CALLER PUSH20 0xFFFFFFFFFFFFFFFFFFFFFFFFFFFFFFFFFFFFFFFF AND EQ PUSH2 0x1B5 JUMPI PUSH1 0x0 DUP1 REVERT JUMPDEST PUSH1 0x0 PUSH1 0x1 DUP1 SLOAD SWAP1 POP PUSH2 0x1C5 PUSH2 0x4BB JUMP JUMPDEST PUSH2 0x1CF SWAP2 SWAP1 PUSH2 0x70F JUMP JUMPDEST SWAP1 POP PUSH1 0x1 DUP2 DUP2 SLOAD DUP2 LT PUSH2 0x1E5 JUMPI PUSH2 0x1E4 PUSH2 0x740 JUMP JUMPDEST JUMPDEST SWAP1 PUSH1 0x0 MSTORE PUSH1 0x20 PUSH1 0x0 KECCAK256 ADD PUSH1 0x0 SWAP1 SLOAD SWAP1 PUSH2 0x100 EXP SWAP1 DIV PUSH20 0xFFFFFFFFFFFFFFFFFFFFFFFFFFFFFFFFFFFFFFFF AND PUSH20 0xFFFFFFFFFFFFFFFFFFFFFFFFFFFFFFFFFFFFFFFF AND PUSH2 0x8FC SELFBALANCE SWAP1 DUP2 ISZERO MUL SWAP1 PUSH1 0x40 MLOAD PUSH1 0x0 PUSH1 0x40 MLOAD DUP1 DUP4 SUB DUP2 DUP6 DUP9 DUP9 CALL SWAP4 POP POP POP POP ISZERO DUP1 ISZERO PUSH2 0x255 JUMPI RETURNDATASIZE PUSH1 0x0 DUP1 RETURNDATACOPY RETURNDATASIZE PUSH1 0x0 REVERT JUMPDEST POP PUSH1 0x0 PUSH8 0xFFFFFFFFFFFFFFFF DUP2 GT ISZERO PUSH2 0x271 JUMPI PUSH2 0x270 PUSH2 0x76F JUMP JUMPDEST JUMPDEST PUSH1 0x40 MLOAD SWAP1 DUP1 DUP3 MSTORE DUP1 PUSH1 0x20 MUL PUSH1 0x20 ADD DUP3 ADD PUSH1 0x40 MSTORE DUP1 ISZERO PUSH2 0x29F JUMPI DUP2 PUSH1 0x20 ADD PUSH1 0x20 DUP3 MUL DUP1 CALLDATASIZE DUP4 CALLDATACOPY DUP1 DUP3 ADD SWAP2 POP POP SWAP1 POP JUMPDEST POP PUSH1 0x1 SWAP1 DUP1 MLOAD SWAP1 PUSH1 0x20 ADD SWAP1 PUSH2 0x2B5 SWAP3 SWAP2 SWAP1 PUSH2 0x50F JUMP JUMPDEST POP POP JUMP JUMPDEST PUSH1 0x0 DUP1 SLOAD SWAP1 PUSH2 0x100 EXP SWAP1 DIV PUSH20 0xFFFFFFFFFFFFFFFFFFFFFFFFFFFFFFFFFFFFFFFF AND DUP2 JUMP JUMPDEST PUSH8 0xDE0B6B3A7640000 DUP2 PUSH2 0x2F1 SWAP2 SWAP1 PUSH2 0x7CD JUMP JUMPDEST CALLVALUE LT ISZERO PUSH2 0x333 JUMPI PUSH1 0x40 MLOAD PUSH32 0x8C379A000000000000000000000000000000000000000000000000000000000 DUP2 MSTORE PUSH1 0x4 ADD PUSH2 0x32A SWAP1 PUSH2 0x884 JUMP JUMPDEST PUSH1 0x40 MLOAD DUP1 SWAP2 SUB SWAP1 REVERT JUMPDEST PUSH1 0x0 JUMPDEST DUP2 DUP2 LT PUSH2 0x408 JUMPI PUSH1 0x1 CALLER SWAP1 DUP1 PUSH1 0x1 DUP2 SLOAD ADD DUP1 DUP3 SSTORE DUP1 SWAP2 POP POP PUSH1 0x1 SWAP1 SUB SWAP1 PUSH1 0x0 MSTORE PUSH1 0x20 PUSH1 0x0 KECCAK256 ADD PUSH1 0x0 SWAP1 SWAP2 SWAP1 SWAP2 SWAP1 SWAP2 PUSH2 0x100 EXP DUP2 SLOAD DUP2 PUSH20 0xFFFFFFFFFFFFFFFFFFFFFFFFFFFFFFFFFFFFFFFF MUL NOT AND SWAP1 DUP4 PUSH20 0xFFFFFFFFFFFFFFFFFFFFFFFFFFFFFFFFFFFFFFFF AND MUL OR SWAP1 SSTORE POP PUSH1 0x2 PUSH1 0x0 CALLER PUSH20 0xFFFFFFFFFFFFFFFFFFFFFFFFFFFFFFFFFFFFFFFF AND PUSH20 0xFFFFFFFFFFFFFFFFFFFFFFFFFFFFFFFFFFFFFFFF AND DUP2 MSTORE PUSH1 0x20 ADD SWAP1 DUP2 MSTORE PUSH1 0x20 ADD PUSH1 0x0 KECCAK256 PUSH1 0x0 DUP2 SLOAD DUP1 SWAP3 SWAP2 SWAP1 PUSH2 0x3F0 SWAP1 PUSH2 0x8A4 JUMP JUMPDEST SWAP2 SWAP1 POP SSTORE POP DUP1 DUP1 PUSH2 0x400 SWAP1 PUSH2 0x8A4 JUMP JUMPDEST SWAP2 POP POP PUSH2 0x336 JUMP JUMPDEST POP POP JUMP JUMPDEST PUSH1 0x0 PUSH1 0x64 PUSH1 0x1 DUP1 SLOAD SWAP1 POP DUP4 PUSH1 0x2 PUSH1 0x0 CALLER PUSH20 0xFFFFFFFFFFFFFFFFFFFFFFFFFFFFFFFFFFFFFFFF AND PUSH20 0xFFFFFFFFFFFFFFFFFFFFFFFFFFFFFFFFFFFFFFFF AND DUP2 MSTORE PUSH1 0x20 ADD SWAP1 DUP2 MSTORE PUSH1 0x20 ADD PUSH1 0x0 KECCAK256 SLOAD PUSH2 0x461 SWAP2 SWAP1 PUSH2 0x8ED JUMP JUMPDEST PUSH2 0x46B SWAP2 SWAP1 PUSH2 0x943 JUMP JUMPDEST PUSH2 0x475 SWAP2 SWAP1 PUSH2 0x7CD JUMP JUMPDEST SWAP1 POP SWAP2 SWAP1 POP JUMP JUMPDEST PUSH1 0x1 DUP2 DUP2 SLOAD DUP2 LT PUSH2 0x48C JUMPI PUSH1 0x0 DUP1 REVERT JUMPDEST SWAP1 PUSH1 0x0 MSTORE PUSH1 0x20 PUSH1 0x0 KECCAK256 ADD PUSH1 0x0 SWAP2 POP SLOAD SWAP1 PUSH2 0x100 EXP SWAP1 DIV PUSH20 0xFFFFFFFFFFFFFFFFFFFFFFFFFFFFFFFFFFFFFFFF AND DUP2 JUMP JUMPDEST PUSH1 0x0 DUP1 PUSH1 0x0 SWAP1 SLOAD SWAP1 PUSH2 0x100 EXP SWAP1 DIV PUSH20 0xFFFFFFFFFFFFFFFFFFFFFFFFFFFFFFFFFFFFFFFF AND TIMESTAMP PUSH1 0x40 MLOAD PUSH1 0x20 ADD PUSH2 0x4F1 SWAP3 SWAP2 SWAP1 PUSH2 0x9DD JUMP JUMPDEST PUSH1 0x40 MLOAD PUSH1 0x20 DUP2 DUP4 SUB SUB DUP2 MSTORE SWAP1 PUSH1 0x40 MSTORE DUP1 MLOAD SWAP1 PUSH1 0x20 ADD KECCAK256 PUSH1 0x0 SHR SWAP1 POP SWAP1 JUMP JUMPDEST DUP3 DUP1 SLOAD DUP3 DUP3 SSTORE SWAP1 PUSH1 0x0 MSTORE PUSH1 0x20 PUSH1 0x0 KECCAK256 SWAP1 DUP2 ADD SWAP3 DUP3 ISZERO PUSH2 0x588 JUMPI SWAP2 PUSH1 0x20 MUL DUP3 ADD JUMPDEST DUP3 DUP2 GT ISZERO PUSH2 0x587 JUMPI DUP3 MLOAD DUP3 PUSH1 0x0 PUSH2 0x100 EXP DUP2 SLOAD DUP2 PUSH20 0xFFFFFFFFFFFFFFFFFFFFFFFFFFFFFFFFFFFFFFFF MUL NOT AND SWAP1 DUP4 PUSH20 0xFFFFFFFFFFFFFFFFFFFFFFFFFFFFFFFFFFFFFFFF AND MUL OR SWAP1 SSTORE POP SWAP2 PUSH1 0x20 ADD SWAP2 SWAP1 PUSH1 0x1 ADD SWAP1 PUSH2 0x52F JUMP JUMPDEST JUMPDEST POP SWAP1 POP PUSH2 0x595 SWAP2 SWAP1 PUSH2 0x599 JUMP JUMPDEST POP SWAP1 JUMP JUMPDEST JUMPDEST DUP1 DUP3 GT ISZERO PUSH2 0x5B2 JUMPI PUSH1 0x0 DUP2 PUSH1 0x0 SWAP1 SSTORE POP PUSH1 0x1 ADD PUSH2 0x59A JUMP JUMPDEST POP SWAP1 JUMP JUMPDEST PUSH1 0x0 PUSH20 0xFFFFFFFFFFFFFFFFFFFFFFFFFFFFFFFFFFFFFFFF DUP3 AND SWAP1 POP SWAP2 SWAP1 POP JUMP JUMPDEST PUSH1 0x0 PUSH2 0x5E1 DUP3 PUSH2 0x5B6 JUMP JUMPDEST SWAP1 POP SWAP2 SWAP1 POP JUMP JUMPDEST PUSH2 0x5F1 DUP2 PUSH2 0x5D6 JUMP JUMPDEST DUP3 MSTORE POP POP JUMP JUMPDEST PUSH1 0x0 PUSH1 0x20 DUP3 ADD SWAP1 POP PUSH2 0x60C PUSH1 0x0 DUP4 ADD DUP5 PUSH2 0x5E8 JUMP JUMPDEST SWAP3 SWAP2 POP POP JUMP JUMPDEST PUSH1 0x0 DUP1 REVERT JUMPDEST PUSH1 0x0 DUP2 SWAP1 POP SWAP2 SWAP1 POP JUMP JUMPDEST PUSH2 0x62A DUP2 PUSH2 0x617 JUMP JUMPDEST DUP2 EQ PUSH2 0x635 JUMPI PUSH1 0x0 DUP1 REVERT JUMPDEST POP JUMP JUMPDEST PUSH1 0x0 DUP2 CALLDATALOAD SWAP1 POP PUSH2 0x647 DUP2 PUSH2 0x621 JUMP JUMPDEST SWAP3 SWAP2 POP POP JUMP JUMPDEST PUSH1 0x0 PUSH1 0x20 DUP3 DUP5 SUB SLT ISZERO PUSH2 0x663 JUMPI PUSH2 0x662 PUSH2 0x612 JUMP JUMPDEST JUMPDEST PUSH1 0x0 PUSH2 0x671 DUP5 DUP3 DUP6 ADD PUSH2 0x638 JUMP JUMPDEST SWAP2 POP POP SWAP3 SWAP2 POP POP JUMP JUMPDEST PUSH2 0x683 DUP2 PUSH2 0x617 JUMP JUMPDEST DUP3 MSTORE POP POP JUMP JUMPDEST PUSH1 0x0 PUSH1 0x20 DUP3 ADD SWAP1 POP PUSH2 0x69E PUSH1 0x0 DUP4 ADD DUP5 PUSH2 0x67A JUMP JUMPDEST SWAP3 SWAP2 POP POP JUMP JUMPDEST PUSH1 0x0 PUSH2 0x6AF DUP3 PUSH2 0x5B6 JUMP JUMPDEST SWAP1 POP SWAP2 SWAP1 POP JUMP JUMPDEST PUSH2 0x6BF DUP2 PUSH2 0x6A4 JUMP JUMPDEST DUP3 MSTORE POP POP JUMP JUMPDEST PUSH1 0x0 PUSH1 0x20 DUP3 ADD SWAP1 POP PUSH2 0x6DA PUSH1 0x0 DUP4 ADD DUP5 PUSH2 0x6B6 JUMP JUMPDEST SWAP3 SWAP2 POP POP JUMP JUMPDEST PUSH32 0x4E487B7100000000000000000000000000000000000000000000000000000000 PUSH1 0x0 MSTORE PUSH1 0x12 PUSH1 0x4 MSTORE PUSH1 0x24 PUSH1 0x0 REVERT JUMPDEST PUSH1 0x0 PUSH2 0x71A DUP3 PUSH2 0x617 JUMP JUMPDEST SWAP2 POP PUSH2 0x725 DUP4 PUSH2 0x617 JUMP JUMPDEST SWAP3 POP DUP3 PUSH2 0x735 JUMPI PUSH2 0x734 PUSH2 0x6E0 JUMP JUMPDEST JUMPDEST DUP3 DUP3 MOD SWAP1 POP SWAP3 SWAP2 POP POP JUMP JUMPDEST PUSH32 0x4E487B7100000000000000000000000000000000000000000000000000000000 PUSH1 0x0 MSTORE PUSH1 0x32 PUSH1 0x4 MSTORE PUSH1 0x24 PUSH1 0x0 REVERT JUMPDEST PUSH32 0x4E487B7100000000000000000000000000000000000000000000000000000000 PUSH1 0x0 MSTORE PUSH1 0x41 PUSH1 0x4 MSTORE PUSH1 0x24 PUSH1 0x0 REVERT JUMPDEST PUSH32 0x4E487B7100000000000000000000000000000000000000000000000000000000 PUSH1 0x0 MSTORE PUSH1 0x11 PUSH1 0x4 MSTORE PUSH1 0x24 PUSH1 0x0 REVERT JUMPDEST PUSH1 0x0 PUSH2 0x7D8 DUP3 PUSH2 0x617 JUMP JUMPDEST SWAP2 POP PUSH2 0x7E3 DUP4 PUSH2 0x617 JUMP JUMPDEST SWAP3 POP DUP2 PUSH32 0xFFFFFFFFFFFFFFFFFFFFFFFFFFFFFFFFFFFFFFFFFFFFFFFFFFFFFFFFFFFFFFFF DIV DUP4 GT DUP3 ISZERO ISZERO AND ISZERO PUSH2 0x81C JUMPI PUSH2 0x81B PUSH2 0x79E JUMP JUMPDEST JUMPDEST DUP3 DUP3 MUL SWAP1 POP SWAP3 SWAP2 POP POP JUMP JUMPDEST PUSH1 0x0 DUP3 DUP3 MSTORE PUSH1 0x20 DUP3 ADD SWAP1 POP SWAP3 SWAP2 POP POP JUMP JUMPDEST PUSH32 0x4561636820656E74727920636F73747320312045746865722E00000000000000 PUSH1 0x0 DUP3 ADD MSTORE POP JUMP JUMPDEST PUSH1 0x0 PUSH2 0x86E PUSH1 0x19 DUP4 PUSH2 0x827 JUMP JUMPDEST SWAP2 POP PUSH2 0x879 DUP3 PUSH2 0x838 JUMP JUMPDEST PUSH1 0x20 DUP3 ADD SWAP1 POP SWAP2 SWAP1 POP JUMP JUMPDEST PUSH1 0x0 PUSH1 0x20 DUP3 ADD SWAP1 POP DUP2 DUP2 SUB PUSH1 0x0 DUP4 ADD MSTORE PUSH2 0x89D DUP2 PUSH2 0x861 JUMP JUMPDEST SWAP1 POP SWAP2 SWAP1 POP JUMP JUMPDEST PUSH1 0x0 PUSH2 0x8AF DUP3 PUSH2 0x617 JUMP JUMPDEST SWAP2 POP PUSH32 0xFFFFFFFFFFFFFFFFFFFFFFFFFFFFFFFFFFFFFFFFFFFFFFFFFFFFFFFFFFFFFFFF DUP3 EQ ISZERO PUSH2 0x8E2 JUMPI PUSH2 0x8E1 PUSH2 0x79E JUMP JUMPDEST JUMPDEST PUSH1 0x1 DUP3 ADD SWAP1 POP SWAP2 SWAP1 POP JUMP JUMPDEST PUSH1 0x0 PUSH2 0x8F8 DUP3 PUSH2 0x617 JUMP JUMPDEST SWAP2 POP PUSH2 0x903 DUP4 PUSH2 0x617 JUMP JUMPDEST SWAP3 POP DUP3 PUSH32 0xFFFFFFFFFFFFFFFFFFFFFFFFFFFFFFFFFFFFFFFFFFFFFFFFFFFFFFFFFFFFFFFF SUB DUP3 GT ISZERO PUSH2 0x938 JUMPI PUSH2 0x937 PUSH2 0x79E JUMP JUMPDEST JUMPDEST DUP3 DUP3 ADD SWAP1 POP SWAP3 SWAP2 POP POP JUMP JUMPDEST PUSH1 0x0 PUSH2 0x94E DUP3 PUSH2 0x617 JUMP JUMPDEST SWAP2 POP PUSH2 0x959 DUP4 PUSH2 0x617 JUMP JUMPDEST SWAP3 POP DUP3 PUSH2 0x969 JUMPI PUSH2 0x968 PUSH2 0x6E0 JUMP JUMPDEST JUMPDEST DUP3 DUP3 DIV SWAP1 POP SWAP3 SWAP2 POP POP JUMP JUMPDEST PUSH1 0x0 DUP2 PUSH1 0x60 SHL SWAP1 POP SWAP2 SWAP1 POP JUMP JUMPDEST PUSH1 0x0 PUSH2 0x98C DUP3 PUSH2 0x974 JUMP JUMPDEST SWAP1 POP SWAP2 SWAP1 POP JUMP JUMPDEST PUSH1 0x0 PUSH2 0x99E DUP3 PUSH2 0x981 JUMP JUMPDEST SWAP1 POP SWAP2 SWAP1 POP JUMP JUMPDEST PUSH2 0x9B6 PUSH2 0x9B1 DUP3 PUSH2 0x5D6 JUMP JUMPDEST PUSH2 0x993 JUMP JUMPDEST DUP3 MSTORE POP POP JUMP JUMPDEST PUSH1 0x0 DUP2 SWAP1 POP SWAP2 SWAP1 POP JUMP JUMPDEST PUSH2 0x9D7 PUSH2 0x9D2 DUP3 PUSH2 0x617 JUMP JUMPDEST PUSH2 0x9BC JUMP JUMPDEST DUP3 MSTORE POP POP JUMP JUMPDEST PUSH1 0x0 PUSH2 0x9E9 DUP3 DUP6 PUSH2 0x9A5 JUMP JUMPDEST PUSH1 0x14 DUP3 ADD SWAP2 POP PUSH2 0x9F9 DUP3 DUP5 PUSH2 0x9C6 JUMP JUMPDEST PUSH1 0x20 DUP3 ADD SWAP2 POP DUP2 SWAP1 POP SWAP4 SWAP3 POP POP POP JUMP INVALID LOG2 PUSH5 0x6970667358 0x22 SLT KECCAK256 0xDC PUSH22 0x49DEC781525BC61B578AB9F81ED34490DAA996A576DD SWAP3 0xE7 0xC EXTCODESIZE CODESIZE DUP5 PUSH6 0xE964736F6C63 NUMBER STOP ADDMOD SIGNEXTEND STOP CALLER "
				},
				"gasEstimates": {
					"creation": {
						"codeDepositCost": "524600",
						"executionCost": "24822",
						"totalCost": "549422"
					},
					"external": {
						"enter(uint256)": "infinite",
						"entries(uint256)": "5022",
						"owner()": "2511",
						"playerOdds(uint256)": "infinite",
						"rng()": "infinite",
						"selectWinner()": "infinite"
					}
				},
				"methodIdentifiers": {
					"enter(uint256)": "a59f3e0c",
					"entries(uint256)": "b30906d4",
					"owner()": "8da5cb5b",
					"playerOdds(uint256)": "acbbd7c0",
					"rng()": "d605787b",
					"selectWinner()": "33a99e04"
				}
			},
			"storageLayout": {
				"storage": [
					{
						"astId": 3,
						"contract": "Documents/Web3/Casino/001 Lottery.sol:lottery",
						"label": "owner",
						"offset": 0,
						"slot": "0",
						"type": "t_address"
					},
					{
						"astId": 6,
						"contract": "Documents/Web3/Casino/001 Lottery.sol:lottery",
						"label": "entries",
						"offset": 0,
						"slot": "1",
						"type": "t_array(t_address_payable)dyn_storage"
					},
					{
						"astId": 19,
						"contract": "Documents/Web3/Casino/001 Lottery.sol:lottery",
						"label": "playerEntriesAmount",
						"offset": 0,
						"slot": "2",
						"type": "t_mapping(t_address,t_uint256)"
					}
				],
				"types": {
					"t_address": {
						"encoding": "inplace",
						"label": "address",
						"numberOfBytes": "20"
					},
					"t_address_payable": {
						"encoding": "inplace",
						"label": "address payable",
						"numberOfBytes": "20"
					},
					"t_array(t_address_payable)dyn_storage": {
						"base": "t_address_payable",
						"encoding": "dynamic_array",
						"label": "address payable[]",
						"numberOfBytes": "32"
					},
					"t_mapping(t_address,t_uint256)": {
						"encoding": "mapping",
						"key": "t_address",
						"label": "mapping(address => uint256)",
						"numberOfBytes": "32",
						"value": "t_uint256"
					},
					"t_uint256": {
						"encoding": "inplace",
						"label": "uint256",
						"numberOfBytes": "32"
					}
				}
			},
			"userdoc": {
				"kind": "user",
				"methods": {},
				"version": 1
			}
		}
	}
}