{
	"Documents/Web3/Fish Themed Projects/001 Fish Vending Machine.sol": {
		"FishMachine": {
			"abi": [
				{
					"inputs": [],
					"stateMutability": "nonpayable",
					"type": "constructor"
				},
				{
					"inputs": [
						{
							"internalType": "address",
							"name": "",
							"type": "address"
						}
					],
					"name": "ahiBalance",
					"outputs": [
						{
							"internalType": "uint256",
							"name": "",
							"type": "uint256"
						}
					],
					"stateMutability": "view",
					"type": "function"
				},
				{
					"inputs": [],
					"name": "ahiRestock",
					"outputs": [],
					"stateMutability": "nonpayable",
					"type": "function"
				},
				{
					"inputs": [
						{
							"internalType": "address payable",
							"name": "newSupplier",
							"type": "address"
						}
					],
					"name": "assignSupplier",
					"outputs": [],
					"stateMutability": "nonpayable",
					"type": "function"
				},
				{
					"inputs": [
						{
							"internalType": "address",
							"name": "",
							"type": "address"
						}
					],
					"name": "breamBalance",
					"outputs": [
						{
							"internalType": "uint256",
							"name": "",
							"type": "uint256"
						}
					],
					"stateMutability": "view",
					"type": "function"
				},
				{
					"inputs": [],
					"name": "breamRestock",
					"outputs": [],
					"stateMutability": "nonpayable",
					"type": "function"
				},
				{
					"inputs": [
						{
							"internalType": "address",
							"name": "",
							"type": "address"
						}
					],
					"name": "chubBalance",
					"outputs": [
						{
							"internalType": "uint256",
							"name": "",
							"type": "uint256"
						}
					],
					"stateMutability": "view",
					"type": "function"
				},
				{
					"inputs": [],
					"name": "chubRestock",
					"outputs": [],
					"stateMutability": "nonpayable",
					"type": "function"
				},
				{
					"inputs": [],
					"name": "getMachineBalance",
					"outputs": [
						{
							"internalType": "uint256",
							"name": "",
							"type": "uint256"
						},
						{
							"internalType": "uint256",
							"name": "",
							"type": "uint256"
						},
						{
							"internalType": "uint256",
							"name": "",
							"type": "uint256"
						}
					],
					"stateMutability": "view",
					"type": "function"
				},
				{
					"inputs": [],
					"name": "owner",
					"outputs": [
						{
							"internalType": "address",
							"name": "",
							"type": "address"
						}
					],
					"stateMutability": "view",
					"type": "function"
				},
				{
					"inputs": [
						{
							"internalType": "uint256",
							"name": "amount",
							"type": "uint256"
						}
					],
					"name": "purchaseAhi",
					"outputs": [],
					"stateMutability": "payable",
					"type": "function"
				},
				{
					"inputs": [
						{
							"internalType": "uint256",
							"name": "amount",
							"type": "uint256"
						}
					],
					"name": "purchaseBream",
					"outputs": [],
					"stateMutability": "payable",
					"type": "function"
				},
				{
					"inputs": [
						{
							"internalType": "uint256",
							"name": "amount",
							"type": "uint256"
						}
					],
					"name": "purchaseChub",
					"outputs": [],
					"stateMutability": "payable",
					"type": "function"
				},
				{
					"inputs": [],
					"name": "supplier",
					"outputs": [
						{
							"internalType": "address payable",
							"name": "",
							"type": "address"
						}
					],
					"stateMutability": "view",
					"type": "function"
				}
			],
			"devdoc": {
				"kind": "dev",
				"methods": {},
				"version": 1
			},
			"evm": {
				"assembly": "    /* \"Documents/Web3/Fish Themed Projects/001 Fish Vending Machine.sol\":65:2811  contract FishMachine {... */\n  mstore(0x40, 0x80)\n    /* \"Documents/Web3/Fish Themed Projects/001 Fish Vending Machine.sol\":416:587  constructor() {... */\n  callvalue\n  dup1\n  iszero\n  tag_1\n  jumpi\n  0x00\n  dup1\n  revert\ntag_1:\n  pop\n    /* \"Documents/Web3/Fish Themed Projects/001 Fish Vending Machine.sol\":448:458  msg.sender */\n  caller\n    /* \"Documents/Web3/Fish Themed Projects/001 Fish Vending Machine.sol\":440:445  owner */\n  0x00\n  dup1\n    /* \"Documents/Web3/Fish Themed Projects/001 Fish Vending Machine.sol\":440:458  owner = msg.sender */\n  0x0100\n  exp\n  dup2\n  sload\n  dup2\n  0xffffffffffffffffffffffffffffffffffffffff\n  mul\n  not\n  and\n  swap1\n  dup4\n  0xffffffffffffffffffffffffffffffffffffffff\n  and\n  mul\n  or\n  swap1\n  sstore\n  pop\n    /* \"Documents/Web3/Fish Themed Projects/001 Fish Vending Machine.sol\":496:497  5 */\n  0x05\n    /* \"Documents/Web3/Fish Themed Projects/001 Fish Vending Machine.sol\":468:478  ahiBalance */\n  0x02\n    /* \"Documents/Web3/Fish Themed Projects/001 Fish Vending Machine.sol\":468:493  ahiBalance[address(this)] */\n  0x00\n    /* \"Documents/Web3/Fish Themed Projects/001 Fish Vending Machine.sol\":487:491  this */\n  address\n    /* \"Documents/Web3/Fish Themed Projects/001 Fish Vending Machine.sol\":468:493  ahiBalance[address(this)] */\n  0xffffffffffffffffffffffffffffffffffffffff\n  and\n  0xffffffffffffffffffffffffffffffffffffffff\n  and\n  dup2\n  mstore\n  0x20\n  add\n  swap1\n  dup2\n  mstore\n  0x20\n  add\n  0x00\n  keccak256\n    /* \"Documents/Web3/Fish Themed Projects/001 Fish Vending Machine.sol\":468:497  ahiBalance[address(this)] = 5 */\n  dup2\n  swap1\n  sstore\n  pop\n    /* \"Documents/Web3/Fish Themed Projects/001 Fish Vending Machine.sol\":537:539  10 */\n  0x0a\n    /* \"Documents/Web3/Fish Themed Projects/001 Fish Vending Machine.sol\":507:519  breamBalance */\n  0x03\n    /* \"Documents/Web3/Fish Themed Projects/001 Fish Vending Machine.sol\":507:534  breamBalance[address(this)] */\n  0x00\n    /* \"Documents/Web3/Fish Themed Projects/001 Fish Vending Machine.sol\":528:532  this */\n  address\n    /* \"Documents/Web3/Fish Themed Projects/001 Fish Vending Machine.sol\":507:534  breamBalance[address(this)] */\n  0xffffffffffffffffffffffffffffffffffffffff\n  and\n  0xffffffffffffffffffffffffffffffffffffffff\n  and\n  dup2\n  mstore\n  0x20\n  add\n  swap1\n  dup2\n  mstore\n  0x20\n  add\n  0x00\n  keccak256\n    /* \"Documents/Web3/Fish Themed Projects/001 Fish Vending Machine.sol\":507:539  breamBalance[address(this)] = 10 */\n  dup2\n  swap1\n  sstore\n  pop\n    /* \"Documents/Web3/Fish Themed Projects/001 Fish Vending Machine.sol\":578:580  20 */\n  0x14\n    /* \"Documents/Web3/Fish Themed Projects/001 Fish Vending Machine.sol\":549:560  chubBalance */\n  0x04\n    /* \"Documents/Web3/Fish Themed Projects/001 Fish Vending Machine.sol\":549:575  chubBalance[address(this)] */\n  0x00\n    /* \"Documents/Web3/Fish Themed Projects/001 Fish Vending Machine.sol\":569:573  this */\n  address\n    /* \"Documents/Web3/Fish Themed Projects/001 Fish Vending Machine.sol\":549:575  chubBalance[address(this)] */\n  0xffffffffffffffffffffffffffffffffffffffff\n  and\n  0xffffffffffffffffffffffffffffffffffffffff\n  and\n  dup2\n  mstore\n  0x20\n  add\n  swap1\n  dup2\n  mstore\n  0x20\n  add\n  0x00\n  keccak256\n    /* \"Documents/Web3/Fish Themed Projects/001 Fish Vending Machine.sol\":549:580  chubBalance[address(this)] = 20 */\n  dup2\n  swap1\n  sstore\n  pop\n    /* \"Documents/Web3/Fish Themed Projects/001 Fish Vending Machine.sol\":65:2811  contract FishMachine {... */\n  dataSize(sub_0)\n  dup1\n  dataOffset(sub_0)\n  0x00\n  codecopy\n  0x00\n  return\nstop\n\nsub_0: assembly {\n        /* \"Documents/Web3/Fish Themed Projects/001 Fish Vending Machine.sol\":65:2811  contract FishMachine {... */\n      mstore(0x40, 0x80)\n      jumpi(tag_1, lt(calldatasize, 0x04))\n      shr(0xe0, calldataload(0x00))\n      dup1\n      0xac375a46\n      gt\n      tag_15\n      jumpi\n      dup1\n      0xddd4be0b\n      gt\n      tag_16\n      jumpi\n      dup1\n      0xddd4be0b\n      eq\n      tag_11\n      jumpi\n      dup1\n      0xf142912c\n      eq\n      tag_12\n      jumpi\n      dup1\n      0xfdc2a44c\n      eq\n      tag_13\n      jumpi\n      dup1\n      0xff3ba3b4\n      eq\n      tag_14\n      jumpi\n      jump(tag_1)\n    tag_16:\n      dup1\n      0xac375a46\n      eq\n      tag_8\n      jumpi\n      dup1\n      0xaf4551e3\n      eq\n      tag_9\n      jumpi\n      dup1\n      0xc08aea42\n      eq\n      tag_10\n      jumpi\n      jump(tag_1)\n    tag_15:\n      dup1\n      0x04018ed5\n      eq\n      tag_2\n      jumpi\n      dup1\n      0x36da4468\n      eq\n      tag_3\n      jumpi\n      dup1\n      0x4824e20f\n      eq\n      tag_4\n      jumpi\n      dup1\n      0x7eee24fa\n      eq\n      tag_5\n      jumpi\n      dup1\n      0x801a00ac\n      eq\n      tag_6\n      jumpi\n      dup1\n      0x8da5cb5b\n      eq\n      tag_7\n      jumpi\n    tag_1:\n      0x00\n      dup1\n      revert\n        /* \"Documents/Web3/Fish Themed Projects/001 Fish Vending Machine.sol\":216:259  mapping (address => uint) public ahiBalance */\n    tag_2:\n      callvalue\n      dup1\n      iszero\n      tag_17\n      jumpi\n      0x00\n      dup1\n      revert\n    tag_17:\n      pop\n      tag_18\n      0x04\n      dup1\n      calldatasize\n      sub\n      dup2\n      add\n      swap1\n      tag_19\n      swap2\n      swap1\n      tag_20\n      jump\t// in\n    tag_19:\n      tag_21\n      jump\t// in\n    tag_18:\n      mload(0x40)\n      tag_22\n      swap2\n      swap1\n      tag_23\n      jump\t// in\n    tag_22:\n      mload(0x40)\n      dup1\n      swap2\n      sub\n      swap1\n      return\n        /* \"Documents/Web3/Fish Themed Projects/001 Fish Vending Machine.sol\":135:166  address payable public supplier */\n    tag_3:\n      callvalue\n      dup1\n      iszero\n      tag_24\n      jumpi\n      0x00\n      dup1\n      revert\n    tag_24:\n      pop\n      tag_25\n      tag_26\n      jump\t// in\n    tag_25:\n      mload(0x40)\n      tag_27\n      swap2\n      swap1\n      tag_28\n      jump\t// in\n    tag_27:\n      mload(0x40)\n      dup1\n      swap2\n      sub\n      swap1\n      return\n        /* \"Documents/Web3/Fish Themed Projects/001 Fish Vending Machine.sol\":1131:1335  function ahiRestock() public {... */\n    tag_4:\n      callvalue\n      dup1\n      iszero\n      tag_29\n      jumpi\n      0x00\n      dup1\n      revert\n    tag_29:\n      pop\n      tag_30\n      tag_31\n      jump\t// in\n    tag_30:\n      stop\n        /* \"Documents/Web3/Fish Themed Projects/001 Fish Vending Machine.sol\":1803:2127  function purchaseAhi(uint amount) public payable {... */\n    tag_5:\n      tag_32\n      0x04\n      dup1\n      calldatasize\n      sub\n      dup2\n      add\n      swap1\n      tag_33\n      swap2\n      swap1\n      tag_34\n      jump\t// in\n    tag_33:\n      tag_35\n      jump\t// in\n    tag_32:\n      stop\n        /* \"Documents/Web3/Fish Themed Projects/001 Fish Vending Machine.sol\":871:970  function assignSupplier(address payable newSupplier) public {... */\n    tag_6:\n      callvalue\n      dup1\n      iszero\n      tag_36\n      jumpi\n      0x00\n      dup1\n      revert\n    tag_36:\n      pop\n      tag_37\n      0x04\n      dup1\n      calldatasize\n      sub\n      dup2\n      add\n      swap1\n      tag_38\n      swap2\n      swap1\n      tag_39\n      jump\t// in\n    tag_38:\n      tag_40\n      jump\t// in\n    tag_37:\n      stop\n        /* \"Documents/Web3/Fish Themed Projects/001 Fish Vending Machine.sol\":109:129  address public owner */\n    tag_7:\n      callvalue\n      dup1\n      iszero\n      tag_41\n      jumpi\n      0x00\n      dup1\n      revert\n    tag_41:\n      pop\n      tag_42\n      tag_43\n      jump\t// in\n    tag_42:\n      mload(0x40)\n      tag_44\n      swap2\n      swap1\n      tag_45\n      jump\t// in\n    tag_44:\n      mload(0x40)\n      dup1\n      swap2\n      sub\n      swap1\n      return\n        /* \"Documents/Web3/Fish Themed Projects/001 Fish Vending Machine.sol\":2477:2807  function purchaseChub(uint amount) public payable {... */\n    tag_8:\n      tag_46\n      0x04\n      dup1\n      calldatasize\n      sub\n      dup2\n      add\n      swap1\n      tag_47\n      swap2\n      swap1\n      tag_34\n      jump\t// in\n    tag_47:\n      tag_48\n      jump\t// in\n    tag_46:\n      stop\n        /* \"Documents/Web3/Fish Themed Projects/001 Fish Vending Machine.sol\":265:310  mapping (address => uint) public breamBalance */\n    tag_9:\n      callvalue\n      dup1\n      iszero\n      tag_49\n      jumpi\n      0x00\n      dup1\n      revert\n    tag_49:\n      pop\n      tag_50\n      0x04\n      dup1\n      calldatasize\n      sub\n      dup2\n      add\n      swap1\n      tag_51\n      swap2\n      swap1\n      tag_20\n      jump\t// in\n    tag_51:\n      tag_52\n      jump\t// in\n    tag_50:\n      mload(0x40)\n      tag_53\n      swap2\n      swap1\n      tag_23\n      jump\t// in\n    tag_53:\n      mload(0x40)\n      dup1\n      swap2\n      sub\n      swap1\n      return\n        /* \"Documents/Web3/Fish Themed Projects/001 Fish Vending Machine.sol\":1341:1550  function breamRestock() public {... */\n    tag_10:\n      callvalue\n      dup1\n      iszero\n      tag_54\n      jumpi\n      0x00\n      dup1\n      revert\n    tag_54:\n      pop\n      tag_55\n      tag_56\n      jump\t// in\n    tag_55:\n      stop\n        /* \"Documents/Web3/Fish Themed Projects/001 Fish Vending Machine.sol\":631:833  function getMachineBalance() public view returns (uint, uint, uint) {... */\n    tag_11:\n      callvalue\n      dup1\n      iszero\n      tag_57\n      jumpi\n      0x00\n      dup1\n      revert\n    tag_57:\n      pop\n      tag_58\n      tag_59\n      jump\t// in\n    tag_58:\n      mload(0x40)\n      tag_60\n      swap4\n      swap3\n      swap2\n      swap1\n      tag_61\n      jump\t// in\n    tag_60:\n      mload(0x40)\n      dup1\n      swap2\n      sub\n      swap1\n      return\n        /* \"Documents/Web3/Fish Themed Projects/001 Fish Vending Machine.sol\":316:360  mapping (address => uint) public chubBalance */\n    tag_12:\n      callvalue\n      dup1\n      iszero\n      tag_62\n      jumpi\n      0x00\n      dup1\n      revert\n    tag_62:\n      pop\n      tag_63\n      0x04\n      dup1\n      calldatasize\n      sub\n      dup2\n      add\n      swap1\n      tag_64\n      swap2\n      swap1\n      tag_20\n      jump\t// in\n    tag_64:\n      tag_65\n      jump\t// in\n    tag_63:\n      mload(0x40)\n      tag_66\n      swap2\n      swap1\n      tag_23\n      jump\t// in\n    tag_66:\n      mload(0x40)\n      dup1\n      swap2\n      sub\n      swap1\n      return\n        /* \"Documents/Web3/Fish Themed Projects/001 Fish Vending Machine.sol\":2134:2470  function purchaseBream(uint amount) public payable {... */\n    tag_13:\n      tag_67\n      0x04\n      dup1\n      calldatasize\n      sub\n      dup2\n      add\n      swap1\n      tag_68\n      swap2\n      swap1\n      tag_34\n      jump\t// in\n    tag_68:\n      tag_69\n      jump\t// in\n    tag_67:\n      stop\n        /* \"Documents/Web3/Fish Themed Projects/001 Fish Vending Machine.sol\":1556:1763  function chubRestock() public {... */\n    tag_14:\n      callvalue\n      dup1\n      iszero\n      tag_70\n      jumpi\n      0x00\n      dup1\n      revert\n    tag_70:\n      pop\n      tag_71\n      tag_72\n      jump\t// in\n    tag_71:\n      stop\n        /* \"Documents/Web3/Fish Themed Projects/001 Fish Vending Machine.sol\":216:259  mapping (address => uint) public ahiBalance */\n    tag_21:\n      mstore(0x20, 0x02)\n      dup1\n      0x00\n      mstore\n      keccak256(0x00, 0x40)\n      0x00\n      swap2\n      pop\n      swap1\n      pop\n      sload\n      dup2\n      jump\t// out\n        /* \"Documents/Web3/Fish Themed Projects/001 Fish Vending Machine.sol\":135:166  address payable public supplier */\n    tag_26:\n      0x01\n      0x00\n      swap1\n      sload\n      swap1\n      0x0100\n      exp\n      swap1\n      div\n      0xffffffffffffffffffffffffffffffffffffffff\n      and\n      dup2\n      jump\t// out\n        /* \"Documents/Web3/Fish Themed Projects/001 Fish Vending Machine.sol\":1131:1335  function ahiRestock() public {... */\n    tag_31:\n        /* \"Documents/Web3/Fish Themed Projects/001 Fish Vending Machine.sol\":1192:1197  owner */\n      0x00\n      dup1\n      sload\n      swap1\n      0x0100\n      exp\n      swap1\n      div\n      0xffffffffffffffffffffffffffffffffffffffff\n      and\n        /* \"Documents/Web3/Fish Themed Projects/001 Fish Vending Machine.sol\":1178:1197  msg.sender == owner */\n      0xffffffffffffffffffffffffffffffffffffffff\n      and\n        /* \"Documents/Web3/Fish Themed Projects/001 Fish Vending Machine.sol\":1178:1188  msg.sender */\n      caller\n        /* \"Documents/Web3/Fish Themed Projects/001 Fish Vending Machine.sol\":1178:1197  msg.sender == owner */\n      0xffffffffffffffffffffffffffffffffffffffff\n      and\n      eq\n        /* \"Documents/Web3/Fish Themed Projects/001 Fish Vending Machine.sol\":1170:1253  require(msg.sender == owner, \"Only the owner of this fish machine can restock it.\") */\n      tag_74\n      jumpi\n      mload(0x40)\n      0x08c379a000000000000000000000000000000000000000000000000000000000\n      dup2\n      mstore\n      0x04\n      add\n      tag_75\n      swap1\n      tag_76\n      jump\t// in\n    tag_75:\n      mload(0x40)\n      dup1\n      swap2\n      sub\n      swap1\n      revert\n    tag_74:\n        /* \"Documents/Web3/Fish Themed Projects/001 Fish Vending Machine.sol\":1263:1271  supplier */\n      0x01\n      0x00\n      swap1\n      sload\n      swap1\n      0x0100\n      exp\n      swap1\n      div\n      0xffffffffffffffffffffffffffffffffffffffff\n      and\n        /* \"Documents/Web3/Fish Themed Projects/001 Fish Vending Machine.sol\":1263:1280  supplier.transfer */\n      0xffffffffffffffffffffffffffffffffffffffff\n      and\n        /* \"Documents/Web3/Fish Themed Projects/001 Fish Vending Machine.sol\":1263:1289  supplier.transfer(5 ether) */\n      0x08fc\n        /* \"Documents/Web3/Fish Themed Projects/001 Fish Vending Machine.sol\":1281:1288  5 ether */\n      0x4563918244f40000\n        /* \"Documents/Web3/Fish Themed Projects/001 Fish Vending Machine.sol\":1263:1289  supplier.transfer(5 ether) */\n      swap1\n      dup2\n      iszero\n      mul\n      swap1\n      mload(0x40)\n      0x00\n      mload(0x40)\n      dup1\n      dup4\n      sub\n      dup2\n      dup6\n      dup9\n      dup9\n      call\n      swap4\n      pop\n      pop\n      pop\n      pop\n      iszero\n      dup1\n      iszero\n      tag_78\n      jumpi\n      returndatasize\n      0x00\n      dup1\n      returndatacopy\n      revert(0x00, returndatasize)\n    tag_78:\n      pop\n        /* \"Documents/Web3/Fish Themed Projects/001 Fish Vending Machine.sol\":1327:1328  5 */\n      0x05\n        /* \"Documents/Web3/Fish Themed Projects/001 Fish Vending Machine.sol\":1299:1309  ahiBalance */\n      0x02\n        /* \"Documents/Web3/Fish Themed Projects/001 Fish Vending Machine.sol\":1299:1324  ahiBalance[address(this)] */\n      0x00\n        /* \"Documents/Web3/Fish Themed Projects/001 Fish Vending Machine.sol\":1318:1322  this */\n      address\n        /* \"Documents/Web3/Fish Themed Projects/001 Fish Vending Machine.sol\":1299:1324  ahiBalance[address(this)] */\n      0xffffffffffffffffffffffffffffffffffffffff\n      and\n      0xffffffffffffffffffffffffffffffffffffffff\n      and\n      dup2\n      mstore\n      0x20\n      add\n      swap1\n      dup2\n      mstore\n      0x20\n      add\n      0x00\n      keccak256\n        /* \"Documents/Web3/Fish Themed Projects/001 Fish Vending Machine.sol\":1299:1328  ahiBalance[address(this)] = 5 */\n      dup2\n      swap1\n      sstore\n      pop\n        /* \"Documents/Web3/Fish Themed Projects/001 Fish Vending Machine.sol\":1131:1335  function ahiRestock() public {... */\n      jump\t// out\n        /* \"Documents/Web3/Fish Themed Projects/001 Fish Vending Machine.sol\":1803:2127  function purchaseAhi(uint amount) public payable {... */\n    tag_35:\n        /* \"Documents/Web3/Fish Themed Projects/001 Fish Vending Machine.sol\":1892:1899  3 ether */\n      0x29a2241af62c0000\n        /* \"Documents/Web3/Fish Themed Projects/001 Fish Vending Machine.sol\":1883:1889  amount */\n      dup2\n        /* \"Documents/Web3/Fish Themed Projects/001 Fish Vending Machine.sol\":1883:1899  amount * 3 ether */\n      tag_80\n      swap2\n      swap1\n      tag_81\n      jump\t// in\n    tag_80:\n        /* \"Documents/Web3/Fish Themed Projects/001 Fish Vending Machine.sol\":1870:1879  msg.value */\n      callvalue\n        /* \"Documents/Web3/Fish Themed Projects/001 Fish Vending Machine.sol\":1870:1899  msg.value >= amount * 3 ether */\n      lt\n      iszero\n        /* \"Documents/Web3/Fish Themed Projects/001 Fish Vending Machine.sol\":1862:1927  require(msg.value >= amount * 3 ether, \"Each Ahi costs 3 ether.\") */\n      tag_82\n      jumpi\n      mload(0x40)\n      0x08c379a000000000000000000000000000000000000000000000000000000000\n      dup2\n      mstore\n      0x04\n      add\n      tag_83\n      swap1\n      tag_84\n      jump\t// in\n    tag_83:\n      mload(0x40)\n      dup1\n      swap2\n      sub\n      swap1\n      revert\n    tag_82:\n        /* \"Documents/Web3/Fish Themed Projects/001 Fish Vending Machine.sol\":1974:1980  amount */\n      dup1\n        /* \"Documents/Web3/Fish Themed Projects/001 Fish Vending Machine.sol\":1945:1955  ahiBalance */\n      0x02\n        /* \"Documents/Web3/Fish Themed Projects/001 Fish Vending Machine.sol\":1945:1970  ahiBalance[address(this)] */\n      0x00\n        /* \"Documents/Web3/Fish Themed Projects/001 Fish Vending Machine.sol\":1964:1968  this */\n      address\n        /* \"Documents/Web3/Fish Themed Projects/001 Fish Vending Machine.sol\":1945:1970  ahiBalance[address(this)] */\n      0xffffffffffffffffffffffffffffffffffffffff\n      and\n      0xffffffffffffffffffffffffffffffffffffffff\n      and\n      dup2\n      mstore\n      0x20\n      add\n      swap1\n      dup2\n      mstore\n      0x20\n      add\n      0x00\n      keccak256\n      sload\n        /* \"Documents/Web3/Fish Themed Projects/001 Fish Vending Machine.sol\":1945:1980  ahiBalance[address(this)] >= amount */\n      lt\n      iszero\n        /* \"Documents/Web3/Fish Themed Projects/001 Fish Vending Machine.sol\":1937:2033  require(ahiBalance[address(this)] >= amount, \"We do not have enough Ahi to fulfill your order.\") */\n      tag_85\n      jumpi\n      mload(0x40)\n      0x08c379a000000000000000000000000000000000000000000000000000000000\n      dup2\n      mstore\n      0x04\n      add\n      tag_86\n      swap1\n      tag_87\n      jump\t// in\n    tag_86:\n      mload(0x40)\n      dup1\n      swap2\n      sub\n      swap1\n      revert\n    tag_85:\n        /* \"Documents/Web3/Fish Themed Projects/001 Fish Vending Machine.sol\":2072:2078  amount */\n      dup1\n        /* \"Documents/Web3/Fish Themed Projects/001 Fish Vending Machine.sol\":2043:2053  ahiBalance */\n      0x02\n        /* \"Documents/Web3/Fish Themed Projects/001 Fish Vending Machine.sol\":2043:2068  ahiBalance[address(this)] */\n      0x00\n        /* \"Documents/Web3/Fish Themed Projects/001 Fish Vending Machine.sol\":2062:2066  this */\n      address\n        /* \"Documents/Web3/Fish Themed Projects/001 Fish Vending Machine.sol\":2043:2068  ahiBalance[address(this)] */\n      0xffffffffffffffffffffffffffffffffffffffff\n      and\n      0xffffffffffffffffffffffffffffffffffffffff\n      and\n      dup2\n      mstore\n      0x20\n      add\n      swap1\n      dup2\n      mstore\n      0x20\n      add\n      0x00\n      keccak256\n      0x00\n        /* \"Documents/Web3/Fish Themed Projects/001 Fish Vending Machine.sol\":2043:2078  ahiBalance[address(this)] -= amount */\n      dup3\n      dup3\n      sload\n      tag_88\n      swap2\n      swap1\n      tag_89\n      jump\t// in\n    tag_88:\n      swap3\n      pop\n      pop\n      dup2\n      swap1\n      sstore\n      pop\n        /* \"Documents/Web3/Fish Themed Projects/001 Fish Vending Machine.sol\":2114:2120  amount */\n      dup1\n        /* \"Documents/Web3/Fish Themed Projects/001 Fish Vending Machine.sol\":2088:2098  ahiBalance */\n      0x02\n        /* \"Documents/Web3/Fish Themed Projects/001 Fish Vending Machine.sol\":2088:2110  ahiBalance[msg.sender] */\n      0x00\n        /* \"Documents/Web3/Fish Themed Projects/001 Fish Vending Machine.sol\":2099:2109  msg.sender */\n      caller\n        /* \"Documents/Web3/Fish Themed Projects/001 Fish Vending Machine.sol\":2088:2110  ahiBalance[msg.sender] */\n      0xffffffffffffffffffffffffffffffffffffffff\n      and\n      0xffffffffffffffffffffffffffffffffffffffff\n      and\n      dup2\n      mstore\n      0x20\n      add\n      swap1\n      dup2\n      mstore\n      0x20\n      add\n      0x00\n      keccak256\n      0x00\n        /* \"Documents/Web3/Fish Themed Projects/001 Fish Vending Machine.sol\":2088:2120  ahiBalance[msg.sender] += amount */\n      dup3\n      dup3\n      sload\n      tag_90\n      swap2\n      swap1\n      tag_91\n      jump\t// in\n    tag_90:\n      swap3\n      pop\n      pop\n      dup2\n      swap1\n      sstore\n      pop\n        /* \"Documents/Web3/Fish Themed Projects/001 Fish Vending Machine.sol\":1803:2127  function purchaseAhi(uint amount) public payable {... */\n      pop\n      jump\t// out\n        /* \"Documents/Web3/Fish Themed Projects/001 Fish Vending Machine.sol\":871:970  function assignSupplier(address payable newSupplier) public {... */\n    tag_40:\n        /* \"Documents/Web3/Fish Themed Projects/001 Fish Vending Machine.sol\":952:963  newSupplier */\n      dup1\n        /* \"Documents/Web3/Fish Themed Projects/001 Fish Vending Machine.sol\":941:949  supplier */\n      0x01\n      0x00\n        /* \"Documents/Web3/Fish Themed Projects/001 Fish Vending Machine.sol\":941:963  supplier = newSupplier */\n      0x0100\n      exp\n      dup2\n      sload\n      dup2\n      0xffffffffffffffffffffffffffffffffffffffff\n      mul\n      not\n      and\n      swap1\n      dup4\n      0xffffffffffffffffffffffffffffffffffffffff\n      and\n      mul\n      or\n      swap1\n      sstore\n      pop\n        /* \"Documents/Web3/Fish Themed Projects/001 Fish Vending Machine.sol\":871:970  function assignSupplier(address payable newSupplier) public {... */\n      pop\n      jump\t// out\n        /* \"Documents/Web3/Fish Themed Projects/001 Fish Vending Machine.sol\":109:129  address public owner */\n    tag_43:\n      0x00\n      dup1\n      sload\n      swap1\n      0x0100\n      exp\n      swap1\n      div\n      0xffffffffffffffffffffffffffffffffffffffff\n      and\n      dup2\n      jump\t// out\n        /* \"Documents/Web3/Fish Themed Projects/001 Fish Vending Machine.sol\":2477:2807  function purchaseChub(uint amount) public payable {... */\n    tag_48:\n        /* \"Documents/Web3/Fish Themed Projects/001 Fish Vending Machine.sol\":2567:2574  3 ether */\n      0x29a2241af62c0000\n        /* \"Documents/Web3/Fish Themed Projects/001 Fish Vending Machine.sol\":2558:2564  amount */\n      dup2\n        /* \"Documents/Web3/Fish Themed Projects/001 Fish Vending Machine.sol\":2558:2574  amount * 3 ether */\n      tag_94\n      swap2\n      swap1\n      tag_81\n      jump\t// in\n    tag_94:\n        /* \"Documents/Web3/Fish Themed Projects/001 Fish Vending Machine.sol\":2545:2554  msg.value */\n      callvalue\n        /* \"Documents/Web3/Fish Themed Projects/001 Fish Vending Machine.sol\":2545:2574  msg.value >= amount * 3 ether */\n      lt\n      iszero\n        /* \"Documents/Web3/Fish Themed Projects/001 Fish Vending Machine.sol\":2537:2603  require(msg.value >= amount * 3 ether, \"Each Chub costs 1 ether.\") */\n      tag_95\n      jumpi\n      mload(0x40)\n      0x08c379a000000000000000000000000000000000000000000000000000000000\n      dup2\n      mstore\n      0x04\n      add\n      tag_96\n      swap1\n      tag_97\n      jump\t// in\n    tag_96:\n      mload(0x40)\n      dup1\n      swap2\n      sub\n      swap1\n      revert\n    tag_95:\n        /* \"Documents/Web3/Fish Themed Projects/001 Fish Vending Machine.sol\":2651:2657  amount */\n      dup1\n        /* \"Documents/Web3/Fish Themed Projects/001 Fish Vending Machine.sol\":2621:2632  chubBalance */\n      0x04\n        /* \"Documents/Web3/Fish Themed Projects/001 Fish Vending Machine.sol\":2621:2647  chubBalance[address(this)] */\n      0x00\n        /* \"Documents/Web3/Fish Themed Projects/001 Fish Vending Machine.sol\":2641:2645  this */\n      address\n        /* \"Documents/Web3/Fish Themed Projects/001 Fish Vending Machine.sol\":2621:2647  chubBalance[address(this)] */\n      0xffffffffffffffffffffffffffffffffffffffff\n      and\n      0xffffffffffffffffffffffffffffffffffffffff\n      and\n      dup2\n      mstore\n      0x20\n      add\n      swap1\n      dup2\n      mstore\n      0x20\n      add\n      0x00\n      keccak256\n      sload\n        /* \"Documents/Web3/Fish Themed Projects/001 Fish Vending Machine.sol\":2621:2657  chubBalance[address(this)] >= amount */\n      lt\n      iszero\n        /* \"Documents/Web3/Fish Themed Projects/001 Fish Vending Machine.sol\":2613:2711  require(chubBalance[address(this)] >= amount, \"We do not have enough Chub to fulfill your order.\") */\n      tag_98\n      jumpi\n      mload(0x40)\n      0x08c379a000000000000000000000000000000000000000000000000000000000\n      dup2\n      mstore\n      0x04\n      add\n      tag_99\n      swap1\n      tag_100\n      jump\t// in\n    tag_99:\n      mload(0x40)\n      dup1\n      swap2\n      sub\n      swap1\n      revert\n    tag_98:\n        /* \"Documents/Web3/Fish Themed Projects/001 Fish Vending Machine.sol\":2751:2757  amount */\n      dup1\n        /* \"Documents/Web3/Fish Themed Projects/001 Fish Vending Machine.sol\":2721:2732  chubBalance */\n      0x04\n        /* \"Documents/Web3/Fish Themed Projects/001 Fish Vending Machine.sol\":2721:2747  chubBalance[address(this)] */\n      0x00\n        /* \"Documents/Web3/Fish Themed Projects/001 Fish Vending Machine.sol\":2741:2745  this */\n      address\n        /* \"Documents/Web3/Fish Themed Projects/001 Fish Vending Machine.sol\":2721:2747  chubBalance[address(this)] */\n      0xffffffffffffffffffffffffffffffffffffffff\n      and\n      0xffffffffffffffffffffffffffffffffffffffff\n      and\n      dup2\n      mstore\n      0x20\n      add\n      swap1\n      dup2\n      mstore\n      0x20\n      add\n      0x00\n      keccak256\n      0x00\n        /* \"Documents/Web3/Fish Themed Projects/001 Fish Vending Machine.sol\":2721:2757  chubBalance[address(this)] -= amount */\n      dup3\n      dup3\n      sload\n      tag_101\n      swap2\n      swap1\n      tag_89\n      jump\t// in\n    tag_101:\n      swap3\n      pop\n      pop\n      dup2\n      swap1\n      sstore\n      pop\n        /* \"Documents/Web3/Fish Themed Projects/001 Fish Vending Machine.sol\":2794:2800  amount */\n      dup1\n        /* \"Documents/Web3/Fish Themed Projects/001 Fish Vending Machine.sol\":2767:2778  chubBalance */\n      0x04\n        /* \"Documents/Web3/Fish Themed Projects/001 Fish Vending Machine.sol\":2767:2790  chubBalance[msg.sender] */\n      0x00\n        /* \"Documents/Web3/Fish Themed Projects/001 Fish Vending Machine.sol\":2779:2789  msg.sender */\n      caller\n        /* \"Documents/Web3/Fish Themed Projects/001 Fish Vending Machine.sol\":2767:2790  chubBalance[msg.sender] */\n      0xffffffffffffffffffffffffffffffffffffffff\n      and\n      0xffffffffffffffffffffffffffffffffffffffff\n      and\n      dup2\n      mstore\n      0x20\n      add\n      swap1\n      dup2\n      mstore\n      0x20\n      add\n      0x00\n      keccak256\n      0x00\n        /* \"Documents/Web3/Fish Themed Projects/001 Fish Vending Machine.sol\":2767:2800  chubBalance[msg.sender] += amount */\n      dup3\n      dup3\n      sload\n      tag_102\n      swap2\n      swap1\n      tag_91\n      jump\t// in\n    tag_102:\n      swap3\n      pop\n      pop\n      dup2\n      swap1\n      sstore\n      pop\n        /* \"Documents/Web3/Fish Themed Projects/001 Fish Vending Machine.sol\":2477:2807  function purchaseChub(uint amount) public payable {... */\n      pop\n      jump\t// out\n        /* \"Documents/Web3/Fish Themed Projects/001 Fish Vending Machine.sol\":265:310  mapping (address => uint) public breamBalance */\n    tag_52:\n      mstore(0x20, 0x03)\n      dup1\n      0x00\n      mstore\n      keccak256(0x00, 0x40)\n      0x00\n      swap2\n      pop\n      swap1\n      pop\n      sload\n      dup2\n      jump\t// out\n        /* \"Documents/Web3/Fish Themed Projects/001 Fish Vending Machine.sol\":1341:1550  function breamRestock() public {... */\n    tag_56:\n        /* \"Documents/Web3/Fish Themed Projects/001 Fish Vending Machine.sol\":1382:1390  supplier */\n      0x01\n      0x00\n      swap1\n      sload\n      swap1\n      0x0100\n      exp\n      swap1\n      div\n      0xffffffffffffffffffffffffffffffffffffffff\n      and\n        /* \"Documents/Web3/Fish Themed Projects/001 Fish Vending Machine.sol\":1382:1399  supplier.transfer */\n      0xffffffffffffffffffffffffffffffffffffffff\n      and\n        /* \"Documents/Web3/Fish Themed Projects/001 Fish Vending Machine.sol\":1382:1408  supplier.transfer(5 ether) */\n      0x08fc\n        /* \"Documents/Web3/Fish Themed Projects/001 Fish Vending Machine.sol\":1400:1407  5 ether */\n      0x4563918244f40000\n        /* \"Documents/Web3/Fish Themed Projects/001 Fish Vending Machine.sol\":1382:1408  supplier.transfer(5 ether) */\n      swap1\n      dup2\n      iszero\n      mul\n      swap1\n      mload(0x40)\n      0x00\n      mload(0x40)\n      dup1\n      dup4\n      sub\n      dup2\n      dup6\n      dup9\n      dup9\n      call\n      swap4\n      pop\n      pop\n      pop\n      pop\n      iszero\n      dup1\n      iszero\n      tag_105\n      jumpi\n      returndatasize\n      0x00\n      dup1\n      returndatacopy\n      revert(0x00, returndatasize)\n    tag_105:\n      pop\n        /* \"Documents/Web3/Fish Themed Projects/001 Fish Vending Machine.sol\":1440:1445  owner */\n      0x00\n      dup1\n      sload\n      swap1\n      0x0100\n      exp\n      swap1\n      div\n      0xffffffffffffffffffffffffffffffffffffffff\n      and\n        /* \"Documents/Web3/Fish Themed Projects/001 Fish Vending Machine.sol\":1426:1445  msg.sender == owner */\n      0xffffffffffffffffffffffffffffffffffffffff\n      and\n        /* \"Documents/Web3/Fish Themed Projects/001 Fish Vending Machine.sol\":1426:1436  msg.sender */\n      caller\n        /* \"Documents/Web3/Fish Themed Projects/001 Fish Vending Machine.sol\":1426:1445  msg.sender == owner */\n      0xffffffffffffffffffffffffffffffffffffffff\n      and\n      eq\n        /* \"Documents/Web3/Fish Themed Projects/001 Fish Vending Machine.sol\":1418:1501  require(msg.sender == owner, \"Only the owner of this fish machine can restock it.\") */\n      tag_106\n      jumpi\n      mload(0x40)\n      0x08c379a000000000000000000000000000000000000000000000000000000000\n      dup2\n      mstore\n      0x04\n      add\n      tag_107\n      swap1\n      tag_76\n      jump\t// in\n    tag_107:\n      mload(0x40)\n      dup1\n      swap2\n      sub\n      swap1\n      revert\n    tag_106:\n        /* \"Documents/Web3/Fish Themed Projects/001 Fish Vending Machine.sol\":1541:1543  10 */\n      0x0a\n        /* \"Documents/Web3/Fish Themed Projects/001 Fish Vending Machine.sol\":1511:1523  breamBalance */\n      0x03\n        /* \"Documents/Web3/Fish Themed Projects/001 Fish Vending Machine.sol\":1511:1538  breamBalance[address(this)] */\n      0x00\n        /* \"Documents/Web3/Fish Themed Projects/001 Fish Vending Machine.sol\":1532:1536  this */\n      address\n        /* \"Documents/Web3/Fish Themed Projects/001 Fish Vending Machine.sol\":1511:1538  breamBalance[address(this)] */\n      0xffffffffffffffffffffffffffffffffffffffff\n      and\n      0xffffffffffffffffffffffffffffffffffffffff\n      and\n      dup2\n      mstore\n      0x20\n      add\n      swap1\n      dup2\n      mstore\n      0x20\n      add\n      0x00\n      keccak256\n        /* \"Documents/Web3/Fish Themed Projects/001 Fish Vending Machine.sol\":1511:1543  breamBalance[address(this)] = 10 */\n      dup2\n      swap1\n      sstore\n      pop\n        /* \"Documents/Web3/Fish Themed Projects/001 Fish Vending Machine.sol\":1341:1550  function breamRestock() public {... */\n      jump\t// out\n        /* \"Documents/Web3/Fish Themed Projects/001 Fish Vending Machine.sol\":631:833  function getMachineBalance() public view returns (uint, uint, uint) {... */\n    tag_59:\n        /* \"Documents/Web3/Fish Themed Projects/001 Fish Vending Machine.sol\":681:685  uint */\n      0x00\n        /* \"Documents/Web3/Fish Themed Projects/001 Fish Vending Machine.sol\":687:691  uint */\n      dup1\n        /* \"Documents/Web3/Fish Themed Projects/001 Fish Vending Machine.sol\":693:697  uint */\n      0x00\n        /* \"Documents/Web3/Fish Themed Projects/001 Fish Vending Machine.sol\":717:727  ahiBalance */\n      0x02\n        /* \"Documents/Web3/Fish Themed Projects/001 Fish Vending Machine.sol\":717:742  ahiBalance[address(this)] */\n      0x00\n        /* \"Documents/Web3/Fish Themed Projects/001 Fish Vending Machine.sol\":736:740  this */\n      address\n        /* \"Documents/Web3/Fish Themed Projects/001 Fish Vending Machine.sol\":717:742  ahiBalance[address(this)] */\n      0xffffffffffffffffffffffffffffffffffffffff\n      and\n      0xffffffffffffffffffffffffffffffffffffffff\n      and\n      dup2\n      mstore\n      0x20\n      add\n      swap1\n      dup2\n      mstore\n      0x20\n      add\n      0x00\n      keccak256\n      sload\n        /* \"Documents/Web3/Fish Themed Projects/001 Fish Vending Machine.sol\":757:769  breamBalance */\n      0x03\n        /* \"Documents/Web3/Fish Themed Projects/001 Fish Vending Machine.sol\":757:784  breamBalance[address(this)] */\n      0x00\n        /* \"Documents/Web3/Fish Themed Projects/001 Fish Vending Machine.sol\":778:782  this */\n      address\n        /* \"Documents/Web3/Fish Themed Projects/001 Fish Vending Machine.sol\":757:784  breamBalance[address(this)] */\n      0xffffffffffffffffffffffffffffffffffffffff\n      and\n      0xffffffffffffffffffffffffffffffffffffffff\n      and\n      dup2\n      mstore\n      0x20\n      add\n      swap1\n      dup2\n      mstore\n      0x20\n      add\n      0x00\n      keccak256\n      sload\n        /* \"Documents/Web3/Fish Themed Projects/001 Fish Vending Machine.sol\":799:810  chubBalance */\n      0x04\n        /* \"Documents/Web3/Fish Themed Projects/001 Fish Vending Machine.sol\":799:825  chubBalance[address(this)] */\n      0x00\n        /* \"Documents/Web3/Fish Themed Projects/001 Fish Vending Machine.sol\":819:823  this */\n      address\n        /* \"Documents/Web3/Fish Themed Projects/001 Fish Vending Machine.sol\":799:825  chubBalance[address(this)] */\n      0xffffffffffffffffffffffffffffffffffffffff\n      and\n      0xffffffffffffffffffffffffffffffffffffffff\n      and\n      dup2\n      mstore\n      0x20\n      add\n      swap1\n      dup2\n      mstore\n      0x20\n      add\n      0x00\n      keccak256\n      sload\n        /* \"Documents/Web3/Fish Themed Projects/001 Fish Vending Machine.sol\":709:826  return (ahiBalance[address(this)], ... */\n      swap3\n      pop\n      swap3\n      pop\n      swap3\n      pop\n        /* \"Documents/Web3/Fish Themed Projects/001 Fish Vending Machine.sol\":631:833  function getMachineBalance() public view returns (uint, uint, uint) {... */\n      swap1\n      swap2\n      swap3\n      jump\t// out\n        /* \"Documents/Web3/Fish Themed Projects/001 Fish Vending Machine.sol\":316:360  mapping (address => uint) public chubBalance */\n    tag_65:\n      mstore(0x20, 0x04)\n      dup1\n      0x00\n      mstore\n      keccak256(0x00, 0x40)\n      0x00\n      swap2\n      pop\n      swap1\n      pop\n      sload\n      dup2\n      jump\t// out\n        /* \"Documents/Web3/Fish Themed Projects/001 Fish Vending Machine.sol\":2134:2470  function purchaseBream(uint amount) public payable {... */\n    tag_69:\n        /* \"Documents/Web3/Fish Themed Projects/001 Fish Vending Machine.sol\":2225:2232  3 ether */\n      0x29a2241af62c0000\n        /* \"Documents/Web3/Fish Themed Projects/001 Fish Vending Machine.sol\":2216:2222  amount */\n      dup2\n        /* \"Documents/Web3/Fish Themed Projects/001 Fish Vending Machine.sol\":2216:2232  amount * 3 ether */\n      tag_110\n      swap2\n      swap1\n      tag_81\n      jump\t// in\n    tag_110:\n        /* \"Documents/Web3/Fish Themed Projects/001 Fish Vending Machine.sol\":2203:2212  msg.value */\n      callvalue\n        /* \"Documents/Web3/Fish Themed Projects/001 Fish Vending Machine.sol\":2203:2232  msg.value >= amount * 3 ether */\n      lt\n      iszero\n        /* \"Documents/Web3/Fish Themed Projects/001 Fish Vending Machine.sol\":2195:2262  require(msg.value >= amount * 3 ether, \"Each Bream costs 2 ether.\") */\n      tag_111\n      jumpi\n      mload(0x40)\n      0x08c379a000000000000000000000000000000000000000000000000000000000\n      dup2\n      mstore\n      0x04\n      add\n      tag_112\n      swap1\n      tag_113\n      jump\t// in\n    tag_112:\n      mload(0x40)\n      dup1\n      swap2\n      sub\n      swap1\n      revert\n    tag_111:\n        /* \"Documents/Web3/Fish Themed Projects/001 Fish Vending Machine.sol\":2311:2317  amount */\n      dup1\n        /* \"Documents/Web3/Fish Themed Projects/001 Fish Vending Machine.sol\":2280:2292  breamBalance */\n      0x03\n        /* \"Documents/Web3/Fish Themed Projects/001 Fish Vending Machine.sol\":2280:2307  breamBalance[address(this)] */\n      0x00\n        /* \"Documents/Web3/Fish Themed Projects/001 Fish Vending Machine.sol\":2301:2305  this */\n      address\n        /* \"Documents/Web3/Fish Themed Projects/001 Fish Vending Machine.sol\":2280:2307  breamBalance[address(this)] */\n      0xffffffffffffffffffffffffffffffffffffffff\n      and\n      0xffffffffffffffffffffffffffffffffffffffff\n      and\n      dup2\n      mstore\n      0x20\n      add\n      swap1\n      dup2\n      mstore\n      0x20\n      add\n      0x00\n      keccak256\n      sload\n        /* \"Documents/Web3/Fish Themed Projects/001 Fish Vending Machine.sol\":2280:2317  breamBalance[address(this)] >= amount */\n      lt\n      iszero\n        /* \"Documents/Web3/Fish Themed Projects/001 Fish Vending Machine.sol\":2272:2372  require(breamBalance[address(this)] >= amount, \"We do not have enough Bream to fulfill your order.\") */\n      tag_114\n      jumpi\n      mload(0x40)\n      0x08c379a000000000000000000000000000000000000000000000000000000000\n      dup2\n      mstore\n      0x04\n      add\n      tag_115\n      swap1\n      tag_116\n      jump\t// in\n    tag_115:\n      mload(0x40)\n      dup1\n      swap2\n      sub\n      swap1\n      revert\n    tag_114:\n        /* \"Documents/Web3/Fish Themed Projects/001 Fish Vending Machine.sol\":2413:2419  amount */\n      dup1\n        /* \"Documents/Web3/Fish Themed Projects/001 Fish Vending Machine.sol\":2382:2394  breamBalance */\n      0x03\n        /* \"Documents/Web3/Fish Themed Projects/001 Fish Vending Machine.sol\":2382:2409  breamBalance[address(this)] */\n      0x00\n        /* \"Documents/Web3/Fish Themed Projects/001 Fish Vending Machine.sol\":2403:2407  this */\n      address\n        /* \"Documents/Web3/Fish Themed Projects/001 Fish Vending Machine.sol\":2382:2409  breamBalance[address(this)] */\n      0xffffffffffffffffffffffffffffffffffffffff\n      and\n      0xffffffffffffffffffffffffffffffffffffffff\n      and\n      dup2\n      mstore\n      0x20\n      add\n      swap1\n      dup2\n      mstore\n      0x20\n      add\n      0x00\n      keccak256\n      0x00\n        /* \"Documents/Web3/Fish Themed Projects/001 Fish Vending Machine.sol\":2382:2419  breamBalance[address(this)] -= amount */\n      dup3\n      dup3\n      sload\n      tag_117\n      swap2\n      swap1\n      tag_89\n      jump\t// in\n    tag_117:\n      swap3\n      pop\n      pop\n      dup2\n      swap1\n      sstore\n      pop\n        /* \"Documents/Web3/Fish Themed Projects/001 Fish Vending Machine.sol\":2457:2463  amount */\n      dup1\n        /* \"Documents/Web3/Fish Themed Projects/001 Fish Vending Machine.sol\":2429:2441  breamBalance */\n      0x03\n        /* \"Documents/Web3/Fish Themed Projects/001 Fish Vending Machine.sol\":2429:2453  breamBalance[msg.sender] */\n      0x00\n        /* \"Documents/Web3/Fish Themed Projects/001 Fish Vending Machine.sol\":2442:2452  msg.sender */\n      caller\n        /* \"Documents/Web3/Fish Themed Projects/001 Fish Vending Machine.sol\":2429:2453  breamBalance[msg.sender] */\n      0xffffffffffffffffffffffffffffffffffffffff\n      and\n      0xffffffffffffffffffffffffffffffffffffffff\n      and\n      dup2\n      mstore\n      0x20\n      add\n      swap1\n      dup2\n      mstore\n      0x20\n      add\n      0x00\n      keccak256\n      0x00\n        /* \"Documents/Web3/Fish Themed Projects/001 Fish Vending Machine.sol\":2429:2463  breamBalance[msg.sender] += amount */\n      dup3\n      dup3\n      sload\n      tag_118\n      swap2\n      swap1\n      tag_91\n      jump\t// in\n    tag_118:\n      swap3\n      pop\n      pop\n      dup2\n      swap1\n      sstore\n      pop\n        /* \"Documents/Web3/Fish Themed Projects/001 Fish Vending Machine.sol\":2134:2470  function purchaseBream(uint amount) public payable {... */\n      pop\n      jump\t// out\n        /* \"Documents/Web3/Fish Themed Projects/001 Fish Vending Machine.sol\":1556:1763  function chubRestock() public {... */\n    tag_72:\n        /* \"Documents/Web3/Fish Themed Projects/001 Fish Vending Machine.sol\":1596:1604  supplier */\n      0x01\n      0x00\n      swap1\n      sload\n      swap1\n      0x0100\n      exp\n      swap1\n      div\n      0xffffffffffffffffffffffffffffffffffffffff\n      and\n        /* \"Documents/Web3/Fish Themed Projects/001 Fish Vending Machine.sol\":1596:1613  supplier.transfer */\n      0xffffffffffffffffffffffffffffffffffffffff\n      and\n        /* \"Documents/Web3/Fish Themed Projects/001 Fish Vending Machine.sol\":1596:1622  supplier.transfer(5 ether) */\n      0x08fc\n        /* \"Documents/Web3/Fish Themed Projects/001 Fish Vending Machine.sol\":1614:1621  5 ether */\n      0x4563918244f40000\n        /* \"Documents/Web3/Fish Themed Projects/001 Fish Vending Machine.sol\":1596:1622  supplier.transfer(5 ether) */\n      swap1\n      dup2\n      iszero\n      mul\n      swap1\n      mload(0x40)\n      0x00\n      mload(0x40)\n      dup1\n      dup4\n      sub\n      dup2\n      dup6\n      dup9\n      dup9\n      call\n      swap4\n      pop\n      pop\n      pop\n      pop\n      iszero\n      dup1\n      iszero\n      tag_121\n      jumpi\n      returndatasize\n      0x00\n      dup1\n      returndatacopy\n      revert(0x00, returndatasize)\n    tag_121:\n      pop\n        /* \"Documents/Web3/Fish Themed Projects/001 Fish Vending Machine.sol\":1654:1659  owner */\n      0x00\n      dup1\n      sload\n      swap1\n      0x0100\n      exp\n      swap1\n      div\n      0xffffffffffffffffffffffffffffffffffffffff\n      and\n        /* \"Documents/Web3/Fish Themed Projects/001 Fish Vending Machine.sol\":1640:1659  msg.sender == owner */\n      0xffffffffffffffffffffffffffffffffffffffff\n      and\n        /* \"Documents/Web3/Fish Themed Projects/001 Fish Vending Machine.sol\":1640:1650  msg.sender */\n      caller\n        /* \"Documents/Web3/Fish Themed Projects/001 Fish Vending Machine.sol\":1640:1659  msg.sender == owner */\n      0xffffffffffffffffffffffffffffffffffffffff\n      and\n      eq\n        /* \"Documents/Web3/Fish Themed Projects/001 Fish Vending Machine.sol\":1632:1715  require(msg.sender == owner, \"Only the owner of this fish machine can restock it.\") */\n      tag_122\n      jumpi\n      mload(0x40)\n      0x08c379a000000000000000000000000000000000000000000000000000000000\n      dup2\n      mstore\n      0x04\n      add\n      tag_123\n      swap1\n      tag_76\n      jump\t// in\n    tag_123:\n      mload(0x40)\n      dup1\n      swap2\n      sub\n      swap1\n      revert\n    tag_122:\n        /* \"Documents/Web3/Fish Themed Projects/001 Fish Vending Machine.sol\":1754:1756  20 */\n      0x14\n        /* \"Documents/Web3/Fish Themed Projects/001 Fish Vending Machine.sol\":1725:1736  chubBalance */\n      0x04\n        /* \"Documents/Web3/Fish Themed Projects/001 Fish Vending Machine.sol\":1725:1751  chubBalance[address(this)] */\n      0x00\n        /* \"Documents/Web3/Fish Themed Projects/001 Fish Vending Machine.sol\":1745:1749  this */\n      address\n        /* \"Documents/Web3/Fish Themed Projects/001 Fish Vending Machine.sol\":1725:1751  chubBalance[address(this)] */\n      0xffffffffffffffffffffffffffffffffffffffff\n      and\n      0xffffffffffffffffffffffffffffffffffffffff\n      and\n      dup2\n      mstore\n      0x20\n      add\n      swap1\n      dup2\n      mstore\n      0x20\n      add\n      0x00\n      keccak256\n        /* \"Documents/Web3/Fish Themed Projects/001 Fish Vending Machine.sol\":1725:1756  chubBalance[address(this)] = 20 */\n      dup2\n      swap1\n      sstore\n      pop\n        /* \"Documents/Web3/Fish Themed Projects/001 Fish Vending Machine.sol\":1556:1763  function chubRestock() public {... */\n      jump\t// out\n        /* \"#utility.yul\":88:205   */\n    tag_125:\n        /* \"#utility.yul\":197:198   */\n      0x00\n        /* \"#utility.yul\":194:195   */\n      dup1\n        /* \"#utility.yul\":187:199   */\n      revert\n        /* \"#utility.yul\":334:460   */\n    tag_127:\n        /* \"#utility.yul\":371:378   */\n      0x00\n        /* \"#utility.yul\":411:453   */\n      0xffffffffffffffffffffffffffffffffffffffff\n        /* \"#utility.yul\":404:409   */\n      dup3\n        /* \"#utility.yul\":400:454   */\n      and\n        /* \"#utility.yul\":389:454   */\n      swap1\n      pop\n        /* \"#utility.yul\":334:460   */\n      swap2\n      swap1\n      pop\n      jump\t// out\n        /* \"#utility.yul\":466:562   */\n    tag_128:\n        /* \"#utility.yul\":503:510   */\n      0x00\n        /* \"#utility.yul\":532:556   */\n      tag_162\n        /* \"#utility.yul\":550:555   */\n      dup3\n        /* \"#utility.yul\":532:556   */\n      tag_127\n      jump\t// in\n    tag_162:\n        /* \"#utility.yul\":521:556   */\n      swap1\n      pop\n        /* \"#utility.yul\":466:562   */\n      swap2\n      swap1\n      pop\n      jump\t// out\n        /* \"#utility.yul\":568:690   */\n    tag_129:\n        /* \"#utility.yul\":641:665   */\n      tag_164\n        /* \"#utility.yul\":659:664   */\n      dup2\n        /* \"#utility.yul\":641:665   */\n      tag_128\n      jump\t// in\n    tag_164:\n        /* \"#utility.yul\":634:639   */\n      dup2\n        /* \"#utility.yul\":631:666   */\n      eq\n        /* \"#utility.yul\":621:684   */\n      tag_165\n      jumpi\n        /* \"#utility.yul\":680:681   */\n      0x00\n        /* \"#utility.yul\":677:678   */\n      dup1\n        /* \"#utility.yul\":670:682   */\n      revert\n        /* \"#utility.yul\":621:684   */\n    tag_165:\n        /* \"#utility.yul\":568:690   */\n      pop\n      jump\t// out\n        /* \"#utility.yul\":696:835   */\n    tag_130:\n        /* \"#utility.yul\":742:747   */\n      0x00\n        /* \"#utility.yul\":780:786   */\n      dup2\n        /* \"#utility.yul\":767:787   */\n      calldataload\n        /* \"#utility.yul\":758:787   */\n      swap1\n      pop\n        /* \"#utility.yul\":796:829   */\n      tag_167\n        /* \"#utility.yul\":823:828   */\n      dup2\n        /* \"#utility.yul\":796:829   */\n      tag_129\n      jump\t// in\n    tag_167:\n        /* \"#utility.yul\":696:835   */\n      swap3\n      swap2\n      pop\n      pop\n      jump\t// out\n        /* \"#utility.yul\":841:1170   */\n    tag_20:\n        /* \"#utility.yul\":900:906   */\n      0x00\n        /* \"#utility.yul\":949:951   */\n      0x20\n        /* \"#utility.yul\":937:946   */\n      dup3\n        /* \"#utility.yul\":928:935   */\n      dup5\n        /* \"#utility.yul\":924:947   */\n      sub\n        /* \"#utility.yul\":920:952   */\n      slt\n        /* \"#utility.yul\":917:1036   */\n      iszero\n      tag_169\n      jumpi\n        /* \"#utility.yul\":955:1034   */\n      tag_170\n      tag_125\n      jump\t// in\n    tag_170:\n        /* \"#utility.yul\":917:1036   */\n    tag_169:\n        /* \"#utility.yul\":1075:1076   */\n      0x00\n        /* \"#utility.yul\":1100:1153   */\n      tag_171\n        /* \"#utility.yul\":1145:1152   */\n      dup5\n        /* \"#utility.yul\":1136:1142   */\n      dup3\n        /* \"#utility.yul\":1125:1134   */\n      dup6\n        /* \"#utility.yul\":1121:1143   */\n      add\n        /* \"#utility.yul\":1100:1153   */\n      tag_130\n      jump\t// in\n    tag_171:\n        /* \"#utility.yul\":1090:1153   */\n      swap2\n      pop\n        /* \"#utility.yul\":1046:1163   */\n      pop\n        /* \"#utility.yul\":841:1170   */\n      swap3\n      swap2\n      pop\n      pop\n      jump\t// out\n        /* \"#utility.yul\":1176:1253   */\n    tag_131:\n        /* \"#utility.yul\":1213:1220   */\n      0x00\n        /* \"#utility.yul\":1242:1247   */\n      dup2\n        /* \"#utility.yul\":1231:1247   */\n      swap1\n      pop\n        /* \"#utility.yul\":1176:1253   */\n      swap2\n      swap1\n      pop\n      jump\t// out\n        /* \"#utility.yul\":1259:1377   */\n    tag_132:\n        /* \"#utility.yul\":1346:1370   */\n      tag_174\n        /* \"#utility.yul\":1364:1369   */\n      dup2\n        /* \"#utility.yul\":1346:1370   */\n      tag_131\n      jump\t// in\n    tag_174:\n        /* \"#utility.yul\":1341:1344   */\n      dup3\n        /* \"#utility.yul\":1334:1371   */\n      mstore\n        /* \"#utility.yul\":1259:1377   */\n      pop\n      pop\n      jump\t// out\n        /* \"#utility.yul\":1383:1605   */\n    tag_23:\n        /* \"#utility.yul\":1476:1480   */\n      0x00\n        /* \"#utility.yul\":1514:1516   */\n      0x20\n        /* \"#utility.yul\":1503:1512   */\n      dup3\n        /* \"#utility.yul\":1499:1517   */\n      add\n        /* \"#utility.yul\":1491:1517   */\n      swap1\n      pop\n        /* \"#utility.yul\":1527:1598   */\n      tag_176\n        /* \"#utility.yul\":1595:1596   */\n      0x00\n        /* \"#utility.yul\":1584:1593   */\n      dup4\n        /* \"#utility.yul\":1580:1597   */\n      add\n        /* \"#utility.yul\":1571:1577   */\n      dup5\n        /* \"#utility.yul\":1527:1598   */\n      tag_132\n      jump\t// in\n    tag_176:\n        /* \"#utility.yul\":1383:1605   */\n      swap3\n      swap2\n      pop\n      pop\n      jump\t// out\n        /* \"#utility.yul\":1611:1715   */\n    tag_133:\n        /* \"#utility.yul\":1656:1663   */\n      0x00\n        /* \"#utility.yul\":1685:1709   */\n      tag_178\n        /* \"#utility.yul\":1703:1708   */\n      dup3\n        /* \"#utility.yul\":1685:1709   */\n      tag_127\n      jump\t// in\n    tag_178:\n        /* \"#utility.yul\":1674:1709   */\n      swap1\n      pop\n        /* \"#utility.yul\":1611:1715   */\n      swap2\n      swap1\n      pop\n      jump\t// out\n        /* \"#utility.yul\":1721:1863   */\n    tag_134:\n        /* \"#utility.yul\":1824:1856   */\n      tag_180\n        /* \"#utility.yul\":1850:1855   */\n      dup2\n        /* \"#utility.yul\":1824:1856   */\n      tag_133\n      jump\t// in\n    tag_180:\n        /* \"#utility.yul\":1819:1822   */\n      dup3\n        /* \"#utility.yul\":1812:1857   */\n      mstore\n        /* \"#utility.yul\":1721:1863   */\n      pop\n      pop\n      jump\t// out\n        /* \"#utility.yul\":1869:2123   */\n    tag_28:\n        /* \"#utility.yul\":1978:1982   */\n      0x00\n        /* \"#utility.yul\":2016:2018   */\n      0x20\n        /* \"#utility.yul\":2005:2014   */\n      dup3\n        /* \"#utility.yul\":2001:2019   */\n      add\n        /* \"#utility.yul\":1993:2019   */\n      swap1\n      pop\n        /* \"#utility.yul\":2029:2116   */\n      tag_182\n        /* \"#utility.yul\":2113:2114   */\n      0x00\n        /* \"#utility.yul\":2102:2111   */\n      dup4\n        /* \"#utility.yul\":2098:2115   */\n      add\n        /* \"#utility.yul\":2089:2095   */\n      dup5\n        /* \"#utility.yul\":2029:2116   */\n      tag_134\n      jump\t// in\n    tag_182:\n        /* \"#utility.yul\":1869:2123   */\n      swap3\n      swap2\n      pop\n      pop\n      jump\t// out\n        /* \"#utility.yul\":2129:2251   */\n    tag_135:\n        /* \"#utility.yul\":2202:2226   */\n      tag_184\n        /* \"#utility.yul\":2220:2225   */\n      dup2\n        /* \"#utility.yul\":2202:2226   */\n      tag_131\n      jump\t// in\n    tag_184:\n        /* \"#utility.yul\":2195:2200   */\n      dup2\n        /* \"#utility.yul\":2192:2227   */\n      eq\n        /* \"#utility.yul\":2182:2245   */\n      tag_185\n      jumpi\n        /* \"#utility.yul\":2241:2242   */\n      0x00\n        /* \"#utility.yul\":2238:2239   */\n      dup1\n        /* \"#utility.yul\":2231:2243   */\n      revert\n        /* \"#utility.yul\":2182:2245   */\n    tag_185:\n        /* \"#utility.yul\":2129:2251   */\n      pop\n      jump\t// out\n        /* \"#utility.yul\":2257:2396   */\n    tag_136:\n        /* \"#utility.yul\":2303:2308   */\n      0x00\n        /* \"#utility.yul\":2341:2347   */\n      dup2\n        /* \"#utility.yul\":2328:2348   */\n      calldataload\n        /* \"#utility.yul\":2319:2348   */\n      swap1\n      pop\n        /* \"#utility.yul\":2357:2390   */\n      tag_187\n        /* \"#utility.yul\":2384:2389   */\n      dup2\n        /* \"#utility.yul\":2357:2390   */\n      tag_135\n      jump\t// in\n    tag_187:\n        /* \"#utility.yul\":2257:2396   */\n      swap3\n      swap2\n      pop\n      pop\n      jump\t// out\n        /* \"#utility.yul\":2402:2731   */\n    tag_34:\n        /* \"#utility.yul\":2461:2467   */\n      0x00\n        /* \"#utility.yul\":2510:2512   */\n      0x20\n        /* \"#utility.yul\":2498:2507   */\n      dup3\n        /* \"#utility.yul\":2489:2496   */\n      dup5\n        /* \"#utility.yul\":2485:2508   */\n      sub\n        /* \"#utility.yul\":2481:2513   */\n      slt\n        /* \"#utility.yul\":2478:2597   */\n      iszero\n      tag_189\n      jumpi\n        /* \"#utility.yul\":2516:2595   */\n      tag_190\n      tag_125\n      jump\t// in\n    tag_190:\n        /* \"#utility.yul\":2478:2597   */\n    tag_189:\n        /* \"#utility.yul\":2636:2637   */\n      0x00\n        /* \"#utility.yul\":2661:2714   */\n      tag_191\n        /* \"#utility.yul\":2706:2713   */\n      dup5\n        /* \"#utility.yul\":2697:2703   */\n      dup3\n        /* \"#utility.yul\":2686:2695   */\n      dup6\n        /* \"#utility.yul\":2682:2704   */\n      add\n        /* \"#utility.yul\":2661:2714   */\n      tag_136\n      jump\t// in\n    tag_191:\n        /* \"#utility.yul\":2651:2714   */\n      swap2\n      pop\n        /* \"#utility.yul\":2607:2724   */\n      pop\n        /* \"#utility.yul\":2402:2731   */\n      swap3\n      swap2\n      pop\n      pop\n      jump\t// out\n        /* \"#utility.yul\":2737:2875   */\n    tag_137:\n        /* \"#utility.yul\":2818:2850   */\n      tag_193\n        /* \"#utility.yul\":2844:2849   */\n      dup2\n        /* \"#utility.yul\":2818:2850   */\n      tag_133\n      jump\t// in\n    tag_193:\n        /* \"#utility.yul\":2811:2816   */\n      dup2\n        /* \"#utility.yul\":2808:2851   */\n      eq\n        /* \"#utility.yul\":2798:2869   */\n      tag_194\n      jumpi\n        /* \"#utility.yul\":2865:2866   */\n      0x00\n        /* \"#utility.yul\":2862:2863   */\n      dup1\n        /* \"#utility.yul\":2855:2867   */\n      revert\n        /* \"#utility.yul\":2798:2869   */\n    tag_194:\n        /* \"#utility.yul\":2737:2875   */\n      pop\n      jump\t// out\n        /* \"#utility.yul\":2881:3036   */\n    tag_138:\n        /* \"#utility.yul\":2935:2940   */\n      0x00\n        /* \"#utility.yul\":2973:2979   */\n      dup2\n        /* \"#utility.yul\":2960:2980   */\n      calldataload\n        /* \"#utility.yul\":2951:2980   */\n      swap1\n      pop\n        /* \"#utility.yul\":2989:3030   */\n      tag_196\n        /* \"#utility.yul\":3024:3029   */\n      dup2\n        /* \"#utility.yul\":2989:3030   */\n      tag_137\n      jump\t// in\n    tag_196:\n        /* \"#utility.yul\":2881:3036   */\n      swap3\n      swap2\n      pop\n      pop\n      jump\t// out\n        /* \"#utility.yul\":3042:3387   */\n    tag_39:\n        /* \"#utility.yul\":3109:3115   */\n      0x00\n        /* \"#utility.yul\":3158:3160   */\n      0x20\n        /* \"#utility.yul\":3146:3155   */\n      dup3\n        /* \"#utility.yul\":3137:3144   */\n      dup5\n        /* \"#utility.yul\":3133:3156   */\n      sub\n        /* \"#utility.yul\":3129:3161   */\n      slt\n        /* \"#utility.yul\":3126:3245   */\n      iszero\n      tag_198\n      jumpi\n        /* \"#utility.yul\":3164:3243   */\n      tag_199\n      tag_125\n      jump\t// in\n    tag_199:\n        /* \"#utility.yul\":3126:3245   */\n    tag_198:\n        /* \"#utility.yul\":3284:3285   */\n      0x00\n        /* \"#utility.yul\":3309:3370   */\n      tag_200\n        /* \"#utility.yul\":3362:3369   */\n      dup5\n        /* \"#utility.yul\":3353:3359   */\n      dup3\n        /* \"#utility.yul\":3342:3351   */\n      dup6\n        /* \"#utility.yul\":3338:3360   */\n      add\n        /* \"#utility.yul\":3309:3370   */\n      tag_138\n      jump\t// in\n    tag_200:\n        /* \"#utility.yul\":3299:3370   */\n      swap2\n      pop\n        /* \"#utility.yul\":3255:3380   */\n      pop\n        /* \"#utility.yul\":3042:3387   */\n      swap3\n      swap2\n      pop\n      pop\n      jump\t// out\n        /* \"#utility.yul\":3393:3511   */\n    tag_139:\n        /* \"#utility.yul\":3480:3504   */\n      tag_202\n        /* \"#utility.yul\":3498:3503   */\n      dup2\n        /* \"#utility.yul\":3480:3504   */\n      tag_128\n      jump\t// in\n    tag_202:\n        /* \"#utility.yul\":3475:3478   */\n      dup3\n        /* \"#utility.yul\":3468:3505   */\n      mstore\n        /* \"#utility.yul\":3393:3511   */\n      pop\n      pop\n      jump\t// out\n        /* \"#utility.yul\":3517:3739   */\n    tag_45:\n        /* \"#utility.yul\":3610:3614   */\n      0x00\n        /* \"#utility.yul\":3648:3650   */\n      0x20\n        /* \"#utility.yul\":3637:3646   */\n      dup3\n        /* \"#utility.yul\":3633:3651   */\n      add\n        /* \"#utility.yul\":3625:3651   */\n      swap1\n      pop\n        /* \"#utility.yul\":3661:3732   */\n      tag_204\n        /* \"#utility.yul\":3729:3730   */\n      0x00\n        /* \"#utility.yul\":3718:3727   */\n      dup4\n        /* \"#utility.yul\":3714:3731   */\n      add\n        /* \"#utility.yul\":3705:3711   */\n      dup5\n        /* \"#utility.yul\":3661:3732   */\n      tag_139\n      jump\t// in\n    tag_204:\n        /* \"#utility.yul\":3517:3739   */\n      swap3\n      swap2\n      pop\n      pop\n      jump\t// out\n        /* \"#utility.yul\":3745:4187   */\n    tag_61:\n        /* \"#utility.yul\":3894:3898   */\n      0x00\n        /* \"#utility.yul\":3932:3934   */\n      0x60\n        /* \"#utility.yul\":3921:3930   */\n      dup3\n        /* \"#utility.yul\":3917:3935   */\n      add\n        /* \"#utility.yul\":3909:3935   */\n      swap1\n      pop\n        /* \"#utility.yul\":3945:4016   */\n      tag_206\n        /* \"#utility.yul\":4013:4014   */\n      0x00\n        /* \"#utility.yul\":4002:4011   */\n      dup4\n        /* \"#utility.yul\":3998:4015   */\n      add\n        /* \"#utility.yul\":3989:3995   */\n      dup7\n        /* \"#utility.yul\":3945:4016   */\n      tag_132\n      jump\t// in\n    tag_206:\n        /* \"#utility.yul\":4026:4098   */\n      tag_207\n        /* \"#utility.yul\":4094:4096   */\n      0x20\n        /* \"#utility.yul\":4083:4092   */\n      dup4\n        /* \"#utility.yul\":4079:4097   */\n      add\n        /* \"#utility.yul\":4070:4076   */\n      dup6\n        /* \"#utility.yul\":4026:4098   */\n      tag_132\n      jump\t// in\n    tag_207:\n        /* \"#utility.yul\":4108:4180   */\n      tag_208\n        /* \"#utility.yul\":4176:4178   */\n      0x40\n        /* \"#utility.yul\":4165:4174   */\n      dup4\n        /* \"#utility.yul\":4161:4179   */\n      add\n        /* \"#utility.yul\":4152:4158   */\n      dup5\n        /* \"#utility.yul\":4108:4180   */\n      tag_132\n      jump\t// in\n    tag_208:\n        /* \"#utility.yul\":3745:4187   */\n      swap5\n      swap4\n      pop\n      pop\n      pop\n      pop\n      jump\t// out\n        /* \"#utility.yul\":4193:4362   */\n    tag_140:\n        /* \"#utility.yul\":4277:4288   */\n      0x00\n        /* \"#utility.yul\":4311:4317   */\n      dup3\n        /* \"#utility.yul\":4306:4309   */\n      dup3\n        /* \"#utility.yul\":4299:4318   */\n      mstore\n        /* \"#utility.yul\":4351:4355   */\n      0x20\n        /* \"#utility.yul\":4346:4349   */\n      dup3\n        /* \"#utility.yul\":4342:4356   */\n      add\n        /* \"#utility.yul\":4327:4356   */\n      swap1\n      pop\n        /* \"#utility.yul\":4193:4362   */\n      swap3\n      swap2\n      pop\n      pop\n      jump\t// out\n        /* \"#utility.yul\":4368:4606   */\n    tag_141:\n        /* \"#utility.yul\":4508:4542   */\n      0x4f6e6c7920746865206f776e6572206f6620746869732066697368206d616368\n        /* \"#utility.yul\":4504:4505   */\n      0x00\n        /* \"#utility.yul\":4496:4502   */\n      dup3\n        /* \"#utility.yul\":4492:4506   */\n      add\n        /* \"#utility.yul\":4485:4543   */\n      mstore\n        /* \"#utility.yul\":4577:4598   */\n      0x696e652063616e20726573746f636b2069742e00000000000000000000000000\n        /* \"#utility.yul\":4572:4574   */\n      0x20\n        /* \"#utility.yul\":4564:4570   */\n      dup3\n        /* \"#utility.yul\":4560:4575   */\n      add\n        /* \"#utility.yul\":4553:4599   */\n      mstore\n        /* \"#utility.yul\":4368:4606   */\n      pop\n      jump\t// out\n        /* \"#utility.yul\":4612:4978   */\n    tag_142:\n        /* \"#utility.yul\":4754:4757   */\n      0x00\n        /* \"#utility.yul\":4775:4842   */\n      tag_212\n        /* \"#utility.yul\":4839:4841   */\n      0x33\n        /* \"#utility.yul\":4834:4837   */\n      dup4\n        /* \"#utility.yul\":4775:4842   */\n      tag_140\n      jump\t// in\n    tag_212:\n        /* \"#utility.yul\":4768:4842   */\n      swap2\n      pop\n        /* \"#utility.yul\":4851:4944   */\n      tag_213\n        /* \"#utility.yul\":4940:4943   */\n      dup3\n        /* \"#utility.yul\":4851:4944   */\n      tag_141\n      jump\t// in\n    tag_213:\n        /* \"#utility.yul\":4969:4971   */\n      0x40\n        /* \"#utility.yul\":4964:4967   */\n      dup3\n        /* \"#utility.yul\":4960:4972   */\n      add\n        /* \"#utility.yul\":4953:4972   */\n      swap1\n      pop\n        /* \"#utility.yul\":4612:4978   */\n      swap2\n      swap1\n      pop\n      jump\t// out\n        /* \"#utility.yul\":4984:5403   */\n    tag_76:\n        /* \"#utility.yul\":5150:5154   */\n      0x00\n        /* \"#utility.yul\":5188:5190   */\n      0x20\n        /* \"#utility.yul\":5177:5186   */\n      dup3\n        /* \"#utility.yul\":5173:5191   */\n      add\n        /* \"#utility.yul\":5165:5191   */\n      swap1\n      pop\n        /* \"#utility.yul\":5237:5246   */\n      dup2\n        /* \"#utility.yul\":5231:5235   */\n      dup2\n        /* \"#utility.yul\":5227:5247   */\n      sub\n        /* \"#utility.yul\":5223:5224   */\n      0x00\n        /* \"#utility.yul\":5212:5221   */\n      dup4\n        /* \"#utility.yul\":5208:5225   */\n      add\n        /* \"#utility.yul\":5201:5248   */\n      mstore\n        /* \"#utility.yul\":5265:5396   */\n      tag_215\n        /* \"#utility.yul\":5391:5395   */\n      dup2\n        /* \"#utility.yul\":5265:5396   */\n      tag_142\n      jump\t// in\n    tag_215:\n        /* \"#utility.yul\":5257:5396   */\n      swap1\n      pop\n        /* \"#utility.yul\":4984:5403   */\n      swap2\n      swap1\n      pop\n      jump\t// out\n        /* \"#utility.yul\":5409:5589   */\n    tag_143:\n        /* \"#utility.yul\":5457:5534   */\n      0x4e487b7100000000000000000000000000000000000000000000000000000000\n        /* \"#utility.yul\":5454:5455   */\n      0x00\n        /* \"#utility.yul\":5447:5535   */\n      mstore\n        /* \"#utility.yul\":5554:5558   */\n      0x11\n        /* \"#utility.yul\":5551:5552   */\n      0x04\n        /* \"#utility.yul\":5544:5559   */\n      mstore\n        /* \"#utility.yul\":5578:5582   */\n      0x24\n        /* \"#utility.yul\":5575:5576   */\n      0x00\n        /* \"#utility.yul\":5568:5583   */\n      revert\n        /* \"#utility.yul\":5595:5943   */\n    tag_81:\n        /* \"#utility.yul\":5635:5642   */\n      0x00\n        /* \"#utility.yul\":5658:5678   */\n      tag_218\n        /* \"#utility.yul\":5676:5677   */\n      dup3\n        /* \"#utility.yul\":5658:5678   */\n      tag_131\n      jump\t// in\n    tag_218:\n        /* \"#utility.yul\":5653:5678   */\n      swap2\n      pop\n        /* \"#utility.yul\":5692:5712   */\n      tag_219\n        /* \"#utility.yul\":5710:5711   */\n      dup4\n        /* \"#utility.yul\":5692:5712   */\n      tag_131\n      jump\t// in\n    tag_219:\n        /* \"#utility.yul\":5687:5712   */\n      swap3\n      pop\n        /* \"#utility.yul\":5880:5881   */\n      dup2\n        /* \"#utility.yul\":5812:5878   */\n      0xffffffffffffffffffffffffffffffffffffffffffffffffffffffffffffffff\n        /* \"#utility.yul\":5808:5882   */\n      div\n        /* \"#utility.yul\":5805:5806   */\n      dup4\n        /* \"#utility.yul\":5802:5883   */\n      gt\n        /* \"#utility.yul\":5797:5798   */\n      dup3\n        /* \"#utility.yul\":5790:5799   */\n      iszero\n        /* \"#utility.yul\":5783:5800   */\n      iszero\n        /* \"#utility.yul\":5779:5884   */\n      and\n        /* \"#utility.yul\":5776:5907   */\n      iszero\n      tag_220\n      jumpi\n        /* \"#utility.yul\":5887:5905   */\n      tag_221\n      tag_143\n      jump\t// in\n    tag_221:\n        /* \"#utility.yul\":5776:5907   */\n    tag_220:\n        /* \"#utility.yul\":5935:5936   */\n      dup3\n        /* \"#utility.yul\":5932:5933   */\n      dup3\n        /* \"#utility.yul\":5928:5937   */\n      mul\n        /* \"#utility.yul\":5917:5937   */\n      swap1\n      pop\n        /* \"#utility.yul\":5595:5943   */\n      swap3\n      swap2\n      pop\n      pop\n      jump\t// out\n        /* \"#utility.yul\":5949:6122   */\n    tag_144:\n        /* \"#utility.yul\":6089:6114   */\n      0x456163682041686920636f73747320332065746865722e000000000000000000\n        /* \"#utility.yul\":6085:6086   */\n      0x00\n        /* \"#utility.yul\":6077:6083   */\n      dup3\n        /* \"#utility.yul\":6073:6087   */\n      add\n        /* \"#utility.yul\":6066:6115   */\n      mstore\n        /* \"#utility.yul\":5949:6122   */\n      pop\n      jump\t// out\n        /* \"#utility.yul\":6128:6494   */\n    tag_145:\n        /* \"#utility.yul\":6270:6273   */\n      0x00\n        /* \"#utility.yul\":6291:6358   */\n      tag_224\n        /* \"#utility.yul\":6355:6357   */\n      0x17\n        /* \"#utility.yul\":6350:6353   */\n      dup4\n        /* \"#utility.yul\":6291:6358   */\n      tag_140\n      jump\t// in\n    tag_224:\n        /* \"#utility.yul\":6284:6358   */\n      swap2\n      pop\n        /* \"#utility.yul\":6367:6460   */\n      tag_225\n        /* \"#utility.yul\":6456:6459   */\n      dup3\n        /* \"#utility.yul\":6367:6460   */\n      tag_144\n      jump\t// in\n    tag_225:\n        /* \"#utility.yul\":6485:6487   */\n      0x20\n        /* \"#utility.yul\":6480:6483   */\n      dup3\n        /* \"#utility.yul\":6476:6488   */\n      add\n        /* \"#utility.yul\":6469:6488   */\n      swap1\n      pop\n        /* \"#utility.yul\":6128:6494   */\n      swap2\n      swap1\n      pop\n      jump\t// out\n        /* \"#utility.yul\":6500:6919   */\n    tag_84:\n        /* \"#utility.yul\":6666:6670   */\n      0x00\n        /* \"#utility.yul\":6704:6706   */\n      0x20\n        /* \"#utility.yul\":6693:6702   */\n      dup3\n        /* \"#utility.yul\":6689:6707   */\n      add\n        /* \"#utility.yul\":6681:6707   */\n      swap1\n      pop\n        /* \"#utility.yul\":6753:6762   */\n      dup2\n        /* \"#utility.yul\":6747:6751   */\n      dup2\n        /* \"#utility.yul\":6743:6763   */\n      sub\n        /* \"#utility.yul\":6739:6740   */\n      0x00\n        /* \"#utility.yul\":6728:6737   */\n      dup4\n        /* \"#utility.yul\":6724:6741   */\n      add\n        /* \"#utility.yul\":6717:6764   */\n      mstore\n        /* \"#utility.yul\":6781:6912   */\n      tag_227\n        /* \"#utility.yul\":6907:6911   */\n      dup2\n        /* \"#utility.yul\":6781:6912   */\n      tag_145\n      jump\t// in\n    tag_227:\n        /* \"#utility.yul\":6773:6912   */\n      swap1\n      pop\n        /* \"#utility.yul\":6500:6919   */\n      swap2\n      swap1\n      pop\n      jump\t// out\n        /* \"#utility.yul\":6925:7160   */\n    tag_146:\n        /* \"#utility.yul\":7065:7099   */\n      0x576520646f206e6f74206861766520656e6f7567682041686920746f2066756c\n        /* \"#utility.yul\":7061:7062   */\n      0x00\n        /* \"#utility.yul\":7053:7059   */\n      dup3\n        /* \"#utility.yul\":7049:7063   */\n      add\n        /* \"#utility.yul\":7042:7100   */\n      mstore\n        /* \"#utility.yul\":7134:7152   */\n      0x66696c6c20796f7572206f726465722e00000000000000000000000000000000\n        /* \"#utility.yul\":7129:7131   */\n      0x20\n        /* \"#utility.yul\":7121:7127   */\n      dup3\n        /* \"#utility.yul\":7117:7132   */\n      add\n        /* \"#utility.yul\":7110:7153   */\n      mstore\n        /* \"#utility.yul\":6925:7160   */\n      pop\n      jump\t// out\n        /* \"#utility.yul\":7166:7532   */\n    tag_147:\n        /* \"#utility.yul\":7308:7311   */\n      0x00\n        /* \"#utility.yul\":7329:7396   */\n      tag_230\n        /* \"#utility.yul\":7393:7395   */\n      0x30\n        /* \"#utility.yul\":7388:7391   */\n      dup4\n        /* \"#utility.yul\":7329:7396   */\n      tag_140\n      jump\t// in\n    tag_230:\n        /* \"#utility.yul\":7322:7396   */\n      swap2\n      pop\n        /* \"#utility.yul\":7405:7498   */\n      tag_231\n        /* \"#utility.yul\":7494:7497   */\n      dup3\n        /* \"#utility.yul\":7405:7498   */\n      tag_146\n      jump\t// in\n    tag_231:\n        /* \"#utility.yul\":7523:7525   */\n      0x40\n        /* \"#utility.yul\":7518:7521   */\n      dup3\n        /* \"#utility.yul\":7514:7526   */\n      add\n        /* \"#utility.yul\":7507:7526   */\n      swap1\n      pop\n        /* \"#utility.yul\":7166:7532   */\n      swap2\n      swap1\n      pop\n      jump\t// out\n        /* \"#utility.yul\":7538:7957   */\n    tag_87:\n        /* \"#utility.yul\":7704:7708   */\n      0x00\n        /* \"#utility.yul\":7742:7744   */\n      0x20\n        /* \"#utility.yul\":7731:7740   */\n      dup3\n        /* \"#utility.yul\":7727:7745   */\n      add\n        /* \"#utility.yul\":7719:7745   */\n      swap1\n      pop\n        /* \"#utility.yul\":7791:7800   */\n      dup2\n        /* \"#utility.yul\":7785:7789   */\n      dup2\n        /* \"#utility.yul\":7781:7801   */\n      sub\n        /* \"#utility.yul\":7777:7778   */\n      0x00\n        /* \"#utility.yul\":7766:7775   */\n      dup4\n        /* \"#utility.yul\":7762:7779   */\n      add\n        /* \"#utility.yul\":7755:7802   */\n      mstore\n        /* \"#utility.yul\":7819:7950   */\n      tag_233\n        /* \"#utility.yul\":7945:7949   */\n      dup2\n        /* \"#utility.yul\":7819:7950   */\n      tag_147\n      jump\t// in\n    tag_233:\n        /* \"#utility.yul\":7811:7950   */\n      swap1\n      pop\n        /* \"#utility.yul\":7538:7957   */\n      swap2\n      swap1\n      pop\n      jump\t// out\n        /* \"#utility.yul\":7963:8154   */\n    tag_89:\n        /* \"#utility.yul\":8003:8007   */\n      0x00\n        /* \"#utility.yul\":8023:8043   */\n      tag_235\n        /* \"#utility.yul\":8041:8042   */\n      dup3\n        /* \"#utility.yul\":8023:8043   */\n      tag_131\n      jump\t// in\n    tag_235:\n        /* \"#utility.yul\":8018:8043   */\n      swap2\n      pop\n        /* \"#utility.yul\":8057:8077   */\n      tag_236\n        /* \"#utility.yul\":8075:8076   */\n      dup4\n        /* \"#utility.yul\":8057:8077   */\n      tag_131\n      jump\t// in\n    tag_236:\n        /* \"#utility.yul\":8052:8077   */\n      swap3\n      pop\n        /* \"#utility.yul\":8096:8097   */\n      dup3\n        /* \"#utility.yul\":8093:8094   */\n      dup3\n        /* \"#utility.yul\":8090:8098   */\n      lt\n        /* \"#utility.yul\":8087:8121   */\n      iszero\n      tag_237\n      jumpi\n        /* \"#utility.yul\":8101:8119   */\n      tag_238\n      tag_143\n      jump\t// in\n    tag_238:\n        /* \"#utility.yul\":8087:8121   */\n    tag_237:\n        /* \"#utility.yul\":8146:8147   */\n      dup3\n        /* \"#utility.yul\":8143:8144   */\n      dup3\n        /* \"#utility.yul\":8139:8148   */\n      sub\n        /* \"#utility.yul\":8131:8148   */\n      swap1\n      pop\n        /* \"#utility.yul\":7963:8154   */\n      swap3\n      swap2\n      pop\n      pop\n      jump\t// out\n        /* \"#utility.yul\":8160:8465   */\n    tag_91:\n        /* \"#utility.yul\":8200:8203   */\n      0x00\n        /* \"#utility.yul\":8219:8239   */\n      tag_240\n        /* \"#utility.yul\":8237:8238   */\n      dup3\n        /* \"#utility.yul\":8219:8239   */\n      tag_131\n      jump\t// in\n    tag_240:\n        /* \"#utility.yul\":8214:8239   */\n      swap2\n      pop\n        /* \"#utility.yul\":8253:8273   */\n      tag_241\n        /* \"#utility.yul\":8271:8272   */\n      dup4\n        /* \"#utility.yul\":8253:8273   */\n      tag_131\n      jump\t// in\n    tag_241:\n        /* \"#utility.yul\":8248:8273   */\n      swap3\n      pop\n        /* \"#utility.yul\":8407:8408   */\n      dup3\n        /* \"#utility.yul\":8339:8405   */\n      0xffffffffffffffffffffffffffffffffffffffffffffffffffffffffffffffff\n        /* \"#utility.yul\":8335:8409   */\n      sub\n        /* \"#utility.yul\":8332:8333   */\n      dup3\n        /* \"#utility.yul\":8329:8410   */\n      gt\n        /* \"#utility.yul\":8326:8433   */\n      iszero\n      tag_242\n      jumpi\n        /* \"#utility.yul\":8413:8431   */\n      tag_243\n      tag_143\n      jump\t// in\n    tag_243:\n        /* \"#utility.yul\":8326:8433   */\n    tag_242:\n        /* \"#utility.yul\":8457:8458   */\n      dup3\n        /* \"#utility.yul\":8454:8455   */\n      dup3\n        /* \"#utility.yul\":8450:8459   */\n      add\n        /* \"#utility.yul\":8443:8459   */\n      swap1\n      pop\n        /* \"#utility.yul\":8160:8465   */\n      swap3\n      swap2\n      pop\n      pop\n      jump\t// out\n        /* \"#utility.yul\":8471:8645   */\n    tag_148:\n        /* \"#utility.yul\":8611:8637   */\n      0x45616368204368756220636f73747320312065746865722e0000000000000000\n        /* \"#utility.yul\":8607:8608   */\n      0x00\n        /* \"#utility.yul\":8599:8605   */\n      dup3\n        /* \"#utility.yul\":8595:8609   */\n      add\n        /* \"#utility.yul\":8588:8638   */\n      mstore\n        /* \"#utility.yul\":8471:8645   */\n      pop\n      jump\t// out\n        /* \"#utility.yul\":8651:9017   */\n    tag_149:\n        /* \"#utility.yul\":8793:8796   */\n      0x00\n        /* \"#utility.yul\":8814:8881   */\n      tag_246\n        /* \"#utility.yul\":8878:8880   */\n      0x18\n        /* \"#utility.yul\":8873:8876   */\n      dup4\n        /* \"#utility.yul\":8814:8881   */\n      tag_140\n      jump\t// in\n    tag_246:\n        /* \"#utility.yul\":8807:8881   */\n      swap2\n      pop\n        /* \"#utility.yul\":8890:8983   */\n      tag_247\n        /* \"#utility.yul\":8979:8982   */\n      dup3\n        /* \"#utility.yul\":8890:8983   */\n      tag_148\n      jump\t// in\n    tag_247:\n        /* \"#utility.yul\":9008:9010   */\n      0x20\n        /* \"#utility.yul\":9003:9006   */\n      dup3\n        /* \"#utility.yul\":8999:9011   */\n      add\n        /* \"#utility.yul\":8992:9011   */\n      swap1\n      pop\n        /* \"#utility.yul\":8651:9017   */\n      swap2\n      swap1\n      pop\n      jump\t// out\n        /* \"#utility.yul\":9023:9442   */\n    tag_97:\n        /* \"#utility.yul\":9189:9193   */\n      0x00\n        /* \"#utility.yul\":9227:9229   */\n      0x20\n        /* \"#utility.yul\":9216:9225   */\n      dup3\n        /* \"#utility.yul\":9212:9230   */\n      add\n        /* \"#utility.yul\":9204:9230   */\n      swap1\n      pop\n        /* \"#utility.yul\":9276:9285   */\n      dup2\n        /* \"#utility.yul\":9270:9274   */\n      dup2\n        /* \"#utility.yul\":9266:9286   */\n      sub\n        /* \"#utility.yul\":9262:9263   */\n      0x00\n        /* \"#utility.yul\":9251:9260   */\n      dup4\n        /* \"#utility.yul\":9247:9264   */\n      add\n        /* \"#utility.yul\":9240:9287   */\n      mstore\n        /* \"#utility.yul\":9304:9435   */\n      tag_249\n        /* \"#utility.yul\":9430:9434   */\n      dup2\n        /* \"#utility.yul\":9304:9435   */\n      tag_149\n      jump\t// in\n    tag_249:\n        /* \"#utility.yul\":9296:9435   */\n      swap1\n      pop\n        /* \"#utility.yul\":9023:9442   */\n      swap2\n      swap1\n      pop\n      jump\t// out\n        /* \"#utility.yul\":9448:9684   */\n    tag_150:\n        /* \"#utility.yul\":9588:9622   */\n      0x576520646f206e6f74206861766520656e6f756768204368756220746f206675\n        /* \"#utility.yul\":9584:9585   */\n      0x00\n        /* \"#utility.yul\":9576:9582   */\n      dup3\n        /* \"#utility.yul\":9572:9586   */\n      add\n        /* \"#utility.yul\":9565:9623   */\n      mstore\n        /* \"#utility.yul\":9657:9676   */\n      0x6c66696c6c20796f7572206f726465722e000000000000000000000000000000\n        /* \"#utility.yul\":9652:9654   */\n      0x20\n        /* \"#utility.yul\":9644:9650   */\n      dup3\n        /* \"#utility.yul\":9640:9655   */\n      add\n        /* \"#utility.yul\":9633:9677   */\n      mstore\n        /* \"#utility.yul\":9448:9684   */\n      pop\n      jump\t// out\n        /* \"#utility.yul\":9690:10056   */\n    tag_151:\n        /* \"#utility.yul\":9832:9835   */\n      0x00\n        /* \"#utility.yul\":9853:9920   */\n      tag_252\n        /* \"#utility.yul\":9917:9919   */\n      0x31\n        /* \"#utility.yul\":9912:9915   */\n      dup4\n        /* \"#utility.yul\":9853:9920   */\n      tag_140\n      jump\t// in\n    tag_252:\n        /* \"#utility.yul\":9846:9920   */\n      swap2\n      pop\n        /* \"#utility.yul\":9929:10022   */\n      tag_253\n        /* \"#utility.yul\":10018:10021   */\n      dup3\n        /* \"#utility.yul\":9929:10022   */\n      tag_150\n      jump\t// in\n    tag_253:\n        /* \"#utility.yul\":10047:10049   */\n      0x40\n        /* \"#utility.yul\":10042:10045   */\n      dup3\n        /* \"#utility.yul\":10038:10050   */\n      add\n        /* \"#utility.yul\":10031:10050   */\n      swap1\n      pop\n        /* \"#utility.yul\":9690:10056   */\n      swap2\n      swap1\n      pop\n      jump\t// out\n        /* \"#utility.yul\":10062:10481   */\n    tag_100:\n        /* \"#utility.yul\":10228:10232   */\n      0x00\n        /* \"#utility.yul\":10266:10268   */\n      0x20\n        /* \"#utility.yul\":10255:10264   */\n      dup3\n        /* \"#utility.yul\":10251:10269   */\n      add\n        /* \"#utility.yul\":10243:10269   */\n      swap1\n      pop\n        /* \"#utility.yul\":10315:10324   */\n      dup2\n        /* \"#utility.yul\":10309:10313   */\n      dup2\n        /* \"#utility.yul\":10305:10325   */\n      sub\n        /* \"#utility.yul\":10301:10302   */\n      0x00\n        /* \"#utility.yul\":10290:10299   */\n      dup4\n        /* \"#utility.yul\":10286:10303   */\n      add\n        /* \"#utility.yul\":10279:10326   */\n      mstore\n        /* \"#utility.yul\":10343:10474   */\n      tag_255\n        /* \"#utility.yul\":10469:10473   */\n      dup2\n        /* \"#utility.yul\":10343:10474   */\n      tag_151\n      jump\t// in\n    tag_255:\n        /* \"#utility.yul\":10335:10474   */\n      swap1\n      pop\n        /* \"#utility.yul\":10062:10481   */\n      swap2\n      swap1\n      pop\n      jump\t// out\n        /* \"#utility.yul\":10487:10662   */\n    tag_152:\n        /* \"#utility.yul\":10627:10654   */\n      0x4561636820427265616d20636f73747320322065746865722e00000000000000\n        /* \"#utility.yul\":10623:10624   */\n      0x00\n        /* \"#utility.yul\":10615:10621   */\n      dup3\n        /* \"#utility.yul\":10611:10625   */\n      add\n        /* \"#utility.yul\":10604:10655   */\n      mstore\n        /* \"#utility.yul\":10487:10662   */\n      pop\n      jump\t// out\n        /* \"#utility.yul\":10668:11034   */\n    tag_153:\n        /* \"#utility.yul\":10810:10813   */\n      0x00\n        /* \"#utility.yul\":10831:10898   */\n      tag_258\n        /* \"#utility.yul\":10895:10897   */\n      0x19\n        /* \"#utility.yul\":10890:10893   */\n      dup4\n        /* \"#utility.yul\":10831:10898   */\n      tag_140\n      jump\t// in\n    tag_258:\n        /* \"#utility.yul\":10824:10898   */\n      swap2\n      pop\n        /* \"#utility.yul\":10907:11000   */\n      tag_259\n        /* \"#utility.yul\":10996:10999   */\n      dup3\n        /* \"#utility.yul\":10907:11000   */\n      tag_152\n      jump\t// in\n    tag_259:\n        /* \"#utility.yul\":11025:11027   */\n      0x20\n        /* \"#utility.yul\":11020:11023   */\n      dup3\n        /* \"#utility.yul\":11016:11028   */\n      add\n        /* \"#utility.yul\":11009:11028   */\n      swap1\n      pop\n        /* \"#utility.yul\":10668:11034   */\n      swap2\n      swap1\n      pop\n      jump\t// out\n        /* \"#utility.yul\":11040:11459   */\n    tag_113:\n        /* \"#utility.yul\":11206:11210   */\n      0x00\n        /* \"#utility.yul\":11244:11246   */\n      0x20\n        /* \"#utility.yul\":11233:11242   */\n      dup3\n        /* \"#utility.yul\":11229:11247   */\n      add\n        /* \"#utility.yul\":11221:11247   */\n      swap1\n      pop\n        /* \"#utility.yul\":11293:11302   */\n      dup2\n        /* \"#utility.yul\":11287:11291   */\n      dup2\n        /* \"#utility.yul\":11283:11303   */\n      sub\n        /* \"#utility.yul\":11279:11280   */\n      0x00\n        /* \"#utility.yul\":11268:11277   */\n      dup4\n        /* \"#utility.yul\":11264:11281   */\n      add\n        /* \"#utility.yul\":11257:11304   */\n      mstore\n        /* \"#utility.yul\":11321:11452   */\n      tag_261\n        /* \"#utility.yul\":11447:11451   */\n      dup2\n        /* \"#utility.yul\":11321:11452   */\n      tag_153\n      jump\t// in\n    tag_261:\n        /* \"#utility.yul\":11313:11452   */\n      swap1\n      pop\n        /* \"#utility.yul\":11040:11459   */\n      swap2\n      swap1\n      pop\n      jump\t// out\n        /* \"#utility.yul\":11465:11702   */\n    tag_154:\n        /* \"#utility.yul\":11605:11639   */\n      0x576520646f206e6f74206861766520656e6f75676820427265616d20746f2066\n        /* \"#utility.yul\":11601:11602   */\n      0x00\n        /* \"#utility.yul\":11593:11599   */\n      dup3\n        /* \"#utility.yul\":11589:11603   */\n      add\n        /* \"#utility.yul\":11582:11640   */\n      mstore\n        /* \"#utility.yul\":11674:11694   */\n      0x756c66696c6c20796f7572206f726465722e0000000000000000000000000000\n        /* \"#utility.yul\":11669:11671   */\n      0x20\n        /* \"#utility.yul\":11661:11667   */\n      dup3\n        /* \"#utility.yul\":11657:11672   */\n      add\n        /* \"#utility.yul\":11650:11695   */\n      mstore\n        /* \"#utility.yul\":11465:11702   */\n      pop\n      jump\t// out\n        /* \"#utility.yul\":11708:12074   */\n    tag_155:\n        /* \"#utility.yul\":11850:11853   */\n      0x00\n        /* \"#utility.yul\":11871:11938   */\n      tag_264\n        /* \"#utility.yul\":11935:11937   */\n      0x32\n        /* \"#utility.yul\":11930:11933   */\n      dup4\n        /* \"#utility.yul\":11871:11938   */\n      tag_140\n      jump\t// in\n    tag_264:\n        /* \"#utility.yul\":11864:11938   */\n      swap2\n      pop\n        /* \"#utility.yul\":11947:12040   */\n      tag_265\n        /* \"#utility.yul\":12036:12039   */\n      dup3\n        /* \"#utility.yul\":11947:12040   */\n      tag_154\n      jump\t// in\n    tag_265:\n        /* \"#utility.yul\":12065:12067   */\n      0x40\n        /* \"#utility.yul\":12060:12063   */\n      dup3\n        /* \"#utility.yul\":12056:12068   */\n      add\n        /* \"#utility.yul\":12049:12068   */\n      swap1\n      pop\n        /* \"#utility.yul\":11708:12074   */\n      swap2\n      swap1\n      pop\n      jump\t// out\n        /* \"#utility.yul\":12080:12499   */\n    tag_116:\n        /* \"#utility.yul\":12246:12250   */\n      0x00\n        /* \"#utility.yul\":12284:12286   */\n      0x20\n        /* \"#utility.yul\":12273:12282   */\n      dup3\n        /* \"#utility.yul\":12269:12287   */\n      add\n        /* \"#utility.yul\":12261:12287   */\n      swap1\n      pop\n        /* \"#utility.yul\":12333:12342   */\n      dup2\n        /* \"#utility.yul\":12327:12331   */\n      dup2\n        /* \"#utility.yul\":12323:12343   */\n      sub\n        /* \"#utility.yul\":12319:12320   */\n      0x00\n        /* \"#utility.yul\":12308:12317   */\n      dup4\n        /* \"#utility.yul\":12304:12321   */\n      add\n        /* \"#utility.yul\":12297:12344   */\n      mstore\n        /* \"#utility.yul\":12361:12492   */\n      tag_267\n        /* \"#utility.yul\":12487:12491   */\n      dup2\n        /* \"#utility.yul\":12361:12492   */\n      tag_155\n      jump\t// in\n    tag_267:\n        /* \"#utility.yul\":12353:12492   */\n      swap1\n      pop\n        /* \"#utility.yul\":12080:12499   */\n      swap2\n      swap1\n      pop\n      jump\t// out\n\n    auxdata: 0xa264697066735822122034948ef7b7e4844cabb144641303f97f01d21bb960647c15ead9efc8889880a464736f6c634300080b0033\n}\n",
				"bytecode": {
					"linkReferences": {},
					"object": "608060405234801561001057600080fd5b50336000806101000a81548173ffffffffffffffffffffffffffffffffffffffff021916908373ffffffffffffffffffffffffffffffffffffffff1602179055506005600260003073ffffffffffffffffffffffffffffffffffffffff1673ffffffffffffffffffffffffffffffffffffffff16815260200190815260200160002081905550600a600360003073ffffffffffffffffffffffffffffffffffffffff1673ffffffffffffffffffffffffffffffffffffffff168152602001908152602001600020819055506014600460003073ffffffffffffffffffffffffffffffffffffffff1673ffffffffffffffffffffffffffffffffffffffff168152602001908152602001600020819055506113c98061012f6000396000f3fe6080604052600436106100c25760003560e01c8063ac375a461161007f578063ddd4be0b11610059578063ddd4be0b14610226578063f142912c14610253578063fdc2a44c14610290578063ff3ba3b4146102ac576100c2565b8063ac375a46146101b6578063af4551e3146101d2578063c08aea421461020f576100c2565b806304018ed5146100c757806336da4468146101045780634824e20f1461012f5780637eee24fa14610146578063801a00ac146101625780638da5cb5b1461018b575b600080fd5b3480156100d357600080fd5b506100ee60048036038101906100e99190610d33565b6102c3565b6040516100fb9190610d79565b60405180910390f35b34801561011057600080fd5b506101196102db565b6040516101269190610db5565b60405180910390f35b34801561013b57600080fd5b50610144610301565b005b610160600480360381019061015b9190610dfc565b610447565b005b34801561016e57600080fd5b5061018960048036038101906101849190610e55565b6105ce565b005b34801561019757600080fd5b506101a0610612565b6040516101ad9190610e91565b60405180910390f35b6101d060048036038101906101cb9190610dfc565b610636565b005b3480156101de57600080fd5b506101f960048036038101906101f49190610d33565b6107bd565b6040516102069190610d79565b60405180910390f35b34801561021b57600080fd5b506102246107d5565b005b34801561023257600080fd5b5061023b61091b565b60405161024a93929190610eac565b60405180910390f35b34801561025f57600080fd5b5061027a60048036038101906102759190610d33565b6109eb565b6040516102879190610d79565b60405180910390f35b6102aa60048036038101906102a59190610dfc565b610a03565b005b3480156102b857600080fd5b506102c1610b8a565b005b60026020528060005260406000206000915090505481565b600160009054906101000a900473ffffffffffffffffffffffffffffffffffffffff1681565b60008054906101000a900473ffffffffffffffffffffffffffffffffffffffff1673ffffffffffffffffffffffffffffffffffffffff163373ffffffffffffffffffffffffffffffffffffffff161461038f576040517f08c379a000000000000000000000000000000000000000000000000000000000815260040161038690610f66565b60405180910390fd5b600160009054906101000a900473ffffffffffffffffffffffffffffffffffffffff1673ffffffffffffffffffffffffffffffffffffffff166108fc674563918244f400009081150290604051600060405180830381858888f193505050501580156103ff573d6000803e3d6000fd5b506005600260003073ffffffffffffffffffffffffffffffffffffffff1673ffffffffffffffffffffffffffffffffffffffff16815260200190815260200160002081905550565b6729a2241af62c00008161045b9190610fb5565b34101561049d576040517f08c379a00000000000000000000000000000000000000000000000000000000081526004016104949061105b565b60405180910390fd5b80600260003073ffffffffffffffffffffffffffffffffffffffff1673ffffffffffffffffffffffffffffffffffffffff16815260200190815260200160002054101561051f576040517f08c379a0000000000000000000000000000000000000000000000000000000008152600401610516906110ed565b60405180910390fd5b80600260003073ffffffffffffffffffffffffffffffffffffffff1673ffffffffffffffffffffffffffffffffffffffff168152602001908152602001600020600082825461056e919061110d565b9250508190555080600260003373ffffffffffffffffffffffffffffffffffffffff1673ffffffffffffffffffffffffffffffffffffffff16815260200190815260200160002060008282546105c49190611141565b9250508190555050565b80600160006101000a81548173ffffffffffffffffffffffffffffffffffffffff021916908373ffffffffffffffffffffffffffffffffffffffff16021790555050565b60008054906101000a900473ffffffffffffffffffffffffffffffffffffffff1681565b6729a2241af62c00008161064a9190610fb5565b34101561068c576040517f08c379a0000000000000000000000000000000000000000000000000000000008152600401610683906111e3565b60405180910390fd5b80600460003073ffffffffffffffffffffffffffffffffffffffff1673ffffffffffffffffffffffffffffffffffffffff16815260200190815260200160002054101561070e576040517f08c379a000000000000000000000000000000000000000000000000000000000815260040161070590611275565b60405180910390fd5b80600460003073ffffffffffffffffffffffffffffffffffffffff1673ffffffffffffffffffffffffffffffffffffffff168152602001908152602001600020600082825461075d919061110d565b9250508190555080600460003373ffffffffffffffffffffffffffffffffffffffff1673ffffffffffffffffffffffffffffffffffffffff16815260200190815260200160002060008282546107b39190611141565b9250508190555050565b60036020528060005260406000206000915090505481565b600160009054906101000a900473ffffffffffffffffffffffffffffffffffffffff1673ffffffffffffffffffffffffffffffffffffffff166108fc674563918244f400009081150290604051600060405180830381858888f19350505050158015610845573d6000803e3d6000fd5b5060008054906101000a900473ffffffffffffffffffffffffffffffffffffffff1673ffffffffffffffffffffffffffffffffffffffff163373ffffffffffffffffffffffffffffffffffffffff16146108d4576040517f08c379a00000000000000000000000000000000000000000000000000000000081526004016108cb90610f66565b60405180910390fd5b600a600360003073ffffffffffffffffffffffffffffffffffffffff1673ffffffffffffffffffffffffffffffffffffffff16815260200190815260200160002081905550565b6000806000600260003073ffffffffffffffffffffffffffffffffffffffff1673ffffffffffffffffffffffffffffffffffffffff16815260200190815260200160002054600360003073ffffffffffffffffffffffffffffffffffffffff1673ffffffffffffffffffffffffffffffffffffffff16815260200190815260200160002054600460003073ffffffffffffffffffffffffffffffffffffffff1673ffffffffffffffffffffffffffffffffffffffff16815260200190815260200160002054925092509250909192565b60046020528060005260406000206000915090505481565b6729a2241af62c000081610a179190610fb5565b341015610a59576040517f08c379a0000000000000000000000000000000000000000000000000000000008152600401610a50906112e1565b60405180910390fd5b80600360003073ffffffffffffffffffffffffffffffffffffffff1673ffffffffffffffffffffffffffffffffffffffff168152602001908152602001600020541015610adb576040517f08c379a0000000000000000000000000000000000000000000000000000000008152600401610ad290611373565b60405180910390fd5b80600360003073ffffffffffffffffffffffffffffffffffffffff1673ffffffffffffffffffffffffffffffffffffffff1681526020019081526020016000206000828254610b2a919061110d565b9250508190555080600360003373ffffffffffffffffffffffffffffffffffffffff1673ffffffffffffffffffffffffffffffffffffffff1681526020019081526020016000206000828254610b809190611141565b9250508190555050565b600160009054906101000a900473ffffffffffffffffffffffffffffffffffffffff1673ffffffffffffffffffffffffffffffffffffffff166108fc674563918244f400009081150290604051600060405180830381858888f19350505050158015610bfa573d6000803e3d6000fd5b5060008054906101000a900473ffffffffffffffffffffffffffffffffffffffff1673ffffffffffffffffffffffffffffffffffffffff163373ffffffffffffffffffffffffffffffffffffffff1614610c89576040517f08c379a0000000000000000000000000000000000000000000000000000000008152600401610c8090610f66565b60405180910390fd5b6014600460003073ffffffffffffffffffffffffffffffffffffffff1673ffffffffffffffffffffffffffffffffffffffff16815260200190815260200160002081905550565b600080fd5b600073ffffffffffffffffffffffffffffffffffffffff82169050919050565b6000610d0082610cd5565b9050919050565b610d1081610cf5565b8114610d1b57600080fd5b50565b600081359050610d2d81610d07565b92915050565b600060208284031215610d4957610d48610cd0565b5b6000610d5784828501610d1e565b91505092915050565b6000819050919050565b610d7381610d60565b82525050565b6000602082019050610d8e6000830184610d6a565b92915050565b6000610d9f82610cd5565b9050919050565b610daf81610d94565b82525050565b6000602082019050610dca6000830184610da6565b92915050565b610dd981610d60565b8114610de457600080fd5b50565b600081359050610df681610dd0565b92915050565b600060208284031215610e1257610e11610cd0565b5b6000610e2084828501610de7565b91505092915050565b610e3281610d94565b8114610e3d57600080fd5b50565b600081359050610e4f81610e29565b92915050565b600060208284031215610e6b57610e6a610cd0565b5b6000610e7984828501610e40565b91505092915050565b610e8b81610cf5565b82525050565b6000602082019050610ea66000830184610e82565b92915050565b6000606082019050610ec16000830186610d6a565b610ece6020830185610d6a565b610edb6040830184610d6a565b949350505050565b600082825260208201905092915050565b7f4f6e6c7920746865206f776e6572206f6620746869732066697368206d61636860008201527f696e652063616e20726573746f636b2069742e00000000000000000000000000602082015250565b6000610f50603383610ee3565b9150610f5b82610ef4565b604082019050919050565b60006020820190508181036000830152610f7f81610f43565b9050919050565b7f4e487b7100000000000000000000000000000000000000000000000000000000600052601160045260246000fd5b6000610fc082610d60565b9150610fcb83610d60565b9250817fffffffffffffffffffffffffffffffffffffffffffffffffffffffffffffffff048311821515161561100457611003610f86565b5b828202905092915050565b7f456163682041686920636f73747320332065746865722e000000000000000000600082015250565b6000611045601783610ee3565b91506110508261100f565b602082019050919050565b6000602082019050818103600083015261107481611038565b9050919050565b7f576520646f206e6f74206861766520656e6f7567682041686920746f2066756c60008201527f66696c6c20796f7572206f726465722e00000000000000000000000000000000602082015250565b60006110d7603083610ee3565b91506110e28261107b565b604082019050919050565b60006020820190508181036000830152611106816110ca565b9050919050565b600061111882610d60565b915061112383610d60565b92508282101561113657611135610f86565b5b828203905092915050565b600061114c82610d60565b915061115783610d60565b9250827fffffffffffffffffffffffffffffffffffffffffffffffffffffffffffffffff0382111561118c5761118b610f86565b5b828201905092915050565b7f45616368204368756220636f73747320312065746865722e0000000000000000600082015250565b60006111cd601883610ee3565b91506111d882611197565b602082019050919050565b600060208201905081810360008301526111fc816111c0565b9050919050565b7f576520646f206e6f74206861766520656e6f756768204368756220746f20667560008201527f6c66696c6c20796f7572206f726465722e000000000000000000000000000000602082015250565b600061125f603183610ee3565b915061126a82611203565b604082019050919050565b6000602082019050818103600083015261128e81611252565b9050919050565b7f4561636820427265616d20636f73747320322065746865722e00000000000000600082015250565b60006112cb601983610ee3565b91506112d682611295565b602082019050919050565b600060208201905081810360008301526112fa816112be565b9050919050565b7f576520646f206e6f74206861766520656e6f75676820427265616d20746f206660008201527f756c66696c6c20796f7572206f726465722e0000000000000000000000000000602082015250565b600061135d603283610ee3565b915061136882611301565b604082019050919050565b6000602082019050818103600083015261138c81611350565b905091905056fea264697066735822122034948ef7b7e4844cabb144641303f97f01d21bb960647c15ead9efc8889880a464736f6c634300080b0033",
					"opcodes": "PUSH1 0x80 PUSH1 0x40 MSTORE CALLVALUE DUP1 ISZERO PUSH2 0x10 JUMPI PUSH1 0x0 DUP1 REVERT JUMPDEST POP CALLER PUSH1 0x0 DUP1 PUSH2 0x100 EXP DUP2 SLOAD DUP2 PUSH20 0xFFFFFFFFFFFFFFFFFFFFFFFFFFFFFFFFFFFFFFFF MUL NOT AND SWAP1 DUP4 PUSH20 0xFFFFFFFFFFFFFFFFFFFFFFFFFFFFFFFFFFFFFFFF AND MUL OR SWAP1 SSTORE POP PUSH1 0x5 PUSH1 0x2 PUSH1 0x0 ADDRESS PUSH20 0xFFFFFFFFFFFFFFFFFFFFFFFFFFFFFFFFFFFFFFFF AND PUSH20 0xFFFFFFFFFFFFFFFFFFFFFFFFFFFFFFFFFFFFFFFF AND DUP2 MSTORE PUSH1 0x20 ADD SWAP1 DUP2 MSTORE PUSH1 0x20 ADD PUSH1 0x0 KECCAK256 DUP2 SWAP1 SSTORE POP PUSH1 0xA PUSH1 0x3 PUSH1 0x0 ADDRESS PUSH20 0xFFFFFFFFFFFFFFFFFFFFFFFFFFFFFFFFFFFFFFFF AND PUSH20 0xFFFFFFFFFFFFFFFFFFFFFFFFFFFFFFFFFFFFFFFF AND DUP2 MSTORE PUSH1 0x20 ADD SWAP1 DUP2 MSTORE PUSH1 0x20 ADD PUSH1 0x0 KECCAK256 DUP2 SWAP1 SSTORE POP PUSH1 0x14 PUSH1 0x4 PUSH1 0x0 ADDRESS PUSH20 0xFFFFFFFFFFFFFFFFFFFFFFFFFFFFFFFFFFFFFFFF AND PUSH20 0xFFFFFFFFFFFFFFFFFFFFFFFFFFFFFFFFFFFFFFFF AND DUP2 MSTORE PUSH1 0x20 ADD SWAP1 DUP2 MSTORE PUSH1 0x20 ADD PUSH1 0x0 KECCAK256 DUP2 SWAP1 SSTORE POP PUSH2 0x13C9 DUP1 PUSH2 0x12F PUSH1 0x0 CODECOPY PUSH1 0x0 RETURN INVALID PUSH1 0x80 PUSH1 0x40 MSTORE PUSH1 0x4 CALLDATASIZE LT PUSH2 0xC2 JUMPI PUSH1 0x0 CALLDATALOAD PUSH1 0xE0 SHR DUP1 PUSH4 0xAC375A46 GT PUSH2 0x7F JUMPI DUP1 PUSH4 0xDDD4BE0B GT PUSH2 0x59 JUMPI DUP1 PUSH4 0xDDD4BE0B EQ PUSH2 0x226 JUMPI DUP1 PUSH4 0xF142912C EQ PUSH2 0x253 JUMPI DUP1 PUSH4 0xFDC2A44C EQ PUSH2 0x290 JUMPI DUP1 PUSH4 0xFF3BA3B4 EQ PUSH2 0x2AC JUMPI PUSH2 0xC2 JUMP JUMPDEST DUP1 PUSH4 0xAC375A46 EQ PUSH2 0x1B6 JUMPI DUP1 PUSH4 0xAF4551E3 EQ PUSH2 0x1D2 JUMPI DUP1 PUSH4 0xC08AEA42 EQ PUSH2 0x20F JUMPI PUSH2 0xC2 JUMP JUMPDEST DUP1 PUSH4 0x4018ED5 EQ PUSH2 0xC7 JUMPI DUP1 PUSH4 0x36DA4468 EQ PUSH2 0x104 JUMPI DUP1 PUSH4 0x4824E20F EQ PUSH2 0x12F JUMPI DUP1 PUSH4 0x7EEE24FA EQ PUSH2 0x146 JUMPI DUP1 PUSH4 0x801A00AC EQ PUSH2 0x162 JUMPI DUP1 PUSH4 0x8DA5CB5B EQ PUSH2 0x18B JUMPI JUMPDEST PUSH1 0x0 DUP1 REVERT JUMPDEST CALLVALUE DUP1 ISZERO PUSH2 0xD3 JUMPI PUSH1 0x0 DUP1 REVERT JUMPDEST POP PUSH2 0xEE PUSH1 0x4 DUP1 CALLDATASIZE SUB DUP2 ADD SWAP1 PUSH2 0xE9 SWAP2 SWAP1 PUSH2 0xD33 JUMP JUMPDEST PUSH2 0x2C3 JUMP JUMPDEST PUSH1 0x40 MLOAD PUSH2 0xFB SWAP2 SWAP1 PUSH2 0xD79 JUMP JUMPDEST PUSH1 0x40 MLOAD DUP1 SWAP2 SUB SWAP1 RETURN JUMPDEST CALLVALUE DUP1 ISZERO PUSH2 0x110 JUMPI PUSH1 0x0 DUP1 REVERT JUMPDEST POP PUSH2 0x119 PUSH2 0x2DB JUMP JUMPDEST PUSH1 0x40 MLOAD PUSH2 0x126 SWAP2 SWAP1 PUSH2 0xDB5 JUMP JUMPDEST PUSH1 0x40 MLOAD DUP1 SWAP2 SUB SWAP1 RETURN JUMPDEST CALLVALUE DUP1 ISZERO PUSH2 0x13B JUMPI PUSH1 0x0 DUP1 REVERT JUMPDEST POP PUSH2 0x144 PUSH2 0x301 JUMP JUMPDEST STOP JUMPDEST PUSH2 0x160 PUSH1 0x4 DUP1 CALLDATASIZE SUB DUP2 ADD SWAP1 PUSH2 0x15B SWAP2 SWAP1 PUSH2 0xDFC JUMP JUMPDEST PUSH2 0x447 JUMP JUMPDEST STOP JUMPDEST CALLVALUE DUP1 ISZERO PUSH2 0x16E JUMPI PUSH1 0x0 DUP1 REVERT JUMPDEST POP PUSH2 0x189 PUSH1 0x4 DUP1 CALLDATASIZE SUB DUP2 ADD SWAP1 PUSH2 0x184 SWAP2 SWAP1 PUSH2 0xE55 JUMP JUMPDEST PUSH2 0x5CE JUMP JUMPDEST STOP JUMPDEST CALLVALUE DUP1 ISZERO PUSH2 0x197 JUMPI PUSH1 0x0 DUP1 REVERT JUMPDEST POP PUSH2 0x1A0 PUSH2 0x612 JUMP JUMPDEST PUSH1 0x40 MLOAD PUSH2 0x1AD SWAP2 SWAP1 PUSH2 0xE91 JUMP JUMPDEST PUSH1 0x40 MLOAD DUP1 SWAP2 SUB SWAP1 RETURN JUMPDEST PUSH2 0x1D0 PUSH1 0x4 DUP1 CALLDATASIZE SUB DUP2 ADD SWAP1 PUSH2 0x1CB SWAP2 SWAP1 PUSH2 0xDFC JUMP JUMPDEST PUSH2 0x636 JUMP JUMPDEST STOP JUMPDEST CALLVALUE DUP1 ISZERO PUSH2 0x1DE JUMPI PUSH1 0x0 DUP1 REVERT JUMPDEST POP PUSH2 0x1F9 PUSH1 0x4 DUP1 CALLDATASIZE SUB DUP2 ADD SWAP1 PUSH2 0x1F4 SWAP2 SWAP1 PUSH2 0xD33 JUMP JUMPDEST PUSH2 0x7BD JUMP JUMPDEST PUSH1 0x40 MLOAD PUSH2 0x206 SWAP2 SWAP1 PUSH2 0xD79 JUMP JUMPDEST PUSH1 0x40 MLOAD DUP1 SWAP2 SUB SWAP1 RETURN JUMPDEST CALLVALUE DUP1 ISZERO PUSH2 0x21B JUMPI PUSH1 0x0 DUP1 REVERT JUMPDEST POP PUSH2 0x224 PUSH2 0x7D5 JUMP JUMPDEST STOP JUMPDEST CALLVALUE DUP1 ISZERO PUSH2 0x232 JUMPI PUSH1 0x0 DUP1 REVERT JUMPDEST POP PUSH2 0x23B PUSH2 0x91B JUMP JUMPDEST PUSH1 0x40 MLOAD PUSH2 0x24A SWAP4 SWAP3 SWAP2 SWAP1 PUSH2 0xEAC JUMP JUMPDEST PUSH1 0x40 MLOAD DUP1 SWAP2 SUB SWAP1 RETURN JUMPDEST CALLVALUE DUP1 ISZERO PUSH2 0x25F JUMPI PUSH1 0x0 DUP1 REVERT JUMPDEST POP PUSH2 0x27A PUSH1 0x4 DUP1 CALLDATASIZE SUB DUP2 ADD SWAP1 PUSH2 0x275 SWAP2 SWAP1 PUSH2 0xD33 JUMP JUMPDEST PUSH2 0x9EB JUMP JUMPDEST PUSH1 0x40 MLOAD PUSH2 0x287 SWAP2 SWAP1 PUSH2 0xD79 JUMP JUMPDEST PUSH1 0x40 MLOAD DUP1 SWAP2 SUB SWAP1 RETURN JUMPDEST PUSH2 0x2AA PUSH1 0x4 DUP1 CALLDATASIZE SUB DUP2 ADD SWAP1 PUSH2 0x2A5 SWAP2 SWAP1 PUSH2 0xDFC JUMP JUMPDEST PUSH2 0xA03 JUMP JUMPDEST STOP JUMPDEST CALLVALUE DUP1 ISZERO PUSH2 0x2B8 JUMPI PUSH1 0x0 DUP1 REVERT JUMPDEST POP PUSH2 0x2C1 PUSH2 0xB8A JUMP JUMPDEST STOP JUMPDEST PUSH1 0x2 PUSH1 0x20 MSTORE DUP1 PUSH1 0x0 MSTORE PUSH1 0x40 PUSH1 0x0 KECCAK256 PUSH1 0x0 SWAP2 POP SWAP1 POP SLOAD DUP2 JUMP JUMPDEST PUSH1 0x1 PUSH1 0x0 SWAP1 SLOAD SWAP1 PUSH2 0x100 EXP SWAP1 DIV PUSH20 0xFFFFFFFFFFFFFFFFFFFFFFFFFFFFFFFFFFFFFFFF AND DUP2 JUMP JUMPDEST PUSH1 0x0 DUP1 SLOAD SWAP1 PUSH2 0x100 EXP SWAP1 DIV PUSH20 0xFFFFFFFFFFFFFFFFFFFFFFFFFFFFFFFFFFFFFFFF AND PUSH20 0xFFFFFFFFFFFFFFFFFFFFFFFFFFFFFFFFFFFFFFFF AND CALLER PUSH20 0xFFFFFFFFFFFFFFFFFFFFFFFFFFFFFFFFFFFFFFFF AND EQ PUSH2 0x38F JUMPI PUSH1 0x40 MLOAD PUSH32 0x8C379A000000000000000000000000000000000000000000000000000000000 DUP2 MSTORE PUSH1 0x4 ADD PUSH2 0x386 SWAP1 PUSH2 0xF66 JUMP JUMPDEST PUSH1 0x40 MLOAD DUP1 SWAP2 SUB SWAP1 REVERT JUMPDEST PUSH1 0x1 PUSH1 0x0 SWAP1 SLOAD SWAP1 PUSH2 0x100 EXP SWAP1 DIV PUSH20 0xFFFFFFFFFFFFFFFFFFFFFFFFFFFFFFFFFFFFFFFF AND PUSH20 0xFFFFFFFFFFFFFFFFFFFFFFFFFFFFFFFFFFFFFFFF AND PUSH2 0x8FC PUSH8 0x4563918244F40000 SWAP1 DUP2 ISZERO MUL SWAP1 PUSH1 0x40 MLOAD PUSH1 0x0 PUSH1 0x40 MLOAD DUP1 DUP4 SUB DUP2 DUP6 DUP9 DUP9 CALL SWAP4 POP POP POP POP ISZERO DUP1 ISZERO PUSH2 0x3FF JUMPI RETURNDATASIZE PUSH1 0x0 DUP1 RETURNDATACOPY RETURNDATASIZE PUSH1 0x0 REVERT JUMPDEST POP PUSH1 0x5 PUSH1 0x2 PUSH1 0x0 ADDRESS PUSH20 0xFFFFFFFFFFFFFFFFFFFFFFFFFFFFFFFFFFFFFFFF AND PUSH20 0xFFFFFFFFFFFFFFFFFFFFFFFFFFFFFFFFFFFFFFFF AND DUP2 MSTORE PUSH1 0x20 ADD SWAP1 DUP2 MSTORE PUSH1 0x20 ADD PUSH1 0x0 KECCAK256 DUP2 SWAP1 SSTORE POP JUMP JUMPDEST PUSH8 0x29A2241AF62C0000 DUP2 PUSH2 0x45B SWAP2 SWAP1 PUSH2 0xFB5 JUMP JUMPDEST CALLVALUE LT ISZERO PUSH2 0x49D JUMPI PUSH1 0x40 MLOAD PUSH32 0x8C379A000000000000000000000000000000000000000000000000000000000 DUP2 MSTORE PUSH1 0x4 ADD PUSH2 0x494 SWAP1 PUSH2 0x105B JUMP JUMPDEST PUSH1 0x40 MLOAD DUP1 SWAP2 SUB SWAP1 REVERT JUMPDEST DUP1 PUSH1 0x2 PUSH1 0x0 ADDRESS PUSH20 0xFFFFFFFFFFFFFFFFFFFFFFFFFFFFFFFFFFFFFFFF AND PUSH20 0xFFFFFFFFFFFFFFFFFFFFFFFFFFFFFFFFFFFFFFFF AND DUP2 MSTORE PUSH1 0x20 ADD SWAP1 DUP2 MSTORE PUSH1 0x20 ADD PUSH1 0x0 KECCAK256 SLOAD LT ISZERO PUSH2 0x51F JUMPI PUSH1 0x40 MLOAD PUSH32 0x8C379A000000000000000000000000000000000000000000000000000000000 DUP2 MSTORE PUSH1 0x4 ADD PUSH2 0x516 SWAP1 PUSH2 0x10ED JUMP JUMPDEST PUSH1 0x40 MLOAD DUP1 SWAP2 SUB SWAP1 REVERT JUMPDEST DUP1 PUSH1 0x2 PUSH1 0x0 ADDRESS PUSH20 0xFFFFFFFFFFFFFFFFFFFFFFFFFFFFFFFFFFFFFFFF AND PUSH20 0xFFFFFFFFFFFFFFFFFFFFFFFFFFFFFFFFFFFFFFFF AND DUP2 MSTORE PUSH1 0x20 ADD SWAP1 DUP2 MSTORE PUSH1 0x20 ADD PUSH1 0x0 KECCAK256 PUSH1 0x0 DUP3 DUP3 SLOAD PUSH2 0x56E SWAP2 SWAP1 PUSH2 0x110D JUMP JUMPDEST SWAP3 POP POP DUP2 SWAP1 SSTORE POP DUP1 PUSH1 0x2 PUSH1 0x0 CALLER PUSH20 0xFFFFFFFFFFFFFFFFFFFFFFFFFFFFFFFFFFFFFFFF AND PUSH20 0xFFFFFFFFFFFFFFFFFFFFFFFFFFFFFFFFFFFFFFFF AND DUP2 MSTORE PUSH1 0x20 ADD SWAP1 DUP2 MSTORE PUSH1 0x20 ADD PUSH1 0x0 KECCAK256 PUSH1 0x0 DUP3 DUP3 SLOAD PUSH2 0x5C4 SWAP2 SWAP1 PUSH2 0x1141 JUMP JUMPDEST SWAP3 POP POP DUP2 SWAP1 SSTORE POP POP JUMP JUMPDEST DUP1 PUSH1 0x1 PUSH1 0x0 PUSH2 0x100 EXP DUP2 SLOAD DUP2 PUSH20 0xFFFFFFFFFFFFFFFFFFFFFFFFFFFFFFFFFFFFFFFF MUL NOT AND SWAP1 DUP4 PUSH20 0xFFFFFFFFFFFFFFFFFFFFFFFFFFFFFFFFFFFFFFFF AND MUL OR SWAP1 SSTORE POP POP JUMP JUMPDEST PUSH1 0x0 DUP1 SLOAD SWAP1 PUSH2 0x100 EXP SWAP1 DIV PUSH20 0xFFFFFFFFFFFFFFFFFFFFFFFFFFFFFFFFFFFFFFFF AND DUP2 JUMP JUMPDEST PUSH8 0x29A2241AF62C0000 DUP2 PUSH2 0x64A SWAP2 SWAP1 PUSH2 0xFB5 JUMP JUMPDEST CALLVALUE LT ISZERO PUSH2 0x68C JUMPI PUSH1 0x40 MLOAD PUSH32 0x8C379A000000000000000000000000000000000000000000000000000000000 DUP2 MSTORE PUSH1 0x4 ADD PUSH2 0x683 SWAP1 PUSH2 0x11E3 JUMP JUMPDEST PUSH1 0x40 MLOAD DUP1 SWAP2 SUB SWAP1 REVERT JUMPDEST DUP1 PUSH1 0x4 PUSH1 0x0 ADDRESS PUSH20 0xFFFFFFFFFFFFFFFFFFFFFFFFFFFFFFFFFFFFFFFF AND PUSH20 0xFFFFFFFFFFFFFFFFFFFFFFFFFFFFFFFFFFFFFFFF AND DUP2 MSTORE PUSH1 0x20 ADD SWAP1 DUP2 MSTORE PUSH1 0x20 ADD PUSH1 0x0 KECCAK256 SLOAD LT ISZERO PUSH2 0x70E JUMPI PUSH1 0x40 MLOAD PUSH32 0x8C379A000000000000000000000000000000000000000000000000000000000 DUP2 MSTORE PUSH1 0x4 ADD PUSH2 0x705 SWAP1 PUSH2 0x1275 JUMP JUMPDEST PUSH1 0x40 MLOAD DUP1 SWAP2 SUB SWAP1 REVERT JUMPDEST DUP1 PUSH1 0x4 PUSH1 0x0 ADDRESS PUSH20 0xFFFFFFFFFFFFFFFFFFFFFFFFFFFFFFFFFFFFFFFF AND PUSH20 0xFFFFFFFFFFFFFFFFFFFFFFFFFFFFFFFFFFFFFFFF AND DUP2 MSTORE PUSH1 0x20 ADD SWAP1 DUP2 MSTORE PUSH1 0x20 ADD PUSH1 0x0 KECCAK256 PUSH1 0x0 DUP3 DUP3 SLOAD PUSH2 0x75D SWAP2 SWAP1 PUSH2 0x110D JUMP JUMPDEST SWAP3 POP POP DUP2 SWAP1 SSTORE POP DUP1 PUSH1 0x4 PUSH1 0x0 CALLER PUSH20 0xFFFFFFFFFFFFFFFFFFFFFFFFFFFFFFFFFFFFFFFF AND PUSH20 0xFFFFFFFFFFFFFFFFFFFFFFFFFFFFFFFFFFFFFFFF AND DUP2 MSTORE PUSH1 0x20 ADD SWAP1 DUP2 MSTORE PUSH1 0x20 ADD PUSH1 0x0 KECCAK256 PUSH1 0x0 DUP3 DUP3 SLOAD PUSH2 0x7B3 SWAP2 SWAP1 PUSH2 0x1141 JUMP JUMPDEST SWAP3 POP POP DUP2 SWAP1 SSTORE POP POP JUMP JUMPDEST PUSH1 0x3 PUSH1 0x20 MSTORE DUP1 PUSH1 0x0 MSTORE PUSH1 0x40 PUSH1 0x0 KECCAK256 PUSH1 0x0 SWAP2 POP SWAP1 POP SLOAD DUP2 JUMP JUMPDEST PUSH1 0x1 PUSH1 0x0 SWAP1 SLOAD SWAP1 PUSH2 0x100 EXP SWAP1 DIV PUSH20 0xFFFFFFFFFFFFFFFFFFFFFFFFFFFFFFFFFFFFFFFF AND PUSH20 0xFFFFFFFFFFFFFFFFFFFFFFFFFFFFFFFFFFFFFFFF AND PUSH2 0x8FC PUSH8 0x4563918244F40000 SWAP1 DUP2 ISZERO MUL SWAP1 PUSH1 0x40 MLOAD PUSH1 0x0 PUSH1 0x40 MLOAD DUP1 DUP4 SUB DUP2 DUP6 DUP9 DUP9 CALL SWAP4 POP POP POP POP ISZERO DUP1 ISZERO PUSH2 0x845 JUMPI RETURNDATASIZE PUSH1 0x0 DUP1 RETURNDATACOPY RETURNDATASIZE PUSH1 0x0 REVERT JUMPDEST POP PUSH1 0x0 DUP1 SLOAD SWAP1 PUSH2 0x100 EXP SWAP1 DIV PUSH20 0xFFFFFFFFFFFFFFFFFFFFFFFFFFFFFFFFFFFFFFFF AND PUSH20 0xFFFFFFFFFFFFFFFFFFFFFFFFFFFFFFFFFFFFFFFF AND CALLER PUSH20 0xFFFFFFFFFFFFFFFFFFFFFFFFFFFFFFFFFFFFFFFF AND EQ PUSH2 0x8D4 JUMPI PUSH1 0x40 MLOAD PUSH32 0x8C379A000000000000000000000000000000000000000000000000000000000 DUP2 MSTORE PUSH1 0x4 ADD PUSH2 0x8CB SWAP1 PUSH2 0xF66 JUMP JUMPDEST PUSH1 0x40 MLOAD DUP1 SWAP2 SUB SWAP1 REVERT JUMPDEST PUSH1 0xA PUSH1 0x3 PUSH1 0x0 ADDRESS PUSH20 0xFFFFFFFFFFFFFFFFFFFFFFFFFFFFFFFFFFFFFFFF AND PUSH20 0xFFFFFFFFFFFFFFFFFFFFFFFFFFFFFFFFFFFFFFFF AND DUP2 MSTORE PUSH1 0x20 ADD SWAP1 DUP2 MSTORE PUSH1 0x20 ADD PUSH1 0x0 KECCAK256 DUP2 SWAP1 SSTORE POP JUMP JUMPDEST PUSH1 0x0 DUP1 PUSH1 0x0 PUSH1 0x2 PUSH1 0x0 ADDRESS PUSH20 0xFFFFFFFFFFFFFFFFFFFFFFFFFFFFFFFFFFFFFFFF AND PUSH20 0xFFFFFFFFFFFFFFFFFFFFFFFFFFFFFFFFFFFFFFFF AND DUP2 MSTORE PUSH1 0x20 ADD SWAP1 DUP2 MSTORE PUSH1 0x20 ADD PUSH1 0x0 KECCAK256 SLOAD PUSH1 0x3 PUSH1 0x0 ADDRESS PUSH20 0xFFFFFFFFFFFFFFFFFFFFFFFFFFFFFFFFFFFFFFFF AND PUSH20 0xFFFFFFFFFFFFFFFFFFFFFFFFFFFFFFFFFFFFFFFF AND DUP2 MSTORE PUSH1 0x20 ADD SWAP1 DUP2 MSTORE PUSH1 0x20 ADD PUSH1 0x0 KECCAK256 SLOAD PUSH1 0x4 PUSH1 0x0 ADDRESS PUSH20 0xFFFFFFFFFFFFFFFFFFFFFFFFFFFFFFFFFFFFFFFF AND PUSH20 0xFFFFFFFFFFFFFFFFFFFFFFFFFFFFFFFFFFFFFFFF AND DUP2 MSTORE PUSH1 0x20 ADD SWAP1 DUP2 MSTORE PUSH1 0x20 ADD PUSH1 0x0 KECCAK256 SLOAD SWAP3 POP SWAP3 POP SWAP3 POP SWAP1 SWAP2 SWAP3 JUMP JUMPDEST PUSH1 0x4 PUSH1 0x20 MSTORE DUP1 PUSH1 0x0 MSTORE PUSH1 0x40 PUSH1 0x0 KECCAK256 PUSH1 0x0 SWAP2 POP SWAP1 POP SLOAD DUP2 JUMP JUMPDEST PUSH8 0x29A2241AF62C0000 DUP2 PUSH2 0xA17 SWAP2 SWAP1 PUSH2 0xFB5 JUMP JUMPDEST CALLVALUE LT ISZERO PUSH2 0xA59 JUMPI PUSH1 0x40 MLOAD PUSH32 0x8C379A000000000000000000000000000000000000000000000000000000000 DUP2 MSTORE PUSH1 0x4 ADD PUSH2 0xA50 SWAP1 PUSH2 0x12E1 JUMP JUMPDEST PUSH1 0x40 MLOAD DUP1 SWAP2 SUB SWAP1 REVERT JUMPDEST DUP1 PUSH1 0x3 PUSH1 0x0 ADDRESS PUSH20 0xFFFFFFFFFFFFFFFFFFFFFFFFFFFFFFFFFFFFFFFF AND PUSH20 0xFFFFFFFFFFFFFFFFFFFFFFFFFFFFFFFFFFFFFFFF AND DUP2 MSTORE PUSH1 0x20 ADD SWAP1 DUP2 MSTORE PUSH1 0x20 ADD PUSH1 0x0 KECCAK256 SLOAD LT ISZERO PUSH2 0xADB JUMPI PUSH1 0x40 MLOAD PUSH32 0x8C379A000000000000000000000000000000000000000000000000000000000 DUP2 MSTORE PUSH1 0x4 ADD PUSH2 0xAD2 SWAP1 PUSH2 0x1373 JUMP JUMPDEST PUSH1 0x40 MLOAD DUP1 SWAP2 SUB SWAP1 REVERT JUMPDEST DUP1 PUSH1 0x3 PUSH1 0x0 ADDRESS PUSH20 0xFFFFFFFFFFFFFFFFFFFFFFFFFFFFFFFFFFFFFFFF AND PUSH20 0xFFFFFFFFFFFFFFFFFFFFFFFFFFFFFFFFFFFFFFFF AND DUP2 MSTORE PUSH1 0x20 ADD SWAP1 DUP2 MSTORE PUSH1 0x20 ADD PUSH1 0x0 KECCAK256 PUSH1 0x0 DUP3 DUP3 SLOAD PUSH2 0xB2A SWAP2 SWAP1 PUSH2 0x110D JUMP JUMPDEST SWAP3 POP POP DUP2 SWAP1 SSTORE POP DUP1 PUSH1 0x3 PUSH1 0x0 CALLER PUSH20 0xFFFFFFFFFFFFFFFFFFFFFFFFFFFFFFFFFFFFFFFF AND PUSH20 0xFFFFFFFFFFFFFFFFFFFFFFFFFFFFFFFFFFFFFFFF AND DUP2 MSTORE PUSH1 0x20 ADD SWAP1 DUP2 MSTORE PUSH1 0x20 ADD PUSH1 0x0 KECCAK256 PUSH1 0x0 DUP3 DUP3 SLOAD PUSH2 0xB80 SWAP2 SWAP1 PUSH2 0x1141 JUMP JUMPDEST SWAP3 POP POP DUP2 SWAP1 SSTORE POP POP JUMP JUMPDEST PUSH1 0x1 PUSH1 0x0 SWAP1 SLOAD SWAP1 PUSH2 0x100 EXP SWAP1 DIV PUSH20 0xFFFFFFFFFFFFFFFFFFFFFFFFFFFFFFFFFFFFFFFF AND PUSH20 0xFFFFFFFFFFFFFFFFFFFFFFFFFFFFFFFFFFFFFFFF AND PUSH2 0x8FC PUSH8 0x4563918244F40000 SWAP1 DUP2 ISZERO MUL SWAP1 PUSH1 0x40 MLOAD PUSH1 0x0 PUSH1 0x40 MLOAD DUP1 DUP4 SUB DUP2 DUP6 DUP9 DUP9 CALL SWAP4 POP POP POP POP ISZERO DUP1 ISZERO PUSH2 0xBFA JUMPI RETURNDATASIZE PUSH1 0x0 DUP1 RETURNDATACOPY RETURNDATASIZE PUSH1 0x0 REVERT JUMPDEST POP PUSH1 0x0 DUP1 SLOAD SWAP1 PUSH2 0x100 EXP SWAP1 DIV PUSH20 0xFFFFFFFFFFFFFFFFFFFFFFFFFFFFFFFFFFFFFFFF AND PUSH20 0xFFFFFFFFFFFFFFFFFFFFFFFFFFFFFFFFFFFFFFFF AND CALLER PUSH20 0xFFFFFFFFFFFFFFFFFFFFFFFFFFFFFFFFFFFFFFFF AND EQ PUSH2 0xC89 JUMPI PUSH1 0x40 MLOAD PUSH32 0x8C379A000000000000000000000000000000000000000000000000000000000 DUP2 MSTORE PUSH1 0x4 ADD PUSH2 0xC80 SWAP1 PUSH2 0xF66 JUMP JUMPDEST PUSH1 0x40 MLOAD DUP1 SWAP2 SUB SWAP1 REVERT JUMPDEST PUSH1 0x14 PUSH1 0x4 PUSH1 0x0 ADDRESS PUSH20 0xFFFFFFFFFFFFFFFFFFFFFFFFFFFFFFFFFFFFFFFF AND PUSH20 0xFFFFFFFFFFFFFFFFFFFFFFFFFFFFFFFFFFFFFFFF AND DUP2 MSTORE PUSH1 0x20 ADD SWAP1 DUP2 MSTORE PUSH1 0x20 ADD PUSH1 0x0 KECCAK256 DUP2 SWAP1 SSTORE POP JUMP JUMPDEST PUSH1 0x0 DUP1 REVERT JUMPDEST PUSH1 0x0 PUSH20 0xFFFFFFFFFFFFFFFFFFFFFFFFFFFFFFFFFFFFFFFF DUP3 AND SWAP1 POP SWAP2 SWAP1 POP JUMP JUMPDEST PUSH1 0x0 PUSH2 0xD00 DUP3 PUSH2 0xCD5 JUMP JUMPDEST SWAP1 POP SWAP2 SWAP1 POP JUMP JUMPDEST PUSH2 0xD10 DUP2 PUSH2 0xCF5 JUMP JUMPDEST DUP2 EQ PUSH2 0xD1B JUMPI PUSH1 0x0 DUP1 REVERT JUMPDEST POP JUMP JUMPDEST PUSH1 0x0 DUP2 CALLDATALOAD SWAP1 POP PUSH2 0xD2D DUP2 PUSH2 0xD07 JUMP JUMPDEST SWAP3 SWAP2 POP POP JUMP JUMPDEST PUSH1 0x0 PUSH1 0x20 DUP3 DUP5 SUB SLT ISZERO PUSH2 0xD49 JUMPI PUSH2 0xD48 PUSH2 0xCD0 JUMP JUMPDEST JUMPDEST PUSH1 0x0 PUSH2 0xD57 DUP5 DUP3 DUP6 ADD PUSH2 0xD1E JUMP JUMPDEST SWAP2 POP POP SWAP3 SWAP2 POP POP JUMP JUMPDEST PUSH1 0x0 DUP2 SWAP1 POP SWAP2 SWAP1 POP JUMP JUMPDEST PUSH2 0xD73 DUP2 PUSH2 0xD60 JUMP JUMPDEST DUP3 MSTORE POP POP JUMP JUMPDEST PUSH1 0x0 PUSH1 0x20 DUP3 ADD SWAP1 POP PUSH2 0xD8E PUSH1 0x0 DUP4 ADD DUP5 PUSH2 0xD6A JUMP JUMPDEST SWAP3 SWAP2 POP POP JUMP JUMPDEST PUSH1 0x0 PUSH2 0xD9F DUP3 PUSH2 0xCD5 JUMP JUMPDEST SWAP1 POP SWAP2 SWAP1 POP JUMP JUMPDEST PUSH2 0xDAF DUP2 PUSH2 0xD94 JUMP JUMPDEST DUP3 MSTORE POP POP JUMP JUMPDEST PUSH1 0x0 PUSH1 0x20 DUP3 ADD SWAP1 POP PUSH2 0xDCA PUSH1 0x0 DUP4 ADD DUP5 PUSH2 0xDA6 JUMP JUMPDEST SWAP3 SWAP2 POP POP JUMP JUMPDEST PUSH2 0xDD9 DUP2 PUSH2 0xD60 JUMP JUMPDEST DUP2 EQ PUSH2 0xDE4 JUMPI PUSH1 0x0 DUP1 REVERT JUMPDEST POP JUMP JUMPDEST PUSH1 0x0 DUP2 CALLDATALOAD SWAP1 POP PUSH2 0xDF6 DUP2 PUSH2 0xDD0 JUMP JUMPDEST SWAP3 SWAP2 POP POP JUMP JUMPDEST PUSH1 0x0 PUSH1 0x20 DUP3 DUP5 SUB SLT ISZERO PUSH2 0xE12 JUMPI PUSH2 0xE11 PUSH2 0xCD0 JUMP JUMPDEST JUMPDEST PUSH1 0x0 PUSH2 0xE20 DUP5 DUP3 DUP6 ADD PUSH2 0xDE7 JUMP JUMPDEST SWAP2 POP POP SWAP3 SWAP2 POP POP JUMP JUMPDEST PUSH2 0xE32 DUP2 PUSH2 0xD94 JUMP JUMPDEST DUP2 EQ PUSH2 0xE3D JUMPI PUSH1 0x0 DUP1 REVERT JUMPDEST POP JUMP JUMPDEST PUSH1 0x0 DUP2 CALLDATALOAD SWAP1 POP PUSH2 0xE4F DUP2 PUSH2 0xE29 JUMP JUMPDEST SWAP3 SWAP2 POP POP JUMP JUMPDEST PUSH1 0x0 PUSH1 0x20 DUP3 DUP5 SUB SLT ISZERO PUSH2 0xE6B JUMPI PUSH2 0xE6A PUSH2 0xCD0 JUMP JUMPDEST JUMPDEST PUSH1 0x0 PUSH2 0xE79 DUP5 DUP3 DUP6 ADD PUSH2 0xE40 JUMP JUMPDEST SWAP2 POP POP SWAP3 SWAP2 POP POP JUMP JUMPDEST PUSH2 0xE8B DUP2 PUSH2 0xCF5 JUMP JUMPDEST DUP3 MSTORE POP POP JUMP JUMPDEST PUSH1 0x0 PUSH1 0x20 DUP3 ADD SWAP1 POP PUSH2 0xEA6 PUSH1 0x0 DUP4 ADD DUP5 PUSH2 0xE82 JUMP JUMPDEST SWAP3 SWAP2 POP POP JUMP JUMPDEST PUSH1 0x0 PUSH1 0x60 DUP3 ADD SWAP1 POP PUSH2 0xEC1 PUSH1 0x0 DUP4 ADD DUP7 PUSH2 0xD6A JUMP JUMPDEST PUSH2 0xECE PUSH1 0x20 DUP4 ADD DUP6 PUSH2 0xD6A JUMP JUMPDEST PUSH2 0xEDB PUSH1 0x40 DUP4 ADD DUP5 PUSH2 0xD6A JUMP JUMPDEST SWAP5 SWAP4 POP POP POP POP JUMP JUMPDEST PUSH1 0x0 DUP3 DUP3 MSTORE PUSH1 0x20 DUP3 ADD SWAP1 POP SWAP3 SWAP2 POP POP JUMP JUMPDEST PUSH32 0x4F6E6C7920746865206F776E6572206F6620746869732066697368206D616368 PUSH1 0x0 DUP3 ADD MSTORE PUSH32 0x696E652063616E20726573746F636B2069742E00000000000000000000000000 PUSH1 0x20 DUP3 ADD MSTORE POP JUMP JUMPDEST PUSH1 0x0 PUSH2 0xF50 PUSH1 0x33 DUP4 PUSH2 0xEE3 JUMP JUMPDEST SWAP2 POP PUSH2 0xF5B DUP3 PUSH2 0xEF4 JUMP JUMPDEST PUSH1 0x40 DUP3 ADD SWAP1 POP SWAP2 SWAP1 POP JUMP JUMPDEST PUSH1 0x0 PUSH1 0x20 DUP3 ADD SWAP1 POP DUP2 DUP2 SUB PUSH1 0x0 DUP4 ADD MSTORE PUSH2 0xF7F DUP2 PUSH2 0xF43 JUMP JUMPDEST SWAP1 POP SWAP2 SWAP1 POP JUMP JUMPDEST PUSH32 0x4E487B7100000000000000000000000000000000000000000000000000000000 PUSH1 0x0 MSTORE PUSH1 0x11 PUSH1 0x4 MSTORE PUSH1 0x24 PUSH1 0x0 REVERT JUMPDEST PUSH1 0x0 PUSH2 0xFC0 DUP3 PUSH2 0xD60 JUMP JUMPDEST SWAP2 POP PUSH2 0xFCB DUP4 PUSH2 0xD60 JUMP JUMPDEST SWAP3 POP DUP2 PUSH32 0xFFFFFFFFFFFFFFFFFFFFFFFFFFFFFFFFFFFFFFFFFFFFFFFFFFFFFFFFFFFFFFFF DIV DUP4 GT DUP3 ISZERO ISZERO AND ISZERO PUSH2 0x1004 JUMPI PUSH2 0x1003 PUSH2 0xF86 JUMP JUMPDEST JUMPDEST DUP3 DUP3 MUL SWAP1 POP SWAP3 SWAP2 POP POP JUMP JUMPDEST PUSH32 0x456163682041686920636F73747320332065746865722E000000000000000000 PUSH1 0x0 DUP3 ADD MSTORE POP JUMP JUMPDEST PUSH1 0x0 PUSH2 0x1045 PUSH1 0x17 DUP4 PUSH2 0xEE3 JUMP JUMPDEST SWAP2 POP PUSH2 0x1050 DUP3 PUSH2 0x100F JUMP JUMPDEST PUSH1 0x20 DUP3 ADD SWAP1 POP SWAP2 SWAP1 POP JUMP JUMPDEST PUSH1 0x0 PUSH1 0x20 DUP3 ADD SWAP1 POP DUP2 DUP2 SUB PUSH1 0x0 DUP4 ADD MSTORE PUSH2 0x1074 DUP2 PUSH2 0x1038 JUMP JUMPDEST SWAP1 POP SWAP2 SWAP1 POP JUMP JUMPDEST PUSH32 0x576520646F206E6F74206861766520656E6F7567682041686920746F2066756C PUSH1 0x0 DUP3 ADD MSTORE PUSH32 0x66696C6C20796F7572206F726465722E00000000000000000000000000000000 PUSH1 0x20 DUP3 ADD MSTORE POP JUMP JUMPDEST PUSH1 0x0 PUSH2 0x10D7 PUSH1 0x30 DUP4 PUSH2 0xEE3 JUMP JUMPDEST SWAP2 POP PUSH2 0x10E2 DUP3 PUSH2 0x107B JUMP JUMPDEST PUSH1 0x40 DUP3 ADD SWAP1 POP SWAP2 SWAP1 POP JUMP JUMPDEST PUSH1 0x0 PUSH1 0x20 DUP3 ADD SWAP1 POP DUP2 DUP2 SUB PUSH1 0x0 DUP4 ADD MSTORE PUSH2 0x1106 DUP2 PUSH2 0x10CA JUMP JUMPDEST SWAP1 POP SWAP2 SWAP1 POP JUMP JUMPDEST PUSH1 0x0 PUSH2 0x1118 DUP3 PUSH2 0xD60 JUMP JUMPDEST SWAP2 POP PUSH2 0x1123 DUP4 PUSH2 0xD60 JUMP JUMPDEST SWAP3 POP DUP3 DUP3 LT ISZERO PUSH2 0x1136 JUMPI PUSH2 0x1135 PUSH2 0xF86 JUMP JUMPDEST JUMPDEST DUP3 DUP3 SUB SWAP1 POP SWAP3 SWAP2 POP POP JUMP JUMPDEST PUSH1 0x0 PUSH2 0x114C DUP3 PUSH2 0xD60 JUMP JUMPDEST SWAP2 POP PUSH2 0x1157 DUP4 PUSH2 0xD60 JUMP JUMPDEST SWAP3 POP DUP3 PUSH32 0xFFFFFFFFFFFFFFFFFFFFFFFFFFFFFFFFFFFFFFFFFFFFFFFFFFFFFFFFFFFFFFFF SUB DUP3 GT ISZERO PUSH2 0x118C JUMPI PUSH2 0x118B PUSH2 0xF86 JUMP JUMPDEST JUMPDEST DUP3 DUP3 ADD SWAP1 POP SWAP3 SWAP2 POP POP JUMP JUMPDEST PUSH32 0x45616368204368756220636F73747320312065746865722E0000000000000000 PUSH1 0x0 DUP3 ADD MSTORE POP JUMP JUMPDEST PUSH1 0x0 PUSH2 0x11CD PUSH1 0x18 DUP4 PUSH2 0xEE3 JUMP JUMPDEST SWAP2 POP PUSH2 0x11D8 DUP3 PUSH2 0x1197 JUMP JUMPDEST PUSH1 0x20 DUP3 ADD SWAP1 POP SWAP2 SWAP1 POP JUMP JUMPDEST PUSH1 0x0 PUSH1 0x20 DUP3 ADD SWAP1 POP DUP2 DUP2 SUB PUSH1 0x0 DUP4 ADD MSTORE PUSH2 0x11FC DUP2 PUSH2 0x11C0 JUMP JUMPDEST SWAP1 POP SWAP2 SWAP1 POP JUMP JUMPDEST PUSH32 0x576520646F206E6F74206861766520656E6F756768204368756220746F206675 PUSH1 0x0 DUP3 ADD MSTORE PUSH32 0x6C66696C6C20796F7572206F726465722E000000000000000000000000000000 PUSH1 0x20 DUP3 ADD MSTORE POP JUMP JUMPDEST PUSH1 0x0 PUSH2 0x125F PUSH1 0x31 DUP4 PUSH2 0xEE3 JUMP JUMPDEST SWAP2 POP PUSH2 0x126A DUP3 PUSH2 0x1203 JUMP JUMPDEST PUSH1 0x40 DUP3 ADD SWAP1 POP SWAP2 SWAP1 POP JUMP JUMPDEST PUSH1 0x0 PUSH1 0x20 DUP3 ADD SWAP1 POP DUP2 DUP2 SUB PUSH1 0x0 DUP4 ADD MSTORE PUSH2 0x128E DUP2 PUSH2 0x1252 JUMP JUMPDEST SWAP1 POP SWAP2 SWAP1 POP JUMP JUMPDEST PUSH32 0x4561636820427265616D20636F73747320322065746865722E00000000000000 PUSH1 0x0 DUP3 ADD MSTORE POP JUMP JUMPDEST PUSH1 0x0 PUSH2 0x12CB PUSH1 0x19 DUP4 PUSH2 0xEE3 JUMP JUMPDEST SWAP2 POP PUSH2 0x12D6 DUP3 PUSH2 0x1295 JUMP JUMPDEST PUSH1 0x20 DUP3 ADD SWAP1 POP SWAP2 SWAP1 POP JUMP JUMPDEST PUSH1 0x0 PUSH1 0x20 DUP3 ADD SWAP1 POP DUP2 DUP2 SUB PUSH1 0x0 DUP4 ADD MSTORE PUSH2 0x12FA DUP2 PUSH2 0x12BE JUMP JUMPDEST SWAP1 POP SWAP2 SWAP1 POP JUMP JUMPDEST PUSH32 0x576520646F206E6F74206861766520656E6F75676820427265616D20746F2066 PUSH1 0x0 DUP3 ADD MSTORE PUSH32 0x756C66696C6C20796F7572206F726465722E0000000000000000000000000000 PUSH1 0x20 DUP3 ADD MSTORE POP JUMP JUMPDEST PUSH1 0x0 PUSH2 0x135D PUSH1 0x32 DUP4 PUSH2 0xEE3 JUMP JUMPDEST SWAP2 POP PUSH2 0x1368 DUP3 PUSH2 0x1301 JUMP JUMPDEST PUSH1 0x40 DUP3 ADD SWAP1 POP SWAP2 SWAP1 POP JUMP JUMPDEST PUSH1 0x0 PUSH1 0x20 DUP3 ADD SWAP1 POP DUP2 DUP2 SUB PUSH1 0x0 DUP4 ADD MSTORE PUSH2 0x138C DUP2 PUSH2 0x1350 JUMP JUMPDEST SWAP1 POP SWAP2 SWAP1 POP JUMP INVALID LOG2 PUSH5 0x6970667358 0x22 SLT KECCAK256 CALLVALUE SWAP5 DUP15 0xF7 0xB7 0xE4 DUP5 0x4C 0xAB 0xB1 DIFFICULTY PUSH5 0x1303F97F01 0xD2 SHL 0xB9 PUSH1 0x64 PUSH29 0x15EAD9EFC8889880A464736F6C634300080B0033000000000000000000 "
				},
				"gasEstimates": {
					"creation": {
						"codeDepositCost": "1013000",
						"executionCost": "91929",
						"totalCost": "1104929"
					},
					"external": {
						"ahiBalance(address)": "2815",
						"ahiRestock()": "infinite",
						"assignSupplier(address)": "24811",
						"breamBalance(address)": "2859",
						"breamRestock()": "infinite",
						"chubBalance(address)": "2858",
						"chubRestock()": "infinite",
						"getMachineBalance()": "infinite",
						"owner()": "2622",
						"purchaseAhi(uint256)": "infinite",
						"purchaseBream(uint256)": "infinite",
						"purchaseChub(uint256)": "infinite",
						"supplier()": "2537"
					}
				},
				"methodIdentifiers": {
					"ahiBalance(address)": "04018ed5",
					"ahiRestock()": "4824e20f",
					"assignSupplier(address)": "801a00ac",
					"breamBalance(address)": "af4551e3",
					"breamRestock()": "c08aea42",
					"chubBalance(address)": "f142912c",
					"chubRestock()": "ff3ba3b4",
					"getMachineBalance()": "ddd4be0b",
					"owner()": "8da5cb5b",
					"purchaseAhi(uint256)": "7eee24fa",
					"purchaseBream(uint256)": "fdc2a44c",
					"purchaseChub(uint256)": "ac375a46",
					"supplier()": "36da4468"
				}
			},
			"storageLayout": {
				"storage": [
					{
						"astId": 3,
						"contract": "Documents/Web3/Fish Themed Projects/001 Fish Vending Machine.sol:FishMachine",
						"label": "owner",
						"offset": 0,
						"slot": "0",
						"type": "t_address"
					},
					{
						"astId": 5,
						"contract": "Documents/Web3/Fish Themed Projects/001 Fish Vending Machine.sol:FishMachine",
						"label": "supplier",
						"offset": 0,
						"slot": "1",
						"type": "t_address_payable"
					},
					{
						"astId": 9,
						"contract": "Documents/Web3/Fish Themed Projects/001 Fish Vending Machine.sol:FishMachine",
						"label": "ahiBalance",
						"offset": 0,
						"slot": "2",
						"type": "t_mapping(t_address,t_uint256)"
					},
					{
						"astId": 13,
						"contract": "Documents/Web3/Fish Themed Projects/001 Fish Vending Machine.sol:FishMachine",
						"label": "breamBalance",
						"offset": 0,
						"slot": "3",
						"type": "t_mapping(t_address,t_uint256)"
					},
					{
						"astId": 17,
						"contract": "Documents/Web3/Fish Themed Projects/001 Fish Vending Machine.sol:FishMachine",
						"label": "chubBalance",
						"offset": 0,
						"slot": "4",
						"type": "t_mapping(t_address,t_uint256)"
					}
				],
				"types": {
					"t_address": {
						"encoding": "inplace",
						"label": "address",
						"numberOfBytes": "20"
					},
					"t_address_payable": {
						"encoding": "inplace",
						"label": "address payable",
						"numberOfBytes": "20"
					},
					"t_mapping(t_address,t_uint256)": {
						"encoding": "mapping",
						"key": "t_address",
						"label": "mapping(address => uint256)",
						"numberOfBytes": "32",
						"value": "t_uint256"
					},
					"t_uint256": {
						"encoding": "inplace",
						"label": "uint256",
						"numberOfBytes": "32"
					}
				}
			},
			"userdoc": {
				"kind": "user",
				"methods": {},
				"version": 1
			}
		}
	}
}